{
  "abi": [
    {
      "inputs": [
        {
          "internalType": "address",
          "name": "_owner",
          "type": "address"
        },
        {
          "internalType": "address",
          "name": "_target",
          "type": "address"
        },
        {
          "internalType": "address[]",
          "name": "_spaces",
          "type": "address[]"
        },
        {
          "internalType": "uint256",
          "name": "_quorum",
          "type": "uint256"
        }
      ],
      "stateMutability": "nonpayable",
      "type": "constructor"
    },
    {
      "inputs": [],
      "name": "ExecutionFailed",
      "type": "error"
    },
    {
      "inputs": [],
      "name": "InvalidPayload",
      "type": "error"
    },
    {
      "inputs": [
        {
          "internalType": "enum ProposalStatus",
          "name": "status",
          "type": "uint8"
        }
      ],
      "name": "InvalidProposalStatus",
      "type": "error"
    },
    {
      "inputs": [],
      "name": "InvalidSpace",
      "type": "error"
    },
    {
      "anonymous": false,
      "inputs": [
        {
          "indexed": false,
          "internalType": "address",
          "name": "_owner",
          "type": "address"
        },
        {
          "indexed": false,
          "internalType": "address",
          "name": "_target",
          "type": "address"
        },
        {
          "indexed": false,
          "internalType": "address[]",
          "name": "_spaces",
          "type": "address[]"
        }
      ],
      "name": "AvatarExecutionStrategySetUp",
      "type": "event"
    },
    {
      "anonymous": false,
      "inputs": [
        {
          "indexed": false,
          "internalType": "uint8",
          "name": "version",
          "type": "uint8"
        }
      ],
      "name": "Initialized",
      "type": "event"
    },
    {
      "anonymous": false,
      "inputs": [
        {
          "indexed": true,
          "internalType": "address",
          "name": "previousOwner",
          "type": "address"
        },
        {
          "indexed": true,
          "internalType": "address",
          "name": "newOwner",
          "type": "address"
        }
      ],
      "name": "OwnershipTransferred",
      "type": "event"
    },
    {
      "anonymous": false,
      "inputs": [
        {
          "indexed": false,
          "internalType": "address",
          "name": "space",
          "type": "address"
        }
      ],
      "name": "SpaceDisabled",
      "type": "event"
    },
    {
      "anonymous": false,
      "inputs": [
        {
          "indexed": false,
          "internalType": "address",
          "name": "space",
          "type": "address"
        }
      ],
      "name": "SpaceEnabled",
      "type": "event"
    },
    {
      "anonymous": false,
      "inputs": [
        {
          "indexed": true,
          "internalType": "address",
          "name": "newTarget",
          "type": "address"
        }
      ],
      "name": "TargetSet",
      "type": "event"
    },
    {
      "inputs": [
        {
          "internalType": "address",
          "name": "space",
          "type": "address"
        }
      ],
      "name": "disableSpace",
      "outputs": [],
      "stateMutability": "nonpayable",
      "type": "function"
    },
    {
      "inputs": [
        {
          "internalType": "address",
          "name": "space",
          "type": "address"
        }
      ],
      "name": "enableSpace",
      "outputs": [],
      "stateMutability": "nonpayable",
      "type": "function"
    },
    {
      "inputs": [
        {
          "components": [
            {
              "internalType": "uint32",
              "name": "snapshotTimestamp",
              "type": "uint32"
            },
            {
              "internalType": "uint32",
              "name": "startTimestamp",
              "type": "uint32"
            },
            {
              "internalType": "uint32",
              "name": "minEndTimestamp",
              "type": "uint32"
            },
            {
              "internalType": "uint32",
              "name": "maxEndTimestamp",
              "type": "uint32"
            },
            {
              "internalType": "bytes32",
              "name": "executionPayloadHash",
              "type": "bytes32"
            },
            {
              "internalType": "contract IExecutionStrategy",
              "name": "executionStrategy",
              "type": "address"
            },
            {
              "internalType": "address",
              "name": "author",
              "type": "address"
            },
            {
              "internalType": "enum FinalizationStatus",
              "name": "finalizationStatus",
              "type": "uint8"
            },
            {
              "internalType": "uint256",
              "name": "activeVotingStrategies",
              "type": "uint256"
            }
          ],
          "internalType": "struct Proposal",
          "name": "proposal",
          "type": "tuple"
        },
        {
          "internalType": "uint256",
          "name": "votesFor",
          "type": "uint256"
        },
        {
          "internalType": "uint256",
          "name": "votesAgainst",
          "type": "uint256"
        },
        {
          "internalType": "uint256",
          "name": "votesAbstain",
          "type": "uint256"
        },
        {
          "internalType": "bytes",
          "name": "payload",
          "type": "bytes"
        }
      ],
      "name": "execute",
      "outputs": [],
      "stateMutability": "nonpayable",
      "type": "function"
    },
    {
      "inputs": [
        {
          "components": [
            {
              "internalType": "uint32",
              "name": "snapshotTimestamp",
              "type": "uint32"
            },
            {
              "internalType": "uint32",
              "name": "startTimestamp",
              "type": "uint32"
            },
            {
              "internalType": "uint32",
              "name": "minEndTimestamp",
              "type": "uint32"
            },
            {
              "internalType": "uint32",
              "name": "maxEndTimestamp",
              "type": "uint32"
            },
            {
              "internalType": "bytes32",
              "name": "executionPayloadHash",
              "type": "bytes32"
            },
            {
              "internalType": "contract IExecutionStrategy",
              "name": "executionStrategy",
              "type": "address"
            },
            {
              "internalType": "address",
              "name": "author",
              "type": "address"
            },
            {
              "internalType": "enum FinalizationStatus",
              "name": "finalizationStatus",
              "type": "uint8"
            },
            {
              "internalType": "uint256",
              "name": "activeVotingStrategies",
              "type": "uint256"
            }
          ],
          "internalType": "struct Proposal",
          "name": "proposal",
          "type": "tuple"
        },
        {
          "internalType": "uint256",
          "name": "votesFor",
          "type": "uint256"
        },
        {
          "internalType": "uint256",
          "name": "votesAgainst",
          "type": "uint256"
        },
        {
          "internalType": "uint256",
          "name": "votesAbstain",
          "type": "uint256"
        }
      ],
      "name": "getProposalStatus",
      "outputs": [
        {
          "internalType": "enum ProposalStatus",
          "name": "",
          "type": "uint8"
        }
      ],
      "stateMutability": "view",
      "type": "function"
    },
    {
      "inputs": [],
      "name": "getStrategyType",
      "outputs": [
        {
          "internalType": "string",
          "name": "",
          "type": "string"
        }
      ],
      "stateMutability": "pure",
      "type": "function"
    },
    {
      "inputs": [
        {
          "internalType": "address",
          "name": "space",
          "type": "address"
        }
      ],
      "name": "isSpaceEnabled",
      "outputs": [
        {
          "internalType": "bool",
          "name": "",
          "type": "bool"
        }
      ],
      "stateMutability": "view",
      "type": "function"
    },
    {
      "inputs": [],
      "name": "owner",
      "outputs": [
        {
          "internalType": "address",
          "name": "",
          "type": "address"
        }
      ],
      "stateMutability": "view",
      "type": "function"
    },
    {
      "inputs": [],
      "name": "quorum",
      "outputs": [
        {
          "internalType": "uint256",
          "name": "",
          "type": "uint256"
        }
      ],
      "stateMutability": "view",
      "type": "function"
    },
    {
      "inputs": [],
      "name": "renounceOwnership",
      "outputs": [],
      "stateMutability": "nonpayable",
      "type": "function"
    },
    {
      "inputs": [
        {
          "internalType": "address",
          "name": "_target",
          "type": "address"
        }
      ],
      "name": "setTarget",
      "outputs": [],
      "stateMutability": "nonpayable",
      "type": "function"
    },
    {
      "inputs": [
        {
          "internalType": "bytes",
          "name": "initParams",
          "type": "bytes"
        }
      ],
      "name": "setUp",
      "outputs": [],
      "stateMutability": "nonpayable",
      "type": "function"
    },
    {
      "inputs": [],
      "name": "target",
      "outputs": [
        {
          "internalType": "address",
          "name": "",
          "type": "address"
        }
      ],
      "stateMutability": "view",
      "type": "function"
    },
    {
      "inputs": [
        {
          "internalType": "address",
          "name": "newOwner",
          "type": "address"
        }
      ],
      "name": "transferOwnership",
      "outputs": [],
      "stateMutability": "nonpayable",
      "type": "function"
    }
  ],
  "bytecode": {
    "object": "0x608060409080825234620003ee5762001a458038038091620000228285620003f3565b83398101608082820312620003ee576200003c826200042d565b6020916200004c8385016200042d565b8486015190916001600160401b0391828111620003ee576060916200007391880162000442565b950151928651958587019460018060a01b0380931686528289890195168552620000c588620000af60608201946080865260a0830190620004b9565b6080820193845203601f1981018a5289620003f3565b600094855460ff998a8260081c161596878098620003e1575b8015620003c9575b156200036e5760019960ff1993898c868316178c556200035c575b50825183019060808483031262000358576200012162000128916200042d565b956200042d565b9651918211620003545787928c84938162000147940192010162000442565b945193169416946200016a8b895460081c166200016481620004f8565b620004f8565b620001753362000559565b3381603354160362000312578415620002bf57620001938562000559565b620001a48b895460081c16620004f8565b87895b6200026c575b5050507f621a036730af1cc915beba86ec9f773f11d2983a09e67fa9d62c6cebedf2364e9392916200021b91620001eb88549b8c60081c16620004f8565b6066558360018060a01b031960675416176067558a5193849384528984015260608b8401526060830190620004b9565b0390a162000233575b84516114a29081620005a38239f35b7f7f26b83ff96e1f2b6a682f133852f6798a09c465da95921460cefb38474024989361ff00191690558351908152a13880808062000224565b8451811015620002b957818b8260051b8701015116895260658b528c89208a848254161790556000198114620002a557890189620001a7565b634e487b7160e01b89526011600452602489fd5b620001ad565b8b5162461bcd60e51b8152600481018b9052602660248201527f4f776e61626c653a206e6577206f776e657220697320746865207a65726f206160448201526564647265737360d01b6064820152608490fd5b60648a8d519062461bcd60e51b825280600483015260248201527f4f776e61626c653a2063616c6c6572206973206e6f7420746865206f776e65726044820152fd5b8980fd5b8a80fd5b61ffff1916610101178a553862000101565b8c5162461bcd60e51b8152600481018c9052602e60248201527f496e697469616c697a61626c653a20636f6e747261637420697320616c72656160448201526d191e481a5b9a5d1a585b1a5e995960921b6064820152608490fd5b50303b158015620000e6575060018c841614620000e6565b5060018c841610620000de565b600080fd5b601f909101601f19168101906001600160401b038211908210176200041757604052565b634e487b7160e01b600052604160045260246000fd5b51906001600160a01b0382168203620003ee57565b9080601f83011215620003ee578151906001600160401b03821162000417578160051b604051936020936200047a85840187620003f3565b85528380860192820101928311620003ee578301905b8282106200049f575050505090565b838091620004ad846200042d565b81520191019062000490565b90815180825260208080930193019160005b828110620004da575050505090565b83516001600160a01b031685529381019392810192600101620004cb565b156200050057565b60405162461bcd60e51b815260206004820152602b60248201527f496e697469616c697a61626c653a20636f6e7472616374206973206e6f74206960448201526a6e697469616c697a696e6760a81b6064820152608490fd5b603380546001600160a01b039283166001600160a01b0319821681179092559091167f8be0079c531659141344cd1fd0a4f28419497f9722a3daafe3b4186f6b6457e0600080a356fe608060405260048036101561001357600080fd5b60003560e01c806301fe221214610a1f5780630eb9b15a1461097f5780631703a018146109615780636efd971c14610915578063715018a614610895578063776d1a011461080d5780638da5cb5b146107d95780639e33d81114610729578063a4f9edbf146102e0578063b3d8ecdf1461029b578063d4b8399214610267578063d92d4ea01461017e5763f2fde38b146100ac57600080fd5b34610179576020600319360112610179576100c5610f5d565b906100ce611177565b73ffffffffffffffffffffffffffffffffffffffff8216156100f5576100f3826111f6565b005b6084906020604051917f08c379a0000000000000000000000000000000000000000000000000000000008352820152602660248201527f4f776e61626c653a206e6577206f776e657220697320746865207a65726f206160448201527f64647265737300000000000000000000000000000000000000000000000000006064820152fd5b600080fd5b50346101795760206003193601126101795773ffffffffffffffffffffffffffffffffffffffff6101ad610f5d565b6101b5611177565b16908115801561024f575b610227577fc3dc08a46232e8d0a95510120799f1e68e0aa28c88730b8b0127d5ff4565b4b06020838060005260658252604060002060017fffffffffffffffffffffffffffffffffffffffffffffffffffffffffffffff00825416179055604051908152a1005b6040517fc3b48cf1000000000000000000000000000000000000000000000000000000008152fd5b5081600052606560205260ff604060002054166101c0565b3461017957600060031936011261017957602073ffffffffffffffffffffffffffffffffffffffff60675416604051908152f35b3461017957610180600319360112610179576102dc6102d06102bc36610f80565b6101643590610144359061012435906113c6565b60405191829182611135565b0390f35b5034610179576020806003193601126101795767ffffffffffffffff918035838111610179576103139036908301611088565b926000549160ff94858460081c16159283809461071d575b8015610707575b15610684576001947fffffffffffffffffffffffffffffffffffffffffffffffffffffffffffffff0090858783831617600055610655575b50825183019260808189860195031261017957610388888201611263565b9161039560408301611263565b9360608301519081116101795782019185603f840112156101795789830151956103be87611284565b936103cc6040519586610eed565b8785528b8501906040829960051b8201019283116101795760408d9101915b83831061063d5750505050608001519073ffffffffffffffffffffffffffffffffffffffff808095169516966104308c60005460081c1661042b8161129c565b61129c565b610439336111f6565b610441611177565b85156105ba575088906104558695966111f6565b6104658c60005460081c1661129c565b6000825b610573575b5050506104826000549a8b60081c1661129c565b606655847fffffffffffffffffffffffff0000000000000000000000000000000000000000606754161760675560405194606086019286528886015260606040860152518091526080840192916000905b878984841061055b578b91897f621a036730af1cc915beba86ec9f773f11d2983a09e67fa9d62c6cebedf2364e8a8a038ba161050b57005b7fffffffffffffffffffffffffffffffffffffffffffffffffffffffffffff00ff7f7f26b83ff96e1f2b6a682f133852f6798a09c465da95921460cefb38474024989316600055604051908152a1005b855183168752958601959094019391909101906104d3565b84969596518110156105b257808661058e6105a99388611383565b511660005260658d5260406000208484825416179055611327565b82969596610469565b95949561046e565b6084908b604051917f08c379a0000000000000000000000000000000000000000000000000000000008352820152602660248201527f4f776e61626c653a206e6577206f776e657220697320746865207a65726f206160448201527f64647265737300000000000000000000000000000000000000000000000000006064820152fd5b819061064884611263565b8152019101908c906103eb565b7fffffffffffffffffffffffffffffffffffffffffffffffffffffffffffff000016610101176000553861036a565b60848387604051917f08c379a0000000000000000000000000000000000000000000000000000000008352820152602e60248201527f496e697469616c697a61626c653a20636f6e747261637420697320616c72656160448201527f647920696e697469616c697a65640000000000000000000000000000000000006064820152fd5b50303b1580156103325750600187861614610332565b5060018786161061032b565b50346101795760206003193601126101795773ffffffffffffffffffffffffffffffffffffffff610758610f5d565b610760611177565b169081600052606560205260ff6040600020541615610227577f665604bfe8ee87044ba1f1fd2fb47fe92983c9e187acbb442debf97d3e581921602083806000526065825260406000207fffffffffffffffffffffffffffffffffffffffffffffffffffffffffffffff008154169055604051908152a1005b3461017957600060031936011261017957602073ffffffffffffffffffffffffffffffffffffffff60335416604051908152f35b346101795760206003193601126101795773ffffffffffffffffffffffffffffffffffffffff61083b610f5d565b610843611177565b16807fffffffffffffffffffffffff000000000000000000000000000000000000000060675416176067557f3bfb4bbf112628248058745a3c57e35b13369386e474b8e56c552f3063a4a196600080a2005b34610179576000600319360112610179576108ae611177565b600073ffffffffffffffffffffffffffffffffffffffff6033547fffffffffffffffffffffffff00000000000000000000000000000000000000008116603355167f8be0079c531659141344cd1fd0a4f28419497f9722a3daafe3b4186f6b6457e08280a3005b346101795760206003193601126101795773ffffffffffffffffffffffffffffffffffffffff610943610f5d565b166000526065602052602060ff604060002054166040519015158152f35b34610179576000600319360112610179576020606654604051908152f35b5034610179576000600319360112610179576040516040810181811067ffffffffffffffff8211176109f1576102dc9250604052601281527f53696d706c6551756f72756d417661746172000000000000000000000000000060208201526040519182916020835260208301906110f2565b6041837f4e487b71000000000000000000000000000000000000000000000000000000006000525260246000fd5b5034610179576101a060031936011261017957610a3b36610f80565b6101843567ffffffffffffffff811161017957610a5b9036908401611088565b9033600052606560205260ff6040600020541615610ec457610a88610164356101443561012435846113c6565b6007811015610e9657600381141580610e8b575b610e53575060800151908051916020820192832003610e2a57805181019160208284031261017957519067ffffffffffffffff82116101795760208301603f838301011215610179576020828201015190610af682611284565b93610b046040519586610eed565b82855260208501906020810160408560051b87860101011161017957604085840101915b60408560051b87860101018310610cc557878760005b81518110156100f35773ffffffffffffffffffffffffffffffffffffffff806067541690610b6c8385611383565b515116906020610b7c8486611383565b510151906040610b8c8587611383565b510151926060610b9c8688611383565b5101516002811015610c9757906000886020959493610bfa604051988997889687957f468721a700000000000000000000000000000000000000000000000000000000875286015260248501526080604485015260848401906110f2565b90606483015203925af1908115610c8b57600091610c50575b5015610c2757610c2290611327565b610b3e565b826040517facfdb444000000000000000000000000000000000000000000000000000000008152fd5b90506020813d602011610c83575b81610c6b60209383610eed565b81010312610179575180151581036101795784610c13565b3d9150610c5e565b6040513d6000823e3d90fd5b6021887f4e487b71000000000000000000000000000000000000000000000000000000006000525260246000fd5b82519067ffffffffffffffff82116101795760a07fffffffffffffffffffffffffffffffffffffffffffffffffffffffffffffffe0838988010185030112610179576040519160a0830183811067ffffffffffffffff821117610dfc57604052610d356040828a89010101611263565b83528588018101606081015160208501526080015167ffffffffffffffff81116101795760208501605f82848c8b010101011215610179578060408a9284848b0101010151886060828487610d898361104e565b97610d97604051998a610eed565b83895260208d0195010101010111610179578a6060610dc0938660208701938d010101016110cf565b604084015260a0818988010101519160028310156101795760608401929092528588010160c00151608083015290815260209283019201610b28565b60418b7f4e487b71000000000000000000000000000000000000000000000000000000006000525260246000fd5b826040517f7c6953f9000000000000000000000000000000000000000000000000000000008152fd5b83610e876040519283927fe6ace38e0000000000000000000000000000000000000000000000000000000084528301611135565b0390fd5b506002811415610a9c565b6021847f4e487b71000000000000000000000000000000000000000000000000000000006000525260246000fd5b826040517fc3b48cf1000000000000000000000000000000000000000000000000000000008152fd5b90601f7fffffffffffffffffffffffffffffffffffffffffffffffffffffffffffffffe0910116810190811067ffffffffffffffff821117610f2e57604052565b7f4e487b7100000000000000000000000000000000000000000000000000000000600052604160045260246000fd5b6004359073ffffffffffffffffffffffffffffffffffffffff8216820361017957565b61012091906003190182136101795760405191820182811067ffffffffffffffff821117610f2e576040528163ffffffff6004358181168103610179578252602435818116810361017957602083015260443581811681036101795760408301526064359081168103610179576060820152608435608082015273ffffffffffffffffffffffffffffffffffffffff60a43581811681036101795760a083015260c43590811681036101795760c082015260e43560038110156101795760e082015261010061010435910152565b67ffffffffffffffff8111610f2e57601f017fffffffffffffffffffffffffffffffffffffffffffffffffffffffffffffffe01660200190565b81601f820112156101795780359061109f8261104e565b926110ad6040519485610eed565b8284526020838301011161017957816000926020809301838601378301015290565b60005b8381106110e25750506000910152565b81810151838201526020016110d2565b907fffffffffffffffffffffffffffffffffffffffffffffffffffffffffffffffe0601f60209361112e815180928187528780880191016110cf565b0116010190565b9190602083019260078210156111485752565b7f4e487b7100000000000000000000000000000000000000000000000000000000600052602160045260246000fd5b73ffffffffffffffffffffffffffffffffffffffff60335416330361119857565b60646040517f08c379a000000000000000000000000000000000000000000000000000000000815260206004820152602060248201527f4f776e61626c653a2063616c6c6572206973206e6f7420746865206f776e65726044820152fd5b6033549073ffffffffffffffffffffffffffffffffffffffff80911691827fffffffffffffffffffffffff0000000000000000000000000000000000000000821617603355167f8be0079c531659141344cd1fd0a4f28419497f9722a3daafe3b4186f6b6457e0600080a3565b519073ffffffffffffffffffffffffffffffffffffffff8216820361017957565b67ffffffffffffffff8111610f2e5760051b60200190565b156112a357565b60846040517f08c379a000000000000000000000000000000000000000000000000000000000815260206004820152602b60248201527f496e697469616c697a61626c653a20636f6e7472616374206973206e6f74206960448201527f6e697469616c697a696e670000000000000000000000000000000000000000006064820152fd5b7fffffffffffffffffffffffffffffffffffffffffffffffffffffffffffffffff81146113545760010190565b7f4e487b7100000000000000000000000000000000000000000000000000000000600052601160045260246000fd5b80518210156113975760209160051b010190565b7f4e487b7100000000000000000000000000000000000000000000000000000000600052603260045260246000fd5b9190926113df606654916113da8487611488565b611488565b1015928361147e575b505060e08101805160038110156111485760020361140857505050600690565b51600381101561114857600103611420575050600490565b63ffffffff9081602082015116421060001461143e57505050600090565b6040810151821642101561145457505050600190565b606001511642101561146f571561146a57600290565b600190565b1561147957600390565b600590565b11915038806113e8565b919082018092116113545756fea164736f6c6343000812000a",
    "linkReferences": {}
  },
  "methodIdentifiers": {
    "disableSpace(address)": "9e33d811",
    "enableSpace(address)": "d92d4ea0",
    "execute((uint32,uint32,uint32,uint32,bytes32,address,address,uint8,uint256),uint256,uint256,uint256,bytes)": "01fe2212",
    "getProposalStatus((uint32,uint32,uint32,uint32,bytes32,address,address,uint8,uint256),uint256,uint256,uint256)": "b3d8ecdf",
    "getStrategyType()": "0eb9b15a",
    "isSpaceEnabled(address)": "6efd971c",
    "owner()": "8da5cb5b",
    "quorum()": "1703a018",
    "renounceOwnership()": "715018a6",
    "setTarget(address)": "776d1a01",
    "setUp(bytes)": "a4f9edbf",
    "target()": "d4b83992",
    "transferOwnership(address)": "f2fde38b"
  },
  "id": 72
}