{
  "abi": [
    {
      "inputs": [
        {
          "internalType": "address",
          "name": "_owner",
          "type": "address"
        },
        {
          "internalType": "address",
          "name": "_target",
          "type": "address"
        },
        {
          "internalType": "address[]",
          "name": "_spaces",
          "type": "address[]"
        }
      ],
      "stateMutability": "nonpayable",
      "type": "constructor"
    },
    {
      "inputs": [],
      "name": "ExecutionFailed",
      "type": "error"
    },
    {
      "inputs": [],
      "name": "InvalidPayload",
      "type": "error"
    },
    {
      "inputs": [
        {
          "internalType": "enum ProposalStatus",
          "name": "status",
          "type": "uint8"
        }
      ],
      "name": "InvalidProposalStatus",
      "type": "error"
    },
    {
      "inputs": [],
      "name": "InvalidSpace",
      "type": "error"
    },
    {
      "inputs": [],
      "name": "TransactionsFailed",
      "type": "error"
    },
    {
      "anonymous": false,
      "inputs": [
        {
          "indexed": false,
          "internalType": "address",
          "name": "_owner",
          "type": "address"
        },
        {
          "indexed": false,
          "internalType": "address",
          "name": "_target",
          "type": "address"
        },
        {
          "indexed": false,
          "internalType": "address[]",
          "name": "_spaces",
          "type": "address[]"
        }
      ],
      "name": "AvatarExecutionStrategySetUp",
      "type": "event"
    },
    {
      "anonymous": false,
      "inputs": [
        {
          "indexed": false,
          "internalType": "uint8",
          "name": "version",
          "type": "uint8"
        }
      ],
      "name": "Initialized",
      "type": "event"
    },
    {
      "anonymous": false,
      "inputs": [
        {
          "indexed": true,
          "internalType": "address",
          "name": "previousOwner",
          "type": "address"
        },
        {
          "indexed": true,
          "internalType": "address",
          "name": "newOwner",
          "type": "address"
        }
      ],
      "name": "OwnershipTransferred",
      "type": "event"
    },
    {
      "anonymous": false,
      "inputs": [
        {
          "indexed": false,
          "internalType": "address",
          "name": "space",
          "type": "address"
        }
      ],
      "name": "SpaceDisabled",
      "type": "event"
    },
    {
      "anonymous": false,
      "inputs": [
        {
          "indexed": false,
          "internalType": "address",
          "name": "space",
          "type": "address"
        }
      ],
      "name": "SpaceEnabled",
      "type": "event"
    },
    {
      "anonymous": false,
      "inputs": [
        {
          "indexed": true,
          "internalType": "address",
          "name": "newTarget",
          "type": "address"
        }
      ],
      "name": "TargetSet",
      "type": "event"
    },
    {
      "inputs": [
        {
          "internalType": "address",
          "name": "space",
          "type": "address"
        }
      ],
      "name": "disableSpace",
      "outputs": [],
      "stateMutability": "nonpayable",
      "type": "function"
    },
    {
      "inputs": [
        {
          "internalType": "address",
          "name": "space",
          "type": "address"
        }
      ],
      "name": "enableSpace",
      "outputs": [],
      "stateMutability": "nonpayable",
      "type": "function"
    },
    {
      "inputs": [
        {
          "components": [
            {
              "internalType": "uint32",
              "name": "snapshotTimestamp",
              "type": "uint32"
            },
            {
              "internalType": "uint32",
              "name": "startTimestamp",
              "type": "uint32"
            },
            {
              "internalType": "uint32",
              "name": "minEndTimestamp",
              "type": "uint32"
            },
            {
              "internalType": "uint32",
              "name": "maxEndTimestamp",
              "type": "uint32"
            },
            {
              "internalType": "bytes32",
              "name": "executionPayloadHash",
              "type": "bytes32"
            },
            {
              "components": [
                {
                  "internalType": "address",
                  "name": "addy",
                  "type": "address"
                },
                {
                  "internalType": "bytes",
                  "name": "params",
                  "type": "bytes"
                }
              ],
              "internalType": "struct Strategy",
              "name": "executionStrategy",
              "type": "tuple"
            },
            {
              "internalType": "address",
              "name": "author",
              "type": "address"
            },
            {
              "internalType": "enum FinalizationStatus",
              "name": "finalizationStatus",
              "type": "uint8"
            },
            {
              "components": [
                {
                  "internalType": "address",
                  "name": "addy",
                  "type": "address"
                },
                {
                  "internalType": "bytes",
                  "name": "params",
                  "type": "bytes"
                }
              ],
              "internalType": "struct Strategy[]",
              "name": "votingStrategies",
              "type": "tuple[]"
            }
          ],
          "internalType": "struct Proposal",
          "name": "proposal",
          "type": "tuple"
        },
        {
          "internalType": "uint256",
          "name": "votesFor",
          "type": "uint256"
        },
        {
          "internalType": "uint256",
          "name": "votesAgainst",
          "type": "uint256"
        },
        {
          "internalType": "uint256",
          "name": "votesAbstain",
          "type": "uint256"
        },
        {
          "internalType": "bytes",
          "name": "payload",
          "type": "bytes"
        }
      ],
      "name": "execute",
      "outputs": [],
      "stateMutability": "nonpayable",
      "type": "function"
    },
    {
      "inputs": [
        {
          "components": [
            {
              "internalType": "uint32",
              "name": "snapshotTimestamp",
              "type": "uint32"
            },
            {
              "internalType": "uint32",
              "name": "startTimestamp",
              "type": "uint32"
            },
            {
              "internalType": "uint32",
              "name": "minEndTimestamp",
              "type": "uint32"
            },
            {
              "internalType": "uint32",
              "name": "maxEndTimestamp",
              "type": "uint32"
            },
            {
              "internalType": "bytes32",
              "name": "executionPayloadHash",
              "type": "bytes32"
            },
            {
              "components": [
                {
                  "internalType": "address",
                  "name": "addy",
                  "type": "address"
                },
                {
                  "internalType": "bytes",
                  "name": "params",
                  "type": "bytes"
                }
              ],
              "internalType": "struct Strategy",
              "name": "executionStrategy",
              "type": "tuple"
            },
            {
              "internalType": "address",
              "name": "author",
              "type": "address"
            },
            {
              "internalType": "enum FinalizationStatus",
              "name": "finalizationStatus",
              "type": "uint8"
            },
            {
              "components": [
                {
                  "internalType": "address",
                  "name": "addy",
                  "type": "address"
                },
                {
                  "internalType": "bytes",
                  "name": "params",
                  "type": "bytes"
                }
              ],
              "internalType": "struct Strategy[]",
              "name": "votingStrategies",
              "type": "tuple[]"
            }
          ],
          "internalType": "struct Proposal",
          "name": "proposal",
          "type": "tuple"
        },
        {
          "internalType": "uint256",
          "name": "votesFor",
          "type": "uint256"
        },
        {
          "internalType": "uint256",
          "name": "votesAgainst",
          "type": "uint256"
        },
        {
          "internalType": "uint256",
          "name": "votesAbstain",
          "type": "uint256"
        }
      ],
      "name": "getProposalStatus",
      "outputs": [
        {
          "internalType": "enum ProposalStatus",
          "name": "",
          "type": "uint8"
        }
      ],
      "stateMutability": "view",
      "type": "function"
    },
    {
      "inputs": [
        {
          "components": [
            {
              "internalType": "uint32",
              "name": "snapshotTimestamp",
              "type": "uint32"
            },
            {
              "internalType": "uint32",
              "name": "startTimestamp",
              "type": "uint32"
            },
            {
              "internalType": "uint32",
              "name": "minEndTimestamp",
              "type": "uint32"
            },
            {
              "internalType": "uint32",
              "name": "maxEndTimestamp",
              "type": "uint32"
            },
            {
              "internalType": "bytes32",
              "name": "executionPayloadHash",
              "type": "bytes32"
            },
            {
              "components": [
                {
                  "internalType": "address",
                  "name": "addy",
                  "type": "address"
                },
                {
                  "internalType": "bytes",
                  "name": "params",
                  "type": "bytes"
                }
              ],
              "internalType": "struct Strategy",
              "name": "executionStrategy",
              "type": "tuple"
            },
            {
              "internalType": "address",
              "name": "author",
              "type": "address"
            },
            {
              "internalType": "enum FinalizationStatus",
              "name": "finalizationStatus",
              "type": "uint8"
            },
            {
              "components": [
                {
                  "internalType": "address",
                  "name": "addy",
                  "type": "address"
                },
                {
                  "internalType": "bytes",
                  "name": "params",
                  "type": "bytes"
                }
              ],
              "internalType": "struct Strategy[]",
              "name": "votingStrategies",
              "type": "tuple[]"
            }
          ],
          "internalType": "struct Proposal",
          "name": "proposal",
          "type": "tuple"
        }
      ],
      "name": "getQuorum",
      "outputs": [
        {
          "internalType": "uint256",
          "name": "",
          "type": "uint256"
        }
      ],
      "stateMutability": "pure",
      "type": "function"
    },
    {
      "inputs": [],
      "name": "getStrategyType",
      "outputs": [
        {
          "internalType": "string",
          "name": "",
          "type": "string"
        }
      ],
      "stateMutability": "pure",
      "type": "function"
    },
    {
      "inputs": [
        {
          "internalType": "address",
          "name": "space",
          "type": "address"
        }
      ],
      "name": "isSpaceEnabled",
      "outputs": [
        {
          "internalType": "bool",
          "name": "",
          "type": "bool"
        }
      ],
      "stateMutability": "view",
      "type": "function"
    },
    {
      "inputs": [],
      "name": "owner",
      "outputs": [
        {
          "internalType": "address",
          "name": "",
          "type": "address"
        }
      ],
      "stateMutability": "view",
      "type": "function"
    },
    {
      "inputs": [],
      "name": "renounceOwnership",
      "outputs": [],
      "stateMutability": "nonpayable",
      "type": "function"
    },
    {
      "inputs": [
        {
          "internalType": "address",
          "name": "_target",
          "type": "address"
        }
      ],
      "name": "setTarget",
      "outputs": [],
      "stateMutability": "nonpayable",
      "type": "function"
    },
    {
      "inputs": [
        {
          "internalType": "bytes",
          "name": "initParams",
          "type": "bytes"
        }
      ],
      "name": "setUp",
      "outputs": [],
      "stateMutability": "nonpayable",
      "type": "function"
    },
    {
      "inputs": [],
      "name": "target",
      "outputs": [
        {
          "internalType": "address",
          "name": "",
          "type": "address"
        }
      ],
      "stateMutability": "view",
      "type": "function"
    },
    {
      "inputs": [
        {
          "internalType": "address",
          "name": "newOwner",
          "type": "address"
        }
      ],
      "name": "transferOwnership",
      "outputs": [],
      "stateMutability": "nonpayable",
      "type": "function"
    }
  ],
  "bytecode": {
    "object": "0x608060409080825234620003e15762001cf98038038091620000228285620003e6565b8339810190606081830312620003e1576200003d8162000420565b906020916200004e83830162000420565b858301516001600160401b039591939091868311620003e1576200009c9262000078920162000435565b926200008d87519485928784019586620004ac565b03601f198101845283620003e6565b60009384549160ff92838160081c161593848095620003d4575b8015620003bc575b620000c99062000506565b60019560ff19928688858316178b55620003aa575b508051810193606082860312620003a657620000fa9062000420565b94620001088b830162000420565b946060830151918211620003a2576200012892908a019101890162000435565b9160018060a01b038080961694169462000153838b5460081c166200014d816200056a565b6200056a565b6200015e33620005cb565b33816033541603620003605784156200030d579087916200017f86620005cb565b8a54620001a5858260081c161580968197620002ff575b8115620002db575b5062000506565b8484848316178d55620002c9575b5090918a905b62000276575b5050507f621a036730af1cc915beba86ec9f773f11d2983a09e67fa9d62c6cebedf2364e9392916200020f9162000250575b606680546001600160a01b03191685179055895193849384620004ac565b0390a162000227575b83516116c49081620006158239f35b60008051602062001cd98339815191529261ff001981541690558351908152a138808062000218565b61ff0019895416895560008051602062001cd9833981519152888b51898152a1620001f1565b8451811015620002c357818a8260051b87010151168b5260658a528b8b2089848254161790556000198114620002af57880188620001b9565b634e487b7160e01b8b52601160045260248bfd5b620001bf565b61ffff1916610101178b5538620001b3565b905085303b159182620002f2575b5050386200019e565b84161490508538620002e9565b905085818416109062000196565b8a5162461bcd60e51b8152600481018a9052602660248201527f4f776e61626c653a206e6577206f776e657220697320746865207a65726f206160448201526564647265737360d01b6064820152608490fd5b6064898c519062461bcd60e51b825280600483015260248201527f4f776e61626c653a2063616c6c6572206973206e6f7420746865206f776e65726044820152fd5b8a80fd5b8980fd5b61ffff191661010117895538620000de565b50303b158015620000be5750818116600114620000be565b50600181831610620000b6565b600080fd5b601f909101601f19168101906001600160401b038211908210176200040a57604052565b634e487b7160e01b600052604160045260246000fd5b51906001600160a01b0382168203620003e157565b9080601f83011215620003e1578151906001600160401b0382116200040a578160051b604051936020936200046d85840187620003e6565b85528380860192820101928311620003e1578301905b82821062000492575050505090565b838091620004a08462000420565b81520191019062000483565b916060830190608060018060a01b0394858095168152602094859316838201526060604082015286518094520194019160005b828110620004ef57505050505090565b8351851686529481019492810192600101620004df565b156200050e57565b60405162461bcd60e51b815260206004820152602e60248201527f496e697469616c697a61626c653a20636f6e747261637420697320616c72656160448201526d191e481a5b9a5d1a585b1a5e995960921b6064820152608490fd5b156200057257565b60405162461bcd60e51b815260206004820152602b60248201527f496e697469616c697a61626c653a20636f6e7472616374206973206e6f74206960448201526a6e697469616c697a696e6760a81b6064820152608490fd5b603380546001600160a01b039283166001600160a01b0319821681179092559091167f8be0079c531659141344cd1fd0a4f28419497f9722a3daafe3b4186f6b6457e0600080a356fe608060405260048036101561001357600080fd5b60003560e01c80630b26b02914610f1d5780630eb9b15a14610e7957806353a1394e14610e255780636efd971c14610dd9578063715018a614610d59578063776d1a0114610cd15780638601320b146108015780638da5cb5b146107cd5780639e33d8111461071d578063a4f9edbf1461029b578063d4b8399214610267578063d92d4ea01461017e5763f2fde38b146100ac57600080fd5b34610179576020600319360112610179576100c5610ff2565b906100ce61130e565b73ffffffffffffffffffffffffffffffffffffffff8216156100f5576100f38261138d565b005b6084906020604051917f08c379a0000000000000000000000000000000000000000000000000000000008352820152602660248201527f4f776e61626c653a206e6577206f776e657220697320746865207a65726f206160448201527f64647265737300000000000000000000000000000000000000000000000000006064820152fd5b600080fd5b50346101795760206003193601126101795773ffffffffffffffffffffffffffffffffffffffff6101ad610ff2565b6101b561130e565b16908115801561024f575b610227577fc3dc08a46232e8d0a95510120799f1e68e0aa28c88730b8b0127d5ff4565b4b06020838060005260658252604060002060017fffffffffffffffffffffffffffffffffffffffffffffffffffffffffffffff00825416179055604051908152a1005b6040517fc3b48cf1000000000000000000000000000000000000000000000000000000008152fd5b5081600052606560205260ff604060002054166101c0565b3461017957600060031936011261017957602073ffffffffffffffffffffffffffffffffffffffff60665416604051908152f35b5034610179576020806003193601126101795767ffffffffffffffff908235828111610179576102ce9036908501611070565b916000549360ff808660081c161592838094610711575b80156106fb575b6102f5906113fa565b6001967fffffffffffffffffffffffffffffffffffffffffffffffffffffffffffffff00908589838316176000556106cc575b50865187019260608888860195031261017957610346878901611485565b9261035360408a01611485565b98606081015191821161017957019184603f8401121561017957878301519461037b8661110e565b936103896040519586610f71565b868552898501906040829860051b8201019283116101795760408b9101915b8383106106b4575050505073ffffffffffffffffffffffffffffffffffffffff808095169916956103e88360005460081c166103e3816114a6565b6114a6565b6103f13361138d565b6103f961130e565b89156106315750899061040b8a61138d565b60005461042e848260081c161580958196610624575b8115610603575b506113fa565b8383838316176000556105d4575b506000825b610596575b505050610540575b837fffffffffffffffffffffffff0000000000000000000000000000000000000000606698949854161760665560405193606085019385528685015260606040850152518092526080830195906000905b888483106105285787877f621a036730af1cc915beba86ec9f773f11d2983a09e67fa9d62c6cebedf2364e888c0389a16104d557005b7f7f26b83ff96e1f2b6a682f133852f6798a09c465da95921460cefb3847402498917fffffffffffffffffffffffffffffffffffffffffffffffffffffffffffff00ff60005416600055604051908152a1005b8351821689529787019792870192919091019061049f565b7fffffffffffffffffffffffffffffffffffffffffffffffffffffffffffff00ff600054166000557f7f26b83ff96e1f2b6a682f133852f6798a09c465da95921460cefb3847402498866040518a8152a161044e565b84518110156105cf5780866105ae6105c9938861158d565b511660005260658b5260406000208484825416179055611531565b82610441565b610446565b7fffffffffffffffffffffffffffffffffffffffffffffffffffffffffffff000016610101176000553861043c565b905084303b159182610618575b505038610428565b84161490508438610610565b9050848184161090610421565b60849089604051917f08c379a0000000000000000000000000000000000000000000000000000000008352820152602660248201527f4f776e61626c653a206e6577206f776e657220697320746865207a65726f206160448201527f64647265737300000000000000000000000000000000000000000000000000006064820152fd5b81906106bf84611485565b8152019101908a906103a8565b7fffffffffffffffffffffffffffffffffffffffffffffffffffffffffffff0000166101011760005538610328565b50303b1580156102ec57508682166001146102ec565b506001828816106102e5565b50346101795760206003193601126101795773ffffffffffffffffffffffffffffffffffffffff61074c610ff2565b61075461130e565b169081600052606560205260ff6040600020541615610227577f665604bfe8ee87044ba1f1fd2fb47fe92983c9e187acbb442debf97d3e581921602083806000526065825260406000207fffffffffffffffffffffffffffffffffffffffffffffffffffffffffffffff008154169055604051908152a1005b3461017957600060031936011261017957602073ffffffffffffffffffffffffffffffffffffffff60335416604051908152f35b50346101795760a060031936011261017957803567ffffffffffffffff8111610179576108319036908301611126565b6084803567ffffffffffffffff8111610179576108519036908501611070565b9133600052606560205260ff6040600020541615610ca85761087b606435604435602435846115d0565b6007811015610c7a57600381141580610c6f575b610c375750608001518251906020840191822003610c0e578251830190602084830312610179575167ffffffffffffffff81116101795760208201603f8286010112156101795760208185010151916108e78361110e565b946108f56040519687610f71565b83865260208601926020830160408660051b83850101011161017957604081830101935b60408660051b83850101018510610ab65788888860005b82518110156100f35773ffffffffffffffffffffffffffffffffffffffff80606654169061095e838661158d565b51511690602061096e848761158d565b51015190604061097e858861158d565b51015192606061098e868961158d565b5101516002811015610a88579060008960209594936109eb604051988997889687957f468721a70000000000000000000000000000000000000000000000000000000087528601526024850152608060448501528b8401906112cb565b90606483015203925af1908115610a7c57600091610a41575b5015610a1857610a1390611531565b610930565b836040517facfdb444000000000000000000000000000000000000000000000000000000008152fd5b90506020813d602011610a74575b81610a5c60209383610f71565b81010312610179575180151581036101795785610a04565b3d9150610a4f565b6040513d6000823e3d90fd5b6021897f4e487b71000000000000000000000000000000000000000000000000000000006000525260246000fd5b845167ffffffffffffffff81116101795760807fffffffffffffffffffffffffffffffffffffffffffffffffffffffffffffffe0828587010187030112610179576040519081608081011067ffffffffffffffff608084011117610be05760808201604052610b2b6040828688010101611485565b8252848401810160608101516020840152608001519067ffffffffffffffff82116101795760208701605f8383888a01010101121561017957604082828789010101015191610b7983611036565b90610b876040519283610f71565b8382526020890160608583868b8d0101010101116101795760a093610bb99160606020850191868b8d010101016112a8565b60408401528486010101516002811015610179576060820152815260209485019401610919565b60418b7f4e487b71000000000000000000000000000000000000000000000000000000006000525260246000fd5b836040517f7c6953f9000000000000000000000000000000000000000000000000000000008152fd5b84610c6b6040519283927fe6ace38e0000000000000000000000000000000000000000000000000000000084528301611266565b0390fd5b50600281141561088f565b6021857f4e487b71000000000000000000000000000000000000000000000000000000006000525260246000fd5b836040517fc3b48cf1000000000000000000000000000000000000000000000000000000008152fd5b346101795760206003193601126101795773ffffffffffffffffffffffffffffffffffffffff610cff610ff2565b610d0761130e565b16807fffffffffffffffffffffffff000000000000000000000000000000000000000060665416176066557f3bfb4bbf112628248058745a3c57e35b13369386e474b8e56c552f3063a4a196600080a2005b3461017957600060031936011261017957610d7261130e565b600073ffffffffffffffffffffffffffffffffffffffff6033547fffffffffffffffffffffffff00000000000000000000000000000000000000008116603355167f8be0079c531659141344cd1fd0a4f28419497f9722a3daafe3b4186f6b6457e08280a3005b346101795760206003193601126101795773ffffffffffffffffffffffffffffffffffffffff610e07610ff2565b166000526065602052602060ff604060002054166040519015158152f35b50346101795760206003193601126101795780359067ffffffffffffffff821161017957610e5a60a091602093369101611126565b0151015160208180518101031261017957602080910151604051908152f35b5034610179576000600319360112610179576040516040810181811067ffffffffffffffff821117610eef57610eeb9250604052601281527f53696d706c6551756f72756d417661746172000000000000000000000000000060208201526040519182916020835260208301906112cb565b0390f35b6041837f4e487b71000000000000000000000000000000000000000000000000000000006000525260246000fd5b50346101795760806003193601126101795780359067ffffffffffffffff821161017957610f54610f6591610eeb93369101611126565b6064359060443590602435906115d0565b60405191829182611266565b90601f7fffffffffffffffffffffffffffffffffffffffffffffffffffffffffffffffe0910116810190811067ffffffffffffffff821117610fb257604052565b7f4e487b7100000000000000000000000000000000000000000000000000000000600052604160045260246000fd5b359063ffffffff8216820361017957565b6004359073ffffffffffffffffffffffffffffffffffffffff8216820361017957565b359073ffffffffffffffffffffffffffffffffffffffff8216820361017957565b67ffffffffffffffff8111610fb257601f017fffffffffffffffffffffffffffffffffffffffffffffffffffffffffffffffe01660200190565b81601f820112156101795780359061108782611036565b926110956040519485610f71565b8284526020838301011161017957816000926020809301838601378301015290565b91909160408184031261017957604080519167ffffffffffffffff91830182811184821017610fb25760405282946110ee82611015565b84526020820135928311610179576020926111099201611070565b910152565b67ffffffffffffffff8111610fb25760051b60200190565b9190916101209081818503126101795760405167ffffffffffffffff92810183811182821017610fb257604052809461115e83610fe1565b825260209061116e828501610fe1565b8284015261117e60408501610fe1565b604084015261118f60608501610fe1565b60608401526080840135608084015260a084013585811161017957816111b69186016110b7565b60a08401526111c760c08501611015565b60c084015260e084013560038110156101795760e0840152610100938481013590868211610179570181601f820112156101795780356112068161110e565b966112146040519889610f71565b818852848089019260051b8401019380851161017957858401925b85841061124157505050505050500152565b833583811161017957879161125b848480948a01016110b7565b81520193019261122f565b9190602083019260078210156112795752565b7f4e487b7100000000000000000000000000000000000000000000000000000000600052602160045260246000fd5b60005b8381106112bb5750506000910152565b81810151838201526020016112ab565b907fffffffffffffffffffffffffffffffffffffffffffffffffffffffffffffffe0601f602093611307815180928187528780880191016112a8565b0116010190565b73ffffffffffffffffffffffffffffffffffffffff60335416330361132f57565b60646040517f08c379a000000000000000000000000000000000000000000000000000000000815260206004820152602060248201527f4f776e61626c653a2063616c6c6572206973206e6f7420746865206f776e65726044820152fd5b6033549073ffffffffffffffffffffffffffffffffffffffff80911691827fffffffffffffffffffffffff0000000000000000000000000000000000000000821617603355167f8be0079c531659141344cd1fd0a4f28419497f9722a3daafe3b4186f6b6457e0600080a3565b1561140157565b60846040517f08c379a000000000000000000000000000000000000000000000000000000000815260206004820152602e60248201527f496e697469616c697a61626c653a20636f6e747261637420697320616c72656160448201527f647920696e697469616c697a65640000000000000000000000000000000000006064820152fd5b519073ffffffffffffffffffffffffffffffffffffffff8216820361017957565b156114ad57565b60846040517f08c379a000000000000000000000000000000000000000000000000000000000815260206004820152602b60248201527f496e697469616c697a61626c653a20636f6e7472616374206973206e6f74206960448201527f6e697469616c697a696e670000000000000000000000000000000000000000006064820152fd5b7fffffffffffffffffffffffffffffffffffffffffffffffffffffffffffffffff811461155e5760010190565b7f4e487b7100000000000000000000000000000000000000000000000000000000600052601160045260246000fd5b80518210156115a15760209160051b010190565b7f4e487b7100000000000000000000000000000000000000000000000000000000600052603260045260246000fd5b919092602060a08401510151602081805181010312610179576020611601910151916115fc84876116aa565b6116aa565b101592836116a0575b505060e08101805160038110156112795760020361162a57505050600690565b51600381101561127957600103611642575050600490565b63ffffffff9081602082015116421060001461166057505050600090565b6040810151821642101561167657505050600190565b6060015116421015611691571561168c57600290565b600190565b1561169b57600390565b600590565b119150388061160a565b9190820180921161155e5756fea164736f6c6343000812000a7f26b83ff96e1f2b6a682f133852f6798a09c465da95921460cefb3847402498",
    "linkReferences": {}
  },
  "methodIdentifiers": {
    "disableSpace(address)": "9e33d811",
    "enableSpace(address)": "d92d4ea0",
    "execute((uint32,uint32,uint32,uint32,bytes32,(address,bytes),address,uint8,(address,bytes)[]),uint256,uint256,uint256,bytes)": "8601320b",
    "getProposalStatus((uint32,uint32,uint32,uint32,bytes32,(address,bytes),address,uint8,(address,bytes)[]),uint256,uint256,uint256)": "0b26b029",
    "getQuorum((uint32,uint32,uint32,uint32,bytes32,(address,bytes),address,uint8,(address,bytes)[]))": "53a1394e",
    "getStrategyType()": "0eb9b15a",
    "isSpaceEnabled(address)": "6efd971c",
    "owner()": "8da5cb5b",
    "renounceOwnership()": "715018a6",
    "setTarget(address)": "776d1a01",
    "setUp(bytes)": "a4f9edbf",
    "target()": "d4b83992",
    "transferOwnership(address)": "f2fde38b"
  },
  "id": 49
}