{
  "abi": [
    {
      "inputs": [],
      "name": "NotAuthorized",
      "type": "error"
    },
    {
      "inputs": [
        {
          "internalType": "address",
          "name": "_module",
          "type": "address"
        }
      ],
      "name": "disableModule",
      "outputs": [],
      "stateMutability": "nonpayable",
      "type": "function"
    },
    {
      "inputs": [
        {
          "internalType": "address",
          "name": "_module",
          "type": "address"
        }
      ],
      "name": "enableModule",
      "outputs": [],
      "stateMutability": "nonpayable",
      "type": "function"
    },
    {
      "inputs": [
        {
          "internalType": "address payable",
          "name": "to",
          "type": "address"
        },
        {
          "internalType": "uint256",
          "name": "value",
          "type": "uint256"
        },
        {
          "internalType": "bytes",
          "name": "data",
          "type": "bytes"
        },
        {
          "internalType": "uint8",
          "name": "operation",
          "type": "uint8"
        }
      ],
      "name": "execTransactionFromModule",
      "outputs": [
        {
          "internalType": "bool",
          "name": "success",
          "type": "bool"
        }
      ],
      "stateMutability": "nonpayable",
      "type": "function"
    },
    {
      "inputs": [
        {
          "internalType": "address",
          "name": "",
          "type": "address"
        },
        {
          "internalType": "uint256",
          "name": "pageSize",
          "type": "uint256"
        }
      ],
      "name": "getModulesPaginated",
      "outputs": [
        {
          "internalType": "address[]",
          "name": "array",
          "type": "address[]"
        },
        {
          "internalType": "address",
          "name": "next",
          "type": "address"
        }
      ],
      "stateMutability": "view",
      "type": "function"
    },
    {
      "inputs": [
        {
          "internalType": "address",
          "name": "_module",
          "type": "address"
        }
      ],
      "name": "isModuleEnabled",
      "outputs": [
        {
          "internalType": "bool",
          "name": "",
          "type": "bool"
        }
      ],
      "stateMutability": "view",
      "type": "function"
    },
    {
      "stateMutability": "payable",
      "type": "receive"
    }
  ],
  "bytecode": {
    "object": "0x60808060405234610016576104cb908161001c8239f35b600080fdfe604060808152600436101561001d575b50361561001b57600080fd5b005b600090813560e01c80632d9ad53d1461037a578063468721a71461023f578063610b5925146101bd578063a95f52461461013e5763cc2f845214610061575061000f565b3461013a57807ffffffffffffffffffffffffffffffffffffffffffffffffffffffffffffffffc36011261013a576100976103c6565b508051906020928383019183831067ffffffffffffffff84111761010d5782815281845280519381850191855251809152606084019290825b8181106100e35750505082938301520390f35b825173ffffffffffffffffffffffffffffffffffffffff16855293860193918601916001016100d0565b6024827f4e487b710000000000000000000000000000000000000000000000000000000081526041600452fd5b5080fd5b503461013a5760207ffffffffffffffffffffffffffffffffffffffffffffffffffffffffffffffffc36011261013a5773ffffffffffffffffffffffffffffffffffffffff61018b6103c6565b1682528160205281207fffffffffffffffffffffffffffffffffffffffffffffffffffffffffffffff00815416905580f35b503461013a5760207ffffffffffffffffffffffffffffffffffffffffffffffffffffffffffffffffc36011261013a5773ffffffffffffffffffffffffffffffffffffffff61020a6103c6565b16825281602052812060017fffffffffffffffffffffffffffffffffffffffffffffffffffffffffffffff0082541617905580f35b503461013a5760807ffffffffffffffffffffffffffffffffffffffffffffffffffffffffffffffffc36011261013a576004359173ffffffffffffffffffffffffffffffffffffffff83168093036103775767ffffffffffffffff604435818111610373573660238201121561037357806004013591821161037357602481019060248336920101116103735760643560ff811680910361036f573384528360205260ff8585205416156103465791602095916001859414600014610322578186519283928337810184815203915af4610317610426565b50905b519015158152f35b818651928392833781018481520391602435905af161033f610426565b509061031a565b600485517fea8e4eb5000000000000000000000000000000000000000000000000000000008152fd5b8380fd5b8280fd5b80fd5b503461013a5760207ffffffffffffffffffffffffffffffffffffffffffffffffffffffffffffffffc36011261013a576020906103bd6103b86103c6565b6103ee565b90519015158152f35b6004359073ffffffffffffffffffffffffffffffffffffffff821682036103e957565b600080fd5b73ffffffffffffffffffffffffffffffffffffffff16600052600060205260ff6040600020541660001461042157600190565b600090565b3d156104b95767ffffffffffffffff903d82811161048a57604051927fffffffffffffffffffffffffffffffffffffffffffffffffffffffffffffffe0603f81601f85011601168401908482109082111761048a5760405282523d6000602084013e565b7f4e487b7100000000000000000000000000000000000000000000000000000000600052604160045260246000fd5b60609056fea164736f6c6343000812000a",
    "linkReferences": {}
  },
  "methodIdentifiers": {
    "disableModule(address)": "a95f5246",
    "enableModule(address)": "610b5925",
    "execTransactionFromModule(address,uint256,bytes,uint8)": "468721a7",
    "getModulesPaginated(address,uint256)": "cc2f8452",
    "isModuleEnabled(address)": "2d9ad53d"
  },
  "id": 89
}