{
  "abi": [
    {
      "inputs": [
        {
          "internalType": "address",
          "name": "_owner",
          "type": "address"
        },
        {
          "internalType": "address",
          "name": "_target",
          "type": "address"
        },
        {
          "internalType": "address[]",
          "name": "_spaces",
          "type": "address[]"
        }
      ],
      "stateMutability": "nonpayable",
      "type": "constructor"
    },
    {
      "inputs": [],
      "name": "ExecutionFailed",
      "type": "error"
    },
    {
      "inputs": [],
      "name": "InvalidPayload",
      "type": "error"
    },
    {
      "inputs": [
        {
          "internalType": "enum ProposalStatus",
          "name": "status",
          "type": "uint8"
        }
      ],
      "name": "InvalidProposalStatus",
      "type": "error"
    },
    {
      "inputs": [],
      "name": "InvalidSpace",
      "type": "error"
    },
    {
      "inputs": [],
      "name": "TransactionsFailed",
      "type": "error"
    },
    {
      "anonymous": false,
      "inputs": [
        {
          "indexed": false,
          "internalType": "address",
          "name": "_owner",
          "type": "address"
        },
        {
          "indexed": false,
          "internalType": "address",
          "name": "_target",
          "type": "address"
        },
        {
          "indexed": false,
          "internalType": "address[]",
          "name": "_spaces",
          "type": "address[]"
        }
      ],
      "name": "AvatarExecutionStrategySetUp",
      "type": "event"
    },
    {
      "anonymous": false,
      "inputs": [
        {
          "indexed": false,
          "internalType": "uint8",
          "name": "version",
          "type": "uint8"
        }
      ],
      "name": "Initialized",
      "type": "event"
    },
    {
      "anonymous": false,
      "inputs": [
        {
          "indexed": true,
          "internalType": "address",
          "name": "previousOwner",
          "type": "address"
        },
        {
          "indexed": true,
          "internalType": "address",
          "name": "newOwner",
          "type": "address"
        }
      ],
      "name": "OwnershipTransferred",
      "type": "event"
    },
    {
      "anonymous": false,
      "inputs": [
        {
          "indexed": false,
          "internalType": "address",
          "name": "space",
          "type": "address"
        }
      ],
      "name": "SpaceDisabled",
      "type": "event"
    },
    {
      "anonymous": false,
      "inputs": [
        {
          "indexed": false,
          "internalType": "address",
          "name": "space",
          "type": "address"
        }
      ],
      "name": "SpaceEnabled",
      "type": "event"
    },
    {
      "anonymous": false,
      "inputs": [
        {
          "indexed": true,
          "internalType": "address",
          "name": "newTarget",
          "type": "address"
        }
      ],
      "name": "TargetSet",
      "type": "event"
    },
    {
      "inputs": [
        {
          "internalType": "address",
          "name": "space",
          "type": "address"
        }
      ],
      "name": "disableSpace",
      "outputs": [],
      "stateMutability": "nonpayable",
      "type": "function"
    },
    {
      "inputs": [
        {
          "internalType": "address",
          "name": "space",
          "type": "address"
        }
      ],
      "name": "enableSpace",
      "outputs": [],
      "stateMutability": "nonpayable",
      "type": "function"
    },
    {
      "inputs": [
        {
          "components": [
            {
              "internalType": "uint32",
              "name": "snapshotTimestamp",
              "type": "uint32"
            },
            {
              "internalType": "uint32",
              "name": "startTimestamp",
              "type": "uint32"
            },
            {
              "internalType": "uint32",
              "name": "minEndTimestamp",
              "type": "uint32"
            },
            {
              "internalType": "uint32",
              "name": "maxEndTimestamp",
              "type": "uint32"
            },
            {
              "internalType": "bytes32",
              "name": "executionPayloadHash",
              "type": "bytes32"
            },
            {
              "components": [
                {
                  "internalType": "address",
                  "name": "addy",
                  "type": "address"
                },
                {
                  "internalType": "bytes",
                  "name": "params",
                  "type": "bytes"
                }
              ],
              "internalType": "struct Strategy",
              "name": "executionStrategy",
              "type": "tuple"
            },
            {
              "internalType": "enum FinalizationStatus",
              "name": "finalizationStatus",
              "type": "uint8"
            },
            {
              "components": [
                {
                  "internalType": "address",
                  "name": "addy",
                  "type": "address"
                },
                {
                  "internalType": "bytes",
                  "name": "params",
                  "type": "bytes"
                }
              ],
              "internalType": "struct Strategy[]",
              "name": "votingStrategies",
              "type": "tuple[]"
            }
          ],
          "internalType": "struct Proposal",
          "name": "proposal",
          "type": "tuple"
        },
        {
          "internalType": "uint256",
          "name": "votesFor",
          "type": "uint256"
        },
        {
          "internalType": "uint256",
          "name": "votesAgainst",
          "type": "uint256"
        },
        {
          "internalType": "uint256",
          "name": "votesAbstain",
          "type": "uint256"
        },
        {
          "internalType": "bytes",
          "name": "payload",
          "type": "bytes"
        }
      ],
      "name": "execute",
      "outputs": [],
      "stateMutability": "nonpayable",
      "type": "function"
    },
    {
      "inputs": [
        {
          "components": [
            {
              "internalType": "uint32",
              "name": "snapshotTimestamp",
              "type": "uint32"
            },
            {
              "internalType": "uint32",
              "name": "startTimestamp",
              "type": "uint32"
            },
            {
              "internalType": "uint32",
              "name": "minEndTimestamp",
              "type": "uint32"
            },
            {
              "internalType": "uint32",
              "name": "maxEndTimestamp",
              "type": "uint32"
            },
            {
              "internalType": "bytes32",
              "name": "executionPayloadHash",
              "type": "bytes32"
            },
            {
              "components": [
                {
                  "internalType": "address",
                  "name": "addy",
                  "type": "address"
                },
                {
                  "internalType": "bytes",
                  "name": "params",
                  "type": "bytes"
                }
              ],
              "internalType": "struct Strategy",
              "name": "executionStrategy",
              "type": "tuple"
            },
            {
              "internalType": "enum FinalizationStatus",
              "name": "finalizationStatus",
              "type": "uint8"
            },
            {
              "components": [
                {
                  "internalType": "address",
                  "name": "addy",
                  "type": "address"
                },
                {
                  "internalType": "bytes",
                  "name": "params",
                  "type": "bytes"
                }
              ],
              "internalType": "struct Strategy[]",
              "name": "votingStrategies",
              "type": "tuple[]"
            }
          ],
          "internalType": "struct Proposal",
          "name": "proposal",
          "type": "tuple"
        },
        {
          "internalType": "uint256",
          "name": "votesFor",
          "type": "uint256"
        },
        {
          "internalType": "uint256",
          "name": "votesAgainst",
          "type": "uint256"
        },
        {
          "internalType": "uint256",
          "name": "votesAbstain",
          "type": "uint256"
        }
      ],
      "name": "getProposalStatus",
      "outputs": [
        {
          "internalType": "enum ProposalStatus",
          "name": "",
          "type": "uint8"
        }
      ],
      "stateMutability": "view",
      "type": "function"
    },
    {
      "inputs": [
        {
          "components": [
            {
              "internalType": "uint32",
              "name": "snapshotTimestamp",
              "type": "uint32"
            },
            {
              "internalType": "uint32",
              "name": "startTimestamp",
              "type": "uint32"
            },
            {
              "internalType": "uint32",
              "name": "minEndTimestamp",
              "type": "uint32"
            },
            {
              "internalType": "uint32",
              "name": "maxEndTimestamp",
              "type": "uint32"
            },
            {
              "internalType": "bytes32",
              "name": "executionPayloadHash",
              "type": "bytes32"
            },
            {
              "components": [
                {
                  "internalType": "address",
                  "name": "addy",
                  "type": "address"
                },
                {
                  "internalType": "bytes",
                  "name": "params",
                  "type": "bytes"
                }
              ],
              "internalType": "struct Strategy",
              "name": "executionStrategy",
              "type": "tuple"
            },
            {
              "internalType": "enum FinalizationStatus",
              "name": "finalizationStatus",
              "type": "uint8"
            },
            {
              "components": [
                {
                  "internalType": "address",
                  "name": "addy",
                  "type": "address"
                },
                {
                  "internalType": "bytes",
                  "name": "params",
                  "type": "bytes"
                }
              ],
              "internalType": "struct Strategy[]",
              "name": "votingStrategies",
              "type": "tuple[]"
            }
          ],
          "internalType": "struct Proposal",
          "name": "proposal",
          "type": "tuple"
        }
      ],
      "name": "getQuorum",
      "outputs": [
        {
          "internalType": "uint256",
          "name": "",
          "type": "uint256"
        }
      ],
      "stateMutability": "pure",
      "type": "function"
    },
    {
      "inputs": [
        {
          "internalType": "address",
          "name": "space",
          "type": "address"
        }
      ],
      "name": "isSpaceEnabled",
      "outputs": [
        {
          "internalType": "bool",
          "name": "",
          "type": "bool"
        }
      ],
      "stateMutability": "view",
      "type": "function"
    },
    {
      "inputs": [],
      "name": "owner",
      "outputs": [
        {
          "internalType": "address",
          "name": "",
          "type": "address"
        }
      ],
      "stateMutability": "view",
      "type": "function"
    },
    {
      "inputs": [],
      "name": "renounceOwnership",
      "outputs": [],
      "stateMutability": "nonpayable",
      "type": "function"
    },
    {
      "inputs": [
        {
          "internalType": "address",
          "name": "_target",
          "type": "address"
        }
      ],
      "name": "setTarget",
      "outputs": [],
      "stateMutability": "nonpayable",
      "type": "function"
    },
    {
      "inputs": [
        {
          "internalType": "bytes",
          "name": "initParams",
          "type": "bytes"
        }
      ],
      "name": "setUp",
      "outputs": [],
      "stateMutability": "nonpayable",
      "type": "function"
    },
    {
      "inputs": [],
      "name": "target",
      "outputs": [
        {
          "internalType": "address",
          "name": "",
          "type": "address"
        }
      ],
      "stateMutability": "view",
      "type": "function"
    },
    {
      "inputs": [
        {
          "internalType": "address",
          "name": "newOwner",
          "type": "address"
        }
      ],
      "name": "transferOwnership",
      "outputs": [],
      "stateMutability": "nonpayable",
      "type": "function"
    }
  ],
  "bytecode": {
    "object": "0x608060409080825234620003e15762001c488038038091620000228285620003e6565b8339810190606081830312620003e1576200003d8162000420565b906020916200004e83830162000420565b858301516001600160401b039591939091868311620003e1576200009c9262000078920162000435565b926200008d87519485928784019586620004ac565b03601f198101845283620003e6565b60009384549160ff92838160081c161593848095620003d4575b8015620003bc575b620000c99062000506565b60019560ff19928688858316178b55620003aa575b508051810193606082860312620003a657620000fa9062000420565b94620001088b830162000420565b946060830151918211620003a2576200012892908a019101890162000435565b9160018060a01b038080961694169462000153838b5460081c166200014d816200056a565b6200056a565b6200015e33620005cb565b33816033541603620003605784156200030d579087916200017f86620005cb565b8a54620001a5858260081c161580968197620002ff575b8115620002db575b5062000506565b8484848316178d55620002c9575b5090918a905b62000276575b5050507f621a036730af1cc915beba86ec9f773f11d2983a09e67fa9d62c6cebedf2364e9392916200020f9162000250575b606680546001600160a01b03191685179055895193849384620004ac565b0390a162000227575b835161160e90816200061a8239f35b60008051602062001c288339815191529261ff001981541690558351908152a138808062000218565b61ff0019895416895560008051602062001c28833981519152888b51898152a1620001f1565b8451811015620002c357818a8260051b87010151168b5260658a528b8b2089848254161790556000198114620002af57880188620001b9565b634e487b7160e01b8b52601160045260248bfd5b620001bf565b61ffff1916610101178b5538620001b3565b905085303b159182620002f2575b5050386200019e565b84161490508538620002e9565b905085818416109062000196565b8a5162461bcd60e51b8152600481018a9052602660248201527f4f776e61626c653a206e6577206f776e657220697320746865207a65726f206160448201526564647265737360d01b6064820152608490fd5b6064898c519062461bcd60e51b825280600483015260248201527f4f776e61626c653a2063616c6c6572206973206e6f7420746865206f776e65726044820152fd5b8a80fd5b8980fd5b61ffff191661010117895538620000de565b50303b158015620000be5750818116600114620000be565b50600181831610620000b6565b600080fd5b601f909101601f19168101906001600160401b038211908210176200040a57604052565b634e487b7160e01b600052604160045260246000fd5b51906001600160a01b0382168203620003e157565b9080601f83011215620003e1578151906001600160401b0382116200040a578160051b604051936020936200046d85840187620003e6565b85528380860192820101928311620003e1578301905b82821062000492575050505090565b838091620004a08462000420565b81520191019062000483565b916060830190608060018060a01b0394858095168152602094859316838201526060604082015286518094520194019160005b828110620004ef57505050505090565b8351851686529481019492810192600101620004df565b156200050e57565b60405162461bcd60e51b815260206004820152602e60248201527f496e697469616c697a61626c653a20636f6e747261637420697320616c72656160448201526d191e481a5b9a5d1a585b1a5e995960921b6064820152608490fd5b156200057257565b60405162461bcd60e51b815260206004820152602b60248201527f496e697469616c697a61626c653a20636f6e7472616374206973206e6f74206960448201526a6e697469616c697a696e6760a81b6064820152608490fd5b603380546001600160a01b039283166001600160a01b031982168117909255604051919216907f8be0079c531659141344cd1fd0a4f28419497f9722a3daafe3b4186f6b6457e090600090a356fe608060405260048036101561001357600080fd5b60003560e01c80633f6253c214610a00578063414ac1cc146109a85780636efd971c1461095c578063715018a6146108d7578063776d1a011461084a5780638da5cb5b146108165780639e33d81114610766578063a4f9edbf146102e4578063aa92548c14610290578063d4b839921461025c578063d92d4ea0146101735763f2fde38b146100a157600080fd5b3461016e57602060031936011261016e576100ba610f88565b906100c3611222565b73ffffffffffffffffffffffffffffffffffffffff8216156100ea576100e8826112a1565b005b6084906020604051917f08c379a0000000000000000000000000000000000000000000000000000000008352820152602660248201527f4f776e61626c653a206e6577206f776e657220697320746865207a65726f206160448201527f64647265737300000000000000000000000000000000000000000000000000006064820152fd5b600080fd5b503461016e57602060031936011261016e5773ffffffffffffffffffffffffffffffffffffffff6101a2610f88565b6101aa611222565b169081158015610244575b61021c577fc3dc08a46232e8d0a95510120799f1e68e0aa28c88730b8b0127d5ff4565b4b06020838060005260658252604060002060017fffffffffffffffffffffffffffffffffffffffffffffffffffffffffffffff00825416179055604051908152a1005b6040517fc3b48cf1000000000000000000000000000000000000000000000000000000008152fd5b5081600052606560205260ff604060002054166101b5565b3461016e57600060031936011261016e57602073ffffffffffffffffffffffffffffffffffffffff60665416604051908152f35b503461016e57602060031936011261016e5780359067ffffffffffffffff821161016e576102c560a0916020933691016110b1565b0151015160208180518101031261016e57602080910151604051908152f35b503461016e5760208060031936011261016e5767ffffffffffffffff90823582811161016e576103179036908501610fe5565b916000549360ff808660081c16159283809461075a575b8015610744575b61033e90611310565b6001967fffffffffffffffffffffffffffffffffffffffffffffffffffffffffffffff0090858983831617600055610715575b50865187019260608888860195031261016e5761038f87890161139b565b9261039c60408a0161139b565b98606081015191821161016e57019184603f8401121561016e5787830151946103c486611099565b936103d26040519586610f07565b868552898501906040829860051b82010192831161016e5760408b9101915b8383106106fd575050505073ffffffffffffffffffffffffffffffffffffffff808095169916956104318360005460081c1661042c816113bc565b6113bc565b61043a336112a1565b610442611222565b891561067a575089906104548a6112a1565b600054610477848260081c16158095819661066d575b811561064c575b50611310565b83838383161760005561061d575b506000825b6105df575b505050610589575b837fffffffffffffffffffffffff0000000000000000000000000000000000000000606698949854161760665560405193606085019385528685015260606040850152518092526080830195906000905b888483106105715787877f621a036730af1cc915beba86ec9f773f11d2983a09e67fa9d62c6cebedf2364e888c0389a161051e57005b7f7f26b83ff96e1f2b6a682f133852f6798a09c465da95921460cefb3847402498917fffffffffffffffffffffffffffffffffffffffffffffffffffffffffffff00ff60005416600055604051908152a1005b835182168952978701979287019291909101906104e8565b7fffffffffffffffffffffffffffffffffffffffffffffffffffffffffffff00ff600054166000557f7f26b83ff96e1f2b6a682f133852f6798a09c465da95921460cefb3847402498866040518a8152a1610497565b84518110156106185780866105f761061293886114d8565b511660005260658b526040600020848482541617905561147c565b8261048a565b61048f565b7fffffffffffffffffffffffffffffffffffffffffffffffffffffffffffff0000166101011760005538610485565b905084303b159182610661575b505038610471565b84161490508438610659565b905084818416109061046a565b60849089604051917f08c379a0000000000000000000000000000000000000000000000000000000008352820152602660248201527f4f776e61626c653a206e6577206f776e657220697320746865207a65726f206160448201527f64647265737300000000000000000000000000000000000000000000000000006064820152fd5b81906107088461139b565b8152019101908a906103f1565b7fffffffffffffffffffffffffffffffffffffffffffffffffffffffffffff0000166101011760005538610371565b50303b1580156103355750868216600114610335565b5060018288161061032e565b503461016e57602060031936011261016e5773ffffffffffffffffffffffffffffffffffffffff610795610f88565b61079d611222565b169081600052606560205260ff604060002054161561021c577f665604bfe8ee87044ba1f1fd2fb47fe92983c9e187acbb442debf97d3e581921602083806000526065825260406000207fffffffffffffffffffffffffffffffffffffffffffffffffffffffffffffff008154169055604051908152a1005b3461016e57600060031936011261016e57602073ffffffffffffffffffffffffffffffffffffffff60335416604051908152f35b3461016e57602060031936011261016e57600073ffffffffffffffffffffffffffffffffffffffff61087a610f88565b610882611222565b16807fffffffffffffffffffffffff00000000000000000000000000000000000000006066541617606655604051907f3bfb4bbf112628248058745a3c57e35b13369386e474b8e56c552f3063a4a1968383a2f35b3461016e57600060031936011261016e576108f0611222565b60006033547fffffffffffffffffffffffff000000000000000000000000000000000000000081166033558173ffffffffffffffffffffffffffffffffffffffff60405192167f8be0079c531659141344cd1fd0a4f28419497f9722a3daafe3b4186f6b6457e08284a3f35b3461016e57602060031936011261016e5773ffffffffffffffffffffffffffffffffffffffff61098a610f88565b166000526065602052602060ff604060002054166040519015158152f35b503461016e57608060031936011261016e5780359067ffffffffffffffff821161016e576109df6109f0916109fc933691016110b1565b60643590604435906024359061151b565b604051918291826111e0565b0390f35b503461016e5760a060031936011261016e57803567ffffffffffffffff811161016e57610a3090369083016110b1565b60843567ffffffffffffffff811161016e57610a4f9036908401610fe5565b9033600052606560205260ff6040600020541615610ede57606490610a7b82356044356024358461151b565b6007811015610eb057600381141580610ea5575b610e6d5750608001518251906020840191822003610e4457825183019060208483031261016e575167ffffffffffffffff811161016e5760208201603f82860101121561016e576020818501015191610ae783611099565b94610af56040519687610f07565b83865260208601926020830160408660051b83850101011161016e57604081830101935b60408660051b83850101018510610cec5788888860005b82518110156100e85773ffffffffffffffffffffffffffffffffffffffff806066541690610b5e83866114d8565b515116906020610b6e84876114d8565b510151906040610b7e85886114d8565b510151926060610b8e86896114d8565b510151936002851015610cbe5790600060209493928a7fffffffffffffffffffffffffffffffffffffffffffffffffffffffffffffffe0601f604051998a98899788957f468721a7000000000000000000000000000000000000000000000000000000008752860152602485015260806044850152845190816084860152610c1e8260a4978d8989019101611447565b8d850152011681010301925af1908115610cb257600091610c77575b5015610c4e57610c499061147c565b610b30565b836040517facfdb444000000000000000000000000000000000000000000000000000000008152fd5b90506020813d602011610caa575b81610c9260209383610f07565b8101031261016e5751801515810361016e5785610c3a565b3d9150610c85565b6040513d6000823e3d90fd5b6021897f4e487b71000000000000000000000000000000000000000000000000000000006000525260246000fd5b845167ffffffffffffffff811161016e5760807fffffffffffffffffffffffffffffffffffffffffffffffffffffffffffffffe082858701018703011261016e576040519081608081011067ffffffffffffffff608084011117610e165760808201604052610d61604082868801010161139b565b8252848401810160608101516020840152608001519067ffffffffffffffff821161016e5760208701605f8383888a01010101121561016e57604082828789010101015191610daf83610fab565b90610dbd6040519283610f07565b8382526020890160608583868b8d01010101011161016e5760a093610def9160606020850191868b8d01010101611447565b6040840152848601010151600281101561016e576060820152815260209485019401610b19565b60418b7f4e487b71000000000000000000000000000000000000000000000000000000006000525260246000fd5b836040517f7c6953f9000000000000000000000000000000000000000000000000000000008152fd5b84610ea16040519283927fe6ace38e00000000000000000000000000000000000000000000000000000000845283016111e0565b0390fd5b506002811415610a8f565b6021857f4e487b71000000000000000000000000000000000000000000000000000000006000525260246000fd5b826040517fc3b48cf1000000000000000000000000000000000000000000000000000000008152fd5b90601f7fffffffffffffffffffffffffffffffffffffffffffffffffffffffffffffffe0910116810190811067ffffffffffffffff821117610f4857604052565b7f4e487b7100000000000000000000000000000000000000000000000000000000600052604160045260246000fd5b359063ffffffff8216820361016e57565b6004359073ffffffffffffffffffffffffffffffffffffffff8216820361016e57565b67ffffffffffffffff8111610f4857601f017fffffffffffffffffffffffffffffffffffffffffffffffffffffffffffffffe01660200190565b81601f8201121561016e57803590610ffc82610fab565b9261100a6040519485610f07565b8284526020838301011161016e57816000926020809301838601378301015290565b91909160408184031261016e57604080519167ffffffffffffffff91830182811184821017610f48576040528294813573ffffffffffffffffffffffffffffffffffffffff8116810361016e578452602082013592831161016e576020926110949201610fe5565b910152565b67ffffffffffffffff8111610f485760051b60200190565b919091610100808285031261016e576040519081019167ffffffffffffffff9282811084821117610f485760405281946110ea82610f77565b83526020916110fa838201610f77565b8385015261110a60408201610f77565b604085015261111b60608201610f77565b60608501526080810135608085015260a081013585811161016e578261114291830161102c565b60a085015260c0810135600381101561016e5760c085015260e08101359085821161016e570181601f8201121561016e57803561117e81611099565b9561118c6040519788610f07565b818752848088019260051b8401019380851161016e57858401925b8584106111bb575050505050505060e00152565b833583811161016e5787916111d5848480948a010161102c565b8152019301926111a7565b9190602083019260078210156111f35752565b7f4e487b7100000000000000000000000000000000000000000000000000000000600052602160045260246000fd5b73ffffffffffffffffffffffffffffffffffffffff60335416330361124357565b60646040517f08c379a000000000000000000000000000000000000000000000000000000000815260206004820152602060248201527f4f776e61626c653a2063616c6c6572206973206e6f7420746865206f776e65726044820152fd5b6033549073ffffffffffffffffffffffffffffffffffffffff80911691827fffffffffffffffffffffffff0000000000000000000000000000000000000000821617603355167f8be0079c531659141344cd1fd0a4f28419497f9722a3daafe3b4186f6b6457e06000604051a3565b1561131757565b60846040517f08c379a000000000000000000000000000000000000000000000000000000000815260206004820152602e60248201527f496e697469616c697a61626c653a20636f6e747261637420697320616c72656160448201527f647920696e697469616c697a65640000000000000000000000000000000000006064820152fd5b519073ffffffffffffffffffffffffffffffffffffffff8216820361016e57565b156113c357565b60846040517f08c379a000000000000000000000000000000000000000000000000000000000815260206004820152602b60248201527f496e697469616c697a61626c653a20636f6e7472616374206973206e6f74206960448201527f6e697469616c697a696e670000000000000000000000000000000000000000006064820152fd5b918091926000905b828210611467575011611460575050565b6000910152565b9150806020918301518186015201829161144f565b7fffffffffffffffffffffffffffffffffffffffffffffffffffffffffffffffff81146114a95760010190565b7f4e487b7100000000000000000000000000000000000000000000000000000000600052601160045260246000fd5b80518210156114ec5760209160051b010190565b7f4e487b7100000000000000000000000000000000000000000000000000000000600052603260045260246000fd5b919092602060a0840151015160208180518101031261016e57602061154c9101519161154784876115f5565b6115f5565b101592836115eb575b505060c08101805160038110156111f35760020361157557505050600690565b5160038110156111f35760010361158d575050600490565b63ffffffff908160208201511642106000146115ab57505050600090565b604081015182164210156115c157505050600190565b60600151164210156115dc57156115d757600290565b600190565b156115e657600390565b600590565b1191503880611555565b811981116114a957019056fea164736f6c634300080f000a7f26b83ff96e1f2b6a682f133852f6798a09c465da95921460cefb3847402498",
    "linkReferences": {}
  },
  "methodIdentifiers": {
    "disableSpace(address)": "9e33d811",
    "enableSpace(address)": "d92d4ea0",
    "execute((uint32,uint32,uint32,uint32,bytes32,(address,bytes),uint8,(address,bytes)[]),uint256,uint256,uint256,bytes)": "3f6253c2",
    "getProposalStatus((uint32,uint32,uint32,uint32,bytes32,(address,bytes),uint8,(address,bytes)[]),uint256,uint256,uint256)": "414ac1cc",
    "getQuorum((uint32,uint32,uint32,uint32,bytes32,(address,bytes),uint8,(address,bytes)[]))": "aa92548c",
    "isSpaceEnabled(address)": "6efd971c",
    "owner()": "8da5cb5b",
    "renounceOwnership()": "715018a6",
    "setTarget(address)": "776d1a01",
    "setUp(bytes)": "a4f9edbf",
    "target()": "d4b83992",
    "transferOwnership(address)": "f2fde38b"
  },
  "id": 49
}