{
  "abi": [
    {
      "inputs": [
        {
          "internalType": "address",
          "name": "_owner",
          "type": "address"
        },
        {
          "internalType": "address",
          "name": "_target",
          "type": "address"
        },
        {
          "internalType": "address[]",
          "name": "_spaces",
          "type": "address[]"
        },
        {
          "internalType": "uint256",
          "name": "_quorum",
          "type": "uint256"
        }
      ],
      "stateMutability": "nonpayable",
      "type": "constructor"
    },
    {
      "inputs": [],
      "name": "ExecutionFailed",
      "type": "error"
    },
    {
      "inputs": [
        {
          "internalType": "enum ProposalStatus",
          "name": "status",
          "type": "uint8"
        }
      ],
      "name": "InvalidProposalStatus",
      "type": "error"
    },
    {
      "inputs": [],
      "name": "InvalidSpace",
      "type": "error"
    },
    {
      "anonymous": false,
      "inputs": [
        {
          "indexed": false,
          "internalType": "address",
          "name": "_owner",
          "type": "address"
        },
        {
          "indexed": false,
          "internalType": "address",
          "name": "_target",
          "type": "address"
        },
        {
          "indexed": false,
          "internalType": "address[]",
          "name": "_spaces",
          "type": "address[]"
        },
        {
          "indexed": false,
          "internalType": "uint256",
          "name": "_quorum",
          "type": "uint256"
        }
      ],
      "name": "AvatarExecutionStrategySetUp",
      "type": "event"
    },
    {
      "anonymous": false,
      "inputs": [
        {
          "indexed": false,
          "internalType": "uint8",
          "name": "version",
          "type": "uint8"
        }
      ],
      "name": "Initialized",
      "type": "event"
    },
    {
      "anonymous": false,
      "inputs": [
        {
          "indexed": true,
          "internalType": "address",
          "name": "previousOwner",
          "type": "address"
        },
        {
          "indexed": true,
          "internalType": "address",
          "name": "newOwner",
          "type": "address"
        }
      ],
      "name": "OwnershipTransferred",
      "type": "event"
    },
    {
      "anonymous": false,
      "inputs": [
        {
          "indexed": false,
          "internalType": "uint256",
          "name": "newQuorum",
          "type": "uint256"
        }
      ],
      "name": "QuorumUpdated",
      "type": "event"
    },
    {
      "anonymous": false,
      "inputs": [
        {
          "indexed": false,
          "internalType": "address",
          "name": "space",
          "type": "address"
        }
      ],
      "name": "SpaceDisabled",
      "type": "event"
    },
    {
      "anonymous": false,
      "inputs": [
        {
          "indexed": false,
          "internalType": "address",
          "name": "space",
          "type": "address"
        }
      ],
      "name": "SpaceEnabled",
      "type": "event"
    },
    {
      "anonymous": false,
      "inputs": [
        {
          "indexed": true,
          "internalType": "address",
          "name": "newTarget",
          "type": "address"
        }
      ],
      "name": "TargetSet",
      "type": "event"
    },
    {
      "inputs": [
        {
          "internalType": "address",
          "name": "space",
          "type": "address"
        }
      ],
      "name": "disableSpace",
      "outputs": [],
      "stateMutability": "nonpayable",
      "type": "function"
    },
    {
      "inputs": [
        {
          "internalType": "address",
          "name": "space",
          "type": "address"
        }
      ],
      "name": "enableSpace",
      "outputs": [],
      "stateMutability": "nonpayable",
      "type": "function"
    },
    {
      "inputs": [
        {
          "internalType": "uint256",
          "name": "",
          "type": "uint256"
        },
        {
          "components": [
            {
              "internalType": "address",
              "name": "author",
              "type": "address"
            },
            {
              "internalType": "uint32",
              "name": "startBlockNumber",
              "type": "uint32"
            },
            {
              "internalType": "contract IExecutionStrategy",
              "name": "executionStrategy",
              "type": "address"
            },
            {
              "internalType": "uint32",
              "name": "minEndBlockNumber",
              "type": "uint32"
            },
            {
              "internalType": "uint32",
              "name": "maxEndBlockNumber",
              "type": "uint32"
            },
            {
              "internalType": "enum FinalizationStatus",
              "name": "finalizationStatus",
              "type": "uint8"
            },
            {
              "internalType": "bytes32",
              "name": "executionPayloadHash",
              "type": "bytes32"
            },
            {
              "internalType": "uint256",
              "name": "activeVotingStrategies",
              "type": "uint256"
            }
          ],
          "internalType": "struct Proposal",
          "name": "proposal",
          "type": "tuple"
        },
        {
          "internalType": "uint256",
          "name": "votesFor",
          "type": "uint256"
        },
        {
          "internalType": "uint256",
          "name": "votesAgainst",
          "type": "uint256"
        },
        {
          "internalType": "uint256",
          "name": "votesAbstain",
          "type": "uint256"
        },
        {
          "internalType": "bytes",
          "name": "payload",
          "type": "bytes"
        }
      ],
      "name": "execute",
      "outputs": [],
      "stateMutability": "nonpayable",
      "type": "function"
    },
    {
      "inputs": [
        {
          "components": [
            {
              "internalType": "address",
              "name": "author",
              "type": "address"
            },
            {
              "internalType": "uint32",
              "name": "startBlockNumber",
              "type": "uint32"
            },
            {
              "internalType": "contract IExecutionStrategy",
              "name": "executionStrategy",
              "type": "address"
            },
            {
              "internalType": "uint32",
              "name": "minEndBlockNumber",
              "type": "uint32"
            },
            {
              "internalType": "uint32",
              "name": "maxEndBlockNumber",
              "type": "uint32"
            },
            {
              "internalType": "enum FinalizationStatus",
              "name": "finalizationStatus",
              "type": "uint8"
            },
            {
              "internalType": "bytes32",
              "name": "executionPayloadHash",
              "type": "bytes32"
            },
            {
              "internalType": "uint256",
              "name": "activeVotingStrategies",
              "type": "uint256"
            }
          ],
          "internalType": "struct Proposal",
          "name": "proposal",
          "type": "tuple"
        },
        {
          "internalType": "uint256",
          "name": "votesFor",
          "type": "uint256"
        },
        {
          "internalType": "uint256",
          "name": "votesAgainst",
          "type": "uint256"
        },
        {
          "internalType": "uint256",
          "name": "votesAbstain",
          "type": "uint256"
        }
      ],
      "name": "getProposalStatus",
      "outputs": [
        {
          "internalType": "enum ProposalStatus",
          "name": "",
          "type": "uint8"
        }
      ],
      "stateMutability": "view",
      "type": "function"
    },
    {
      "inputs": [],
      "name": "getStrategyType",
      "outputs": [
        {
          "internalType": "string",
          "name": "",
          "type": "string"
        }
      ],
      "stateMutability": "pure",
      "type": "function"
    },
    {
      "inputs": [
        {
          "internalType": "address",
          "name": "space",
          "type": "address"
        }
      ],
      "name": "isSpaceEnabled",
      "outputs": [
        {
          "internalType": "uint256",
          "name": "",
          "type": "uint256"
        }
      ],
      "stateMutability": "view",
      "type": "function"
    },
    {
      "inputs": [],
      "name": "owner",
      "outputs": [
        {
          "internalType": "address",
          "name": "",
          "type": "address"
        }
      ],
      "stateMutability": "view",
      "type": "function"
    },
    {
      "inputs": [],
      "name": "quorum",
      "outputs": [
        {
          "internalType": "uint256",
          "name": "",
          "type": "uint256"
        }
      ],
      "stateMutability": "view",
      "type": "function"
    },
    {
      "inputs": [],
      "name": "renounceOwnership",
      "outputs": [],
      "stateMutability": "nonpayable",
      "type": "function"
    },
    {
      "inputs": [
        {
          "internalType": "uint256",
          "name": "_quorum",
          "type": "uint256"
        }
      ],
      "name": "setQuorum",
      "outputs": [],
      "stateMutability": "nonpayable",
      "type": "function"
    },
    {
      "inputs": [
        {
          "internalType": "address",
          "name": "_target",
          "type": "address"
        }
      ],
      "name": "setTarget",
      "outputs": [],
      "stateMutability": "nonpayable",
      "type": "function"
    },
    {
      "inputs": [
        {
          "internalType": "bytes",
          "name": "initParams",
          "type": "bytes"
        }
      ],
      "name": "setUp",
      "outputs": [],
      "stateMutability": "nonpayable",
      "type": "function"
    },
    {
      "inputs": [],
      "name": "target",
      "outputs": [
        {
          "internalType": "address",
          "name": "",
          "type": "address"
        }
      ],
      "stateMutability": "view",
      "type": "function"
    },
    {
      "inputs": [
        {
          "internalType": "address",
          "name": "newOwner",
          "type": "address"
        }
      ],
      "name": "transferOwnership",
      "outputs": [],
      "stateMutability": "nonpayable",
      "type": "function"
    }
  ],
  "bytecode": {
    "object": "0x608060409080825234620003c557620019e68038038091620000228285620003ca565b8339810190608081830312620003c5576200003d8162000404565b916020916200004e83820162000404565b818601516001600160401b03939190848111620003c55760606200007d6200009f946200009093870162000419565b9401518851948593888501998a62000490565b03601f198101835282620003ca565b60009081549260ff95868560081c161592838094620003b8575b8015620003a0575b156200034557600195848760ff19831617875562000333575b5080518101916080828403126200032f57620000f69062000404565b92620001048a830162000404565b9260608301519182116200032b5760809189806200012793019185010162000419565b9101519060018060a01b0380809516931693620001558a885460081c166200014f81620004f6565b620004f6565b620001603362000557565b33816033541603620002e957831562000296576200017e8462000557565b6200018f8a885460081c16620004f6565b86885b62000249575b50507f683bbcd71b259e230416d974e6911d22117ec0de423b17abfcb832bafbd244bf939291620001f891620001d588549b8c60081c16620004f6565b6066829055606780546001600160a01b031916861790558b519485948562000490565b0390a162000210575b84516114459081620005a18239f35b7f7f26b83ff96e1f2b6a682f133852f6798a09c465da95921460cefb38474024989361ff00191690558351908152a13880808062000201565b82518110156200029057818a8260051b8501015116885260658a52888c89205560001981146200027c5788018862000192565b634e487b7160e01b88526011600452602488fd5b62000198565b8a5162461bcd60e51b8152600481018a9052602660248201527f4f776e61626c653a206e6577206f776e657220697320746865207a65726f206160448201526564647265737360d01b6064820152608490fd5b6064898c519062461bcd60e51b825280600483015260248201527f4f776e61626c653a2063616c6c6572206973206e6f7420746865206f776e65726044820152fd5b8680fd5b8580fd5b61ffff191661010117855538620000da565b885162461bcd60e51b815260048101889052602e60248201527f496e697469616c697a61626c653a20636f6e747261637420697320616c72656160448201526d191e481a5b9a5d1a585b1a5e995960921b6064820152608490fd5b50303b158015620000c15750600188871614620000c1565b50600188871610620000b9565b600080fd5b601f909101601f19168101906001600160401b03821190821017620003ee57604052565b634e487b7160e01b600052604160045260246000fd5b51906001600160a01b0382168203620003c557565b9080601f83011215620003c5578151906001600160401b038211620003ee578160051b604051936020936200045185840187620003ca565b85528380860192820101928311620003c5578301905b82821062000476575050505090565b838091620004848462000404565b81520191019062000467565b9493929091608086019060018060a01b0380941687528360209116818801526080604088015282518092528060a088019301936000905b838210620004dc575050505060609150930152565b8551811685529482019493820193600190910190620004c7565b15620004fe57565b60405162461bcd60e51b815260206004820152602b60248201527f496e697469616c697a61626c653a20636f6e7472616374206973206e6f74206960448201526a6e697469616c697a696e6760a81b6064820152608490fd5b603380546001600160a01b039283166001600160a01b0319821681179092559091167f8be0079c531659141344cd1fd0a4f28419497f9722a3daafe3b4186f6b6457e0600080a356fe608080604052600436101561001357600080fd5b60003560e01c9081630eb9b15a14610f47575080631703a01814610f295780636efd971c14610ee2578063715018a614610e62578063776d1a0114610dda5780638da5cb5b14610da65780639e33d81114610d1f578063a1908c6a146107f6578063a4f9edbf146103ad578063c1ba4e5914610361578063d4b839921461032d578063d92d4ea01461026b578063ea8f8c4b1461018a5763f2fde38b146100b957600080fd5b34610185576020600319360112610185576100d261101b565b6100da611130565b73ffffffffffffffffffffffffffffffffffffffff811615610101576100ff906111af565b005b60846040517f08c379a000000000000000000000000000000000000000000000000000000000815260206004820152602660248201527f4f776e61626c653a206e6577206f776e657220697320746865207a65726f206160448201527f64647265737300000000000000000000000000000000000000000000000000006064820152fd5b600080fd5b3461018557600319360161016081126101855761010013610185576040516101b18161103e565b73ffffffffffffffffffffffffffffffffffffffff600435818116810361018557825263ffffffff90602435828116810361018557602084015260443590811681036101855760408301526064358181168103610185576060830152608435908116810361018557608082015260a4356003811015610185578161025b9160a061026794015260c43560c082015260e43560e082015261014435906101243590610104359061137f565b6040519182918261111d565b0390f35b346101855760206003193601126101855773ffffffffffffffffffffffffffffffffffffffff61029961101b565b6102a1611130565b1680158015610316575b6102ec576020817fc3dc08a46232e8d0a95510120799f1e68e0aa28c88730b8b0127d5ff4565b4b092600052606582526001604060002055604051908152a1005b60046040517fc3b48cf1000000000000000000000000000000000000000000000000000000008152fd5b5080600052606560205260406000205415156102ab565b3461018557600060031936011261018557602073ffffffffffffffffffffffffffffffffffffffff60675416604051908152f35b34610185576020600319360112610185577ff18f88786aae85a652aadb99a82462616489a33370c9bcc7b245906812ef7cd160206004356103a0611130565b80606655604051908152a1005b34610185576020806003193601126101855767ffffffffffffffff90600435828111610185576103e19036906004016110d6565b916000549060ff93848360081c1615918280936107ea575b80156107d4575b156107505760019383857fffffffffffffffffffffffffffffffffffffffffffffffffffffffffffffff00831617600055610721575b5081518201906080838784019303126101855761045486840161121c565b906104616040850161121c565b9060608501519081116101855784019383603f8601121561018557878501519361048a8561123d565b95610498604051978861105b565b858752898701906040829760051b8201019283116101855760408b9101915b8383106107095750505050608001519173ffffffffffffffffffffffffffffffffffffffff808092169216946104fc8a60005460081c166104f781611255565b611255565b610505336111af565b61050d611130565b82156106855761051e8392936111af565b61052e8a60005460081c16611255565b876000815b610644575b505061054b6000549a8b60081c16611255565b83606655857fffffffffffffffffffffffff00000000000000000000000000000000000000006067541617606755604051956080870192875289870152608060408701525180915260a0850193916000905b888a84841061062c578c918a7f683bbcd71b259e230416d974e6911d22117ec0de423b17abfcb832bafbd244bf8b808c8c60608301520390a16105dc57005b7fffffffffffffffffffffffffffffffffffffffffffffffffffffffffffff00ff7f7f26b83ff96e1f2b6a682f133852f6798a09c465da95921460cefb38474024989316600055604051908152a1005b8551831688529687019690940193919091019061059d565b829493945181101561067d57808461065f610674938661133c565b511660005260658c52826040600020556112e0565b81949394610533565b939293610538565b608489604051907f08c379a00000000000000000000000000000000000000000000000000000000082526004820152602660248201527f4f776e61626c653a206e6577206f776e657220697320746865207a65726f206160448201527f64647265737300000000000000000000000000000000000000000000000000006064820152fd5b81906107148461121c565b8152019101908a906104b7565b7fffffffffffffffffffffffffffffffffffffffffffffffffffffffffffff0000166101011760005586610436565b608485604051907f08c379a00000000000000000000000000000000000000000000000000000000082526004820152602e60248201527f496e697469616c697a61626c653a20636f6e747261637420697320616c72656160448201527f647920696e697469616c697a65640000000000000000000000000000000000006064820152fd5b50303b1580156104005750600186851614610400565b506001868516106103f9565b34610185576101a0600319360112610185576101007fffffffffffffffffffffffffffffffffffffffffffffffffffffffffffffffdc3601126101855760405161083f8161103e565b60243573ffffffffffffffffffffffffffffffffffffffff8116810361018557815263ffffffff604435818116810361018557602083015260643573ffffffffffffffffffffffffffffffffffffffff81168103610185576040830152608435818116810361018557606083015260a435908116810361018557608082015260c43560038110156101855760a082015260e43560c08201526101043560e08201526101843567ffffffffffffffff8111610185576109019036906004016110d6565b90336000526065602052604060002054156102ec5761092e9061016435906101443590610124359061137f565b6007811015610b3f57600381141580610d14575b610cda575080518101906020818303126101855760208101519067ffffffffffffffff82116101855760208301603f83830101121561018557602082820101519061098c8261123d565b9361099a604051958661105b565b82855260208501906020810160408560051b87860101011161018557604085840101915b60408560051b87860101018310610b6e578660005b81518110156100ff5773ffffffffffffffffffffffffffffffffffffffff6067541673ffffffffffffffffffffffffffffffffffffffff610a14838561133c565b5151166020610a23848661133c565b510151916040610a33858761133c565b510151906060610a43868861133c565b510151936002851015610b3f576000602094610aa196604051978896879586947f468721a700000000000000000000000000000000000000000000000000000000865260048601526024850152608060448501526084840190610fd8565b90606483015203925af1908115610b3357600091610af8575b5015610ace57610ac9906112e0565b6109d3565b60046040517facfdb444000000000000000000000000000000000000000000000000000000008152fd5b90506020813d602011610b2b575b81610b136020938361105b565b81010312610185575180151581036101855783610aba565b3d9150610b06565b6040513d6000823e3d90fd5b7f4e487b7100000000000000000000000000000000000000000000000000000000600052602160045260246000fd5b82519067ffffffffffffffff82116101855760a07fffffffffffffffffffffffffffffffffffffffffffffffffffffffffffffffe083898801018503011261018557604051918260a081011067ffffffffffffffff60a085011117610cab5760a08301604052610be46040828a8901010161121c565b83528588018101606081015160208501526080015167ffffffffffffffff81116101855760208501605f82848c8b010101011215610185578060408a9284848b0101010151886060828487610c388361109c565b97610c46604051998a61105b565b83895260208d0195010101010111610185578a6060610c6f938660208701938d01010101610fb5565b604084015260a0818988010101519160028310156101855760608401929092528588010160c001516080830152908152602092830192016109be565b7f4e487b7100000000000000000000000000000000000000000000000000000000600052604160045260246000fd5b610d10906040519182917fe6ace38e0000000000000000000000000000000000000000000000000000000083526004830161111d565b0390fd5b506002811415610942565b346101855760206003193601126101855773ffffffffffffffffffffffffffffffffffffffff610d4d61101b565b610d55611130565b16806000526065602052604060002054156102ec576020817f665604bfe8ee87044ba1f1fd2fb47fe92983c9e187acbb442debf97d3e581921926000526065825260006040812055604051908152a1005b3461018557600060031936011261018557602073ffffffffffffffffffffffffffffffffffffffff60335416604051908152f35b346101855760206003193601126101855773ffffffffffffffffffffffffffffffffffffffff610e0861101b565b610e10611130565b16807fffffffffffffffffffffffff000000000000000000000000000000000000000060675416176067557f3bfb4bbf112628248058745a3c57e35b13369386e474b8e56c552f3063a4a196600080a2005b3461018557600060031936011261018557610e7b611130565b600073ffffffffffffffffffffffffffffffffffffffff6033547fffffffffffffffffffffffff00000000000000000000000000000000000000008116603355167f8be0079c531659141344cd1fd0a4f28419497f9722a3daafe3b4186f6b6457e08280a3005b346101855760206003193601126101855773ffffffffffffffffffffffffffffffffffffffff610f1061101b565b1660005260656020526020604060002054604051908152f35b34610185576000600319360112610185576020606654604051908152f35b3461018557600060031936011261018557604081019080821067ffffffffffffffff831117610cab5761026791604052601281527f53696d706c6551756f72756d41766174617200000000000000000000000000006020820152604051918291602083526020830190610fd8565b60005b838110610fc85750506000910152565b8181015183820152602001610fb8565b907fffffffffffffffffffffffffffffffffffffffffffffffffffffffffffffffe0601f60209361101481518092818752878088019101610fb5565b0116010190565b6004359073ffffffffffffffffffffffffffffffffffffffff8216820361018557565b610100810190811067ffffffffffffffff821117610cab57604052565b90601f7fffffffffffffffffffffffffffffffffffffffffffffffffffffffffffffffe0910116810190811067ffffffffffffffff821117610cab57604052565b67ffffffffffffffff8111610cab57601f017fffffffffffffffffffffffffffffffffffffffffffffffffffffffffffffffe01660200190565b81601f82011215610185578035906110ed8261109c565b926110fb604051948561105b565b8284526020838301011161018557816000926020809301838601378301015290565b919060208301926007821015610b3f5752565b73ffffffffffffffffffffffffffffffffffffffff60335416330361115157565b60646040517f08c379a000000000000000000000000000000000000000000000000000000000815260206004820152602060248201527f4f776e61626c653a2063616c6c6572206973206e6f7420746865206f776e65726044820152fd5b6033549073ffffffffffffffffffffffffffffffffffffffff80911691827fffffffffffffffffffffffff0000000000000000000000000000000000000000821617603355167f8be0079c531659141344cd1fd0a4f28419497f9722a3daafe3b4186f6b6457e0600080a3565b519073ffffffffffffffffffffffffffffffffffffffff8216820361018557565b67ffffffffffffffff8111610cab5760051b60200190565b1561125c57565b60846040517f08c379a000000000000000000000000000000000000000000000000000000000815260206004820152602b60248201527f496e697469616c697a61626c653a20636f6e7472616374206973206e6f74206960448201527f6e697469616c697a696e670000000000000000000000000000000000000000006064820152fd5b7fffffffffffffffffffffffffffffffffffffffffffffffffffffffffffffffff811461130d5760010190565b7f4e487b7100000000000000000000000000000000000000000000000000000000600052601160045260246000fd5b80518210156113505760209160051b010190565b7f4e487b7100000000000000000000000000000000000000000000000000000000600052603260045260246000fd5b91909260665490840180851161130d571015928361142e575b505060a0810180516003811015610b3f576002036113b857505050600690565b516003811015610b3f576001036113d0575050600490565b63ffffffff908160208201511643106000146113ee57505050600090565b6060810151821643101561140457505050600190565b608001511643101561141f571561141a57600290565b600190565b1561142957600390565b600590565b119150388061139856fea164736f6c6343000812000a",
    "linkReferences": {}
  },
  "methodIdentifiers": {
    "disableSpace(address)": "9e33d811",
    "enableSpace(address)": "d92d4ea0",
    "execute(uint256,(address,uint32,address,uint32,uint32,uint8,bytes32,uint256),uint256,uint256,uint256,bytes)": "a1908c6a",
    "getProposalStatus((address,uint32,address,uint32,uint32,uint8,bytes32,uint256),uint256,uint256,uint256)": "ea8f8c4b",
    "getStrategyType()": "0eb9b15a",
    "isSpaceEnabled(address)": "6efd971c",
    "owner()": "8da5cb5b",
    "quorum()": "1703a018",
    "renounceOwnership()": "715018a6",
    "setQuorum(uint256)": "c1ba4e59",
    "setTarget(address)": "776d1a01",
    "setUp(bytes)": "a4f9edbf",
    "target()": "d4b83992",
    "transferOwnership(address)": "f2fde38b"
  },
  "id": 75
}