{
  "abi": [
    {
      "inputs": [
        {
          "internalType": "address",
          "name": "_owner",
          "type": "address"
        },
        {
          "internalType": "address",
          "name": "_target",
          "type": "address"
        },
        {
          "internalType": "address[]",
          "name": "_spaces",
          "type": "address[]"
        },
        {
          "internalType": "uint256",
          "name": "_quorum",
          "type": "uint256"
        }
      ],
      "stateMutability": "nonpayable",
      "type": "constructor"
    },
    {
      "inputs": [],
      "name": "ExecutionFailed",
      "type": "error"
    },
    {
      "inputs": [],
      "name": "InvalidPayload",
      "type": "error"
    },
    {
      "inputs": [
        {
          "internalType": "enum ProposalStatus",
          "name": "status",
          "type": "uint8"
        }
      ],
      "name": "InvalidProposalStatus",
      "type": "error"
    },
    {
      "inputs": [],
      "name": "InvalidSpace",
      "type": "error"
    },
    {
      "anonymous": false,
      "inputs": [
        {
          "indexed": false,
          "internalType": "address",
          "name": "_owner",
          "type": "address"
        },
        {
          "indexed": false,
          "internalType": "address",
          "name": "_target",
          "type": "address"
        },
        {
          "indexed": false,
          "internalType": "address[]",
          "name": "_spaces",
          "type": "address[]"
        }
      ],
      "name": "AvatarExecutionStrategySetUp",
      "type": "event"
    },
    {
      "anonymous": false,
      "inputs": [
        {
          "indexed": false,
          "internalType": "uint8",
          "name": "version",
          "type": "uint8"
        }
      ],
      "name": "Initialized",
      "type": "event"
    },
    {
      "anonymous": false,
      "inputs": [
        {
          "indexed": true,
          "internalType": "address",
          "name": "previousOwner",
          "type": "address"
        },
        {
          "indexed": true,
          "internalType": "address",
          "name": "newOwner",
          "type": "address"
        }
      ],
      "name": "OwnershipTransferred",
      "type": "event"
    },
    {
      "anonymous": false,
      "inputs": [
        {
          "indexed": false,
          "internalType": "address",
          "name": "space",
          "type": "address"
        }
      ],
      "name": "SpaceDisabled",
      "type": "event"
    },
    {
      "anonymous": false,
      "inputs": [
        {
          "indexed": false,
          "internalType": "address",
          "name": "space",
          "type": "address"
        }
      ],
      "name": "SpaceEnabled",
      "type": "event"
    },
    {
      "anonymous": false,
      "inputs": [
        {
          "indexed": true,
          "internalType": "address",
          "name": "newTarget",
          "type": "address"
        }
      ],
      "name": "TargetSet",
      "type": "event"
    },
    {
      "inputs": [
        {
          "internalType": "address",
          "name": "space",
          "type": "address"
        }
      ],
      "name": "disableSpace",
      "outputs": [],
      "stateMutability": "nonpayable",
      "type": "function"
    },
    {
      "inputs": [
        {
          "internalType": "address",
          "name": "space",
          "type": "address"
        }
      ],
      "name": "enableSpace",
      "outputs": [],
      "stateMutability": "nonpayable",
      "type": "function"
    },
    {
      "inputs": [
        {
          "components": [
            {
              "internalType": "uint32",
              "name": "snapshotTimestamp",
              "type": "uint32"
            },
            {
              "internalType": "uint32",
              "name": "startTimestamp",
              "type": "uint32"
            },
            {
              "internalType": "uint32",
              "name": "minEndTimestamp",
              "type": "uint32"
            },
            {
              "internalType": "uint32",
              "name": "maxEndTimestamp",
              "type": "uint32"
            },
            {
              "internalType": "bytes32",
              "name": "executionPayloadHash",
              "type": "bytes32"
            },
            {
              "internalType": "contract IExecutionStrategy",
              "name": "executionStrategy",
              "type": "address"
            },
            {
              "internalType": "address",
              "name": "author",
              "type": "address"
            },
            {
              "internalType": "enum FinalizationStatus",
              "name": "finalizationStatus",
              "type": "uint8"
            },
            {
              "components": [
                {
                  "internalType": "address",
                  "name": "addy",
                  "type": "address"
                },
                {
                  "internalType": "bytes",
                  "name": "params",
                  "type": "bytes"
                }
              ],
              "internalType": "struct Strategy[]",
              "name": "votingStrategies",
              "type": "tuple[]"
            }
          ],
          "internalType": "struct Proposal",
          "name": "proposal",
          "type": "tuple"
        },
        {
          "internalType": "uint256",
          "name": "votesFor",
          "type": "uint256"
        },
        {
          "internalType": "uint256",
          "name": "votesAgainst",
          "type": "uint256"
        },
        {
          "internalType": "uint256",
          "name": "votesAbstain",
          "type": "uint256"
        },
        {
          "internalType": "bytes",
          "name": "payload",
          "type": "bytes"
        }
      ],
      "name": "execute",
      "outputs": [],
      "stateMutability": "nonpayable",
      "type": "function"
    },
    {
      "inputs": [
        {
          "components": [
            {
              "internalType": "uint32",
              "name": "snapshotTimestamp",
              "type": "uint32"
            },
            {
              "internalType": "uint32",
              "name": "startTimestamp",
              "type": "uint32"
            },
            {
              "internalType": "uint32",
              "name": "minEndTimestamp",
              "type": "uint32"
            },
            {
              "internalType": "uint32",
              "name": "maxEndTimestamp",
              "type": "uint32"
            },
            {
              "internalType": "bytes32",
              "name": "executionPayloadHash",
              "type": "bytes32"
            },
            {
              "internalType": "contract IExecutionStrategy",
              "name": "executionStrategy",
              "type": "address"
            },
            {
              "internalType": "address",
              "name": "author",
              "type": "address"
            },
            {
              "internalType": "enum FinalizationStatus",
              "name": "finalizationStatus",
              "type": "uint8"
            },
            {
              "components": [
                {
                  "internalType": "address",
                  "name": "addy",
                  "type": "address"
                },
                {
                  "internalType": "bytes",
                  "name": "params",
                  "type": "bytes"
                }
              ],
              "internalType": "struct Strategy[]",
              "name": "votingStrategies",
              "type": "tuple[]"
            }
          ],
          "internalType": "struct Proposal",
          "name": "proposal",
          "type": "tuple"
        },
        {
          "internalType": "uint256",
          "name": "votesFor",
          "type": "uint256"
        },
        {
          "internalType": "uint256",
          "name": "votesAgainst",
          "type": "uint256"
        },
        {
          "internalType": "uint256",
          "name": "votesAbstain",
          "type": "uint256"
        }
      ],
      "name": "getProposalStatus",
      "outputs": [
        {
          "internalType": "enum ProposalStatus",
          "name": "",
          "type": "uint8"
        }
      ],
      "stateMutability": "view",
      "type": "function"
    },
    {
      "inputs": [],
      "name": "getStrategyType",
      "outputs": [
        {
          "internalType": "string",
          "name": "",
          "type": "string"
        }
      ],
      "stateMutability": "pure",
      "type": "function"
    },
    {
      "inputs": [
        {
          "internalType": "address",
          "name": "space",
          "type": "address"
        }
      ],
      "name": "isSpaceEnabled",
      "outputs": [
        {
          "internalType": "bool",
          "name": "",
          "type": "bool"
        }
      ],
      "stateMutability": "view",
      "type": "function"
    },
    {
      "inputs": [],
      "name": "owner",
      "outputs": [
        {
          "internalType": "address",
          "name": "",
          "type": "address"
        }
      ],
      "stateMutability": "view",
      "type": "function"
    },
    {
      "inputs": [],
      "name": "quorum",
      "outputs": [
        {
          "internalType": "uint256",
          "name": "",
          "type": "uint256"
        }
      ],
      "stateMutability": "view",
      "type": "function"
    },
    {
      "inputs": [],
      "name": "renounceOwnership",
      "outputs": [],
      "stateMutability": "nonpayable",
      "type": "function"
    },
    {
      "inputs": [
        {
          "internalType": "address",
          "name": "_target",
          "type": "address"
        }
      ],
      "name": "setTarget",
      "outputs": [],
      "stateMutability": "nonpayable",
      "type": "function"
    },
    {
      "inputs": [
        {
          "internalType": "bytes",
          "name": "initParams",
          "type": "bytes"
        }
      ],
      "name": "setUp",
      "outputs": [],
      "stateMutability": "nonpayable",
      "type": "function"
    },
    {
      "inputs": [],
      "name": "target",
      "outputs": [
        {
          "internalType": "address",
          "name": "",
          "type": "address"
        }
      ],
      "stateMutability": "view",
      "type": "function"
    },
    {
      "inputs": [
        {
          "internalType": "address",
          "name": "newOwner",
          "type": "address"
        }
      ],
      "name": "transferOwnership",
      "outputs": [],
      "stateMutability": "nonpayable",
      "type": "function"
    }
  ],
  "bytecode": {
    "object": "0x608060409080825234620003ee5762001bad8038038091620000228285620003f3565b83398101608082820312620003ee576200003c826200042d565b6020916200004c8385016200042d565b8486015190916001600160401b0391828111620003ee576060916200007391880162000442565b950151928651958587019460018060a01b0380931686528289890195168552620000c588620000af60608201946080865260a0830190620004b9565b6080820193845203601f1981018a5289620003f3565b600094855460ff998a8260081c161596878098620003e1575b8015620003c9575b156200036e5760019960ff1993898c868316178c556200035c575b50825183019060808483031262000358576200012162000128916200042d565b956200042d565b9651918211620003545787928c84938162000147940192010162000442565b945193169416946200016a8b895460081c166200016481620004f8565b620004f8565b620001753362000559565b3381603354160362000312578415620002bf57620001938562000559565b620001a48b895460081c16620004f8565b87895b6200026c575b5050507f621a036730af1cc915beba86ec9f773f11d2983a09e67fa9d62c6cebedf2364e9392916200021b91620001eb88549b8c60081c16620004f8565b6066558360018060a01b031960675416176067558a5193849384528984015260608b8401526060830190620004b9565b0390a162000233575b845161160a9081620005a38239f35b7f7f26b83ff96e1f2b6a682f133852f6798a09c465da95921460cefb38474024989361ff00191690558351908152a13880808062000224565b8451811015620002b957818b8260051b8701015116895260658b528c89208a848254161790556000198114620002a557890189620001a7565b634e487b7160e01b89526011600452602489fd5b620001ad565b8b5162461bcd60e51b8152600481018b9052602660248201527f4f776e61626c653a206e6577206f776e657220697320746865207a65726f206160448201526564647265737360d01b6064820152608490fd5b60648a8d519062461bcd60e51b825280600483015260248201527f4f776e61626c653a2063616c6c6572206973206e6f7420746865206f776e65726044820152fd5b8980fd5b8a80fd5b61ffff1916610101178a553862000101565b8c5162461bcd60e51b8152600481018c9052602e60248201527f496e697469616c697a61626c653a20636f6e747261637420697320616c72656160448201526d191e481a5b9a5d1a585b1a5e995960921b6064820152608490fd5b50303b158015620000e6575060018c841614620000e6565b5060018c841610620000de565b600080fd5b601f909101601f19168101906001600160401b038211908210176200041757604052565b634e487b7160e01b600052604160045260246000fd5b51906001600160a01b0382168203620003ee57565b9080601f83011215620003ee578151906001600160401b03821162000417578160051b604051936020936200047a85840187620003f3565b85528380860192820101928311620003ee578301905b8282106200049f575050505090565b838091620004ad846200042d565b81520191019062000490565b90815180825260208080930193019160005b828110620004da575050505090565b83516001600160a01b031685529381019392810192600101620004cb565b156200050057565b60405162461bcd60e51b815260206004820152602b60248201527f496e697469616c697a61626c653a20636f6e7472616374206973206e6f74206960448201526a6e697469616c697a696e6760a81b6064820152608490fd5b603380546001600160a01b039283166001600160a01b0319821681179092559091167f8be0079c531659141344cd1fd0a4f28419497f9722a3daafe3b4186f6b6457e0600080a356fe6080806040526004908136101561001557600080fd5b60003560e01c9081630eb9b15a14610e7b5750806312eadade14610e235780631703a01814610e055780636b12e4c4146109205780636efd971c146108d4578063715018a614610854578063776d1a01146107cc5780638da5cb5b146107985780639e33d811146106e8578063a4f9edbf1461029f578063d4b839921461026b578063d92d4ea0146101825763f2fde38b146100b057600080fd5b3461017d57602060031936011261017d576100c9611000565b906100d26112f7565b73ffffffffffffffffffffffffffffffffffffffff8216156100f9576100f782611376565b005b6084906020604051917f08c379a0000000000000000000000000000000000000000000000000000000008352820152602660248201527f4f776e61626c653a206e6577206f776e657220697320746865207a65726f206160448201527f64647265737300000000000000000000000000000000000000000000000000006064820152fd5b600080fd5b503461017d57602060031936011261017d5773ffffffffffffffffffffffffffffffffffffffff6101b1611000565b6101b96112f7565b169081158015610253575b61022b577fc3dc08a46232e8d0a95510120799f1e68e0aa28c88730b8b0127d5ff4565b4b06020838060005260658252604060002060017fffffffffffffffffffffffffffffffffffffffffffffffffffffffffffffff00825416179055604051908152a1005b6040517fc3b48cf1000000000000000000000000000000000000000000000000000000008152fd5b5081600052606560205260ff604060002054166101c4565b3461017d57600060031936011261017d57602073ffffffffffffffffffffffffffffffffffffffff60675416604051908152f35b503461017d5760208060031936011261017d5767ffffffffffffffff91803583811161017d576102d29036908301611096565b926000549160ff94858460081c1615928380946106dc575b80156106c6575b15610643576001947fffffffffffffffffffffffffffffffffffffffffffffffffffffffffffffff0090858783831617600055610614575b50825183019260808189860195031261017d576103478882016113e3565b91610354604083016113e3565b93606083015190811161017d5782019185603f8401121561017d57898301519561037d87611044565b9361038b6040519586610f7f565b8785528b8501906040829960051b82010192831161017d5760408d9101915b8383106105fc5750505050608001519073ffffffffffffffffffffffffffffffffffffffff808095169516966103ef8c60005460081c166103ea81611404565b611404565b6103f833611376565b6104006112f7565b851561057957508890610414869596611376565b6104248c60005460081c16611404565b6000825b610532575b5050506104416000549a8b60081c16611404565b606655847fffffffffffffffffffffffff0000000000000000000000000000000000000000606754161760675560405194606086019286528886015260606040860152518091526080840192916000905b878984841061051a578b91897f621a036730af1cc915beba86ec9f773f11d2983a09e67fa9d62c6cebedf2364e8a8a038ba16104ca57005b7fffffffffffffffffffffffffffffffffffffffffffffffffffffffffffff00ff7f7f26b83ff96e1f2b6a682f133852f6798a09c465da95921460cefb38474024989316600055604051908152a1005b85518316875295860195909401939190910190610492565b849695965181101561057157808661054d61056893886114eb565b511660005260658d526040600020848482541617905561148f565b82969596610428565b95949561042d565b6084908b604051917f08c379a0000000000000000000000000000000000000000000000000000000008352820152602660248201527f4f776e61626c653a206e6577206f776e657220697320746865207a65726f206160448201527f64647265737300000000000000000000000000000000000000000000000000006064820152fd5b8190610607846113e3565b8152019101908c906103aa565b7fffffffffffffffffffffffffffffffffffffffffffffffffffffffffffff0000166101011760005538610329565b60848387604051917f08c379a0000000000000000000000000000000000000000000000000000000008352820152602e60248201527f496e697469616c697a61626c653a20636f6e747261637420697320616c72656160448201527f647920696e697469616c697a65640000000000000000000000000000000000006064820152fd5b50303b1580156102f157506001878616146102f1565b506001878616106102ea565b503461017d57602060031936011261017d5773ffffffffffffffffffffffffffffffffffffffff610717611000565b61071f6112f7565b169081600052606560205260ff604060002054161561022b577f665604bfe8ee87044ba1f1fd2fb47fe92983c9e187acbb442debf97d3e581921602083806000526065825260406000207fffffffffffffffffffffffffffffffffffffffffffffffffffffffffffffff008154169055604051908152a1005b3461017d57600060031936011261017d57602073ffffffffffffffffffffffffffffffffffffffff60335416604051908152f35b3461017d57602060031936011261017d5773ffffffffffffffffffffffffffffffffffffffff6107fa611000565b6108026112f7565b16807fffffffffffffffffffffffff000000000000000000000000000000000000000060675416176067557f3bfb4bbf112628248058745a3c57e35b13369386e474b8e56c552f3063a4a196600080a2005b3461017d57600060031936011261017d5761086d6112f7565b600073ffffffffffffffffffffffffffffffffffffffff6033547fffffffffffffffffffffffff00000000000000000000000000000000000000008116603355167f8be0079c531659141344cd1fd0a4f28419497f9722a3daafe3b4186f6b6457e08280a3005b3461017d57602060031936011261017d5773ffffffffffffffffffffffffffffffffffffffff610902611000565b166000526065602052602060ff604060002054166040519015158152f35b503461017d5760a060031936011261017d57803567ffffffffffffffff811161017d5761095090369083016110dd565b6084803567ffffffffffffffff811161017d576109709036908501611096565b9133600052606560205260ff6040600020541615610ddc5761099a6064356044356024358461152e565b6007811015610dae57600381141580610da3575b610d6b575060800151918051926020820193842003610d4257805181019260208285031261017d57519067ffffffffffffffff821161017d5760208401603f83830101121561017d576020828201015190610a0882611044565b94610a166040519687610f7f565b82865260208601906020810160408560051b87860101011161017d57604085840101915b60408560051b87860101018310610bd75788888860005b82518110156100f75773ffffffffffffffffffffffffffffffffffffffff806067541690610a7f83866114eb565b515116906020610a8f84876114eb565b510151906040610a9f85886114eb565b510151926060610aaf86896114eb565b5101516002811015610ba957906000896020959493610b0c604051988997889687957f468721a70000000000000000000000000000000000000000000000000000000087528601526024850152608060448501528b840190610f3c565b90606483015203925af1908115610b9d57600091610b62575b5015610b3957610b349061148f565b610a51565b836040517facfdb444000000000000000000000000000000000000000000000000000000008152fd5b90506020813d602011610b95575b81610b7d60209383610f7f565b8101031261017d5751801515810361017d5785610b25565b3d9150610b70565b6040513d6000823e3d90fd5b6021897f4e487b71000000000000000000000000000000000000000000000000000000006000525260246000fd5b82519067ffffffffffffffff821161017d5760a07fffffffffffffffffffffffffffffffffffffffffffffffffffffffffffffffe083898801018503011261017d57604051918260a081011067ffffffffffffffff60a085011117610d145760a08301604052610c4d6040828a890101016113e3565b83528588018101606081015160208501526080015167ffffffffffffffff811161017d5760208501605f82848c8b01010101121561017d578060408a9284848b0101010151886060828487610ca18361105c565b97610caf604051998a610f7f565b83895260208d019501010101011161017d578a6060610cd8938660208701938d01010101610f19565b604084015260a08189880101015191600283101561017d5760608401929092528588010160c00151608083015290815260209283019201610a3a565b60418b7f4e487b71000000000000000000000000000000000000000000000000000000006000525260246000fd5b836040517f7c6953f9000000000000000000000000000000000000000000000000000000008152fd5b84610d9f6040519283927fe6ace38e00000000000000000000000000000000000000000000000000000000845283016112b5565b0390fd5b5060028114156109ae565b6021857f4e487b71000000000000000000000000000000000000000000000000000000006000525260246000fd5b836040517fc3b48cf1000000000000000000000000000000000000000000000000000000008152fd5b3461017d57600060031936011261017d576020606654604051908152f35b503461017d57608060031936011261017d5780359067ffffffffffffffff821161017d57610e5a610e6b91610e77933691016110dd565b60643590604435906024359061152e565b604051918291826112b5565b0390f35b90503461017d57600060031936011261017d576040810181811067ffffffffffffffff821117610eeb57610e779250604052601281527f53696d706c6551756f72756d41766174617200000000000000000000000000006020820152604051918291602083526020830190610f3c565b6041837f4e487b71000000000000000000000000000000000000000000000000000000006000525260246000fd5b60005b838110610f2c5750506000910152565b8181015183820152602001610f1c565b907fffffffffffffffffffffffffffffffffffffffffffffffffffffffffffffffe0601f602093610f7881518092818752878088019101610f19565b0116010190565b90601f7fffffffffffffffffffffffffffffffffffffffffffffffffffffffffffffffe0910116810190811067ffffffffffffffff821117610fc057604052565b7f4e487b7100000000000000000000000000000000000000000000000000000000600052604160045260246000fd5b359063ffffffff8216820361017d57565b6004359073ffffffffffffffffffffffffffffffffffffffff8216820361017d57565b359073ffffffffffffffffffffffffffffffffffffffff8216820361017d57565b67ffffffffffffffff8111610fc05760051b60200190565b67ffffffffffffffff8111610fc057601f017fffffffffffffffffffffffffffffffffffffffffffffffffffffffffffffffe01660200190565b81601f8201121561017d578035906110ad8261105c565b926110bb6040519485610f7f565b8284526020838301011161017d57816000926020809301838601378301015290565b919061012092838183031261017d5760409384519081019267ffffffffffffffff9382811085821117610fc0578652819561111784610fef565b8352602091611127838601610fef565b83850152611136828601610fef565b8285015261114660608601610fef565b60608501526080850135608085015260a085013573ffffffffffffffffffffffffffffffffffffffff8116810361017d5760a085015261118860c08601611023565b60c085015260e0850135600381101561017d5760e085015261010094858101359087821161017d57019181601f8401121561017d578235906111c982611044565b976111d68251998a610f7f565b82895285808a019360051b8601019484861161017d57868101935b8685106112045750505050505050500152565b843583811161017d57820190847fffffffffffffffffffffffffffffffffffffffffffffffffffffffffffffffe0838903011261017d57845190858201828110868211176112875786526112598a8401611023565b8252858301359185831161017d57611278898c80969581960101611096565b838201528152019401936111f1565b602460007f4e487b710000000000000000000000000000000000000000000000000000000081526041600452fd5b9190602083019260078210156112c85752565b7f4e487b7100000000000000000000000000000000000000000000000000000000600052602160045260246000fd5b73ffffffffffffffffffffffffffffffffffffffff60335416330361131857565b60646040517f08c379a000000000000000000000000000000000000000000000000000000000815260206004820152602060248201527f4f776e61626c653a2063616c6c6572206973206e6f7420746865206f776e65726044820152fd5b6033549073ffffffffffffffffffffffffffffffffffffffff80911691827fffffffffffffffffffffffff0000000000000000000000000000000000000000821617603355167f8be0079c531659141344cd1fd0a4f28419497f9722a3daafe3b4186f6b6457e0600080a3565b519073ffffffffffffffffffffffffffffffffffffffff8216820361017d57565b1561140b57565b60846040517f08c379a000000000000000000000000000000000000000000000000000000000815260206004820152602b60248201527f496e697469616c697a61626c653a20636f6e7472616374206973206e6f74206960448201527f6e697469616c697a696e670000000000000000000000000000000000000000006064820152fd5b7fffffffffffffffffffffffffffffffffffffffffffffffffffffffffffffffff81146114bc5760010190565b7f4e487b7100000000000000000000000000000000000000000000000000000000600052601160045260246000fd5b80518210156114ff5760209160051b010190565b7f4e487b7100000000000000000000000000000000000000000000000000000000600052603260045260246000fd5b9190926115476066549161154284876115f0565b6115f0565b101592836115e6575b505060e08101805160038110156112c85760020361157057505050600690565b5160038110156112c857600103611588575050600490565b63ffffffff908160208201511642106000146115a657505050600090565b604081015182164210156115bc57505050600190565b60600151164210156115d757156115d257600290565b600190565b156115e157600390565b600590565b1191503880611550565b919082018092116114bc5756fea164736f6c6343000812000a",
    "linkReferences": {}
  },
  "methodIdentifiers": {
    "disableSpace(address)": "9e33d811",
    "enableSpace(address)": "d92d4ea0",
    "execute((uint32,uint32,uint32,uint32,bytes32,address,address,uint8,(address,bytes)[]),uint256,uint256,uint256,bytes)": "6b12e4c4",
    "getProposalStatus((uint32,uint32,uint32,uint32,bytes32,address,address,uint8,(address,bytes)[]),uint256,uint256,uint256)": "12eadade",
    "getStrategyType()": "0eb9b15a",
    "isSpaceEnabled(address)": "6efd971c",
    "owner()": "8da5cb5b",
    "quorum()": "1703a018",
    "renounceOwnership()": "715018a6",
    "setTarget(address)": "776d1a01",
    "setUp(bytes)": "a4f9edbf",
    "target()": "d4b83992",
    "transferOwnership(address)": "f2fde38b"
  },
  "id": 60
}