{
  "abi": [
    {
      "inputs": [
        {
          "internalType": "address",
          "name": "_owner",
          "type": "address"
        },
        {
          "internalType": "address",
          "name": "_target",
          "type": "address"
        },
        {
          "internalType": "address[]",
          "name": "_spaces",
          "type": "address[]"
        },
        {
          "internalType": "uint256",
          "name": "_quorum",
          "type": "uint256"
        }
      ],
      "stateMutability": "nonpayable",
      "type": "constructor"
    },
    {
      "inputs": [],
      "name": "ExecutionFailed",
      "type": "error"
    },
    {
      "inputs": [
        {
          "internalType": "enum ProposalStatus",
          "name": "status",
          "type": "uint8"
        }
      ],
      "name": "InvalidProposalStatus",
      "type": "error"
    },
    {
      "inputs": [],
      "name": "InvalidSpace",
      "type": "error"
    },
    {
      "anonymous": false,
      "inputs": [
        {
          "indexed": false,
          "internalType": "address",
          "name": "_owner",
          "type": "address"
        },
        {
          "indexed": false,
          "internalType": "address",
          "name": "_target",
          "type": "address"
        },
        {
          "indexed": false,
          "internalType": "address[]",
          "name": "_spaces",
          "type": "address[]"
        },
        {
          "indexed": false,
          "internalType": "uint256",
          "name": "_quorum",
          "type": "uint256"
        }
      ],
      "name": "AvatarExecutionStrategySetUp",
      "type": "event"
    },
    {
      "anonymous": false,
      "inputs": [
        {
          "indexed": false,
          "internalType": "uint8",
          "name": "version",
          "type": "uint8"
        }
      ],
      "name": "Initialized",
      "type": "event"
    },
    {
      "anonymous": false,
      "inputs": [
        {
          "indexed": true,
          "internalType": "address",
          "name": "previousOwner",
          "type": "address"
        },
        {
          "indexed": true,
          "internalType": "address",
          "name": "newOwner",
          "type": "address"
        }
      ],
      "name": "OwnershipTransferred",
      "type": "event"
    },
    {
      "anonymous": false,
      "inputs": [
        {
          "indexed": false,
          "internalType": "uint256",
          "name": "newQuorum",
          "type": "uint256"
        }
      ],
      "name": "QuorumUpdated",
      "type": "event"
    },
    {
      "anonymous": false,
      "inputs": [
        {
          "indexed": false,
          "internalType": "address",
          "name": "space",
          "type": "address"
        }
      ],
      "name": "SpaceDisabled",
      "type": "event"
    },
    {
      "anonymous": false,
      "inputs": [
        {
          "indexed": false,
          "internalType": "address",
          "name": "space",
          "type": "address"
        }
      ],
      "name": "SpaceEnabled",
      "type": "event"
    },
    {
      "anonymous": false,
      "inputs": [
        {
          "indexed": true,
          "internalType": "address",
          "name": "newTarget",
          "type": "address"
        }
      ],
      "name": "TargetSet",
      "type": "event"
    },
    {
      "inputs": [
        {
          "internalType": "address",
          "name": "space",
          "type": "address"
        }
      ],
      "name": "disableSpace",
      "outputs": [],
      "stateMutability": "nonpayable",
      "type": "function"
    },
    {
      "inputs": [
        {
          "internalType": "address",
          "name": "space",
          "type": "address"
        }
      ],
      "name": "enableSpace",
      "outputs": [],
      "stateMutability": "nonpayable",
      "type": "function"
    },
    {
      "inputs": [
        {
          "components": [
            {
              "internalType": "address",
              "name": "author",
              "type": "address"
            },
            {
              "internalType": "uint32",
              "name": "startBlockNumber",
              "type": "uint32"
            },
            {
              "internalType": "contract IExecutionStrategy",
              "name": "executionStrategy",
              "type": "address"
            },
            {
              "internalType": "uint32",
              "name": "minEndBlockNumber",
              "type": "uint32"
            },
            {
              "internalType": "uint32",
              "name": "maxEndBlockNumber",
              "type": "uint32"
            },
            {
              "internalType": "enum FinalizationStatus",
              "name": "finalizationStatus",
              "type": "uint8"
            },
            {
              "internalType": "bytes32",
              "name": "executionPayloadHash",
              "type": "bytes32"
            },
            {
              "internalType": "uint256",
              "name": "activeVotingStrategies",
              "type": "uint256"
            }
          ],
          "internalType": "struct Proposal",
          "name": "proposal",
          "type": "tuple"
        },
        {
          "internalType": "uint256",
          "name": "votesFor",
          "type": "uint256"
        },
        {
          "internalType": "uint256",
          "name": "votesAgainst",
          "type": "uint256"
        },
        {
          "internalType": "uint256",
          "name": "votesAbstain",
          "type": "uint256"
        },
        {
          "internalType": "bytes",
          "name": "payload",
          "type": "bytes"
        }
      ],
      "name": "execute",
      "outputs": [],
      "stateMutability": "nonpayable",
      "type": "function"
    },
    {
      "inputs": [
        {
          "components": [
            {
              "internalType": "address",
              "name": "author",
              "type": "address"
            },
            {
              "internalType": "uint32",
              "name": "startBlockNumber",
              "type": "uint32"
            },
            {
              "internalType": "contract IExecutionStrategy",
              "name": "executionStrategy",
              "type": "address"
            },
            {
              "internalType": "uint32",
              "name": "minEndBlockNumber",
              "type": "uint32"
            },
            {
              "internalType": "uint32",
              "name": "maxEndBlockNumber",
              "type": "uint32"
            },
            {
              "internalType": "enum FinalizationStatus",
              "name": "finalizationStatus",
              "type": "uint8"
            },
            {
              "internalType": "bytes32",
              "name": "executionPayloadHash",
              "type": "bytes32"
            },
            {
              "internalType": "uint256",
              "name": "activeVotingStrategies",
              "type": "uint256"
            }
          ],
          "internalType": "struct Proposal",
          "name": "proposal",
          "type": "tuple"
        },
        {
          "internalType": "uint256",
          "name": "votesFor",
          "type": "uint256"
        },
        {
          "internalType": "uint256",
          "name": "votesAgainst",
          "type": "uint256"
        },
        {
          "internalType": "uint256",
          "name": "votesAbstain",
          "type": "uint256"
        }
      ],
      "name": "getProposalStatus",
      "outputs": [
        {
          "internalType": "enum ProposalStatus",
          "name": "",
          "type": "uint8"
        }
      ],
      "stateMutability": "view",
      "type": "function"
    },
    {
      "inputs": [],
      "name": "getStrategyType",
      "outputs": [
        {
          "internalType": "string",
          "name": "",
          "type": "string"
        }
      ],
      "stateMutability": "pure",
      "type": "function"
    },
    {
      "inputs": [
        {
          "internalType": "address",
          "name": "space",
          "type": "address"
        }
      ],
      "name": "isSpaceEnabled",
      "outputs": [
        {
          "internalType": "uint256",
          "name": "",
          "type": "uint256"
        }
      ],
      "stateMutability": "view",
      "type": "function"
    },
    {
      "inputs": [],
      "name": "owner",
      "outputs": [
        {
          "internalType": "address",
          "name": "",
          "type": "address"
        }
      ],
      "stateMutability": "view",
      "type": "function"
    },
    {
      "inputs": [],
      "name": "quorum",
      "outputs": [
        {
          "internalType": "uint256",
          "name": "",
          "type": "uint256"
        }
      ],
      "stateMutability": "view",
      "type": "function"
    },
    {
      "inputs": [],
      "name": "renounceOwnership",
      "outputs": [],
      "stateMutability": "nonpayable",
      "type": "function"
    },
    {
      "inputs": [
        {
          "internalType": "uint256",
          "name": "_quorum",
          "type": "uint256"
        }
      ],
      "name": "setQuorum",
      "outputs": [],
      "stateMutability": "nonpayable",
      "type": "function"
    },
    {
      "inputs": [
        {
          "internalType": "address",
          "name": "_target",
          "type": "address"
        }
      ],
      "name": "setTarget",
      "outputs": [],
      "stateMutability": "nonpayable",
      "type": "function"
    },
    {
      "inputs": [
        {
          "internalType": "bytes",
          "name": "initParams",
          "type": "bytes"
        }
      ],
      "name": "setUp",
      "outputs": [],
      "stateMutability": "nonpayable",
      "type": "function"
    },
    {
      "inputs": [],
      "name": "target",
      "outputs": [
        {
          "internalType": "address",
          "name": "",
          "type": "address"
        }
      ],
      "stateMutability": "view",
      "type": "function"
    },
    {
      "inputs": [
        {
          "internalType": "address",
          "name": "newOwner",
          "type": "address"
        }
      ],
      "name": "transferOwnership",
      "outputs": [],
      "stateMutability": "nonpayable",
      "type": "function"
    }
  ],
  "bytecode": {
    "object": "0x608060409080825234620003c557620019e78038038091620000228285620003ca565b8339810190608081830312620003c5576200003d8162000404565b916020916200004e83820162000404565b818601516001600160401b03939190848111620003c55760606200007d6200009f946200009093870162000419565b9401518851948593888501998a62000490565b03601f198101835282620003ca565b60009081549260ff95868560081c161592838094620003b8575b8015620003a0575b156200034557600195848760ff19831617875562000333575b5080518101916080828403126200032f57620000f69062000404565b92620001048a830162000404565b9260608301519182116200032b5760809189806200012793019185010162000419565b9101519060018060a01b0380809516931693620001558a885460081c166200014f81620004f6565b620004f6565b620001603362000557565b33816033541603620002e957831562000296576200017e8462000557565b6200018f8a885460081c16620004f6565b86885b62000249575b50507f683bbcd71b259e230416d974e6911d22117ec0de423b17abfcb832bafbd244bf939291620001f891620001d588549b8c60081c16620004f6565b6066829055606780546001600160a01b031916861790558b519485948562000490565b0390a162000210575b84516114469081620005a18239f35b7f7f26b83ff96e1f2b6a682f133852f6798a09c465da95921460cefb38474024989361ff00191690558351908152a13880808062000201565b82518110156200029057818a8260051b8501015116885260658a52888c89205560001981146200027c5788018862000192565b634e487b7160e01b88526011600452602488fd5b62000198565b8a5162461bcd60e51b8152600481018a9052602660248201527f4f776e61626c653a206e6577206f776e657220697320746865207a65726f206160448201526564647265737360d01b6064820152608490fd5b6064898c519062461bcd60e51b825280600483015260248201527f4f776e61626c653a2063616c6c6572206973206e6f7420746865206f776e65726044820152fd5b8680fd5b8580fd5b61ffff191661010117855538620000da565b885162461bcd60e51b815260048101889052602e60248201527f496e697469616c697a61626c653a20636f6e747261637420697320616c72656160448201526d191e481a5b9a5d1a585b1a5e995960921b6064820152608490fd5b50303b158015620000c15750600188871614620000c1565b50600188871610620000b9565b600080fd5b601f909101601f19168101906001600160401b03821190821017620003ee57604052565b634e487b7160e01b600052604160045260246000fd5b51906001600160a01b0382168203620003c557565b9080601f83011215620003c5578151906001600160401b038211620003ee578160051b604051936020936200045185840187620003ca565b85528380860192820101928311620003c5578301905b82821062000476575050505090565b838091620004848462000404565b81520191019062000467565b9493929091608086019060018060a01b0380941687528360209116818801526080604088015282518092528060a088019301936000905b838210620004dc575050505060609150930152565b8551811685529482019493820193600190910190620004c7565b15620004fe57565b60405162461bcd60e51b815260206004820152602b60248201527f496e697469616c697a61626c653a20636f6e7472616374206973206e6f74206960448201526a6e697469616c697a696e6760a81b6064820152608490fd5b603380546001600160a01b039283166001600160a01b0319821681179092559091167f8be0079c531659141344cd1fd0a4f28419497f9722a3daafe3b4186f6b6457e0600080a356fe6080806040526004908136101561001557600080fd5b60003560e01c9081630eb9b15a14610e1b575080631703a01814610dfd5780632b06df53146109655780636efd971c1461091e578063715018a61461089e578063776d1a01146108165780638da5cb5b146107e25780639e33d81114610759578063a4f9edbf14610314578063c1ba4e59146102c8578063d4b8399214610294578063d92d4ea0146101d2578063ea8f8c4b1461018d5763f2fde38b146100bb57600080fd5b34610188576020600319360112610188576100d4610f8f565b906100dd611131565b73ffffffffffffffffffffffffffffffffffffffff82161561010457610102826111b0565b005b6084906020604051917f08c379a0000000000000000000000000000000000000000000000000000000008352820152602660248201527f4f776e61626c653a206e6577206f776e657220697320746865207a65726f206160448201527f64647265737300000000000000000000000000000000000000000000000000006064820152fd5b600080fd5b3461018857610160600319360112610188576101ce6101c26101ae36610fb2565b610144359061012435906101043590611380565b604051918291826110ef565b0390f35b50346101885760206003193601126101885773ffffffffffffffffffffffffffffffffffffffff610201610f8f565b610209611131565b16908115801561027d575b610255577fc3dc08a46232e8d0a95510120799f1e68e0aa28c88730b8b0127d5ff4565b4b060208380600052606582526001604060002055604051908152a1005b6040517fc3b48cf1000000000000000000000000000000000000000000000000000000008152fd5b508160005260656020526040600020541515610214565b3461018857600060031936011261018857602073ffffffffffffffffffffffffffffffffffffffff60675416604051908152f35b50346101885760206003193601126101885760207ff18f88786aae85a652aadb99a82462616489a33370c9bcc7b245906812ef7cd19135610307611131565b80606655604051908152a1005b5034610188576020806003193601126101885767ffffffffffffffff9180358381116101885761034790369083016110a8565b6000549160ff94858460081c16159283809461074d575b8015610737575b156106b45760019484867fffffffffffffffffffffffffffffffffffffffffffffffffffffffffffffff00831617600055610685575b508051810191608082888501940312610188576103b987830161121d565b6103c56040840161121d565b9160608401519081116101885783019284603f850112156101885788840151946103ee8661123e565b946103fc6040519687610f1f565b8686528a8601906040829860051b8201019283116101885760408c9101915b83831061066d5750505050608001519273ffffffffffffffffffffffffffffffffffffffff808093169316956104608b60005460081c1661045b81611256565b611256565b610469336111b0565b610471611131565b83156105ea57506104838392936111b0565b6104938a60005460081c16611256565b876000815b6105a9575b50506104b06000549a8b60081c16611256565b83606655857fffffffffffffffffffffffff00000000000000000000000000000000000000006067541617606755604051956080870192875289870152608060408701525180915260a0850193916000905b888a848410610591578c918a7f683bbcd71b259e230416d974e6911d22117ec0de423b17abfcb832bafbd244bf8b808c8c60608301520390a161054157005b7fffffffffffffffffffffffffffffffffffffffffffffffffffffffffffff00ff7f7f26b83ff96e1f2b6a682f133852f6798a09c465da95921460cefb38474024989316600055604051908152a1005b85518316885296870196909401939190910190610502565b82949394518110156105e25780846105c46105d9938661133d565b511660005260658c52826040600020556112e1565b81949394610498565b93929361049d565b6084908a604051917f08c379a0000000000000000000000000000000000000000000000000000000008352820152602660248201527f4f776e61626c653a206e6577206f776e657220697320746865207a65726f206160448201527f64647265737300000000000000000000000000000000000000000000000000006064820152fd5b81906106788461121d565b8152019101908b9061041b565b7fffffffffffffffffffffffffffffffffffffffffffffffffffffffffffff000016610101176000553861039b565b60848387604051917f08c379a0000000000000000000000000000000000000000000000000000000008352820152602e60248201527f496e697469616c697a61626c653a20636f6e747261637420697320616c72656160448201527f647920696e697469616c697a65640000000000000000000000000000000000006064820152fd5b50303b1580156103655750600187861614610365565b5060018786161061035e565b50346101885760206003193601126101885773ffffffffffffffffffffffffffffffffffffffff610788610f8f565b610790611131565b169081600052606560205260406000205415610255577f665604bfe8ee87044ba1f1fd2fb47fe92983c9e187acbb442debf97d3e581921602083806000526065825260006040812055604051908152a1005b3461018857600060031936011261018857602073ffffffffffffffffffffffffffffffffffffffff60335416604051908152f35b346101885760206003193601126101885773ffffffffffffffffffffffffffffffffffffffff610844610f8f565b61084c611131565b16807fffffffffffffffffffffffff000000000000000000000000000000000000000060675416176067557f3bfb4bbf112628248058745a3c57e35b13369386e474b8e56c552f3063a4a196600080a2005b34610188576000600319360112610188576108b7611131565b600073ffffffffffffffffffffffffffffffffffffffff6033547fffffffffffffffffffffffff00000000000000000000000000000000000000008116603355167f8be0079c531659141344cd1fd0a4f28419497f9722a3daafe3b4186f6b6457e08280a3005b346101885760206003193601126101885773ffffffffffffffffffffffffffffffffffffffff61094c610f8f565b1660005260656020526020604060002054604051908152f35b5034610188576101806003193601126101885761098136610fb2565b6101643567ffffffffffffffff8111610188576109a190369084016110a8565b9033600052606560205260406000205415610dd4576109ce90610144359061012435906101043590611380565b6007811015610da657600381141580610d9b575b610d635750805181019060208183031261018857602081015167ffffffffffffffff81116101885760208301603f828401011215610188576020818301015190610a2b8261123e565b93610a396040519586610f1f565b82855260208501906020810160408560051b85880101011161018857604083860101915b60408560051b85880101018310610bfa57878760005b81518110156101025773ffffffffffffffffffffffffffffffffffffffff806067541690610aa1838561133d565b515116906020610ab1848661133d565b510151906040610ac1858761133d565b510151926060610ad1868861133d565b5101516002811015610bcc57906000886020959493610b2f604051988997889687957f468721a70000000000000000000000000000000000000000000000000000000087528601526024850152608060448501526084840190610edc565b90606483015203925af1908115610bc057600091610b85575b5015610b5c57610b57906112e1565b610a73565b826040517facfdb444000000000000000000000000000000000000000000000000000000008152fd5b90506020813d602011610bb8575b81610ba060209383610f1f565b81010312610188575180151581036101885784610b48565b3d9150610b93565b6040513d6000823e3d90fd5b6021887f4e487b71000000000000000000000000000000000000000000000000000000006000525260246000fd5b825167ffffffffffffffff81116101885760a07fffffffffffffffffffffffffffffffffffffffffffffffffffffffffffffffe082878a0101850301126101885760405160a0810181811067ffffffffffffffff821117610d3557604052610c68604083888b01010161121d565b81526060928383888b010101516020830152608083888b0101015167ffffffffffffffff81116101885760208601888b0185018201605f01121561018857878a0184018101604001518691908b878284898e6020610cc58561106e565b99610cd36040519b8c610f1f565b858b520195010101010111610188578b87610cf893888d602088019401010101610eb9565b604083015260a083888b010101519160028310156101885760c06020948594604097840152898c0101015160808201528152019301929050610a5d565b60418b7f4e487b71000000000000000000000000000000000000000000000000000000006000525260246000fd5b82610d976040519283927fe6ace38e00000000000000000000000000000000000000000000000000000000845283016110ef565b0390fd5b5060028114156109e2565b6021837f4e487b71000000000000000000000000000000000000000000000000000000006000525260246000fd5b826040517fc3b48cf1000000000000000000000000000000000000000000000000000000008152fd5b34610188576000600319360112610188576020606654604051908152f35b905034610188576000600319360112610188576040810181811067ffffffffffffffff821117610e8b576101ce9250604052601281527f53696d706c6551756f72756d41766174617200000000000000000000000000006020820152604051918291602083526020830190610edc565b6041837f4e487b71000000000000000000000000000000000000000000000000000000006000525260246000fd5b60005b838110610ecc5750506000910152565b8181015183820152602001610ebc565b907fffffffffffffffffffffffffffffffffffffffffffffffffffffffffffffffe0601f602093610f1881518092818752878088019101610eb9565b0116010190565b90601f7fffffffffffffffffffffffffffffffffffffffffffffffffffffffffffffffe0910116810190811067ffffffffffffffff821117610f6057604052565b7f4e487b7100000000000000000000000000000000000000000000000000000000600052604160045260246000fd5b6004359073ffffffffffffffffffffffffffffffffffffffff8216820361018857565b61010091906003190182136101885760405191820182811067ffffffffffffffff821117610f60576040528173ffffffffffffffffffffffffffffffffffffffff600435818116810361018857825263ffffffff90602435828116810361018857602084015260443590811681036101885760408301526064358181168103610188576060830152608435908116810361018857608082015260a43560038110156101885760a082015260c43560c082015260e060e435910152565b67ffffffffffffffff8111610f6057601f017fffffffffffffffffffffffffffffffffffffffffffffffffffffffffffffffe01660200190565b81601f82011215610188578035906110bf8261106e565b926110cd6040519485610f1f565b8284526020838301011161018857816000926020809301838601378301015290565b9190602083019260078210156111025752565b7f4e487b7100000000000000000000000000000000000000000000000000000000600052602160045260246000fd5b73ffffffffffffffffffffffffffffffffffffffff60335416330361115257565b60646040517f08c379a000000000000000000000000000000000000000000000000000000000815260206004820152602060248201527f4f776e61626c653a2063616c6c6572206973206e6f7420746865206f776e65726044820152fd5b6033549073ffffffffffffffffffffffffffffffffffffffff80911691827fffffffffffffffffffffffff0000000000000000000000000000000000000000821617603355167f8be0079c531659141344cd1fd0a4f28419497f9722a3daafe3b4186f6b6457e0600080a3565b519073ffffffffffffffffffffffffffffffffffffffff8216820361018857565b67ffffffffffffffff8111610f605760051b60200190565b1561125d57565b60846040517f08c379a000000000000000000000000000000000000000000000000000000000815260206004820152602b60248201527f496e697469616c697a61626c653a20636f6e7472616374206973206e6f74206960448201527f6e697469616c697a696e670000000000000000000000000000000000000000006064820152fd5b7fffffffffffffffffffffffffffffffffffffffffffffffffffffffffffffffff811461130e5760010190565b7f4e487b7100000000000000000000000000000000000000000000000000000000600052601160045260246000fd5b80518210156113515760209160051b010190565b7f4e487b7100000000000000000000000000000000000000000000000000000000600052603260045260246000fd5b91909260665490840180851161130e571015928361142f575b505060a0810180516003811015611102576002036113b957505050600690565b516003811015611102576001036113d1575050600490565b63ffffffff908160208201511643106000146113ef57505050600090565b6060810151821643101561140557505050600190565b6080015116431015611420571561141b57600290565b600190565b1561142a57600390565b600590565b119150388061139956fea164736f6c6343000812000a",
    "linkReferences": {}
  },
  "methodIdentifiers": {
    "disableSpace(address)": "9e33d811",
    "enableSpace(address)": "d92d4ea0",
    "execute((address,uint32,address,uint32,uint32,uint8,bytes32,uint256),uint256,uint256,uint256,bytes)": "2b06df53",
    "getProposalStatus((address,uint32,address,uint32,uint32,uint8,bytes32,uint256),uint256,uint256,uint256)": "ea8f8c4b",
    "getStrategyType()": "0eb9b15a",
    "isSpaceEnabled(address)": "6efd971c",
    "owner()": "8da5cb5b",
    "quorum()": "1703a018",
    "renounceOwnership()": "715018a6",
    "setQuorum(uint256)": "c1ba4e59",
    "setTarget(address)": "776d1a01",
    "setUp(bytes)": "a4f9edbf",
    "target()": "d4b83992",
    "transferOwnership(address)": "f2fde38b"
  },
  "id": 74
}