{
  "abi": [
    {
      "inputs": [],
      "name": "InvalidBlockNumber",
      "type": "error"
    },
    {
      "inputs": [],
      "name": "InvalidByteArray",
      "type": "error"
    },
    {
      "inputs": [],
      "name": "TimestampInFuture",
      "type": "error"
    },
    {
      "inputs": [
        {
          "internalType": "uint32",
          "name": "timestamp",
          "type": "uint32"
        },
        {
          "internalType": "address",
          "name": "voterAddress",
          "type": "address"
        },
        {
          "internalType": "bytes",
          "name": "params",
          "type": "bytes"
        },
        {
          "internalType": "bytes",
          "name": "",
          "type": "bytes"
        }
      ],
      "name": "getVotingPower",
      "outputs": [
        {
          "internalType": "uint256",
          "name": "",
          "type": "uint256"
        }
      ],
      "stateMutability": "nonpayable",
      "type": "function"
    },
    {
      "inputs": [
        {
          "internalType": "uint32",
          "name": "timestamp",
          "type": "uint32"
        }
      ],
      "name": "timestampToBlockNumber",
      "outputs": [
        {
          "internalType": "uint256",
          "name": "blockNumber",
          "type": "uint256"
        }
      ],
      "stateMutability": "view",
      "type": "function"
    }
  ],
  "bytecode": {
    "object": "0x60808060405234610016576104a8908161001c8239f35b600080fdfe6080604052600436101561001257600080fd5b6000803560e01c806332a10bb4146100f75763871d81b71461003357600080fd5b346100ec5760807ffffffffffffffffffffffffffffffffffffffffffffffffffffffffffffffffc3601126100ec5761006a610149565b9060243573ffffffffffffffffffffffffffffffffffffffff811681036100f35767ffffffffffffffff926044358481116100ef576100ad903690600401610161565b9490936064359182116100ec576100e86100d8878787876100d13660048a01610161565b5050610234565b6040519081529081906020820190565b0390f35b80fd5b8380fd5b5080fd5b50346100ec5760207ffffffffffffffffffffffffffffffffffffffffffffffffffffffffffffffffc3601126100ec5760409063ffffffff610137610149565b16815280602052205460805260206080f35b6004359063ffffffff8216820361015c57565b600080fd5b9181601f8401121561015c5782359167ffffffffffffffff831161015c576020838186019501011161015c57565b7f4e487b7100000000000000000000000000000000000000000000000000000000600052604160045260246000fd5b90601f7fffffffffffffffffffffffffffffffffffffffffffffffffffffffffffffffe0910116810190811067ffffffffffffffff8211176101ff57604052565b61018f565b9081602091031261015c57516bffffffffffffffffffffffff8116810361015c5790565b6040513d6000823e3d90fd5b9067ffffffffffffffff84116101ff576040519160209461027c867fffffffffffffffffffffffffffffffffffffffffffffffffffffffffffffffe0601f84011601856101be565b808452368186011161015c576102a684600088846102ac956103059a83809b01378301015261045e565b9161035f565b6040517f782d6fe100000000000000000000000000000000000000000000000000000000815273ffffffffffffffffffffffffffffffffffffffff93841660048201526024810191909152938492839182906044820190565b0392165afa90811561035a576bffffffffffffffffffffffff9260009261032d575b50501690565b61034c9250803d10610353575b61034481836101be565b810190610204565b3880610327565b503d61033a565b610228565b63ffffffff8082169042168111610434576001431461040a5760005260006020526040600020548061040557507fffffffffffffffffffffffffffffffffffffffffffffffffffffffffffffffff4301904382116103d6576103d2829163ffffffff166000526000602052604060002090565b5590565b7f4e487b7100000000000000000000000000000000000000000000000000000000600052601160045260246000fd5b905090565b60046040517f4e47846c000000000000000000000000000000000000000000000000000000008152fd5b60046040517f47860b97000000000000000000000000000000000000000000000000000000008152fd5b6014815110610471576020015160601c90565b60046040517faf06e244000000000000000000000000000000000000000000000000000000008152fdfea164736f6c6343000812000a",
    "linkReferences": {}
  },
  "methodIdentifiers": {
    "getVotingPower(uint32,address,bytes,bytes)": "871d81b7",
    "timestampToBlockNumber(uint32)": "32a10bb4"
  },
  "id": 70
}