{
  "abi": [
    {
      "inputs": [],
      "stateMutability": "nonpayable",
      "type": "constructor"
    },
    {
      "anonymous": false,
      "inputs": [
        {
          "indexed": true,
          "internalType": "address",
          "name": "owner",
          "type": "address"
        },
        {
          "indexed": true,
          "internalType": "address",
          "name": "spender",
          "type": "address"
        },
        {
          "indexed": false,
          "internalType": "uint256",
          "name": "value",
          "type": "uint256"
        }
      ],
      "name": "Approval",
      "type": "event"
    },
    {
      "anonymous": false,
      "inputs": [
        {
          "indexed": true,
          "internalType": "address",
          "name": "delegator",
          "type": "address"
        },
        {
          "indexed": true,
          "internalType": "address",
          "name": "fromDelegate",
          "type": "address"
        },
        {
          "indexed": true,
          "internalType": "address",
          "name": "toDelegate",
          "type": "address"
        }
      ],
      "name": "DelegateChanged",
      "type": "event"
    },
    {
      "anonymous": false,
      "inputs": [
        {
          "indexed": true,
          "internalType": "address",
          "name": "delegate",
          "type": "address"
        },
        {
          "indexed": false,
          "internalType": "uint256",
          "name": "previousBalance",
          "type": "uint256"
        },
        {
          "indexed": false,
          "internalType": "uint256",
          "name": "newBalance",
          "type": "uint256"
        }
      ],
      "name": "DelegateVotesChanged",
      "type": "event"
    },
    {
      "anonymous": false,
      "inputs": [
        {
          "indexed": true,
          "internalType": "address",
          "name": "from",
          "type": "address"
        },
        {
          "indexed": true,
          "internalType": "address",
          "name": "to",
          "type": "address"
        },
        {
          "indexed": false,
          "internalType": "uint256",
          "name": "value",
          "type": "uint256"
        }
      ],
      "name": "Transfer",
      "type": "event"
    },
    {
      "inputs": [],
      "name": "DOMAIN_SEPARATOR",
      "outputs": [
        {
          "internalType": "bytes32",
          "name": "",
          "type": "bytes32"
        }
      ],
      "stateMutability": "view",
      "type": "function"
    },
    {
      "inputs": [
        {
          "internalType": "address",
          "name": "owner",
          "type": "address"
        },
        {
          "internalType": "address",
          "name": "spender",
          "type": "address"
        }
      ],
      "name": "allowance",
      "outputs": [
        {
          "internalType": "uint256",
          "name": "",
          "type": "uint256"
        }
      ],
      "stateMutability": "view",
      "type": "function"
    },
    {
      "inputs": [
        {
          "internalType": "address",
          "name": "spender",
          "type": "address"
        },
        {
          "internalType": "uint256",
          "name": "amount",
          "type": "uint256"
        }
      ],
      "name": "approve",
      "outputs": [
        {
          "internalType": "bool",
          "name": "",
          "type": "bool"
        }
      ],
      "stateMutability": "nonpayable",
      "type": "function"
    },
    {
      "inputs": [
        {
          "internalType": "address",
          "name": "account",
          "type": "address"
        }
      ],
      "name": "balanceOf",
      "outputs": [
        {
          "internalType": "uint256",
          "name": "",
          "type": "uint256"
        }
      ],
      "stateMutability": "view",
      "type": "function"
    },
    {
      "inputs": [
        {
          "internalType": "address",
          "name": "account",
          "type": "address"
        },
        {
          "internalType": "uint32",
          "name": "pos",
          "type": "uint32"
        }
      ],
      "name": "checkpoints",
      "outputs": [
        {
          "components": [
            {
              "internalType": "uint32",
              "name": "fromBlock",
              "type": "uint32"
            },
            {
              "internalType": "uint224",
              "name": "votes",
              "type": "uint224"
            }
          ],
          "internalType": "struct ERC20Votes.Checkpoint",
          "name": "",
          "type": "tuple"
        }
      ],
      "stateMutability": "view",
      "type": "function"
    },
    {
      "inputs": [],
      "name": "decimals",
      "outputs": [
        {
          "internalType": "uint8",
          "name": "",
          "type": "uint8"
        }
      ],
      "stateMutability": "view",
      "type": "function"
    },
    {
      "inputs": [
        {
          "internalType": "address",
          "name": "spender",
          "type": "address"
        },
        {
          "internalType": "uint256",
          "name": "subtractedValue",
          "type": "uint256"
        }
      ],
      "name": "decreaseAllowance",
      "outputs": [
        {
          "internalType": "bool",
          "name": "",
          "type": "bool"
        }
      ],
      "stateMutability": "nonpayable",
      "type": "function"
    },
    {
      "inputs": [
        {
          "internalType": "address",
          "name": "delegatee",
          "type": "address"
        }
      ],
      "name": "delegate",
      "outputs": [],
      "stateMutability": "nonpayable",
      "type": "function"
    },
    {
      "inputs": [
        {
          "internalType": "address",
          "name": "delegatee",
          "type": "address"
        },
        {
          "internalType": "uint256",
          "name": "nonce",
          "type": "uint256"
        },
        {
          "internalType": "uint256",
          "name": "expiry",
          "type": "uint256"
        },
        {
          "internalType": "uint8",
          "name": "v",
          "type": "uint8"
        },
        {
          "internalType": "bytes32",
          "name": "r",
          "type": "bytes32"
        },
        {
          "internalType": "bytes32",
          "name": "s",
          "type": "bytes32"
        }
      ],
      "name": "delegateBySig",
      "outputs": [],
      "stateMutability": "nonpayable",
      "type": "function"
    },
    {
      "inputs": [
        {
          "internalType": "address",
          "name": "account",
          "type": "address"
        }
      ],
      "name": "delegates",
      "outputs": [
        {
          "internalType": "address",
          "name": "",
          "type": "address"
        }
      ],
      "stateMutability": "view",
      "type": "function"
    },
    {
      "inputs": [
        {
          "internalType": "address",
          "name": "account",
          "type": "address"
        }
      ],
      "name": "getCurrentVotes",
      "outputs": [
        {
          "internalType": "uint96",
          "name": "",
          "type": "uint96"
        }
      ],
      "stateMutability": "view",
      "type": "function"
    },
    {
      "inputs": [
        {
          "internalType": "uint256",
          "name": "blockNumber",
          "type": "uint256"
        }
      ],
      "name": "getPastTotalSupply",
      "outputs": [
        {
          "internalType": "uint256",
          "name": "",
          "type": "uint256"
        }
      ],
      "stateMutability": "view",
      "type": "function"
    },
    {
      "inputs": [
        {
          "internalType": "address",
          "name": "account",
          "type": "address"
        },
        {
          "internalType": "uint256",
          "name": "blockNumber",
          "type": "uint256"
        }
      ],
      "name": "getPastVotes",
      "outputs": [
        {
          "internalType": "uint256",
          "name": "",
          "type": "uint256"
        }
      ],
      "stateMutability": "view",
      "type": "function"
    },
    {
      "inputs": [
        {
          "internalType": "address",
          "name": "account",
          "type": "address"
        },
        {
          "internalType": "uint256",
          "name": "blockNumber",
          "type": "uint256"
        }
      ],
      "name": "getPriorVotes",
      "outputs": [
        {
          "internalType": "uint96",
          "name": "",
          "type": "uint96"
        }
      ],
      "stateMutability": "view",
      "type": "function"
    },
    {
      "inputs": [
        {
          "internalType": "address",
          "name": "account",
          "type": "address"
        }
      ],
      "name": "getVotes",
      "outputs": [
        {
          "internalType": "uint256",
          "name": "",
          "type": "uint256"
        }
      ],
      "stateMutability": "view",
      "type": "function"
    },
    {
      "inputs": [
        {
          "internalType": "address",
          "name": "spender",
          "type": "address"
        },
        {
          "internalType": "uint256",
          "name": "addedValue",
          "type": "uint256"
        }
      ],
      "name": "increaseAllowance",
      "outputs": [
        {
          "internalType": "bool",
          "name": "",
          "type": "bool"
        }
      ],
      "stateMutability": "nonpayable",
      "type": "function"
    },
    {
      "inputs": [
        {
          "internalType": "address",
          "name": "to",
          "type": "address"
        },
        {
          "internalType": "uint256",
          "name": "amount",
          "type": "uint256"
        }
      ],
      "name": "mint",
      "outputs": [],
      "stateMutability": "nonpayable",
      "type": "function"
    },
    {
      "inputs": [],
      "name": "name",
      "outputs": [
        {
          "internalType": "string",
          "name": "",
          "type": "string"
        }
      ],
      "stateMutability": "view",
      "type": "function"
    },
    {
      "inputs": [
        {
          "internalType": "address",
          "name": "owner",
          "type": "address"
        }
      ],
      "name": "nonces",
      "outputs": [
        {
          "internalType": "uint256",
          "name": "",
          "type": "uint256"
        }
      ],
      "stateMutability": "view",
      "type": "function"
    },
    {
      "inputs": [
        {
          "internalType": "address",
          "name": "account",
          "type": "address"
        }
      ],
      "name": "numCheckpoints",
      "outputs": [
        {
          "internalType": "uint32",
          "name": "",
          "type": "uint32"
        }
      ],
      "stateMutability": "view",
      "type": "function"
    },
    {
      "inputs": [
        {
          "internalType": "address",
          "name": "owner",
          "type": "address"
        },
        {
          "internalType": "address",
          "name": "spender",
          "type": "address"
        },
        {
          "internalType": "uint256",
          "name": "value",
          "type": "uint256"
        },
        {
          "internalType": "uint256",
          "name": "deadline",
          "type": "uint256"
        },
        {
          "internalType": "uint8",
          "name": "v",
          "type": "uint8"
        },
        {
          "internalType": "bytes32",
          "name": "r",
          "type": "bytes32"
        },
        {
          "internalType": "bytes32",
          "name": "s",
          "type": "bytes32"
        }
      ],
      "name": "permit",
      "outputs": [],
      "stateMutability": "nonpayable",
      "type": "function"
    },
    {
      "inputs": [],
      "name": "symbol",
      "outputs": [
        {
          "internalType": "string",
          "name": "",
          "type": "string"
        }
      ],
      "stateMutability": "view",
      "type": "function"
    },
    {
      "inputs": [],
      "name": "totalSupply",
      "outputs": [
        {
          "internalType": "uint256",
          "name": "",
          "type": "uint256"
        }
      ],
      "stateMutability": "view",
      "type": "function"
    },
    {
      "inputs": [
        {
          "internalType": "address",
          "name": "to",
          "type": "address"
        },
        {
          "internalType": "uint256",
          "name": "amount",
          "type": "uint256"
        }
      ],
      "name": "transfer",
      "outputs": [
        {
          "internalType": "bool",
          "name": "",
          "type": "bool"
        }
      ],
      "stateMutability": "nonpayable",
      "type": "function"
    },
    {
      "inputs": [
        {
          "internalType": "address",
          "name": "from",
          "type": "address"
        },
        {
          "internalType": "address",
          "name": "to",
          "type": "address"
        },
        {
          "internalType": "uint256",
          "name": "amount",
          "type": "uint256"
        }
      ],
      "name": "transferFrom",
      "outputs": [
        {
          "internalType": "bool",
          "name": "",
          "type": "bool"
        }
      ],
      "stateMutability": "nonpayable",
      "type": "function"
    }
  ],
  "bytecode": {
    "object": "0x610140604081815234620003f8576200001882620003fd565b600491828152602091828201926315195cdd60e21b938481528251946200003f86620003fd565b868652828601528251906200005482620003fd565b86825263151154d560e21b838301528351946200007186620003fd565b6001808752603160f81b85880190815288516001600160401b03999195918a8211620003e3576003918254918583811c93168015620003d8575b8a841014620002da578190601f9384811162000382575b508a908483116001146200031b576000926200030f575b505060001982851b1c191690851b1782555b8251928b8411620002fa578c548581811c91168015620002ef575b8a821014620002da578281116200028f575b5088918411600114620002245793839491849260009562000218575b50501b92600019911b1c19161788555b51902093519020918360e052610100958387524660a0528151928301937f8b73c3c69bb8fe3d512ecc4cf759cc79239f7b179b0ffacaa9a75d522b39400f958686528385015260608401524660808401523060a084015260a0835260c0830195838710908711176200020357508490525190206080523060c0526101209081526126b99283620004308439608051836121cd015260a05183612288015260c0518361219e015260e0518361221c01525182612242015251816121f90152f35b604190634e487b7160e01b6000525260246000fd5b01519350388062000134565b9190601f198416928d600052848a6000209460005b8c898383106200027757505050106200025c575b50505050811b01885562000144565b01519060f884600019921b161c19169055388080806200024d565b86860151895590970196948501948893500162000239565b8d600052896000208380870160051c8201928c8810620002d0575b0160051c019086905b828110620002c357505062000118565b60008155018690620002b3565b92508192620002aa565b60228e634e487b7160e01b6000525260246000fd5b90607f169062000106565b60418d634e487b7160e01b6000525260246000fd5b015190503880620000d9565b60008681528c8120899550929190601f198516908e5b8282106200036a575050841162000351575b505050811b018255620000eb565b015160001983871b60f8161c1916905538808062000343565b8385015186558b979095019493840193018e62000331565b909150846000528a6000208480850160051c8201928d8610620003ce575b918991869594930160051c01915b828110620003be575050620000c2565b60008155859450899101620003ae565b92508192620003a0565b92607f1692620000ab565b60418c634e487b7160e01b6000525260246000fd5b600080fd5b604081019081106001600160401b038211176200041957604052565b634e487b7160e01b600052604160045260246000fdfe60806040526004361015610013575b600080fd5b60003560e01c806306fdde0314610207578063095ea7b3146101fe57806318160ddd146101f557806323b872dd146101ec578063313ce567146101e35780633644e515146101da57806339509351146101d15780633a46b1a8146101c857806340c10f19146101bf578063587cde1e146101b65780635c19a95c146101ad5780636fcfff45146101a457806370a082311461019b578063782d6fe1146101925780637ecebe00146101895780638e539e8c1461018057806395d89b41146101775780639ab24eb01461016e578063a457c2d714610165578063a9059cbb1461015c578063b4b5ea5714610153578063c3cda5201461014a578063d505accf14610141578063dd62ed3e146101385763f1127ed81461013057600080fd5b61000e610fcb565b5061000e610f53565b5061000e610de7565b5061000e610c7f565b5061000e610c3d565b5061000e610c16565b5061000e610b42565b5061000e610b1e565b5061000e610a5a565b5061000e6108d6565b5061000e61088e565b5061000e610851565b5061000e610809565b5061000e6107b3565b5061000e610790565b5061000e610747565b5061000e610626565b5061000e6105fe565b5061000e610597565b5061000e610573565b5061000e610556565b5061000e610461565b5061000e610442565b5061000e610410565b5061000e610286565b919091602080825283519081818401526000945b828610610270575050601f817fffffffffffffffffffffffffffffffffffffffffffffffffffffffffffffffe0926040959611610263575b0116010190565b600085828601015261025c565b8581018201518487016040015294810194610224565b503461000e576000806003193601126103c75760405190806003549060019180831c928082169283156103bd575b602092838610851461039057858852602088019490811561035157506001146102f8575b6102f4876102e8818903826110e5565b60405191829182610210565b0390f35b600360005294509192917fc2575a0e9e593c00f959f8c92f12db2869c3395a3b0502d05e2516446f71f85b5b83861061034057505050910190506102e8826102f438806102d8565b805485870152948201948101610324565b7fffffffffffffffffffffffffffffffffffffffffffffffffffffffffffffff001685525050505090151560051b0190506102e8826102f438806102d8565b6024827f4e487b710000000000000000000000000000000000000000000000000000000081526022600452fd5b93607f16936102b4565b80fd5b6004359073ffffffffffffffffffffffffffffffffffffffff8216820361000e57565b6024359073ffffffffffffffffffffffffffffffffffffffff8216820361000e57565b503461000e57604060031936011261000e5761043761042d6103ca565b60243590336113e2565b602060405160018152f35b503461000e57600060031936011261000e576020600254604051908152f35b503461000e57606060031936011261000e5761047b6103ca565b6104836103ed565b6044359073ffffffffffffffffffffffffffffffffffffffff831660005260016020526104d43360406000209073ffffffffffffffffffffffffffffffffffffffff16600052602052604060002090565b549260001984036104f6575b6104ea935061127e565b60405160018152602090f35b8284106105125761050d836104ea950333836113e2565b6104e0565b606460405162461bcd60e51b815260206004820152601d60248201527f45524332303a20696e73756666696369656e7420616c6c6f77616e63650000006044820152fd5b503461000e57600060031936011261000e57602060405160128152f35b503461000e57600060031936011261000e57602061058f612187565b604051908152f35b503461000e57604060031936011261000e576104376105b46103ca565b3360005260016020526105f76024356105f18360406000209073ffffffffffffffffffffffffffffffffffffffff16600052602052604060002090565b54611190565b90336113e2565b503461000e57604060031936011261000e57602061058f61061d6103ca565b602435906116e9565b503461000e57604060031936011261000e576106406103ca565b60243573ffffffffffffffffffffffffffffffffffffffff821691821561070357816106e2916107019461067e61067984600254611190565b600255565b6106a88273ffffffffffffffffffffffffffffffffffffffff166000526000602052604060002090565b8054840190556040518381526000907fddf252ad1be2c89b69c2b068fc378daa952ba7f163c4a11628f55a4df523b3ef90602090a3611875565b6106fc6bffffffffffffffffffffffff600254111561263b565b611d53565b005b606460405162461bcd60e51b815260206004820152601f60248201527f45524332303a206d696e7420746f20746865207a65726f2061646472657373006044820152fd5b503461000e57602060031936011261000e57602073ffffffffffffffffffffffffffffffffffffffff806107796103ca565b166000526007825260406000205416604051908152f35b503461000e57602060031936011261000e576107016107ad6103ca565b3361190e565b503461000e57602060031936011261000e5773ffffffffffffffffffffffffffffffffffffffff6107e26103ca565b16600052600860205260206107fb6040600020546125c0565b63ffffffff60405191168152f35b503461000e57602060031936011261000e5773ffffffffffffffffffffffffffffffffffffffff6108386103ca565b1660005260006020526020604060002054604051908152f35b503461000e57604060031936011261000e57602061087861087361061d6103ca565b61253d565b6bffffffffffffffffffffffff60405191168152f35b503461000e57602060031936011261000e5773ffffffffffffffffffffffffffffffffffffffff6108bd6103ca565b1660005260056020526020604060002054604051908152f35b503461000e57602060031936011261000e576004356108f643821061169e565b60095490600082600581116109ed575b50905b82821061097d5782806109425750602060005b7bffffffffffffffffffffffffffffffffffffffffffffffffffffffff60405191168152f35b6009600052602090610978907f6e1540171b6c0c960b71a7020d9f60077f6af931a8bbf590da0223dacf75c7ae015b5460201c90565b61091c565b909161099081841860011c828516611190565b6009600052908263ffffffff6109cd7f6e1540171b6c0c960b71a7020d9f60077f6af931a8bbf590da0223dacf75c7af85015b5463ffffffff1690565b1611156109dd5750915b90610909565b92506109e890611156565b6109d7565b806109fd610a0392959395612358565b90611813565b6009600052908263ffffffff610a3a7f6e1540171b6c0c960b71a7020d9f60077f6af931a8bbf590da0223dacf75c7af85016109c3565b161115610a4a5750915b38610906565b9250610a5590611156565b610a44565b503461000e576000806003193601126103c75760405190806004549060019180831c92808216928315610b14575b60209283861085146103905785885260208801949081156103515750600114610abb576102f4876102e8818903826110e5565b600460005294509192917f8a35acfbc15ff81a39ae7d344fd709f28e8600b4aa8c65c6b64bfe7fe36bd19b5b838610610b0357505050910190506102e8826102f438806102d8565b805485870152948201948101610ae7565b93607f1693610a88565b503461000e57602060031936011261000e57602061058f610b3d6103ca565b61162e565b503461000e57604060031936011261000e57610b5c6103ca565b60243590336000526001602052610b978160406000209073ffffffffffffffffffffffffffffffffffffffff16600052602052604060002090565b5491808310610bac576104ea920390336113e2565b608460405162461bcd60e51b815260206004820152602560248201527f45524332303a2064656372656173656420616c6c6f77616e63652062656c6f7760448201527f207a65726f0000000000000000000000000000000000000000000000000000006064820152fd5b503461000e57604060031936011261000e57610437610c336103ca565b602435903361127e565b503461000e57602060031936011261000e576020610878610873610b3d6103ca565b6064359060ff8216820361000e57565b6084359060ff8216820361000e57565b503461000e5760c060031936011261000e57610c996103ca565b60443590602435610ca8610c5f565b92804211610da357610d64610d9e916107019560405190610d4c82610d206020820195898b8860609194939273ffffffffffffffffffffffffffffffffffffffff60808301967fe48329057bfd03d55e49b547132e39cffd9c1820ad7b9d4c5307691425d15adf845216602083015260408201520152565b037fffffffffffffffffffffffffffffffffffffffffffffffffffffffffffffffe081018452836110e5565b610d5f60a43593608435935190206122ae565b611f5d565b91610d988373ffffffffffffffffffffffffffffffffffffffff166000526005602052604060002090815491600183019055565b1461182a565b61190e565b606460405162461bcd60e51b815260206004820152601d60248201527f4552433230566f7465733a207369676e617475726520657870697265640000006044820152fd5b503461000e5760e060031936011261000e57610e016103ca565b610e096103ed565b6044359060643592610e19610c6f565b93804211610f0f57610eea610f0a91610d2061070197610ed7610e658773ffffffffffffffffffffffffffffffffffffffff166000526005602052604060002090815491600183019055565b9360405193849160208301968c8c8c8a91959493909260a09360c08401977f6e71edae12b1b97f4d1f60370fef10105fa2faae0126114a169c64845d6126c9855273ffffffffffffffffffffffffffffffffffffffff8092166020860152166040840152606083015260808201520152565b610d5f60c4359360a435935190206122ae565b73ffffffffffffffffffffffffffffffffffffffff80841691161461156d565b6113e2565b606460405162461bcd60e51b815260206004820152601d60248201527f45524332305065726d69743a206578706972656420646561646c696e650000006044820152fd5b503461000e57604060031936011261000e576020610fc2610f726103ca565b73ffffffffffffffffffffffffffffffffffffffff610f8f6103ed565b91166000526001835260406000209073ffffffffffffffffffffffffffffffffffffffff16600052602052604060002090565b54604051908152f35b503461000e57604060031936011261000e57610fe56103ca565b63ffffffff602435818116810361000e57602061105e6110587bffffffffffffffffffffffffffffffffffffffffffffffffffffffff9373ffffffffffffffffffffffffffffffffffffffff6040976000868a51611042816110a0565b82815201521660005260088452866000206115c5565b5061160c565b84519381511684520151166020820152f35b507f4e487b7100000000000000000000000000000000000000000000000000000000600052604160045260246000fd5b6040810190811067ffffffffffffffff8211176110bc57604052565b6110c4611070565b604052565b60c0810190811067ffffffffffffffff8211176110bc57604052565b90601f7fffffffffffffffffffffffffffffffffffffffffffffffffffffffffffffffe0910116810190811067ffffffffffffffff8211176110bc57604052565b507f4e487b7100000000000000000000000000000000000000000000000000000000600052601160045260246000fd5b6001907ffffffffffffffffffffffffffffffffffffffffffffffffffffffffffffffffe8111611184570190565b61118c611126565b0190565b81198111611184570190565b156111a357565b608460405162461bcd60e51b815260206004820152602360248201527f45524332303a207472616e7366657220746f20746865207a65726f206164647260448201527f65737300000000000000000000000000000000000000000000000000000000006064820152fd5b1561121457565b608460405162461bcd60e51b815260206004820152602660248201527f45524332303a207472616e7366657220616d6f756e742065786365656473206260448201527f616c616e636500000000000000000000000000000000000000000000000000006064820152fd5b919073ffffffffffffffffffffffffffffffffffffffff92838116801561137857611376948316906112b182151561119c565b846112dc8473ffffffffffffffffffffffffffffffffffffffff166000526000602052604060002090565b546112e98282101561120d565b036113148473ffffffffffffffffffffffffffffffffffffffff166000526000602052604060002090565b5561133f8473ffffffffffffffffffffffffffffffffffffffff166000526000602052604060002090565b8054860190556040518581527fddf252ad1be2c89b69c2b068fc378daa952ba7f163c4a11628f55a4df523b3ef90602090a36118cd565b565b608460405162461bcd60e51b815260206004820152602560248201527f45524332303a207472616e736665722066726f6d20746865207a65726f20616460448201527f64726573730000000000000000000000000000000000000000000000000000006064820152fd5b9073ffffffffffffffffffffffffffffffffffffffff9182811692831561150457821693841561149a57806114847f8c5be1e5ebec7d5bd14f71427d1e84f3dd0314c0f7b2291e5b200ac8c7c3b9259461145f6114959573ffffffffffffffffffffffffffffffffffffffff166000526001602052604060002090565b9073ffffffffffffffffffffffffffffffffffffffff16600052602052604060002090565b556040519081529081906020820190565b0390a3565b608460405162461bcd60e51b815260206004820152602260248201527f45524332303a20617070726f766520746f20746865207a65726f20616464726560448201527f73730000000000000000000000000000000000000000000000000000000000006064820152fd5b608460405162461bcd60e51b8152602060048201526024808201527f45524332303a20617070726f76652066726f6d20746865207a65726f2061646460448201527f72657373000000000000000000000000000000000000000000000000000000006064820152fd5b1561157457565b606460405162461bcd60e51b815260206004820152601e60248201527f45524332305065726d69743a20696e76616c6964207369676e617475726500006044820152fd5b60405190611376826110a0565b80548210156115dd5760005260206000200190600090565b7f4e487b7100000000000000000000000000000000000000000000000000000000600052603260045260246000fd5b90604051611619816110a0565b602081935463ffffffff81168352811c910152565b73ffffffffffffffffffffffffffffffffffffffff1660005260086020526040600020546000811560001461166557506000919050565b7bffffffffffffffffffffffffffffffffffffffffffffffffffffffff91600019604061169593209101906115c5565b505460201c1690565b156116a557565b606460405162461bcd60e51b815260206004820152601f60248201527f4552433230566f7465733a20626c6f636b206e6f7420796574206d696e6564006044820152fd5b73ffffffffffffffffffffffffffffffffffffffff9061170a43841061169e565b1660005260086020526040600020805491600083600581116117c8575b50905b83821061177a5750508161174057506000919050565b610971611776916000197bffffffffffffffffffffffffffffffffffffffffffffffffffffffff94019060005260206000200190565b1690565b909261178d81851860011c828616611190565b908263ffffffff6117a86109c3858860005260206000200190565b1611156117b85750925b9061172a565b93506117c390611156565b6117b2565b806109fd6117d892969396612358565b908263ffffffff6117f36109c3858860005260206000200190565b1611156118035750925b38611727565b935061180e90611156565b6117fd565b81811061181e570390565b611826611126565b0390565b1561183157565b606460405162461bcd60e51b815260206004820152601960248201527f4552433230566f7465733a20696e76616c6964206e6f6e6365000000000000006044820152fd5b60076020527f6d5257204ebe7d88fd91ae87941cb2dd9d8062b64ae5a2bd2d28ec40b9fbf6df5473ffffffffffffffffffffffffffffffffffffffff91821660009081526040902054611376939290811691166119a3565b90611376929173ffffffffffffffffffffffffffffffffffffffff8091166000526007602052808060406000205416921660005260406000205416906119a3565b6113769173ffffffffffffffffffffffffffffffffffffffff8092166000928184526007602052806040852054168092856020527f3134e8a2e6d97e929a7e54011ea5485d7d196dd5f0ba4d4ef95803e8e3fc257f60408720549660076020526040812094871694857fffffffffffffffffffffffff0000000000000000000000000000000000000000825416179055604051a45b919073ffffffffffffffffffffffffffffffffffffffff80821693168381141580611c14575b6119d4575b50505050565b80611a54575b50826119e7575b806119ce565b7fdec2bacdd2f05b59de34da9b523dff8be42e5e38e818c82fdb0bae774387a72491611a36611a3b9273ffffffffffffffffffffffffffffffffffffffff166000526008602052604060002090565b611e9f565b60408051928352602083019190915290a23880806119e1565b8060005260086020527fdec2bacdd2f05b59de34da9b523dff8be42e5e38e818c82fdb0bae774387a7246040600020805480159182600014611bf157611a986115b8565b6000815260006020820152915b611af2611ad160208501517bffffffffffffffffffffffffffffffffffffffffffffffffffffffff1690565b7bffffffffffffffffffffffffffffffffffffffffffffffffffffffff1690565b92611afd8985611813565b94159081611bda575b5015611b7957611b2e611b6392600019611b1f876124aa565b93019060005260206000200190565b9063ffffffff7fffffffffffffffffffffffffffffffffffffffffffffffffffffffff0000000083549260201b169116179055565b604080519182526020820192909252a2386119da565b50611bd590611b87436125c0565b90611bd0611b94866124aa565b611bab611b9f6115b8565b63ffffffff9095168552565b7bffffffffffffffffffffffffffffffffffffffffffffffffffffffff166020840152565b611cb2565b611b63565b5163ffffffff16905063ffffffff16431438611b06565b611c0e611c0960001984018360005260206000200190565b61160c565b91611aa5565b508215156119c9565b6009549068010000000000000000821015611ca5575b60018201806009558210156115dd576009600052805160209182015190911b7fffffffffffffffffffffffffffffffffffffffffffffffffffffffff000000001663ffffffff91909116177f6e1540171b6c0c960b71a7020d9f60077f6af931a8bbf590da0223dacf75c7af90910155565b611cad611070565b611c33565b8054611cd59168010000000000000000821015611d46575b6001820181556115c5565b611d1757815160209283015190921b7fffffffffffffffffffffffffffffffffffffffffffffffffffffffff000000001663ffffffff92909216919091179055565b7f4e487b7100000000000000000000000000000000000000000000000000000000600052600060045260246000fd5b611d4e611070565b611cca565b60095490918115918215611e6a57611d696115b8565b60008152600060208201525b611dab611da4611ad160208401517bffffffffffffffffffffffffffffffffffffffffffffffffffffffff1690565b9586611190565b93159081611e53575b5015611df95761137690611b2e600019611dcd866124aa565b920160096000527f6e1540171b6c0c960b71a7020d9f60077f6af931a8bbf590da0223dacf75c7af0190565b50611376611e06436125c0565b611e4e611e12856124aa565b611e29611e1d6115b8565b63ffffffff9094168452565b7bffffffffffffffffffffffffffffffffffffffffffffffffffffffff166020830152565b611c1d565b5163ffffffff16905063ffffffff16431438611db4565b6009600052611e9a7f6e1540171b6c0c960b71a7020d9f60077f6af931a8bbf590da0223dacf75c7ae820161160c565b611d75565b909181549182159283600014611f4057611eb76115b8565b60008152600060208201525b611ef9611ef2611ad160208401517bffffffffffffffffffffffffffffffffffffffffffffffffffffffff1690565b9687611190565b94159081611f29575b5015611f1b57611b2e61137692600019611b1f876124aa565b5061137690611b87436125c0565b5163ffffffff16905063ffffffff16431438611f02565b611f58611c0960001983018460005260206000200190565b611ec3565b91611f749391611f6c936120eb565b919091611fb0565b90565b60051115611f8157565b7f4e487b7100000000000000000000000000000000000000000000000000000000600052602160045260246000fd5b611fb981611f77565b80611fc15750565b611fca81611f77565b600181036120175760405162461bcd60e51b815260206004820152601860248201527f45434453413a20696e76616c6964207369676e617475726500000000000000006044820152606490fd5b61202081611f77565b6002810361206d5760405162461bcd60e51b815260206004820152601f60248201527f45434453413a20696e76616c6964207369676e6174757265206c656e677468006044820152606490fd5b80612079600392611f77565b1461208057565b60405162461bcd60e51b815260206004820152602260248201527f45434453413a20696e76616c6964207369676e6174757265202773272076616c60448201527f75650000000000000000000000000000000000000000000000000000000000006064820152608490fd5b9291907f7fffffffffffffffffffffffffffffff5d576e7357a4501ddfe92f46681b20a0831161217b5791608094939160ff602094604051948552168484015260408301526060820152600093849182805260015afa1561216e57815173ffffffffffffffffffffffffffffffffffffffff811615612168579190565b50600190565b50604051903d90823e3d90fd5b50505050600090600390565b73ffffffffffffffffffffffffffffffffffffffff7f000000000000000000000000000000000000000000000000000000000000000016301480612285575b156121ef577f000000000000000000000000000000000000000000000000000000000000000090565b60405160208101907f000000000000000000000000000000000000000000000000000000000000000082527f000000000000000000000000000000000000000000000000000000000000000060408201527f000000000000000000000000000000000000000000000000000000000000000060608201524660808201523060a082015260a0815261227f816110c9565b51902090565b507f000000000000000000000000000000000000000000000000000000000000000046146121c6565b6122b6612187565b906040519060208201927f1901000000000000000000000000000000000000000000000000000000000000845260228301526042820152604281526080810181811067ffffffffffffffff821117612312575b60405251902090565b61231a611070565b612309565b8115612329570490565b7f4e487b7100000000000000000000000000000000000000000000000000000000600052601260045260246000fd5b8015612492578061242b61242461241a6124106124066123fc6123f26123e86001611f749a6000908b60801c80612486575b508060401c80612479575b508060201c8061246c575b508060101c8061245f575b508060081c80612452575b508060041c80612445575b508060021c80612438575b50821c612431575b811c1b6123e1818b61231f565b0160011c90565b6123e1818a61231f565b6123e1818961231f565b6123e1818861231f565b6123e1818761231f565b6123e1818661231f565b6123e1818561231f565b809261231f565b90612498565b81016123d4565b60029150910190386123cc565b60049150910190386123c1565b60089150910190386123b6565b60109150910190386123ab565b60209150910190386123a0565b6040915091019038612395565b9150506080903861238a565b50600090565b90808210156124a5575090565b905090565b7bffffffffffffffffffffffffffffffffffffffffffffffffffffffff908181116124d3571690565b608460405162461bcd60e51b815260206004820152602760248201527f53616665436173743a2076616c756520646f65736e27742066697420696e203260448201527f32342062697473000000000000000000000000000000000000000000000000006064820152fd5b6bffffffffffffffffffffffff90818111612556571690565b608460405162461bcd60e51b815260206004820152602660248201527f53616665436173743a2076616c756520646f65736e27742066697420696e203960448201527f36206269747300000000000000000000000000000000000000000000000000006064820152fd5b63ffffffff908181116125d1571690565b608460405162461bcd60e51b815260206004820152602660248201527f53616665436173743a2076616c756520646f65736e27742066697420696e203360448201527f32206269747300000000000000000000000000000000000000000000000000006064820152fd5b1561264257565b608460405162461bcd60e51b815260206004820152603060248201527f4552433230566f7465733a20746f74616c20737570706c79207269736b73206f60448201527f766572666c6f77696e6720766f746573000000000000000000000000000000006064820152fdfea164736f6c634300080f000a",
    "linkReferences": {}
  },
  "methodIdentifiers": {
    "DOMAIN_SEPARATOR()": "3644e515",
    "allowance(address,address)": "dd62ed3e",
    "approve(address,uint256)": "095ea7b3",
    "balanceOf(address)": "70a08231",
    "checkpoints(address,uint32)": "f1127ed8",
    "decimals()": "313ce567",
    "decreaseAllowance(address,uint256)": "a457c2d7",
    "delegate(address)": "5c19a95c",
    "delegateBySig(address,uint256,uint256,uint8,bytes32,bytes32)": "c3cda520",
    "delegates(address)": "587cde1e",
    "getCurrentVotes(address)": "b4b5ea57",
    "getPastTotalSupply(uint256)": "8e539e8c",
    "getPastVotes(address,uint256)": "3a46b1a8",
    "getPriorVotes(address,uint256)": "782d6fe1",
    "getVotes(address)": "9ab24eb0",
    "increaseAllowance(address,uint256)": "39509351",
    "mint(address,uint256)": "40c10f19",
    "name()": "06fdde03",
    "nonces(address)": "7ecebe00",
    "numCheckpoints(address)": "6fcfff45",
    "permit(address,address,uint256,uint256,uint8,bytes32,bytes32)": "d505accf",
    "symbol()": "95d89b41",
    "totalSupply()": "18160ddd",
    "transfer(address,uint256)": "a9059cbb",
    "transferFrom(address,address,uint256)": "23b872dd"
  },
  "id": 72
}