{
  "abi": [
    {
      "inputs": [],
      "stateMutability": "nonpayable",
      "type": "constructor"
    },
    {
      "anonymous": false,
      "inputs": [
        {
          "indexed": true,
          "internalType": "address",
          "name": "owner",
          "type": "address"
        },
        {
          "indexed": true,
          "internalType": "address",
          "name": "spender",
          "type": "address"
        },
        {
          "indexed": false,
          "internalType": "uint256",
          "name": "value",
          "type": "uint256"
        }
      ],
      "name": "Approval",
      "type": "event"
    },
    {
      "anonymous": false,
      "inputs": [
        {
          "indexed": true,
          "internalType": "address",
          "name": "delegator",
          "type": "address"
        },
        {
          "indexed": true,
          "internalType": "address",
          "name": "fromDelegate",
          "type": "address"
        },
        {
          "indexed": true,
          "internalType": "address",
          "name": "toDelegate",
          "type": "address"
        }
      ],
      "name": "DelegateChanged",
      "type": "event"
    },
    {
      "anonymous": false,
      "inputs": [
        {
          "indexed": true,
          "internalType": "address",
          "name": "delegate",
          "type": "address"
        },
        {
          "indexed": false,
          "internalType": "uint256",
          "name": "previousBalance",
          "type": "uint256"
        },
        {
          "indexed": false,
          "internalType": "uint256",
          "name": "newBalance",
          "type": "uint256"
        }
      ],
      "name": "DelegateVotesChanged",
      "type": "event"
    },
    {
      "anonymous": false,
      "inputs": [
        {
          "indexed": true,
          "internalType": "address",
          "name": "from",
          "type": "address"
        },
        {
          "indexed": true,
          "internalType": "address",
          "name": "to",
          "type": "address"
        },
        {
          "indexed": false,
          "internalType": "uint256",
          "name": "value",
          "type": "uint256"
        }
      ],
      "name": "Transfer",
      "type": "event"
    },
    {
      "inputs": [],
      "name": "DOMAIN_SEPARATOR",
      "outputs": [
        {
          "internalType": "bytes32",
          "name": "",
          "type": "bytes32"
        }
      ],
      "stateMutability": "view",
      "type": "function"
    },
    {
      "inputs": [
        {
          "internalType": "address",
          "name": "owner",
          "type": "address"
        },
        {
          "internalType": "address",
          "name": "spender",
          "type": "address"
        }
      ],
      "name": "allowance",
      "outputs": [
        {
          "internalType": "uint256",
          "name": "",
          "type": "uint256"
        }
      ],
      "stateMutability": "view",
      "type": "function"
    },
    {
      "inputs": [
        {
          "internalType": "address",
          "name": "spender",
          "type": "address"
        },
        {
          "internalType": "uint256",
          "name": "amount",
          "type": "uint256"
        }
      ],
      "name": "approve",
      "outputs": [
        {
          "internalType": "bool",
          "name": "",
          "type": "bool"
        }
      ],
      "stateMutability": "nonpayable",
      "type": "function"
    },
    {
      "inputs": [
        {
          "internalType": "address",
          "name": "account",
          "type": "address"
        }
      ],
      "name": "balanceOf",
      "outputs": [
        {
          "internalType": "uint256",
          "name": "",
          "type": "uint256"
        }
      ],
      "stateMutability": "view",
      "type": "function"
    },
    {
      "inputs": [
        {
          "internalType": "address",
          "name": "from",
          "type": "address"
        },
        {
          "internalType": "uint256",
          "name": "amount",
          "type": "uint256"
        }
      ],
      "name": "burn",
      "outputs": [],
      "stateMutability": "nonpayable",
      "type": "function"
    },
    {
      "inputs": [
        {
          "internalType": "address",
          "name": "account",
          "type": "address"
        },
        {
          "internalType": "uint32",
          "name": "pos",
          "type": "uint32"
        }
      ],
      "name": "checkpoints",
      "outputs": [
        {
          "components": [
            {
              "internalType": "uint32",
              "name": "fromBlock",
              "type": "uint32"
            },
            {
              "internalType": "uint224",
              "name": "votes",
              "type": "uint224"
            }
          ],
          "internalType": "struct ERC20Votes.Checkpoint",
          "name": "",
          "type": "tuple"
        }
      ],
      "stateMutability": "view",
      "type": "function"
    },
    {
      "inputs": [],
      "name": "decimals",
      "outputs": [
        {
          "internalType": "uint8",
          "name": "",
          "type": "uint8"
        }
      ],
      "stateMutability": "view",
      "type": "function"
    },
    {
      "inputs": [
        {
          "internalType": "address",
          "name": "spender",
          "type": "address"
        },
        {
          "internalType": "uint256",
          "name": "subtractedValue",
          "type": "uint256"
        }
      ],
      "name": "decreaseAllowance",
      "outputs": [
        {
          "internalType": "bool",
          "name": "",
          "type": "bool"
        }
      ],
      "stateMutability": "nonpayable",
      "type": "function"
    },
    {
      "inputs": [
        {
          "internalType": "address",
          "name": "delegatee",
          "type": "address"
        }
      ],
      "name": "delegate",
      "outputs": [],
      "stateMutability": "nonpayable",
      "type": "function"
    },
    {
      "inputs": [
        {
          "internalType": "address",
          "name": "delegatee",
          "type": "address"
        },
        {
          "internalType": "uint256",
          "name": "nonce",
          "type": "uint256"
        },
        {
          "internalType": "uint256",
          "name": "expiry",
          "type": "uint256"
        },
        {
          "internalType": "uint8",
          "name": "v",
          "type": "uint8"
        },
        {
          "internalType": "bytes32",
          "name": "r",
          "type": "bytes32"
        },
        {
          "internalType": "bytes32",
          "name": "s",
          "type": "bytes32"
        }
      ],
      "name": "delegateBySig",
      "outputs": [],
      "stateMutability": "nonpayable",
      "type": "function"
    },
    {
      "inputs": [
        {
          "internalType": "address",
          "name": "account",
          "type": "address"
        }
      ],
      "name": "delegates",
      "outputs": [
        {
          "internalType": "address",
          "name": "",
          "type": "address"
        }
      ],
      "stateMutability": "view",
      "type": "function"
    },
    {
      "inputs": [
        {
          "internalType": "address",
          "name": "account",
          "type": "address"
        }
      ],
      "name": "getCurrentVotes",
      "outputs": [
        {
          "internalType": "uint96",
          "name": "",
          "type": "uint96"
        }
      ],
      "stateMutability": "view",
      "type": "function"
    },
    {
      "inputs": [
        {
          "internalType": "uint256",
          "name": "blockNumber",
          "type": "uint256"
        }
      ],
      "name": "getPastTotalSupply",
      "outputs": [
        {
          "internalType": "uint256",
          "name": "",
          "type": "uint256"
        }
      ],
      "stateMutability": "view",
      "type": "function"
    },
    {
      "inputs": [
        {
          "internalType": "address",
          "name": "account",
          "type": "address"
        },
        {
          "internalType": "uint256",
          "name": "blockNumber",
          "type": "uint256"
        }
      ],
      "name": "getPastVotes",
      "outputs": [
        {
          "internalType": "uint256",
          "name": "",
          "type": "uint256"
        }
      ],
      "stateMutability": "view",
      "type": "function"
    },
    {
      "inputs": [
        {
          "internalType": "address",
          "name": "account",
          "type": "address"
        },
        {
          "internalType": "uint256",
          "name": "blockNumber",
          "type": "uint256"
        }
      ],
      "name": "getPriorVotes",
      "outputs": [
        {
          "internalType": "uint96",
          "name": "",
          "type": "uint96"
        }
      ],
      "stateMutability": "view",
      "type": "function"
    },
    {
      "inputs": [
        {
          "internalType": "address",
          "name": "account",
          "type": "address"
        }
      ],
      "name": "getVotes",
      "outputs": [
        {
          "internalType": "uint256",
          "name": "",
          "type": "uint256"
        }
      ],
      "stateMutability": "view",
      "type": "function"
    },
    {
      "inputs": [
        {
          "internalType": "address",
          "name": "spender",
          "type": "address"
        },
        {
          "internalType": "uint256",
          "name": "addedValue",
          "type": "uint256"
        }
      ],
      "name": "increaseAllowance",
      "outputs": [
        {
          "internalType": "bool",
          "name": "",
          "type": "bool"
        }
      ],
      "stateMutability": "nonpayable",
      "type": "function"
    },
    {
      "inputs": [
        {
          "internalType": "address",
          "name": "to",
          "type": "address"
        },
        {
          "internalType": "uint256",
          "name": "amount",
          "type": "uint256"
        }
      ],
      "name": "mint",
      "outputs": [],
      "stateMutability": "nonpayable",
      "type": "function"
    },
    {
      "inputs": [],
      "name": "name",
      "outputs": [
        {
          "internalType": "string",
          "name": "",
          "type": "string"
        }
      ],
      "stateMutability": "view",
      "type": "function"
    },
    {
      "inputs": [
        {
          "internalType": "address",
          "name": "owner",
          "type": "address"
        }
      ],
      "name": "nonces",
      "outputs": [
        {
          "internalType": "uint256",
          "name": "",
          "type": "uint256"
        }
      ],
      "stateMutability": "view",
      "type": "function"
    },
    {
      "inputs": [
        {
          "internalType": "address",
          "name": "account",
          "type": "address"
        }
      ],
      "name": "numCheckpoints",
      "outputs": [
        {
          "internalType": "uint32",
          "name": "",
          "type": "uint32"
        }
      ],
      "stateMutability": "view",
      "type": "function"
    },
    {
      "inputs": [
        {
          "internalType": "address",
          "name": "owner",
          "type": "address"
        },
        {
          "internalType": "address",
          "name": "spender",
          "type": "address"
        },
        {
          "internalType": "uint256",
          "name": "value",
          "type": "uint256"
        },
        {
          "internalType": "uint256",
          "name": "deadline",
          "type": "uint256"
        },
        {
          "internalType": "uint8",
          "name": "v",
          "type": "uint8"
        },
        {
          "internalType": "bytes32",
          "name": "r",
          "type": "bytes32"
        },
        {
          "internalType": "bytes32",
          "name": "s",
          "type": "bytes32"
        }
      ],
      "name": "permit",
      "outputs": [],
      "stateMutability": "nonpayable",
      "type": "function"
    },
    {
      "inputs": [],
      "name": "symbol",
      "outputs": [
        {
          "internalType": "string",
          "name": "",
          "type": "string"
        }
      ],
      "stateMutability": "view",
      "type": "function"
    },
    {
      "inputs": [],
      "name": "totalSupply",
      "outputs": [
        {
          "internalType": "uint256",
          "name": "",
          "type": "uint256"
        }
      ],
      "stateMutability": "view",
      "type": "function"
    },
    {
      "inputs": [
        {
          "internalType": "address",
          "name": "to",
          "type": "address"
        },
        {
          "internalType": "uint256",
          "name": "amount",
          "type": "uint256"
        }
      ],
      "name": "transfer",
      "outputs": [
        {
          "internalType": "bool",
          "name": "",
          "type": "bool"
        }
      ],
      "stateMutability": "nonpayable",
      "type": "function"
    },
    {
      "inputs": [
        {
          "internalType": "address",
          "name": "from",
          "type": "address"
        },
        {
          "internalType": "address",
          "name": "to",
          "type": "address"
        },
        {
          "internalType": "uint256",
          "name": "amount",
          "type": "uint256"
        }
      ],
      "name": "transferFrom",
      "outputs": [
        {
          "internalType": "bool",
          "name": "",
          "type": "bool"
        }
      ],
      "stateMutability": "nonpayable",
      "type": "function"
    }
  ],
  "bytecode": {
    "object": "0x610140604081815234620003f8576200001882620003fd565b600491828152602091828201926315195cdd60e21b938481528251946200003f86620003fd565b868652828601528251906200005482620003fd565b86825263151154d560e21b838301528351946200007186620003fd565b6001808752603160f81b85880190815288516001600160401b03999195918a8211620003e3576003918254918583811c93168015620003d8575b8a841014620002da578190601f9384811162000382575b508a908483116001146200031b576000926200030f575b505060001982851b1c191690851b1782555b8251928b8411620002fa578c548581811c91168015620002ef575b8a821014620002da578281116200028f575b5088918411600114620002245793839491849260009562000218575b50501b92600019911b1c19161788555b51902093519020918360e052610100958387524660a0528151928301937f8b73c3c69bb8fe3d512ecc4cf759cc79239f7b179b0ffacaa9a75d522b39400f958686528385015260608401524660808401523060a084015260a0835260c0830195838710908711176200020357508490525190206080523060c05261012090815261288b92836200043084396080518361230d015260a051836123c8015260c051836122de015260e0518361235c01525182612382015251816123390152f35b604190634e487b7160e01b6000525260246000fd5b01519350388062000134565b9190601f198416928d600052848a6000209460005b8c898383106200027757505050106200025c575b50505050811b01885562000144565b01519060f884600019921b161c19169055388080806200024d565b86860151895590970196948501948893500162000239565b8d600052896000208380870160051c8201928c8810620002d0575b0160051c019086905b828110620002c357505062000118565b60008155018690620002b3565b92508192620002aa565b60228e634e487b7160e01b6000525260246000fd5b90607f169062000106565b60418d634e487b7160e01b6000525260246000fd5b015190503880620000d9565b60008681528c8120899550929190601f198516908e5b8282106200036a575050841162000351575b505050811b018255620000eb565b015160001983871b60f8161c1916905538808062000343565b8385015186558b979095019493840193018e62000331565b909150846000528a6000208480850160051c8201928d8610620003ce575b918991869594930160051c01915b828110620003be575050620000c2565b60008155859450899101620003ae565b92508192620003a0565b92607f1692620000ab565b60418c634e487b7160e01b6000525260246000fd5b600080fd5b604081019081106001600160401b038211176200041957604052565b634e487b7160e01b600052604160045260246000fdfe6080604052600436101561001257600080fd5b60003560e01c806306fdde03146101b7578063095ea7b3146101b257806318160ddd146101ad57806323b872dd146101a8578063313ce567146101a35780633644e5151461019e57806339509351146101995780633a46b1a81461019457806340c10f191461018f578063587cde1e1461018a5780635c19a95c146101855780636fcfff451461018057806370a082311461017b578063782d6fe1146101765780637ecebe00146101715780638e539e8c1461016c57806395d89b41146101675780639ab24eb0146101625780639dc29fac1461015d578063a457c2d714610158578063a9059cbb14610153578063b4b5ea571461014e578063c3cda52014610149578063d505accf14610144578063dd62ed3e1461013f5763f1127ed81461013a57600080fd5b6110a9565b611032565b610ec7565b610d60565b610d1f565b610cf9565b610c26565b610ad0565b610aad565b6109ea565b61086e565b610827565b6107eb565b6107a4565b61074f565b61072d565b6106e5565b6105c5565b61059e565b610532565b61050f565b6104f3565b6103ff565b6103e1565b6103b0565b610222565b60208082528251818301819052939260005b85811061020e575050507fffffffffffffffffffffffffffffffffffffffffffffffffffffffffffffffe0601f8460006040809697860101520116010190565b8181018301518482016040015282016101ce565b34610365576000806003193601126103625760405190806003549060019180831c92808216928315610358575b602092838610851461032b5785885260208801949081156102ec5750600114610293575b61028f87610283818903826111b9565b604051918291826101bc565b0390f35b600360005294509192917fc2575a0e9e593c00f959f8c92f12db2869c3395a3b0502d05e2516446f71f85b5b8386106102db57505050910190506102838261028f3880610273565b8054858701529482019481016102bf565b7fffffffffffffffffffffffffffffffffffffffffffffffffffffffffffffff001685525050505090151560051b0190506102838261028f3880610273565b6024827f4e487b710000000000000000000000000000000000000000000000000000000081526022600452fd5b93607f169361024f565b80fd5b600080fd5b6004359073ffffffffffffffffffffffffffffffffffffffff8216820361036557565b6024359073ffffffffffffffffffffffffffffffffffffffff8216820361036557565b34610365576040600319360112610365576103d66103cc61036a565b602435903361148a565b602060405160018152f35b34610365576000600319360112610365576020600254604051908152f35b346103655760606003193601126103655761041861036a565b61042061038d565b6044359073ffffffffffffffffffffffffffffffffffffffff831660005260016020526104713360406000209073ffffffffffffffffffffffffffffffffffffffff16600052602052604060002090565b54926000198403610493575b6104879350611326565b60405160018152602090f35b8284106104af576104aa836104879503338361148a565b61047d565b606460405162461bcd60e51b815260206004820152601d60248201527f45524332303a20696e73756666696369656e7420616c6c6f77616e63650000006044820152fd5b3461036557600060031936011261036557602060405160128152f35b3461036557600060031936011261036557602061052a6122c7565b604051908152f35b346103655760406003193601126103655761054b61036a565b3360005260016020526105828160406000209073ffffffffffffffffffffffffffffffffffffffff16600052602052604060002090565b546024358101809111610599576103d6913361148a565b6111fa565b3461036557604060031936011261036557602061052a6105bc61036a565b6024359061178c565b34610365576040600319360112610365576105de61036a565b60243573ffffffffffffffffffffffffffffffffffffffff82169182156106a157816106809161069f9461061c61061784600254611237565b600255565b6106468273ffffffffffffffffffffffffffffffffffffffff166000526000602052604060002090565b8054840190556040518381526000907fddf252ad1be2c89b69c2b068fc378daa952ba7f163c4a11628f55a4df523b3ef90602090a3611907565b61069a6bffffffffffffffffffffffff6002541115612782565b611e06565b005b606460405162461bcd60e51b815260206004820152601f60248201527f45524332303a206d696e7420746f20746865207a65726f2061646472657373006044820152fd5b3461036557602060031936011261036557602073ffffffffffffffffffffffffffffffffffffffff8061071661036a565b166000526007825260406000205416604051908152f35b346103655760206003193601126103655761069f61074961036a565b336119df565b346103655760206003193601126103655773ffffffffffffffffffffffffffffffffffffffff61077d61036a565b1660005260086020526020610796604060002054612707565b63ffffffff60405191168152f35b346103655760206003193601126103655773ffffffffffffffffffffffffffffffffffffffff6107d261036a565b1660005260006020526020604060002054604051908152f35b3461036557604060031936011261036557602061081161080c6105bc61036a565b612684565b6bffffffffffffffffffffffff60405191168152f35b346103655760206003193601126103655773ffffffffffffffffffffffffffffffffffffffff61085561036a565b1660005260056020526020604060002054604051908152f35b346103655760206003193601126103655760043561088d438210611741565b600954906000826005811161097d575b50905b8282106109145782806108d95750602060005b7bffffffffffffffffffffffffffffffffffffffffffffffffffffffff60405191168152f35b600960005260209061090f907f6e1540171b6c0c960b71a7020d9f60077f6af931a8bbf590da0223dacf75c7ae015b5460201c90565b6108b3565b9091610920818461248a565b6009600052908263ffffffff61095d7f6e1540171b6c0c960b71a7020d9f60077f6af931a8bbf590da0223dacf75c7af85015b5463ffffffff1690565b16111561096d5750915b906108a0565b925061097890611229565b610967565b8061098d6109939295939561249f565b906118af565b6009600052908263ffffffff6109ca7f6e1540171b6c0c960b71a7020d9f60077f6af931a8bbf590da0223dacf75c7af8501610953565b1611156109da5750915b3861089d565b92506109e590611229565b6109d4565b34610365576000806003193601126103625760405190806004549060019180831c92808216928315610aa3575b602092838610851461032b5785885260208801949081156102ec5750600114610a4a5761028f87610283818903826111b9565b600460005294509192917f8a35acfbc15ff81a39ae7d344fd709f28e8600b4aa8c65c6b64bfe7fe36bd19b5b838610610a9257505050910190506102838261028f3880610273565b805485870152948201948101610a76565b93607f1693610a17565b3461036557602060031936011261036557602061052a610acb61036a565b6116d6565b3461036557604060031936011261036557610ae961036a565b60243573ffffffffffffffffffffffffffffffffffffffff8216918215610bbc578181600061069f9583610b40610bb79673ffffffffffffffffffffffffffffffffffffffff166000526000602052604060002090565b54610b4d828210156127f3565b03610b788473ffffffffffffffffffffffffffffffffffffffff166000526000602052604060002090565b55610b868460025403600255565b6040518481527fddf252ad1be2c89b69c2b068fc378daa952ba7f163c4a11628f55a4df523b3ef90602090a361195f565b611f52565b608460405162461bcd60e51b815260206004820152602160248201527f45524332303a206275726e2066726f6d20746865207a65726f2061646472657360448201527f73000000000000000000000000000000000000000000000000000000000000006064820152fd5b3461036557604060031936011261036557610c3f61036a565b60243590336000526001602052610c7a8160406000209073ffffffffffffffffffffffffffffffffffffffff16600052602052604060002090565b5491808310610c8f576104879203903361148a565b608460405162461bcd60e51b815260206004820152602560248201527f45524332303a2064656372656173656420616c6c6f77616e63652062656c6f7760448201527f207a65726f0000000000000000000000000000000000000000000000000000006064820152fd5b34610365576040600319360112610365576103d6610d1561036a565b6024359033611326565b3461036557602060031936011261036557602061081161080c610acb61036a565b6064359060ff8216820361036557565b6084359060ff8216820361036557565b346103655760c060031936011261036557610d7961036a565b60443590602435610d88610d40565b92804211610e8357610e44610e7e9161069f9560405190610e2c82610e006020820195898b8860609194939273ffffffffffffffffffffffffffffffffffffffff60808301967fe48329057bfd03d55e49b547132e39cffd9c1820ad7b9d4c5307691425d15adf845216602083015260408201520152565b037fffffffffffffffffffffffffffffffffffffffffffffffffffffffffffffffe081018452836111b9565b610e3f60a43593608435935190206123ee565b61209d565b91610e788373ffffffffffffffffffffffffffffffffffffffff166000526005602052604060002090815491600183019055565b146118bc565b6119df565b606460405162461bcd60e51b815260206004820152601d60248201527f4552433230566f7465733a207369676e617475726520657870697265640000006044820152fd5b346103655760e060031936011261036557610ee061036a565b610ee861038d565b6044359060643592610ef8610d50565b93804211610fee57610fc9610fe991610e0061069f97610fb6610f448773ffffffffffffffffffffffffffffffffffffffff166000526005602052604060002090815491600183019055565b9360405193849160208301968c8c8c8a91959493909260a09360c08401977f6e71edae12b1b97f4d1f60370fef10105fa2faae0126114a169c64845d6126c9855273ffffffffffffffffffffffffffffffffffffffff8092166020860152166040840152606083015260808201520152565b610e3f60c4359360a435935190206123ee565b73ffffffffffffffffffffffffffffffffffffffff808416911614611615565b61148a565b606460405162461bcd60e51b815260206004820152601d60248201527f45524332305065726d69743a206578706972656420646561646c696e650000006044820152fd5b346103655760406003193601126103655760206110a061105061036a565b73ffffffffffffffffffffffffffffffffffffffff61106d61038d565b91166000526001835260406000209073ffffffffffffffffffffffffffffffffffffffff16600052602052604060002090565b54604051908152f35b34610365576040600319360112610365576110c261036a565b63ffffffff602435818116810361036557602061113b6111357bffffffffffffffffffffffffffffffffffffffffffffffffffffffff9373ffffffffffffffffffffffffffffffffffffffff6040976000868a5161111f8161117c565b828152015216600052600884528660002061166d565b506116b4565b84519381511684520151166020820152f35b7f4e487b7100000000000000000000000000000000000000000000000000000000600052604160045260246000fd5b6040810190811067ffffffffffffffff82111761119857604052565b61114d565b60c0810190811067ffffffffffffffff82111761119857604052565b90601f7fffffffffffffffffffffffffffffffffffffffffffffffffffffffffffffffe0910116810190811067ffffffffffffffff82111761119857604052565b7f4e487b7100000000000000000000000000000000000000000000000000000000600052601160045260246000fd5b906001820180921161059957565b9190820180921161059957565b1561124b57565b608460405162461bcd60e51b815260206004820152602360248201527f45524332303a207472616e7366657220746f20746865207a65726f206164647260448201527f65737300000000000000000000000000000000000000000000000000000000006064820152fd5b156112bc57565b608460405162461bcd60e51b815260206004820152602660248201527f45524332303a207472616e7366657220616d6f756e742065786365656473206260448201527f616c616e636500000000000000000000000000000000000000000000000000006064820152fd5b919073ffffffffffffffffffffffffffffffffffffffff9283811680156114205761141e94831690611359821515611244565b846113848473ffffffffffffffffffffffffffffffffffffffff166000526000602052604060002090565b54611391828210156112b5565b036113bc8473ffffffffffffffffffffffffffffffffffffffff166000526000602052604060002090565b556113e78473ffffffffffffffffffffffffffffffffffffffff166000526000602052604060002090565b8054860190556040518581527fddf252ad1be2c89b69c2b068fc378daa952ba7f163c4a11628f55a4df523b3ef90602090a361199e565b565b608460405162461bcd60e51b815260206004820152602560248201527f45524332303a207472616e736665722066726f6d20746865207a65726f20616460448201527f64726573730000000000000000000000000000000000000000000000000000006064820152fd5b9073ffffffffffffffffffffffffffffffffffffffff918281169283156115ac578216938415611542578061152c7f8c5be1e5ebec7d5bd14f71427d1e84f3dd0314c0f7b2291e5b200ac8c7c3b9259461150761153d9573ffffffffffffffffffffffffffffffffffffffff166000526001602052604060002090565b9073ffffffffffffffffffffffffffffffffffffffff16600052602052604060002090565b556040519081529081906020820190565b0390a3565b608460405162461bcd60e51b815260206004820152602260248201527f45524332303a20617070726f766520746f20746865207a65726f20616464726560448201527f73730000000000000000000000000000000000000000000000000000000000006064820152fd5b608460405162461bcd60e51b8152602060048201526024808201527f45524332303a20617070726f76652066726f6d20746865207a65726f2061646460448201527f72657373000000000000000000000000000000000000000000000000000000006064820152fd5b1561161c57565b606460405162461bcd60e51b815260206004820152601e60248201527f45524332305065726d69743a20696e76616c6964207369676e617475726500006044820152fd5b6040519061141e8261117c565b80548210156116855760005260206000200190600090565b7f4e487b7100000000000000000000000000000000000000000000000000000000600052603260045260246000fd5b906040516116c18161117c565b602081935463ffffffff81168352811c910152565b73ffffffffffffffffffffffffffffffffffffffff16600052600860205260406000208054801560001461170c57506000919050565b7bffffffffffffffffffffffffffffffffffffffffffffffffffffffff9160001961173892019061166d565b505460201c1690565b1561174857565b606460405162461bcd60e51b815260206004820152601f60248201527f4552433230566f7465733a20626c6f636b206e6f7420796574206d696e6564006044820152fd5b73ffffffffffffffffffffffffffffffffffffffff906117ad438410611741565b166000526008602052604060002080549160008360058111611864575b50905b83821061181d575050816117e357506000919050565b610908611819916000197bffffffffffffffffffffffffffffffffffffffffffffffffffffffff94019060005260206000200190565b1690565b9092611829818561248a565b908263ffffffff611844610953858860005260206000200190565b1611156118545750925b906117cd565b935061185f90611229565b61184e565b8061098d6118749296939661249f565b908263ffffffff61188f610953858860005260206000200190565b16111561189f5750925b386117ca565b93506118aa90611229565b611899565b9190820391821161059957565b156118c357565b606460405162461bcd60e51b815260206004820152601960248201527f4552433230566f7465733a20696e76616c6964206e6f6e6365000000000000006044820152fd5b60076020527f6d5257204ebe7d88fd91ae87941cb2dd9d8062b64ae5a2bd2d28ec40b9fbf6df5473ffffffffffffffffffffffffffffffffffffffff9182166000908152604090205461141e93929081169116611a72565b9061141e9173ffffffffffffffffffffffffffffffffffffffff8091166000526007602052806040600020541690600080526040600020541690611a72565b9061141e929173ffffffffffffffffffffffffffffffffffffffff809116600052600760205280806040600020541692166000526040600020541690611a72565b61141e9173ffffffffffffffffffffffffffffffffffffffff8092166000928184526007602052806040852054168092856020527f3134e8a2e6d97e929a7e54011ea5485d7d196dd5f0ba4d4ef95803e8e3fc257f60408720549660076020526040812094871694857fffffffffffffffffffffffff000000000000000000000000000000000000000082541617905580a45b919073ffffffffffffffffffffffffffffffffffffffff80821693168381141580611ce3575b611aa3575b50505050565b80611b23575b5082611ab6575b80611a9d565b7fdec2bacdd2f05b59de34da9b523dff8be42e5e38e818c82fdb0bae774387a72491611b05611b0a9273ffffffffffffffffffffffffffffffffffffffff166000526008602052604060002090565b611fdf565b60408051928352602083019190915290a2388080611ab0565b8060005260086020527fdec2bacdd2f05b59de34da9b523dff8be42e5e38e818c82fdb0bae774387a7246040600020805480159182600014611cc057611b67611660565b6000815260006020820152915b611bc1611ba060208501517bffffffffffffffffffffffffffffffffffffffffffffffffffffffff1690565b7bffffffffffffffffffffffffffffffffffffffffffffffffffffffff1690565b92611bcc8985612864565b94159081611ca9575b5015611c4857611bfd611c3292600019611bee876125f1565b93019060005260206000200190565b9063ffffffff7fffffffffffffffffffffffffffffffffffffffffffffffffffffffff0000000083549260201b169116179055565b604080519182526020820192909252a238611aa9565b50611ca490611c5643612707565b90611c9f611c63866125f1565b611c7a611c6e611660565b63ffffffff9095168552565b7bffffffffffffffffffffffffffffffffffffffffffffffffffffffff166020840152565b611d73565b611c32565b5163ffffffff16905063ffffffff16431438611bd5565b611cdd611cd860001984018360005260206000200190565b6116b4565b91611b74565b50821515611a98565b6009549068010000000000000000821015611198576001820180600955821015611685576009600052805160209182015190911b7fffffffffffffffffffffffffffffffffffffffffffffffffffffffff000000001663ffffffff91909116177f6e1540171b6c0c960b71a7020d9f60077f6af931a8bbf590da0223dacf75c7af90910155565b80546801000000000000000081101561119857611d959160018201815561166d565b611dd757815160209283015190921b7fffffffffffffffffffffffffffffffffffffffffffffffffffffffff000000001663ffffffff92909216919091179055565b7f4e487b7100000000000000000000000000000000000000000000000000000000600052600060045260246000fd5b60095490918115918215611f1d57611e1c611660565b60008152600060208201525b611e5e611e57611ba060208401517bffffffffffffffffffffffffffffffffffffffffffffffffffffffff1690565b9586612871565b93159081611f06575b5015611eac5761141e90611bfd600019611e80866125f1565b920160096000527f6e1540171b6c0c960b71a7020d9f60077f6af931a8bbf590da0223dacf75c7af0190565b5061141e611eb943612707565b611f01611ec5856125f1565b611edc611ed0611660565b63ffffffff9094168452565b7bffffffffffffffffffffffffffffffffffffffffffffffffffffffff166020830152565b611cec565b5163ffffffff16905063ffffffff16431438611e67565b6009600052611f4d7f6e1540171b6c0c960b71a7020d9f60077f6af931a8bbf590da0223dacf75c7ae82016116b4565b611e28565b60095490918115918215611faa57611f68611660565b60008152600060208201525b611e5e611fa3611ba060208401517bffffffffffffffffffffffffffffffffffffffffffffffffffffffff1690565b9586612864565b6009600052611fda7f6e1540171b6c0c960b71a7020d9f60077f6af931a8bbf590da0223dacf75c7ae82016116b4565b611f74565b90918154918215928360001461208057611ff7611660565b60008152600060208201525b612039612032611ba060208401517bffffffffffffffffffffffffffffffffffffffffffffffffffffffff1690565b9687612871565b94159081612069575b501561205b57611bfd61141e92600019611bee876125f1565b5061141e90611c5643612707565b5163ffffffff16905063ffffffff16431438612042565b612098611cd860001983018460005260206000200190565b612003565b916120b493916120ac9361222b565b9190916120f0565b90565b600511156120c157565b7f4e487b7100000000000000000000000000000000000000000000000000000000600052602160045260246000fd5b6120f9816120b7565b806121015750565b61210a816120b7565b600181036121575760405162461bcd60e51b815260206004820152601860248201527f45434453413a20696e76616c6964207369676e617475726500000000000000006044820152606490fd5b612160816120b7565b600281036121ad5760405162461bcd60e51b815260206004820152601f60248201527f45434453413a20696e76616c6964207369676e6174757265206c656e677468006044820152606490fd5b806121b96003926120b7565b146121c057565b60405162461bcd60e51b815260206004820152602260248201527f45434453413a20696e76616c6964207369676e6174757265202773272076616c60448201527f75650000000000000000000000000000000000000000000000000000000000006064820152608490fd5b9291907f7fffffffffffffffffffffffffffffff5d576e7357a4501ddfe92f46681b20a083116122bb5791608094939160ff602094604051948552168484015260408301526060820152600093849182805260015afa156122ae57815173ffffffffffffffffffffffffffffffffffffffff8116156122a8579190565b50600190565b50604051903d90823e3d90fd5b50505050600090600390565b73ffffffffffffffffffffffffffffffffffffffff7f0000000000000000000000000000000000000000000000000000000000000000163014806123c5575b1561232f577f000000000000000000000000000000000000000000000000000000000000000090565b60405160208101907f000000000000000000000000000000000000000000000000000000000000000082527f000000000000000000000000000000000000000000000000000000000000000060408201527f000000000000000000000000000000000000000000000000000000000000000060608201524660808201523060a082015260a081526123bf8161119d565b51902090565b507f00000000000000000000000000000000000000000000000000000000000000004614612306565b6123f66122c7565b906040519060208201927f1901000000000000000000000000000000000000000000000000000000000000845260228301526042820152604281526080810181811067ffffffffffffffff8211176111985760405251902090565b811561245b570490565b7f4e487b7100000000000000000000000000000000000000000000000000000000600052601260045260246000fd5b90808216911860011c81018091116105995790565b80156125d9578061257261256b61256161255761254d61254361253961252f60016120b49a6000908b60801c806125cd575b508060401c806125c0575b508060201c806125b3575b508060101c806125a6575b508060081c80612599575b508060041c8061258c575b508060021c8061257f575b50821c612578575b811c1b612528818b612451565b0160011c90565b612528818a612451565b6125288189612451565b6125288188612451565b6125288187612451565b6125288186612451565b6125288185612451565b8092612451565b906125df565b810161251b565b6002915091019038612513565b6004915091019038612508565b60089150910190386124fd565b60109150910190386124f2565b60209150910190386124e7565b60409150910190386124dc565b915050608090386124d1565b50600090565b90808210156125ec575090565b905090565b7bffffffffffffffffffffffffffffffffffffffffffffffffffffffff9081811161261a571690565b608460405162461bcd60e51b815260206004820152602760248201527f53616665436173743a2076616c756520646f65736e27742066697420696e203260448201527f32342062697473000000000000000000000000000000000000000000000000006064820152fd5b6bffffffffffffffffffffffff9081811161269d571690565b608460405162461bcd60e51b815260206004820152602660248201527f53616665436173743a2076616c756520646f65736e27742066697420696e203960448201527f36206269747300000000000000000000000000000000000000000000000000006064820152fd5b63ffffffff90818111612718571690565b608460405162461bcd60e51b815260206004820152602660248201527f53616665436173743a2076616c756520646f65736e27742066697420696e203360448201527f32206269747300000000000000000000000000000000000000000000000000006064820152fd5b1561278957565b608460405162461bcd60e51b815260206004820152603060248201527f4552433230566f7465733a20746f74616c20737570706c79207269736b73206f60448201527f766572666c6f77696e6720766f746573000000000000000000000000000000006064820152fd5b156127fa57565b608460405162461bcd60e51b815260206004820152602260248201527f45524332303a206275726e20616d6f756e7420657863656564732062616c616e60448201527f63650000000000000000000000000000000000000000000000000000000000006064820152fd5b9081039081116105995790565b908101809111610599579056fea164736f6c6343000812000a",
    "linkReferences": {}
  },
  "methodIdentifiers": {
    "DOMAIN_SEPARATOR()": "3644e515",
    "allowance(address,address)": "dd62ed3e",
    "approve(address,uint256)": "095ea7b3",
    "balanceOf(address)": "70a08231",
    "burn(address,uint256)": "9dc29fac",
    "checkpoints(address,uint32)": "f1127ed8",
    "decimals()": "313ce567",
    "decreaseAllowance(address,uint256)": "a457c2d7",
    "delegate(address)": "5c19a95c",
    "delegateBySig(address,uint256,uint256,uint8,bytes32,bytes32)": "c3cda520",
    "delegates(address)": "587cde1e",
    "getCurrentVotes(address)": "b4b5ea57",
    "getPastTotalSupply(uint256)": "8e539e8c",
    "getPastVotes(address,uint256)": "3a46b1a8",
    "getPriorVotes(address,uint256)": "782d6fe1",
    "getVotes(address)": "9ab24eb0",
    "increaseAllowance(address,uint256)": "39509351",
    "mint(address,uint256)": "40c10f19",
    "name()": "06fdde03",
    "nonces(address)": "7ecebe00",
    "numCheckpoints(address)": "6fcfff45",
    "permit(address,address,uint256,uint256,uint8,bytes32,bytes32)": "d505accf",
    "symbol()": "95d89b41",
    "totalSupply()": "18160ddd",
    "transfer(address,uint256)": "a9059cbb",
    "transferFrom(address,address,uint256)": "23b872dd"
  },
  "id": 114
}