{
  "abi": [
    {
      "inputs": [],
      "stateMutability": "nonpayable",
      "type": "constructor"
    },
    {
      "anonymous": false,
      "inputs": [
        {
          "indexed": true,
          "internalType": "address",
          "name": "owner",
          "type": "address"
        },
        {
          "indexed": true,
          "internalType": "address",
          "name": "spender",
          "type": "address"
        },
        {
          "indexed": false,
          "internalType": "uint256",
          "name": "value",
          "type": "uint256"
        }
      ],
      "name": "Approval",
      "type": "event"
    },
    {
      "anonymous": false,
      "inputs": [
        {
          "indexed": true,
          "internalType": "address",
          "name": "delegator",
          "type": "address"
        },
        {
          "indexed": true,
          "internalType": "address",
          "name": "fromDelegate",
          "type": "address"
        },
        {
          "indexed": true,
          "internalType": "address",
          "name": "toDelegate",
          "type": "address"
        }
      ],
      "name": "DelegateChanged",
      "type": "event"
    },
    {
      "anonymous": false,
      "inputs": [
        {
          "indexed": true,
          "internalType": "address",
          "name": "delegate",
          "type": "address"
        },
        {
          "indexed": false,
          "internalType": "uint256",
          "name": "previousBalance",
          "type": "uint256"
        },
        {
          "indexed": false,
          "internalType": "uint256",
          "name": "newBalance",
          "type": "uint256"
        }
      ],
      "name": "DelegateVotesChanged",
      "type": "event"
    },
    {
      "anonymous": false,
      "inputs": [
        {
          "indexed": true,
          "internalType": "address",
          "name": "from",
          "type": "address"
        },
        {
          "indexed": true,
          "internalType": "address",
          "name": "to",
          "type": "address"
        },
        {
          "indexed": false,
          "internalType": "uint256",
          "name": "value",
          "type": "uint256"
        }
      ],
      "name": "Transfer",
      "type": "event"
    },
    {
      "inputs": [],
      "name": "DOMAIN_SEPARATOR",
      "outputs": [
        {
          "internalType": "bytes32",
          "name": "",
          "type": "bytes32"
        }
      ],
      "stateMutability": "view",
      "type": "function"
    },
    {
      "inputs": [
        {
          "internalType": "address",
          "name": "owner",
          "type": "address"
        },
        {
          "internalType": "address",
          "name": "spender",
          "type": "address"
        }
      ],
      "name": "allowance",
      "outputs": [
        {
          "internalType": "uint256",
          "name": "",
          "type": "uint256"
        }
      ],
      "stateMutability": "view",
      "type": "function"
    },
    {
      "inputs": [
        {
          "internalType": "address",
          "name": "spender",
          "type": "address"
        },
        {
          "internalType": "uint256",
          "name": "amount",
          "type": "uint256"
        }
      ],
      "name": "approve",
      "outputs": [
        {
          "internalType": "bool",
          "name": "",
          "type": "bool"
        }
      ],
      "stateMutability": "nonpayable",
      "type": "function"
    },
    {
      "inputs": [
        {
          "internalType": "address",
          "name": "account",
          "type": "address"
        }
      ],
      "name": "balanceOf",
      "outputs": [
        {
          "internalType": "uint256",
          "name": "",
          "type": "uint256"
        }
      ],
      "stateMutability": "view",
      "type": "function"
    },
    {
      "inputs": [
        {
          "internalType": "address",
          "name": "account",
          "type": "address"
        },
        {
          "internalType": "uint32",
          "name": "pos",
          "type": "uint32"
        }
      ],
      "name": "checkpoints",
      "outputs": [
        {
          "components": [
            {
              "internalType": "uint32",
              "name": "fromBlock",
              "type": "uint32"
            },
            {
              "internalType": "uint224",
              "name": "votes",
              "type": "uint224"
            }
          ],
          "internalType": "struct ERC20Votes.Checkpoint",
          "name": "",
          "type": "tuple"
        }
      ],
      "stateMutability": "view",
      "type": "function"
    },
    {
      "inputs": [],
      "name": "decimals",
      "outputs": [
        {
          "internalType": "uint8",
          "name": "",
          "type": "uint8"
        }
      ],
      "stateMutability": "view",
      "type": "function"
    },
    {
      "inputs": [
        {
          "internalType": "address",
          "name": "spender",
          "type": "address"
        },
        {
          "internalType": "uint256",
          "name": "subtractedValue",
          "type": "uint256"
        }
      ],
      "name": "decreaseAllowance",
      "outputs": [
        {
          "internalType": "bool",
          "name": "",
          "type": "bool"
        }
      ],
      "stateMutability": "nonpayable",
      "type": "function"
    },
    {
      "inputs": [
        {
          "internalType": "address",
          "name": "delegatee",
          "type": "address"
        }
      ],
      "name": "delegate",
      "outputs": [],
      "stateMutability": "nonpayable",
      "type": "function"
    },
    {
      "inputs": [
        {
          "internalType": "address",
          "name": "delegatee",
          "type": "address"
        },
        {
          "internalType": "uint256",
          "name": "nonce",
          "type": "uint256"
        },
        {
          "internalType": "uint256",
          "name": "expiry",
          "type": "uint256"
        },
        {
          "internalType": "uint8",
          "name": "v",
          "type": "uint8"
        },
        {
          "internalType": "bytes32",
          "name": "r",
          "type": "bytes32"
        },
        {
          "internalType": "bytes32",
          "name": "s",
          "type": "bytes32"
        }
      ],
      "name": "delegateBySig",
      "outputs": [],
      "stateMutability": "nonpayable",
      "type": "function"
    },
    {
      "inputs": [
        {
          "internalType": "address",
          "name": "account",
          "type": "address"
        }
      ],
      "name": "delegates",
      "outputs": [
        {
          "internalType": "address",
          "name": "",
          "type": "address"
        }
      ],
      "stateMutability": "view",
      "type": "function"
    },
    {
      "inputs": [
        {
          "internalType": "address",
          "name": "account",
          "type": "address"
        }
      ],
      "name": "getCurrentVotes",
      "outputs": [
        {
          "internalType": "uint96",
          "name": "",
          "type": "uint96"
        }
      ],
      "stateMutability": "view",
      "type": "function"
    },
    {
      "inputs": [
        {
          "internalType": "uint256",
          "name": "blockNumber",
          "type": "uint256"
        }
      ],
      "name": "getPastTotalSupply",
      "outputs": [
        {
          "internalType": "uint256",
          "name": "",
          "type": "uint256"
        }
      ],
      "stateMutability": "view",
      "type": "function"
    },
    {
      "inputs": [
        {
          "internalType": "address",
          "name": "account",
          "type": "address"
        },
        {
          "internalType": "uint256",
          "name": "blockNumber",
          "type": "uint256"
        }
      ],
      "name": "getPastVotes",
      "outputs": [
        {
          "internalType": "uint256",
          "name": "",
          "type": "uint256"
        }
      ],
      "stateMutability": "view",
      "type": "function"
    },
    {
      "inputs": [
        {
          "internalType": "address",
          "name": "account",
          "type": "address"
        },
        {
          "internalType": "uint256",
          "name": "blockNumber",
          "type": "uint256"
        }
      ],
      "name": "getPriorVotes",
      "outputs": [
        {
          "internalType": "uint96",
          "name": "",
          "type": "uint96"
        }
      ],
      "stateMutability": "view",
      "type": "function"
    },
    {
      "inputs": [
        {
          "internalType": "address",
          "name": "account",
          "type": "address"
        }
      ],
      "name": "getVotes",
      "outputs": [
        {
          "internalType": "uint256",
          "name": "",
          "type": "uint256"
        }
      ],
      "stateMutability": "view",
      "type": "function"
    },
    {
      "inputs": [
        {
          "internalType": "address",
          "name": "spender",
          "type": "address"
        },
        {
          "internalType": "uint256",
          "name": "addedValue",
          "type": "uint256"
        }
      ],
      "name": "increaseAllowance",
      "outputs": [
        {
          "internalType": "bool",
          "name": "",
          "type": "bool"
        }
      ],
      "stateMutability": "nonpayable",
      "type": "function"
    },
    {
      "inputs": [
        {
          "internalType": "address",
          "name": "to",
          "type": "address"
        },
        {
          "internalType": "uint256",
          "name": "amount",
          "type": "uint256"
        }
      ],
      "name": "mint",
      "outputs": [],
      "stateMutability": "nonpayable",
      "type": "function"
    },
    {
      "inputs": [],
      "name": "name",
      "outputs": [
        {
          "internalType": "string",
          "name": "",
          "type": "string"
        }
      ],
      "stateMutability": "view",
      "type": "function"
    },
    {
      "inputs": [
        {
          "internalType": "address",
          "name": "owner",
          "type": "address"
        }
      ],
      "name": "nonces",
      "outputs": [
        {
          "internalType": "uint256",
          "name": "",
          "type": "uint256"
        }
      ],
      "stateMutability": "view",
      "type": "function"
    },
    {
      "inputs": [
        {
          "internalType": "address",
          "name": "account",
          "type": "address"
        }
      ],
      "name": "numCheckpoints",
      "outputs": [
        {
          "internalType": "uint32",
          "name": "",
          "type": "uint32"
        }
      ],
      "stateMutability": "view",
      "type": "function"
    },
    {
      "inputs": [
        {
          "internalType": "address",
          "name": "owner",
          "type": "address"
        },
        {
          "internalType": "address",
          "name": "spender",
          "type": "address"
        },
        {
          "internalType": "uint256",
          "name": "value",
          "type": "uint256"
        },
        {
          "internalType": "uint256",
          "name": "deadline",
          "type": "uint256"
        },
        {
          "internalType": "uint8",
          "name": "v",
          "type": "uint8"
        },
        {
          "internalType": "bytes32",
          "name": "r",
          "type": "bytes32"
        },
        {
          "internalType": "bytes32",
          "name": "s",
          "type": "bytes32"
        }
      ],
      "name": "permit",
      "outputs": [],
      "stateMutability": "nonpayable",
      "type": "function"
    },
    {
      "inputs": [],
      "name": "symbol",
      "outputs": [
        {
          "internalType": "string",
          "name": "",
          "type": "string"
        }
      ],
      "stateMutability": "view",
      "type": "function"
    },
    {
      "inputs": [],
      "name": "totalSupply",
      "outputs": [
        {
          "internalType": "uint256",
          "name": "",
          "type": "uint256"
        }
      ],
      "stateMutability": "view",
      "type": "function"
    },
    {
      "inputs": [
        {
          "internalType": "address",
          "name": "to",
          "type": "address"
        },
        {
          "internalType": "uint256",
          "name": "amount",
          "type": "uint256"
        }
      ],
      "name": "transfer",
      "outputs": [
        {
          "internalType": "bool",
          "name": "",
          "type": "bool"
        }
      ],
      "stateMutability": "nonpayable",
      "type": "function"
    },
    {
      "inputs": [
        {
          "internalType": "address",
          "name": "from",
          "type": "address"
        },
        {
          "internalType": "address",
          "name": "to",
          "type": "address"
        },
        {
          "internalType": "uint256",
          "name": "amount",
          "type": "uint256"
        }
      ],
      "name": "transferFrom",
      "outputs": [
        {
          "internalType": "bool",
          "name": "",
          "type": "bool"
        }
      ],
      "stateMutability": "nonpayable",
      "type": "function"
    }
  ],
  "bytecode": {
    "object": "0x610140604081815234620003f8576200001882620003fd565b600491828152602091828201926315195cdd60e21b938481528251946200003f86620003fd565b868652828601528251906200005482620003fd565b86825263151154d560e21b838301528351946200007186620003fd565b6001808752603160f81b85880190815288516001600160401b03999195918a8211620003e3576003918254918583811c93168015620003d8575b8a841014620002da578190601f9384811162000382575b508a908483116001146200031b576000926200030f575b505060001982851b1c191690851b1782555b8251928b8411620002fa578c548581811c91168015620002ef575b8a821014620002da578281116200028f575b5088918411600114620002245793839491849260009562000218575b50501b92600019911b1c19161788555b51902093519020918360e052610100958387524660a0528151928301937f8b73c3c69bb8fe3d512ecc4cf759cc79239f7b179b0ffacaa9a75d522b39400f958686528385015260608401524660808401523060a084015260a0835260c0830195838710908711176200020357508490525190206080523060c0526101209081526125e89283620004308439608051836120db015260a05183612196015260c051836120ac015260e0518361212a01525182612150015251816121070152f35b604190634e487b7160e01b6000525260246000fd5b01519350388062000134565b9190601f198416928d600052848a6000209460005b8c898383106200027757505050106200025c575b50505050811b01885562000144565b01519060f884600019921b161c19169055388080806200024d565b86860151895590970196948501948893500162000239565b8d600052896000208380870160051c8201928c8810620002d0575b0160051c019086905b828110620002c357505062000118565b60008155018690620002b3565b92508192620002aa565b60228e634e487b7160e01b6000525260246000fd5b90607f169062000106565b60418d634e487b7160e01b6000525260246000fd5b015190503880620000d9565b60008681528c8120899550929190601f198516908e5b8282106200036a575050841162000351575b505050811b018255620000eb565b015160001983871b60f8161c1916905538808062000343565b8385015186558b979095019493840193018e62000331565b909150846000528a6000208480850160051c8201928d8610620003ce575b918991869594930160051c01915b828110620003be575050620000c2565b60008155859450899101620003ae565b92508192620003a0565b92607f1692620000ab565b60418c634e487b7160e01b6000525260246000fd5b600080fd5b604081019081106001600160401b038211176200041957604052565b634e487b7160e01b600052604160045260246000fdfe6080604052600436101561001257600080fd5b60003560e01c806306fdde03146101a7578063095ea7b3146101a257806318160ddd1461019d57806323b872dd14610198578063313ce567146101935780633644e5151461018e57806339509351146101895780633a46b1a81461018457806340c10f191461017f578063587cde1e1461017a5780635c19a95c146101755780636fcfff451461017057806370a082311461016b578063782d6fe1146101665780637ecebe00146101615780638e539e8c1461015c57806395d89b41146101575780639ab24eb014610152578063a457c2d71461014d578063a9059cbb14610148578063b4b5ea5714610143578063c3cda5201461013e578063d505accf14610139578063dd62ed3e146101345763f1127ed81461012f57600080fd5b610f43565b610ecc565b610d61565b610bfa565b610bb9565b610b93565b610ac0565b610a9d565b6109da565b61085e565b610817565b6107db565b610794565b61073f565b61071d565b6106d5565b6105b5565b61058e565b610522565b6104ff565b6104e3565b6103ef565b6103d1565b6103a0565b610212565b60208082528251818301819052939260005b8581106101fe575050507fffffffffffffffffffffffffffffffffffffffffffffffffffffffffffffffe0601f8460006040809697860101520116010190565b8181018301518482016040015282016101be565b34610355576000806003193601126103525760405190806003549060019180831c92808216928315610348575b602092838610851461031b5785885260208801949081156102dc5750600114610283575b61027f8761027381890382611053565b604051918291826101ac565b0390f35b600360005294509192917fc2575a0e9e593c00f959f8c92f12db2869c3395a3b0502d05e2516446f71f85b5b8386106102cb57505050910190506102738261027f3880610263565b8054858701529482019481016102af565b7fffffffffffffffffffffffffffffffffffffffffffffffffffffffffffffff001685525050505090151560051b0190506102738261027f3880610263565b6024827f4e487b710000000000000000000000000000000000000000000000000000000081526022600452fd5b93607f169361023f565b80fd5b600080fd5b6004359073ffffffffffffffffffffffffffffffffffffffff8216820361035557565b6024359073ffffffffffffffffffffffffffffffffffffffff8216820361035557565b34610355576040600319360112610355576103c66103bc61035a565b6024359033611324565b602060405160018152f35b34610355576000600319360112610355576020600254604051908152f35b346103555760606003193601126103555761040861035a565b61041061037d565b6044359073ffffffffffffffffffffffffffffffffffffffff831660005260016020526104613360406000209073ffffffffffffffffffffffffffffffffffffffff16600052602052604060002090565b54926000198403610483575b61047793506111c0565b60405160018152602090f35b82841061049f5761049a8361047795033383611324565b61046d565b606460405162461bcd60e51b815260206004820152601d60248201527f45524332303a20696e73756666696369656e7420616c6c6f77616e63650000006044820152fd5b3461035557600060031936011261035557602060405160128152f35b3461035557600060031936011261035557602061051a612095565b604051908152f35b346103555760406003193601126103555761053b61035a565b3360005260016020526105728160406000209073ffffffffffffffffffffffffffffffffffffffff16600052602052604060002090565b546024358101809111610589576103c69133611324565b611094565b3461035557604060031936011261035557602061051a6105ac61035a565b60243590611626565b34610355576040600319360112610355576105ce61035a565b60243573ffffffffffffffffffffffffffffffffffffffff821691821561069157816106709161068f9461060c610607846002546110d1565b600255565b6106368273ffffffffffffffffffffffffffffffffffffffff166000526000602052604060002090565b8054840190556040518381526000907fddf252ad1be2c89b69c2b068fc378daa952ba7f163c4a11628f55a4df523b3ef90602090a36117a1565b61068a6bffffffffffffffffffffffff6002541115612550565b611c61565b005b606460405162461bcd60e51b815260206004820152601f60248201527f45524332303a206d696e7420746f20746865207a65726f2061646472657373006044820152fd5b3461035557602060031936011261035557602073ffffffffffffffffffffffffffffffffffffffff8061070661035a565b166000526007825260406000205416604051908152f35b346103555760206003193601126103555761068f61073961035a565b3361183a565b346103555760206003193601126103555773ffffffffffffffffffffffffffffffffffffffff61076d61035a565b16600052600860205260206107866040600020546124d5565b63ffffffff60405191168152f35b346103555760206003193601126103555773ffffffffffffffffffffffffffffffffffffffff6107c261035a565b1660005260006020526020604060002054604051908152f35b346103555760406003193601126103555760206108016107fc6105ac61035a565b612452565b6bffffffffffffffffffffffff60405191168152f35b346103555760206003193601126103555773ffffffffffffffffffffffffffffffffffffffff61084561035a565b1660005260056020526020604060002054604051908152f35b346103555760206003193601126103555760043561087d4382106115db565b600954906000826005811161096d575b50905b8282106109045782806108c95750602060005b7bffffffffffffffffffffffffffffffffffffffffffffffffffffffff60405191168152f35b60096000526020906108ff907f6e1540171b6c0c960b71a7020d9f60077f6af931a8bbf590da0223dacf75c7ae015b5460201c90565b6108a3565b90916109108184612258565b6009600052908263ffffffff61094d7f6e1540171b6c0c960b71a7020d9f60077f6af931a8bbf590da0223dacf75c7af85015b5463ffffffff1690565b16111561095d5750915b90610890565b9250610968906110c3565b610957565b8061097d6109839295939561226d565b90611749565b6009600052908263ffffffff6109ba7f6e1540171b6c0c960b71a7020d9f60077f6af931a8bbf590da0223dacf75c7af8501610943565b1611156109ca5750915b3861088d565b92506109d5906110c3565b6109c4565b34610355576000806003193601126103525760405190806004549060019180831c92808216928315610a93575b602092838610851461031b5785885260208801949081156102dc5750600114610a3a5761027f8761027381890382611053565b600460005294509192917f8a35acfbc15ff81a39ae7d344fd709f28e8600b4aa8c65c6b64bfe7fe36bd19b5b838610610a8257505050910190506102738261027f3880610263565b805485870152948201948101610a66565b93607f1693610a07565b3461035557602060031936011261035557602061051a610abb61035a565b611570565b3461035557604060031936011261035557610ad961035a565b60243590336000526001602052610b148160406000209073ffffffffffffffffffffffffffffffffffffffff16600052602052604060002090565b5491808310610b295761047792039033611324565b608460405162461bcd60e51b815260206004820152602560248201527f45524332303a2064656372656173656420616c6c6f77616e63652062656c6f7760448201527f207a65726f0000000000000000000000000000000000000000000000000000006064820152fd5b34610355576040600319360112610355576103c6610baf61035a565b60243590336111c0565b346103555760206003193601126103555760206108016107fc610abb61035a565b6064359060ff8216820361035557565b6084359060ff8216820361035557565b346103555760c060031936011261035557610c1361035a565b60443590602435610c22610bda565b92804211610d1d57610cde610d189161068f9560405190610cc682610c9a6020820195898b8860609194939273ffffffffffffffffffffffffffffffffffffffff60808301967fe48329057bfd03d55e49b547132e39cffd9c1820ad7b9d4c5307691425d15adf845216602083015260408201520152565b037fffffffffffffffffffffffffffffffffffffffffffffffffffffffffffffffe08101845283611053565b610cd960a43593608435935190206121bc565b611e6b565b91610d128373ffffffffffffffffffffffffffffffffffffffff166000526005602052604060002090815491600183019055565b14611756565b61183a565b606460405162461bcd60e51b815260206004820152601d60248201527f4552433230566f7465733a207369676e617475726520657870697265640000006044820152fd5b346103555760e060031936011261035557610d7a61035a565b610d8261037d565b6044359060643592610d92610bea565b93804211610e8857610e63610e8391610c9a61068f97610e50610dde8773ffffffffffffffffffffffffffffffffffffffff166000526005602052604060002090815491600183019055565b9360405193849160208301968c8c8c8a91959493909260a09360c08401977f6e71edae12b1b97f4d1f60370fef10105fa2faae0126114a169c64845d6126c9855273ffffffffffffffffffffffffffffffffffffffff8092166020860152166040840152606083015260808201520152565b610cd960c4359360a435935190206121bc565b73ffffffffffffffffffffffffffffffffffffffff8084169116146114af565b611324565b606460405162461bcd60e51b815260206004820152601d60248201527f45524332305065726d69743a206578706972656420646561646c696e650000006044820152fd5b34610355576040600319360112610355576020610f3a610eea61035a565b73ffffffffffffffffffffffffffffffffffffffff610f0761037d565b91166000526001835260406000209073ffffffffffffffffffffffffffffffffffffffff16600052602052604060002090565b54604051908152f35b3461035557604060031936011261035557610f5c61035a565b63ffffffff6024358181168103610355576020610fd5610fcf7bffffffffffffffffffffffffffffffffffffffffffffffffffffffff9373ffffffffffffffffffffffffffffffffffffffff6040976000868a51610fb981611016565b8281520152166000526008845286600020611507565b5061154e565b84519381511684520151166020820152f35b7f4e487b7100000000000000000000000000000000000000000000000000000000600052604160045260246000fd5b6040810190811067ffffffffffffffff82111761103257604052565b610fe7565b60c0810190811067ffffffffffffffff82111761103257604052565b90601f7fffffffffffffffffffffffffffffffffffffffffffffffffffffffffffffffe0910116810190811067ffffffffffffffff82111761103257604052565b7f4e487b7100000000000000000000000000000000000000000000000000000000600052601160045260246000fd5b906001820180921161058957565b9190820180921161058957565b156110e557565b608460405162461bcd60e51b815260206004820152602360248201527f45524332303a207472616e7366657220746f20746865207a65726f206164647260448201527f65737300000000000000000000000000000000000000000000000000000000006064820152fd5b1561115657565b608460405162461bcd60e51b815260206004820152602660248201527f45524332303a207472616e7366657220616d6f756e742065786365656473206260448201527f616c616e636500000000000000000000000000000000000000000000000000006064820152fd5b919073ffffffffffffffffffffffffffffffffffffffff9283811680156112ba576112b8948316906111f38215156110de565b8461121e8473ffffffffffffffffffffffffffffffffffffffff166000526000602052604060002090565b5461122b8282101561114f565b036112568473ffffffffffffffffffffffffffffffffffffffff166000526000602052604060002090565b556112818473ffffffffffffffffffffffffffffffffffffffff166000526000602052604060002090565b8054860190556040518581527fddf252ad1be2c89b69c2b068fc378daa952ba7f163c4a11628f55a4df523b3ef90602090a36117f9565b565b608460405162461bcd60e51b815260206004820152602560248201527f45524332303a207472616e736665722066726f6d20746865207a65726f20616460448201527f64726573730000000000000000000000000000000000000000000000000000006064820152fd5b9073ffffffffffffffffffffffffffffffffffffffff918281169283156114465782169384156113dc57806113c67f8c5be1e5ebec7d5bd14f71427d1e84f3dd0314c0f7b2291e5b200ac8c7c3b925946113a16113d79573ffffffffffffffffffffffffffffffffffffffff166000526001602052604060002090565b9073ffffffffffffffffffffffffffffffffffffffff16600052602052604060002090565b556040519081529081906020820190565b0390a3565b608460405162461bcd60e51b815260206004820152602260248201527f45524332303a20617070726f766520746f20746865207a65726f20616464726560448201527f73730000000000000000000000000000000000000000000000000000000000006064820152fd5b608460405162461bcd60e51b8152602060048201526024808201527f45524332303a20617070726f76652066726f6d20746865207a65726f2061646460448201527f72657373000000000000000000000000000000000000000000000000000000006064820152fd5b156114b657565b606460405162461bcd60e51b815260206004820152601e60248201527f45524332305065726d69743a20696e76616c6964207369676e617475726500006044820152fd5b604051906112b882611016565b805482101561151f5760005260206000200190600090565b7f4e487b7100000000000000000000000000000000000000000000000000000000600052603260045260246000fd5b9060405161155b81611016565b602081935463ffffffff81168352811c910152565b73ffffffffffffffffffffffffffffffffffffffff1660005260086020526040600020805480156000146115a657506000919050565b7bffffffffffffffffffffffffffffffffffffffffffffffffffffffff916000196115d2920190611507565b505460201c1690565b156115e257565b606460405162461bcd60e51b815260206004820152601f60248201527f4552433230566f7465733a20626c6f636b206e6f7420796574206d696e6564006044820152fd5b73ffffffffffffffffffffffffffffffffffffffff906116474384106115db565b1660005260086020526040600020805491600083600581116116fe575b50905b8382106116b75750508161167d57506000919050565b6108f86116b3916000197bffffffffffffffffffffffffffffffffffffffffffffffffffffffff94019060005260206000200190565b1690565b90926116c38185612258565b908263ffffffff6116de610943858860005260206000200190565b1611156116ee5750925b90611667565b93506116f9906110c3565b6116e8565b8061097d61170e9296939661226d565b908263ffffffff611729610943858860005260206000200190565b1611156117395750925b38611664565b9350611744906110c3565b611733565b9190820391821161058957565b1561175d57565b606460405162461bcd60e51b815260206004820152601960248201527f4552433230566f7465733a20696e76616c6964206e6f6e6365000000000000006044820152fd5b60076020527f6d5257204ebe7d88fd91ae87941cb2dd9d8062b64ae5a2bd2d28ec40b9fbf6df5473ffffffffffffffffffffffffffffffffffffffff918216600090815260409020546112b8939290811691166118cd565b906112b8929173ffffffffffffffffffffffffffffffffffffffff8091166000526007602052808060406000205416921660005260406000205416906118cd565b6112b89173ffffffffffffffffffffffffffffffffffffffff8092166000928184526007602052806040852054168092856020527f3134e8a2e6d97e929a7e54011ea5485d7d196dd5f0ba4d4ef95803e8e3fc257f60408720549660076020526040812094871694857fffffffffffffffffffffffff000000000000000000000000000000000000000082541617905580a45b919073ffffffffffffffffffffffffffffffffffffffff80821693168381141580611b3e575b6118fe575b50505050565b8061197e575b5082611911575b806118f8565b7fdec2bacdd2f05b59de34da9b523dff8be42e5e38e818c82fdb0bae774387a724916119606119659273ffffffffffffffffffffffffffffffffffffffff166000526008602052604060002090565b611dad565b60408051928352602083019190915290a238808061190b565b8060005260086020527fdec2bacdd2f05b59de34da9b523dff8be42e5e38e818c82fdb0bae774387a7246040600020805480159182600014611b1b576119c26114fa565b6000815260006020820152915b611a1c6119fb60208501517bffffffffffffffffffffffffffffffffffffffffffffffffffffffff1690565b7bffffffffffffffffffffffffffffffffffffffffffffffffffffffff1690565b92611a2789856125c1565b94159081611b04575b5015611aa357611a58611a8d92600019611a49876123bf565b93019060005260206000200190565b9063ffffffff7fffffffffffffffffffffffffffffffffffffffffffffffffffffffff0000000083549260201b169116179055565b604080519182526020820192909252a238611904565b50611aff90611ab1436124d5565b90611afa611abe866123bf565b611ad5611ac96114fa565b63ffffffff9095168552565b7bffffffffffffffffffffffffffffffffffffffffffffffffffffffff166020840152565b611bce565b611a8d565b5163ffffffff16905063ffffffff16431438611a30565b611b38611b3360001984018360005260206000200190565b61154e565b916119cf565b508215156118f3565b600954906801000000000000000082101561103257600182018060095582101561151f576009600052805160209182015190911b7fffffffffffffffffffffffffffffffffffffffffffffffffffffffff000000001663ffffffff91909116177f6e1540171b6c0c960b71a7020d9f60077f6af931a8bbf590da0223dacf75c7af90910155565b80546801000000000000000081101561103257611bf091600182018155611507565b611c3257815160209283015190921b7fffffffffffffffffffffffffffffffffffffffffffffffffffffffff000000001663ffffffff92909216919091179055565b7f4e487b7100000000000000000000000000000000000000000000000000000000600052600060045260246000fd5b60095490918115918215611d7857611c776114fa565b60008152600060208201525b611cb9611cb26119fb60208401517bffffffffffffffffffffffffffffffffffffffffffffffffffffffff1690565b95866125ce565b93159081611d61575b5015611d07576112b890611a58600019611cdb866123bf565b920160096000527f6e1540171b6c0c960b71a7020d9f60077f6af931a8bbf590da0223dacf75c7af0190565b506112b8611d14436124d5565b611d5c611d20856123bf565b611d37611d2b6114fa565b63ffffffff9094168452565b7bffffffffffffffffffffffffffffffffffffffffffffffffffffffff166020830152565b611b47565b5163ffffffff16905063ffffffff16431438611cc2565b6009600052611da87f6e1540171b6c0c960b71a7020d9f60077f6af931a8bbf590da0223dacf75c7ae820161154e565b611c83565b909181549182159283600014611e4e57611dc56114fa565b60008152600060208201525b611e07611e006119fb60208401517bffffffffffffffffffffffffffffffffffffffffffffffffffffffff1690565b96876125ce565b94159081611e37575b5015611e2957611a586112b892600019611a49876123bf565b506112b890611ab1436124d5565b5163ffffffff16905063ffffffff16431438611e10565b611e66611b3360001983018460005260206000200190565b611dd1565b91611e829391611e7a93611ff9565b919091611ebe565b90565b60051115611e8f57565b7f4e487b7100000000000000000000000000000000000000000000000000000000600052602160045260246000fd5b611ec781611e85565b80611ecf5750565b611ed881611e85565b60018103611f255760405162461bcd60e51b815260206004820152601860248201527f45434453413a20696e76616c6964207369676e617475726500000000000000006044820152606490fd5b611f2e81611e85565b60028103611f7b5760405162461bcd60e51b815260206004820152601f60248201527f45434453413a20696e76616c6964207369676e6174757265206c656e677468006044820152606490fd5b80611f87600392611e85565b14611f8e57565b60405162461bcd60e51b815260206004820152602260248201527f45434453413a20696e76616c6964207369676e6174757265202773272076616c60448201527f75650000000000000000000000000000000000000000000000000000000000006064820152608490fd5b9291907f7fffffffffffffffffffffffffffffff5d576e7357a4501ddfe92f46681b20a083116120895791608094939160ff602094604051948552168484015260408301526060820152600093849182805260015afa1561207c57815173ffffffffffffffffffffffffffffffffffffffff811615612076579190565b50600190565b50604051903d90823e3d90fd5b50505050600090600390565b73ffffffffffffffffffffffffffffffffffffffff7f000000000000000000000000000000000000000000000000000000000000000016301480612193575b156120fd577f000000000000000000000000000000000000000000000000000000000000000090565b60405160208101907f000000000000000000000000000000000000000000000000000000000000000082527f000000000000000000000000000000000000000000000000000000000000000060408201527f000000000000000000000000000000000000000000000000000000000000000060608201524660808201523060a082015260a0815261218d81611037565b51902090565b507f000000000000000000000000000000000000000000000000000000000000000046146120d4565b6121c4612095565b906040519060208201927f1901000000000000000000000000000000000000000000000000000000000000845260228301526042820152604281526080810181811067ffffffffffffffff8211176110325760405251902090565b8115612229570490565b7f4e487b7100000000000000000000000000000000000000000000000000000000600052601260045260246000fd5b90808216911860011c81018091116105895790565b80156123a7578061234061233961232f61232561231b6123116123076122fd6001611e829a6000908b60801c8061239b575b508060401c8061238e575b508060201c80612381575b508060101c80612374575b508060081c80612367575b508060041c8061235a575b508060021c8061234d575b50821c612346575b811c1b6122f6818b61221f565b0160011c90565b6122f6818a61221f565b6122f6818961221f565b6122f6818861221f565b6122f6818761221f565b6122f6818661221f565b6122f6818561221f565b809261221f565b906123ad565b81016122e9565b60029150910190386122e1565b60049150910190386122d6565b60089150910190386122cb565b60109150910190386122c0565b60209150910190386122b5565b60409150910190386122aa565b9150506080903861229f565b50600090565b90808210156123ba575090565b905090565b7bffffffffffffffffffffffffffffffffffffffffffffffffffffffff908181116123e8571690565b608460405162461bcd60e51b815260206004820152602760248201527f53616665436173743a2076616c756520646f65736e27742066697420696e203260448201527f32342062697473000000000000000000000000000000000000000000000000006064820152fd5b6bffffffffffffffffffffffff9081811161246b571690565b608460405162461bcd60e51b815260206004820152602660248201527f53616665436173743a2076616c756520646f65736e27742066697420696e203960448201527f36206269747300000000000000000000000000000000000000000000000000006064820152fd5b63ffffffff908181116124e6571690565b608460405162461bcd60e51b815260206004820152602660248201527f53616665436173743a2076616c756520646f65736e27742066697420696e203360448201527f32206269747300000000000000000000000000000000000000000000000000006064820152fd5b1561255757565b608460405162461bcd60e51b815260206004820152603060248201527f4552433230566f7465733a20746f74616c20737570706c79207269736b73206f60448201527f766572666c6f77696e6720766f746573000000000000000000000000000000006064820152fd5b9081039081116105895790565b908101809111610589579056fea164736f6c6343000812000a",
    "linkReferences": {}
  },
  "methodIdentifiers": {
    "DOMAIN_SEPARATOR()": "3644e515",
    "allowance(address,address)": "dd62ed3e",
    "approve(address,uint256)": "095ea7b3",
    "balanceOf(address)": "70a08231",
    "checkpoints(address,uint32)": "f1127ed8",
    "decimals()": "313ce567",
    "decreaseAllowance(address,uint256)": "a457c2d7",
    "delegate(address)": "5c19a95c",
    "delegateBySig(address,uint256,uint256,uint8,bytes32,bytes32)": "c3cda520",
    "delegates(address)": "587cde1e",
    "getCurrentVotes(address)": "b4b5ea57",
    "getPastTotalSupply(uint256)": "8e539e8c",
    "getPastVotes(address,uint256)": "3a46b1a8",
    "getPriorVotes(address,uint256)": "782d6fe1",
    "getVotes(address)": "9ab24eb0",
    "increaseAllowance(address,uint256)": "39509351",
    "mint(address,uint256)": "40c10f19",
    "name()": "06fdde03",
    "nonces(address)": "7ecebe00",
    "numCheckpoints(address)": "6fcfff45",
    "permit(address,address,uint256,uint256,uint8,bytes32,bytes32)": "d505accf",
    "symbol()": "95d89b41",
    "totalSupply()": "18160ddd",
    "transfer(address,uint256)": "a9059cbb",
    "transferFrom(address,address,uint256)": "23b872dd"
  },
  "id": 90
}