{
  "abi": [
    {
      "inputs": [
        {
          "internalType": "string",
          "name": "tokenName",
          "type": "string"
        },
        {
          "internalType": "string",
          "name": "symbol",
          "type": "string"
        }
      ],
      "stateMutability": "nonpayable",
      "type": "constructor"
    },
    {
      "anonymous": false,
      "inputs": [
        {
          "indexed": true,
          "internalType": "address",
          "name": "owner",
          "type": "address"
        },
        {
          "indexed": true,
          "internalType": "address",
          "name": "spender",
          "type": "address"
        },
        {
          "indexed": false,
          "internalType": "uint256",
          "name": "value",
          "type": "uint256"
        }
      ],
      "name": "Approval",
      "type": "event"
    },
    {
      "anonymous": false,
      "inputs": [
        {
          "indexed": true,
          "internalType": "address",
          "name": "delegator",
          "type": "address"
        },
        {
          "indexed": true,
          "internalType": "address",
          "name": "fromDelegate",
          "type": "address"
        },
        {
          "indexed": true,
          "internalType": "address",
          "name": "toDelegate",
          "type": "address"
        }
      ],
      "name": "DelegateChanged",
      "type": "event"
    },
    {
      "anonymous": false,
      "inputs": [
        {
          "indexed": true,
          "internalType": "address",
          "name": "delegate",
          "type": "address"
        },
        {
          "indexed": false,
          "internalType": "uint256",
          "name": "previousBalance",
          "type": "uint256"
        },
        {
          "indexed": false,
          "internalType": "uint256",
          "name": "newBalance",
          "type": "uint256"
        }
      ],
      "name": "DelegateVotesChanged",
      "type": "event"
    },
    {
      "anonymous": false,
      "inputs": [
        {
          "indexed": true,
          "internalType": "address",
          "name": "from",
          "type": "address"
        },
        {
          "indexed": true,
          "internalType": "address",
          "name": "to",
          "type": "address"
        },
        {
          "indexed": false,
          "internalType": "uint256",
          "name": "value",
          "type": "uint256"
        }
      ],
      "name": "Transfer",
      "type": "event"
    },
    {
      "inputs": [],
      "name": "DOMAIN_SEPARATOR",
      "outputs": [
        {
          "internalType": "bytes32",
          "name": "",
          "type": "bytes32"
        }
      ],
      "stateMutability": "view",
      "type": "function"
    },
    {
      "inputs": [
        {
          "internalType": "address",
          "name": "owner",
          "type": "address"
        },
        {
          "internalType": "address",
          "name": "spender",
          "type": "address"
        }
      ],
      "name": "allowance",
      "outputs": [
        {
          "internalType": "uint256",
          "name": "",
          "type": "uint256"
        }
      ],
      "stateMutability": "view",
      "type": "function"
    },
    {
      "inputs": [
        {
          "internalType": "address",
          "name": "spender",
          "type": "address"
        },
        {
          "internalType": "uint256",
          "name": "amount",
          "type": "uint256"
        }
      ],
      "name": "approve",
      "outputs": [
        {
          "internalType": "bool",
          "name": "",
          "type": "bool"
        }
      ],
      "stateMutability": "nonpayable",
      "type": "function"
    },
    {
      "inputs": [
        {
          "internalType": "address",
          "name": "account",
          "type": "address"
        }
      ],
      "name": "balanceOf",
      "outputs": [
        {
          "internalType": "uint256",
          "name": "",
          "type": "uint256"
        }
      ],
      "stateMutability": "view",
      "type": "function"
    },
    {
      "inputs": [
        {
          "internalType": "address",
          "name": "from",
          "type": "address"
        },
        {
          "internalType": "uint256",
          "name": "amount",
          "type": "uint256"
        }
      ],
      "name": "burn",
      "outputs": [],
      "stateMutability": "nonpayable",
      "type": "function"
    },
    {
      "inputs": [
        {
          "internalType": "address",
          "name": "account",
          "type": "address"
        },
        {
          "internalType": "uint32",
          "name": "pos",
          "type": "uint32"
        }
      ],
      "name": "checkpoints",
      "outputs": [
        {
          "components": [
            {
              "internalType": "uint32",
              "name": "fromBlock",
              "type": "uint32"
            },
            {
              "internalType": "uint224",
              "name": "votes",
              "type": "uint224"
            }
          ],
          "internalType": "struct ERC20Votes.Checkpoint",
          "name": "",
          "type": "tuple"
        }
      ],
      "stateMutability": "view",
      "type": "function"
    },
    {
      "inputs": [],
      "name": "decimals",
      "outputs": [
        {
          "internalType": "uint8",
          "name": "",
          "type": "uint8"
        }
      ],
      "stateMutability": "view",
      "type": "function"
    },
    {
      "inputs": [
        {
          "internalType": "address",
          "name": "spender",
          "type": "address"
        },
        {
          "internalType": "uint256",
          "name": "subtractedValue",
          "type": "uint256"
        }
      ],
      "name": "decreaseAllowance",
      "outputs": [
        {
          "internalType": "bool",
          "name": "",
          "type": "bool"
        }
      ],
      "stateMutability": "nonpayable",
      "type": "function"
    },
    {
      "inputs": [
        {
          "internalType": "address",
          "name": "delegatee",
          "type": "address"
        }
      ],
      "name": "delegate",
      "outputs": [],
      "stateMutability": "nonpayable",
      "type": "function"
    },
    {
      "inputs": [
        {
          "internalType": "address",
          "name": "delegatee",
          "type": "address"
        },
        {
          "internalType": "uint256",
          "name": "nonce",
          "type": "uint256"
        },
        {
          "internalType": "uint256",
          "name": "expiry",
          "type": "uint256"
        },
        {
          "internalType": "uint8",
          "name": "v",
          "type": "uint8"
        },
        {
          "internalType": "bytes32",
          "name": "r",
          "type": "bytes32"
        },
        {
          "internalType": "bytes32",
          "name": "s",
          "type": "bytes32"
        }
      ],
      "name": "delegateBySig",
      "outputs": [],
      "stateMutability": "nonpayable",
      "type": "function"
    },
    {
      "inputs": [
        {
          "internalType": "address",
          "name": "account",
          "type": "address"
        }
      ],
      "name": "delegates",
      "outputs": [
        {
          "internalType": "address",
          "name": "",
          "type": "address"
        }
      ],
      "stateMutability": "view",
      "type": "function"
    },
    {
      "inputs": [
        {
          "internalType": "uint256",
          "name": "blockNumber",
          "type": "uint256"
        }
      ],
      "name": "getPastTotalSupply",
      "outputs": [
        {
          "internalType": "uint256",
          "name": "",
          "type": "uint256"
        }
      ],
      "stateMutability": "view",
      "type": "function"
    },
    {
      "inputs": [
        {
          "internalType": "address",
          "name": "account",
          "type": "address"
        },
        {
          "internalType": "uint256",
          "name": "blockNumber",
          "type": "uint256"
        }
      ],
      "name": "getPastVotes",
      "outputs": [
        {
          "internalType": "uint256",
          "name": "",
          "type": "uint256"
        }
      ],
      "stateMutability": "view",
      "type": "function"
    },
    {
      "inputs": [
        {
          "internalType": "address",
          "name": "account",
          "type": "address"
        }
      ],
      "name": "getVotes",
      "outputs": [
        {
          "internalType": "uint256",
          "name": "",
          "type": "uint256"
        }
      ],
      "stateMutability": "view",
      "type": "function"
    },
    {
      "inputs": [
        {
          "internalType": "address",
          "name": "spender",
          "type": "address"
        },
        {
          "internalType": "uint256",
          "name": "addedValue",
          "type": "uint256"
        }
      ],
      "name": "increaseAllowance",
      "outputs": [
        {
          "internalType": "bool",
          "name": "",
          "type": "bool"
        }
      ],
      "stateMutability": "nonpayable",
      "type": "function"
    },
    {
      "inputs": [
        {
          "internalType": "address",
          "name": "to",
          "type": "address"
        },
        {
          "internalType": "uint256",
          "name": "amount",
          "type": "uint256"
        }
      ],
      "name": "mint",
      "outputs": [],
      "stateMutability": "nonpayable",
      "type": "function"
    },
    {
      "inputs": [],
      "name": "name",
      "outputs": [
        {
          "internalType": "string",
          "name": "",
          "type": "string"
        }
      ],
      "stateMutability": "view",
      "type": "function"
    },
    {
      "inputs": [
        {
          "internalType": "address",
          "name": "owner",
          "type": "address"
        }
      ],
      "name": "nonces",
      "outputs": [
        {
          "internalType": "uint256",
          "name": "",
          "type": "uint256"
        }
      ],
      "stateMutability": "view",
      "type": "function"
    },
    {
      "inputs": [
        {
          "internalType": "address",
          "name": "account",
          "type": "address"
        }
      ],
      "name": "numCheckpoints",
      "outputs": [
        {
          "internalType": "uint32",
          "name": "",
          "type": "uint32"
        }
      ],
      "stateMutability": "view",
      "type": "function"
    },
    {
      "inputs": [
        {
          "internalType": "address",
          "name": "owner",
          "type": "address"
        },
        {
          "internalType": "address",
          "name": "spender",
          "type": "address"
        },
        {
          "internalType": "uint256",
          "name": "value",
          "type": "uint256"
        },
        {
          "internalType": "uint256",
          "name": "deadline",
          "type": "uint256"
        },
        {
          "internalType": "uint8",
          "name": "v",
          "type": "uint8"
        },
        {
          "internalType": "bytes32",
          "name": "r",
          "type": "bytes32"
        },
        {
          "internalType": "bytes32",
          "name": "s",
          "type": "bytes32"
        }
      ],
      "name": "permit",
      "outputs": [],
      "stateMutability": "nonpayable",
      "type": "function"
    },
    {
      "inputs": [],
      "name": "symbol",
      "outputs": [
        {
          "internalType": "string",
          "name": "",
          "type": "string"
        }
      ],
      "stateMutability": "view",
      "type": "function"
    },
    {
      "inputs": [],
      "name": "totalSupply",
      "outputs": [
        {
          "internalType": "uint256",
          "name": "",
          "type": "uint256"
        }
      ],
      "stateMutability": "view",
      "type": "function"
    },
    {
      "inputs": [
        {
          "internalType": "address",
          "name": "to",
          "type": "address"
        },
        {
          "internalType": "uint256",
          "name": "amount",
          "type": "uint256"
        }
      ],
      "name": "transfer",
      "outputs": [
        {
          "internalType": "bool",
          "name": "",
          "type": "bool"
        }
      ],
      "stateMutability": "nonpayable",
      "type": "function"
    },
    {
      "inputs": [
        {
          "internalType": "address",
          "name": "from",
          "type": "address"
        },
        {
          "internalType": "address",
          "name": "to",
          "type": "address"
        },
        {
          "internalType": "uint256",
          "name": "amount",
          "type": "uint256"
        }
      ],
      "name": "transferFrom",
      "outputs": [
        {
          "internalType": "bool",
          "name": "",
          "type": "bool"
        }
      ],
      "stateMutability": "nonpayable",
      "type": "function"
    }
  ],
  "bytecode": {
    "object": "0x610140604081815234620003f75762002bf88038038091620000228286620003fc565b84398201918181840312620003f75780516001600160401b039290838111620003f757846200005391840162000420565b9160209485820151858111620003f7576200006f920162000420565b93815192828401848110868211176200030457835260019081855282850191603160f81b83528151878111620003045760038054918383811c93168015620003ec575b87841014620003d657601f928381116200038b575b50808784821160011462000326576000916200031a575b5060001982841b1c191690841b1781555b895191898311620003045760049a8b548581811c91168015620002f9575b89821014620002e45782811162000299575b50879184116001146200022e5793839491849260009562000222575b50501b92600019911b1c19161787555b82815191012093519020918360e052610100958387524660a0528151928301937f8b73c3c69bb8fe3d512ecc4cf759cc79239f7b179b0ffacaa9a75d522b39400f958686528385015260608401524660808401523060a084015260a0835260c0830195838710908711176200020d57508490525190206080523060c052610120908152612760928362000498843960805183612265015260a05183612320015260c05183612236015260e051836122b4015251826122da015251816122910152f35b604190634e487b7160e01b6000525260246000fd5b0151935038806200013b565b9190601f198416928c60005284896000209460005b8b8983831062000281575050501062000266575b50505050811b0187556200014b565b01519060f884600019921b161c191690553880808062000257565b86860151895590970196948501948893500162000243565b8c600052886000208380870160051c8201928b8810620002da575b0160051c019086905b828110620002cd5750506200011f565b60008155018690620002bd565b92508192620002b4565b60228d634e487b7160e01b6000525260246000fd5b90607f16906200010d565b634e487b7160e01b600052604160045260246000fd5b905085015138620000de565b859250601f1982169084600052896000209160005b8b8282106200037457505083116200035b575b5050811b018155620000ef565b87015160001983861b60f8161c1916905538806200034e565b838b0151855589969094019392830192016200033b565b82600052876000208480840160051c8201928a8510620003cc575b0160051c019085905b828110620003bf575050620000c7565b60008155018590620003af565b92508192620003a6565b634e487b7160e01b600052602260045260246000fd5b92607f1692620000b2565b600080fd5b601f909101601f19168101906001600160401b038211908210176200030457604052565b919080601f84011215620003f7578251906001600160401b0382116200030457604051916020916200045c601f8301601f1916840185620003fc565b818452828287010111620003f75760005b8181106200048357508260009394955001015290565b85810183015184820184015282016200046d56fe6080604052600436101561001257600080fd5b60003560e01c806306fdde0314610197578063095ea7b31461019257806318160ddd1461018d57806323b872dd14610188578063313ce567146101835780633644e5151461017e57806339509351146101795780633a46b1a81461017457806340c10f191461016f578063587cde1e1461016a5780635c19a95c146101655780636fcfff451461016057806370a082311461015b5780637ecebe00146101565780638e539e8c1461015157806395d89b411461014c5780639ab24eb0146101475780639dc29fac14610142578063a457c2d71461013d578063a9059cbb14610138578063c3cda52014610133578063d505accf1461012e578063dd62ed3e146101295763f1127ed81461012457600080fd5b61118f565b611118565b610fad565b610e46565b610e00565b610d2d565b610bd7565b610b68565b610aa5565b61095c565b610915565b6108ce565b610879565b610857565b61080f565b6106df565b61057e565b610512565b6104ef565b6104d3565b6103df565b6103c1565b610390565b610202565b60208082528251818301819052939260005b8581106101ee575050507fffffffffffffffffffffffffffffffffffffffffffffffffffffffffffffffe0601f8460006040809697860101520116010190565b8181018301518482016040015282016101ae565b34610345576000806003193601126103425760405190806003549060019180831c92808216928315610338575b602092838610851461030b5785885260208801949081156102cc5750600114610273575b61026f876102638189038261129f565b6040519182918261019c565b0390f35b600360005294509192917fc2575a0e9e593c00f959f8c92f12db2869c3395a3b0502d05e2516446f71f85b5b8386106102bb57505050910190506102638261026f3880610253565b80548587015294820194810161029f565b7fffffffffffffffffffffffffffffffffffffffffffffffffffffffffffffff001685525050505090151560051b0190506102638261026f3880610253565b6024827f4e487b710000000000000000000000000000000000000000000000000000000081526022600452fd5b93607f169361022f565b80fd5b600080fd5b6004359073ffffffffffffffffffffffffffffffffffffffff8216820361034557565b6024359073ffffffffffffffffffffffffffffffffffffffff8216820361034557565b34610345576040600319360112610345576103b66103ac61034a565b6024359033611570565b602060405160018152f35b34610345576000600319360112610345576020600254604051908152f35b34610345576060600319360112610345576103f861034a565b61040061036d565b6044359073ffffffffffffffffffffffffffffffffffffffff831660005260016020526104513360406000209073ffffffffffffffffffffffffffffffffffffffff16600052602052604060002090565b54926000198403610473575b610467935061140c565b60405160018152602090f35b82841061048f5761048a8361046795033383611570565b61045d565b606460405162461bcd60e51b815260206004820152601d60248201527f45524332303a20696e73756666696369656e7420616c6c6f77616e63650000006044820152fd5b3461034557600060031936011261034557602060405160128152f35b3461034557600060031936011261034557602061050a61221f565b604051908152f35b346103455760406003193601126103455761052b61034a565b3360005260016020526105628160406000209073ffffffffffffffffffffffffffffffffffffffff16600052602052604060002090565b546024358101809111610579576103b69133611570565b6112e0565b346103455760406003193601126103455761059761034a565b73ffffffffffffffffffffffffffffffffffffffff602435916105bb4384106117bc565b16600052600860205260406000208054916000836005811161068e575b50905b83821061063d57505081610616575050602060005b7bffffffffffffffffffffffffffffffffffffffffffffffffffffffff60405191168152f35b61063161063891600019602094019060005260206000200190565b5460201c90565b6105f0565b909261064981856123e2565b908263ffffffff61066e610664858860005260206000200190565b5463ffffffff1690565b16111561067e5750925b906105db565b93506106899061130f565b610678565b8061069e6106a4929693966123f7565b90611807565b908263ffffffff6106bf610664858860005260206000200190565b1611156106cf5750925b386105d8565b93506106da9061130f565b6106c9565b34610345576040600319360112610345576106f861034a565b60243573ffffffffffffffffffffffffffffffffffffffff82169182156107cb578161079a916107c9946107366107318460025461131d565b600255565b6107608273ffffffffffffffffffffffffffffffffffffffff166000526000602052604060002090565b8054840190556040518381526000907fddf252ad1be2c89b69c2b068fc378daa952ba7f163c4a11628f55a4df523b3ef90602090a361185f565b6107c47bffffffffffffffffffffffffffffffffffffffffffffffffffffffff6002541115612657565b611d5e565b005b606460405162461bcd60e51b815260206004820152601f60248201527f45524332303a206d696e7420746f20746865207a65726f2061646472657373006044820152fd5b3461034557602060031936011261034557602073ffffffffffffffffffffffffffffffffffffffff8061084061034a565b166000526007825260406000205416604051908152f35b34610345576020600319360112610345576107c961087361034a565b33611937565b346103455760206003193601126103455773ffffffffffffffffffffffffffffffffffffffff6108a761034a565b16600052600860205260206108c06040600020546125dc565b63ffffffff60405191168152f35b346103455760206003193601126103455773ffffffffffffffffffffffffffffffffffffffff6108fc61034a565b1660005260006020526020604060002054604051908152f35b346103455760206003193601126103455773ffffffffffffffffffffffffffffffffffffffff61094361034a565b1660005260056020526020604060002054604051908152f35b346103455760206003193601126103455760043561097b4382106117bc565b6009549060008260058111610a3e575b50905b8282106109db5782806109a8575060405160008152602090f35b6009600052602090610638907f6e1540171b6c0c960b71a7020d9f60077f6af931a8bbf590da0223dacf75c7ae01610631565b90916109e781846123e2565b6009600052908263ffffffff610a1e7f6e1540171b6c0c960b71a7020d9f60077f6af931a8bbf590da0223dacf75c7af8501610664565b161115610a2e5750915b9061098e565b9250610a399061130f565b610a28565b8061069e610a4e929593956123f7565b6009600052908263ffffffff610a857f6e1540171b6c0c960b71a7020d9f60077f6af931a8bbf590da0223dacf75c7af8501610664565b161115610a955750915b3861098b565b9250610aa09061130f565b610a8f565b34610345576000806003193601126103425760405190806004549060019180831c92808216928315610b5e575b602092838610851461030b5785885260208801949081156102cc5750600114610b055761026f876102638189038261129f565b600460005294509192917f8a35acfbc15ff81a39ae7d344fd709f28e8600b4aa8c65c6b64bfe7fe36bd19b5b838610610b4d57505050910190506102638261026f3880610253565b805485870152948201948101610b31565b93607f1693610ad2565b346103455760206003193601126103455773ffffffffffffffffffffffffffffffffffffffff610b9661034a565b166000526008602052604060002080548015600014610bbd57505060405160008152602090f35b602091600019610bce920190611753565b5054811c6105f0565b3461034557604060031936011261034557610bf061034a565b60243573ffffffffffffffffffffffffffffffffffffffff8216918215610cc357818160006107c99583610c47610cbe9673ffffffffffffffffffffffffffffffffffffffff166000526000602052604060002090565b54610c54828210156126c8565b03610c7f8473ffffffffffffffffffffffffffffffffffffffff166000526000602052604060002090565b55610c8d8460025403600255565b6040518481527fddf252ad1be2c89b69c2b068fc378daa952ba7f163c4a11628f55a4df523b3ef90602090a36118b7565b611eaa565b608460405162461bcd60e51b815260206004820152602160248201527f45524332303a206275726e2066726f6d20746865207a65726f2061646472657360448201527f73000000000000000000000000000000000000000000000000000000000000006064820152fd5b3461034557604060031936011261034557610d4661034a565b60243590336000526001602052610d818160406000209073ffffffffffffffffffffffffffffffffffffffff16600052602052604060002090565b5491808310610d965761046792039033611570565b608460405162461bcd60e51b815260206004820152602560248201527f45524332303a2064656372656173656420616c6c6f77616e63652062656c6f7760448201527f207a65726f0000000000000000000000000000000000000000000000000000006064820152fd5b34610345576040600319360112610345576103b6610e1c61034a565b602435903361140c565b6064359060ff8216820361034557565b6084359060ff8216820361034557565b346103455760c060031936011261034557610e5f61034a565b60443590602435610e6e610e26565b92804211610f6957610f2a610f64916107c99560405190610f1282610ee66020820195898b8860609194939273ffffffffffffffffffffffffffffffffffffffff60808301967fe48329057bfd03d55e49b547132e39cffd9c1820ad7b9d4c5307691425d15adf845216602083015260408201520152565b037fffffffffffffffffffffffffffffffffffffffffffffffffffffffffffffffe0810184528361129f565b610f2560a4359360843593519020612346565b611ff5565b91610f5e8373ffffffffffffffffffffffffffffffffffffffff166000526005602052604060002090815491600183019055565b14611814565b611937565b606460405162461bcd60e51b815260206004820152601d60248201527f4552433230566f7465733a207369676e617475726520657870697265640000006044820152fd5b346103455760e060031936011261034557610fc661034a565b610fce61036d565b6044359060643592610fde610e36565b938042116110d4576110af6110cf91610ee66107c99761109c61102a8773ffffffffffffffffffffffffffffffffffffffff166000526005602052604060002090815491600183019055565b9360405193849160208301968c8c8c8a91959493909260a09360c08401977f6e71edae12b1b97f4d1f60370fef10105fa2faae0126114a169c64845d6126c9855273ffffffffffffffffffffffffffffffffffffffff8092166020860152166040840152606083015260808201520152565b610f2560c4359360a43593519020612346565b73ffffffffffffffffffffffffffffffffffffffff8084169116146116fb565b611570565b606460405162461bcd60e51b815260206004820152601d60248201527f45524332305065726d69743a206578706972656420646561646c696e650000006044820152fd5b3461034557604060031936011261034557602061118661113661034a565b73ffffffffffffffffffffffffffffffffffffffff61115361036d565b91166000526001835260406000209073ffffffffffffffffffffffffffffffffffffffff16600052602052604060002090565b54604051908152f35b34610345576040600319360112610345576111a861034a565b63ffffffff602435818116810361034557602061122161121b7bffffffffffffffffffffffffffffffffffffffffffffffffffffffff9373ffffffffffffffffffffffffffffffffffffffff6040976000868a5161120581611262565b8281520152166000526008845286600020611753565b5061179a565b84519381511684520151166020820152f35b7f4e487b7100000000000000000000000000000000000000000000000000000000600052604160045260246000fd5b6040810190811067ffffffffffffffff82111761127e57604052565b611233565b60c0810190811067ffffffffffffffff82111761127e57604052565b90601f7fffffffffffffffffffffffffffffffffffffffffffffffffffffffffffffffe0910116810190811067ffffffffffffffff82111761127e57604052565b7f4e487b7100000000000000000000000000000000000000000000000000000000600052601160045260246000fd5b906001820180921161057957565b9190820180921161057957565b1561133157565b608460405162461bcd60e51b815260206004820152602360248201527f45524332303a207472616e7366657220746f20746865207a65726f206164647260448201527f65737300000000000000000000000000000000000000000000000000000000006064820152fd5b156113a257565b608460405162461bcd60e51b815260206004820152602660248201527f45524332303a207472616e7366657220616d6f756e742065786365656473206260448201527f616c616e636500000000000000000000000000000000000000000000000000006064820152fd5b919073ffffffffffffffffffffffffffffffffffffffff928381168015611506576115049483169061143f82151561132a565b8461146a8473ffffffffffffffffffffffffffffffffffffffff166000526000602052604060002090565b546114778282101561139b565b036114a28473ffffffffffffffffffffffffffffffffffffffff166000526000602052604060002090565b556114cd8473ffffffffffffffffffffffffffffffffffffffff166000526000602052604060002090565b8054860190556040518581527fddf252ad1be2c89b69c2b068fc378daa952ba7f163c4a11628f55a4df523b3ef90602090a36118f6565b565b608460405162461bcd60e51b815260206004820152602560248201527f45524332303a207472616e736665722066726f6d20746865207a65726f20616460448201527f64726573730000000000000000000000000000000000000000000000000000006064820152fd5b9073ffffffffffffffffffffffffffffffffffffffff9182811692831561169257821693841561162857806116127f8c5be1e5ebec7d5bd14f71427d1e84f3dd0314c0f7b2291e5b200ac8c7c3b925946115ed6116239573ffffffffffffffffffffffffffffffffffffffff166000526001602052604060002090565b9073ffffffffffffffffffffffffffffffffffffffff16600052602052604060002090565b556040519081529081906020820190565b0390a3565b608460405162461bcd60e51b815260206004820152602260248201527f45524332303a20617070726f766520746f20746865207a65726f20616464726560448201527f73730000000000000000000000000000000000000000000000000000000000006064820152fd5b608460405162461bcd60e51b8152602060048201526024808201527f45524332303a20617070726f76652066726f6d20746865207a65726f2061646460448201527f72657373000000000000000000000000000000000000000000000000000000006064820152fd5b1561170257565b606460405162461bcd60e51b815260206004820152601e60248201527f45524332305065726d69743a20696e76616c6964207369676e617475726500006044820152fd5b6040519061150482611262565b805482101561176b5760005260206000200190600090565b7f4e487b7100000000000000000000000000000000000000000000000000000000600052603260045260246000fd5b906040516117a781611262565b602081935463ffffffff81168352811c910152565b156117c357565b606460405162461bcd60e51b815260206004820152601f60248201527f4552433230566f7465733a20626c6f636b206e6f7420796574206d696e6564006044820152fd5b9190820391821161057957565b1561181b57565b606460405162461bcd60e51b815260206004820152601960248201527f4552433230566f7465733a20696e76616c6964206e6f6e6365000000000000006044820152fd5b60076020527f6d5257204ebe7d88fd91ae87941cb2dd9d8062b64ae5a2bd2d28ec40b9fbf6df5473ffffffffffffffffffffffffffffffffffffffff91821660009081526040902054611504939290811691166119ca565b906115049173ffffffffffffffffffffffffffffffffffffffff80911660005260076020528060406000205416906000805260406000205416906119ca565b90611504929173ffffffffffffffffffffffffffffffffffffffff8091166000526007602052808060406000205416921660005260406000205416906119ca565b6115049173ffffffffffffffffffffffffffffffffffffffff8092166000928184526007602052806040852054168092856020527f3134e8a2e6d97e929a7e54011ea5485d7d196dd5f0ba4d4ef95803e8e3fc257f60408720549660076020526040812094871694857fffffffffffffffffffffffff000000000000000000000000000000000000000082541617905580a45b919073ffffffffffffffffffffffffffffffffffffffff80821693168381141580611c3b575b6119fb575b50505050565b80611a7b575b5082611a0e575b806119f5565b7fdec2bacdd2f05b59de34da9b523dff8be42e5e38e818c82fdb0bae774387a72491611a5d611a629273ffffffffffffffffffffffffffffffffffffffff166000526008602052604060002090565b611f37565b60408051928352602083019190915290a2388080611a08565b8060005260086020527fdec2bacdd2f05b59de34da9b523dff8be42e5e38e818c82fdb0bae774387a7246040600020805480159182600014611c1857611abf611746565b6000815260006020820152915b611b19611af860208501517bffffffffffffffffffffffffffffffffffffffffffffffffffffffff1690565b7bffffffffffffffffffffffffffffffffffffffffffffffffffffffff1690565b92611b248985612739565b94159081611c01575b5015611ba057611b55611b8a92600019611b4687612549565b93019060005260206000200190565b9063ffffffff7fffffffffffffffffffffffffffffffffffffffffffffffffffffffff0000000083549260201b169116179055565b604080519182526020820192909252a238611a01565b50611bfc90611bae436125dc565b90611bf7611bbb86612549565b611bd2611bc6611746565b63ffffffff9095168552565b7bffffffffffffffffffffffffffffffffffffffffffffffffffffffff166020840152565b611ccb565b611b8a565b5163ffffffff16905063ffffffff16431438611b2d565b611c35611c3060001984018360005260206000200190565b61179a565b91611acc565b508215156119f0565b600954906801000000000000000082101561127e57600182018060095582101561176b576009600052805160209182015190911b7fffffffffffffffffffffffffffffffffffffffffffffffffffffffff000000001663ffffffff91909116177f6e1540171b6c0c960b71a7020d9f60077f6af931a8bbf590da0223dacf75c7af90910155565b80546801000000000000000081101561127e57611ced91600182018155611753565b611d2f57815160209283015190921b7fffffffffffffffffffffffffffffffffffffffffffffffffffffffff000000001663ffffffff92909216919091179055565b7f4e487b7100000000000000000000000000000000000000000000000000000000600052600060045260246000fd5b60095490918115918215611e7557611d74611746565b60008152600060208201525b611db6611daf611af860208401517bffffffffffffffffffffffffffffffffffffffffffffffffffffffff1690565b9586612746565b93159081611e5e575b5015611e045761150490611b55600019611dd886612549565b920160096000527f6e1540171b6c0c960b71a7020d9f60077f6af931a8bbf590da0223dacf75c7af0190565b50611504611e11436125dc565b611e59611e1d85612549565b611e34611e28611746565b63ffffffff9094168452565b7bffffffffffffffffffffffffffffffffffffffffffffffffffffffff166020830152565b611c44565b5163ffffffff16905063ffffffff16431438611dbf565b6009600052611ea57f6e1540171b6c0c960b71a7020d9f60077f6af931a8bbf590da0223dacf75c7ae820161179a565b611d80565b60095490918115918215611f0257611ec0611746565b60008152600060208201525b611db6611efb611af860208401517bffffffffffffffffffffffffffffffffffffffffffffffffffffffff1690565b9586612739565b6009600052611f327f6e1540171b6c0c960b71a7020d9f60077f6af931a8bbf590da0223dacf75c7ae820161179a565b611ecc565b909181549182159283600014611fd857611f4f611746565b60008152600060208201525b611f91611f8a611af860208401517bffffffffffffffffffffffffffffffffffffffffffffffffffffffff1690565b9687612746565b94159081611fc1575b5015611fb357611b5561150492600019611b4687612549565b5061150490611bae436125dc565b5163ffffffff16905063ffffffff16431438611f9a565b611ff0611c3060001983018460005260206000200190565b611f5b565b9161200c939161200493612183565b919091612048565b90565b6005111561201957565b7f4e487b7100000000000000000000000000000000000000000000000000000000600052602160045260246000fd5b6120518161200f565b806120595750565b6120628161200f565b600181036120af5760405162461bcd60e51b815260206004820152601860248201527f45434453413a20696e76616c6964207369676e617475726500000000000000006044820152606490fd5b6120b88161200f565b600281036121055760405162461bcd60e51b815260206004820152601f60248201527f45434453413a20696e76616c6964207369676e6174757265206c656e677468006044820152606490fd5b8061211160039261200f565b1461211857565b60405162461bcd60e51b815260206004820152602260248201527f45434453413a20696e76616c6964207369676e6174757265202773272076616c60448201527f75650000000000000000000000000000000000000000000000000000000000006064820152608490fd5b9291907f7fffffffffffffffffffffffffffffff5d576e7357a4501ddfe92f46681b20a083116122135791608094939160ff602094604051948552168484015260408301526060820152600093849182805260015afa1561220657815173ffffffffffffffffffffffffffffffffffffffff811615612200579190565b50600190565b50604051903d90823e3d90fd5b50505050600090600390565b73ffffffffffffffffffffffffffffffffffffffff7f00000000000000000000000000000000000000000000000000000000000000001630148061231d575b15612287577f000000000000000000000000000000000000000000000000000000000000000090565b60405160208101907f000000000000000000000000000000000000000000000000000000000000000082527f000000000000000000000000000000000000000000000000000000000000000060408201527f000000000000000000000000000000000000000000000000000000000000000060608201524660808201523060a082015260a0815261231781611283565b51902090565b507f0000000000000000000000000000000000000000000000000000000000000000461461225e565b61234e61221f565b906040519060208201927f1901000000000000000000000000000000000000000000000000000000000000845260228301526042820152604281526080810181811067ffffffffffffffff82111761127e5760405251902090565b81156123b3570490565b7f4e487b7100000000000000000000000000000000000000000000000000000000600052601260045260246000fd5b90808216911860011c81018091116105795790565b801561253157806124ca6124c36124b96124af6124a561249b612491612487600161200c9a6000908b60801c80612525575b508060401c80612518575b508060201c8061250b575b508060101c806124fe575b508060081c806124f1575b508060041c806124e4575b508060021c806124d7575b50821c6124d0575b811c1b612480818b6123a9565b0160011c90565b612480818a6123a9565b61248081896123a9565b61248081886123a9565b61248081876123a9565b61248081866123a9565b61248081856123a9565b80926123a9565b90612537565b8101612473565b600291509101903861246b565b6004915091019038612460565b6008915091019038612455565b601091509101903861244a565b602091509101903861243f565b6040915091019038612434565b91505060809038612429565b50600090565b9080821015612544575090565b905090565b7bffffffffffffffffffffffffffffffffffffffffffffffffffffffff90818111612572571690565b608460405162461bcd60e51b815260206004820152602760248201527f53616665436173743a2076616c756520646f65736e27742066697420696e203260448201527f32342062697473000000000000000000000000000000000000000000000000006064820152fd5b63ffffffff908181116125ed571690565b608460405162461bcd60e51b815260206004820152602660248201527f53616665436173743a2076616c756520646f65736e27742066697420696e203360448201527f32206269747300000000000000000000000000000000000000000000000000006064820152fd5b1561265e57565b608460405162461bcd60e51b815260206004820152603060248201527f4552433230566f7465733a20746f74616c20737570706c79207269736b73206f60448201527f766572666c6f77696e6720766f746573000000000000000000000000000000006064820152fd5b156126cf57565b608460405162461bcd60e51b815260206004820152602260248201527f45524332303a206275726e20616d6f756e7420657863656564732062616c616e60448201527f63650000000000000000000000000000000000000000000000000000000000006064820152fd5b9081039081116105795790565b908101809111610579579056fea164736f6c6343000812000a",
    "linkReferences": {}
  },
  "methodIdentifiers": {
    "DOMAIN_SEPARATOR()": "3644e515",
    "allowance(address,address)": "dd62ed3e",
    "approve(address,uint256)": "095ea7b3",
    "balanceOf(address)": "70a08231",
    "burn(address,uint256)": "9dc29fac",
    "checkpoints(address,uint32)": "f1127ed8",
    "decimals()": "313ce567",
    "decreaseAllowance(address,uint256)": "a457c2d7",
    "delegate(address)": "5c19a95c",
    "delegateBySig(address,uint256,uint256,uint8,bytes32,bytes32)": "c3cda520",
    "delegates(address)": "587cde1e",
    "getPastTotalSupply(uint256)": "8e539e8c",
    "getPastVotes(address,uint256)": "3a46b1a8",
    "getVotes(address)": "9ab24eb0",
    "increaseAllowance(address,uint256)": "39509351",
    "mint(address,uint256)": "40c10f19",
    "name()": "06fdde03",
    "nonces(address)": "7ecebe00",
    "numCheckpoints(address)": "6fcfff45",
    "permit(address,address,uint256,uint256,uint8,bytes32,bytes32)": "d505accf",
    "symbol()": "95d89b41",
    "totalSupply()": "18160ddd",
    "transfer(address,uint256)": "a9059cbb",
    "transferFrom(address,address,uint256)": "23b872dd"
  },
  "id": 112
}