{
  "abi": [
    {
      "inputs": [
        {
          "internalType": "string",
          "name": "name",
          "type": "string"
        },
        {
          "internalType": "string",
          "name": "version",
          "type": "string"
        }
      ],
      "stateMutability": "nonpayable",
      "type": "constructor"
    },
    {
      "inputs": [],
      "name": "InvalidFunctionSelector",
      "type": "error"
    },
    {
      "inputs": [],
      "name": "InvalidSignature",
      "type": "error"
    },
    {
      "inputs": [],
      "name": "SaltAlreadyUsed",
      "type": "error"
    },
    {
      "inputs": [
        {
          "internalType": "uint8",
          "name": "v",
          "type": "uint8"
        },
        {
          "internalType": "bytes32",
          "name": "r",
          "type": "bytes32"
        },
        {
          "internalType": "bytes32",
          "name": "s",
          "type": "bytes32"
        },
        {
          "internalType": "uint256",
          "name": "salt",
          "type": "uint256"
        },
        {
          "internalType": "address",
          "name": "target",
          "type": "address"
        },
        {
          "internalType": "bytes4",
          "name": "functionSelector",
          "type": "bytes4"
        },
        {
          "internalType": "bytes",
          "name": "data",
          "type": "bytes"
        }
      ],
      "name": "authenticate",
      "outputs": [],
      "stateMutability": "nonpayable",
      "type": "function"
    }
  ],
  "bytecode": {
    "object": "0x61014080604052346200014e576200136b803803809162000021828562000153565b83398101906040818303126200014e5780516001600160401b0391908281116200014e57836200005391830162000177565b9260208201518381116200014e576200006d920162000177565b91602081519101209160208151910120918060e052610100928084524660a05260405160208101917f8b73c3c69bb8fe3d512ecc4cf759cc79239f7b179b0ffacaa9a75d522b39400f93848452604083015260608201524660808201523060a082015260a0815260c0810193818510908511176200013857836040525190206080523060c05261012090815261117c9283620001ef843960805183610b94015260a05183610c49015260c05183610b65015260e05183610be301525182610c0901525181610bc00152f35b634e487b7160e01b600052604160045260246000fd5b600080fd5b601f909101601f19168101906001600160401b038211908210176200013857604052565b919080601f840112156200014e578251906001600160401b038211620001385760405191602091620001b3601f8301601f191684018562000153565b8184528282870101116200014e5760005b818110620001da57508260009394955001015290565b8581018301518482018401528201620001c456fe6080604052600436101561001257600080fd5b6000803560e01c6390bec9b81461002857600080fd5b346100f45760e07ffffffffffffffffffffffffffffffffffffffffffffffffffffffffffffffffc3601126100f45761005f6100f7565b60843561006b8161011a565b60a435917fffffffff00000000000000000000000000000000000000000000000000000000831683036100f05760c4359267ffffffffffffffff928385116100ec57366023860112156100ec5784600401359384116100ec5736602485870101116100ec5760246100e9950192606435906044359060243590610272565b80f35b8580fd5b8380fd5b80fd5b6004359060ff8216820361010757565b600080fd5b359060ff8216820361010757565b73ffffffffffffffffffffffffffffffffffffffff81160361010757565b7f4e487b7100000000000000000000000000000000000000000000000000000000600052604160045260246000fd5b6040810190811067ffffffffffffffff82111761018357604052565b610138565b6080810190811067ffffffffffffffff82111761018357604052565b60c0810190811067ffffffffffffffff82111761018357604052565b90601f7fffffffffffffffffffffffffffffffffffffffffffffffffffffffffffffffe0910116810190811067ffffffffffffffff82111761018357604052565b67ffffffffffffffff811161018357601f017fffffffffffffffffffffffffffffffffffffffffffffffffffffffffffffffe01660200190565b92919261024782610201565b9161025560405193846101c0565b829481845281830111610107578281602093846000960137010152565b959693959291907fffffffff0000000000000000000000000000000000000000000000000000000086167faad83f3b0000000000000000000000000000000000000000000000000000000081036102f4575092866102ec95936102e5936102f29a966102df36888a61023b565b94610741565b369161023b565b916105a4565b565b9193909290917fbc7e56f000000000000000000000000000000000000000000000000000000000810361033e5750508387876102f299956102ec979561033995610d79565b6102e5565b7f0b515570000000000000000000000000000000000000000000000000000000009098949295939198146000146105575761038c61037d36858761023b565b6020808251830101910161112f565b94919293909773ffffffffffffffffffffffffffffffffffffffff809516986103e88d6103d98c73ffffffffffffffffffffffffffffffffffffffff166000526000602052604060002090565b90600052602052604060002090565b5461052d578b6104c0956104b38f6104878e9b918c9261040a6104bb98610c6f565b90602081519101209060405196879560208701998a9260c09491979695929760e08501987fd4da3505dd8ebafecaa0a60cd43a495d9cd5145325732986b7139a443821d0f9865273ffffffffffffffffffffffffffffffffffffffff80921660208701521660408501526060840152608083015260a08201520152565b037fffffffffffffffffffffffffffffffffffffffffffffffffffffffffffffffe081018352826101c0565b519020610afc565b610882565b1603610503576103396104fd6102f2976103d96102ec9673ffffffffffffffffffffffffffffffffffffffff166000526000602052604060002090565b60019055565b60046040517f8baa579f000000000000000000000000000000000000000000000000000000008152fd5b60046040517f0ced3043000000000000000000000000000000000000000000000000000000008152fd5b60046040517f42868c9b000000000000000000000000000000000000000000000000000000008152fd5b60005b8381106105945750506000910152565b8181015183820152602001610584565b916105fb602460405180937fffffffff0000000000000000000000000000000000000000000000000000000060208301961686526105eb8151809260208686019101610581565b81010360048101845201826101c0565b600092839283809351925af13d1561063f573d61061781610201565b9061062560405192836101c0565b81528260203d92013e5b156106375750565b3d908181803efd5b61062f565b81601f8201121561010757805161065a81610201565b9261066860405194856101c0565b81845260208284010111610107576106869160208085019101610581565b90565b919060408382031261010757604051906106a282610167565b819380516106af8161011a565b835260208101519167ffffffffffffffff8311610107576020926106d39201610644565b910152565b6080818303126101075780516106ed8161011a565b9260208201519167ffffffffffffffff928381116101075784610711918301610644565b936040820151848111610107578161072a918401610689565b936060830151908111610107576106869201610644565b929461075990929192602080825183010191016106d8565b9392949173ffffffffffffffffffffffffffffffffffffffff969196809616976107a78a6103d98b73ffffffffffffffffffffffffffffffffffffffff166000526000602052604060002090565b5461052d5788976104b3896104878d61084b9a6107ce8860206104bb9a5191012096610c6f565b90602081519101209060405196879560208701998a9260c09491979695929760e08501987f3f4f5d2d7bbe0d480b081f84c9bdb18ba843152e969645ed6dc8a9d90c83188c865273ffffffffffffffffffffffffffffffffffffffff80921660208701521660408501526060840152608083015260a08201520152565b1603610503576102f2916103d96104fd9273ffffffffffffffffffffffffffffffffffffffff166000526000602052604060002090565b91610686939161089193610a60565b9190916108d7565b7f4e487b7100000000000000000000000000000000000000000000000000000000600052602160045260246000fd5b600511156108d257565b610899565b6108e0816108c8565b806108e85750565b6108f1816108c8565b60018103610958576040517f08c379a000000000000000000000000000000000000000000000000000000000815260206004820152601860248201527f45434453413a20696e76616c6964207369676e617475726500000000000000006044820152606490fd5b610961816108c8565b600281036109c8576040517f08c379a000000000000000000000000000000000000000000000000000000000815260206004820152601f60248201527f45434453413a20696e76616c6964207369676e6174757265206c656e677468006044820152606490fd5b806109d46003926108c8565b146109db57565b6040517f08c379a000000000000000000000000000000000000000000000000000000000815260206004820152602260248201527f45434453413a20696e76616c6964207369676e6174757265202773272076616c60448201527f75650000000000000000000000000000000000000000000000000000000000006064820152608490fd5b9291907f7fffffffffffffffffffffffffffffff5d576e7357a4501ddfe92f46681b20a08311610af05791608094939160ff602094604051948552168484015260408301526060820152600093849182805260015afa15610ae357815173ffffffffffffffffffffffffffffffffffffffff811615610add579190565b50600190565b50604051903d90823e3d90fd5b50505050600090600390565b610b04610b4e565b906040519060208201927f190100000000000000000000000000000000000000000000000000000000000084526022830152604282015260428152610b4881610188565b51902090565b73ffffffffffffffffffffffffffffffffffffffff7f000000000000000000000000000000000000000000000000000000000000000016301480610c46575b15610bb6577f000000000000000000000000000000000000000000000000000000000000000090565b60405160208101907f000000000000000000000000000000000000000000000000000000000000000082527f000000000000000000000000000000000000000000000000000000000000000060408201527f000000000000000000000000000000000000000000000000000000000000000060608201524660808201523060a082015260a08152610b48816101a4565b507f00000000000000000000000000000000000000000000000000000000000000004614610b8d565b602073ffffffffffffffffffffffffffffffffffffffff825116910151602081519101206040519060208201927fcaed499d02be902df50ad9112a126ad2688628af4ffd9da0c3a70bdbc9979d6d84526040830152606082015260608152610b4881610188565b67ffffffffffffffff81116101835760051b60200190565b9080601f83011215610107578160206106869335910161023b565b7f1c5fa0cfd607be7fe6c84e8a90f68e5bd72c81571290a8e28eac25434346c9f2815273ffffffffffffffffffffffffffffffffffffffff918216602082015291166040820152606081019190915260e0810194939260038310156108d25760c092608083015260a08201520152565b9492939460a086858101031261010757610d93863561011a565b6003604087013510156101075760608601359367ffffffffffffffff851161010757808701601f8689010112156101075784870135610dd181610cd6565b95610ddf60405197886101c0565b8187526020870190838a0160208460051b838d01010111610107576020818b0101915b60208460051b838d0101018310610e9b575050505060808701359467ffffffffffffffff861161010757876104b3610e48610e93986104bb95610e6e9c01908401610cee565b9861048773ffffffffffffffffffffffffffffffffffffffff9a8b8535169c8d96611070565b906020815191012090604051958694602086019860206040840135930135918a610d09565b160361050357565b823567ffffffffffffffff8111610107576040838d018201878e01037fffffffffffffffffffffffffffffffffffffffffffffffffffffffffffffffe00112610107578060408d9285825194610ef086610167565b610f00602084848401010161010c565b8652010101359067ffffffffffffffff821161010757848e010101868d01603f82011215610107576020928392610f448f938a86950190604086820135910161023b565b838201528152019301929050610e02565b90610f5f82610cd6565b610f6c60405191826101c0565b8281527fffffffffffffffffffffffffffffffffffffffffffffffffffffffffffffffe0610f9a8294610cd6565b0190602036910137565b7fffffffffffffffffffffffffffffffffffffffffffffffffffffffffffffffff8114610fd15760010190565b7f4e487b7100000000000000000000000000000000000000000000000000000000600052601160045260246000fd5b80518210156110145760209160051b010190565b7f4e487b7100000000000000000000000000000000000000000000000000000000600052603260045260246000fd5b805160208092019160005b82811061105c575050505090565b83518552938101939281019260010161104e565b9061107b8251610f55565b60005b835181101561111657806110a06110986111119387611000565b515160ff1690565b60206110fe816110b0858a611000565b510151805190830120604080517f0e7fde7bf0920f058ac1e42e7e8d2907921fbba6044b8ebd3be400b0ea539ccb94810194855260ff90951660208501528301529091908160608401610487565b51902061110b8285611000565b52610fa4565b61107e565b50909150604051610b4881610487602082018095611043565b906080828203126101075781516111458161011a565b9260208301519260408101519267ffffffffffffffff93848111610107578161072a91840161068956fea164736f6c6343000812000a",
    "linkReferences": {}
  },
  "methodIdentifiers": {
    "authenticate(uint8,bytes32,bytes32,uint256,address,bytes4,bytes)": "90bec9b8"
  },
  "id": 71
}