{
  "abi": [
    {
      "inputs": [
        {
          "internalType": "string",
          "name": "name",
          "type": "string"
        },
        {
          "internalType": "string",
          "name": "version",
          "type": "string"
        }
      ],
      "stateMutability": "nonpayable",
      "type": "constructor"
    },
    {
      "inputs": [],
      "name": "InvalidFunctionSelector",
      "type": "error"
    },
    {
      "inputs": [],
      "name": "InvalidSignature",
      "type": "error"
    },
    {
      "inputs": [],
      "name": "SaltAlreadyUsed",
      "type": "error"
    },
    {
      "inputs": [
        {
          "internalType": "uint8",
          "name": "v",
          "type": "uint8"
        },
        {
          "internalType": "bytes32",
          "name": "r",
          "type": "bytes32"
        },
        {
          "internalType": "bytes32",
          "name": "s",
          "type": "bytes32"
        },
        {
          "internalType": "uint256",
          "name": "salt",
          "type": "uint256"
        },
        {
          "internalType": "address",
          "name": "target",
          "type": "address"
        },
        {
          "internalType": "bytes4",
          "name": "functionSelector",
          "type": "bytes4"
        },
        {
          "internalType": "bytes",
          "name": "data",
          "type": "bytes"
        }
      ],
      "name": "authenticate",
      "outputs": [],
      "stateMutability": "nonpayable",
      "type": "function"
    }
  ],
  "bytecode": {
    "object": "0x61014080604052346200014e5762001340803803809162000021828562000153565b83398101906040818303126200014e5780516001600160401b0391908281116200014e57836200005391830162000177565b9260208201518381116200014e576200006d920162000177565b91602081519101209160208151910120918060e052610100928084524660a05260405160208101917f8b73c3c69bb8fe3d512ecc4cf759cc79239f7b179b0ffacaa9a75d522b39400f93848452604083015260608201524660808201523060a082015260a0815260c0810193818510908511176200013857836040525190206080523060c0526101209081526111519283620001ef843960805183610bca015260a05183610c7f015260c05183610b9b015260e05183610c1901525182610c3f01525181610bf60152f35b634e487b7160e01b600052604160045260246000fd5b600080fd5b601f909101601f19168101906001600160401b038211908210176200013857604052565b919080601f840112156200014e578251906001600160401b038211620001385760405191602091620001b3601f8301601f191684018562000153565b8184528282870101116200014e5760005b818110620001da57508260009394955001015290565b8581018301518482018401528201620001c456fe6080604052600436101561001257600080fd5b6000803560e01c6390bec9b81461002857600080fd5b346100df5760e07ffffffffffffffffffffffffffffffffffffffffffffffffffffffffffffffffc3601126100df57600435610063816100e2565b60843561006f816100f2565b60a435917fffffffff00000000000000000000000000000000000000000000000000000000831683036100db5760c4359267ffffffffffffffff84116100d7576100c06100d4943690600401610110565b939092606435906044359060243590610278565b80f35b8480fd5b8380fd5b80fd5b60ff8116036100ed57565b600080fd5b73ffffffffffffffffffffffffffffffffffffffff8116036100ed57565b9181601f840112156100ed5782359167ffffffffffffffff83116100ed57602083818601950101116100ed57565b7f4e487b7100000000000000000000000000000000000000000000000000000000600052604160045260246000fd5b6040810190811067ffffffffffffffff82111761018957604052565b61013e565b6080810190811067ffffffffffffffff82111761018957604052565b60c0810190811067ffffffffffffffff82111761018957604052565b90601f7fffffffffffffffffffffffffffffffffffffffffffffffffffffffffffffffe0910116810190811067ffffffffffffffff82111761018957604052565b67ffffffffffffffff811161018957601f017fffffffffffffffffffffffffffffffffffffffffffffffffffffffffffffffe01660200190565b92919261024d82610207565b9161025b60405193846101c6565b8294818452818301116100ed578281602093846000960137010152565b92969395939291907fffffffff0000000000000000000000000000000000000000000000000000000086167faad83f3b0000000000000000000000000000000000000000000000000000000081036102fb575091866102f9986102ec936102f39796956102e636888a610241565b94610775565b3691610241565b916105d8565b565b7fbc7e56f000000000000000000000000000000000000000000000000000000000810361034a57506102f997509186610345926102f396959461033f368789610241565b93610d94565b6102ec565b929493927f0b515570000000000000000000000000000000000000000000000000000000000361058b578794610393610384368688610241565b60208082518301019101611104565b9592949193906103f86103f173ffffffffffffffffffffffffffffffffffffffff8098169b6103e28d73ffffffffffffffffffffffffffffffffffffffff166000526000602052604060002090565b90600052602052604060002090565b5460ff1690565b610561578b6104cf956104c28f6104968e9b918c926104196104ca98610ca5565b90602081519101209060405196879560208701998a9260c09491979695929760e08501987fd4da3505dd8ebafecaa0a60cd43a495d9cd5145325732986b7139a443821d0f9865273ffffffffffffffffffffffffffffffffffffffff80921660208701521660408501526060840152608083015260a08201520152565b037fffffffffffffffffffffffffffffffffffffffffffffffffffffffffffffffe081018352826101c6565b519020610b32565b6108b8565b16036105375761034561050c6102f9976103e26102f39673ffffffffffffffffffffffffffffffffffffffff166000526000602052604060002090565b60017fffffffffffffffffffffffffffffffffffffffffffffffffffffffffffffff00825416179055565b60046040517f8baa579f000000000000000000000000000000000000000000000000000000008152fd5b60046040517f0ced3043000000000000000000000000000000000000000000000000000000008152fd5b60046040517f42868c9b000000000000000000000000000000000000000000000000000000008152fd5b60005b8381106105c85750506000910152565b81810151838201526020016105b8565b9161062f602460405180937fffffffff00000000000000000000000000000000000000000000000000000000602083019616865261061f81518092602086860191016105b5565b81010360048101845201826101c6565b600092839283809351925af13d15610673573d61064b81610207565b9061065960405192836101c6565b81528260203d92013e5b1561066b5750565b3d908181803efd5b610663565b81601f820112156100ed57805161068e81610207565b9261069c60405194856101c6565b818452602082840101116100ed576106ba91602080850191016105b5565b90565b91906040838203126100ed57604051906106d68261016d565b819380516106e3816100f2565b835260208101519167ffffffffffffffff83116100ed576020926107079201610678565b910152565b6080818303126100ed578051610721816100f2565b9260208201519167ffffffffffffffff928381116100ed5784610745918301610678565b9360408201518481116100ed578161075e9184016106bd565b9360608301519081116100ed576106ba9201610678565b929461078d909291926020808251830101910161070c565b9392949173ffffffffffffffffffffffffffffffffffffffff969196809616976107de6103f18b6103e28c73ffffffffffffffffffffffffffffffffffffffff166000526000602052604060002090565b6105615788976104c2896104968d6108819a6108048860206104ca9a5191012096610ca5565b90602081519101209060405196879560208701998a9260c09491979695929760e08501987f3f4f5d2d7bbe0d480b081f84c9bdb18ba843152e969645ed6dc8a9d90c83188c865273ffffffffffffffffffffffffffffffffffffffff80921660208701521660408501526060840152608083015260a08201520152565b1603610537576102f9916103e261050c9273ffffffffffffffffffffffffffffffffffffffff166000526000602052604060002090565b916106ba93916108c793610a96565b91909161090d565b7f4e487b7100000000000000000000000000000000000000000000000000000000600052602160045260246000fd5b6005111561090857565b6108cf565b610916816108fe565b8061091e5750565b610927816108fe565b6001810361098e576040517f08c379a000000000000000000000000000000000000000000000000000000000815260206004820152601860248201527f45434453413a20696e76616c6964207369676e617475726500000000000000006044820152606490fd5b610997816108fe565b600281036109fe576040517f08c379a000000000000000000000000000000000000000000000000000000000815260206004820152601f60248201527f45434453413a20696e76616c6964207369676e6174757265206c656e677468006044820152606490fd5b80610a0a6003926108fe565b14610a1157565b6040517f08c379a000000000000000000000000000000000000000000000000000000000815260206004820152602260248201527f45434453413a20696e76616c6964207369676e6174757265202773272076616c60448201527f75650000000000000000000000000000000000000000000000000000000000006064820152608490fd5b9291907f7fffffffffffffffffffffffffffffff5d576e7357a4501ddfe92f46681b20a08311610b265791608094939160ff602094604051948552168484015260408301526060820152600093849182805260015afa15610b1957815173ffffffffffffffffffffffffffffffffffffffff811615610b13579190565b50600190565b50604051903d90823e3d90fd5b50505050600090600390565b610b3a610b84565b906040519060208201927f190100000000000000000000000000000000000000000000000000000000000084526022830152604282015260428152610b7e8161018e565b51902090565b73ffffffffffffffffffffffffffffffffffffffff7f000000000000000000000000000000000000000000000000000000000000000016301480610c7c575b15610bec577f000000000000000000000000000000000000000000000000000000000000000090565b60405160208101907f000000000000000000000000000000000000000000000000000000000000000082527f000000000000000000000000000000000000000000000000000000000000000060408201527f000000000000000000000000000000000000000000000000000000000000000060608201524660808201523060a082015260a08152610b7e816101aa565b507f00000000000000000000000000000000000000000000000000000000000000004614610bc3565b602073ffffffffffffffffffffffffffffffffffffffff825116910151602081519101206040519060208201927fcaed499d02be902df50ad9112a126ad2688628af4ffd9da0c3a70bdbc9979d6d84526040830152606082015260608152610b7e8161018e565b67ffffffffffffffff81116101895760051b60200190565b7f1c5fa0cfd607be7fe6c84e8a90f68e5bd72c81571290a8e28eac25434346c9f2815273ffffffffffffffffffffffffffffffffffffffff918216602082015291166040820152606081019190915260e0810194939260038310156109085760c092608083015260a08201520152565b91908451850192602084019360a0878203126100ed57602087015195610db9876100f2565b604088015160608901519660038810156100ed5760808a01519367ffffffffffffffff948581116100ed578b0182603f820112156100ed57602081015191610e0083610d0c565b92610e0e60405194856101c6565b8084526040602085019160051b840101928584116100ed5760408101915b848310610ea657505050505060a08b01519485116100ed57610496610e9e99610e646104c2946020610e849f996104ca9a0101610678565b73ffffffffffffffffffffffffffffffffffffffff809d169d8e94611045565b90602081519101209160405196879560208701998a610d24565b160361053757565b82518a81116100ed5782019060407fffffffffffffffffffffffffffffffffffffffffffffffffffffffffffffffe083870301126100ed5760405190610eeb8261016d565b6040830151610ef9816100e2565b82526060830151918c83116100ed57610f1b8a60406020969587960101610678565b83820152815201920191610e2c565b90610f3482610d0c565b610f4160405191826101c6565b8281527fffffffffffffffffffffffffffffffffffffffffffffffffffffffffffffffe0610f6f8294610d0c565b0190602036910137565b7fffffffffffffffffffffffffffffffffffffffffffffffffffffffffffffffff8114610fa65760010190565b7f4e487b7100000000000000000000000000000000000000000000000000000000600052601160045260246000fd5b8051821015610fe95760209160051b010190565b7f4e487b7100000000000000000000000000000000000000000000000000000000600052603260045260246000fd5b805160208092019160005b828110611031575050505090565b835185529381019392810192600101611023565b906110508251610f2a565b60005b83518110156110eb578061107561106d6110e69387610fd5565b515160ff1690565b60206110d381611085858a610fd5565b510151805190830120604080517f0e7fde7bf0920f058ac1e42e7e8d2907921fbba6044b8ebd3be400b0ea539ccb94810194855260ff90951660208501528301529091908160608401610496565b5190206110e08285610fd5565b52610f79565b611053565b50909150604051610b7e81610496602082018095611018565b906080828203126100ed57815161111a816100f2565b9260208301519260408101519267ffffffffffffffff938481116100ed578161075e9184016106bd56fea164736f6c6343000812000a",
    "linkReferences": {}
  },
  "methodIdentifiers": {
    "authenticate(uint8,bytes32,bytes32,uint256,address,bytes4,bytes)": "90bec9b8"
  },
  "id": 69
}