{
  "abi": [
    {
      "inputs": [],
      "name": "InvalidFunctionSelector",
      "type": "error"
    },
    {
      "inputs": [],
      "name": "InvalidMessageSender",
      "type": "error"
    },
    {
      "inputs": [
        {
          "internalType": "address",
          "name": "target",
          "type": "address"
        },
        {
          "internalType": "bytes4",
          "name": "functionSelector",
          "type": "bytes4"
        },
        {
          "internalType": "bytes",
          "name": "data",
          "type": "bytes"
        }
      ],
      "name": "authenticate",
      "outputs": [],
      "stateMutability": "nonpayable",
      "type": "function"
    }
  ],
  "bytecode": {
    "object": "0x6080806040523461001657610676908161001c8239f35b600080fdfe6080604052600436101561001257600080fd5b6000803560e01c63f2a40be41461002857600080fd5b346100df5760607ffffffffffffffffffffffffffffffffffffffffffffffffffffffffffffffffc3601126100df57600435610063816100e2565b6024357fffffffff00000000000000000000000000000000000000000000000000000000811681036100db576044359167ffffffffffffffff918284116100d757366023850112156100d75783600401359283116100d75736602484860101116100d75760246100d4940191610207565b80f35b8480fd5b8280fd5b80fd5b73ffffffffffffffffffffffffffffffffffffffff81160361010057565b600080fd5b7f4e487b7100000000000000000000000000000000000000000000000000000000600052604160045260246000fd5b6040810190811067ffffffffffffffff82111761015057604052565b610105565b90601f7fffffffffffffffffffffffffffffffffffffffffffffffffffffffffffffffe0910116810190811067ffffffffffffffff82111761015057604052565b67ffffffffffffffff811161015057601f017fffffffffffffffffffffffffffffffffffffffffffffffffffffffffffffffe01660200190565b9291926101dc82610196565b916101ea6040519384610155565b829481845281830111610100578281602093846000960137010152565b91927fffffffff0000000000000000000000000000000000000000000000000000000082167fea4a3aba0000000000000000000000000000000000000000000000000000000081036102755750838161026661026d9361027397610563565b36916101d0565b916103dc565b565b7fbc7e56f00000000000000000000000000000000000000000000000000000000081036102b4575083816102af61026d9361027397610624565b610266565b7fede02d44000000000000000000000000000000000000000000000000000000000361038257808401608085820312610100578435906102f3826100e2565b67ffffffffffffffff906040870135828111610100578161031591890161048f565b5060608701359182116101005761032d918701610471565b5073ffffffffffffffffffffffffffffffffffffffff33911603610358576102739361026d91610266565b60046040517f7fee69a1000000000000000000000000000000000000000000000000000000008152fd5b60046040517f42868c9b000000000000000000000000000000000000000000000000000000008152fd5b3d156103d7573d906103bd82610196565b916103cb6040519384610155565b82523d6000602084013e565b606090565b916040519060207fffffffff000000000000000000000000000000000000000000000000000000008184019416845281519160005b83811061045d575050509160008261043f602482849896978598018583820152036004810184520182610155565b51925af161044b6103ac565b501561045357565b3d806000803e6000fd5b818101830151858201602401528201610411565b9080601f830112156101005781602061048c933591016101d0565b90565b919060408382031261010057604051906104a882610134565b8193803560ff8116810361010057835260208101359167ffffffffffffffff8311610100576020926104da9201610471565b910152565b9080601f830112156101005781359067ffffffffffffffff92838311610150578260051b6040519460209461051686840188610155565b865284808701928401019380851161010057858401925b85841061053e575050505050505090565b8335838111610100578791610558848480948a010161048f565b81520193019261052d565b908101906080818303126101005780359161057d836100e2565b67ffffffffffffffff6020830135818111610100578261059e918501610471565b50604083013581811161010057830160408184031261010057604051906105c482610134565b80356105cf816100e2565b8252602081013583811161010057846105eb9160209301610471565b91015260608301359081116101005761060492016104df565b5073ffffffffffffffffffffffffffffffffffffffff3391160361035857565b908101906080818303126101005780359161063e836100e2565b60036040830135101561010057606082013567ffffffffffffffff81116101005761060492016104df56fea164736f6c6343000812000a",
    "linkReferences": {}
  },
  "methodIdentifiers": {
    "authenticate(address,bytes4,bytes)": "f2a40be4"
  },
  "id": 47
}