{
  "abi": [
    {
      "inputs": [],
      "name": "InvalidBlockNumber",
      "type": "error"
    },
    {
      "inputs": [],
      "name": "InvalidByteArray",
      "type": "error"
    },
    {
      "inputs": [],
      "name": "TimestampInFuture",
      "type": "error"
    },
    {
      "inputs": [
        {
          "internalType": "uint32",
          "name": "timestamp",
          "type": "uint32"
        },
        {
          "internalType": "address",
          "name": "voter",
          "type": "address"
        },
        {
          "internalType": "bytes",
          "name": "params",
          "type": "bytes"
        },
        {
          "internalType": "bytes",
          "name": "",
          "type": "bytes"
        }
      ],
      "name": "getVotingPower",
      "outputs": [
        {
          "internalType": "uint256",
          "name": "",
          "type": "uint256"
        }
      ],
      "stateMutability": "nonpayable",
      "type": "function"
    },
    {
      "inputs": [
        {
          "internalType": "uint32",
          "name": "timestamp",
          "type": "uint32"
        }
      ],
      "name": "timestampToBlockNumber",
      "outputs": [
        {
          "internalType": "uint256",
          "name": "blockNumber",
          "type": "uint256"
        }
      ],
      "stateMutability": "view",
      "type": "function"
    }
  ],
  "bytecode": {
    "object": "0x608080604052346100165761047f908161001c8239f35b600080fdfe6080604052600436101561001257600080fd5b6000803560e01c806332a10bb4146100f75763871d81b71461003357600080fd5b346100ec5760807ffffffffffffffffffffffffffffffffffffffffffffffffffffffffffffffffc3601126100ec5761006a610149565b9060243573ffffffffffffffffffffffffffffffffffffffff811681036100f35767ffffffffffffffff926044358481116100ef576100ad903690600401610161565b9490936064359182116100ec576100e86100d8878787876100d13660048a01610161565b505061021f565b6040519081529081906020820190565b0390f35b80fd5b8380fd5b5080fd5b50346100ec5760207ffffffffffffffffffffffffffffffffffffffffffffffffffffffffffffffffc3601126100ec5760409063ffffffff610137610149565b16815280602052205460805260206080f35b6004359063ffffffff8216820361015c57565b600080fd5b9181601f8401121561015c5782359167ffffffffffffffff831161015c576020838186019501011161015c57565b7f4e487b7100000000000000000000000000000000000000000000000000000000600052604160045260246000fd5b90601f7fffffffffffffffffffffffffffffffffffffffffffffffffffffffffffffffe0910116810190811067ffffffffffffffff8211176101ff57604052565b61018f565b9081602091031261015c575190565b6040513d6000823e3d90fd5b9067ffffffffffffffff84116101ff5760405191602094610267867fffffffffffffffffffffffffffffffffffffffffffffffffffffffffffffffe0601f84011601856101be565b808452368186011161015c576102918460008884610297956102f09a83809b013783010152610435565b91610336565b6040517f3a46b1a800000000000000000000000000000000000000000000000000000000815273ffffffffffffffffffffffffffffffffffffffff93841660048201526024810191909152938492839182906044820190565b0392165afa9182156103315760009261030857505090565b6103279250803d1061032a575b61031f81836101be565b810190610204565b90565b503d610315565b610213565b63ffffffff808216904216811161040b57600143146103e1576000526000602052604060002054806103dc57507fffffffffffffffffffffffffffffffffffffffffffffffffffffffffffffffff4301904382116103ad576103a9829163ffffffff166000526000602052604060002090565b5590565b7f4e487b7100000000000000000000000000000000000000000000000000000000600052601160045260246000fd5b905090565b60046040517f4e47846c000000000000000000000000000000000000000000000000000000008152fd5b60046040517f47860b97000000000000000000000000000000000000000000000000000000008152fd5b6014815110610448576020015160601c90565b60046040517faf06e244000000000000000000000000000000000000000000000000000000008152fdfea164736f6c6343000812000a",
    "linkReferences": {}
  },
  "methodIdentifiers": {
    "getVotingPower(uint32,address,bytes,bytes)": "871d81b7",
    "timestampToBlockNumber(uint32)": "32a10bb4"
  },
  "id": 109
}