{
  "abi": [
    {
      "inputs": [],
      "name": "FailedInitialization",
      "type": "error"
    },
    {
      "inputs": [],
      "name": "InvalidImplementation",
      "type": "error"
    },
    {
      "inputs": [],
      "name": "SaltAlreadyUsed",
      "type": "error"
    },
    {
      "anonymous": false,
      "inputs": [
        {
          "indexed": false,
          "internalType": "address",
          "name": "implementation",
          "type": "address"
        },
        {
          "indexed": false,
          "internalType": "address",
          "name": "proxy",
          "type": "address"
        }
      ],
      "name": "ProxyDeployed",
      "type": "event"
    },
    {
      "inputs": [
        {
          "internalType": "address",
          "name": "implementation",
          "type": "address"
        },
        {
          "internalType": "bytes",
          "name": "initializer",
          "type": "bytes"
        },
        {
          "internalType": "uint256",
          "name": "saltNonce",
          "type": "uint256"
        }
      ],
      "name": "deployProxy",
      "outputs": [],
      "stateMutability": "nonpayable",
      "type": "function"
    },
    {
      "inputs": [
        {
          "internalType": "address",
          "name": "implementation",
          "type": "address"
        },
        {
          "internalType": "bytes32",
          "name": "salt",
          "type": "bytes32"
        }
      ],
      "name": "predictProxyAddress",
      "outputs": [
        {
          "internalType": "address",
          "name": "",
          "type": "address"
        }
      ],
      "stateMutability": "view",
      "type": "function"
    }
  ],
  "bytecode": {
    "object": "0x6080806040523461001657610d6f908161001c8239f35b600080fdfe6040608081526004908136101561001557600080fd5b600090813560e01c8063e2594de9146102bb5763f925117c1461003757600080fd5b346102b75760607ffffffffffffffffffffffffffffffffffffffffffffffffffffffffffffffffc3601126102b75761006e61031e565b67ffffffffffffffff906024358281116102b357366023820112156102b357808601359161009b836103d2565b926100a886519485610391565b808452602084019236602483830101116102af5781889260246020930186378501015273ffffffffffffffffffffffffffffffffffffffff9081811694851580156102a6575b61027e5784518420875160208101913360601b8352603482015260443560548201526054815261011d81610346565b5190209161012b8382610437565b3b610256578751916104038084019182118483101761022a579161017d91849361055d853973ffffffffffffffffffffffffffffffffffffffff60609216815260406020820152600060408201520190565b039088f58015610220579186929183921693519082855af13d1561021b573d6101a5816103d2565b906101b286519283610391565b81528560203d92013e5b156101f3577f3d2489efb661e8b1c3679865db649ca1de61d76a71184a1234de2e55786a6aad93945082519182526020820152a180f35b8483517f7dabd399000000000000000000000000000000000000000000000000000000008152fd5b6101bc565b85513d88823e3d90fd5b60248b60418e7f4e487b7100000000000000000000000000000000000000000000000000000000835252fd5b8988517f0ced3043000000000000000000000000000000000000000000000000000000008152fd5b8887517f68155f9a000000000000000000000000000000000000000000000000000000008152fd5b50813b156100ee565b8780fd5b8480fd5b5080fd5b50346102b757807ffffffffffffffffffffffffffffffffffffffffffffffffffffffffffffffffc3601126102b75760209073ffffffffffffffffffffffffffffffffffffffff61031661030d61031e565b60243590610437565b915191168152f35b6004359073ffffffffffffffffffffffffffffffffffffffff8216820361034157565b600080fd5b6080810190811067ffffffffffffffff82111761036257604052565b7f4e487b7100000000000000000000000000000000000000000000000000000000600052604160045260246000fd5b90601f7fffffffffffffffffffffffffffffffffffffffffffffffffffffffffffffffe0910116810190811067ffffffffffffffff82111761036257604052565b67ffffffffffffffff811161036257601f017fffffffffffffffffffffffffffffffffffffffffffffffffffffffffffffffe01660200190565b9081519160005b838110610424575050016000815290565b8060208092840101518185015201610413565b9073ffffffffffffffffffffffffffffffffffffffff916104fa6105066104ae610403936040519461046c6020820187610391565b80865261096060208701396040519182916020830173ffffffffffffffffffffffffffffffffffffffff60609216815260406020820152600060408201520190565b03906104e07fffffffffffffffffffffffffffffffffffffffffffffffffffffffffffffffe092838101835282610391565b6040519384916104f460208401809861040c565b9061040c565b03908101835282610391565b5190206040519060208201927fff0000000000000000000000000000000000000000000000000000000000000084523060601b6021840152603583015260558201526055815261055581610346565b519020169056fe604060808152610403908138038061001681610218565b93843982019181818403126102135780516001600160a01b038116808203610213576020838101516001600160401b0394919391858211610213570186601f820112156102135780519061007161006c83610253565b610218565b918083528583019886828401011161021357888661008f930161026e565b813b156101b9577f360894a13ba1a3210667c828492db98dca3e2076cc3735a920a3ca505d382bbc80546001600160a01b031916841790556000927fbc7cd75a20ee27fd9adebab32041f755214dbc6bffa90cc0225b39da2e5c2d3b8480a28051158015906101b2575b61010b575b855160be90816103458239f35b855194606086019081118682101761019e578697849283926101889952602788527f416464726573733a206c6f772d6c6576656c2064656c65676174652063616c6c87890152660819985a5b195960ca1b8a8901525190845af4913d15610194573d9061017a61006c83610253565b91825281943d92013e610291565b508038808080806100fe565b5060609250610291565b634e487b7160e01b84526041600452602484fd5b50826100f9565b855162461bcd60e51b815260048101859052602d60248201527f455243313936373a206e657720696d706c656d656e746174696f6e206973206e60448201526c1bdd08184818dbdb9d1c9858dd609a1b6064820152608490fd5b600080fd5b6040519190601f01601f191682016001600160401b0381118382101761023d57604052565b634e487b7160e01b600052604160045260246000fd5b6001600160401b03811161023d57601f01601f191660200190565b60005b8381106102815750506000910152565b8181015183820152602001610271565b919290156102f357508151156102a5575090565b3b156102ae5790565b60405162461bcd60e51b815260206004820152601d60248201527f416464726573733a2063616c6c20746f206e6f6e2d636f6e74726163740000006044820152606490fd5b8251909150156103065750805190602001fd5b6044604051809262461bcd60e51b825260206004830152610336815180928160248601526020868601910161026e565b601f01601f19168101030190fdfe60806040523615605f5773ffffffffffffffffffffffffffffffffffffffff7f360894a13ba1a3210667c828492db98dca3e2076cc3735a920a3ca505d382bbc54166000808092368280378136915af43d82803e15605b573d90f35b3d90fd5b73ffffffffffffffffffffffffffffffffffffffff7f360894a13ba1a3210667c828492db98dca3e2076cc3735a920a3ca505d382bbc54166000808092368280378136915af43d82803e15605b573d90f3fea164736f6c6343000812000a604060808152610403908138038061001681610218565b93843982019181818403126102135780516001600160a01b038116808203610213576020838101516001600160401b0394919391858211610213570186601f820112156102135780519061007161006c83610253565b610218565b918083528583019886828401011161021357888661008f930161026e565b813b156101b9577f360894a13ba1a3210667c828492db98dca3e2076cc3735a920a3ca505d382bbc80546001600160a01b031916841790556000927fbc7cd75a20ee27fd9adebab32041f755214dbc6bffa90cc0225b39da2e5c2d3b8480a28051158015906101b2575b61010b575b855160be90816103458239f35b855194606086019081118682101761019e578697849283926101889952602788527f416464726573733a206c6f772d6c6576656c2064656c65676174652063616c6c87890152660819985a5b195960ca1b8a8901525190845af4913d15610194573d9061017a61006c83610253565b91825281943d92013e610291565b508038808080806100fe565b5060609250610291565b634e487b7160e01b84526041600452602484fd5b50826100f9565b855162461bcd60e51b815260048101859052602d60248201527f455243313936373a206e657720696d706c656d656e746174696f6e206973206e60448201526c1bdd08184818dbdb9d1c9858dd609a1b6064820152608490fd5b600080fd5b6040519190601f01601f191682016001600160401b0381118382101761023d57604052565b634e487b7160e01b600052604160045260246000fd5b6001600160401b03811161023d57601f01601f191660200190565b60005b8381106102815750506000910152565b8181015183820152602001610271565b919290156102f357508151156102a5575090565b3b156102ae5790565b60405162461bcd60e51b815260206004820152601d60248201527f416464726573733a2063616c6c20746f206e6f6e2d636f6e74726163740000006044820152606490fd5b8251909150156103065750805190602001fd5b6044604051809262461bcd60e51b825260206004830152610336815180928160248601526020868601910161026e565b601f01601f19168101030190fdfe60806040523615605f5773ffffffffffffffffffffffffffffffffffffffff7f360894a13ba1a3210667c828492db98dca3e2076cc3735a920a3ca505d382bbc54166000808092368280378136915af43d82803e15605b573d90f35b3d90fd5b73ffffffffffffffffffffffffffffffffffffffff7f360894a13ba1a3210667c828492db98dca3e2076cc3735a920a3ca505d382bbc54166000808092368280378136915af43d82803e15605b573d90f3fea164736f6c6343000812000aa164736f6c6343000812000a",
    "linkReferences": {}
  },
  "methodIdentifiers": {
    "deployProxy(address,bytes,uint256)": "f925117c",
    "predictProxyAddress(address,bytes32)": "e2594de9"
  },
  "id": 68
}