{
  "abi": [
    {
      "inputs": [],
      "name": "FailedInitialization",
      "type": "error"
    },
    {
      "inputs": [],
      "name": "InvalidImplementation",
      "type": "error"
    },
    {
      "inputs": [],
      "name": "SaltAlreadyUsed",
      "type": "error"
    },
    {
      "anonymous": false,
      "inputs": [
        {
          "indexed": false,
          "internalType": "address",
          "name": "implementation",
          "type": "address"
        },
        {
          "indexed": false,
          "internalType": "address",
          "name": "proxy",
          "type": "address"
        }
      ],
      "name": "ProxyDeployed",
      "type": "event"
    },
    {
      "inputs": [
        {
          "internalType": "address",
          "name": "implementation",
          "type": "address"
        },
        {
          "internalType": "bytes",
          "name": "initializer",
          "type": "bytes"
        },
        {
          "internalType": "bytes32",
          "name": "salt",
          "type": "bytes32"
        }
      ],
      "name": "deployProxy",
      "outputs": [],
      "stateMutability": "nonpayable",
      "type": "function"
    },
    {
      "inputs": [
        {
          "internalType": "address",
          "name": "implementation",
          "type": "address"
        },
        {
          "internalType": "bytes32",
          "name": "salt",
          "type": "bytes32"
        }
      ],
      "name": "predictProxyAddress",
      "outputs": [
        {
          "internalType": "address",
          "name": "",
          "type": "address"
        }
      ],
      "stateMutability": "view",
      "type": "function"
    }
  ],
  "bytecode": {
    "object": "0x6080806040523461001657610d3b908161001c8239f35b600080fdfe6040608081526004908136101561001557600080fd5b600091823560e01c90816360a1f85e1461009f575063e2594de91461003957600080fd5b3461009b57807ffffffffffffffffffffffffffffffffffffffffffffffffffffffffffffffffc36011261009b5760209073ffffffffffffffffffffffffffffffffffffffff61009361008a6102f4565b602435906103f1565b915191168152f35b5080fd5b83833461009b5760607ffffffffffffffffffffffffffffffffffffffffffffffffffffffffffffffffc36011261009b576100d86102f4565b67ffffffffffffffff6024358181116102f057366023820112156102f05780860135916101048361038c565b926101118651948561031c565b808452602084019236602483830101116102ec5781889260246020930186378501015260443573ffffffffffffffffffffffffffffffffffffffff9182861695861580156102e3575b6102bb5761016883826103f1565b3b610293578751916104038084019182118483101761026757916101ba918493610529853973ffffffffffffffffffffffffffffffffffffffff60609216815260406020820152600060408201520190565b039088f5801561025d579186929183921693519082855af13d15610258573d6101e28161038c565b906101ef8651928361031c565b81528560203d92013e5b15610230577f3d2489efb661e8b1c3679865db649ca1de61d76a71184a1234de2e55786a6aad93945082519182526020820152a180f35b8483517f7dabd399000000000000000000000000000000000000000000000000000000008152fd5b6101f9565b85513d88823e3d90fd5b60248b60418e7f4e487b7100000000000000000000000000000000000000000000000000000000835252fd5b8988517f0ced3043000000000000000000000000000000000000000000000000000000008152fd5b8988517f68155f9a000000000000000000000000000000000000000000000000000000008152fd5b50803b1561015a565b8780fd5b8480fd5b6004359073ffffffffffffffffffffffffffffffffffffffff8216820361031757565b600080fd5b90601f7fffffffffffffffffffffffffffffffffffffffffffffffffffffffffffffffe0910116810190811067ffffffffffffffff82111761035d57604052565b7f4e487b7100000000000000000000000000000000000000000000000000000000600052604160045260246000fd5b67ffffffffffffffff811161035d57601f017fffffffffffffffffffffffffffffffffffffffffffffffffffffffffffffffe01660200190565b9081519160005b8381106103de575050016000815290565b80602080928401015181850152016103cd565b61049d6104a9610451610403936040519461040f602082018761031c565b80865261092c60208701396040519182916020830173ffffffffffffffffffffffffffffffffffffffff60609216815260406020820152600060408201520190565b03906104837fffffffffffffffffffffffffffffffffffffffffffffffffffffffffffffffe09283810183528261031c565b6040519384916104976020840180986103c6565b906103c6565b0390810183528261031c565b519020906040519160208301917fff0000000000000000000000000000000000000000000000000000000000000083523060601b60218501526035840152605583015260558252608082019180831067ffffffffffffffff84111761035d5773ffffffffffffffffffffffffffffffffffffffff92604052519020169056fe604060808152610403908138038061001681610218565b93843982019181818403126102135780516001600160a01b038116808203610213576020838101516001600160401b0394919391858211610213570186601f820112156102135780519061007161006c83610253565b610218565b918083528583019886828401011161021357888661008f930161026e565b813b156101b9577f360894a13ba1a3210667c828492db98dca3e2076cc3735a920a3ca505d382bbc80546001600160a01b031916841790556000927fbc7cd75a20ee27fd9adebab32041f755214dbc6bffa90cc0225b39da2e5c2d3b8480a28051158015906101b2575b61010b575b855160be90816103458239f35b855194606086019081118682101761019e578697849283926101889952602788527f416464726573733a206c6f772d6c6576656c2064656c65676174652063616c6c87890152660819985a5b195960ca1b8a8901525190845af4913d15610194573d9061017a61006c83610253565b91825281943d92013e610291565b508038808080806100fe565b5060609250610291565b634e487b7160e01b84526041600452602484fd5b50826100f9565b855162461bcd60e51b815260048101859052602d60248201527f455243313936373a206e657720696d706c656d656e746174696f6e206973206e60448201526c1bdd08184818dbdb9d1c9858dd609a1b6064820152608490fd5b600080fd5b6040519190601f01601f191682016001600160401b0381118382101761023d57604052565b634e487b7160e01b600052604160045260246000fd5b6001600160401b03811161023d57601f01601f191660200190565b60005b8381106102815750506000910152565b8181015183820152602001610271565b919290156102f357508151156102a5575090565b3b156102ae5790565b60405162461bcd60e51b815260206004820152601d60248201527f416464726573733a2063616c6c20746f206e6f6e2d636f6e74726163740000006044820152606490fd5b8251909150156103065750805190602001fd5b6044604051809262461bcd60e51b825260206004830152610336815180928160248601526020868601910161026e565b601f01601f19168101030190fdfe60806040523615605f5773ffffffffffffffffffffffffffffffffffffffff7f360894a13ba1a3210667c828492db98dca3e2076cc3735a920a3ca505d382bbc54166000808092368280378136915af43d82803e15605b573d90f35b3d90fd5b73ffffffffffffffffffffffffffffffffffffffff7f360894a13ba1a3210667c828492db98dca3e2076cc3735a920a3ca505d382bbc54166000808092368280378136915af43d82803e15605b573d90f3fea164736f6c6343000812000a604060808152610403908138038061001681610218565b93843982019181818403126102135780516001600160a01b038116808203610213576020838101516001600160401b0394919391858211610213570186601f820112156102135780519061007161006c83610253565b610218565b918083528583019886828401011161021357888661008f930161026e565b813b156101b9577f360894a13ba1a3210667c828492db98dca3e2076cc3735a920a3ca505d382bbc80546001600160a01b031916841790556000927fbc7cd75a20ee27fd9adebab32041f755214dbc6bffa90cc0225b39da2e5c2d3b8480a28051158015906101b2575b61010b575b855160be90816103458239f35b855194606086019081118682101761019e578697849283926101889952602788527f416464726573733a206c6f772d6c6576656c2064656c65676174652063616c6c87890152660819985a5b195960ca1b8a8901525190845af4913d15610194573d9061017a61006c83610253565b91825281943d92013e610291565b508038808080806100fe565b5060609250610291565b634e487b7160e01b84526041600452602484fd5b50826100f9565b855162461bcd60e51b815260048101859052602d60248201527f455243313936373a206e657720696d706c656d656e746174696f6e206973206e60448201526c1bdd08184818dbdb9d1c9858dd609a1b6064820152608490fd5b600080fd5b6040519190601f01601f191682016001600160401b0381118382101761023d57604052565b634e487b7160e01b600052604160045260246000fd5b6001600160401b03811161023d57601f01601f191660200190565b60005b8381106102815750506000910152565b8181015183820152602001610271565b919290156102f357508151156102a5575090565b3b156102ae5790565b60405162461bcd60e51b815260206004820152601d60248201527f416464726573733a2063616c6c20746f206e6f6e2d636f6e74726163740000006044820152606490fd5b8251909150156103065750805190602001fd5b6044604051809262461bcd60e51b825260206004830152610336815180928160248601526020868601910161026e565b601f01601f19168101030190fdfe60806040523615605f5773ffffffffffffffffffffffffffffffffffffffff7f360894a13ba1a3210667c828492db98dca3e2076cc3735a920a3ca505d382bbc54166000808092368280378136915af43d82803e15605b573d90f35b3d90fd5b73ffffffffffffffffffffffffffffffffffffffff7f360894a13ba1a3210667c828492db98dca3e2076cc3735a920a3ca505d382bbc54166000808092368280378136915af43d82803e15605b573d90f3fea164736f6c6343000812000aa164736f6c6343000812000a",
    "linkReferences": {}
  },
  "methodIdentifiers": {
    "deployProxy(address,bytes,bytes32)": "60a1f85e",
    "predictProxyAddress(address,bytes32)": "e2594de9"
  },
  "id": 66
}