{
  "abi": [
    {
      "inputs": [],
      "name": "SpaceCreationFailed",
      "type": "error"
    },
    {
      "anonymous": false,
      "inputs": [
        {
          "indexed": false,
          "internalType": "address",
          "name": "space",
          "type": "address"
        },
        {
          "indexed": false,
          "internalType": "address",
          "name": "owner",
          "type": "address"
        },
        {
          "indexed": false,
          "internalType": "uint32",
          "name": "votingDelay",
          "type": "uint32"
        },
        {
          "indexed": false,
          "internalType": "uint32",
          "name": "minVotingDuration",
          "type": "uint32"
        },
        {
          "indexed": false,
          "internalType": "uint32",
          "name": "maxVotingDuration",
          "type": "uint32"
        },
        {
          "indexed": false,
          "internalType": "uint256",
          "name": "proposalThreshold",
          "type": "uint256"
        },
        {
          "indexed": false,
          "internalType": "string",
          "name": "metadataUri",
          "type": "string"
        },
        {
          "components": [
            {
              "internalType": "address",
              "name": "addy",
              "type": "address"
            },
            {
              "internalType": "bytes",
              "name": "params",
              "type": "bytes"
            }
          ],
          "indexed": false,
          "internalType": "struct Strategy[]",
          "name": "votingStrategies",
          "type": "tuple[]"
        },
        {
          "indexed": false,
          "internalType": "address[]",
          "name": "authenticators",
          "type": "address[]"
        },
        {
          "components": [
            {
              "internalType": "address",
              "name": "addy",
              "type": "address"
            },
            {
              "internalType": "bytes",
              "name": "params",
              "type": "bytes"
            }
          ],
          "indexed": false,
          "internalType": "struct Strategy[]",
          "name": "executionStrategies",
          "type": "tuple[]"
        }
      ],
      "name": "SpaceCreated",
      "type": "event"
    },
    {
      "inputs": [
        {
          "internalType": "address",
          "name": "controller",
          "type": "address"
        },
        {
          "internalType": "uint32",
          "name": "votingDelay",
          "type": "uint32"
        },
        {
          "internalType": "uint32",
          "name": "minVotingDuration",
          "type": "uint32"
        },
        {
          "internalType": "uint32",
          "name": "maxVotingDuration",
          "type": "uint32"
        },
        {
          "internalType": "uint256",
          "name": "proposalThreshold",
          "type": "uint256"
        },
        {
          "internalType": "string",
          "name": "metadataUri",
          "type": "string"
        },
        {
          "components": [
            {
              "internalType": "address",
              "name": "addy",
              "type": "address"
            },
            {
              "internalType": "bytes",
              "name": "params",
              "type": "bytes"
            }
          ],
          "internalType": "struct Strategy[]",
          "name": "votingStrategies",
          "type": "tuple[]"
        },
        {
          "internalType": "address[]",
          "name": "authenticators",
          "type": "address[]"
        },
        {
          "components": [
            {
              "internalType": "address",
              "name": "addy",
              "type": "address"
            },
            {
              "internalType": "bytes",
              "name": "params",
              "type": "bytes"
            }
          ],
          "internalType": "struct Strategy[]",
          "name": "executionStrategies",
          "type": "tuple[]"
        },
        {
          "internalType": "bytes32",
          "name": "salt",
          "type": "bytes32"
        }
      ],
      "name": "createSpace",
      "outputs": [],
      "stateMutability": "nonpayable",
      "type": "function"
    }
  ],
  "bytecode": {
    "object": "0x6080806040523461001657613ec6908161001c8239f35b600080fdfe60806040526004803610156200001457600080fd5b60003560e01c63e9aed94c146200002a57600080fd5b346200034e576101407ffffffffffffffffffffffffffffffffffffffffffffffffffffffffffffffffc3601126200034e57803573ffffffffffffffffffffffffffffffffffffffff811681036200034e576024359063ffffffff80831683036200034e5760443581811681036200034e5760643582811681036200034e5767ffffffffffffffff928360a435116200034e5736602360a4350112156200034e578360a435880135116200034e573660a4358881013501602401116200034e5760c4358481116200034e5762000104903690890162000375565b60e4358681116200034e576200011e9036908b0162000375565b939094610104358881116200034e576200013c9036908d0162000375565b979098608061394f608001109061394f6080011117620003205761394f6200056b60803973ffffffffffffffffffffffffffffffffffffffff8a1661394f6080810191909152838c1660a082015281841660c082015282841660e082015260843561010080830191909152610120820152620001dd90620001c390610180018688620003e8565b61394f608001810360c061394f6080010152878962000513565b61394f608001810360e061394f60800101526101243590620002036080918b8d620003e8565b0360806000f59a8b62000239578c6040517f87a22725000000000000000000000000000000000000000000000000000000008152fd5b92809291818e956040519e8f9e8f9173ffffffffffffffffffffffffffffffffffffffff16825273ffffffffffffffffffffffffffffffffffffffff1690602001521660408d01521660608b015216608089015260843560a089015260c08801610140905261014088019060a43501359060a43560240191620002bc92620003a9565b9087820360e0890152620002d092620003e8565b90858203610100870152620002e59262000513565b90838203610120850152620002fa92620003e8565b037f65e9b298b644f0dadc140d4a6e070d31c23d07c03fb8514a7ace0d4b4c98e78891a1005b60418c7f4e487b71000000000000000000000000000000000000000000000000000000006000525260246000fd5b600080fd5b359073ffffffffffffffffffffffffffffffffffffffff821682036200034e57565b9181601f840112156200034e5782359167ffffffffffffffff83116200034e576020808501948460051b0101116200034e57565b601f82602094937fffffffffffffffffffffffffffffffffffffffffffffffffffffffffffffffe0938186528686013760008582860101520116010190565b9082818152602080910193818360051b82010194846000925b85841062000413575050505050505090565b909192939495967fffffffffffffffffffffffffffffffffffffffffffffffffffffffffffffffe082820301845287357fffffffffffffffffffffffffffffffffffffffffffffffffffffffffffffffc1843603018112156200034e57830173ffffffffffffffffffffffffffffffffffffffff620004928262000353565b168252868101357fffffffffffffffffffffffffffffffffffffffffffffffffffffffffffffffe1823603018112156200034e5701868101903567ffffffffffffffff81116200034e5780360382136200034e57620005018892839260019560409081868201520191620003a9565b99019401940192959493919062000401565b91908082526020809201929160005b82811062000531575050505090565b90919293828060019273ffffffffffffffffffffffffffffffffffffffff6200055a8962000353565b168152019501939291016200052256fe6040608081523462000775576200394f803803806200001e8162000795565b9283398101916101008284031262000775576200003b82620007bb565b6200004960208401620007d0565b62000056838501620007d0565b906200006560608601620007d0565b608086015160a08701519091906001600160401b0381116200077557886200008f918901620007fa565b60c08801519097906001600160401b038111620007755781019880601f8b0112156200077557895199620000cd620000c78c620007e2565b62000795565b9a6020808d838152019160051b830101918383116200077557602001905b8282106200077a5750505060e08201516001600160401b0381116200077557620001169201620007fa565b9462000122336200094f565b60018055600054336001600160a01b039091160362000732576001600160a01b03811615620006df5762000156906200094f565b6002549063ffffffff94858360201c169186811692808410620006ba5750508186821611620006955767ffffffff000000009060201b169160018060401b03191617176002556004551663ffffffff196005541617600555825115620006735760005b8351811015620003fa576001600160a01b03620001d78286620009c1565b51511615620003e957620001ec8185620009c1565b516006805468010000000000000000811015620003bd5760018101808355811015620003d3576000918252602091829020835160019290921b0180546001600160a01b0319166001600160a01b03929092169190911781559101518051906001600160401b038211620003bd576001830154600181811c91168015620003b2575b60208210146200039c57601f81116200034c575b50602090601f8311600114620002d2579180600192620002c0969594600092620002c6575b5050600019600383901b1c191690821b179101556200099b565b620001b9565b015190503880620002a6565b906001840160005260206000209160005b601f1985168110620003335750926001928392620002c097969583601f1981161062000319575b505050811b019101556200099b565b015160001960f88460031b161c191690553880806200030a565b91926020600181928685015181550194019201620002e3565b600184016000526020600020601f840160051c8101916020851062000391575b601f0160051c01905b81811062000384575062000281565b6000815560010162000375565b90915081906200036c565b634e487b7160e01b600052602260045260246000fd5b90607f16906200026d565b634e487b7160e01b600052604160045260246000fd5b634e487b7160e01b600052603260045260246000fd5b8251633408148f60e01b8152600490fd5b5083805115620006845760005b81518110156200044f5762000449906001600160a01b036200042a8285620009c1565b5116600052600860205284600020600160ff198254161790556200099b565b62000407565b50508051156200067357906000915b80518310156200065f576001600160a01b036200047c8483620009c1565b515116156200064e57620004918382620009c1565b51926007805468010000000000000000811015620003bd5760018101808355811015620003d3576000918252602091829020865160019290921b0180546001600160a01b0319166001600160a01b0392909216919091178155940151805194906001600160401b038611620003bd576001820154600181811c9116801562000643575b60208210146200039c57601f8111620005f3575b50602090601f87116001146200057a579580600192620005669697986000926200056e575050600019600383901b1c191690821b179101556200099b565b91906200045e565b015190508880620002a6565b906001830160005260206000209160005b601f1989168110620005da57509660019283926200056697989983601f19811610620005c057505050811b019101556200099b565b015160001960f88460031b161c191690558880806200030a565b919260206001819286850151815501940192016200058b565b600183016000526020600020601f880160051c8101916020891062000638575b601f0160051c01905b8181106200062b575062000528565b600081556001016200061c565b909150819062000613565b90607f169062000514565b8151633408148f60e01b8152600490fd5b50600160035551612f789081620009d78239f35b815163521299a960e01b8152600490fd5b825163521299a960e01b8152600490fd5b875163c564bfaf60e01b815263ffffffff918216600482015291166024820152604490fd5b895163c564bfaf60e01b815263ffffffff918216600482015291166024820152604490fd5b865162461bcd60e51b815260206004820152602660248201527f4f776e61626c653a206e6577206f776e657220697320746865207a65726f206160448201526564647265737360d01b6064820152608490fd5b6064875162461bcd60e51b815260206004820152602060248201527f4f776e61626c653a2063616c6c6572206973206e6f7420746865206f776e65726044820152fd5b600080fd5b602080916200078984620007bb565b815201910190620000eb565b6040519190601f01601f191682016001600160401b03811183821017620003bd57604052565b51906001600160a01b03821682036200077557565b519063ffffffff821682036200077557565b6001600160401b038111620003bd5760051b60200190565b90601f9080828401121562000775578251916200081b620000c784620007e2565b9283948185526020808096019260051b820101938085116200077557858201925b8584106200084e575050505050505090565b83516001600160401b03908181116200077557840190601f19906040838603830181136200077557805193818501858110848211176200093a578252620008978c8201620007bb565b855281810151908382116200077557019286603f8501121562000775578b8401519283116200093a578b620008d1918b8501160162000795565b92828452868284830101116200077557949290918b94926000965b82881062000921575050848181971162000912575b90508201528152019301926200083c565b60009183010152388462000901565b80880182015184890188015295909601958c95620008ec565b60246000634e487b7160e01b81526041600452fd5b600080546001600160a01b039283166001600160a01b03198216811783556040519093909116917f8be0079c531659141344cd1fd0a4f28419497f9722a3daafe3b4186f6b6457e091a3565b6000198114620009ab5760010190565b634e487b7160e01b600052601160045260246000fd5b8051821015620003d35760209160051b01019056fe6080604052600436101561001257600080fd5b6000803560e01c80630fdca0a114611f5e5780631130630c14611eec578063127d0ff714611e675780631984b24e14611a7a5780632ab09d1414611a5c5780633018205f14610ee257806336bd45e5146118265780633932abb114611802578063401853b71461169557806340e58ee5146115e45780634385963214611574578063539b0837146114a457806359efcb15146111675780636df7bab314611141578063715018a6146110bd57806373c9e70b14610fe85780638a255e7514610f155780638da5cb5b14610ee257806392eefe9b14610e615780639d49257c14610e3d5780639deb0f7a14610d4b578063b58131b014610d2d578063b845ca2614610bdd578063c7f758a814610b3a578063d352976d14610a1f578063ea4a3aba14610363578063ece40cc114610313578063f2fde38b146102435763f8ce560a1461015c57600080fd5b346102405760209081600319360112610240576004358152600982526101e88261018860408420612b71565b61019181612c3e565b73ffffffffffffffffffffffffffffffffffffffff60a0820151511660405180809581947faa92548c00000000000000000000000000000000000000000000000000000000835286600484015260248301906121a0565b03915afa9182156102345791610202575b50604051908152f35b90508181813d831161022d575b61021981836123cf565b810103126102285751386101f9565b600080fd5b503d61020f565b604051903d90823e3d90fd5b80fd5b50346102405760206003193601126102405761025d61206b565b61026561226b565b73ffffffffffffffffffffffffffffffffffffffff81161561028f5761028a906122ea565b604051f35b60846040517f08c379a000000000000000000000000000000000000000000000000000000000815260206004820152602660248201527f4f776e61626c653a206e6577206f776e657220697320746865207a65726f206160448201527f64647265737300000000000000000000000000000000000000000000000000006064820152fd5b5034610240576020600319360112610240577f75176781f69c55e26fee85d480452b0b9038b9428704bb7b232fc1c638bbf803602060043561035361226b565b80600455604051908152a1604051f35b503461024057600319906080823601126102405761037f61206b565b67ffffffffffffffff90602435828111610a17576103a190369060040161203d565b9290948160443511610a1b5760409060443536030112610a1757606435908111610a17576103d39036906004016120af565b906103dc612d21565b6103ea604435600401612c79565b60075460ff8216908110156109e6575061041873ffffffffffffffffffffffffffffffffffffffff916126f5565b505416156109bc579061043461042f368385612d6e565b612ead565b849185915b808310610853575050506004548110610822575061046563ffffffff6005541663ffffffff4216612c87565b6104fd60025461048a63ffffffff610482818460201c1686612c87565b921684612c87565b63ffffffff6104ad6104a6602460443501604435600401612ca0565b369161240a565b6020815191012091816104cc6104c7604435600401612c79565b6126f5565b509481604051986104dc8a612396565b8142168a521660208901521660408701521660608501526080840152612b26565b60a08201528360c082015260065494610515866123f2565b9561052360405197886123cf565b8087526020870160066000527ff652222313e28459528d920b65115c16c04f3efc82aaedc97be59f3f377c0d3f6000915b838310610804575050505060e0820195865260035485526009602052604085209563ffffffff83511687549067ffffffff00000000602086015160201b166bffffffff0000000000000000604087015160401b16917fffffffffffffffffffffffffffffffff000000000000000000000000000000006fffffffff000000000000000000000000606089015160601b1694161717171787556080830151600188015561060760a084015160028901612799565b6004870160c084015161061981612167565b61062281612167565b60ff60ff198354169116179055518051906801000000000000000082116107d75760058801548260058a015580831061073c575b5060206005910197018652602086209686905b82821061071e5787610716887fb516f04475070b54e3af7c1e57c4fd0447412d1e83613eab5d366af90aacbfa673ffffffffffffffffffffffffffffffffffffffff8a61070e8b6106f26107008d600354986106cf602460443501604435600401612ca0565b949095604051998a998d8b521660208a015260a060408a015260a08901906121a0565b918783036060890152612359565b918483036080860152612359565b0390a161263a565b600355604051f35b6002602082610730600194518d612799565b01990191019097610669565b61074590612cf1565b61074e83612cf1565b9060058a018952602089209182015b818301811061076d575050610656565b808a600292558a60018201610782815461272f565b80610791575b5050500161075d565b601f8082116001146107ad57505060009150555b8a3880610788565b9060016107c99284865260208620920160051c82019101612782565b6000602083209155556107a5565b6024877f4e487b710000000000000000000000000000000000000000000000000000000081526041600452fd5b6002602060019261081485612b26565b815201920192019190610554565b602490604051907f3222f9a10000000000000000000000000000000000000000000000000000000082526004820152fd5b90919260ff61086b610866868587612e13565b612c79565b1660065481101561098b57610888610882826126bb565b50612b26565b9073ffffffffffffffffffffffffffffffffffffffff8251161561098b575073ffffffffffffffffffffffffffffffffffffffff815116602080809301516108dd6108d489888a612e13565b83810190612ca0565b9390918c8b610922604051978896879586947f871d81b700000000000000000000000000000000000000000000000000000000865263ffffffff421660048701612e53565b03925af1918215610980578992610950575b50506109439061094992612ea1565b9361263a565b9190610439565b90809250813d8311610979575b61096781836123cf565b81010312610228575181610943610934565b503d61095d565b6040513d8b823e3d90fd5b602490604051907fbe04e1dc0000000000000000000000000000000000000000000000000000000082526004820152fd5b60046040517f22972845000000000000000000000000000000000000000000000000000000008152fd5b602490604051907f6b45b8f90000000000000000000000000000000000000000000000000000000082526004820152fd5b8380fd5b8480fd5b503461024057602080600319360112610b365760043567ffffffffffffffff8111610b3257610a529036906004016120af565b610a5a61226b565b610a65368284612933565b805115610b0857845b815160ff80831691821015610acd57610ac89291610abd610ac392610ab660405193610a99856123b3565b8c855260405194610aa98661237a565b8d86528c86015288612678565b51166126f5565b906128e5565b6129cf565b610a6e565b877ff80dbac2cbb0fad2042da0cf18764cbcb28659e4da56481f93ec8a156f17ca708688610b0060405192839283612989565b0390a1604051f35b60046040517f521299a9000000000000000000000000000000000000000000000000000000008152fd5b8280fd5b5080fd5b50346102405760209081600319360112610240576040610bc491600435606060e08451610b6681612396565b8481528488820152848682015284838201528460808201528551610b898161237a565b858152838982015260a08201528460c0820152015280825260098552610bb8610bb3848420612b71565b612c3e565b81526009845220612b71565b90610bd96040519282849384528301906121a0565b0390f35b50346102405760206003193601126102405760043567ffffffffffffffff8111610b3657610c0f9036906004016120af565b9091610c1961226b565b610c2436838561246c565b91825115610b0857815b8351811015610cfa5773ffffffffffffffffffffffffffffffffffffffff610c568286612678565b51511615610cd057610c688185612678565b519060079182549068010000000000000000821015610ca157610abd82610c9c956001610c97950190556126f5565b61263a565b610c2e565b7f4e487b7100000000000000000000000000000000000000000000000000000000600052604160045260246000fd5b60046040517f3408148f000000000000000000000000000000000000000000000000000000008152fd5b507f1a75ddcdf790f6765c182108d39d32212472a7ceeca3f4e1495a9566d39ebef59084610b0060405192839283612511565b50346102405780600319360112610240576020600454604051908152f35b50346102405760206003193601126102405760043567ffffffffffffffff8111610b3657610d7d9036906004016120af565b9091610d8761226b565b610d9236838561246c565b91825115610b0857815b8351811015610e0a5773ffffffffffffffffffffffffffffffffffffffff610dc48286612678565b51511615610cd057610dd68185612678565b519060069182549068010000000000000000821015610ca157610abd82610e05956001610c97950190556126bb565b610d9c565b507f9fae90e6a969fc8c825d166f95ab14662bfc328ef3d02819492a2618b3b7cce69084610b0060405192839283612511565b5034610240578060031936011261024057602063ffffffff60025416604051908152f35b503461024057602060031936011261024057610e7b61206b565b610e8361226b565b610e8b61226b565b73ffffffffffffffffffffffffffffffffffffffff811690811561028f577f1304018cfe79741dcf02ba6b61d39cc4757d59395d03224d9925c7aa8300214691610ed66020926122ea565b604051908152a1604051f35b503461024057806003193601126102405773ffffffffffffffffffffffffffffffffffffffff6020915416604051908152f35b503461024057602080600319360112610b365760043567ffffffffffffffff8111610b3257610f489036906004016120af565b610f5392919261226b565b610f5e3682856129e0565b90815115610b0857845b8251811015610fb5578073ffffffffffffffffffffffffffffffffffffffff610f94610fb09386612678565b511687526008855260408720600160ff1982541617905561263a565b610f68565b857f0f1800fbca5c51a50ca47d2d359d89a9872ebc0d41b791582770add9d9d7e7bc8387610b0060405192839283612a36565b50346102405760206003193601126102405760043563ffffffff80821691828103610a175761101561226b565b600254918260201c1680841061107e57847f50b3808988e8880c34e4b58088d8eeeb40410dd2a2238a299db9187644259b05602086807fffffffffffffffffffffffffffffffffffffffffffffffffffffffff00000000881617600255604051908152a1604051f35b6040517fc564bfaf00000000000000000000000000000000000000000000000000000000815263ffffffff918216600482015291166024820152604490fd5b50346102405780600319360112610240576110d661226b565b6000547fffffffffffffffffffffffff00000000000000000000000000000000000000008116600055600073ffffffffffffffffffffffffffffffffffffffff60405192167f8be0079c531659141344cd1fd0a4f28419497f9722a3daafe3b4186f6b6457e08284a3f35b5034610240578060031936011261024057602060025463ffffffff60405191831c168152f35b50346102405760406003193601126102405760243567ffffffffffffffff8111610b365761119990369060040161203d565b91906002600154146114465760026001556004358252600960205260408220926111c5610bb385612b71565b73ffffffffffffffffffffffffffffffffffffffff600285015416906004358452600b60205260408420600185526020526040842054906004358552600b602052604085208580526020526040852054936004358652600b60205260408620600287526020526040862054843b15611442579160ff97918795936040519788967f3f6253c200000000000000000000000000000000000000000000000000000000885260a06004890152855463ffffffff9081811660a48b0152818160201c1660c48b0152818160401c1660e48b015260601c16610104890152600186015461012489015261010061014489015260056112c66101a48a0160028901612f3b565b96600481019d8e54166112d881612167565b6101648b015201957fffffffffffffffffffffffffffffffffffffffffffffffffffffffffffffff5c898203016101848a01528654808252602082019160208260051b820101988c5260208c20928c915b83831061140357505050505093879591936113629387958b97602488015260448701526064860152600319858403016084860152612359565b03925af180156113f8576113b3575b5090600160ff198254161790557f712ae1383f79ac853f8d882153778e0260ef8f03b504e2866e0593e04d2b291f60206040516004358152a160018055604051f35b67ffffffffffffffff81116113cb5760405238611371565b6024827f4e487b710000000000000000000000000000000000000000000000000000000081526041600452fd5b6040513d84823e3d90fd5b929597996001929597999b9d50849c5061142b8160209396601f198760029503018852612f3b565b9c01930193018d9b999795938d9b99979592611329565b8680fd5b60646040517f08c379a000000000000000000000000000000000000000000000000000000000815260206004820152601f60248201527f5265656e7472616e637947756172643a207265656e7472616e742063616c6c006044820152fd5b503461024057602080600319360112610b365760043567ffffffffffffffff8111610b32576114d79036906004016120af565b6114e292919261226b565b6114ed3682856129e0565b90815115610b0857845b8251811015611541578073ffffffffffffffffffffffffffffffffffffffff61152361153c9386612678565b51168752600885526040872060ff19815416905561263a565b6114f7565b857f2befc5f117311dbd6cabfd7bc4cec09eeefc83a55c9140bbf298951571f5cb868387610b0060405192839283612a36565b5034610240576040600319360112610240576004356024359073ffffffffffffffffffffffffffffffffffffffff8216809203610b32578260ff928260409360209652600986526115c9610bb3858520612b71565b8252600a855282822090825284522054166040519015158152f35b50346102405760206003193601126102405760043561160161226b565b808252600960205260046040832061161b610bb382612b71565b019081549060ff821661162d81612167565b61166b577f416e669c63d9a3a5e36ee7cc7e2104b8db28ccd286aa18966e98fa230c73b08c92600260ff1960209416179055604051908152a1604051f35b60046040517fac18c457000000000000000000000000000000000000000000000000000000008152fd5b503461024057602090816003193601126102405760043580825260098352826116c060408420612b71565b916116ca83612c3e565b73ffffffffffffffffffffffffffffffffffffffff60a08401515116818552600b83526040852060018652835261176a604086205494838752600b85526040872087805285526040872054938752600b855260408720600288528552604087205495604051968795869485947f414ac1cc0000000000000000000000000000000000000000000000000000000086526080600487015260848601906121a0565b9260248501526044840152606483015203915afa9081156113f85782916117cc575b5060405191600782101561179f57508152f35b807f4e487b7100000000000000000000000000000000000000000000000000000000602492526021600452fd5b90508281813d83116117fb575b6117e381836123cf565b81010312610b3657516007811015610b36573861178c565b503d6117d9565b5034610240578060031936011261024057602063ffffffff60055416604051908152f35b503461024057602080600319360112610b365767ffffffffffffffff91600435838111610b365761185b9036906004016120af565b9261186461226b565b61186f368584612933565b91825115610b0857949392919082955b82519660ff80821698891015611a2957806118a86118e8926118a18c89612678565b51166126bb565b507fffffffffffffffffffffffff000000000000000000000000000000000000000081541690556118a16040519a6118df8c6123b3565b888c5287612678565b5088516001918201918982116119fc57611902835461272f565b9a601f9b8c81116119c4575b50869b831160011461195d5782899a9b9c819261194598999a9b93611950575b505060001991921b9260031b1c19161790556129cf565b95949392919061187f565b015191506000193861192e565b601f19839293169b848a52878a20918d8b905b81106119ae57508361194598999a9b9c9d9e10611995575b505050811b0190556129cf565b015160001960f88460031b161c19169055388080611988565b818301518455928501929189019189018e611970565b6119ed90858b528d898c2090600590808801821c8301938c89106119f3575b01901c0190612782565b3861190e565b935082936119e3565b6024887f4e487b710000000000000000000000000000000000000000000000000000000081526041600452fd5b857f24c5d4b9c170a0ef0634046f1a7a184dd341c99da7242482e42cc2782076cea38885610b0060405192839283612989565b50346102405780600319360112610240576020600354604051908152f35b503461024057608060031936011261024057611a9461206b565b60036044351015610b365760643567ffffffffffffffff8111610b3257611abf9036906004016120af565b611ac7612d21565b60243584526009602052611add60408520612b71565b91611ae783612c3e565b63ffffffff80421681606086015116811015611e3d578160208601511611611e135760c0840151611b1781612167565b611b2081612167565b61166b576024358652600a6020526040862073ffffffffffffffffffffffffffffffffffffffff86168752602052600160ff604088205416151514611de95760e09084939294511692015192611b7a61042f368484612d6e565b859386935b838510611cce578787878015611ca4577f79533ed92b5d1878e96ddacfd073144fd0caae2e033f7fc9770afd6120e02e07916080916024358552600b60205260408520611bcd604435612167565b6044358652602052611be3816040872054612ea1565b6024358652600b60205260408620611bfc604435612167565b604435875260205260408620556024358552600a6020526040852073ffffffffffffffffffffffffffffffffffffffff8316865260205260408520600160ff19825416179055604051611c4e8161237a565b611c59604435612167565b60443581526020810191825273ffffffffffffffffffffffffffffffffffffffff60405193602435855216602084015251611c9381612167565b6040830152516060820152a1604051f35b60046040517fdf0cf4fb000000000000000000000000000000000000000000000000000000008152fd5b909192939460ff611ce3610866888888612e13565b16835181101561098b57611cf78185612678565b519073ffffffffffffffffffffffffffffffffffffffff8251161561098b575060208073ffffffffffffffffffffffffffffffffffffffff835116920151611d436108d48a8a8a612e13565b9390918c8c611d82604051978896879586947f871d81b70000000000000000000000000000000000000000000000000000000086528d60048701612e53565b03925af1908115610980578991611db1575b50611da290611da892612ea1565b9561263a565b93929190611b7f565b90506020813d602011611de1575b81611dcc602093836123cf565b81010312611ddd5751611da8611d94565b8880fd5b3d9150611dbf565b60046040517f1f652102000000000000000000000000000000000000000000000000000000008152fd5b60046040517f688c575a000000000000000000000000000000000000000000000000000000008152fd5b60046040517f6613a282000000000000000000000000000000000000000000000000000000008152fd5b50346102405760206003193601126102405760043563ffffffff8116809103610b365760207fba76433d63148cc0d7df02d39ab5cddf8737df279d4af4c7bce819a2ef719e9591611eb661226b565b807fffffffffffffffffffffffffffffffffffffffffffffffffffffffff000000006005541617600555604051908152a1604051f35b50346102405760206003193601126102405760043567ffffffffffffffff8111610b3657611f3f7f48674fffb03fee00a113cc146f3aa94a9720a4cb3839fbb855c436859d39a97791369060040161203d565b611f4761226b565b610b00604051928392602084526020840191612359565b50346102405760206003193601126102405760043563ffffffff80821691828103610a1757611f8b61226b565b600254918216808411611ffe5750916020917fffffffffffffffffffffffffffffffffffffffffffffffff00000000ffffffff67ffffffff000000007fa596cfacd06610b4e094472b3f6712f263b9a8af5fbd18924780c678a4fc55e695851b16911617600255604051908152a1604051f35b6040517fc564bfaf00000000000000000000000000000000000000000000000000000000815263ffffffff928316600482015291166024820152604490fd5b9181601f840112156102285782359167ffffffffffffffff8311610228576020838186019501011161022857565b6004359073ffffffffffffffffffffffffffffffffffffffff8216820361022857565b359073ffffffffffffffffffffffffffffffffffffffff8216820361022857565b9181601f840112156102285782359167ffffffffffffffff8311610228576020808501948460051b01011161022857565b91908251928382526000905b8482106121195750601f8460209495601f19931161210c575b0116010190565b6000858286010152612105565b906020908180828501015190828601015201906120ec565b90604060206121649373ffffffffffffffffffffffffffffffffffffffff815116845201519181602082015201906120e0565b90565b6003111561217157565b7f4e487b7100000000000000000000000000000000000000000000000000000000600052602160045260246000fd5b63ffffffff8082511683526020908082840151168285015280604084015116604085015260608301511660608401526080820151608084015260e06121f460a08401516101008060a0880152860190612131565b9260c081015161220381612167565b60c086015201519260e08184039101528251908183528083019281808460051b8301019501936000915b84831061223d5750505050505090565b909192939495848061225b83601f1986600196030187528a51612131565b980193019301919493929061222d565b73ffffffffffffffffffffffffffffffffffffffff60005416330361228c57565b60646040517f08c379a000000000000000000000000000000000000000000000000000000000815260206004820152602060248201527f4f776e61626c653a2063616c6c6572206973206e6f7420746865206f776e65726044820152fd5b6000549073ffffffffffffffffffffffffffffffffffffffff80911691827fffffffffffffffffffffffff0000000000000000000000000000000000000000821617600055167f8be0079c531659141344cd1fd0a4f28419497f9722a3daafe3b4186f6b6457e06000604051a3565b601f8260209493601f19938186528686013760008582860101520116010190565b6040810190811067ffffffffffffffff821117610ca157604052565b610100810190811067ffffffffffffffff821117610ca157604052565b6020810190811067ffffffffffffffff821117610ca157604052565b90601f601f19910116810190811067ffffffffffffffff821117610ca157604052565b67ffffffffffffffff8111610ca15760051b60200190565b92919267ffffffffffffffff8211610ca157604051916124346020601f19601f84011601846123cf565b829481845281830111610228578281602093846000960137010152565b9080601f83011215610228578160206121649335910161240a565b90929192612479816123f2565b91604091612489835194856123cf565b839581855260208095019160051b8301938185116102285783925b8584106124b45750505050505050565b67ffffffffffffffff9084358281116102285786019083828603126102285783516124de8161237a565b6124e78361208e565b81528983013593841161022857612502868b95869501612451565b838201528152019301926124a4565b916020818185018286525260409384810194808460051b83010195856000935b86851061254357505050505050505090565b90919293949596977fffffffffffffffffffffffffffffffffffffffffffffffffffffffffffffffc082820301845288357fffffffffffffffffffffffffffffffffffffffffffffffffffffffffffffffc18436030181121561022857830173ffffffffffffffffffffffffffffffffffffffff6125c08261208e565b168252878101357fffffffffffffffffffffffffffffffffffffffffffffffffffffffffffffffe1823603018112156102285701878101903567ffffffffffffffff811161022857803603821361022857612628899283928986818660019901520191612359565b9a019401950193929695949190612531565b60001981146126495760010190565b7f4e487b7100000000000000000000000000000000000000000000000000000000600052601160045260246000fd5b805182101561268c5760209160051b010190565b7f4e487b7100000000000000000000000000000000000000000000000000000000600052603260045260246000fd5b60065481101561268c57600660005260011b7ff652222313e28459528d920b65115c16c04f3efc82aaedc97be59f3f377c0d3f0190600090565b60075481101561268c57600760005260011b7fa66cc928b5edb82af9bd49922954155ab7b0942694bea4ce44661d9a8736c6880190600090565b90600182811c92168015612778575b602083101461274957565b7f4e487b7100000000000000000000000000000000000000000000000000000000600052602260045260246000fd5b91607f169161273e565b81811061278d575050565b60008155600101612782565b9073ffffffffffffffffffffffffffffffffffffffff8151167fffffffffffffffffffffffff00000000000000000000000000000000000000008354161782556001809201916020809201519182519267ffffffffffffffff8411610ca157612802855461272f565b601f81116128aa575b5081601f85116001146128455750600091849182612838575b505060001991921b9260031b1c1916179055565b0151915060001938612824565b919084601f19819596168760005284600020946000905b888383106128905750505010612877575b505050811b019055565b015160001960f88460031b161c1916905538808061286d565b85870151885590960195948501948793509081019061285c565b6128d5908660005283600020601f870160051c8101918588106128db575b601f0160051c0190612782565b3861280b565b90915081906128c8565b91906128f6576128f491612799565b565b7f4e487b7100000000000000000000000000000000000000000000000000000000600052600060045260246000fd5b359060ff8216820361022857565b929161293e826123f2565b9161294c60405193846123cf565b829481845260208094019160051b810192831161022857905b8282106129725750505050565b83809161297e84612925565b815201910190612965565b90916040602092828482018583525201929160005b8281106129ac575050505090565b90919293828060019260ff6129c089612925565b1681520195019392910161299e565b60ff1660ff81146126495760010190565b92916129eb826123f2565b916129f960405193846123cf565b829481845260208094019160051b810192831161022857905b828210612a1f5750505050565b838091612a2b8461208e565b815201910190612a12565b90916040602092828482018583525201929160005b828110612a59575050505090565b90919293828060019273ffffffffffffffffffffffffffffffffffffffff612a808961208e565b16815201950193929101612a4b565b9060009291805491612aa08361272f565b918282526001938481169081600014612b025750600114612ac2575b50505050565b90919394506000526020928360002092846000945b838610612aee575050505001019038808080612abc565b805485870183015294019385908201612ad7565b915050602094955060ff199193501683830152151560051b01019038808080612abc565b9060016020604051612b378161237a565b612b6d819573ffffffffffffffffffffffffffffffffffffffff8154168352612b666040518096819301612a8f565b03846123cf565b0152565b9060405191612b7f83612396565b8281549163ffffffff80841683526020938181861c1685850152818160401c16604085015260601c1660608301526001908181015460808401526005600291612bc9838201612b26565b60a086015260ff600482015416612bdf81612167565b60c08601520190815491612bf2836123f2565b95612c0060405197886123cf565b83875260009182528082208188015b858410612c23575050505050505060e00152565b84838892612c3085612b26565b815201920193019290612c0f565b6020015163ffffffff1615612c4f57565b60046040517fee032808000000000000000000000000000000000000000000000000000000008152fd5b3560ff811681036102285790565b9063ffffffff8080931691168092038111612649570190565b9035907fffffffffffffffffffffffffffffffffffffffffffffffffffffffffffffffe181360301821215610228570180359067ffffffffffffffff82116102285760200191813603831361022857565b7f7fffffffffffffffffffffffffffffffffffffffffffffffffffffffffffffff81116001166126495760011b90565b336000526008602052600160ff60406000205416151503612d3e57565b60246040517f633854de000000000000000000000000000000000000000000000000000000008152336004820152fd5b90929192612d7b816123f2565b91604091612d8b835194856123cf565b839581855260208095019160051b8301938185116102285783925b858410612db65750505050505050565b67ffffffffffffffff908435828111610228578601908382860312610228578351612de08161237a565b612de983612925565b81528983013593841161022857612e04868b95869501612451565b83820152815201930192612da6565b919081101561268c5760051b810135907fffffffffffffffffffffffffffffffffffffffffffffffffffffffffffffffc181360301821215610228570190565b93919273ffffffffffffffffffffffffffffffffffffffff612164969463ffffffff612e93941687521660208601526080604086015260808501906120e0565b926060818503910152612359565b81198111612649570190565b906002825110612f3757600091825b8151841015612f315760ff90600182612ed58786612678565b5151161b91828216612ef357501792612eed9061263a565b92612ebc565b602490612f008786612678565b515116604051907f1ed4de830000000000000000000000000000000000000000000000000000000082526004820152fd5b50509050565b9050565b600160406121649373ffffffffffffffffffffffffffffffffffffffff8454168152816020820152019101612a8f56fea164736f6c634300080f000aa164736f6c634300080f000a",
    "linkReferences": {}
  },
  "methodIdentifiers": {
    "createSpace(address,uint32,uint32,uint32,uint256,string,(address,bytes)[],address[],(address,bytes)[],bytes32)": "e9aed94c"
  },
  "id": 44
}