{
  "abi": [
    {
      "inputs": [
        {
          "internalType": "address",
          "name": "auth",
          "type": "address"
        }
      ],
      "name": "AuthenticatorNotWhitelisted",
      "type": "error"
    },
    {
      "inputs": [
        {
          "internalType": "uint8",
          "name": "index",
          "type": "uint8"
        }
      ],
      "name": "DuplicateFound",
      "type": "error"
    },
    {
      "inputs": [],
      "name": "EmptyArray",
      "type": "error"
    },
    {
      "inputs": [],
      "name": "ExecutionStrategyNotWhitelisted",
      "type": "error"
    },
    {
      "inputs": [],
      "name": "FailedToPassProposalValidation",
      "type": "error"
    },
    {
      "inputs": [],
      "name": "InvalidCaller",
      "type": "error"
    },
    {
      "inputs": [
        {
          "internalType": "uint32",
          "name": "minVotingDuration",
          "type": "uint32"
        },
        {
          "internalType": "uint32",
          "name": "maxVotingDuration",
          "type": "uint32"
        }
      ],
      "name": "InvalidDuration",
      "type": "error"
    },
    {
      "inputs": [
        {
          "internalType": "uint256",
          "name": "index",
          "type": "uint256"
        }
      ],
      "name": "InvalidExecutionStrategyIndex",
      "type": "error"
    },
    {
      "inputs": [],
      "name": "InvalidProposal",
      "type": "error"
    },
    {
      "inputs": [],
      "name": "InvalidStrategyAddress",
      "type": "error"
    },
    {
      "inputs": [
        {
          "internalType": "uint256",
          "name": "index",
          "type": "uint256"
        }
      ],
      "name": "InvalidStrategyIndex",
      "type": "error"
    },
    {
      "inputs": [],
      "name": "MinVotingDurationHasNotElapsed",
      "type": "error"
    },
    {
      "inputs": [],
      "name": "ProposalAlreadyFinalized",
      "type": "error"
    },
    {
      "inputs": [],
      "name": "ProposalFinalized",
      "type": "error"
    },
    {
      "inputs": [],
      "name": "QuorumNotReachedYet",
      "type": "error"
    },
    {
      "inputs": [],
      "name": "UserHasAlreadyVoted",
      "type": "error"
    },
    {
      "inputs": [],
      "name": "UserHasNoVotingPower",
      "type": "error"
    },
    {
      "inputs": [],
      "name": "VotingDelayHasPassed",
      "type": "error"
    },
    {
      "inputs": [],
      "name": "VotingPeriodHasEnded",
      "type": "error"
    },
    {
      "inputs": [],
      "name": "VotingPeriodHasNotStarted",
      "type": "error"
    },
    {
      "anonymous": false,
      "inputs": [
        {
          "indexed": false,
          "internalType": "address",
          "name": "previousAdmin",
          "type": "address"
        },
        {
          "indexed": false,
          "internalType": "address",
          "name": "newAdmin",
          "type": "address"
        }
      ],
      "name": "AdminChanged",
      "type": "event"
    },
    {
      "anonymous": false,
      "inputs": [
        {
          "indexed": false,
          "internalType": "address[]",
          "name": "newAuthenticators",
          "type": "address[]"
        }
      ],
      "name": "AuthenticatorsAdded",
      "type": "event"
    },
    {
      "anonymous": false,
      "inputs": [
        {
          "indexed": false,
          "internalType": "address[]",
          "name": "authenticators",
          "type": "address[]"
        }
      ],
      "name": "AuthenticatorsRemoved",
      "type": "event"
    },
    {
      "anonymous": false,
      "inputs": [
        {
          "indexed": true,
          "internalType": "address",
          "name": "beacon",
          "type": "address"
        }
      ],
      "name": "BeaconUpgraded",
      "type": "event"
    },
    {
      "anonymous": false,
      "inputs": [
        {
          "components": [
            {
              "internalType": "address",
              "name": "addy",
              "type": "address"
            },
            {
              "internalType": "bytes",
              "name": "params",
              "type": "bytes"
            }
          ],
          "indexed": false,
          "internalType": "struct Strategy[]",
          "name": "newExecutionStrategies",
          "type": "tuple[]"
        },
        {
          "indexed": false,
          "internalType": "string[]",
          "name": "newExecutionStrategyMetadataURIs",
          "type": "string[]"
        }
      ],
      "name": "ExecutionStrategiesAdded",
      "type": "event"
    },
    {
      "anonymous": false,
      "inputs": [
        {
          "indexed": false,
          "internalType": "uint8[]",
          "name": "executionStrategyIndices",
          "type": "uint8[]"
        }
      ],
      "name": "ExecutionStrategiesRemoved",
      "type": "event"
    },
    {
      "anonymous": false,
      "inputs": [
        {
          "indexed": false,
          "internalType": "uint8",
          "name": "version",
          "type": "uint8"
        }
      ],
      "name": "Initialized",
      "type": "event"
    },
    {
      "anonymous": false,
      "inputs": [
        {
          "indexed": false,
          "internalType": "uint32",
          "name": "newMaxVotingDuration",
          "type": "uint32"
        }
      ],
      "name": "MaxVotingDurationUpdated",
      "type": "event"
    },
    {
      "anonymous": false,
      "inputs": [
        {
          "indexed": false,
          "internalType": "string",
          "name": "newMetadataURI",
          "type": "string"
        }
      ],
      "name": "MetadataURIUpdated",
      "type": "event"
    },
    {
      "anonymous": false,
      "inputs": [
        {
          "indexed": false,
          "internalType": "uint32",
          "name": "newMinVotingDuration",
          "type": "uint32"
        }
      ],
      "name": "MinVotingDurationUpdated",
      "type": "event"
    },
    {
      "anonymous": false,
      "inputs": [
        {
          "indexed": true,
          "internalType": "address",
          "name": "previousOwner",
          "type": "address"
        },
        {
          "indexed": true,
          "internalType": "address",
          "name": "newOwner",
          "type": "address"
        }
      ],
      "name": "OwnershipTransferred",
      "type": "event"
    },
    {
      "anonymous": false,
      "inputs": [
        {
          "indexed": false,
          "internalType": "uint256",
          "name": "proposalId",
          "type": "uint256"
        }
      ],
      "name": "ProposalCancelled",
      "type": "event"
    },
    {
      "anonymous": false,
      "inputs": [
        {
          "indexed": false,
          "internalType": "uint256",
          "name": "nextProposalId",
          "type": "uint256"
        },
        {
          "indexed": false,
          "internalType": "address",
          "name": "author",
          "type": "address"
        },
        {
          "components": [
            {
              "internalType": "uint32",
              "name": "snapshotTimestamp",
              "type": "uint32"
            },
            {
              "internalType": "uint32",
              "name": "startTimestamp",
              "type": "uint32"
            },
            {
              "internalType": "uint32",
              "name": "minEndTimestamp",
              "type": "uint32"
            },
            {
              "internalType": "uint32",
              "name": "maxEndTimestamp",
              "type": "uint32"
            },
            {
              "internalType": "bytes32",
              "name": "executionPayloadHash",
              "type": "bytes32"
            },
            {
              "internalType": "contract IExecutionStrategy",
              "name": "executionStrategy",
              "type": "address"
            },
            {
              "internalType": "address",
              "name": "author",
              "type": "address"
            },
            {
              "internalType": "enum FinalizationStatus",
              "name": "finalizationStatus",
              "type": "uint8"
            },
            {
              "components": [
                {
                  "internalType": "address",
                  "name": "addy",
                  "type": "address"
                },
                {
                  "internalType": "bytes",
                  "name": "params",
                  "type": "bytes"
                }
              ],
              "internalType": "struct Strategy[]",
              "name": "votingStrategies",
              "type": "tuple[]"
            }
          ],
          "indexed": false,
          "internalType": "struct Proposal",
          "name": "proposal",
          "type": "tuple"
        },
        {
          "indexed": false,
          "internalType": "string",
          "name": "metadataUri",
          "type": "string"
        },
        {
          "indexed": false,
          "internalType": "bytes",
          "name": "payload",
          "type": "bytes"
        }
      ],
      "name": "ProposalCreated",
      "type": "event"
    },
    {
      "anonymous": false,
      "inputs": [
        {
          "indexed": false,
          "internalType": "uint256",
          "name": "proposalId",
          "type": "uint256"
        }
      ],
      "name": "ProposalExecuted",
      "type": "event"
    },
    {
      "anonymous": false,
      "inputs": [
        {
          "indexed": false,
          "internalType": "uint256",
          "name": "proposalId",
          "type": "uint256"
        },
        {
          "components": [
            {
              "internalType": "address",
              "name": "addy",
              "type": "address"
            },
            {
              "internalType": "bytes",
              "name": "params",
              "type": "bytes"
            }
          ],
          "indexed": false,
          "internalType": "struct Strategy",
          "name": "newExecutionStrategy",
          "type": "tuple"
        },
        {
          "indexed": false,
          "internalType": "string",
          "name": "newMetadataURI",
          "type": "string"
        }
      ],
      "name": "ProposalUpdated",
      "type": "event"
    },
    {
      "anonymous": false,
      "inputs": [
        {
          "components": [
            {
              "internalType": "address",
              "name": "addy",
              "type": "address"
            },
            {
              "internalType": "bytes",
              "name": "params",
              "type": "bytes"
            }
          ],
          "indexed": false,
          "internalType": "struct Strategy",
          "name": "newProposalValidationStrategy",
          "type": "tuple"
        }
      ],
      "name": "ProposalValidationStrategyUpdated",
      "type": "event"
    },
    {
      "anonymous": false,
      "inputs": [
        {
          "indexed": false,
          "internalType": "uint256",
          "name": "newQuorum",
          "type": "uint256"
        }
      ],
      "name": "QuorumUpdated",
      "type": "event"
    },
    {
      "anonymous": false,
      "inputs": [
        {
          "indexed": false,
          "internalType": "address",
          "name": "space",
          "type": "address"
        },
        {
          "indexed": false,
          "internalType": "address",
          "name": "owner",
          "type": "address"
        },
        {
          "indexed": false,
          "internalType": "uint32",
          "name": "votingDelay",
          "type": "uint32"
        },
        {
          "indexed": false,
          "internalType": "uint32",
          "name": "minVotingDuration",
          "type": "uint32"
        },
        {
          "indexed": false,
          "internalType": "uint32",
          "name": "maxVotingDuration",
          "type": "uint32"
        },
        {
          "components": [
            {
              "internalType": "address",
              "name": "addy",
              "type": "address"
            },
            {
              "internalType": "bytes",
              "name": "params",
              "type": "bytes"
            }
          ],
          "indexed": false,
          "internalType": "struct Strategy",
          "name": "proposalValidationStrategy",
          "type": "tuple"
        },
        {
          "indexed": false,
          "internalType": "string",
          "name": "metadataURI",
          "type": "string"
        },
        {
          "components": [
            {
              "internalType": "address",
              "name": "addy",
              "type": "address"
            },
            {
              "internalType": "bytes",
              "name": "params",
              "type": "bytes"
            }
          ],
          "indexed": false,
          "internalType": "struct Strategy[]",
          "name": "votingStrategies",
          "type": "tuple[]"
        },
        {
          "indexed": false,
          "internalType": "string[]",
          "name": "votingStrategyMetadataURIs",
          "type": "string[]"
        },
        {
          "indexed": false,
          "internalType": "address[]",
          "name": "authenticators",
          "type": "address[]"
        }
      ],
      "name": "SpaceCreated",
      "type": "event"
    },
    {
      "anonymous": false,
      "inputs": [
        {
          "indexed": true,
          "internalType": "address",
          "name": "implementation",
          "type": "address"
        }
      ],
      "name": "Upgraded",
      "type": "event"
    },
    {
      "anonymous": false,
      "inputs": [
        {
          "indexed": false,
          "internalType": "uint256",
          "name": "proposalId",
          "type": "uint256"
        },
        {
          "indexed": false,
          "internalType": "address",
          "name": "voterAddress",
          "type": "address"
        },
        {
          "indexed": false,
          "internalType": "enum Choice",
          "name": "choice",
          "type": "uint8"
        },
        {
          "indexed": false,
          "internalType": "uint256",
          "name": "votingPower",
          "type": "uint256"
        }
      ],
      "name": "VoteCast",
      "type": "event"
    },
    {
      "anonymous": false,
      "inputs": [
        {
          "indexed": false,
          "internalType": "uint256",
          "name": "proposalId",
          "type": "uint256"
        },
        {
          "indexed": false,
          "internalType": "address",
          "name": "voterAddress",
          "type": "address"
        },
        {
          "indexed": false,
          "internalType": "enum Choice",
          "name": "choice",
          "type": "uint8"
        },
        {
          "indexed": false,
          "internalType": "uint256",
          "name": "votingPower",
          "type": "uint256"
        },
        {
          "indexed": false,
          "internalType": "string",
          "name": "metadataUri",
          "type": "string"
        }
      ],
      "name": "VoteCastWithMetadata",
      "type": "event"
    },
    {
      "anonymous": false,
      "inputs": [
        {
          "indexed": false,
          "internalType": "uint256",
          "name": "newVotingDelay",
          "type": "uint256"
        }
      ],
      "name": "VotingDelayUpdated",
      "type": "event"
    },
    {
      "anonymous": false,
      "inputs": [
        {
          "components": [
            {
              "internalType": "address",
              "name": "addy",
              "type": "address"
            },
            {
              "internalType": "bytes",
              "name": "params",
              "type": "bytes"
            }
          ],
          "indexed": false,
          "internalType": "struct Strategy[]",
          "name": "newVotingStrategies",
          "type": "tuple[]"
        },
        {
          "indexed": false,
          "internalType": "string[]",
          "name": "newVotingStrategyMetadataURIs",
          "type": "string[]"
        }
      ],
      "name": "VotingStrategiesAdded",
      "type": "event"
    },
    {
      "anonymous": false,
      "inputs": [
        {
          "indexed": false,
          "internalType": "uint8[]",
          "name": "votingStrategyIndices",
          "type": "uint8[]"
        }
      ],
      "name": "VotingStrategiesRemoved",
      "type": "event"
    },
    {
      "inputs": [
        {
          "internalType": "address[]",
          "name": "_authenticators",
          "type": "address[]"
        }
      ],
      "name": "addAuthenticators",
      "outputs": [],
      "stateMutability": "nonpayable",
      "type": "function"
    },
    {
      "inputs": [
        {
          "components": [
            {
              "internalType": "address",
              "name": "addy",
              "type": "address"
            },
            {
              "internalType": "bytes",
              "name": "params",
              "type": "bytes"
            }
          ],
          "internalType": "struct Strategy[]",
          "name": "_votingStrategies",
          "type": "tuple[]"
        },
        {
          "internalType": "string[]",
          "name": "votingStrategyMetadataURIs",
          "type": "string[]"
        }
      ],
      "name": "addVotingStrategies",
      "outputs": [],
      "stateMutability": "nonpayable",
      "type": "function"
    },
    {
      "inputs": [
        {
          "internalType": "uint256",
          "name": "proposalId",
          "type": "uint256"
        }
      ],
      "name": "cancel",
      "outputs": [],
      "stateMutability": "nonpayable",
      "type": "function"
    },
    {
      "inputs": [
        {
          "internalType": "uint256",
          "name": "proposalId",
          "type": "uint256"
        },
        {
          "internalType": "bytes",
          "name": "executionPayload",
          "type": "bytes"
        }
      ],
      "name": "execute",
      "outputs": [],
      "stateMutability": "nonpayable",
      "type": "function"
    },
    {
      "inputs": [
        {
          "internalType": "uint256",
          "name": "proposalId",
          "type": "uint256"
        }
      ],
      "name": "getProposal",
      "outputs": [
        {
          "components": [
            {
              "internalType": "uint32",
              "name": "snapshotTimestamp",
              "type": "uint32"
            },
            {
              "internalType": "uint32",
              "name": "startTimestamp",
              "type": "uint32"
            },
            {
              "internalType": "uint32",
              "name": "minEndTimestamp",
              "type": "uint32"
            },
            {
              "internalType": "uint32",
              "name": "maxEndTimestamp",
              "type": "uint32"
            },
            {
              "internalType": "bytes32",
              "name": "executionPayloadHash",
              "type": "bytes32"
            },
            {
              "internalType": "contract IExecutionStrategy",
              "name": "executionStrategy",
              "type": "address"
            },
            {
              "internalType": "address",
              "name": "author",
              "type": "address"
            },
            {
              "internalType": "enum FinalizationStatus",
              "name": "finalizationStatus",
              "type": "uint8"
            },
            {
              "components": [
                {
                  "internalType": "address",
                  "name": "addy",
                  "type": "address"
                },
                {
                  "internalType": "bytes",
                  "name": "params",
                  "type": "bytes"
                }
              ],
              "internalType": "struct Strategy[]",
              "name": "votingStrategies",
              "type": "tuple[]"
            }
          ],
          "internalType": "struct Proposal",
          "name": "",
          "type": "tuple"
        }
      ],
      "stateMutability": "view",
      "type": "function"
    },
    {
      "inputs": [
        {
          "internalType": "uint256",
          "name": "proposalId",
          "type": "uint256"
        }
      ],
      "name": "getProposalStatus",
      "outputs": [
        {
          "internalType": "enum ProposalStatus",
          "name": "",
          "type": "uint8"
        }
      ],
      "stateMutability": "view",
      "type": "function"
    },
    {
      "inputs": [
        {
          "internalType": "uint256",
          "name": "proposalId",
          "type": "uint256"
        },
        {
          "internalType": "address",
          "name": "voter",
          "type": "address"
        }
      ],
      "name": "hasVoted",
      "outputs": [
        {
          "internalType": "bool",
          "name": "",
          "type": "bool"
        }
      ],
      "stateMutability": "view",
      "type": "function"
    },
    {
      "inputs": [
        {
          "internalType": "address",
          "name": "_owner",
          "type": "address"
        },
        {
          "internalType": "uint32",
          "name": "_votingDelay",
          "type": "uint32"
        },
        {
          "internalType": "uint32",
          "name": "_minVotingDuration",
          "type": "uint32"
        },
        {
          "internalType": "uint32",
          "name": "_maxVotingDuration",
          "type": "uint32"
        },
        {
          "components": [
            {
              "internalType": "address",
              "name": "addy",
              "type": "address"
            },
            {
              "internalType": "bytes",
              "name": "params",
              "type": "bytes"
            }
          ],
          "internalType": "struct Strategy",
          "name": "_proposalValidationStrategy",
          "type": "tuple"
        },
        {
          "internalType": "string",
          "name": "_metadataURI",
          "type": "string"
        },
        {
          "components": [
            {
              "internalType": "address",
              "name": "addy",
              "type": "address"
            },
            {
              "internalType": "bytes",
              "name": "params",
              "type": "bytes"
            }
          ],
          "internalType": "struct Strategy[]",
          "name": "_votingStrategies",
          "type": "tuple[]"
        },
        {
          "internalType": "string[]",
          "name": "_votingStrategyMetadataURIs",
          "type": "string[]"
        },
        {
          "internalType": "address[]",
          "name": "_authenticators",
          "type": "address[]"
        }
      ],
      "name": "initialize",
      "outputs": [],
      "stateMutability": "nonpayable",
      "type": "function"
    },
    {
      "inputs": [],
      "name": "maxVotingDuration",
      "outputs": [
        {
          "internalType": "uint32",
          "name": "",
          "type": "uint32"
        }
      ],
      "stateMutability": "view",
      "type": "function"
    },
    {
      "inputs": [],
      "name": "minVotingDuration",
      "outputs": [
        {
          "internalType": "uint32",
          "name": "",
          "type": "uint32"
        }
      ],
      "stateMutability": "view",
      "type": "function"
    },
    {
      "inputs": [],
      "name": "nextProposalId",
      "outputs": [
        {
          "internalType": "uint256",
          "name": "",
          "type": "uint256"
        }
      ],
      "stateMutability": "view",
      "type": "function"
    },
    {
      "inputs": [],
      "name": "owner",
      "outputs": [
        {
          "internalType": "address",
          "name": "",
          "type": "address"
        }
      ],
      "stateMutability": "view",
      "type": "function"
    },
    {
      "inputs": [],
      "name": "proposalThreshold",
      "outputs": [
        {
          "internalType": "uint256",
          "name": "",
          "type": "uint256"
        }
      ],
      "stateMutability": "view",
      "type": "function"
    },
    {
      "inputs": [],
      "name": "proposalValidationStrategy",
      "outputs": [
        {
          "internalType": "address",
          "name": "addy",
          "type": "address"
        },
        {
          "internalType": "bytes",
          "name": "params",
          "type": "bytes"
        }
      ],
      "stateMutability": "view",
      "type": "function"
    },
    {
      "inputs": [
        {
          "internalType": "address",
          "name": "author",
          "type": "address"
        },
        {
          "internalType": "string",
          "name": "metadataURI",
          "type": "string"
        },
        {
          "components": [
            {
              "internalType": "address",
              "name": "addy",
              "type": "address"
            },
            {
              "internalType": "bytes",
              "name": "params",
              "type": "bytes"
            }
          ],
          "internalType": "struct Strategy",
          "name": "executionStrategy",
          "type": "tuple"
        },
        {
          "internalType": "bytes",
          "name": "userParams",
          "type": "bytes"
        }
      ],
      "name": "propose",
      "outputs": [],
      "stateMutability": "nonpayable",
      "type": "function"
    },
    {
      "inputs": [],
      "name": "proxiableUUID",
      "outputs": [
        {
          "internalType": "bytes32",
          "name": "",
          "type": "bytes32"
        }
      ],
      "stateMutability": "view",
      "type": "function"
    },
    {
      "inputs": [
        {
          "internalType": "address[]",
          "name": "_authenticators",
          "type": "address[]"
        }
      ],
      "name": "removeAuthenticators",
      "outputs": [],
      "stateMutability": "nonpayable",
      "type": "function"
    },
    {
      "inputs": [
        {
          "internalType": "uint8[]",
          "name": "_votingStrategyIndices",
          "type": "uint8[]"
        }
      ],
      "name": "removeVotingStrategies",
      "outputs": [],
      "stateMutability": "nonpayable",
      "type": "function"
    },
    {
      "inputs": [],
      "name": "renounceOwnership",
      "outputs": [],
      "stateMutability": "nonpayable",
      "type": "function"
    },
    {
      "inputs": [
        {
          "internalType": "uint32",
          "name": "_maxVotingDuration",
          "type": "uint32"
        }
      ],
      "name": "setMaxVotingDuration",
      "outputs": [],
      "stateMutability": "nonpayable",
      "type": "function"
    },
    {
      "inputs": [
        {
          "internalType": "string",
          "name": "_metadataURI",
          "type": "string"
        }
      ],
      "name": "setMetadataURI",
      "outputs": [],
      "stateMutability": "nonpayable",
      "type": "function"
    },
    {
      "inputs": [
        {
          "internalType": "uint32",
          "name": "_minVotingDuration",
          "type": "uint32"
        }
      ],
      "name": "setMinVotingDuration",
      "outputs": [],
      "stateMutability": "nonpayable",
      "type": "function"
    },
    {
      "inputs": [
        {
          "components": [
            {
              "internalType": "address",
              "name": "addy",
              "type": "address"
            },
            {
              "internalType": "bytes",
              "name": "params",
              "type": "bytes"
            }
          ],
          "internalType": "struct Strategy",
          "name": "_proposalValidationStrategy",
          "type": "tuple"
        }
      ],
      "name": "setProposalValidationStrategy",
      "outputs": [],
      "stateMutability": "nonpayable",
      "type": "function"
    },
    {
      "inputs": [
        {
          "internalType": "uint32",
          "name": "_votingDelay",
          "type": "uint32"
        }
      ],
      "name": "setVotingDelay",
      "outputs": [],
      "stateMutability": "nonpayable",
      "type": "function"
    },
    {
      "inputs": [
        {
          "internalType": "address",
          "name": "newOwner",
          "type": "address"
        }
      ],
      "name": "transferOwnership",
      "outputs": [],
      "stateMutability": "nonpayable",
      "type": "function"
    },
    {
      "inputs": [
        {
          "internalType": "address",
          "name": "author",
          "type": "address"
        },
        {
          "internalType": "uint256",
          "name": "proposalId",
          "type": "uint256"
        },
        {
          "components": [
            {
              "internalType": "address",
              "name": "addy",
              "type": "address"
            },
            {
              "internalType": "bytes",
              "name": "params",
              "type": "bytes"
            }
          ],
          "internalType": "struct Strategy",
          "name": "executionStrategy",
          "type": "tuple"
        },
        {
          "internalType": "string",
          "name": "metadataURI",
          "type": "string"
        }
      ],
      "name": "updateProposal",
      "outputs": [],
      "stateMutability": "nonpayable",
      "type": "function"
    },
    {
      "inputs": [
        {
          "internalType": "address",
          "name": "newImplementation",
          "type": "address"
        }
      ],
      "name": "upgradeTo",
      "outputs": [],
      "stateMutability": "nonpayable",
      "type": "function"
    },
    {
      "inputs": [
        {
          "internalType": "address",
          "name": "newImplementation",
          "type": "address"
        },
        {
          "internalType": "bytes",
          "name": "data",
          "type": "bytes"
        }
      ],
      "name": "upgradeToAndCall",
      "outputs": [],
      "stateMutability": "payable",
      "type": "function"
    },
    {
      "inputs": [
        {
          "internalType": "address",
          "name": "voterAddress",
          "type": "address"
        },
        {
          "internalType": "uint256",
          "name": "proposalId",
          "type": "uint256"
        },
        {
          "internalType": "enum Choice",
          "name": "choice",
          "type": "uint8"
        },
        {
          "components": [
            {
              "internalType": "uint8",
              "name": "index",
              "type": "uint8"
            },
            {
              "internalType": "bytes",
              "name": "params",
              "type": "bytes"
            }
          ],
          "internalType": "struct IndexedStrategy[]",
          "name": "userVotingStrategies",
          "type": "tuple[]"
        },
        {
          "internalType": "string",
          "name": "metadataUri",
          "type": "string"
        }
      ],
      "name": "vote",
      "outputs": [],
      "stateMutability": "nonpayable",
      "type": "function"
    },
    {
      "inputs": [],
      "name": "votingDelay",
      "outputs": [
        {
          "internalType": "uint32",
          "name": "",
          "type": "uint32"
        }
      ],
      "stateMutability": "view",
      "type": "function"
    },
    {
      "inputs": [
        {
          "internalType": "uint256",
          "name": "",
          "type": "uint256"
        }
      ],
      "name": "votingStrategies",
      "outputs": [
        {
          "internalType": "address",
          "name": "addy",
          "type": "address"
        },
        {
          "internalType": "bytes",
          "name": "params",
          "type": "bytes"
        }
      ],
      "stateMutability": "view",
      "type": "function"
    }
  ],
  "bytecode": {
    "object": "0x60a080604052346100365730608052600160c955613cda908161003c8239608051818181611b9a01528181611c9601526125400152f35b600080fdfe6080604052600436101561001257600080fd5b6000803560e01c80630b515570146129ed5780630fdca0a11461299f578063127d0ff7146129255780632871eadf146128d35780632924c235146127395780632ab09d141461271b5780633659cfe61461251857806336bd45e5146122715780633932abb11461224d578063401853b71461210757806340e58ee51461204d5780634385963214611fea5780634f1ef28614611c5457806352d1902d14611b7f578063539b083714611a9257806359efcb151461174e5780635c41679d146116c55780636df7bab31461169f578063715018a61461162b57806373c9e70b146115cd578063750521f51461155b5780637f4ce2a0146110815780638a255e75146110035780638da5cb5b14610fdc5780639d49257c14610fb8578063aad83f3b14610900578063ab1d89a714610818578063b58131b0146107fa578063bc7e56f0146102b3578063c7f758a81461021b5763f2fde38b1461017257600080fd5b346102185760206003193601126102185761018b612b7b565b610193613106565b6001600160a01b038116156101ae576101ab9061315e565b80f35b608460405162461bcd60e51b815260206004820152602660248201527f4f776e61626c653a206e6577206f776e657220697320746865207a65726f206160448201527f64647265737300000000000000000000000000000000000000000000000000006064820152fd5b80fd5b5034610218576020908160031936011261021857604061029a916004356060610100845161024881612d07565b8481528488820152848682015284838201528460808201528460a08201528460c08201528460e0820152015280825260d2855261028e610289848420613a37565b613b33565b815260d2845220613a37565b906102af604051928284938452830190613080565b0390f35b50346102185760a0600319360112610218576102cd612b7b565b90600360443510156102185760643567ffffffffffffffff81116107f6576102f9903690600401612e14565b60849291923567ffffffffffffffff81116107f25761031c903690600401612ba5565b939094610327613beb565b602435845260d260205261033d60408520613a37565b61034681613b33565b63ffffffff6060820151164210156107c85763ffffffff602082015116421061079e5760e081015161037781612fde565b61038081612fde565b61077457602435855260d3602052604085206001600160a01b03831660005260205260ff6040600020541661074a5761010063ffffffff825116910151926103c785612f00565b946103d56040519687612d8e565b8086526020860191368260051b8201116105285780925b8260051b820184106106d8575050505061040584613c45565b849685975b85518910156105705760ff61041f8a88613810565b515116855181101561053f576104358187613810565b51906001600160a01b038251161561053f575060206001600160a01b0382878b888f8661046f8f999282896104d09551169801519a613810565b5101516104be604051998a98899788967f871d81b70000000000000000000000000000000000000000000000000000000088526004880152166024860152608060448601526084850190612db1565b90600319848303016064850152612db1565b03925af19081156105345788916104fc575b506104f0906104f692613c38565b986137eb565b9761040a565b90506020813d60201161052c575b8161051760209383612d8e565b8101031261052857516104f66104e2565b8780fd5b3d915061050a565b6040513d8a823e3d90fd5b602490604051907ff3e4f1b40000000000000000000000000000000000000000000000000000000082526004820152fd5b839087928982156106ae57602435855260d460205260408520610594604435612fde565b6044358652602052604085206105ab848254613c38565b9055602435855260d3602052604085206001600160a01b0385166000526020526040600020600160ff19825416179055801560001461063e5750507fb83d25c6a5d258561330739951487acb4bd09ba5190b5d32c4f261817d906792916080916001600160a01b0360405192602435845216602083015261062d604435612fde565b60443560408301526060820152a180f35b7f7b68c21d3d55ce8b9e79a27874bb03fa18c398a4bc9cb89b4a75fb6fbeb1419893916106a8916001600160a01b0394604051958695602435875216602086015261068a604435612fde565b6044356040860152606085015260a0608085015260a0840191613934565b0390a180f35b60046040517fdf0cf4fb000000000000000000000000000000000000000000000000000000008152fd5b833567ffffffffffffffff8111610746578201604081360312610746576040519061070282612d3a565b61070b816139dd565b8252602081013567ffffffffffffffff81116107425791610733602094928594369101612e98565b838201528152019301926103ec565b8b80fd5b8980fd5b60046040517f1f652102000000000000000000000000000000000000000000000000000000008152fd5b60046040517fac18c457000000000000000000000000000000000000000000000000000000008152fd5b60046040517f688c575a000000000000000000000000000000000000000000000000000000008152fd5b60046040517f6613a282000000000000000000000000000000000000000000000000000000008152fd5b8280fd5b5080fd5b5034610218578060031936011261021857602060cc54604051908152f35b50346102185780600319360112610218576001600160a01b0360cf54166040519060008260d0549161084983612c36565b808352926001908181169081156108de575060011461087f575b5061087092500383612d8e565b6102af60405192839283612df1565b60d0600090815291507fe89d44c8fd6a9bac8af33ce47f56337617d449bf7ff3956b618c646de829cbcb5b8483106108c35750610870935050810160200185610863565b81935090816020925483858a010152019101909185926108aa565b6020935061087095925060ff1991501682840152151560051b82010185610863565b50346102185760806003193601126102185761091a612b7b565b67ffffffffffffffff91906024358381116107f25761093d903690600401612ba5565b9190938060443511610f1e57604060031960443536030112610f1e57606435908111610f1e57610971903690600401612ba5565b610979613beb565b6001600160a01b0360cf541690856040519384927f072160950000000000000000000000000000000000000000000000000000000084526001600160a01b038716600485015260606024850152829160d0546109d481612c36565b90816064880152600181169081600014610f945750600114610f35575b50610a1083602097959387959360031987809603016044860152613934565b03925af1908115610f2a578491610eeb575b5015610ec157610a4063ffffffff60cd541663ffffffff4216613b6e565b60ca54610a6263ffffffff610a5a818460201c1685613b6e565b921683613b6e565b63ffffffff610a85610a7e602460443501604435600401613b86565b3691612e61565b6020815191012091816001600160a01b03610aa4604435600401613bd7565b16948160405197610ab489612d07565b8142168952166020880152166040860152166060840152608083015260a08201526001600160a01b03821660c08201528360e082015260ce5494610af786612f00565b95610b056040519788612d8e565b8087526020870160ce6000527fd36cd1c74ef8d7326d8021b776c18fb5a5724b7f7bc93c2f42e43e10ef27d12a6000915b838310610e755750505050610100820195865260cb54855260d2602052604085209563ffffffff83511687549067ffffffff00000000602086015160201b166bffffffff0000000000000000604087015160401b16917fffffffffffffffffffffffffffffffff000000000000000000000000000000006fffffffff000000000000000000000000606089015160601b16941617171717875560808301516001880155600287016001600160a01b0360a0850151167fffffffffffffffffffffffff0000000000000000000000000000000000000000825416179055600387016001600160a01b0360c0850151168154907fffffffffffffffffffffff00000000000000000000000000000000000000000074ff000000000000000000000000000000000000000060e0880151610c6c81612fde565b610c7581612fde565b60a01b1692161717905551805190680100000000000000008211610e615760048801548260048a0155808310610d7d575b5060206004910197018652602086209686905b828210610d5f5787610d59887f4ee64c875f0bc2ea72deee3401f9103a8de6ec743aa2a0dd3307a30ffe1ec1f26001600160a01b038a610d518b610d35610d438d60cb5498610d12602460443501604435600401613b86565b949095604051998a998d8b521660208a015260a060408a015260a0890190613080565b918783036060890152613934565b918483036080860152613934565b0390a16137eb565b60cb5580f35b6002602082610d71600194518d6136b7565b01990191019097610cb9565b7f7fffffffffffffffffffffffffffffffffffffffffffffffffffffffffffffff8082168203610e4d5783168303610e3957600489018852602088208360011b81015b8260011b82018110610dd3575050610ca6565b808a600292558a60018201610de88154612c36565b80610df7575b50505001610dc0565b601f808211600114610e1357505060009150555b8a3880610dee565b91610e326000929382865260208620940160051c840160018501613529565b5555610e0b565b602488634e487b7160e01b81526011600452fd5b602489634e487b7160e01b81526011600452fd5b602487634e487b7160e01b81526041600452fd5b60026020600192604051610e8881612d3a565b6001600160a01b038654168152604051610eaf81610ea881898b01612c70565b0382612d8e565b83820152815201920192019190610b36565b60046040517f78b51a90000000000000000000000000000000000000000000000000000000008152fd5b90506020813d602011610f22575b81610f0660209383612d8e565b81010312610f1e57518015158103610f1e5738610a22565b8380fd5b3d9150610ef9565b6040513d86823e3d90fd5b60d0855290925083907fe89d44c8fd6a9bac8af33ce47f56337617d449bf7ff3956b618c646de829cbcb5b818310610f77575050840160840191610a106109f1565b80546084848b0101528896508b9550602090920191600101610f60565b60ff191660848089019190915291151560051b87019091019350610a1090506109f1565b5034610218578060031936011261021857602063ffffffff60ca5416604051908152f35b503461021857806003193601126102185760206001600160a01b0360975416604051908152f35b50346102185760206003193601126102185760043567ffffffffffffffff81116107f6576110567f0f1800fbca5c51a50ca47d2d359d89a9872ebc0d41b791582770add9d9d7e7bc913690600401612e14565b9061105f613106565b61107261106d368484612f88565b6138e0565b6106a8604051928392836139eb565b5034610218576101206003193601126102185761109c612b7b565b63ffffffff9081602435166024350361155657816044351660443503611556578160643516606435036115565760843567ffffffffffffffff8111610f1e576110e9903690600401612eb3565b60a43567ffffffffffffffff811161155257611109903690600401612e98565b9260c43567ffffffffffffffff811161154e573660238201121561154e5761113b903690602481600401359101612f18565b9067ffffffffffffffff60e4351161154e5736602360e43501121561154e5761116960e43560040135612f00565b906111776040519283612d8e565b60e43560040135825260208201928336602460e4356004013560051b60e43501011161151457602460e43501905b602460e4356004013560051b60e435010182106115185750506101043567ffffffffffffffff81116115145736602382011215611514576111f0903690602481600401359101612f88565b9488549760ff8960081c16159889809a611507575b80156114f0575b156114865789600160ff198316178c55611458575b5061123b60ff8b5460081c16611236816133a9565b6133a9565b6112443361315e565b61124c613106565b6001600160a01b038816156101ae5761131f61132d9261133b9561126f8b61315e565b61127a60643561341a565b61128560443561349d565b61128e82613540565b6112c560243563ffffffff167fffffffffffffffffffffffffffffffffffffffffffffffffffffffff0000000060cd54161760cd55565b6112ce86613824565b6112d78a6138e0565b600160cb556001600160a01b036040519b308d521660208c0152806024351660408c0152806044351660608c01526064351660808b01526101408060a08c01528a0190612ffe565b9088820360c08a0152612db1565b9086820360e0880152613024565b9084820361010086015251808252602082019160208260051b820101939288915b83831061142b57505050505082810361012084015260208083519283815201920190855b81811061140c5750505090807f77f05c81270fc1194a1afc6a0a2fd081251bd6414970e4e5163b7f8e98d35e3d920390a16113b85780f35b7fffffffffffffffffffffffffffffffffffffffffffffffffffffffffffff00ff81541681557f7f26b83ff96e1f2b6a682f133852f6798a09c465da95921460cefb3847402498602060405160018152a180f35b82516001600160a01b0316845260209384019390920191600101611380565b909192939460208061144983601f1986600196030187528951612db1565b9701930193019193929061135c565b7fffffffffffffffffffffffffffffffffffffffffffffffffffffffffffff000016610101178a5538611221565b608460405162461bcd60e51b815260206004820152602e60248201527f496e697469616c697a61626c653a20636f6e747261637420697320616c72656160448201527f647920696e697469616c697a65640000000000000000000000000000000000006064820152fd5b50303b15801561120c5750600160ff82161461120c565b50600160ff821610611205565b8880fd5b813567ffffffffffffffff811161154a5760209161153f83926024369160e4350101612e98565b8152019101906111a5565b8a80fd5b8580fd5b8480fd5b600080fd5b50346102185760206003193601126102185760043567ffffffffffffffff81116107f6576115ae7fefafb90526da1636e1335eac0151301742fb755d986954c613b90e891778ba39913690600401612ba5565b6115b6613106565b6106a8604051928392602084526020840191613934565b5034610218576020600319360112610218577f50b3808988e8880c34e4b58088d8eeeb40410dd2a2238a299db9187644259b05602061160a612bd3565b611612613106565b61161b8161341a565b63ffffffff60405191168152a180f35b5034610218578060031936011261021857611644613106565b60006001600160a01b036097547fffffffffffffffffffffffff00000000000000000000000000000000000000008116609755167f8be0079c531659141344cd1fd0a4f28419497f9722a3daafe3b4186f6b6457e08280a380f35b5034610218578060031936011261021857602060ca5463ffffffff60405191831c168152f35b5034610218576003196020813601126107f6576004359067ffffffffffffffff82116107f2576040908260040192360301126107f6576106a87ff47f6bd305baff4ed2d9133dc0491deb1066e30991215a46f90e24a018dfff5991611728613106565b61173a6117353683612eb3565b613540565b6040519182916020835260208301906139a5565b50346102185760406003193601126102185760243567ffffffffffffffff81116107f657611780903690600401612ba5565b9190600260c95414611a4e57600260c955600435825260d260205260408220926117ac61028985613a37565b6001600160a01b0360028501541690600435845260d46020526040842060018552602052604084205490600435855260d460205260408520858052602052604085205493600435865260d460205260408620600287526020526040862054843b15611a4a57949290918694926040519687957f6b12e4c400000000000000000000000000000000000000000000000000000000875260a060048801528a5463ffffffff9081811660a48a0152818160201c1660c48a0152818160401c1660e48a015260601c1661010488015260018b015461012488015285610144880152600460038c019b60ff8d546001600160a01b0381166101648c015260a01c166118b281612fde565b6101848a015201946101206101a48901526101c4880186548091526101e490818a01918160051b8b0101978b5260208b20918b905b8282106119d7575050505060248801526044870152606486015284830360031901608486015284928692849261191e929190613934565b03925af180156119cc576119a0575b5090740100000000000000000000000000000000000000007fffffffffffffffffffffff00ffffffffffffffffffffffffffffffffffffffff8254161790557f712ae1383f79ac853f8d882153778e0260ef8f03b504e2866e0593e04d2b291f60206040516004358152a1600160c95580f35b67ffffffffffffffff81116119b8576040523861192d565b602482634e487b7160e01b81526041600452fd5b6040513d84823e3d90fd5b929a6020919496989a9c50611a338c600160408d7ffffffffffffffffffffffffffffffffffffffffffffffffffffffffffffffe1c83989b9d9f96600297030189526001600160a01b0384541681528187820152019101612c70565b9b0192019201928b999795938d9b999795936118e7565b8680fd5b606460405162461bcd60e51b815260206004820152601f60248201527f5265656e7472616e637947756172643a207265656e7472616e742063616c6c006044820152fd5b5034610218576020806003193601126107f65760043567ffffffffffffffff81116107f257611ac5903690600401612e14565b611ad0929192613106565b611adb368285612f88565b90815115611b5557845b8251811015611b2257806001600160a01b03611b04611b1d9386613810565b5116875260d185526040872060ff1981541690556137eb565b611ae5565b857f2befc5f117311dbd6cabfd7bc4cec09eeefc83a55c9140bbf298951571f5cb8683876106a8604051928392836139eb565b60046040517f521299a9000000000000000000000000000000000000000000000000000000008152fd5b50346102185780600319360112610218576001600160a01b037f0000000000000000000000000000000000000000000000000000000000000000163003611bea5760206040517f360894a13ba1a3210667c828492db98dca3e2076cc3735a920a3ca505d382bbc8152f35b608460405162461bcd60e51b815260206004820152603860248201527f555550535570677261646561626c653a206d757374206e6f742062652063616c60448201527f6c6564207468726f7567682064656c656761746563616c6c00000000000000006064820152fd5b50604060031936011261021857611c69612b7b565b9060243567ffffffffffffffff81116107f657611c8a903690600401612e98565b916001600160a01b03807f00000000000000000000000000000000000000000000000000000000000000001690611cc3823014156131be565b611cf27f360894a13ba1a3210667c828492db98dca3e2076cc3735a920a3ca505d382bbc92828454161461322f565b611cfa613106565b7f4910fdfa16fed3260ed0e7147f7cc6da11a60208b5b9406d12a635614ffd91435460ff1615611d315750506101ab9192506132a0565b8291939216604051937f52d1902d0000000000000000000000000000000000000000000000000000000085526020948581600481865afa859181611fbb575b50611ddf576084866040519062461bcd60e51b82526004820152602e60248201527f45524331393637557067726164653a206e657720696d706c656d656e7461746960448201527f6f6e206973206e6f7420555550530000000000000000000000000000000000006064820152fd5b94939403611f5157611df0826132a0565b604051907fbc7cd75a20ee27fd9adebab32041f755214dbc6bffa90cc0225b39da2e5c2d3b8580a2845115801590611f49575b611e30575b505050905080f35b813b15611ee25750918084611ed094848397519201905af43d15611eda573d90611e5982612e45565b91611e676040519384612d8e565b82523d858484013e5b7f416464726573733a206c6f772d6c6576656c2064656c65676174652063616c6c60405193611e9e85612d72565b602785528401527f206661696c6564000000000000000000000000000000000000000000000000006040840152613365565b5080388080611e28565b606090611e70565b808362461bcd60e51b608493526004820152602660248201527f416464726573733a2064656c65676174652063616c6c20746f206e6f6e2d636f60448201527f6e747261637400000000000000000000000000000000000000000000000000006064820152fd5b506001611e23565b6084836040519062461bcd60e51b82526004820152602960248201527f45524331393637557067726164653a20756e737570706f727465642070726f7860448201527f6961626c655555494400000000000000000000000000000000000000000000006064820152fd5b9091508681813d8311611fe3575b611fd38183612d8e565b8101031261154e57519038611d70565b503d611fc9565b503461021857604060031936011261021857600435602435906001600160a01b0382168092036107f2578260ff92826040936020965260d28652612032610289858520613a37565b825260d3855282822090825284522054166040519015158152f35b50346102185760206003193601126102185760043561206a613106565b80825260d260205260036040832061208461028982613a37565b019081549060ff8260a01c1661209981612fde565b610774577f416e669c63d9a3a5e36ee7cc7e2104b8db28ccd286aa18966e98fa230c73b08c92740200000000000000000000000000000000000000007fffffffffffffffffffffff00ffffffffffffffffffffffffffffffffffffffff60209416179055604051908152a180f35b503461021857602090816003193601126102185760043580825260d283528261213260408420613a37565b9161213c83613b33565b6001600160a01b0360a08401511681855260d48352604085206001865283526121ce60408620549483875260d48552604087208780528552604087205493875260d4855260408720600288528552604087205495604051968795869485947f12eadade000000000000000000000000000000000000000000000000000000008652608060048701526084860190613080565b9260248501526044840152606483015203915afa9081156119cc578291612217575b5060405191600782101561220357508152f35b80634e487b7160e01b602492526021600452fd5b90508281813d8311612246575b61222e8183612d8e565b810103126107f6575160078110156107f657386121f0565b503d612224565b5034610218578060031936011261021857602063ffffffff60cd5416604051908152f35b503461021857602090816003193601126102185767ffffffffffffffff916004358381116107f2576122a7903690600401612e14565b6122b2949194613106565b6122bb81612f00565b906122c96040519283612d8e565b80825260059080821b8701858401368211610528578689915b8383106125005750505050825115611b5557855b835160ff80831691821015612496578061231e61235e92612317858a613810565b5116612be6565b507fffffffffffffffffffffffff000000000000000000000000000000000000000081541690556123176040519361235585612d56565b8b855288613810565b50906001809201918151918883116124825761237a8454612c36565b908b8b601f938480821161244d575b505050508a9184116001146123ea578b918491826123dd575b505060001991921b9260031b1c19161790555b60ff8091169081146123c9576001016122f6565b602487634e487b7160e01b81526011600452fd5b01519150600019386123a2565b848c528a8c20929392919083601f1981168e8e5b88838310612435575050501061241c575b505050811b0190556123b5565b015160001960f88460031b161c1916905538808061240f565b8686015188559096019594850194879350018e6123fe565b82848a612470965220918189018d1c8301938910612479575b018b1c0190613529565b8b8b3884612389565b92508192612466565b60248b634e487b7160e01b81526041600452fd5b60408051898152808a018690528a9181018c878c855b8281106124dd57867f24c5d4b9c170a0ef0634046f1a7a184dd341c99da7242482e42cc2782076cea387870388a180f35b90919293828060019260ff6124f1896139dd565b168152019501939291016124ac565b819061250b846139dd565b81520191019087906122e2565b5034610218576020908160031936011261021857612534612b7b565b6001600160a01b0392837f00000000000000000000000000000000000000000000000000000000000000001661256c813014156131be565b61259b7f360894a13ba1a3210667c828492db98dca3e2076cc3735a920a3ca505d382bbc91868354161461322f565b6125a3613106565b604051946125b086612d56565b8486527f4910fdfa16fed3260ed0e7147f7cc6da11a60208b5b9406d12a635614ffd91435460ff16156125eb575050506101ab9192506132a0565b8392949316906040517f52d1902d0000000000000000000000000000000000000000000000000000000081528581600481865afa8591816126ec575b50612696576084866040519062461bcd60e51b82526004820152602e60248201527f45524331393637557067726164653a206e657720696d706c656d656e7461746960448201527f6f6e206973206e6f7420555550530000000000000000000000000000000000006064820152fd5b94939403611f51576126a7826132a0565b604051907fbc7cd75a20ee27fd9adebab32041f755214dbc6bffa90cc0225b39da2e5c2d3b8580a28451158015906126e557611e3057505050905080f35b5083611e23565b9091508681813d8311612714575b6127048183612d8e565b8101031261154e57519038612627565b503d6126fa565b5034610218578060031936011261021857602060cb54604051908152f35b50346102185760406003193601126102185767ffffffffffffffff6004358181116107f25761276c903690600401612e14565b91602435908111610f1e579161278784933690600401612e14565b61278f613106565b6127a261279d368587612f18565b613824565b6040519383604086016040875252606085019360608160051b870101948288905b83821061285657505050505060208484038186015281845280840193818360051b820101948488925b85841061281d57897fb25fe8e833c47cb186483982b4f2f778aa2f38c644be53123589397650b703e98a8a038ba180f35b90919293949596858061284583601f19866001960301885261283f8c88613955565b90613934565b9901940194019295949391906127ec565b909192939495967fffffffffffffffffffffffffffffffffffffffffffffffffffffffffffffffa089820301845285357fffffffffffffffffffffffffffffffffffffffffffffffffffffffffffffffc18336030181121561154a57600191836128c092016139a5565b97969560209081019594019201906127c3565b5034610218576020600319360112610218576004359060ce548210156102185760016128fe83612be6565b506108706001600160a01b038254169161291e6040518095819301612c70565b0383612d8e565b5034610218576020600319360112610218577fba76433d63148cc0d7df02d39ab5cddf8737df279d4af4c7bce819a2ef719e956020612962612bd3565b61296a613106565b61161b8163ffffffff167fffffffffffffffffffffffffffffffffffffffffffffffffffffffff0000000060cd54161760cd55565b5034610218576020600319360112610218577fa596cfacd06610b4e094472b3f6712f263b9a8af5fbd18924780c678a4fc55e660206129dc612bd3565b6129e4613106565b61161b8161349d565b5034610218576003196080813601126107f657612a08612b7b565b906024356044359267ffffffffffffffff80851161154e5760408560040194863603011261154e5760643590811161154e57612a48903690600401612ba5565b612a50613beb565b83875260d2602052604087206001600160a01b03938480600384015416911603612b515763ffffffff815460201c16421015612b275760026106a894612abd610a7e60247f3ed3909a2444f4afb9f14bf6e61874cebc207fa08f5034e074afe13065c812579b018a613b86565b602081519101206001840155612ad288613bd7565b169101907fffffffffffffffffffffffff0000000000000000000000000000000000000000825416179055612b1960405195869586526060602087015260608601906139a5565b918483036040860152613934565b60046040517fb05d2fa9000000000000000000000000000000000000000000000000000000008152fd5b60046040517f48f5c3ed000000000000000000000000000000000000000000000000000000008152fd5b600435906001600160a01b038216820361155657565b35906001600160a01b038216820361155657565b9181601f840112156115565782359167ffffffffffffffff8311611556576020838186019501011161155657565b6004359063ffffffff8216820361155657565b60ce54811015612c205760ce60005260011b7fd36cd1c74ef8d7326d8021b776c18fb5a5724b7f7bc93c2f42e43e10ef27d12a0190600090565b634e487b7160e01b600052603260045260246000fd5b90600182811c92168015612c66575b6020831014612c5057565b634e487b7160e01b600052602260045260246000fd5b91607f1691612c45565b9060009291805491612c8183612c36565b918282526001938481169081600014612ce35750600114612ca3575b50505050565b90919394506000526020928360002092846000945b838610612ccf575050505001019038808080612c9d565b805485870183015294019385908201612cb8565b915050602094955060ff199193501683830152151560051b01019038808080612c9d565b610120810190811067ffffffffffffffff821117612d2457604052565b634e487b7160e01b600052604160045260246000fd5b6040810190811067ffffffffffffffff821117612d2457604052565b6020810190811067ffffffffffffffff821117612d2457604052565b6060810190811067ffffffffffffffff821117612d2457604052565b90601f601f19910116810190811067ffffffffffffffff821117612d2457604052565b919082519283825260005b848110612ddd575050601f19601f8460006020809697860101520116010190565b602081830181015184830182015201612dbc565b6040906001600160a01b03612e1194931681528160208201520190612db1565b90565b9181601f840112156115565782359167ffffffffffffffff8311611556576020808501948460051b01011161155657565b67ffffffffffffffff8111612d2457601f01601f191660200190565b929192612e6d82612e45565b91612e7b6040519384612d8e565b829481845281830111611556578281602093846000960137010152565b9080601f8301121561155657816020612e1193359101612e61565b91906040838203126115565760405190612ecc82612d3a565b8193612ed781612b91565b835260208101359167ffffffffffffffff831161155657602092612efb9201612e98565b910152565b67ffffffffffffffff8111612d245760051b60200190565b92919092612f2584612f00565b91612f336040519384612d8e565b829480845260208094019060051b8301928284116115565780915b848310612f5d57505050505050565b823567ffffffffffffffff8111611556578691612f7d8684938601612eb3565b815201920191612f4e565b9291612f9382612f00565b91612fa16040519384612d8e565b829481845260208094019160051b810192831161155657905b828210612fc75750505050565b838091612fd384612b91565b815201910190612fba565b60031115612fe857565b634e487b7160e01b600052602160045260246000fd5b9060406020612e11936001600160a01b0381511684520151918160208201520190612db1565b908082519081815260208091019281808460051b8301019501936000915b8483106130525750505050505090565b909192939495848061307083601f1986600196030187528a51612ffe565b9801930193019194939290613042565b90612e119163ffffffff8082511683528060208301511660208401528060408301511660408401526060820151166060830152608081015160808301526001600160a01b038060a08301511660a084015260c08201511660c083015260e08101516130ea81612fde565b60e0830152610100809101519161012080928201520190613024565b6001600160a01b0360975416330361311a57565b606460405162461bcd60e51b815260206004820152602060248201527f4f776e61626c653a2063616c6c6572206973206e6f7420746865206f776e65726044820152fd5b609754906001600160a01b0380911691827fffffffffffffffffffffffff0000000000000000000000000000000000000000821617609755167f8be0079c531659141344cd1fd0a4f28419497f9722a3daafe3b4186f6b6457e0600080a3565b156131c557565b608460405162461bcd60e51b815260206004820152602c60248201527f46756e6374696f6e206d7573742062652063616c6c6564207468726f7567682060448201527f64656c656761746563616c6c00000000000000000000000000000000000000006064820152fd5b1561323657565b608460405162461bcd60e51b815260206004820152602c60248201527f46756e6374696f6e206d7573742062652063616c6c6564207468726f7567682060448201527f6163746976652070726f787900000000000000000000000000000000000000006064820152fd5b803b156132fb576001600160a01b037f360894a13ba1a3210667c828492db98dca3e2076cc3735a920a3ca505d382bbc91167fffffffffffffffffffffffff0000000000000000000000000000000000000000825416179055565b608460405162461bcd60e51b815260206004820152602d60248201527f455243313936373a206e657720696d706c656d656e746174696f6e206973206e60448201527f6f74206120636f6e7472616374000000000000000000000000000000000000006064820152fd5b90919015613371575090565b8151156133815750805190602001fd5b6133a59060405191829162461bcd60e51b8352602060048401526024830190612db1565b0390fd5b156133b057565b608460405162461bcd60e51b815260206004820152602b60248201527f496e697469616c697a61626c653a20636f6e7472616374206973206e6f74206960448201527f6e697469616c697a696e670000000000000000000000000000000000000000006064820152fd5b60ca5463ffffffff91828260201c169281169280841061345e5750507fffffffffffffffffffffffffffffffffffffffffffffffffffffffff00000000161760ca55565b6040517fc564bfaf00000000000000000000000000000000000000000000000000000000815263ffffffff918216600482015291166024820152604490fd5b60ca549063ffffffff80831680918316116134ea575067ffffffff000000007fffffffffffffffffffffffffffffffffffffffffffffffff00000000ffffffff9160201b1691161760ca55565b6040517fc564bfaf00000000000000000000000000000000000000000000000000000000815263ffffffff928316600482015291166024820152604490fd5b818110613534575050565b60008155600101613529565b906001600160a01b038251167fffffffffffffffffffffffff000000000000000000000000000000000000000060cf54161760cf556020809201519182519067ffffffffffffffff8211612d245761359960d054612c36565b601f811161365e575b5080601f83116001146135dc57508192936000926135d1575b50506000198260011b9260031b1c19161760d055565b0151905038806135bb565b90601f1983169460d06000527fe89d44c8fd6a9bac8af33ce47f56337617d449bf7ff3956b618c646de829cbcb926000905b87821061364657505083600195961061362d575b505050811b0160d055565b015160001960f88460031b161c19169055388080613622565b8060018596829496860151815501950193019061360e565b6136a79060d06000527fe89d44c8fd6a9bac8af33ce47f56337617d449bf7ff3956b618c646de829cbcb601f850160051c8101918486106136ad575b601f0160051c0190613529565b386135a2565b909150819061369a565b906001600160a01b038151167fffffffffffffffffffffffff00000000000000000000000000000000000000008354161782556001809201916020809201519182519267ffffffffffffffff8411612d24576137138554612c36565b601f81116137bb575b5081601f85116001146137565750600091849182613749575b505060001991921b9260031b1c1916179055565b0151915060001938613735565b919084601f19819596168760005284600020946000905b888383106137a15750505010613788575b505050811b019055565b015160001960f88460031b161c1916905538808061377e565b85870151885590960195948501948793509081019061376d565b6137e5908660005283600020601f870160051c8101918588106136ad57601f0160051c0190613529565b3861371c565b60001981146137fa5760010190565b634e487b7160e01b600052601160045260246000fd5b8051821015612c205760209160051b010190565b805115611b555760005b81518110156138dc576001600160a01b036138498284613810565b515116156138b25761385b8183613810565b519060ce805468010000000000000000811015612d245761388191600182019055612be6565b61389c5761389792613892916136b7565b6137eb565b61382e565b634e487b7160e01b600052600060045260246000fd5b60046040517f3408148f000000000000000000000000000000000000000000000000000000008152fd5b5050565b90815115611b5557600091825b815181101561392e57806001600160a01b0361390c6139299385613810565b5116855260d160205260408520600160ff198254161790556137eb565b6138ed565b50509050565b601f8260209493601f19938186528686013760008582860101520116010190565b90357fffffffffffffffffffffffffffffffffffffffffffffffffffffffffffffffe18236030181121561155657016020813591019167ffffffffffffffff821161155657813603831361155657565b9060406139cd612e11936001600160a01b036139c082612b91565b1684526020810190613955565b9190928160208201520191613934565b359060ff8216820361155657565b90916040602092828482018583525201929160005b828110613a0e575050505090565b9091929382806001926001600160a01b03613a2889612b91565b16815201950193929101613a00565b9060408051613a4581612d07565b809380549263ffffffff80851684526020948181871c16868601528181841c168386015260601c1660608401526001918281015460808501526001600160a01b0394600460029287848201541660a088015260ff600382015489811660c08a015260a01c16613ab381612fde565b60e08801520190815493613ac685612f00565b97613ad38251998a612d8e565b858952600093845282842091838a015b878610613afa575050505050505050506101000152565b86858a928451613b0981612d3a565b8688541681528551613b2181610ea881898d01612c70565b83820152815201940195019492613ae3565b6020015163ffffffff1615613b4457565b60046040517fee032808000000000000000000000000000000000000000000000000000000008152fd5b91909163ffffffff808094169116019182116137fa57565b9035907fffffffffffffffffffffffffffffffffffffffffffffffffffffffffffffffe181360301821215611556570180359067ffffffffffffffff82116115565760200191813603831361155657565b356001600160a01b03811681036115565790565b3360005260d1602052600160ff60406000205416151503613c0857565b60246040517f633854de000000000000000000000000000000000000000000000000000000008152336004820152fd5b919082018092116137fa57565b906002825110613cc957600091825b815184101561392e5760ff90600182613c6d8786613810565b5151161b91828216613c8b57501792613c85906137eb565b92613c54565b602490613c988786613810565b515116604051907f1ed4de830000000000000000000000000000000000000000000000000000000082526004820152fd5b905056fea164736f6c6343000812000a",
    "linkReferences": {}
  },
  "methodIdentifiers": {
    "addAuthenticators(address[])": "8a255e75",
    "addVotingStrategies((address,bytes)[],string[])": "2924c235",
    "cancel(uint256)": "40e58ee5",
    "execute(uint256,bytes)": "59efcb15",
    "getProposal(uint256)": "c7f758a8",
    "getProposalStatus(uint256)": "401853b7",
    "hasVoted(uint256,address)": "43859632",
    "initialize(address,uint32,uint32,uint32,(address,bytes),string,(address,bytes)[],string[],address[])": "7f4ce2a0",
    "maxVotingDuration()": "9d49257c",
    "minVotingDuration()": "6df7bab3",
    "nextProposalId()": "2ab09d14",
    "owner()": "8da5cb5b",
    "proposalThreshold()": "b58131b0",
    "proposalValidationStrategy()": "ab1d89a7",
    "propose(address,string,(address,bytes),bytes)": "aad83f3b",
    "proxiableUUID()": "52d1902d",
    "removeAuthenticators(address[])": "539b0837",
    "removeVotingStrategies(uint8[])": "36bd45e5",
    "renounceOwnership()": "715018a6",
    "setMaxVotingDuration(uint32)": "73c9e70b",
    "setMetadataURI(string)": "750521f5",
    "setMinVotingDuration(uint32)": "0fdca0a1",
    "setProposalValidationStrategy((address,bytes))": "5c41679d",
    "setVotingDelay(uint32)": "127d0ff7",
    "transferOwnership(address)": "f2fde38b",
    "updateProposal(address,uint256,(address,bytes),string)": "0b515570",
    "upgradeTo(address)": "3659cfe6",
    "upgradeToAndCall(address,bytes)": "4f1ef286",
    "vote(address,uint256,uint8,(uint8,bytes)[],string)": "bc7e56f0",
    "votingDelay()": "3932abb1",
    "votingStrategies(uint256)": "2871eadf"
  },
  "id": 55
}