{
  "abi": [
    {
      "inputs": [],
      "name": "SpaceCreationFailed",
      "type": "error"
    },
    {
      "anonymous": false,
      "inputs": [
        {
          "indexed": false,
          "internalType": "address",
          "name": "space",
          "type": "address"
        },
        {
          "indexed": false,
          "internalType": "address",
          "name": "owner",
          "type": "address"
        },
        {
          "indexed": false,
          "internalType": "uint32",
          "name": "votingDelay",
          "type": "uint32"
        },
        {
          "indexed": false,
          "internalType": "uint32",
          "name": "minVotingDuration",
          "type": "uint32"
        },
        {
          "indexed": false,
          "internalType": "uint32",
          "name": "maxVotingDuration",
          "type": "uint32"
        },
        {
          "indexed": false,
          "internalType": "uint256",
          "name": "proposalThreshold",
          "type": "uint256"
        },
        {
          "indexed": false,
          "internalType": "uint256",
          "name": "quorum",
          "type": "uint256"
        },
        {
          "components": [
            {
              "internalType": "address",
              "name": "addy",
              "type": "address"
            },
            {
              "internalType": "bytes",
              "name": "params",
              "type": "bytes"
            }
          ],
          "indexed": false,
          "internalType": "struct Strategy[]",
          "name": "votingStrategies",
          "type": "tuple[]"
        },
        {
          "indexed": false,
          "internalType": "address[]",
          "name": "authenticators",
          "type": "address[]"
        },
        {
          "indexed": false,
          "internalType": "address[]",
          "name": "executionStrategiesAddresses",
          "type": "address[]"
        }
      ],
      "name": "SpaceCreated",
      "type": "event"
    },
    {
      "inputs": [
        {
          "internalType": "address",
          "name": "controller",
          "type": "address"
        },
        {
          "internalType": "uint32",
          "name": "votingDelay",
          "type": "uint32"
        },
        {
          "internalType": "uint32",
          "name": "minVotingDuration",
          "type": "uint32"
        },
        {
          "internalType": "uint32",
          "name": "maxVotingDuration",
          "type": "uint32"
        },
        {
          "internalType": "uint256",
          "name": "proposalThreshold",
          "type": "uint256"
        },
        {
          "internalType": "uint256",
          "name": "quorum",
          "type": "uint256"
        },
        {
          "components": [
            {
              "internalType": "address",
              "name": "addy",
              "type": "address"
            },
            {
              "internalType": "bytes",
              "name": "params",
              "type": "bytes"
            }
          ],
          "internalType": "struct Strategy[]",
          "name": "votingStrategies",
          "type": "tuple[]"
        },
        {
          "internalType": "address[]",
          "name": "authenticators",
          "type": "address[]"
        },
        {
          "internalType": "address[]",
          "name": "executionStrategies",
          "type": "address[]"
        },
        {
          "internalType": "bytes32",
          "name": "salt",
          "type": "bytes32"
        }
      ],
      "name": "createSpace",
      "outputs": [],
      "stateMutability": "nonpayable",
      "type": "function"
    }
  ],
  "bytecode": {
    "object": "0x6080806040523461001657613f1b908161001c8239f35b600080fdfe60806040526004803610156200001457600080fd5b60003560e01c6393fa9af5146200002a57600080fd5b3462000303576101407ffffffffffffffffffffffffffffffffffffffffffffffffffffffffffffffffc3601126200030357803573ffffffffffffffffffffffffffffffffffffffff81168103620003035760243563ffffffff80821682036200030357604435818116810362000303576064358281168103620003035767ffffffffffffffff9260c4358481116200030357620000cc90369089016200032a565b60e4358681116200030357620000e69036908b016200032a565b939094610104358881116200030357620001049036908d016200032a565b9790986080613a206080011090613a206080011117620002d557613a20620004ef60803973ffffffffffffffffffffffffffffffffffffffff8b16613a206080810191909152838b1660a082015281841660c082015282841660e082015260843561010082015260a43561012080830191909152610140820152620001ae9062000194906101a00186886200035e565b613a20608001810360e0613a206080010152878962000497565b613a206080018103610100613a2060800101526101243590620001d56080918b8d62000497565b0360806000f5998a6200020b578c6040517f87a22725000000000000000000000000000000000000000000000000000000008152fd5b90838092604051809e73ffffffffffffffffffffffffffffffffffffffff829f16825273ffffffffffffffffffffffffffffffffffffffff1690602001521660408c01521660608a015216608088015260843560a088015260a43560c088015260e08701610140905261014087019062000285926200035e565b908582036101008701526200029a9262000497565b90838203610120850152620002af9262000497565b037fc5fb3cb98578e80f45cf1dc23516c4e1bcb8ac9762626015fe820c31b6b42c0791a1005b60418c7f4e487b71000000000000000000000000000000000000000000000000000000006000525260246000fd5b600080fd5b359073ffffffffffffffffffffffffffffffffffffffff821682036200030357565b9181601f84011215620003035782359167ffffffffffffffff831162000303576020808501948460051b0101116200030357565b8183526020600583901b84018101939192906000818401855b84831062000389575050505050505090565b909192939495967fffffffffffffffffffffffffffffffffffffffffffffffffffffffffffffffe08088830301845288357fffffffffffffffffffffffffffffffffffffffffffffffffffffffffffffffc1843603018112156200030357830173ffffffffffffffffffffffffffffffffffffffff620004098262000308565b168352868101357fffffffffffffffffffffffffffffffffffffffffffffffffffffffffffffffe182360301811215620003035701868135910167ffffffffffffffff82116200030357813603811362000303576001938893601f84869560408088870152850152806060958686013760008582860101520116010199019301930191959493929062000377565b91908082526020809201929160005b828110620004b5575050505090565b90919293828060019273ffffffffffffffffffffffffffffffffffffffff620004de8962000308565b16815201950193929101620004a656fe60c060405234620002255762003a206200001b8138036200078a565b806080528180380391396080519080380382016101208382031262000225576200004583620007b0565b906200005460208501620007c5565b906200006360408601620007c5565b926200007260608701620007c5565b60808701519360a08801519360c08901519860018060401b038a116200022557890190601f82011215620002255751936020620000b9620000b387620007d7565b6200078a565b8060a0528681520195608051893803810160208860051b8d840101011162000225578a01602001965b60805160208860051b8d830101018910156200023f578851906001600160401b0382116200022557818d82010160408d82601f1994859238030103011262000225576040805193908401916001600160401b038311858410176200022a578f92620001549160209160405201620007b0565b845260805191820101604081015190916001600160401b03821162000225578e380301603f828401011215620002255781810160200151916001600160401b0383116200022a57620001b08f94602090601f860116016200078a565b938385523803608051016040848484010101116200022557906000915b838310620002085750509181602095939286959311620001f9575b5083820152815201970196620000e2565b846000918301015238620001e8565b9091806040602092858501010151828288010152019190620001cd565b600080fd5b60246000634e487b7160e01b81526041600452fd5b505060805160e0810151959650899589916001600160401b0382116200022557620002719188380382019101620007ef565b6080516101008101519197916001600160401b03811162000225576200029d92380382019101620007ef565b96620002a93362000856565b600054336001600160a01b039091160362000746576001600160a01b03811615620006f257620002d99062000856565b6000549063ffffffff95868360c01c168088831610620006cc575060a090811b63ffffffff60a01b16919063ffffffff60a01b1984168317901c87168782168110620006a6575063ffffffff60c01b9060c01b1691600160a01b600160e01b03191617176000556002556003551663ffffffff19600454161760045560a05151156200069457906000915b60a0518051841015620005e6576001600160a01b039062000387908590620008c8565b51511615620005d4576200039e8360a051620008c8565b519260055468010000000000000000811015620005a8576001810180600555811015620005be5760056000528451600182901b7f036b6384b5eca791c62761152d0c79bb0604c104a5fb6f4eb0703f3154bb3db090810180546001600160a01b0319166001600160a01b039093169290921790915560209095015180519095906001600160401b038111620005a857600183811b83010154600181811c911680156200059d575b60208210146200058757601f811162000533575b506020601f8211600114620004af579080600193926200049b979899600092620004a3575b5050600019600383901b1c191690831b1792821b010155620008a2565b919062000364565b0151905089806200047e565b600184819993991b84010160005260206000209160005b601f198a1681106200051a5750976001939284926200049b98999a83601f1981161062000500575b505050811b0192821b010155620008a2565b015160001960f88460031b161c19169055898080620004ee565b82820151845560019093019260209283019201620004c6565b600184811b8401016000526020600020601f830160051c810191602084106200057c575b601f0160051c01905b8181106200056f575062000459565b6000815560010162000560565b909150819062000557565b634e487b7160e01b600052602260045260246000fd5b90607f169062000445565b634e487b7160e01b600052604160045260246000fd5b634e487b7160e01b600052603260045260246000fd5b60405163b2deb85b60e01b8152600490fd5b5060005b815181101562000633576200062d906001600160a01b036200060d8285620008c8565b511660005260076020526040600020600160ff19825416179055620008a2565b620005ea565b8260005b815181101562000680576200067a906001600160a01b036200065a8285620008c8565b511660005260066020526040600020600160ff19825416179055620008a2565b62000637565b600180556040516131429081620008de8239f35b60405163521299a960e01b8152600490fd5b60405163c564bfaf60e01b815263ffffffff928316600482015291166024820152604490fd5b60405163c564bfaf60e01b815263ffffffff918216600482015291166024820152604490fd5b60405162461bcd60e51b815260206004820152602660248201527f4f776e61626c653a206e6577206f776e657220697320746865207a65726f206160448201526564647265737360d01b6064820152608490fd5b606460405162461bcd60e51b815260206004820152602060248201527f4f776e61626c653a2063616c6c6572206973206e6f7420746865206f776e65726044820152fd5b6040519190601f01601f191682016001600160401b03811183821017620005a857604052565b51906001600160a01b03821682036200022557565b519063ffffffff821682036200022557565b6001600160401b038111620005a85760051b60200190565b9080601f8301121562000225578151906200080e620000b383620007d7565b9182938184526020808095019260051b82010192831162000225578301905b8282106200083c575050505090565b8380916200084a84620007b0565b8152019101906200082d565b600080546001600160a01b039283166001600160a01b03198216811783556040519093909116917f8be0079c531659141344cd1fd0a4f28419497f9722a3daafe3b4186f6b6457e091a3565b6000198114620008b25760010190565b634e487b7160e01b600052601160045260246000fd5b8051821015620005be5760209160051b01019056fe60a0604052600436101561001257600080fd5b6000803560e01c80630fdca0a1146123375780631130630c146122c5578063127d0ff7146122405780631555217b146120ab5780631703a0181461208d5780631984b24e14611c6057806325ba2293146119965780632ab09d14146119785780633018205f1461097d57806336bd45e5146116ce5780633932abb1146116aa578063401853b71461166457806343859632146115eb578063539b0837146115225780635b9ceb99146114595780636df7bab314611433578063715018a6146113af57806373c9e70b146112be57806377dda71a14610a7c5780638a255e75146109b05780638da5cb5b1461097d57806392eefe9b146108fc5780639d49257c146108d65780639deb0f7a1461045c578063b58131b01461043e578063c1ba4e59146103ee578063c7f758a814610365578063ece40cc114610315578063f2fde38b146102455763f5669c4c1461016757600080fd5b346102425760208060031936011261023e5760043567ffffffffffffffff811161023a576101999036906004016124d2565b6101a492919261268c565b6101af368285612970565b90845b82518110156101ff578073ffffffffffffffffffffffffffffffffffffffff6101de6101fa93866128ad565b511687526006855260408720600160ff19825416179055612888565b6101b2565b857f86ccabb1fbb3f619059a146d5df363f7bdb781cfbb82ae4717c32ab13cdbe54a8387610232604051928392836129c6565b0390a1604051f35b8280fd5b5080fd5b80fd5b50346102425760206003193601126102425761025f61248e565b61026761268c565b73ffffffffffffffffffffffffffffffffffffffff8116156102915761028c9061270b565b604051f35b60846040517f08c379a000000000000000000000000000000000000000000000000000000000815260206004820152602660248201527f4f776e61626c653a206e6577206f776e657220697320746865207a65726f206160448201527f64647265737300000000000000000000000000000000000000000000000000006064820152fd5b5034610242576020600319360112610242577f75176781f69c55e26fee85d480452b0b9038b9428704bb7b232fc1c638bbf803602060043561035561268c565b80600255604051908152a1604051f35b5034610242576020600319360112610242576103cd60406103ea9260606101008351610390816127cb565b838152836020820152838582015283838201528360808201528360a08201528360c08201528360e082015201526004358152600860205220612b02565b6103d681612be9565b604051918291602083526020830190612554565b0390f35b5034610242576020600319360112610242577ff18f88786aae85a652aadb99a82462616489a33370c9bcc7b245906812ef7cd1602060043561042e61268c565b80600355604051908152a1604051f35b50346102425780600319360112610242576020600254604051908152f35b5034610242576080906020825260206003193601126102425767ffffffffffffffff60043581811161023a576104969036906004016124d2565b9190926104a161268c565b6104aa8361280b565b926104b860405194856127e8565b8084528551840160059180831b91828801903682116108d25788905b8282106108725750505085511561084857835b86518110156106fa5773ffffffffffffffffffffffffffffffffffffffff9081610511828a6128ad565b515116156106d05761052381896128ad565b51855492680100000000000000008410156106bc5761054860019485810189556128d7565b6106a65784918351167fffffffffffffffffffffffff000000000000000000000000000000000000000082541617815501908b51015192835190898211610690576105938354612911565b8d601f91828111610656575b50508d5190819084116001146105e857508280916105d6976000936105db575b505060001991921b9260031b1c1916179055612888565b6104e7565b01519150600019386105bf565b91939495601f1984168660005282600020936000905b82821061063f57505090846105d69897969594939210610626575b505050811b019055612888565b015160001960f88460031b161c19169055388080610619565b8088869782949787015181550196019401906105fe565b610680918660005251908382600020918d828901901c8301938810610687575b018c1c019061294b565b8d3861059f565b92508192610676565b634e487b7160e01b600052604160045260246000fd5b634e487b7160e01b600052600060045260246000fd5b602488634e487b7160e01b81526041600452fd5b60046040517fb2deb85b000000000000000000000000000000000000000000000000000000008152fd5b8483898b8986604051948184518088019088525260408087019187010194809488915b84831061075057897f9fae90e6a969fc8c825d166f95ab14662bfc328ef3d02819492a2618b3b7cce68a8a038ba1604051f35b909192939495967fffffffffffffffffffffffffffffffffffffffffffffffffffffffffffffffc089820301855287357fffffffffffffffffffffffffffffffffffffffffffffffffffffffffffffffc1833603018112156108445782019073ffffffffffffffffffffffffffffffffffffffff6107cd836124b1565b168152835191828101357fffffffffffffffffffffffffffffffffffffffffffffffffffffffffffffffe18236030181121561084057018281019035898111610840578036038213610840576040838160019661082d960152019161277a565b835190988101979695019301919061071d565b8c80fd5b8a80fd5b60046040517f521299a9000000000000000000000000000000000000000000000000000000008152fd5b81358881116108ce578a016040813603126108ce5760405190610894826127af565b61089d816124b1565b82528c518101358a81116108ca576108b79136910161286a565b8c5182015281528a5191820191016104d4565b8980fd5b8780fd5b8580fd5b503461024257806003193601126102425763ffffffff6020915460a01c16604051908152f35b50346102425760206003193601126102425761091661248e565b61091e61268c565b61092661268c565b73ffffffffffffffffffffffffffffffffffffffff8116908115610291577f1304018cfe79741dcf02ba6b61d39cc4757d59395d03224d9925c7aa830021469161097160209261270b565b604051908152a1604051f35b503461024257806003193601126102425773ffffffffffffffffffffffffffffffffffffffff6020915416604051908152f35b50346102425760208060031936011261023e5760043567ffffffffffffffff811161023a576109e39036906004016124d2565b6109ee92919261268c565b6109f9368285612970565b90845b8251811015610a49578073ffffffffffffffffffffffffffffffffffffffff610a28610a4493866128ad565b511687526007855260408720600160ff19825416179055612888565b6109fc565b857f0f1800fbca5c51a50ca47d2d359d89a9872ebc0d41b791582770add9d9d7e7bc8387610232604051928392836129c6565b50346102425760031960808136011261023e57610a9761248e565b60243567ffffffffffffffff81116112ba57610ab790369060040161242c565b9267ffffffffffffffff604435116112b657604090604435360301126112ba5760643567ffffffffffffffff81116112b657610af79036906004016124d2565b90610b00612ea3565b73ffffffffffffffffffffffffffffffffffffffff610b23604435600401612d99565b168087526006602052600160ff604089205416151503611285575090610b52610b4d368385612ef0565b613031565b859186915b8083106110ed5750505060025481106110bc5750610b8363ffffffff6004541663ffffffff4216612dba565b9073ffffffffffffffffffffffffffffffffffffffff855492610bbe63ffffffff610bb3818760c01c1684612dba565b9560a01c1682612dba565b63ffffffff610be1610bda602460443501604435600401612dd3565b3691612823565b6020815191012091816003549781610bfd604435600401612d99565b966040519a610c0b8c6127cb565b8b5281421660208c01521660408a015216606088015216608086015260a08501521660c08301528460e0830152600554610c448161280b565b90610c5260405192836127e8565b8082526020820160056000527f036b6384b5eca791c62761152d0c79bb0604c104a5fb6f4eb0703f3154bb3db06000915b83831061109e57505050506101008301526001548552600860205260408520825181556001810163ffffffff60208501511681549067ffffffff00000000604087015160201b166bffffffff0000000000000000606088015160401b16917fffffffffffffffffffffffffffffffff000000000000000000000000000000006fffffffff00000000000000000000000060808a015160601b16941617171717905560a083015160028201556003810173ffffffffffffffffffffffffffffffffffffffff60c0850151167fffffffffffffffffffffffff000000000000000000000000000000000000000082541617815560e084015190600482101561108a5790610d8d91612e24565b6101008301518051906801000000000000000082116106bc576004830154826004850155808310610fef575b5060206004910192018752602087209187905b828210610e815788610e79897f3c6da401d0ddfa6ef4b71de265d8517fc7b558c6170528b18937f65a95461ad173ffffffffffffffffffffffffffffffffffffffff8b610e718c610e55610e638e60015498610e32602460443501604435600401612dd3565b949095604051998a998d8b521660208a015260a060408a015260a0890190612554565b91878303606089015261277a565b91848303608086015261277a565b0390a1612888565b600155604051f35b6020815173ffffffffffffffffffffffffffffffffffffffff8151167fffffffffffffffffffffffff0000000000000000000000000000000000000000875416178655015180519067ffffffffffffffff821161069057610ee56001870154612911565b90601f91828111610fb2575b506020918311600114610f3d579282600293602093600196600092610f32575b505060001982871b9260031b1c191617848801555b01940191019092610dcc565b015190503880610f11565b906001870160005260206000209160005b601f1985168110610f9a57508360209360019693879383601f196002991610610f81575b505050811b0184880155610f26565b015160001960f88460031b161c19169055388080610f72565b91926020600181928685015181550194019201610f4e565b610fe0906001890160005260206000208480870160051c82019260208810610fe6575b0160051c019061294b565b38610ef1565b92508192610fd5565b610ff890612e73565b61100183612e73565b90600485018a5260208a209182015b8183018110611020575050610db9565b808b600292558b600182016110358154612911565b80611044575b50505001611010565b601f80821160011461106057505060009150555b8b388061103b565b90600161107c9284865260208620920160051c8201910161294b565b600060208320915555611058565b602488634e487b7160e01b81526021600452fd5b600260206001926110ae85612a1f565b815201920192019190610c83565b602490604051907f3222f9a10000000000000000000000000000000000000000000000000000000082526004820152fd5b9091926111036110fe858486612f95565b612fd5565b60055460ff821610156112515760056000526111476101fe8260011b167f036b6384b5eca791c62761152d0c79bb0604c104a5fb6f4eb0703f3154bb3db001612a1f565b9073ffffffffffffffffffffffffffffffffffffffff82511615611251575060208073ffffffffffffffffffffffffffffffffffffffff83511692015161119b611192888789612f95565b83810190612dd3565b9390918c8b6111e0604051978896879586947f871d81b700000000000000000000000000000000000000000000000000000000865263ffffffff421660048701612fe3565b03925af190811561124657899161120d575b506112009061120692612d41565b93612888565b9190610b57565b90506020813d60201161123e575b81611228602093836127e8565b8101031261123957516112066111f2565b600080fd5b3d915061121b565b6040513d8b823e3d90fd5b60249060ff604051917fbe04e1dc000000000000000000000000000000000000000000000000000000008352166004820152fd5b602490604051907f3d6ed7710000000000000000000000000000000000000000000000000000000082526004820152fd5b8480fd5b8380fd5b50346102425760206003193601126102425760043563ffffffff808216918281036112ba576112eb61268c565b8354918260c01c168084106113705750916020917fffffffffffffffff00000000ffffffffffffffffffffffffffffffffffffffff77ffffffff00000000000000000000000000000000000000007f50b3808988e8880c34e4b58088d8eeeb40410dd2a2238a299db9187644259b059560a01b169116178455604051908152a1604051f35b6040517fc564bfaf00000000000000000000000000000000000000000000000000000000815263ffffffff918216600482015291166024820152604490fd5b50346102425780600319360112610242576113c861268c565b6000547fffffffffffffffffffffffff00000000000000000000000000000000000000008116600055600073ffffffffffffffffffffffffffffffffffffffff60405192167f8be0079c531659141344cd1fd0a4f28419497f9722a3daafe3b4186f6b6457e08284a3f35b503461024257806003193601126102425763ffffffff6020915460c01c16604051908152f35b50346102425760208060031936011261023e5760043567ffffffffffffffff811161023a5761148c9036906004016124d2565b61149792919261268c565b6114a2368285612970565b90845b82518110156114ef578073ffffffffffffffffffffffffffffffffffffffff6114d16114ea93866128ad565b51168752600685526040872060ff198154169055612888565b6114a5565b857f60e61d49c35254b82485ac9580c847fa94b17fafbe5f917e172574639ec21bf68387610232604051928392836129c6565b50346102425760208060031936011261023e5760043567ffffffffffffffff811161023a576115559036906004016124d2565b61156092919261268c565b61156b368285612970565b90845b82518110156115b8578073ffffffffffffffffffffffffffffffffffffffff61159a6115b393866128ad565b51168752600785526040872060ff198154169055612888565b61156e565b857f2befc5f117311dbd6cabfd7bc4cec09eeefc83a55c9140bbf298951571f5cb868387610232604051928392836129c6565b5034610242576040600319360112610242576004356024359173ffffffffffffffffffffffffffffffffffffffff831680930361123957816040928252600860205261164061163b848420612b02565b612be9565b815260096020522090600052602052602060ff604060002054166040519015158152f35b503461024257602060031936011261024257611681600435612c24565b60405190600781101561169657602092508152f35b602483634e487b7160e01b81526021600452fd5b5034610242578060031936011261024257602063ffffffff60045416604051908152f35b503461024257602090816003193601126102425767ffffffffffffffff9160043583811161023a576117049036906004016124d2565b939061170e61268c565b6117178561280b565b61172460405191826127e8565b85815260059086821b83018582013682116108ce578685915b8383106119605750505050855b815160ff90818316908110156118f45761176f8261176883876128ad565b51166128d7565b507fffffffffffffffffffffffff000000000000000000000000000000000000000081541690556040519188830183811089821117610690576117bc92611768916040528b8552866128ad565b50906001809201918151918883116118e0576117d88454612911565b908b8b601f93848082116118ab575b505050508a918411600114611848578b9184918261183b575b505060001991921b9260031b1c19161790555b60ff8091169081146118275760010161174a565b602487634e487b7160e01b81526011600452fd5b0151915060001938611800565b848c528a8c20929392919083601f1981168e8e5b88838310611893575050501061187a575b505050811b019055611813565b015160001960f88460031b161c1916905538808061186d565b8686015188559096019594850194879350018e61185c565b82848a6118ce965220918189018d1c83019389106118d7575b018b1c019061294b565b8b8b38846117e7565b925081926118c4565b60248b634e487b7160e01b81526041600452fd5b60408051898152808a018c90528a918101888d8c855b82811061193d57867f24c5d4b9c170a0ef0634046f1a7a184dd341c99da7242482e42cc2782076cea387870388a1604051f35b90919293828060019260ff61195189612962565b1681520195019392910161190a565b819061196b84612962565b815201910190879061173d565b50346102425780600319360112610242576020600154604051908152f35b5034610242576119a53661245a565b908284526008602052604084206119be61163b82612b02565b600381019182549360ff8560a01c16600481101561108a57611c365763ffffffff80421660018501549080838360401c1611611c0c576119ff368587612823565b60208151910120600287015403611be257611a1c898b9754612d4d565b50949093909115611b86575050501115611b695773ffffffffffffffffffffffffffffffffffffffff83955b1691823b156112ba57611aa4928492836040518096819582947ffb4d364c000000000000000000000000000000000000000000000000000000008452611a8d8d612d37565b8c600485015260406024850152604484019161277a565b03925af18015611b5e57611b4a575b5050611abe82612d37565b60ff821660fe8111611b365760010160ff16906004821015611b225791611b097f34a42c4ce0a88d16ad098de6406057747139a2a3dd8dd8616ee7bbabcecb768e9492604094612e24565b8251918252611b1781612d37565b6020820152a1604051f35b602485634e487b7160e01b81526021600452fd5b602485634e487b7160e01b81526011600452fd5b611b539061279b565b6112ba578338611ab3565b6040513d84823e3d90fd5b73ffffffffffffffffffffffffffffffffffffffff600195611a48565b9250925092945060601c1611600014611bc35760046040517f409a7f85000000000000000000000000000000000000000000000000000000008152fd5b859173ffffffffffffffffffffffffffffffffffffffff600195611a48565b60046040517f65fcf03a000000000000000000000000000000000000000000000000000000008152fd5b60046040517f42d3f297000000000000000000000000000000000000000000000000000000008152fd5b60046040517f51618d53000000000000000000000000000000000000000000000000000000008152fd5b503461024257608060031936011261024257611c7a61248e565b6003604435101561023e5760643567ffffffffffffffff811161023a57611ca59036906004016124d2565b611cad612ea3565b60243584526008602052611cc360408520612b02565b91611ccd83612be9565b60e0830151600481101561207957611c365763ffffffff8042168160808601511681101561204f57816040860151161161202557602435865260096020526040862073ffffffffffffffffffffffffffffffffffffffff8616600052602052600160ff60406000205416151514611ffb576101009060208594939501511692015192611d5d610b4d368484612ef0565b859386935b838510611eb3578787878015611e89577f79533ed92b5d1878e96ddacfd073144fd0caae2e033f7fc9770afd6120e02e07916080916024358552600a60205260408520611db0604435612d37565b6044358652602052611dc6816040872054612d41565b6024358652600a60205260408620611ddf604435612d37565b60443587526020526040862055602435855260096020526040852073ffffffffffffffffffffffffffffffffffffffff83166000526020526040600020600160ff19825416179055604051611e33816127af565b611e3e604435612d37565b60443581526020810191825273ffffffffffffffffffffffffffffffffffffffff60405193602435855216602084015251611e7881612d37565b6040830152516060820152a1604051f35b60046040517fdf0cf4fb000000000000000000000000000000000000000000000000000000008152fd5b909192939460ff611ec86110fe888888612f95565b168351811015611fca57611edc81856128ad565b519073ffffffffffffffffffffffffffffffffffffffff82511615611fca575060208073ffffffffffffffffffffffffffffffffffffffff835116920151611f286111928a8a8a612f95565b9390918c8c611f67604051978896879586947f871d81b70000000000000000000000000000000000000000000000000000000086528d60048701612fe3565b03925af1908115611246578991611f96575b50611f8790611f8d92612d41565b95612888565b93929190611d62565b90506020813d602011611fc2575b81611fb1602093836127e8565b810103126112395751611f8d611f79565b3d9150611fa4565b602490604051907fbe04e1dc0000000000000000000000000000000000000000000000000000000082526004820152fd5b60046040517f1f652102000000000000000000000000000000000000000000000000000000008152fd5b60046040517f688c575a000000000000000000000000000000000000000000000000000000008152fd5b60046040517f6613a282000000000000000000000000000000000000000000000000000000008152fd5b602486634e487b7160e01b81526021600452fd5b50346102425780600319360112610242576020600354604051908152f35b5034610242576120ba3661245a565b6120c261268c565b8284526008602052604084206120da61163b82612b02565b600381019283549160ff8360a01c16600481101561108a57611c36576002612103368685612823565b6020815191012091015403611be25773ffffffffffffffffffffffffffffffffffffffff869216803b1561023a5761217a93836040518096819582947ffb4d364c0000000000000000000000000000000000000000000000000000000084526002600485015260406024850152604484019161277a565b03925af18015612235576121fd575b5080547fffffffffffffffffffffff00ffffffffffffffffffffffffffffffffffffffff167403000000000000000000000000000000000000000017905560408051918252600260208301527f34a42c4ce0a88d16ad098de6406057747139a2a3dd8dd8616ee7bbabcecb768e91a1604051f35b916040919361222c7f34a42c4ce0a88d16ad098de6406057747139a2a3dd8dd8616ee7bbabcecb768e9461279b565b93915091612189565b6040513d86823e3d90fd5b50346102425760206003193601126102425760043563ffffffff811680910361023e5760207fba76433d63148cc0d7df02d39ab5cddf8737df279d4af4c7bce819a2ef719e959161228f61268c565b807fffffffffffffffffffffffffffffffffffffffffffffffffffffffff000000006004541617600455604051908152a1604051f35b50346102425760206003193601126102425760043567ffffffffffffffff811161023e576123187f48674fffb03fee00a113cc146f3aa94a9720a4cb3839fbb855c436859d39a97791369060040161242c565b61232061268c565b61023260405192839260208452602084019161277a565b50346102425760206003193601126102425760043563ffffffff808216918281036112ba5761236461268c565b8354918260a01c168084116123ed5750916020917fffffffff00000000ffffffffffffffffffffffffffffffffffffffffffffffff7bffffffff0000000000000000000000000000000000000000000000007fa596cfacd06610b4e094472b3f6712f263b9a8af5fbd18924780c678a4fc55e69560c01b169116178455604051908152a1604051f35b6040517fc564bfaf00000000000000000000000000000000000000000000000000000000815263ffffffff928316600482015291166024820152604490fd5b9181601f840112156112395782359167ffffffffffffffff8311611239576020838186019501011161123957565b90604060031983011261123957600435916024359067ffffffffffffffff82116112395761248a9160040161242c565b9091565b6004359073ffffffffffffffffffffffffffffffffffffffff8216820361123957565b359073ffffffffffffffffffffffffffffffffffffffff8216820361123957565b9181601f840112156112395782359167ffffffffffffffff8311611239576020808501948460051b01011161123957565b91908251928382526000905b84821061253c5750601f8460209495601f19931161252f575b0116010190565b6000858286010152612528565b9060209081808285010151908286010152019061250f565b9061012090818101918351825263ffffffff916020928084870151168483015260409080828801511682840152806060880151166060840152608087015116608083015260a086015160a083015273ffffffffffffffffffffffffffffffffffffffff928360c08801511660c084015260e087015160048110156126765760e084979695970152610100809701519683015285518094526101409083828401928660051b8501019701956000935b86851061261457505050505050505090565b909192939495969786806126648387838e7ffffffffffffffffffffffffffffffffffffffffffffffffffffffffffffffec08960019903018c525189815116845201519181858201520190612503565b9a019501950193969594929190612602565b634e487b7160e01b600052602160045260246000fd5b73ffffffffffffffffffffffffffffffffffffffff6000541633036126ad57565b60646040517f08c379a000000000000000000000000000000000000000000000000000000000815260206004820152602060248201527f4f776e61626c653a2063616c6c6572206973206e6f7420746865206f776e65726044820152fd5b6000549073ffffffffffffffffffffffffffffffffffffffff80911691827fffffffffffffffffffffffff0000000000000000000000000000000000000000821617600055167f8be0079c531659141344cd1fd0a4f28419497f9722a3daafe3b4186f6b6457e06000604051a3565b601f8260209493601f19938186528686013760008582860101520116010190565b67ffffffffffffffff811161069057604052565b6040810190811067ffffffffffffffff82111761069057604052565b610120810190811067ffffffffffffffff82111761069057604052565b90601f601f19910116810190811067ffffffffffffffff82111761069057604052565b67ffffffffffffffff81116106905760051b60200190565b92919267ffffffffffffffff8211610690576040519161284d6020601f19601f84011601846127e8565b829481845281830111611239578281602093846000960137010152565b9080601f830112156112395781602061288593359101612823565b90565b60001981146128975760010190565b634e487b7160e01b600052601160045260246000fd5b80518210156128c15760209160051b010190565b634e487b7160e01b600052603260045260246000fd5b6005548110156128c157600560005260011b7f036b6384b5eca791c62761152d0c79bb0604c104a5fb6f4eb0703f3154bb3db00190600090565b90600182811c92168015612941575b602083101461292b57565b634e487b7160e01b600052602260045260246000fd5b91607f1691612920565b818110612956575050565b6000815560010161294b565b359060ff8216820361123957565b929161297b8261280b565b9161298960405193846127e8565b829481845260208094019160051b810192831161123957905b8282106129af5750505050565b8380916129bb846124b1565b8152019101906129a2565b90916040602092828482018583525201929160005b8281106129e9575050505090565b90919293828060019273ffffffffffffffffffffffffffffffffffffffff612a10896124b1565b168152019501939291016129db565b9060405191612a2d836127af565b8273ffffffffffffffffffffffffffffffffffffffff8254168152600180920191604051928391600091805490612a6382612911565b80865291838116908115612ad95750600114612a90575b50505060209291612a8c9103846127e8565b0152565b909493925060005260209081600020946000915b818310612ac157509394509192509082010181612a8c6020612a7a565b86548884018501529586019587945091830191612aa4565b60ff191660208781019190915292151560051b860183019450859350612a8c929150612a7a9050565b9060405191612b10836127cb565b82815481526001808301549263ffffffff602094818116868601528181871c166040860152818160401c16606086015260601c1660808401526002908181015460a085015260ff600382015473ffffffffffffffffffffffffffffffffffffffff811660c087015260a01c169060048210156126765760049160e08601520190815491612b9c8361280b565b95612baa60405197886127e8565b83875260009182528082208188015b858410612bce57505050505050506101000152565b84838892612bdb85612a1f565b815201920193019290612bb9565b6040015163ffffffff1615612bfa57565b60046040517fee032808000000000000000000000000000000000000000000000000000000008152fd5b6000908082526008602052612c4f612c3e60408420612b02565b91612c4883612be9565b8251612d4d565b5050509060e081019283519360049485811015612d2457612cbd57505063ffffffff90816040820151164210600014612c8b5750505050600390565b60808101518216421115612ca25750505050600690565b6060015116421115612cb957156128855750600590565b5090565b915091505182811015612d115760ff1660018110612cfe576000190160ff16916007831015612ceb57505090565b906021602492634e487b7160e01b835252fd5b506011602492634e487b7160e01b835252fd5b506021602492634e487b7160e01b835252fd5b602483602188634e487b7160e01b835252fd5b6003111561267657565b81198111612897570190565b6000918252600a602090815260408084206001855290915280832054838052818420546002855291909320549293909291612d9183612d8c8688612d41565b612d41565b101593929190565b3573ffffffffffffffffffffffffffffffffffffffff811681036112395790565b9063ffffffff8080931691168092038111612897570190565b9035907fffffffffffffffffffffffffffffffffffffffffffffffffffffffffffffffe181360301821215611239570180359067ffffffffffffffff82116112395760200191813603831361123957565b906004811015612676577fffffffffffffffffffffff00ffffffffffffffffffffffffffffffffffffffff74ff000000000000000000000000000000000000000083549260a01b169116179055565b7f7fffffffffffffffffffffffffffffffffffffffffffffffffffffffffffffff81116001166128975760011b90565b336000526007602052600160ff60406000205416151503612ec057565b60246040517f633854de000000000000000000000000000000000000000000000000000000008152336004820152fd5b90929192612efd8161280b565b91604091612f0d835194856127e8565b839581855260208095019160051b8301938185116112395783925b858410612f385750505050505050565b67ffffffffffffffff908435828111611239578601908382860312611239578351612f62816127af565b612f6b83612962565b81528983013593841161123957612f86868b9586950161286a565b83820152815201930192612f28565b91908110156128c15760051b810135907fffffffffffffffffffffffffffffffffffffffffffffffffffffffffffffffc181360301821215611239570190565b3560ff811681036112395790565b93919273ffffffffffffffffffffffffffffffffffffffff612885969463ffffffff61302394168752166020860152608060408601526080850190612503565b92606081850391015261277a565b805161303a5750565b906000915b805192600193848110612897576000190181101561312f577ffffffffffffffffffffffffffffffffffffffffffffffffffffffffffffffffe811161289757808401845b61309c575b5061309591929350612888565b919061303f565b825181101561312a5760ff806130b284866128ad565b515116816130c084876128ad565b515116146130d957506130d38591612888565b90613083565b6130f48492826130eb604496866128ad565b515116936128ad565b515116604051917f5bfc5b2100000000000000000000000000000000000000000000000000000000835260048301526024820152fd5b613088565b5050905056fea164736f6c634300080f000aa164736f6c634300080f000a",
    "linkReferences": {}
  },
  "methodIdentifiers": {
    "createSpace(address,uint32,uint32,uint32,uint256,uint256,(address,bytes)[],address[],address[],bytes32)": "93fa9af5"
  },
  "id": 33
}