{
  "abi": [
    {
      "inputs": [],
      "name": "ArrayLengthMismatch",
      "type": "error"
    },
    {
      "inputs": [],
      "name": "AuthenticatorNotWhitelisted",
      "type": "error"
    },
    {
      "inputs": [
        {
          "internalType": "uint8",
          "name": "index",
          "type": "uint8"
        }
      ],
      "name": "DuplicateFound",
      "type": "error"
    },
    {
      "inputs": [],
      "name": "EmptyArray",
      "type": "error"
    },
    {
      "inputs": [],
      "name": "ExceedsStrategyLimit",
      "type": "error"
    },
    {
      "inputs": [],
      "name": "FailedToPassProposalValidation",
      "type": "error"
    },
    {
      "inputs": [],
      "name": "InvalidCaller",
      "type": "error"
    },
    {
      "inputs": [
        {
          "internalType": "uint32",
          "name": "minVotingDuration",
          "type": "uint32"
        },
        {
          "internalType": "uint32",
          "name": "maxVotingDuration",
          "type": "uint32"
        }
      ],
      "name": "InvalidDuration",
      "type": "error"
    },
    {
      "inputs": [],
      "name": "InvalidProposal",
      "type": "error"
    },
    {
      "inputs": [
        {
          "internalType": "uint256",
          "name": "index",
          "type": "uint256"
        }
      ],
      "name": "InvalidStrategyIndex",
      "type": "error"
    },
    {
      "inputs": [],
      "name": "NoActiveVotingStrategies",
      "type": "error"
    },
    {
      "inputs": [],
      "name": "ProposalFinalized",
      "type": "error"
    },
    {
      "inputs": [],
      "name": "UserAlreadyVoted",
      "type": "error"
    },
    {
      "inputs": [],
      "name": "UserHasNoVotingPower",
      "type": "error"
    },
    {
      "inputs": [],
      "name": "VotingDelayHasPassed",
      "type": "error"
    },
    {
      "inputs": [],
      "name": "VotingPeriodHasEnded",
      "type": "error"
    },
    {
      "inputs": [],
      "name": "VotingPeriodHasNotStarted",
      "type": "error"
    },
    {
      "inputs": [],
      "name": "ZeroAddress",
      "type": "error"
    },
    {
      "anonymous": false,
      "inputs": [
        {
          "indexed": false,
          "internalType": "address",
          "name": "previousAdmin",
          "type": "address"
        },
        {
          "indexed": false,
          "internalType": "address",
          "name": "newAdmin",
          "type": "address"
        }
      ],
      "name": "AdminChanged",
      "type": "event"
    },
    {
      "anonymous": false,
      "inputs": [
        {
          "indexed": false,
          "internalType": "address[]",
          "name": "newAuthenticators",
          "type": "address[]"
        }
      ],
      "name": "AuthenticatorsAdded",
      "type": "event"
    },
    {
      "anonymous": false,
      "inputs": [
        {
          "indexed": false,
          "internalType": "address[]",
          "name": "authenticators",
          "type": "address[]"
        }
      ],
      "name": "AuthenticatorsRemoved",
      "type": "event"
    },
    {
      "anonymous": false,
      "inputs": [
        {
          "indexed": true,
          "internalType": "address",
          "name": "beacon",
          "type": "address"
        }
      ],
      "name": "BeaconUpgraded",
      "type": "event"
    },
    {
      "anonymous": false,
      "inputs": [
        {
          "indexed": false,
          "internalType": "string",
          "name": "newDaoURI",
          "type": "string"
        }
      ],
      "name": "DaoURIUpdated",
      "type": "event"
    },
    {
      "anonymous": false,
      "inputs": [
        {
          "indexed": false,
          "internalType": "uint8",
          "name": "version",
          "type": "uint8"
        }
      ],
      "name": "Initialized",
      "type": "event"
    },
    {
      "anonymous": false,
      "inputs": [
        {
          "indexed": false,
          "internalType": "uint32",
          "name": "newMaxVotingDuration",
          "type": "uint32"
        }
      ],
      "name": "MaxVotingDurationUpdated",
      "type": "event"
    },
    {
      "anonymous": false,
      "inputs": [
        {
          "indexed": false,
          "internalType": "string",
          "name": "newMetadataURI",
          "type": "string"
        }
      ],
      "name": "MetadataURIUpdated",
      "type": "event"
    },
    {
      "anonymous": false,
      "inputs": [
        {
          "indexed": false,
          "internalType": "uint32",
          "name": "newMinVotingDuration",
          "type": "uint32"
        }
      ],
      "name": "MinVotingDurationUpdated",
      "type": "event"
    },
    {
      "anonymous": false,
      "inputs": [
        {
          "indexed": true,
          "internalType": "address",
          "name": "previousOwner",
          "type": "address"
        },
        {
          "indexed": true,
          "internalType": "address",
          "name": "newOwner",
          "type": "address"
        }
      ],
      "name": "OwnershipTransferred",
      "type": "event"
    },
    {
      "anonymous": false,
      "inputs": [
        {
          "indexed": false,
          "internalType": "uint256",
          "name": "proposalId",
          "type": "uint256"
        }
      ],
      "name": "ProposalCancelled",
      "type": "event"
    },
    {
      "anonymous": false,
      "inputs": [
        {
          "indexed": false,
          "internalType": "uint256",
          "name": "proposalId",
          "type": "uint256"
        },
        {
          "indexed": false,
          "internalType": "address",
          "name": "author",
          "type": "address"
        },
        {
          "components": [
            {
              "internalType": "uint32",
              "name": "snapshotTimestamp",
              "type": "uint32"
            },
            {
              "internalType": "uint32",
              "name": "startTimestamp",
              "type": "uint32"
            },
            {
              "internalType": "uint32",
              "name": "minEndTimestamp",
              "type": "uint32"
            },
            {
              "internalType": "uint32",
              "name": "maxEndTimestamp",
              "type": "uint32"
            },
            {
              "internalType": "bytes32",
              "name": "executionPayloadHash",
              "type": "bytes32"
            },
            {
              "internalType": "contract IExecutionStrategy",
              "name": "executionStrategy",
              "type": "address"
            },
            {
              "internalType": "address",
              "name": "author",
              "type": "address"
            },
            {
              "internalType": "enum FinalizationStatus",
              "name": "finalizationStatus",
              "type": "uint8"
            },
            {
              "internalType": "uint256",
              "name": "activeVotingStrategies",
              "type": "uint256"
            }
          ],
          "indexed": false,
          "internalType": "struct Proposal",
          "name": "proposal",
          "type": "tuple"
        },
        {
          "indexed": false,
          "internalType": "string",
          "name": "metadataUri",
          "type": "string"
        },
        {
          "indexed": false,
          "internalType": "bytes",
          "name": "payload",
          "type": "bytes"
        }
      ],
      "name": "ProposalCreated",
      "type": "event"
    },
    {
      "anonymous": false,
      "inputs": [
        {
          "indexed": false,
          "internalType": "uint256",
          "name": "proposalId",
          "type": "uint256"
        }
      ],
      "name": "ProposalExecuted",
      "type": "event"
    },
    {
      "anonymous": false,
      "inputs": [
        {
          "indexed": false,
          "internalType": "uint256",
          "name": "proposalId",
          "type": "uint256"
        },
        {
          "components": [
            {
              "internalType": "address",
              "name": "addr",
              "type": "address"
            },
            {
              "internalType": "bytes",
              "name": "params",
              "type": "bytes"
            }
          ],
          "indexed": false,
          "internalType": "struct Strategy",
          "name": "newExecutionStrategy",
          "type": "tuple"
        },
        {
          "indexed": false,
          "internalType": "string",
          "name": "newMetadataURI",
          "type": "string"
        }
      ],
      "name": "ProposalUpdated",
      "type": "event"
    },
    {
      "anonymous": false,
      "inputs": [
        {
          "components": [
            {
              "internalType": "address",
              "name": "addr",
              "type": "address"
            },
            {
              "internalType": "bytes",
              "name": "params",
              "type": "bytes"
            }
          ],
          "indexed": false,
          "internalType": "struct Strategy",
          "name": "newProposalValidationStrategy",
          "type": "tuple"
        },
        {
          "indexed": false,
          "internalType": "string",
          "name": "newProposalValidationStrategyMetadataURI",
          "type": "string"
        }
      ],
      "name": "ProposalValidationStrategyUpdated",
      "type": "event"
    },
    {
      "anonymous": false,
      "inputs": [
        {
          "indexed": false,
          "internalType": "address",
          "name": "space",
          "type": "address"
        },
        {
          "indexed": false,
          "internalType": "address",
          "name": "owner",
          "type": "address"
        },
        {
          "indexed": false,
          "internalType": "uint32",
          "name": "votingDelay",
          "type": "uint32"
        },
        {
          "indexed": false,
          "internalType": "uint32",
          "name": "minVotingDuration",
          "type": "uint32"
        },
        {
          "indexed": false,
          "internalType": "uint32",
          "name": "maxVotingDuration",
          "type": "uint32"
        },
        {
          "components": [
            {
              "internalType": "address",
              "name": "addr",
              "type": "address"
            },
            {
              "internalType": "bytes",
              "name": "params",
              "type": "bytes"
            }
          ],
          "indexed": false,
          "internalType": "struct Strategy",
          "name": "proposalValidationStrategy",
          "type": "tuple"
        },
        {
          "indexed": false,
          "internalType": "string",
          "name": "proposalValidationStrategyMetadataURI",
          "type": "string"
        },
        {
          "indexed": false,
          "internalType": "string",
          "name": "daoURI",
          "type": "string"
        },
        {
          "indexed": false,
          "internalType": "string",
          "name": "metadataURI",
          "type": "string"
        },
        {
          "components": [
            {
              "internalType": "address",
              "name": "addr",
              "type": "address"
            },
            {
              "internalType": "bytes",
              "name": "params",
              "type": "bytes"
            }
          ],
          "indexed": false,
          "internalType": "struct Strategy[]",
          "name": "votingStrategies",
          "type": "tuple[]"
        },
        {
          "indexed": false,
          "internalType": "string[]",
          "name": "votingStrategyMetadataURIs",
          "type": "string[]"
        },
        {
          "indexed": false,
          "internalType": "address[]",
          "name": "authenticators",
          "type": "address[]"
        }
      ],
      "name": "SpaceCreated",
      "type": "event"
    },
    {
      "anonymous": false,
      "inputs": [
        {
          "indexed": true,
          "internalType": "address",
          "name": "implementation",
          "type": "address"
        }
      ],
      "name": "Upgraded",
      "type": "event"
    },
    {
      "anonymous": false,
      "inputs": [
        {
          "indexed": false,
          "internalType": "uint256",
          "name": "proposalId",
          "type": "uint256"
        },
        {
          "indexed": false,
          "internalType": "address",
          "name": "voter",
          "type": "address"
        },
        {
          "indexed": false,
          "internalType": "enum Choice",
          "name": "choice",
          "type": "uint8"
        },
        {
          "indexed": false,
          "internalType": "uint256",
          "name": "votingPower",
          "type": "uint256"
        }
      ],
      "name": "VoteCast",
      "type": "event"
    },
    {
      "anonymous": false,
      "inputs": [
        {
          "indexed": false,
          "internalType": "uint256",
          "name": "proposalId",
          "type": "uint256"
        },
        {
          "indexed": false,
          "internalType": "address",
          "name": "voter",
          "type": "address"
        },
        {
          "indexed": false,
          "internalType": "enum Choice",
          "name": "choice",
          "type": "uint8"
        },
        {
          "indexed": false,
          "internalType": "uint256",
          "name": "votingPower",
          "type": "uint256"
        },
        {
          "indexed": false,
          "internalType": "string",
          "name": "metadataUri",
          "type": "string"
        }
      ],
      "name": "VoteCastWithMetadata",
      "type": "event"
    },
    {
      "anonymous": false,
      "inputs": [
        {
          "indexed": false,
          "internalType": "uint32",
          "name": "newVotingDelay",
          "type": "uint32"
        }
      ],
      "name": "VotingDelayUpdated",
      "type": "event"
    },
    {
      "anonymous": false,
      "inputs": [
        {
          "components": [
            {
              "internalType": "address",
              "name": "addr",
              "type": "address"
            },
            {
              "internalType": "bytes",
              "name": "params",
              "type": "bytes"
            }
          ],
          "indexed": false,
          "internalType": "struct Strategy[]",
          "name": "newVotingStrategies",
          "type": "tuple[]"
        },
        {
          "indexed": false,
          "internalType": "string[]",
          "name": "newVotingStrategyMetadataURIs",
          "type": "string[]"
        }
      ],
      "name": "VotingStrategiesAdded",
      "type": "event"
    },
    {
      "anonymous": false,
      "inputs": [
        {
          "indexed": false,
          "internalType": "uint8[]",
          "name": "votingStrategyIndices",
          "type": "uint8[]"
        }
      ],
      "name": "VotingStrategiesRemoved",
      "type": "event"
    },
    {
      "inputs": [],
      "name": "activeVotingStrategies",
      "outputs": [
        {
          "internalType": "uint256",
          "name": "",
          "type": "uint256"
        }
      ],
      "stateMutability": "view",
      "type": "function"
    },
    {
      "inputs": [
        {
          "internalType": "address",
          "name": "auth",
          "type": "address"
        }
      ],
      "name": "authenticators",
      "outputs": [
        {
          "internalType": "bool",
          "name": "allowed",
          "type": "bool"
        }
      ],
      "stateMutability": "view",
      "type": "function"
    },
    {
      "inputs": [
        {
          "internalType": "uint256",
          "name": "proposalId",
          "type": "uint256"
        }
      ],
      "name": "cancel",
      "outputs": [],
      "stateMutability": "nonpayable",
      "type": "function"
    },
    {
      "inputs": [],
      "name": "daoURI",
      "outputs": [
        {
          "internalType": "string",
          "name": "",
          "type": "string"
        }
      ],
      "stateMutability": "view",
      "type": "function"
    },
    {
      "inputs": [
        {
          "internalType": "uint256",
          "name": "proposalId",
          "type": "uint256"
        },
        {
          "internalType": "bytes",
          "name": "executionPayload",
          "type": "bytes"
        }
      ],
      "name": "execute",
      "outputs": [],
      "stateMutability": "nonpayable",
      "type": "function"
    },
    {
      "inputs": [
        {
          "internalType": "uint256",
          "name": "proposalId",
          "type": "uint256"
        }
      ],
      "name": "getProposalStatus",
      "outputs": [
        {
          "internalType": "enum ProposalStatus",
          "name": "",
          "type": "uint8"
        }
      ],
      "stateMutability": "view",
      "type": "function"
    },
    {
      "inputs": [
        {
          "internalType": "address",
          "name": "_owner",
          "type": "address"
        },
        {
          "internalType": "uint32",
          "name": "_votingDelay",
          "type": "uint32"
        },
        {
          "internalType": "uint32",
          "name": "_minVotingDuration",
          "type": "uint32"
        },
        {
          "internalType": "uint32",
          "name": "_maxVotingDuration",
          "type": "uint32"
        },
        {
          "components": [
            {
              "internalType": "address",
              "name": "addr",
              "type": "address"
            },
            {
              "internalType": "bytes",
              "name": "params",
              "type": "bytes"
            }
          ],
          "internalType": "struct Strategy",
          "name": "_proposalValidationStrategy",
          "type": "tuple"
        },
        {
          "internalType": "string",
          "name": "_proposalValidationStrategyMetadataURI",
          "type": "string"
        },
        {
          "internalType": "string",
          "name": "_daoURI",
          "type": "string"
        },
        {
          "internalType": "string",
          "name": "_metadataURI",
          "type": "string"
        },
        {
          "components": [
            {
              "internalType": "address",
              "name": "addr",
              "type": "address"
            },
            {
              "internalType": "bytes",
              "name": "params",
              "type": "bytes"
            }
          ],
          "internalType": "struct Strategy[]",
          "name": "_votingStrategies",
          "type": "tuple[]"
        },
        {
          "internalType": "string[]",
          "name": "_votingStrategyMetadataURIs",
          "type": "string[]"
        },
        {
          "internalType": "address[]",
          "name": "_authenticators",
          "type": "address[]"
        }
      ],
      "name": "initialize",
      "outputs": [],
      "stateMutability": "nonpayable",
      "type": "function"
    },
    {
      "inputs": [],
      "name": "maxVotingDuration",
      "outputs": [
        {
          "internalType": "uint32",
          "name": "",
          "type": "uint32"
        }
      ],
      "stateMutability": "view",
      "type": "function"
    },
    {
      "inputs": [],
      "name": "minVotingDuration",
      "outputs": [
        {
          "internalType": "uint32",
          "name": "",
          "type": "uint32"
        }
      ],
      "stateMutability": "view",
      "type": "function"
    },
    {
      "inputs": [],
      "name": "nextProposalId",
      "outputs": [
        {
          "internalType": "uint256",
          "name": "",
          "type": "uint256"
        }
      ],
      "stateMutability": "view",
      "type": "function"
    },
    {
      "inputs": [],
      "name": "nextVotingStrategyIndex",
      "outputs": [
        {
          "internalType": "uint8",
          "name": "",
          "type": "uint8"
        }
      ],
      "stateMutability": "view",
      "type": "function"
    },
    {
      "inputs": [],
      "name": "owner",
      "outputs": [
        {
          "internalType": "address",
          "name": "",
          "type": "address"
        }
      ],
      "stateMutability": "view",
      "type": "function"
    },
    {
      "inputs": [],
      "name": "proposalValidationStrategy",
      "outputs": [
        {
          "internalType": "address",
          "name": "addr",
          "type": "address"
        },
        {
          "internalType": "bytes",
          "name": "params",
          "type": "bytes"
        }
      ],
      "stateMutability": "view",
      "type": "function"
    },
    {
      "inputs": [
        {
          "internalType": "uint256",
          "name": "proposalId",
          "type": "uint256"
        }
      ],
      "name": "proposals",
      "outputs": [
        {
          "internalType": "uint32",
          "name": "snapshotTimestamp",
          "type": "uint32"
        },
        {
          "internalType": "uint32",
          "name": "startTimestamp",
          "type": "uint32"
        },
        {
          "internalType": "uint32",
          "name": "minEndTimestamp",
          "type": "uint32"
        },
        {
          "internalType": "uint32",
          "name": "maxEndTimestamp",
          "type": "uint32"
        },
        {
          "internalType": "bytes32",
          "name": "executionPayloadHash",
          "type": "bytes32"
        },
        {
          "internalType": "contract IExecutionStrategy",
          "name": "executionStrategy",
          "type": "address"
        },
        {
          "internalType": "address",
          "name": "author",
          "type": "address"
        },
        {
          "internalType": "enum FinalizationStatus",
          "name": "finalizationStatus",
          "type": "uint8"
        },
        {
          "internalType": "uint256",
          "name": "activeVotingStrategies",
          "type": "uint256"
        }
      ],
      "stateMutability": "view",
      "type": "function"
    },
    {
      "inputs": [
        {
          "internalType": "address",
          "name": "author",
          "type": "address"
        },
        {
          "internalType": "string",
          "name": "metadataURI",
          "type": "string"
        },
        {
          "components": [
            {
              "internalType": "address",
              "name": "addr",
              "type": "address"
            },
            {
              "internalType": "bytes",
              "name": "params",
              "type": "bytes"
            }
          ],
          "internalType": "struct Strategy",
          "name": "executionStrategy",
          "type": "tuple"
        },
        {
          "internalType": "bytes",
          "name": "userProposalValidationParams",
          "type": "bytes"
        }
      ],
      "name": "propose",
      "outputs": [],
      "stateMutability": "nonpayable",
      "type": "function"
    },
    {
      "inputs": [],
      "name": "proxiableUUID",
      "outputs": [
        {
          "internalType": "bytes32",
          "name": "",
          "type": "bytes32"
        }
      ],
      "stateMutability": "view",
      "type": "function"
    },
    {
      "inputs": [],
      "name": "renounceOwnership",
      "outputs": [],
      "stateMutability": "nonpayable",
      "type": "function"
    },
    {
      "inputs": [
        {
          "internalType": "address",
          "name": "newOwner",
          "type": "address"
        }
      ],
      "name": "transferOwnership",
      "outputs": [],
      "stateMutability": "nonpayable",
      "type": "function"
    },
    {
      "inputs": [
        {
          "internalType": "address",
          "name": "author",
          "type": "address"
        },
        {
          "internalType": "uint256",
          "name": "proposalId",
          "type": "uint256"
        },
        {
          "components": [
            {
              "internalType": "address",
              "name": "addr",
              "type": "address"
            },
            {
              "internalType": "bytes",
              "name": "params",
              "type": "bytes"
            }
          ],
          "internalType": "struct Strategy",
          "name": "executionStrategy",
          "type": "tuple"
        },
        {
          "internalType": "string",
          "name": "metadataURI",
          "type": "string"
        }
      ],
      "name": "updateProposal",
      "outputs": [],
      "stateMutability": "nonpayable",
      "type": "function"
    },
    {
      "inputs": [
        {
          "components": [
            {
              "internalType": "uint32",
              "name": "minVotingDuration",
              "type": "uint32"
            },
            {
              "internalType": "uint32",
              "name": "maxVotingDuration",
              "type": "uint32"
            },
            {
              "internalType": "uint32",
              "name": "votingDelay",
              "type": "uint32"
            },
            {
              "internalType": "string",
              "name": "metadataURI",
              "type": "string"
            },
            {
              "internalType": "string",
              "name": "daoURI",
              "type": "string"
            },
            {
              "components": [
                {
                  "internalType": "address",
                  "name": "addr",
                  "type": "address"
                },
                {
                  "internalType": "bytes",
                  "name": "params",
                  "type": "bytes"
                }
              ],
              "internalType": "struct Strategy",
              "name": "proposalValidationStrategy",
              "type": "tuple"
            },
            {
              "internalType": "string",
              "name": "proposalValidationStrategyMetadataURI",
              "type": "string"
            },
            {
              "internalType": "address[]",
              "name": "authenticatorsToAdd",
              "type": "address[]"
            },
            {
              "internalType": "address[]",
              "name": "authenticatorsToRemove",
              "type": "address[]"
            },
            {
              "components": [
                {
                  "internalType": "address",
                  "name": "addr",
                  "type": "address"
                },
                {
                  "internalType": "bytes",
                  "name": "params",
                  "type": "bytes"
                }
              ],
              "internalType": "struct Strategy[]",
              "name": "votingStrategiesToAdd",
              "type": "tuple[]"
            },
            {
              "internalType": "string[]",
              "name": "votingStrategyMetadataURIsToAdd",
              "type": "string[]"
            },
            {
              "internalType": "uint8[]",
              "name": "votingStrategiesToRemove",
              "type": "uint8[]"
            }
          ],
          "internalType": "struct UpdateSettingsInput",
          "name": "input",
          "type": "tuple"
        }
      ],
      "name": "updateSettings",
      "outputs": [],
      "stateMutability": "nonpayable",
      "type": "function"
    },
    {
      "inputs": [
        {
          "internalType": "address",
          "name": "newImplementation",
          "type": "address"
        }
      ],
      "name": "upgradeTo",
      "outputs": [],
      "stateMutability": "nonpayable",
      "type": "function"
    },
    {
      "inputs": [
        {
          "internalType": "address",
          "name": "newImplementation",
          "type": "address"
        },
        {
          "internalType": "bytes",
          "name": "data",
          "type": "bytes"
        }
      ],
      "name": "upgradeToAndCall",
      "outputs": [],
      "stateMutability": "payable",
      "type": "function"
    },
    {
      "inputs": [
        {
          "internalType": "address",
          "name": "voter",
          "type": "address"
        },
        {
          "internalType": "uint256",
          "name": "proposalId",
          "type": "uint256"
        },
        {
          "internalType": "enum Choice",
          "name": "choice",
          "type": "uint8"
        },
        {
          "components": [
            {
              "internalType": "uint8",
              "name": "index",
              "type": "uint8"
            },
            {
              "internalType": "bytes",
              "name": "params",
              "type": "bytes"
            }
          ],
          "internalType": "struct IndexedStrategy[]",
          "name": "userVotingStrategies",
          "type": "tuple[]"
        },
        {
          "internalType": "string",
          "name": "metadataURI",
          "type": "string"
        }
      ],
      "name": "vote",
      "outputs": [],
      "stateMutability": "nonpayable",
      "type": "function"
    },
    {
      "inputs": [
        {
          "internalType": "uint256",
          "name": "proposalId",
          "type": "uint256"
        },
        {
          "internalType": "enum Choice",
          "name": "choice",
          "type": "uint8"
        }
      ],
      "name": "votePower",
      "outputs": [
        {
          "internalType": "uint256",
          "name": "votePower",
          "type": "uint256"
        }
      ],
      "stateMutability": "view",
      "type": "function"
    },
    {
      "inputs": [
        {
          "internalType": "uint256",
          "name": "proposalId",
          "type": "uint256"
        },
        {
          "internalType": "address",
          "name": "voter",
          "type": "address"
        }
      ],
      "name": "voteRegistry",
      "outputs": [
        {
          "internalType": "bool",
          "name": "hasVoted",
          "type": "bool"
        }
      ],
      "stateMutability": "view",
      "type": "function"
    },
    {
      "inputs": [],
      "name": "votingDelay",
      "outputs": [
        {
          "internalType": "uint32",
          "name": "",
          "type": "uint32"
        }
      ],
      "stateMutability": "view",
      "type": "function"
    },
    {
      "inputs": [
        {
          "internalType": "uint8",
          "name": "strategyIndex",
          "type": "uint8"
        }
      ],
      "name": "votingStrategies",
      "outputs": [
        {
          "internalType": "address",
          "name": "addr",
          "type": "address"
        },
        {
          "internalType": "bytes",
          "name": "params",
          "type": "bytes"
        }
      ],
      "stateMutability": "view",
      "type": "function"
    }
  ],
  "bytecode": {
    "object": "0x60a080604052346100365730608052600160c9556143d3908161003c8239608051818181612400015281816125090152612adf0152f35b600080fdfe60a080604052600436101561001357600080fd5b600090813560e01c908163013cf08b14612feb575080630533710414612fca5780630b51557014612e1e5780632ab09d1414612e005780633659cfe614612aab5780633932abb114612a87578063401853b71461291757806340e58ee51461285d5780634f1ef286146124ba57806352d1902d146123d857806359efcb151461210757806361ae2978146120a75780636df7bab3146120815780637034731b14611f9f578063715018a614611f1e578063791ad52d1461191e578063791eb854146118d4578063792cb5a3146118715780638da5cb5b1461183d5780639d49257c14611819578063a44c31d5146117fb578063aad83f3b14611326578063ab1d89a71461122d578063bc7e56f014610bfc578063d830616c1461024c578063de7c3c44146102005763f2fde38b1461014a57600080fd5b346101fd5760206003193601126101fd576101636130d0565b61016b6134fa565b73ffffffffffffffffffffffffffffffffffffffff811615610193576101909061355f565b80f35b608460405162461bcd60e51b815260206004820152602660248201527f4f776e61626c653a206e6577206f776e657220697320746865207a65726f206160448201527f64647265737300000000000000000000000000000000000000000000000000006064820152fd5b80fd5b50346101fd5760406003193601126101fd57602435600381101561024857602091604091600435825260d584528282209061023a81613097565b825283522054604051908152f35b5080fd5b50346101fd576020600319908082360112610bf85760043567ffffffffffffffff811161065557610180816004019382360301126106555761028c6134fa565b61029583613864565b63ffffffff9081806102a5613875565b169116141580610bd7575b15610b00576102be84613864565b602483019082806102ce84613864565b16911611610aab57836103817f50b3808988e8880c34e4b58088d8eeeb40410dd2a2238a299db9187644259b059261030588613864565b60cb547fa596cfacd06610b4e094472b3f6712f263b9a8af5fbd18924780c678a4fc55e6856103338c613864565b8960405191168152a17fffffffffffffffffffffffffffffffffffffffffffffffff000000000000000067ffffffff000000008861037086613864565b1693871b169116171760cb55613864565b8360405191168152a15b82604483019161039a83613864565b81806103a4613875565b16911603610a34575b505050606481016103be81856138b6565b6103e08560405183819483830196873781018a838201520380845201826131c6565b5190206103eb613907565b036109eb575b506084810161040081856138b6565b6104228560405183819483830196873781018a838201520380845201826131c6565b51902061042d613907565b03610986575b5060a4810161044a6104458286613966565b613999565b90604051848101907f4e6f2075706461746500000000000000000000000000000000000000000000008252600981526104828161318e565b5190209173ffffffffffffffffffffffffffffffffffffffff809360601c911603610903575b5060e482016104b78186613a4f565b90506108b0575b506101048201906104cf8286613a4f565b9050610815575b505061012481016104e78185613a4f565b9050610659575b5061016401916104fe8382613a4f565b9050610508578380f35b9091926105158483613a4f565b91906105208361341c565b9261052e60405194856131c6565b8084528584019060051b820191368311610655578690915b83831061063d5750505050805b825160ff908183169081101561058b57906105869291600160ce9261057a84549389614013565b51161b19169055614056565b610553565b50505093905060ce5415610613576105a291613a4f565b91604051928082850183865252604084019291855b8281106105f0575050505090807f24c5d4b9c170a0ef0634046f1a7a184dd341c99da7242482e42cc2782076cea3920390a13880808380f35b90919293828060019260ff6106048961325a565b168152019501939291016105b7565b60046040517fe1757fd5000000000000000000000000000000000000000000000000000000008152fd5b81906106488461325a565b8152019101908690610546565b8380fd5b6106638185613a4f565b61014484019291506106758387613a4f565b919050036107eb576106a6816106a061069b6106946106af958a613a4f565b3691613434565b614067565b86613a4f565b91909286613a4f565b60405193836040860160408752526060850160608560051b87010194828b905b82821061076c5750505050508383038685015280835285830192868260051b82010193838a925b8985851061073657505050505050508161016493927fb25fe8e833c47cb186483982b4f2f778aa2f38c644be53123589397650b703e9920390a1906104ee565b8061075c89601f19856001969798999a9b9c030188526107568b886139ba565b90613945565b98019401940192949391906106f6565b909192939495967fffffffffffffffffffffffffffffffffffffffffffffffffffffffffffffffa089820301855285357fffffffffffffffffffffffffffffffffffffffffffffffffffffffffffffffc1833603018112156107e7578b6107d860019385839401613a0a565b999897019501939201906106cf565b8d80fd5b60046040517fa24a13a6000000000000000000000000000000000000000000000000000000008152fd5b91909361082c6108258683613a4f565b36916134a4565b91865b83518110156108655780856108476108609387614013565b5116895260d387526040892060ff198154169055613c59565b61082f565b509250937f2befc5f117311dbd6cabfd7bc4cec09eeefc83a55c9140bbf298951571f5cb8691506108969085613a4f565b906108a660405192839283613aa3565b0390a138806104d6565b6108ea816106a06108e56108257f0f1800fbca5c51a50ca47d2d359d89a9872ebc0d41b791582770add9d9d7e7bc958a613a4f565b6142a9565b906108fa60405192839283613aa3565b0390a1386104be565b61097061094c7f94882eaeb9096621809ce0a70444da5f387f4763a9b4e0e5918d73997b428984926109466109413661093c848c613966565b6133cf565b613d5c565b87613966565b61097d61095c60c48701896138b6565b604051948594604086526040860190613a0a565b918483038a860152613945565b0390a1386104a8565b6109cd816109c76109c26109bb7fa22a853196a129f951085238393763195d8916dc54e3234dc400d7489da4a53b95896138b6565b3691613205565b613ee0565b856138b6565b6109e260405192839287845287840191613945565b0390a138610433565b610a167fefafb90526da1636e1335eac0151301742fb755d986954c613b90e891778ba3991856138b6565b610a2b60405192839287845287840191613945565b0390a1386103f1565b610a9b83610a96610a657fbc6c72d7791c961f1d6512e4f3262d03f19dd0571eef8f5ec54a5acdf297701396613864565b63ffffffff167fffffffffffffffffffffffffffffffffffffffffffffffffffffffff0000000060cd54161760cd55565b613864565b60405191168152a13882816103ad565b610abd610ab786613864565b91613864565b6040517fc564bfaf00000000000000000000000000000000000000000000000000000000815263ffffffff928316600482015291166024820152604490fd5b0390fd5b610b0984613864565b8180610b13613875565b1691161415600014610b6957610b30610b2b85613864565b613cf8565b7fa596cfacd06610b4e094472b3f6712f263b9a8af5fbd18924780c678a4fc55e683610b5b86613864565b8360405191168152a161038b565b6024820183610b7782613864565b8380610b81613875565b16911603610b91575b505061038b565b610bc782610a96610bc27f50b3808988e8880c34e4b58088d8eeeb40410dd2a2238a299db9187644259b0595613864565b613c75565b8360405191168152a13883610b8a565b50610be460248301613864565b8180610bee613875565b16911614156102b0565b8280fd5b50346101fd5760a06003193601126101fd57610c166130d0565b90600360443510156101fd5767ffffffffffffffff606435116101fd573660236064350112156101fd5767ffffffffffffffff60643560040135116101fd573660246064356004013560051b6064350101116101fd5760843567ffffffffffffffff811161024857610c8c903690600401613114565b91909233825260d3602052600160ff60408420541615150361120357602435825260d4602052610cbe60408320613afc565b90610cc882614303565b63ffffffff6060830151164210156111d95763ffffffff60208301511642106111af5760e0820151610cf981613097565b610d0281613097565b61118557602435835260d66020526040832073ffffffffffffffffffffffffffffffffffffffff821660005260205260ff6040600020541661115b5761010063ffffffff83511692015190610d5c6064356004013561341c565b91610d6a60405193846131c6565b60643560048101358452602401602084015b60246064356004013560051b606435010182106110b3575050610d9e8361433e565b849685975b8451891015610f245760ff610db88a87614013565b5151166001811b841615610ef357875260cf60205288602073ffffffffffffffffffffffffffffffffffffffff87878b8b610e8486610e23604085209988610e1560016040519d8e610e098161318e565b848254169052016132bb565b9b8c85820152511697614013565b510151610e72604051998a98899788967f871d81b70000000000000000000000000000000000000000000000000000000088526004880152166024860152608060448601526084850190613362565b90600319848303016064850152613362565b03925af1908115610ee8578891610eb0575b50610ea490610eaa92613c68565b98613c59565b97610da3565b90506020813d602011610ee0575b81610ecb602093836131c6565b81010312610edc5751610eaa610e96565b8780fd5b3d9150610ebe565b6040513d8a823e3d90fd5b602490604051907ff3e4f1b40000000000000000000000000000000000000000000000000000000082526004820152fd5b8390879289821561108957602435855260d560205260408520610f48604435613097565b604435865260205260408520610f5f848254613c68565b9055602435855260d66020526040852073ffffffffffffffffffffffffffffffffffffffff85166000526020526040600020600160ff19825416179055801560001461100c5750507fb83d25c6a5d258561330739951487acb4bd09ba5190b5d32c4f261817d9067929160809173ffffffffffffffffffffffffffffffffffffffff604051926024358452166020830152610ffb604435613097565b60443560408301526060820152a180f35b7f7b68c21d3d55ce8b9e79a27874bb03fa18c398a4bc9cb89b4a75fb6fbeb1419893916110839173ffffffffffffffffffffffffffffffffffffffff946040519586956024358752166020860152611065604435613097565b6044356040860152606085015260a0608085015260a0840191613945565b0390a180f35b60046040517fdf0cf4fb000000000000000000000000000000000000000000000000000000008152fd5b67ffffffffffffffff8235116111575760407fffffffffffffffffffffffffffffffffffffffffffffffffffffffffffffffdc83356064350136030112611157576040516111008161318e565b61111160248435606435010161325a565b815267ffffffffffffffff6044843560643501013511610edc5760209182916111483660643587350160448101350160240161323c565b83820152815201910190610d7c565b8680fd5b60046040517f38ec5213000000000000000000000000000000000000000000000000000000008152fd5b60046040517fac18c457000000000000000000000000000000000000000000000000000000008152fd5b60046040517f688c575a000000000000000000000000000000000000000000000000000000008152fd5b60046040517f6613a282000000000000000000000000000000000000000000000000000000008152fd5b60046040517fb33ebb5e000000000000000000000000000000000000000000000000000000008152fd5b50346101fd57806003193601126101fd5773ffffffffffffffffffffffffffffffffffffffff60d154166040519060008260d2549161126b83613268565b8083529260019081811690811561130457506001146112a5575b50611292925003836131c6565b6112a1604051928392836133a2565b0390f35b60d2600090815291507ff2192e1030363415d7b4fb0406540a0060e8e2fc8982f3f32289379e11fa65465b8483106112e95750611292935050810160200185611285565b81935090816020925483858a010152019101909185926112d0565b6020935061129295925060ff1991501682840152151560051b82010185611285565b50346101fd5760806003193601126101fd576113406130d0565b67ffffffffffffffff9060243582811161065557611362903690600401613114565b9190928060443511611760576040600319604435360301126117605760643590811161176057611396903690600401613114565b33865260d3602052600160ff6040882054161515036112035773ffffffffffffffffffffffffffffffffffffffff60d1541690866040519384927f0721609500000000000000000000000000000000000000000000000000000000845273ffffffffffffffffffffffffffffffffffffffff871660048501526060602485015260009160d25461142581613268565b908160648801526001811690816000146117d75750600114611777575b5061146183602097959387959360031987809603016044860152613945565b03925af190811561176c57859161172d575b50156117035773ffffffffffffffffffffffffffffffffffffffff816116f560c06116d46116e66116fd9863ffffffff60048c7f06cc2aeb1325a3bffe8b40a2f3d9c4a6ed7f018c2a194fa109661f7c80cbde4a9a6114d88460cd5416854216613c12565b9160cb54926114f8866114f0818760201c1684613c12565b951682613c12565b9061150f6109bb60246044350160443589016138b6565b60208151910120908e6115256044358901613999565b169260ce549673ffffffffffffffffffffffffffffffffffffffff6040519e8f61154e81613142565b8c421681528c60208201961686528c60408201941684528c60608201951685526080810196875260a0810197885201971687528d7fffffffffffffffffffffffffffffffff000000000000000000000000000000006fffffffff0000000000000000000000006bffffffff000000000000000067ffffffff00000000604060e086019b808d5261010087019e8f5260cc54815260d4602052209e8f9551169454975160201b16945160401b16945160601b1694161717171787555160018701558c600287019151167fffffffffffffffffffffffff00000000000000000000000000000000000000008254161790558b600386019251167fffffffffffffffffffffff00000000000000000000000000000000000000000074ff00000000000000000000000000000000000000008454935161168981613097565b61169281613097565b60a01b169216171790555191015560cc54986116b86024604435016044356004016138b6565b949095604051998a998d8b521660208a01526040890190613b8f565b6101a080610160890152870191613945565b91848303610180860152613945565b0390a1613c59565b60cc5580f35b60046040517f78b51a90000000000000000000000000000000000000000000000000000000008152fd5b90506020813d602011611764575b81611748602093836131c6565b81010312611760575180151581036117605738611473565b8480fd5b3d915061173b565b6040513d87823e3d90fd5b60d260009081529193507ff2192e1030363415d7b4fb0406540a0060e8e2fc8982f3f32289379e11fa65465b8183106117ba575050840160840191611461611442565b80546084848b0101528896508c95506020909201916001016117a3565b60ff191660848089019190915291151560051b870190910193506114619050611442565b50346101fd57806003193601126101fd57602060ce54604051908152f35b50346101fd57806003193601126101fd57602063ffffffff60cb5416604051908152f35b50346101fd57806003193601126101fd57602073ffffffffffffffffffffffffffffffffffffffff60975416604051908152f35b50346101fd5760406003193601126101fd576024359073ffffffffffffffffffffffffffffffffffffffff82168092036118cf57604090600435815260d66020522090600052602052602060ff604060002054166040519015158152f35b600080fd5b50346101fd5760206003193601126101fd5760ff604060209273ffffffffffffffffffffffffffffffffffffffff61190a6130d0565b16815260d384522054166040519015158152f35b50346101fd576101606003193601126101fd576119396130d0565b63ffffffff908160243516602435036118cf578160443516604435036118cf578160643516606435036118cf5760843567ffffffffffffffff8111610655576119869036906004016133cf565b60a43567ffffffffffffffff8111611760576119a690369060040161323c565b60c43567ffffffffffffffff8111611f1a576119c690369060040161323c565b60e43567ffffffffffffffff8111611157576119e690369060040161323c565b9067ffffffffffffffff6101043511611157573660236101043501121561115757611a1f36610104356004013560246101043501613434565b9167ffffffffffffffff6101243511610edc5736602361012435011215610edc57611a50610124356004013561341c565b91611a5e60405193846131c6565b61012435600401358352602083019485366024610124356004013560051b61012435010111611edf5760246101243501905b6024610124356004013560051b6101243501018210611ee35750506101443567ffffffffffffffff8111611edf5736602382011215611edf57611add9036906024816004013591016134a4565b968a549960ff8b60081c16159a8b809c611ed2575b8015611ebb575b15611e515760ff1981166001178d558b611e23575b50865115611df957885115611df95786518651036107eb57611b3f60ff8d5460081c16611b3a816137f3565b6137f3565b611b483361355f565b611b506134fa565b73ffffffffffffffffffffffffffffffffffffffff8a161561019357611b758a61355f565b611b7e84613ee0565b611b89606435613c75565b611b94604435613cf8565b611b9d82613d5c565b602435611bd59063ffffffff167fffffffffffffffffffffffffffffffffffffffffffffffffffffffff0000000060cd54161760cd55565b611bde87614067565b611be7896142a9565b600160cc5560405199308b5273ffffffffffffffffffffffffffffffffffffffff1660208b0152806024351660408b0152806044351660608b01526064351660808a01526101808060a08b01528901611c3f916137c0565b88810360c08a0152611c5091613362565b87810360e0890152611c6191613362565b868103610100880152611c7391613362565b858103610120870152825180825260208201918160051b810160200194602001928a915b838310611dcc57505050505084820361014086015251808252602082019160208260051b820101939288915b838310611d9f57505050505082810361016084015260208083519283815201920190855b818110611d735750505090807fd1e9b8491c7c7feda756f9458dbd4eb88c2f0068ea65a65d44f96fa4b6c5eaea920390a1611d1f5780f35b7fffffffffffffffffffffffffffffffffffffffffffffffffffffffffffff00ff81541681557f7f26b83ff96e1f2b6a682f133852f6798a09c465da95921460cefb3847402498602060405160018152a180f35b825173ffffffffffffffffffffffffffffffffffffffff16845260209384019390920191600101611ce7565b9091929394602080611dbd83601f1986600196030187528951613362565b97019301930191939290611cc3565b9091929395602080611dea83601f1986600196030187528a516137c0565b98019301930191939290611c97565b60046040517f521299a9000000000000000000000000000000000000000000000000000000008152fd5b7fffffffffffffffffffffffffffffffffffffffffffffffffffffffffffff000016610101178c5538611b0e565b608460405162461bcd60e51b815260206004820152602e60248201527f496e697469616c697a61626c653a20636f6e747261637420697320616c72656160448201527f647920696e697469616c697a65640000000000000000000000000000000000006064820152fd5b50303b158015611af95750600160ff821614611af9565b50600160ff821610611af2565b8a80fd5b813567ffffffffffffffff8111611f1657602091611f0b83926024369161012435010161323c565b815201910190611a90565b8c80fd5b8580fd5b50346101fd57806003193601126101fd57611f376134fa565b600073ffffffffffffffffffffffffffffffffffffffff6097547fffffffffffffffffffffffff00000000000000000000000000000000000000008116609755167f8be0079c531659141344cd1fd0a4f28419497f9722a3daafe3b4186f6b6457e08280a380f35b50346101fd57806003193601126101fd57604051600060ca54611fc181613268565b8084529060019081811690811561205a5750600114611fff575b6112a184611feb818603826131c6565b604051918291602083526020830190613362565b60ca600090815292507f42d72674974f694b5f5159593243114d38a5c39c89d6b62fee061ff523240ee15b828410612042575050508101602001611feb82611fdb565b8054602085870181019190915290930192810161202a565b60ff191660208087019190915292151560051b85019092019250611feb9150839050611fdb565b50346101fd57806003193601126101fd57602060cb5463ffffffff60405191831c168152f35b50346101fd5760206003193601126101fd576004359060ff82168092036118cf57604091815260cf602052206120f7600173ffffffffffffffffffffffffffffffffffffffff83541692016132bb565b906112a1604051928392836133a2565b50346101fd5760406003193601126101fd5760043560243567ffffffffffffffff8111610bf85761213c903690600401613114565b600260c9541461239457600260c9558284528360209260d484526040822061216b61216682613afc565b614303565b73ffffffffffffffffffffffffffffffffffffffff91826002830154169187855260d5875260408520600186528752604085205488865260d5885260408620868052885260408620549189875260d5895260408720600288528952604087205493853b15610edc5760ff9860249589958c9560046122a2966040519e8f9d8e9c8d9b7f01fe2212000000000000000000000000000000000000000000000000000000008d528c855492839263ffffffff9485918282168b8601521c169101528c6044838360401c1691015260601c1660648c0152600183015460848c01528d60a48c0152600383016080526080515490811660c48c015260a01c1661226f81613097565b60e48a015201546101048801526101248701526101448601526101648501526101a06101848501526101a4840191613945565b03925af1801561238957612324575b507f712ae1383f79ac853f8d882153778e0260ef8f03b504e2866e0593e04d2b291f91740100000000000000000000000000000000000000007fffffffffffffffffffffff00ffffffffffffffffffffffffffffffffffffffff60805154161760805155604051908152a1600160c95580f35b67ffffffffffffffff811161235c576040527f712ae1383f79ac853f8d882153778e0260ef8f03b504e2866e0593e04d2b291f6122b1565b6024847f4e487b710000000000000000000000000000000000000000000000000000000081526041600452fd5b6040513d86823e3d90fd5b606460405162461bcd60e51b815260206004820152601f60248201527f5265656e7472616e637947756172643a207265656e7472616e742063616c6c006044820152fd5b50346101fd57806003193601126101fd5773ffffffffffffffffffffffffffffffffffffffff7f00000000000000000000000000000000000000000000000000000000000000001630036124505760206040517f360894a13ba1a3210667c828492db98dca3e2076cc3735a920a3ca505d382bbc8152f35b608460405162461bcd60e51b815260206004820152603860248201527f555550535570677261646561626c653a206d757374206e6f742062652063616c60448201527f6c6564207468726f7567682064656c656761746563616c6c00000000000000006064820152fd5b5060406003193601126101fd576124cf6130d0565b9060243567ffffffffffffffff8111610248576124f090369060040161323c565b9173ffffffffffffffffffffffffffffffffffffffff807f00000000000000000000000000000000000000000000000000000000000000001690612536823014156135cc565b6125657f360894a13ba1a3210667c828492db98dca3e2076cc3735a920a3ca505d382bbc92828454161461363d565b61256d6134fa565b7f4910fdfa16fed3260ed0e7147f7cc6da11a60208b5b9406d12a635614ffd91435460ff16156125a45750506101909192506136ae565b8291939216604051937f52d1902d0000000000000000000000000000000000000000000000000000000085526020948581600481865afa85918161282e575b50612652576084866040519062461bcd60e51b82526004820152602e60248201527f45524331393637557067726164653a206e657720696d706c656d656e7461746960448201527f6f6e206973206e6f7420555550530000000000000000000000000000000000006064820152fd5b949394036127c457612663826136ae565b604051907fbc7cd75a20ee27fd9adebab32041f755214dbc6bffa90cc0225b39da2e5c2d3b8580a28451158015906127bc575b6126a3575b505050905080f35b813b15612755575091808461274394848397519201905af43d1561274d573d906126cc826131e9565b916126da60405193846131c6565b82523d858484013e5b7f416464726573733a206c6f772d6c6576656c2064656c65676174652063616c6c60405193612711856131aa565b602785528401527f206661696c6564000000000000000000000000000000000000000000000000006040840152613780565b508038808061269b565b6060906126e3565b808362461bcd60e51b608493526004820152602660248201527f416464726573733a2064656c65676174652063616c6c20746f206e6f6e2d636f60448201527f6e747261637400000000000000000000000000000000000000000000000000006064820152fd5b506001612696565b6084836040519062461bcd60e51b82526004820152602960248201527f45524331393637557067726164653a20756e737570706f727465642070726f7860448201527f6961626c655555494400000000000000000000000000000000000000000000006064820152fd5b9091508681813d8311612856575b61284681836131c6565b81010312611f1a575190386125e3565b503d61283c565b50346101fd5760206003193601126101fd5760043561287a6134fa565b80825260d460205260036040832061289461216682613afc565b019081549060ff8260a01c166128a981613097565b611185577f416e669c63d9a3a5e36ee7cc7e2104b8db28ccd286aa18966e98fa230c73b08c92740200000000000000000000000000000000000000007fffffffffffffffffffffff00ffffffffffffffffffffffffffffffffffffffff60209416179055604051908152a180f35b50346101fd57602090816003193601126101fd5760043580825260d48352826129e461018461294860408620613afc565b61295181614303565b73ffffffffffffffffffffffffffffffffffffffff60a08201511685875260d585526040872060018852855260408720549580885260d58652604088208880528652604088205490885260d586526040882060028952865260408820549060405197889687957fb3d8ecdf0000000000000000000000000000000000000000000000000000000087526004870190613b8f565b6101248501526101448401526101648301525afa908115612a7c578291612a46575b50604051916007821015612a1957508152f35b807f4e487b7100000000000000000000000000000000000000000000000000000000602492526021600452fd5b90508281813d8311612a75575b612a5d81836131c6565b81010312610248575160078110156102485738612a06565b503d612a53565b6040513d84823e3d90fd5b50346101fd57806003193601126101fd57602063ffffffff60cd5416604051908152f35b50346101fd5760208060031936011261024857612ac66130d0565b9073ffffffffffffffffffffffffffffffffffffffff807f000000000000000000000000000000000000000000000000000000000000000016612b0b813014156135cc565b612b3a7f360894a13ba1a3210667c828492db98dca3e2076cc3735a920a3ca505d382bbc91838354161461363d565b612b426134fa565b604051908382019282841067ffffffffffffffff851117612dd3578360405286835260ff7f4910fdfa16fed3260ed0e7147f7cc6da11a60208b5b9406d12a635614ffd91435416600014612b9e575050505050610190906136ae565b8596949516906040517f52d1902d0000000000000000000000000000000000000000000000000000000081528681600481865afa869181612da4575b50612c49576084876040519062461bcd60e51b82526004820152602e60248201527f45524331393637557067726164653a206e657720696d706c656d656e7461746960448201527f6f6e206973206e6f7420555550530000000000000000000000000000000000006064820152fd5b95949503612d3a57612c5a866136ae565b604051907fbc7cd75a20ee27fd9adebab32041f755214dbc6bffa90cc0225b39da2e5c2d3b8680a2815115801590612d33575b612c9b575b50505050905080f35b853b15612ccc57509280948192612cc19551915af43d1561274d573d906126cc826131e9565b508038808080612c92565b808462461bcd60e51b608493526004820152602660248201527f416464726573733a2064656c65676174652063616c6c20746f206e6f6e2d636f60448201527f6e747261637400000000000000000000000000000000000000000000000000006064820152fd5b5084612c8d565b6084846040519062461bcd60e51b82526004820152602960248201527f45524331393637557067726164653a20756e737570706f727465642070726f7860448201527f6961626c655555494400000000000000000000000000000000000000000000006064820152fd5b9091508781813d8311612dcc575b612dbc81836131c6565b8101031261115757519038612bda565b503d612db2565b6024877f4e487b710000000000000000000000000000000000000000000000000000000081526041600452fd5b50346101fd57806003193601126101fd57602060cc54604051908152f35b50346101fd5760031960808136011261024857612e396130d0565b906024356044359267ffffffffffffffff808511611f1a57604085600401948636030112611f1a57606435908111611f1a57612e79903690600401613114565b33875260d3602052600160ff6040892054161515036112035783875260d46020526040872073ffffffffffffffffffffffffffffffffffffffff938480600384015416911603612fa05763ffffffff815460201c16421015612f7657600261108394612f0c6109bb60247f3ed3909a2444f4afb9f14bf6e61874cebc207fa08f5034e074afe13065c812579b018a6138b6565b602081519101206001840155612f2188613999565b169101907fffffffffffffffffffffffff0000000000000000000000000000000000000000825416179055612f686040519586958652606060208701526060860190613a0a565b918483036040860152613945565b60046040517fb05d2fa9000000000000000000000000000000000000000000000000000000008152fd5b60046040517f48f5c3ed000000000000000000000000000000000000000000000000000000008152fd5b50346101fd57806003193601126101fd57602060ff60d05416604051908152f35b90503461024857602060031936011261024857604061012092600435815260d460205220805490600181015473ffffffffffffffffffffffffffffffffffffffff9081600284015416600384015491600460ff8460a01c169501549563ffffffff908181168952818160201c1660208a0152818160401c1660408a015260601c166060880152608087015260a08601521660c084015261308a81613097565b60e0830152610100820152f35b600311156130a157565b7f4e487b7100000000000000000000000000000000000000000000000000000000600052602160045260246000fd5b6004359073ffffffffffffffffffffffffffffffffffffffff821682036118cf57565b359073ffffffffffffffffffffffffffffffffffffffff821682036118cf57565b9181601f840112156118cf5782359167ffffffffffffffff83116118cf57602083818601950101116118cf57565b610120810190811067ffffffffffffffff82111761315f57604052565b7f4e487b7100000000000000000000000000000000000000000000000000000000600052604160045260246000fd5b6040810190811067ffffffffffffffff82111761315f57604052565b6060810190811067ffffffffffffffff82111761315f57604052565b90601f601f19910116810190811067ffffffffffffffff82111761315f57604052565b67ffffffffffffffff811161315f57601f01601f191660200190565b929192613211826131e9565b9161321f60405193846131c6565b8294818452818301116118cf578281602093846000960137010152565b9080601f830112156118cf5781602061325793359101613205565b90565b359060ff821682036118cf57565b90600182811c921680156132b1575b602083101461328257565b7f4e487b7100000000000000000000000000000000000000000000000000000000600052602260045260246000fd5b91607f1691613277565b90604051918260008254926132cf84613268565b90818452600194858116908160001461333e57506001146132fb575b50506132f9925003836131c6565b565b9093915060005260209081600020936000915b8183106133265750506132f9935082010138806132eb565b8554888401850152948501948794509183019161330e565b90506132f995506020935060ff1991501682840152151560051b82010138806132eb565b919082519283825260005b84811061338e575050601f19601f8460006020809697860101520116010190565b60208183018101518483018201520161336d565b60409073ffffffffffffffffffffffffffffffffffffffff61325794931681528160208201520190613362565b91906040838203126118cf57604051906133e88261318e565b81936133f3816130f3565b835260208101359167ffffffffffffffff83116118cf57602092613417920161323c565b910152565b67ffffffffffffffff811161315f5760051b60200190565b929190926134418461341c565b9161344f60405193846131c6565b829480845260208094019060051b8301928284116118cf5780915b84831061347957505050505050565b823567ffffffffffffffff81116118cf57869161349986849386016133cf565b81520192019161346a565b92916134af8261341c565b916134bd60405193846131c6565b829481845260208094019160051b81019283116118cf57905b8282106134e35750505050565b8380916134ef846130f3565b8152019101906134d6565b73ffffffffffffffffffffffffffffffffffffffff60975416330361351b57565b606460405162461bcd60e51b815260206004820152602060248201527f4f776e61626c653a2063616c6c6572206973206e6f7420746865206f776e65726044820152fd5b6097549073ffffffffffffffffffffffffffffffffffffffff80911691827fffffffffffffffffffffffff0000000000000000000000000000000000000000821617609755167f8be0079c531659141344cd1fd0a4f28419497f9722a3daafe3b4186f6b6457e0600080a3565b156135d357565b608460405162461bcd60e51b815260206004820152602c60248201527f46756e6374696f6e206d7573742062652063616c6c6564207468726f7567682060448201527f64656c656761746563616c6c00000000000000000000000000000000000000006064820152fd5b1561364457565b608460405162461bcd60e51b815260206004820152602c60248201527f46756e6374696f6e206d7573742062652063616c6c6564207468726f7567682060448201527f6163746976652070726f787900000000000000000000000000000000000000006064820152fd5b803b156137165773ffffffffffffffffffffffffffffffffffffffff7f360894a13ba1a3210667c828492db98dca3e2076cc3735a920a3ca505d382bbc91167fffffffffffffffffffffffff0000000000000000000000000000000000000000825416179055565b608460405162461bcd60e51b815260206004820152602d60248201527f455243313936373a206e657720696d706c656d656e746174696f6e206973206e60448201527f6f74206120636f6e7472616374000000000000000000000000000000000000006064820152fd5b9091901561378c575090565b81511561379c5750805190602001fd5b610afc9060405191829162461bcd60e51b8352602060048401526024830190613362565b90604060206132579373ffffffffffffffffffffffffffffffffffffffff81511684520151918160208201520190613362565b156137fa57565b608460405162461bcd60e51b815260206004820152602b60248201527f496e697469616c697a61626c653a20636f6e7472616374206973206e6f74206960448201527f6e697469616c697a696e670000000000000000000000000000000000000000006064820152fd5b3563ffffffff811681036118cf5790565b60405160208101907f4e6f2075706461746500000000000000000000000000000000000000000000008252600981526138ad8161318e565b51902060e01c90565b9035907fffffffffffffffffffffffffffffffffffffffffffffffffffffffffffffffe1813603018212156118cf570180359067ffffffffffffffff82116118cf576020019181360383136118cf57565b60405160208101907f4e6f20757064617465000000000000000000000000000000000000000000000082526009815261393f8161318e565b51902090565b601f8260209493601f19938186528686013760008582860101520116010190565b9035907fffffffffffffffffffffffffffffffffffffffffffffffffffffffffffffffc1813603018212156118cf570190565b3573ffffffffffffffffffffffffffffffffffffffff811681036118cf5790565b90357fffffffffffffffffffffffffffffffffffffffffffffffffffffffffffffffe1823603018112156118cf57016020813591019167ffffffffffffffff82116118cf5781360383136118cf57565b906040613a3f6132579373ffffffffffffffffffffffffffffffffffffffff613a32826130f3565b16845260208101906139ba565b9190928160208201520191613945565b9035907fffffffffffffffffffffffffffffffffffffffffffffffffffffffffffffffe1813603018212156118cf570180359067ffffffffffffffff82116118cf57602001918160051b360383136118cf57565b90916040602092828482018583525201929160005b828110613ac6575050505090565b90919293828060019273ffffffffffffffffffffffffffffffffffffffff613aed896130f3565b16815201950193929101613ab8565b90604051613b0981613142565b61010060048294805463ffffffff908181168652818160201c166020870152818160401c16604087015260601c1660608501526001810154608085015260ff73ffffffffffffffffffffffffffffffffffffffff8060028401541660a0870152600383015490811660c087015260a01c16613b8381613097565b60e08501520154910152565b63ffffffff80825116835280602083015116602084015280604083015116604084015260608201511660608301526080810151608083015273ffffffffffffffffffffffffffffffffffffffff8060a08301511660a084015260c08201511660c083015260e0810151613c0181613097565b60e083015261010080910151910152565b91909163ffffffff80809416911601918211613c2a57565b7f4e487b7100000000000000000000000000000000000000000000000000000000600052601160045260246000fd5b6000198114613c2a5760010190565b91908201809211613c2a57565b60cb5463ffffffff91828260201c1692811692808410613cb95750507fffffffffffffffffffffffffffffffffffffffffffffffffffffffff00000000161760cb55565b6040517fc564bfaf00000000000000000000000000000000000000000000000000000000815263ffffffff918216600482015291166024820152604490fd5b60cb549063ffffffff8083168091831611610abd575067ffffffff000000007fffffffffffffffffffffffffffffffffffffffffffffffff00000000ffffffff9160201b1691161760cb55565b818110613d50575050565b60008155600101613d45565b9073ffffffffffffffffffffffffffffffffffffffff8251167fffffffffffffffffffffffff000000000000000000000000000000000000000060d154161760d1556020809201519182519067ffffffffffffffff821161315f57613dc260d254613268565b601f8111613e87575b5080601f8311600114613e055750819293600092613dfa575b50506000198260011b9260031b1c19161760d255565b015190503880613de4565b90601f1983169460d26000527ff2192e1030363415d7b4fb0406540a0060e8e2fc8982f3f32289379e11fa6546926000905b878210613e6f575050836001959610613e56575b505050811b0160d255565b015160001960f88460031b161c19169055388080613e4b565b80600185968294968601518155019501930190613e37565b613ed09060d26000527ff2192e1030363415d7b4fb0406540a0060e8e2fc8982f3f32289379e11fa6546601f850160051c810191848610613ed6575b601f0160051c0190613d45565b38613dcb565b9091508190613ec3565b90815167ffffffffffffffff811161315f57613efd60ca54613268565b601f8111613fc4575b50602080601f8311600114613f425750819293600092613f37575b50506000198260011b9260031b1c19161760ca55565b015190503880613f21565b90601f1983169460ca6000527f42d72674974f694b5f5159593243114d38a5c39c89d6b62fee061ff523240ee1926000905b878210613fac575050836001959610613f93575b505050811b0160ca55565b015160001960f88460031b161c19169055388080613f88565b80600185968294968601518155019501930190613f74565b61400d9060ca6000527f42d72674974f694b5f5159593243114d38a5c39c89d6b62fee061ff523240ee1601f840160051c81019160208510613ed657601f0160051c0190613d45565b38613f06565b80518210156140275760209160051b010190565b7f4e487b7100000000000000000000000000000000000000000000000000000000600052603260045260246000fd5b60ff1660ff8114613c2a5760010190565b9060ce5460ff8060d05416918451610100908103908111613c2a5783101561427f57916000925b85518410156142685773ffffffffffffffffffffffffffffffffffffffff91826140b88689614013565b5151161561423e578381166001809381831b17946140d6888b614013565b5192600052602091829160cf83526040600020908551167fffffffffffffffffffffffff0000000000000000000000000000000000000000825416178155019201519384519167ffffffffffffffff831161315f576141358454613268565b90601f91828111614206575b5080918411600114614195575090828061417b9695949361418198600093614188575b505060001991921b9260031b1c1916179055614056565b93613c59565b929061408e565b0151915060001938614164565b91939495601f1984168660005283600020936000905b8282106141ef57505091614181979593918561417b989694106141d6575b505050811b019055614056565b015160001960f88460031b161c191690553880806141c9565b8088869782949787015181550196019401906141ab565b61422f908660005282600020600585808901821c830193868a10614235575b01901c0190613d45565b38614141565b93508293614225565b60046040517fd92e233d000000000000000000000000000000000000000000000000000000008152fd5b91939450915060ce551660ff1960d054161760d055565b60046040517fb0807411000000000000000000000000000000000000000000000000000000008152fd5b90600091825b81518110156142fd578073ffffffffffffffffffffffffffffffffffffffff6142db6142f89385614013565b5116855260d360205260408520600160ff19825416179055613c59565b6142af565b50509050565b6020015163ffffffff161561431457565b60046040517fee032808000000000000000000000000000000000000000000000000000000008152fd5b9060028251106143c257600091825b81518410156142fd5760ff906001826143668786614013565b5151161b918282166143845750179261437e90613c59565b9261434d565b6024906143918786614013565b515116604051907f1ed4de830000000000000000000000000000000000000000000000000000000082526004820152fd5b905056fea164736f6c6343000812000a",
    "linkReferences": {}
  },
  "methodIdentifiers": {
    "activeVotingStrategies()": "a44c31d5",
    "authenticators(address)": "791eb854",
    "cancel(uint256)": "40e58ee5",
    "daoURI()": "7034731b",
    "execute(uint256,bytes)": "59efcb15",
    "getProposalStatus(uint256)": "401853b7",
    "initialize(address,uint32,uint32,uint32,(address,bytes),string,string,string,(address,bytes)[],string[],address[])": "791ad52d",
    "maxVotingDuration()": "9d49257c",
    "minVotingDuration()": "6df7bab3",
    "nextProposalId()": "2ab09d14",
    "nextVotingStrategyIndex()": "05337104",
    "owner()": "8da5cb5b",
    "proposalValidationStrategy()": "ab1d89a7",
    "proposals(uint256)": "013cf08b",
    "propose(address,string,(address,bytes),bytes)": "aad83f3b",
    "proxiableUUID()": "52d1902d",
    "renounceOwnership()": "715018a6",
    "transferOwnership(address)": "f2fde38b",
    "updateProposal(address,uint256,(address,bytes),string)": "0b515570",
    "updateSettings((uint32,uint32,uint32,string,string,(address,bytes),string,address[],address[],(address,bytes)[],string[],uint8[]))": "d830616c",
    "upgradeTo(address)": "3659cfe6",
    "upgradeToAndCall(address,bytes)": "4f1ef286",
    "vote(address,uint256,uint8,(uint8,bytes)[],string)": "bc7e56f0",
    "votePower(uint256,uint8)": "de7c3c44",
    "voteRegistry(uint256,address)": "792cb5a3",
    "votingDelay()": "3932abb1",
    "votingStrategies(uint8)": "61ae2978"
  },
  "id": 67
}