{
  "abi": [
    {
      "inputs": [],
      "name": "SpaceCreationFailed",
      "type": "error"
    },
    {
      "anonymous": false,
      "inputs": [
        {
          "indexed": false,
          "internalType": "address",
          "name": "space",
          "type": "address"
        },
        {
          "indexed": false,
          "internalType": "address",
          "name": "owner",
          "type": "address"
        },
        {
          "indexed": false,
          "internalType": "uint32",
          "name": "votingDelay",
          "type": "uint32"
        },
        {
          "indexed": false,
          "internalType": "uint32",
          "name": "minVotingDuration",
          "type": "uint32"
        },
        {
          "indexed": false,
          "internalType": "uint32",
          "name": "maxVotingDuration",
          "type": "uint32"
        },
        {
          "indexed": false,
          "internalType": "uint256",
          "name": "proposalThreshold",
          "type": "uint256"
        },
        {
          "indexed": false,
          "internalType": "uint256",
          "name": "quorum",
          "type": "uint256"
        },
        {
          "components": [
            {
              "internalType": "address",
              "name": "addy",
              "type": "address"
            },
            {
              "internalType": "bytes",
              "name": "params",
              "type": "bytes"
            }
          ],
          "indexed": false,
          "internalType": "struct Strategy[]",
          "name": "votingStrategies",
          "type": "tuple[]"
        },
        {
          "indexed": false,
          "internalType": "address[]",
          "name": "authenticators",
          "type": "address[]"
        },
        {
          "indexed": false,
          "internalType": "address[]",
          "name": "executionStrategiesAddresses",
          "type": "address[]"
        }
      ],
      "name": "SpaceCreated",
      "type": "event"
    },
    {
      "inputs": [
        {
          "internalType": "address",
          "name": "controller",
          "type": "address"
        },
        {
          "internalType": "uint32",
          "name": "votingDelay",
          "type": "uint32"
        },
        {
          "internalType": "uint32",
          "name": "minVotingDuration",
          "type": "uint32"
        },
        {
          "internalType": "uint32",
          "name": "maxVotingDuration",
          "type": "uint32"
        },
        {
          "internalType": "uint256",
          "name": "proposalThreshold",
          "type": "uint256"
        },
        {
          "internalType": "uint256",
          "name": "quorum",
          "type": "uint256"
        },
        {
          "components": [
            {
              "internalType": "address",
              "name": "addy",
              "type": "address"
            },
            {
              "internalType": "bytes",
              "name": "params",
              "type": "bytes"
            }
          ],
          "internalType": "struct Strategy[]",
          "name": "votingStrategies",
          "type": "tuple[]"
        },
        {
          "internalType": "address[]",
          "name": "authenticators",
          "type": "address[]"
        },
        {
          "internalType": "address[]",
          "name": "executionStrategies",
          "type": "address[]"
        },
        {
          "internalType": "bytes32",
          "name": "salt",
          "type": "bytes32"
        }
      ],
      "name": "createSpace",
      "outputs": [],
      "stateMutability": "nonpayable",
      "type": "function"
    },
    {
      "inputs": [
        {
          "internalType": "address",
          "name": "controller",
          "type": "address"
        },
        {
          "internalType": "uint32",
          "name": "votingDelay",
          "type": "uint32"
        },
        {
          "internalType": "uint32",
          "name": "minVotingDuration",
          "type": "uint32"
        },
        {
          "internalType": "uint32",
          "name": "maxVotingDuration",
          "type": "uint32"
        },
        {
          "internalType": "uint256",
          "name": "proposalThreshold",
          "type": "uint256"
        },
        {
          "internalType": "uint256",
          "name": "quorum",
          "type": "uint256"
        },
        {
          "components": [
            {
              "internalType": "address",
              "name": "addy",
              "type": "address"
            },
            {
              "internalType": "bytes",
              "name": "params",
              "type": "bytes"
            }
          ],
          "internalType": "struct Strategy[]",
          "name": "votingStrategies",
          "type": "tuple[]"
        },
        {
          "internalType": "address[]",
          "name": "authenticators",
          "type": "address[]"
        },
        {
          "internalType": "address[]",
          "name": "executionStrategies",
          "type": "address[]"
        },
        {
          "internalType": "bytes32",
          "name": "salt",
          "type": "bytes32"
        }
      ],
      "name": "getSpaceAddress",
      "outputs": [
        {
          "internalType": "address",
          "name": "",
          "type": "address"
        }
      ],
      "stateMutability": "view",
      "type": "function"
    }
  ],
  "bytecode": {
    "object": "0x6080806040523461001657617354908161001c8239f35b600080fdfe608060405260043610156200001357600080fd5b60003560e01c806393fa9af514620005655763fbaecef7146200003557600080fd5b3462000402576101407ffffffffffffffffffffffffffffffffffffffffffffffffffffffffffffffffc36011262000402576200007162000803565b6200007b62000849565b90620000866200085d565b6200009062000871565b9067ffffffffffffffff60c43511620004025736602360c435011215620004025760c43560040135620000c381620008fb565b620000d26040519182620008b9565b8181526020810180923660248260051b60c4350101116200040257602460c43501915b60248260051b60c43501018310620004075750505060e43567ffffffffffffffff811162000402576200012d90369060040162000914565b93610104359067ffffffffffffffff8211620004025763ffffffff90816200017473ffffffffffffffffffffffffffffffffffffffff999698979594369060040162000914565b94816133d99b8c6040519d8e6200018f6020830182620008b9565b5262000b9660208f01396040519b8c991660208a015216604088015216606086015216608084015260843560a084015260a43560c084015261012060e08401526101408301905180915261016090818401918160051b85010195916000905b8282106200035457505050506200024d906200023b6200025a957fffffffffffffffffffffffffffffffffffffffffffffffffffffffffffffffe095868683030161010087015262000b49565b90848483030161012085015262000b49565b03908101835282620008b9565b6200029e60206040518093826200027b818401978881519384920162000b11565b8201620002918251809386808501910162000b11565b01038084520182620008b9565b51902060405160208101917fff0000000000000000000000000000000000000000000000000000000000000083523060601b6021830152610124356035830152605582015260558152608081019080821067ffffffffffffffff831117620003255760209273ffffffffffffffffffffffffffffffffffffffff9183604052519020168152f35b7f4e487b7100000000000000000000000000000000000000000000000000000000600052604160045260246000fd5b9193959660206060827ffffffffffffffffffffffffffffffffffffffffffffffffffffffffffffffea060019597998495030186527fffffffffffffffffffffffffffffffffffffffffffffffffffffffffffffffe0601f848b5173ffffffffffffffffffffffffffffffffffffffff81511685520151604086850152620003eb8151809281604088015288888801910162000b11565b0116010196019201920187949695939192620001ee565b600080fd5b823567ffffffffffffffff8111620004025760407fffffffffffffffffffffffffffffffffffffffffffffffffffffffffffffffdc8260c435013603011262000402576040519182604081011067ffffffffffffffff6040850111176200032557604083016040526200048160248360c435010162000827565b835260448260c4350101359067ffffffffffffffff82116200040257366043838560c4350101011215620004025767ffffffffffffffff6024838560c43501010135116200032557604051936200050b60207fffffffffffffffffffffffffffffffffffffffffffffffffffffffffffffffe0601f6024878960c4350101013501160186620008b9565b60c43584018301602481013580875236910160440111620004025760249460209485946000918691899160c4358101820180840135906044018588013760c4350101013583010152838201528152019301929050620000f5565b3462000402576101407ffffffffffffffffffffffffffffffffffffffffffffffffffffffffffffffffc3601126200040257620005a162000803565b620005ab62000849565b620005b56200085d565b90620005c062000871565b67ffffffffffffffff60c4358181116200040257620005e490369060040162000885565b9060e43583811162000402576200060090369060040162000885565b9290936101043581811162000402576200061f90369060040162000885565b9690976133d992608084608001109084608001111762000325578262003f6f60803973ffffffffffffffffffffffffffffffffffffffff8b16608084015263ffffffff81811660a08501528a811660c085015282811660e085015260843561010085015260a4356101208086019190915261014085015292620006df620006ac6101a08301878962000984565b7fffffffffffffffffffffffffffffffffffffffffffffffffffffffffffffff8083820301610160840152888a62000aba565b906101008160800183039160800101526101243590620007036080918b8d62000aba565b0360806000f5998a6200073a5760046040517f87a22725000000000000000000000000000000000000000000000000000000008152fd5b838092604051809e73ffffffffffffffffffffffffffffffffffffffff829f16825273ffffffffffffffffffffffffffffffffffffffff1690602001521660408c01521660608a015216608088015260843560a088015260a43560c088015260e087016101409052610140870190620007b39262000984565b90858203610100870152620007c89262000aba565b90838203610120850152620007dd9262000aba565b037fc5fb3cb98578e80f45cf1dc23516c4e1bcb8ac9762626015fe820c31b6b42c0791a1005b6004359073ffffffffffffffffffffffffffffffffffffffff821682036200040257565b359073ffffffffffffffffffffffffffffffffffffffff821682036200040257565b6024359063ffffffff821682036200040257565b6044359063ffffffff821682036200040257565b6064359063ffffffff821682036200040257565b9181601f84011215620004025782359167ffffffffffffffff831162000402576020808501948460051b0101116200040257565b90601f7fffffffffffffffffffffffffffffffffffffffffffffffffffffffffffffffe0910116810190811067ffffffffffffffff8211176200032557604052565b67ffffffffffffffff8111620003255760051b60200190565b81601f8201121562000402578035916200092e83620008fb565b926200093e6040519485620008b9565b808452602092838086019260051b82010192831162000402578301905b8282106200096a575050505090565b838091620009788462000827565b8152019101906200095b565b90808352602080930192838260051b850194846000925b858410620009ad575050505050505090565b90919293949596818103845287357fffffffffffffffffffffffffffffffffffffffffffffffffffffffffffffffc1843603018112156200040257830173ffffffffffffffffffffffffffffffffffffffff62000a0a8262000827565b168252868101357fffffffffffffffffffffffffffffffffffffffffffffffffffffffffffffffe18236030181121562000402570186810191903567ffffffffffffffff811162000402578036038313620004025760019288927fffffffffffffffffffffffffffffffffffffffffffffffffffffffffffffffe0601f8486956040808887015285015280606095868601376000858286010152011601019901940194019295949391906200099b565b91908082526020809201929160005b82811062000ad8575050505090565b90919293828060019273ffffffffffffffffffffffffffffffffffffffff62000b018962000827565b1681520195019392910162000ac9565b918091926000905b82821062000b3357501162000b2c575050565b6000910152565b9150806020918301518186015201829162000b19565b90815180825260208080930193019160005b82811062000b6a575050505090565b835173ffffffffffffffffffffffffffffffffffffffff168552938101939281019260010162000b5b56fe60c0604052346200022557620033d96200001b8138036200078a565b806080528180380391396080519080380382016101208382031262000225576200004583620007b0565b906200005460208501620007c5565b906200006360408601620007c5565b926200007260608701620007c5565b60808701519360a08801519360c08901519860018060401b038a116200022557890190601f82011215620002255751936020620000b9620000b387620007d7565b6200078a565b8060a0528681520195608051893803810160208860051b8d840101011162000225578a01602001965b60805160208860051b8d830101018910156200023f578851906001600160401b0382116200022557818d82010160408d82601f1994859238030103011262000225576040805193908401916001600160401b038311858410176200022a578f92620001549160209160405201620007b0565b845260805191820101604081015190916001600160401b03821162000225578e380301603f828401011215620002255781810160200151916001600160401b0383116200022a57620001b08f94602090601f860116016200078a565b938385523803608051016040848484010101116200022557906000915b838310620002085750509181602095939286959311620001f9575b5083820152815201970196620000e2565b846000918301015238620001e8565b9091806040602092858501010151828288010152019190620001cd565b600080fd5b60246000634e487b7160e01b81526041600452fd5b505060805160e0810151959650899589916001600160401b0382116200022557620002719188380382019101620007ef565b6080516101008101519197916001600160401b03811162000225576200029d92380382019101620007ef565b96620002a93362000856565b600054336001600160a01b039091160362000746576001600160a01b03811615620006f257620002d99062000856565b6000549063ffffffff95868360c01c168088831610620006cc575060a090811b63ffffffff60a01b16919063ffffffff60a01b1984168317901c87168782168110620006a6575063ffffffff60c01b9060c01b1691600160a01b600160e01b03191617176000556002556003551663ffffffff19600454161760045560a05151156200069457906000915b60a0518051841015620005e6576001600160a01b039062000387908590620008c8565b51511615620005d4576200039e8360a051620008c8565b519260055468010000000000000000811015620005a8576001810180600555811015620005be5760056000528451600182901b7f036b6384b5eca791c62761152d0c79bb0604c104a5fb6f4eb0703f3154bb3db090810180546001600160a01b0319166001600160a01b039093169290921790915560209095015180519095906001600160401b038111620005a857600183811b83010154600181811c911680156200059d575b60208210146200058757601f811162000533575b506020601f8211600114620004af579080600193926200049b979899600092620004a3575b5050600019600383901b1c191690831b1792821b010155620008a2565b919062000364565b0151905089806200047e565b600184819993991b84010160005260206000209160005b601f198a1681106200051a5750976001939284926200049b98999a83601f1981161062000500575b505050811b0192821b010155620008a2565b015160001960f88460031b161c19169055898080620004ee565b82820151845560019093019260209283019201620004c6565b600184811b8401016000526020600020601f830160051c810191602084106200057c575b601f0160051c01905b8181106200056f575062000459565b6000815560010162000560565b909150819062000557565b634e487b7160e01b600052602260045260246000fd5b90607f169062000445565b634e487b7160e01b600052604160045260246000fd5b634e487b7160e01b600052603260045260246000fd5b60405163b2deb85b60e01b8152600490fd5b5060005b815181101562000633576200062d906001600160a01b036200060d8285620008c8565b511660005260076020526040600020600160ff19825416179055620008a2565b620005ea565b8260005b815181101562000680576200067a906001600160a01b036200065a8285620008c8565b511660005260066020526040600020600160ff19825416179055620008a2565b62000637565b60018055604051612afb9081620008de8239f35b60405163521299a960e01b8152600490fd5b60405163c564bfaf60e01b815263ffffffff928316600482015291166024820152604490fd5b60405163c564bfaf60e01b815263ffffffff918216600482015291166024820152604490fd5b60405162461bcd60e51b815260206004820152602660248201527f4f776e61626c653a206e6577206f776e657220697320746865207a65726f206160448201526564647265737360d01b6064820152608490fd5b606460405162461bcd60e51b815260206004820152602060248201527f4f776e61626c653a2063616c6c6572206973206e6f7420746865206f776e65726044820152fd5b6040519190601f01601f191682016001600160401b03811183821017620005a857604052565b51906001600160a01b03821682036200022557565b519063ffffffff821682036200022557565b6001600160401b038111620005a85760051b60200190565b9080601f8301121562000225578151906200080e620000b383620007d7565b9182938184526020808095019260051b82010192831162000225578301905b8282106200083c575050505090565b8380916200084a84620007b0565b8152019101906200082d565b600080546001600160a01b039283166001600160a01b03198216811783556040519093909116917f8be0079c531659141344cd1fd0a4f28419497f9722a3daafe3b4186f6b6457e091a3565b6000198114620008b25760010190565b634e487b7160e01b600052601160045260246000fd5b8051821015620005be5760209160051b01019056fe60a0604052600436101561001257600080fd5b600080608052803560e01c9081630fdca0a114611d1d5781631130630c14611cac578163127d0ff714611c255781631555217b14611ab45781631703a01814611a945781631984b24e1461181b57816325ba2293146115695781632ab09d14146115495781633018205f1461098a57816336bd45e5146112695781633932abb114611243578163401853b7146111fc578163438596321461117c578163539b0837146110b35781635b9ceb9914610fea5781636df7bab314610fc2578163715018a614610f3a5750806373c9e70b14610e4357806377dda71a14610a8b5780638a255e75146109bf5780638da5cb5b1461098a57806392eefe9b146109075780639d49257c146108df5780639deb0f7a14610472578063b58131b01461044f578063c1ba4e59146103fd578063c7f758a81461036e578063ece40cc11461031c578063f2fde38b1461024a5763f5669c4c1461016d57600080fd5b34610244576020806003193601126102445760043567ffffffffffffffff81116102445761019f903690600401611ec3565b6101a7611f81565b6101b2368284612264565b906080515b8251811015610208578073ffffffffffffffffffffffffffffffffffffffff6101e361020393866121b8565b51166080515260068652604060805120600160ff19825416179055612193565b6101b7565b6040517f86ccabb1fbb3f619059a146d5df363f7bdb781cfbb82ae4717c32ab13cdbe54a90806102398588836122ba565b0390a1608051604051f35b60805180fd5b3461024457602060031936011261024457610263611e7f565b61026b611f81565b73ffffffffffffffffffffffffffffffffffffffff8116156102985761029090612000565b608051604051f35b60846040517f08c379a000000000000000000000000000000000000000000000000000000000815260206004820152602660248201527f4f776e61626c653a206e6577206f776e657220697320746865207a65726f206160448201527f64647265737300000000000000000000000000000000000000000000000000006064820152fd5b34610244576020600319360112610244577f75176781f69c55e26fee85d480452b0b9038b9428704bb7b232fc1c638bbf803602060043561035b611f81565b80600255604051908152a1608051604051f35b346102445760206003193601126102445760405161038b816120d6565b6080518152608051602082015260805160408201526080516060820152608051608082015260805160a082015260805160c082015260e06080519101526004356080515260086020526101006103e5604060805120612313565b6103ee81612398565b6103fb6040518092611ef4565bf35b34610244576020600319360112610244577ff18f88786aae85a652aadb99a82462616489a33370c9bcc7b245906812ef7cd1602060043561043c611f81565b80600355604051908152a1608051604051f35b34610244576080518060031936011261046f576020600254604051908152f35b80fd5b346102445760206003193601126102445767ffffffffffffffff600435818111610244576104a4903690600401611ec3565b906104ad611f81565b6104b682612116565b906104c460405192836120f3565b828252602082018360051b8201903682116102445782905b8282106108855750505081511561085b576080515b825181101561070f5773ffffffffffffffffffffffffffffffffffffffff8061051a83866121b8565b515116156106e55761052c82856121b8565b5190600554680100000000000000008110156106b65780600161055292016005556121e2565b9290926106ce576020918151167fffffffffffffffffffffffff000000000000000000000000000000000000000084541617835501518051908782116106b65761059f600184015461221c565b601f811161066c575b5060805190602091601f84116001146105f8575091806001926105e8969594608051926105ed575b505060001982841b9260031b1c191617910155612193565b6104f1565b015190508a806105d0565b600185019052608051602081209291905b601f198516811061065457509260019283926105e897969583601f1981161061063b575b505050811b01910155612193565b015160001960f88460031b161c191690558a808061062d565b91926020600181928685015181550194019201610609565b600184016080515260805160208120601f850160051c8101602086106106af575b601f840160051c820181106106a4575050506105a8565b82815560010161068d565b508061068d565b634e487b7160e01b6080515260416004526024608051fd5b634e487b7160e01b60805152602460805180600452fd5b60046040517fb2deb85b000000000000000000000000000000000000000000000000000000008152fd5b5082846040519180602084016020855252604083019160408260051b850101948093608051915b84831061076b577f9fae90e6a969fc8c825d166f95ab14662bfc328ef3d02819492a2618b3b7cce687890388a1608051604051f35b9091929394967fffffffffffffffffffffffffffffffffffffffffffffffffffffffffffffffc087820301835287357fffffffffffffffffffffffffffffffffffffffffffffffffffffffffffffffc18336030181121561024457820173ffffffffffffffffffffffffffffffffffffffff6107e682611ea2565b16825260208101357fffffffffffffffffffffffffffffffffffffffffffffffffffffffffffffffe1823603018112156102445701602081359101908681116102445780360382136102445761084b602092839260408681866001990152019161206f565b9901930193019194939290610736565b60046040517f521299a9000000000000000000000000000000000000000000000000000000008152fd5b813587811161024457840160408136031261024457604051916108a7836120ba565b6108b082611ea2565b8352602082013592898411610244576108d0602094938594369101612175565b838201528152019101906104dc565b34610244576080518060031936011261046f5763ffffffff6020915460a01c16604051908152f35b3461024457602060031936011261024457610920611e7f565b610928611f81565b610930611f81565b73ffffffffffffffffffffffffffffffffffffffff8116908115610298577f1304018cfe79741dcf02ba6b61d39cc4757d59395d03224d9925c7aa830021469161097b602092612000565b604051908152a1608051604051f35b34610244576080518060031936011261046f5773ffffffffffffffffffffffffffffffffffffffff6020915416604051908152f35b34610244576020806003193601126102445760043567ffffffffffffffff8111610244576109f1903690600401611ec3565b6109f9611f81565b610a04368284612264565b906080515b8251811015610a5a578073ffffffffffffffffffffffffffffffffffffffff610a35610a5593866121b8565b51166080515260078652604060805120600160ff19825416179055612193565b610a09565b6040517f0f1800fbca5c51a50ca47d2d359d89a9872ebc0d41b791582770add9d9d7e7bc90806102398588836122ba565b346102445760031960808136011261024457610aa5611e7f565b9067ffffffffffffffff9060243582811161024457610ac8903690600401611e18565b929091816044351161024457604090604435360301126102445760643590811161024457610afa903690600401611ec3565b90610b03612622565b73ffffffffffffffffffffffffffffffffffffffff610b26604435600401612548565b1680608051526006602052600160ff6040608051205416151503610e12575090610b57918563ffffffff42166126af565b6002548110610de15750610b7963ffffffff6004541663ffffffff4216612569565b906080515491610ba163ffffffff610b96818660c01c1684612569565b9460a01c1682612569565b90610bc0610bb9602460443501604435600401612582565b369161212e565b602081519101209073ffffffffffffffffffffffffffffffffffffffff6003805496610bf0604435600401612548565b9460405198610bfe8a6120d6565b89526020890163ffffffff4216815263ffffffff60408b019616865263ffffffff60608b019316835263ffffffff60808b019816885260a08a019182528460c08b019716875260e08a019560805187526001546080515260086020526080519860408a20948c51865563ffffffff600187019451167fffffffffffffffffffffffffffffffff000000000000000000000000000000006fffffffff0000000000000000000000006bffffffff000000000000000067ffffffff000000008854975160201b16945160401b16945160601b169416171717179055516002820155019251167fffffffffffffffffffffffff000000000000000000000000000000000000000083541617825551916004831015610dcb57507f7f9177c734976b51ba7ef0416cbc16acfd88f3b531a1b775fa539fa216a9157793610d97610da973ffffffffffffffffffffffffffffffffffffffff95610d63610dc09a96610db8966125d3565b60015498610d7b602460443501604435600401612582565b949095604051998a998d8b521660208a01526040890190611ef4565b6101808061014089015287019161206f565b9184830361016086015261206f565b0390a1612193565b600155608051604051f35b634e487b7160e01b905260216004526024608051fd5b602490604051907f3222f9a10000000000000000000000000000000000000000000000000000000082526004820152fd5b602490604051907f3d6ed7710000000000000000000000000000000000000000000000000000000082526004820152fd5b346102445760206003193601126102445760043563ffffffff8082169081830361024457610e6f611f81565b60805154908160c01c16808310610efa577f50b3808988e8880c34e4b58088d8eeeb40410dd2a2238a299db9187644259b05602084847fffffffffffffffff00000000ffffffffffffffffffffffffffffffffffffffff77ffffffff00000000000000000000000000000000000000008960a01b1691161760805155604051908152a1608051604051f35b6040517fc564bfaf00000000000000000000000000000000000000000000000000000000815263ffffffff91821660048201529084166024820152604490fd5b34610244576080518060031936011261046f5750610f56611f81565b8054907fffffffffffffffffffffffff00000000000000000000000000000000000000008216815573ffffffffffffffffffffffffffffffffffffffff60405192167f8be0079c531659141344cd1fd0a4f28419497f9722a3daafe3b4186f6b6457e08284a360805190f35b34610244576080518060031936011261046f5763ffffffff6020915460c01c16604051908152f35b34610244576020806003193601126102445760043567ffffffffffffffff81116102445761101c903690600401611ec3565b611024611f81565b61102f368284612264565b906080515b8251811015611082578073ffffffffffffffffffffffffffffffffffffffff61106061107d93866121b8565b5116608051526006865260406080512060ff198154169055612193565b611034565b6040517f60e61d49c35254b82485ac9580c847fa94b17fafbe5f917e172574639ec21bf690806102398588836122ba565b34610244576020806003193601126102445760043567ffffffffffffffff8111610244576110e5903690600401611ec3565b6110ed611f81565b6110f8368284612264565b906080515b825181101561114b578073ffffffffffffffffffffffffffffffffffffffff61112961114693866121b8565b5116608051526007865260406080512060ff198154169055612193565b6110fd565b6040517f2befc5f117311dbd6cabfd7bc4cec09eeefc83a55c9140bbf298951571f5cb8690806102398588836122ba565b34610244576040600319360112610244576004356024359073ffffffffffffffffffffffffffffffffffffffff82168092036111f85760209260ff928260409360805152600886526111d96111d48560805120612313565b612398565b6080515260098552826080512090825284522054166040519015158152f35b8280fd5b34610244576020600319360112610244576112186004356123d3565b604051600782101561122b576020918152f35b634e487b7160e01b6080515260216004526024608051fd5b34610244576080518060031936011261046f57602063ffffffff60045416604051908152f35b346102445760206003193601126102445760043567ffffffffffffffff81116102445761129a903690600401611ec3565b6112a5929192611f81565b6112ae81612116565b926112bc60405194856120f3565b818452602084018260051b8201903682116102445782905b828210611531575050506080515b845160ff808316918210156114c057611306816112ff848a6121b8565b51166121e2565b507fffffffffffffffffffffffff00000000000000000000000000000000000000008154169055604051916020830183811067ffffffffffffffff8211176114ac5761135f92916112ff916040526080518552896121b8565b5090805167ffffffffffffffff81116106b65761137f600184015461221c565b601f8111611462575b50608051602090601f83116001146113f457508190600193608051926113e9575b505060001982841b9260031b1c1916179101555b60ff8091169081146113d1576001016112e2565b634e487b7160e01b6080515260116004526024608051fd5b0151905089806113a9565b60018501905260805160208120929390601f198516905b81811061144a57509160019492918386959310611431575b505050811b019101556113bd565b015160001960f88460031b161c19169055898080611423565b9293602060018192878601518155019501930161140b565b600184016080515260805160208120601f840160051c8101602085106114a5575b601f840160051c8201811061149a57505050611388565b828155600101611483565b5080611483565b602488634e487b7160e01b81526041600452fd5b838560405190806020830160208452526040820192906080515b81811061150f577f24c5d4b9c170a0ef0634046f1a7a184dd341c99da7242482e42cc2782076cea384860385a1608051604051f35b90919360208060019260ff61152389612256565b1681520195019291016114da565b6020809161153e84612256565b8152019101906112d4565b34610244576080518060031936011261046f576020600154604051908152f35b346102445761157736611e4b565b909180608051526008602052604060805120916115966111d484612313565b600383019384549360ff8560a01c16600481101561122b576117f15763ffffffff9081421660018201549181848460401c16116117c7576115d836878761212e565b6020815191012060028201540361179d57866115f491546124fc565b509490939091156117655750505011156117485773ffffffffffffffffffffffffffffffffffffffff608051945b168060805152600660205260805160ff6040822054161561173f575b813b1561046f57509061169b929160405180809581947ffb4d364c0000000000000000000000000000000000000000000000000000000083526116808a6124e6565b8960048401526040602484015260805196604484019161206f565b0391608051905af180156117325761171d575b506116b8826124e6565b60ff821660fe81116113d15760010160ff1691600483101561122b576117016040937f34a42c4ce0a88d16ad098de6406057747139a2a3dd8dd8616ee7bbabcecb768e956125d3565b825191825261170f816124e6565b6020820152a1608051604051f35b61172690612090565b60805180156116ae5780fd5b6040513d608051823e3d90fd5b6002955061163e565b73ffffffffffffffffffffffffffffffffffffffff600194611622565b60601c161115915061174890505760046040517f409a7f85000000000000000000000000000000000000000000000000000000008152fd5b60046040517f65fcf03a000000000000000000000000000000000000000000000000000000008152fd5b60046040517f42d3f297000000000000000000000000000000000000000000000000000000008152fd5b60046040517f51618d53000000000000000000000000000000000000000000000000000000008152fd5b3461024457608060031936011261024457611834611e7f565b906024356044359260038410156102445760643567ffffffffffffffff811161024457611865903690600401611ec3565b949061186f612622565b836080515260209560088752611889604060805120612313565b9161189383612398565b60e0830151600481101561122b576117f15763ffffffff9485421686608086015116811015611a6a578660408601511611611a40578660805152600989526040608051209573ffffffffffffffffffffffffffffffffffffffff821696878a528a52600160ff60408b205416151514611a165789611913950151166126af565b9182156119ec577f79533ed92b5d1878e96ddacfd073144fd0caae2e033f7fc9770afd6120e02e0795604060809686885152600a835281885120611956866124e6565b8589515283528661196b87848b5120546124f0565b818a5152600a8552838a5120611980886124e6565b878b5152855289519084822055526009835281885120848252835220600160ff19825416179055604051926119b4846120ba565b6119bd816124e6565b8352808301938452604051948552840152516119d8816124e6565b6040830152516060820152a1608051604051f35b60046040517fdf0cf4fb000000000000000000000000000000000000000000000000000000008152fd5b60046040517f1f652102000000000000000000000000000000000000000000000000000000008152fd5b60046040517f688c575a000000000000000000000000000000000000000000000000000000008152fd5b60046040517f6613a282000000000000000000000000000000000000000000000000000000008152fd5b34610244576080518060031936011261046f576020600354604051908152f35b3461024457611ac236611e4b565b9091611acc611f81565b8060805152600860205260406080512091611ae96111d484612313565b600383019283549060ff8260a01c16600481101561122b576117f1576002611b1236858961212e565b602081519101209101540361179d5773ffffffffffffffffffffffffffffffffffffffff1693843b1561024457611b8a9460405180809781947ffb4d364c000000000000000000000000000000000000000000000000000000008352600260048401526040602484015260805196604484019161206f565b0391608051905af1918215611732577f34a42c4ce0a88d16ad098de6406057747139a2a3dd8dd8616ee7bbabcecb768e93604093611c16575b50740300000000000000000000000000000000000000007fffffffffffffffffffffff00ffffffffffffffffffffffffffffffffffffffff825416179055815190815260026020820152a1608051604051f35b611c1f90612090565b84611bc3565b346102445760206003193601126102445760043563ffffffff81168091036102445760207fba76433d63148cc0d7df02d39ab5cddf8737df279d4af4c7bce819a2ef719e9591611c73611f81565b807fffffffffffffffffffffffffffffffffffffffffffffffffffffffff000000006004541617600455604051908152a1608051604051f35b346102445760206003193601126102445760043567ffffffffffffffff811161024457611cfe7f48674fffb03fee00a113cc146f3aa94a9720a4cb3839fbb855c436859d39a977913690600401611e18565b611d06611f81565b61023960405192839260208452602084019161206f565b3461046f57602060031936011261046f5763ffffffff6004358181169283820361046f5750611d4a611f81565b60805154918260a01c16808411611dd9577fa596cfacd06610b4e094472b3f6712f263b9a8af5fbd18924780c678a4fc55e6602085857fffffffff00000000ffffffffffffffffffffffffffffffffffffffffffffffff7bffffffff0000000000000000000000000000000000000000000000008760c01b1691161760805155604051908152a1608051604051f35b6040517fc564bfaf00000000000000000000000000000000000000000000000000000000815263ffffffff928316600482015291166024820152604490fd5b9181601f84011215611e465782359167ffffffffffffffff8311611e465760208381860195010111611e4657565b600080fd5b906040600319830112611e4657600435916024359067ffffffffffffffff8211611e4657611e7b91600401611e18565b9091565b6004359073ffffffffffffffffffffffffffffffffffffffff82168203611e4657565b359073ffffffffffffffffffffffffffffffffffffffff82168203611e4657565b9181601f84011215611e465782359167ffffffffffffffff8311611e46576020808501948460051b010111611e4657565b60e0908051835263ffffffff806020830151166020850152806040830151166040850152806060830151166060850152608082015116608084015260a081015160a084015273ffffffffffffffffffffffffffffffffffffffff60c08201511660c08401520151906004821015611f6b5760e00152565b634e487b7160e01b600052602160045260246000fd5b73ffffffffffffffffffffffffffffffffffffffff600054163303611fa257565b60646040517f08c379a000000000000000000000000000000000000000000000000000000000815260206004820152602060248201527f4f776e61626c653a2063616c6c6572206973206e6f7420746865206f776e65726044820152fd5b6000549073ffffffffffffffffffffffffffffffffffffffff80911691827fffffffffffffffffffffffff0000000000000000000000000000000000000000821617600055167f8be0079c531659141344cd1fd0a4f28419497f9722a3daafe3b4186f6b6457e06000604051a3565b601f8260209493601f19938186528686013760008582860101520116010190565b67ffffffffffffffff81116120a457604052565b634e487b7160e01b600052604160045260246000fd5b6040810190811067ffffffffffffffff8211176120a457604052565b610100810190811067ffffffffffffffff8211176120a457604052565b90601f601f19910116810190811067ffffffffffffffff8211176120a457604052565b67ffffffffffffffff81116120a45760051b60200190565b92919267ffffffffffffffff82116120a457604051916121586020601f19601f84011601846120f3565b829481845281830111611e46578281602093846000960137010152565b9080601f83011215611e46578160206121909335910161212e565b90565b60001981146121a25760010190565b634e487b7160e01b600052601160045260246000fd5b80518210156121cc5760209160051b010190565b634e487b7160e01b600052603260045260246000fd5b6005548110156121cc57600560005260011b7f036b6384b5eca791c62761152d0c79bb0604c104a5fb6f4eb0703f3154bb3db00190600090565b90600182811c9216801561224c575b602083101461223657565b634e487b7160e01b600052602260045260246000fd5b91607f169161222b565b359060ff82168203611e4657565b929161226f82612116565b9161227d60405193846120f3565b829481845260208094019160051b8101928311611e4657905b8282106122a35750505050565b8380916122af84611ea2565b815201910190612296565b90916040602092828482018583525201929160005b8281106122dd575050505090565b90919293828060019273ffffffffffffffffffffffffffffffffffffffff61230489611ea2565b168152019501939291016122cf565b90604051612320816120d6565b60ff6003829480548452600181015463ffffffff908181166020870152818160201c166040870152818160401c16606087015260601c166080850152600281015460a0850152015473ffffffffffffffffffffffffffffffffffffffff811660c084015260a01c16906004821015611f6b5760e00152565b6040015163ffffffff16156123a957565b60046040517fee032808000000000000000000000000000000000000000000000000000000008152fd5b60009080825260086020526123fe6123ed60408420612313565b916123f783612398565b82516124fc565b5050509060e0810192835193600494858110156124d35761246c57505063ffffffff9081604082015116421060001461243a5750505050600390565b608081015182164211156124515750505050600690565b606001511642111561246857156121905750600590565b5090565b9150915051828110156124c05760ff16600181106124ad576000190160ff1691600783101561249a57505090565b906021602492634e487b7160e01b835252fd5b506011602492634e487b7160e01b835252fd5b506021602492634e487b7160e01b835252fd5b602483602188634e487b7160e01b835252fd5b60031115611f6b57565b811981116121a2570190565b6000918252600a6020908152604080842060018552909152808320548380528184205460028552919093205492939092916125408361253b86886124f0565b6124f0565b101593929190565b3573ffffffffffffffffffffffffffffffffffffffff81168103611e465790565b9063ffffffff80809316911680920381116121a2570190565b9035907fffffffffffffffffffffffffffffffffffffffffffffffffffffffffffffffe181360301821215611e46570180359067ffffffffffffffff8211611e4657602001918136038313611e4657565b906004811015611f6b577fffffffffffffffffffffff00ffffffffffffffffffffffffffffffffffffffff74ff000000000000000000000000000000000000000083549260a01b169116179055565b336000526007602052600160ff6040600020541615150361263f57565b60246040517f633854de000000000000000000000000000000000000000000000000000000008152336004820152fd5b91908110156121cc5760051b810135907fffffffffffffffffffffffffffffffffffffffffffffffffffffffffffffffc181360301821215611e46570190565b9290926126bb82612116565b936040926126cb845196876120f3565b8086526005956020929082881b8701848201368211611e465788905b828210612a8f575050508051612988575b5095949392919060009687965b82881061271757505050505050505090565b909192939495969761272a89858a61266f565b3560ff8116809103611e465761273f906121e2565b5087519061274c826120ba565b73ffffffffffffffffffffffffffffffffffffffff9182825416815260018092018a519260009180549061277f8261221c565b91828752868d85831692836000146129655750505060011461292a575b505050826127ab9103836120f3565b87810191825282815116156128fa5787918a848d8f6127db6127e4918f9763ffffffff9a8f91511697519461266f565b87810190612582565b929093519788967f871d81b70000000000000000000000000000000000000000000000000000000088521660048701528a166024860152608060448601528051908160848701526000905b8282106128df5750859360009360a4601f19601f86899761286697116128d3575b0116850160a0868203016064870152019161206f565b03925af19081156128c857600091612899575b506128879061288d926124f0565b98612193565b96959493929190612705565b908682813d83116128c1575b6128af81836120f3565b8101031261046f57505161288d612879565b503d6128a5565b88513d6000823e3d90fd5b8884828a010152612850565b80820188015160a48a840101528d978997509091019061282f565b60248c8b51907fbe04e1dc0000000000000000000000000000000000000000000000000000000082526004820152fd5b9091925060005289600020916000925b8284106129525750505082018801826127ab3861279c565b80548685018d0152928b0192810161293a565b9195509392506127ab955060ff19915016828401521515881b820101913861279c565b959196926000989491985b87516001908181106121a25760001901821015612a80577ffffffffffffffffffffffffffffffffffffffffffffffffffffffffffffffffe82116121a257818101815b6129eb575b50506129e690612193565b612993565b8951811015612a7b5760ff8a81612a108482612a0789866121b8565b515116936121b8565b51511614612a295750612a238291612193565b906129d6565b8981612a466044948e94612a3d89876121b8565b515116946121b8565b5151169051917f5bfc5b2100000000000000000000000000000000000000000000000000000000835260048301526024820152fd5b6129db565b505092969195509296386126f8565b67ffffffffffffffff908235828111611e46578b01908a82360312611e46578a51612ab9816120ba565b612ac283612256565b815289830135938411611e4657612adf8a94938594369101612175565b838201528152019101906126e756fea164736f6c634300080f000a60c0604052346200022557620033d96200001b8138036200078a565b806080528180380391396080519080380382016101208382031262000225576200004583620007b0565b906200005460208501620007c5565b906200006360408601620007c5565b926200007260608701620007c5565b60808701519360a08801519360c08901519860018060401b038a116200022557890190601f82011215620002255751936020620000b9620000b387620007d7565b6200078a565b8060a0528681520195608051893803810160208860051b8d840101011162000225578a01602001965b60805160208860051b8d830101018910156200023f578851906001600160401b0382116200022557818d82010160408d82601f1994859238030103011262000225576040805193908401916001600160401b038311858410176200022a578f92620001549160209160405201620007b0565b845260805191820101604081015190916001600160401b03821162000225578e380301603f828401011215620002255781810160200151916001600160401b0383116200022a57620001b08f94602090601f860116016200078a565b938385523803608051016040848484010101116200022557906000915b838310620002085750509181602095939286959311620001f9575b5083820152815201970196620000e2565b846000918301015238620001e8565b9091806040602092858501010151828288010152019190620001cd565b600080fd5b60246000634e487b7160e01b81526041600452fd5b505060805160e0810151959650899589916001600160401b0382116200022557620002719188380382019101620007ef565b6080516101008101519197916001600160401b03811162000225576200029d92380382019101620007ef565b96620002a93362000856565b600054336001600160a01b039091160362000746576001600160a01b03811615620006f257620002d99062000856565b6000549063ffffffff95868360c01c168088831610620006cc575060a090811b63ffffffff60a01b16919063ffffffff60a01b1984168317901c87168782168110620006a6575063ffffffff60c01b9060c01b1691600160a01b600160e01b03191617176000556002556003551663ffffffff19600454161760045560a05151156200069457906000915b60a0518051841015620005e6576001600160a01b039062000387908590620008c8565b51511615620005d4576200039e8360a051620008c8565b519260055468010000000000000000811015620005a8576001810180600555811015620005be5760056000528451600182901b7f036b6384b5eca791c62761152d0c79bb0604c104a5fb6f4eb0703f3154bb3db090810180546001600160a01b0319166001600160a01b039093169290921790915560209095015180519095906001600160401b038111620005a857600183811b83010154600181811c911680156200059d575b60208210146200058757601f811162000533575b506020601f8211600114620004af579080600193926200049b979899600092620004a3575b5050600019600383901b1c191690831b1792821b010155620008a2565b919062000364565b0151905089806200047e565b600184819993991b84010160005260206000209160005b601f198a1681106200051a5750976001939284926200049b98999a83601f1981161062000500575b505050811b0192821b010155620008a2565b015160001960f88460031b161c19169055898080620004ee565b82820151845560019093019260209283019201620004c6565b600184811b8401016000526020600020601f830160051c810191602084106200057c575b601f0160051c01905b8181106200056f575062000459565b6000815560010162000560565b909150819062000557565b634e487b7160e01b600052602260045260246000fd5b90607f169062000445565b634e487b7160e01b600052604160045260246000fd5b634e487b7160e01b600052603260045260246000fd5b60405163b2deb85b60e01b8152600490fd5b5060005b815181101562000633576200062d906001600160a01b036200060d8285620008c8565b511660005260076020526040600020600160ff19825416179055620008a2565b620005ea565b8260005b815181101562000680576200067a906001600160a01b036200065a8285620008c8565b511660005260066020526040600020600160ff19825416179055620008a2565b62000637565b60018055604051612afb9081620008de8239f35b60405163521299a960e01b8152600490fd5b60405163c564bfaf60e01b815263ffffffff928316600482015291166024820152604490fd5b60405163c564bfaf60e01b815263ffffffff918216600482015291166024820152604490fd5b60405162461bcd60e51b815260206004820152602660248201527f4f776e61626c653a206e6577206f776e657220697320746865207a65726f206160448201526564647265737360d01b6064820152608490fd5b606460405162461bcd60e51b815260206004820152602060248201527f4f776e61626c653a2063616c6c6572206973206e6f7420746865206f776e65726044820152fd5b6040519190601f01601f191682016001600160401b03811183821017620005a857604052565b51906001600160a01b03821682036200022557565b519063ffffffff821682036200022557565b6001600160401b038111620005a85760051b60200190565b9080601f8301121562000225578151906200080e620000b383620007d7565b9182938184526020808095019260051b82010192831162000225578301905b8282106200083c575050505090565b8380916200084a84620007b0565b8152019101906200082d565b600080546001600160a01b039283166001600160a01b03198216811783556040519093909116917f8be0079c531659141344cd1fd0a4f28419497f9722a3daafe3b4186f6b6457e091a3565b6000198114620008b25760010190565b634e487b7160e01b600052601160045260246000fd5b8051821015620005be5760209160051b01019056fe60a0604052600436101561001257600080fd5b600080608052803560e01c9081630fdca0a114611d1d5781631130630c14611cac578163127d0ff714611c255781631555217b14611ab45781631703a01814611a945781631984b24e1461181b57816325ba2293146115695781632ab09d14146115495781633018205f1461098a57816336bd45e5146112695781633932abb114611243578163401853b7146111fc578163438596321461117c578163539b0837146110b35781635b9ceb9914610fea5781636df7bab314610fc2578163715018a614610f3a5750806373c9e70b14610e4357806377dda71a14610a8b5780638a255e75146109bf5780638da5cb5b1461098a57806392eefe9b146109075780639d49257c146108df5780639deb0f7a14610472578063b58131b01461044f578063c1ba4e59146103fd578063c7f758a81461036e578063ece40cc11461031c578063f2fde38b1461024a5763f5669c4c1461016d57600080fd5b34610244576020806003193601126102445760043567ffffffffffffffff81116102445761019f903690600401611ec3565b6101a7611f81565b6101b2368284612264565b906080515b8251811015610208578073ffffffffffffffffffffffffffffffffffffffff6101e361020393866121b8565b51166080515260068652604060805120600160ff19825416179055612193565b6101b7565b6040517f86ccabb1fbb3f619059a146d5df363f7bdb781cfbb82ae4717c32ab13cdbe54a90806102398588836122ba565b0390a1608051604051f35b60805180fd5b3461024457602060031936011261024457610263611e7f565b61026b611f81565b73ffffffffffffffffffffffffffffffffffffffff8116156102985761029090612000565b608051604051f35b60846040517f08c379a000000000000000000000000000000000000000000000000000000000815260206004820152602660248201527f4f776e61626c653a206e6577206f776e657220697320746865207a65726f206160448201527f64647265737300000000000000000000000000000000000000000000000000006064820152fd5b34610244576020600319360112610244577f75176781f69c55e26fee85d480452b0b9038b9428704bb7b232fc1c638bbf803602060043561035b611f81565b80600255604051908152a1608051604051f35b346102445760206003193601126102445760405161038b816120d6565b6080518152608051602082015260805160408201526080516060820152608051608082015260805160a082015260805160c082015260e06080519101526004356080515260086020526101006103e5604060805120612313565b6103ee81612398565b6103fb6040518092611ef4565bf35b34610244576020600319360112610244577ff18f88786aae85a652aadb99a82462616489a33370c9bcc7b245906812ef7cd1602060043561043c611f81565b80600355604051908152a1608051604051f35b34610244576080518060031936011261046f576020600254604051908152f35b80fd5b346102445760206003193601126102445767ffffffffffffffff600435818111610244576104a4903690600401611ec3565b906104ad611f81565b6104b682612116565b906104c460405192836120f3565b828252602082018360051b8201903682116102445782905b8282106108855750505081511561085b576080515b825181101561070f5773ffffffffffffffffffffffffffffffffffffffff8061051a83866121b8565b515116156106e55761052c82856121b8565b5190600554680100000000000000008110156106b65780600161055292016005556121e2565b9290926106ce576020918151167fffffffffffffffffffffffff000000000000000000000000000000000000000084541617835501518051908782116106b65761059f600184015461221c565b601f811161066c575b5060805190602091601f84116001146105f8575091806001926105e8969594608051926105ed575b505060001982841b9260031b1c191617910155612193565b6104f1565b015190508a806105d0565b600185019052608051602081209291905b601f198516811061065457509260019283926105e897969583601f1981161061063b575b505050811b01910155612193565b015160001960f88460031b161c191690558a808061062d565b91926020600181928685015181550194019201610609565b600184016080515260805160208120601f850160051c8101602086106106af575b601f840160051c820181106106a4575050506105a8565b82815560010161068d565b508061068d565b634e487b7160e01b6080515260416004526024608051fd5b634e487b7160e01b60805152602460805180600452fd5b60046040517fb2deb85b000000000000000000000000000000000000000000000000000000008152fd5b5082846040519180602084016020855252604083019160408260051b850101948093608051915b84831061076b577f9fae90e6a969fc8c825d166f95ab14662bfc328ef3d02819492a2618b3b7cce687890388a1608051604051f35b9091929394967fffffffffffffffffffffffffffffffffffffffffffffffffffffffffffffffc087820301835287357fffffffffffffffffffffffffffffffffffffffffffffffffffffffffffffffc18336030181121561024457820173ffffffffffffffffffffffffffffffffffffffff6107e682611ea2565b16825260208101357fffffffffffffffffffffffffffffffffffffffffffffffffffffffffffffffe1823603018112156102445701602081359101908681116102445780360382136102445761084b602092839260408681866001990152019161206f565b9901930193019194939290610736565b60046040517f521299a9000000000000000000000000000000000000000000000000000000008152fd5b813587811161024457840160408136031261024457604051916108a7836120ba565b6108b082611ea2565b8352602082013592898411610244576108d0602094938594369101612175565b838201528152019101906104dc565b34610244576080518060031936011261046f5763ffffffff6020915460a01c16604051908152f35b3461024457602060031936011261024457610920611e7f565b610928611f81565b610930611f81565b73ffffffffffffffffffffffffffffffffffffffff8116908115610298577f1304018cfe79741dcf02ba6b61d39cc4757d59395d03224d9925c7aa830021469161097b602092612000565b604051908152a1608051604051f35b34610244576080518060031936011261046f5773ffffffffffffffffffffffffffffffffffffffff6020915416604051908152f35b34610244576020806003193601126102445760043567ffffffffffffffff8111610244576109f1903690600401611ec3565b6109f9611f81565b610a04368284612264565b906080515b8251811015610a5a578073ffffffffffffffffffffffffffffffffffffffff610a35610a5593866121b8565b51166080515260078652604060805120600160ff19825416179055612193565b610a09565b6040517f0f1800fbca5c51a50ca47d2d359d89a9872ebc0d41b791582770add9d9d7e7bc90806102398588836122ba565b346102445760031960808136011261024457610aa5611e7f565b9067ffffffffffffffff9060243582811161024457610ac8903690600401611e18565b929091816044351161024457604090604435360301126102445760643590811161024457610afa903690600401611ec3565b90610b03612622565b73ffffffffffffffffffffffffffffffffffffffff610b26604435600401612548565b1680608051526006602052600160ff6040608051205416151503610e12575090610b57918563ffffffff42166126af565b6002548110610de15750610b7963ffffffff6004541663ffffffff4216612569565b906080515491610ba163ffffffff610b96818660c01c1684612569565b9460a01c1682612569565b90610bc0610bb9602460443501604435600401612582565b369161212e565b602081519101209073ffffffffffffffffffffffffffffffffffffffff6003805496610bf0604435600401612548565b9460405198610bfe8a6120d6565b89526020890163ffffffff4216815263ffffffff60408b019616865263ffffffff60608b019316835263ffffffff60808b019816885260a08a019182528460c08b019716875260e08a019560805187526001546080515260086020526080519860408a20948c51865563ffffffff600187019451167fffffffffffffffffffffffffffffffff000000000000000000000000000000006fffffffff0000000000000000000000006bffffffff000000000000000067ffffffff000000008854975160201b16945160401b16945160601b169416171717179055516002820155019251167fffffffffffffffffffffffff000000000000000000000000000000000000000083541617825551916004831015610dcb57507f7f9177c734976b51ba7ef0416cbc16acfd88f3b531a1b775fa539fa216a9157793610d97610da973ffffffffffffffffffffffffffffffffffffffff95610d63610dc09a96610db8966125d3565b60015498610d7b602460443501604435600401612582565b949095604051998a998d8b521660208a01526040890190611ef4565b6101808061014089015287019161206f565b9184830361016086015261206f565b0390a1612193565b600155608051604051f35b634e487b7160e01b905260216004526024608051fd5b602490604051907f3222f9a10000000000000000000000000000000000000000000000000000000082526004820152fd5b602490604051907f3d6ed7710000000000000000000000000000000000000000000000000000000082526004820152fd5b346102445760206003193601126102445760043563ffffffff8082169081830361024457610e6f611f81565b60805154908160c01c16808310610efa577f50b3808988e8880c34e4b58088d8eeeb40410dd2a2238a299db9187644259b05602084847fffffffffffffffff00000000ffffffffffffffffffffffffffffffffffffffff77ffffffff00000000000000000000000000000000000000008960a01b1691161760805155604051908152a1608051604051f35b6040517fc564bfaf00000000000000000000000000000000000000000000000000000000815263ffffffff91821660048201529084166024820152604490fd5b34610244576080518060031936011261046f5750610f56611f81565b8054907fffffffffffffffffffffffff00000000000000000000000000000000000000008216815573ffffffffffffffffffffffffffffffffffffffff60405192167f8be0079c531659141344cd1fd0a4f28419497f9722a3daafe3b4186f6b6457e08284a360805190f35b34610244576080518060031936011261046f5763ffffffff6020915460c01c16604051908152f35b34610244576020806003193601126102445760043567ffffffffffffffff81116102445761101c903690600401611ec3565b611024611f81565b61102f368284612264565b906080515b8251811015611082578073ffffffffffffffffffffffffffffffffffffffff61106061107d93866121b8565b5116608051526006865260406080512060ff198154169055612193565b611034565b6040517f60e61d49c35254b82485ac9580c847fa94b17fafbe5f917e172574639ec21bf690806102398588836122ba565b34610244576020806003193601126102445760043567ffffffffffffffff8111610244576110e5903690600401611ec3565b6110ed611f81565b6110f8368284612264565b906080515b825181101561114b578073ffffffffffffffffffffffffffffffffffffffff61112961114693866121b8565b5116608051526007865260406080512060ff198154169055612193565b6110fd565b6040517f2befc5f117311dbd6cabfd7bc4cec09eeefc83a55c9140bbf298951571f5cb8690806102398588836122ba565b34610244576040600319360112610244576004356024359073ffffffffffffffffffffffffffffffffffffffff82168092036111f85760209260ff928260409360805152600886526111d96111d48560805120612313565b612398565b6080515260098552826080512090825284522054166040519015158152f35b8280fd5b34610244576020600319360112610244576112186004356123d3565b604051600782101561122b576020918152f35b634e487b7160e01b6080515260216004526024608051fd5b34610244576080518060031936011261046f57602063ffffffff60045416604051908152f35b346102445760206003193601126102445760043567ffffffffffffffff81116102445761129a903690600401611ec3565b6112a5929192611f81565b6112ae81612116565b926112bc60405194856120f3565b818452602084018260051b8201903682116102445782905b828210611531575050506080515b845160ff808316918210156114c057611306816112ff848a6121b8565b51166121e2565b507fffffffffffffffffffffffff00000000000000000000000000000000000000008154169055604051916020830183811067ffffffffffffffff8211176114ac5761135f92916112ff916040526080518552896121b8565b5090805167ffffffffffffffff81116106b65761137f600184015461221c565b601f8111611462575b50608051602090601f83116001146113f457508190600193608051926113e9575b505060001982841b9260031b1c1916179101555b60ff8091169081146113d1576001016112e2565b634e487b7160e01b6080515260116004526024608051fd5b0151905089806113a9565b60018501905260805160208120929390601f198516905b81811061144a57509160019492918386959310611431575b505050811b019101556113bd565b015160001960f88460031b161c19169055898080611423565b9293602060018192878601518155019501930161140b565b600184016080515260805160208120601f840160051c8101602085106114a5575b601f840160051c8201811061149a57505050611388565b828155600101611483565b5080611483565b602488634e487b7160e01b81526041600452fd5b838560405190806020830160208452526040820192906080515b81811061150f577f24c5d4b9c170a0ef0634046f1a7a184dd341c99da7242482e42cc2782076cea384860385a1608051604051f35b90919360208060019260ff61152389612256565b1681520195019291016114da565b6020809161153e84612256565b8152019101906112d4565b34610244576080518060031936011261046f576020600154604051908152f35b346102445761157736611e4b565b909180608051526008602052604060805120916115966111d484612313565b600383019384549360ff8560a01c16600481101561122b576117f15763ffffffff9081421660018201549181848460401c16116117c7576115d836878761212e565b6020815191012060028201540361179d57866115f491546124fc565b509490939091156117655750505011156117485773ffffffffffffffffffffffffffffffffffffffff608051945b168060805152600660205260805160ff6040822054161561173f575b813b1561046f57509061169b929160405180809581947ffb4d364c0000000000000000000000000000000000000000000000000000000083526116808a6124e6565b8960048401526040602484015260805196604484019161206f565b0391608051905af180156117325761171d575b506116b8826124e6565b60ff821660fe81116113d15760010160ff1691600483101561122b576117016040937f34a42c4ce0a88d16ad098de6406057747139a2a3dd8dd8616ee7bbabcecb768e956125d3565b825191825261170f816124e6565b6020820152a1608051604051f35b61172690612090565b60805180156116ae5780fd5b6040513d608051823e3d90fd5b6002955061163e565b73ffffffffffffffffffffffffffffffffffffffff600194611622565b60601c161115915061174890505760046040517f409a7f85000000000000000000000000000000000000000000000000000000008152fd5b60046040517f65fcf03a000000000000000000000000000000000000000000000000000000008152fd5b60046040517f42d3f297000000000000000000000000000000000000000000000000000000008152fd5b60046040517f51618d53000000000000000000000000000000000000000000000000000000008152fd5b3461024457608060031936011261024457611834611e7f565b906024356044359260038410156102445760643567ffffffffffffffff811161024457611865903690600401611ec3565b949061186f612622565b836080515260209560088752611889604060805120612313565b9161189383612398565b60e0830151600481101561122b576117f15763ffffffff9485421686608086015116811015611a6a578660408601511611611a40578660805152600989526040608051209573ffffffffffffffffffffffffffffffffffffffff821696878a528a52600160ff60408b205416151514611a165789611913950151166126af565b9182156119ec577f79533ed92b5d1878e96ddacfd073144fd0caae2e033f7fc9770afd6120e02e0795604060809686885152600a835281885120611956866124e6565b8589515283528661196b87848b5120546124f0565b818a5152600a8552838a5120611980886124e6565b878b5152855289519084822055526009835281885120848252835220600160ff19825416179055604051926119b4846120ba565b6119bd816124e6565b8352808301938452604051948552840152516119d8816124e6565b6040830152516060820152a1608051604051f35b60046040517fdf0cf4fb000000000000000000000000000000000000000000000000000000008152fd5b60046040517f1f652102000000000000000000000000000000000000000000000000000000008152fd5b60046040517f688c575a000000000000000000000000000000000000000000000000000000008152fd5b60046040517f6613a282000000000000000000000000000000000000000000000000000000008152fd5b34610244576080518060031936011261046f576020600354604051908152f35b3461024457611ac236611e4b565b9091611acc611f81565b8060805152600860205260406080512091611ae96111d484612313565b600383019283549060ff8260a01c16600481101561122b576117f1576002611b1236858961212e565b602081519101209101540361179d5773ffffffffffffffffffffffffffffffffffffffff1693843b1561024457611b8a9460405180809781947ffb4d364c000000000000000000000000000000000000000000000000000000008352600260048401526040602484015260805196604484019161206f565b0391608051905af1918215611732577f34a42c4ce0a88d16ad098de6406057747139a2a3dd8dd8616ee7bbabcecb768e93604093611c16575b50740300000000000000000000000000000000000000007fffffffffffffffffffffff00ffffffffffffffffffffffffffffffffffffffff825416179055815190815260026020820152a1608051604051f35b611c1f90612090565b84611bc3565b346102445760206003193601126102445760043563ffffffff81168091036102445760207fba76433d63148cc0d7df02d39ab5cddf8737df279d4af4c7bce819a2ef719e9591611c73611f81565b807fffffffffffffffffffffffffffffffffffffffffffffffffffffffff000000006004541617600455604051908152a1608051604051f35b346102445760206003193601126102445760043567ffffffffffffffff811161024457611cfe7f48674fffb03fee00a113cc146f3aa94a9720a4cb3839fbb855c436859d39a977913690600401611e18565b611d06611f81565b61023960405192839260208452602084019161206f565b3461046f57602060031936011261046f5763ffffffff6004358181169283820361046f5750611d4a611f81565b60805154918260a01c16808411611dd9577fa596cfacd06610b4e094472b3f6712f263b9a8af5fbd18924780c678a4fc55e6602085857fffffffff00000000ffffffffffffffffffffffffffffffffffffffffffffffff7bffffffff0000000000000000000000000000000000000000000000008760c01b1691161760805155604051908152a1608051604051f35b6040517fc564bfaf00000000000000000000000000000000000000000000000000000000815263ffffffff928316600482015291166024820152604490fd5b9181601f84011215611e465782359167ffffffffffffffff8311611e465760208381860195010111611e4657565b600080fd5b906040600319830112611e4657600435916024359067ffffffffffffffff8211611e4657611e7b91600401611e18565b9091565b6004359073ffffffffffffffffffffffffffffffffffffffff82168203611e4657565b359073ffffffffffffffffffffffffffffffffffffffff82168203611e4657565b9181601f84011215611e465782359167ffffffffffffffff8311611e46576020808501948460051b010111611e4657565b60e0908051835263ffffffff806020830151166020850152806040830151166040850152806060830151166060850152608082015116608084015260a081015160a084015273ffffffffffffffffffffffffffffffffffffffff60c08201511660c08401520151906004821015611f6b5760e00152565b634e487b7160e01b600052602160045260246000fd5b73ffffffffffffffffffffffffffffffffffffffff600054163303611fa257565b60646040517f08c379a000000000000000000000000000000000000000000000000000000000815260206004820152602060248201527f4f776e61626c653a2063616c6c6572206973206e6f7420746865206f776e65726044820152fd5b6000549073ffffffffffffffffffffffffffffffffffffffff80911691827fffffffffffffffffffffffff0000000000000000000000000000000000000000821617600055167f8be0079c531659141344cd1fd0a4f28419497f9722a3daafe3b4186f6b6457e06000604051a3565b601f8260209493601f19938186528686013760008582860101520116010190565b67ffffffffffffffff81116120a457604052565b634e487b7160e01b600052604160045260246000fd5b6040810190811067ffffffffffffffff8211176120a457604052565b610100810190811067ffffffffffffffff8211176120a457604052565b90601f601f19910116810190811067ffffffffffffffff8211176120a457604052565b67ffffffffffffffff81116120a45760051b60200190565b92919267ffffffffffffffff82116120a457604051916121586020601f19601f84011601846120f3565b829481845281830111611e46578281602093846000960137010152565b9080601f83011215611e46578160206121909335910161212e565b90565b60001981146121a25760010190565b634e487b7160e01b600052601160045260246000fd5b80518210156121cc5760209160051b010190565b634e487b7160e01b600052603260045260246000fd5b6005548110156121cc57600560005260011b7f036b6384b5eca791c62761152d0c79bb0604c104a5fb6f4eb0703f3154bb3db00190600090565b90600182811c9216801561224c575b602083101461223657565b634e487b7160e01b600052602260045260246000fd5b91607f169161222b565b359060ff82168203611e4657565b929161226f82612116565b9161227d60405193846120f3565b829481845260208094019160051b8101928311611e4657905b8282106122a35750505050565b8380916122af84611ea2565b815201910190612296565b90916040602092828482018583525201929160005b8281106122dd575050505090565b90919293828060019273ffffffffffffffffffffffffffffffffffffffff61230489611ea2565b168152019501939291016122cf565b90604051612320816120d6565b60ff6003829480548452600181015463ffffffff908181166020870152818160201c166040870152818160401c16606087015260601c166080850152600281015460a0850152015473ffffffffffffffffffffffffffffffffffffffff811660c084015260a01c16906004821015611f6b5760e00152565b6040015163ffffffff16156123a957565b60046040517fee032808000000000000000000000000000000000000000000000000000000008152fd5b60009080825260086020526123fe6123ed60408420612313565b916123f783612398565b82516124fc565b5050509060e0810192835193600494858110156124d35761246c57505063ffffffff9081604082015116421060001461243a5750505050600390565b608081015182164211156124515750505050600690565b606001511642111561246857156121905750600590565b5090565b9150915051828110156124c05760ff16600181106124ad576000190160ff1691600783101561249a57505090565b906021602492634e487b7160e01b835252fd5b506011602492634e487b7160e01b835252fd5b506021602492634e487b7160e01b835252fd5b602483602188634e487b7160e01b835252fd5b60031115611f6b57565b811981116121a2570190565b6000918252600a6020908152604080842060018552909152808320548380528184205460028552919093205492939092916125408361253b86886124f0565b6124f0565b101593929190565b3573ffffffffffffffffffffffffffffffffffffffff81168103611e465790565b9063ffffffff80809316911680920381116121a2570190565b9035907fffffffffffffffffffffffffffffffffffffffffffffffffffffffffffffffe181360301821215611e46570180359067ffffffffffffffff8211611e4657602001918136038313611e4657565b906004811015611f6b577fffffffffffffffffffffff00ffffffffffffffffffffffffffffffffffffffff74ff000000000000000000000000000000000000000083549260a01b169116179055565b336000526007602052600160ff6040600020541615150361263f57565b60246040517f633854de000000000000000000000000000000000000000000000000000000008152336004820152fd5b91908110156121cc5760051b810135907fffffffffffffffffffffffffffffffffffffffffffffffffffffffffffffffc181360301821215611e46570190565b9290926126bb82612116565b936040926126cb845196876120f3565b8086526005956020929082881b8701848201368211611e465788905b828210612a8f575050508051612988575b5095949392919060009687965b82881061271757505050505050505090565b909192939495969761272a89858a61266f565b3560ff8116809103611e465761273f906121e2565b5087519061274c826120ba565b73ffffffffffffffffffffffffffffffffffffffff9182825416815260018092018a519260009180549061277f8261221c565b91828752868d85831692836000146129655750505060011461292a575b505050826127ab9103836120f3565b87810191825282815116156128fa5787918a848d8f6127db6127e4918f9763ffffffff9a8f91511697519461266f565b87810190612582565b929093519788967f871d81b70000000000000000000000000000000000000000000000000000000088521660048701528a166024860152608060448601528051908160848701526000905b8282106128df5750859360009360a4601f19601f86899761286697116128d3575b0116850160a0868203016064870152019161206f565b03925af19081156128c857600091612899575b506128879061288d926124f0565b98612193565b96959493929190612705565b908682813d83116128c1575b6128af81836120f3565b8101031261046f57505161288d612879565b503d6128a5565b88513d6000823e3d90fd5b8884828a010152612850565b80820188015160a48a840101528d978997509091019061282f565b60248c8b51907fbe04e1dc0000000000000000000000000000000000000000000000000000000082526004820152fd5b9091925060005289600020916000925b8284106129525750505082018801826127ab3861279c565b80548685018d0152928b0192810161293a565b9195509392506127ab955060ff19915016828401521515881b820101913861279c565b959196926000989491985b87516001908181106121a25760001901821015612a80577ffffffffffffffffffffffffffffffffffffffffffffffffffffffffffffffffe82116121a257818101815b6129eb575b50506129e690612193565b612993565b8951811015612a7b5760ff8a81612a108482612a0789866121b8565b515116936121b8565b51511614612a295750612a238291612193565b906129d6565b8981612a466044948e94612a3d89876121b8565b515116946121b8565b5151169051917f5bfc5b2100000000000000000000000000000000000000000000000000000000835260048301526024820152fd5b6129db565b505092969195509296386126f8565b67ffffffffffffffff908235828111611e46578b01908a82360312611e46578a51612ab9816120ba565b612ac283612256565b815289830135938411611e4657612adf8a94938594369101612175565b838201528152019101906126e756fea164736f6c634300080f000aa164736f6c634300080f000a",
    "linkReferences": {}
  },
  "methodIdentifiers": {
    "createSpace(address,uint32,uint32,uint32,uint256,uint256,(address,bytes)[],address[],address[],bytes32)": "93fa9af5",
    "getSpaceAddress(address,uint32,uint32,uint32,uint256,uint256,(address,bytes)[],address[],address[],bytes32)": "fbaecef7"
  },
  "id": 30
}