{
  "abi": [
    {
      "inputs": [],
      "name": "ArrayLengthMismatch",
      "type": "error"
    },
    {
      "inputs": [],
      "name": "AuthenticatorNotWhitelisted",
      "type": "error"
    },
    {
      "inputs": [
        {
          "internalType": "uint8",
          "name": "index",
          "type": "uint8"
        }
      ],
      "name": "DuplicateFound",
      "type": "error"
    },
    {
      "inputs": [],
      "name": "EmptyArray",
      "type": "error"
    },
    {
      "inputs": [],
      "name": "ExceedsStrategyLimit",
      "type": "error"
    },
    {
      "inputs": [],
      "name": "FailedToPassProposalValidation",
      "type": "error"
    },
    {
      "inputs": [],
      "name": "InvalidCaller",
      "type": "error"
    },
    {
      "inputs": [
        {
          "internalType": "uint32",
          "name": "minVotingDuration",
          "type": "uint32"
        },
        {
          "internalType": "uint32",
          "name": "maxVotingDuration",
          "type": "uint32"
        }
      ],
      "name": "InvalidDuration",
      "type": "error"
    },
    {
      "inputs": [],
      "name": "InvalidPayload",
      "type": "error"
    },
    {
      "inputs": [],
      "name": "InvalidProposal",
      "type": "error"
    },
    {
      "inputs": [
        {
          "internalType": "uint256",
          "name": "index",
          "type": "uint256"
        }
      ],
      "name": "InvalidStrategyIndex",
      "type": "error"
    },
    {
      "inputs": [],
      "name": "NoActiveVotingStrategies",
      "type": "error"
    },
    {
      "inputs": [],
      "name": "ProposalFinalized",
      "type": "error"
    },
    {
      "inputs": [],
      "name": "UserAlreadyVoted",
      "type": "error"
    },
    {
      "inputs": [],
      "name": "UserHasNoVotingPower",
      "type": "error"
    },
    {
      "inputs": [],
      "name": "VotingDelayHasPassed",
      "type": "error"
    },
    {
      "inputs": [],
      "name": "VotingPeriodHasEnded",
      "type": "error"
    },
    {
      "inputs": [],
      "name": "VotingPeriodHasNotStarted",
      "type": "error"
    },
    {
      "inputs": [],
      "name": "ZeroAddress",
      "type": "error"
    },
    {
      "anonymous": false,
      "inputs": [
        {
          "indexed": false,
          "internalType": "address",
          "name": "previousAdmin",
          "type": "address"
        },
        {
          "indexed": false,
          "internalType": "address",
          "name": "newAdmin",
          "type": "address"
        }
      ],
      "name": "AdminChanged",
      "type": "event"
    },
    {
      "anonymous": false,
      "inputs": [
        {
          "indexed": false,
          "internalType": "address[]",
          "name": "newAuthenticators",
          "type": "address[]"
        }
      ],
      "name": "AuthenticatorsAdded",
      "type": "event"
    },
    {
      "anonymous": false,
      "inputs": [
        {
          "indexed": false,
          "internalType": "address[]",
          "name": "authenticators",
          "type": "address[]"
        }
      ],
      "name": "AuthenticatorsRemoved",
      "type": "event"
    },
    {
      "anonymous": false,
      "inputs": [
        {
          "indexed": true,
          "internalType": "address",
          "name": "beacon",
          "type": "address"
        }
      ],
      "name": "BeaconUpgraded",
      "type": "event"
    },
    {
      "anonymous": false,
      "inputs": [
        {
          "indexed": false,
          "internalType": "string",
          "name": "newDaoURI",
          "type": "string"
        }
      ],
      "name": "DaoURIUpdated",
      "type": "event"
    },
    {
      "anonymous": false,
      "inputs": [
        {
          "indexed": false,
          "internalType": "uint8",
          "name": "version",
          "type": "uint8"
        }
      ],
      "name": "Initialized",
      "type": "event"
    },
    {
      "anonymous": false,
      "inputs": [
        {
          "indexed": false,
          "internalType": "uint32",
          "name": "newMaxVotingDuration",
          "type": "uint32"
        }
      ],
      "name": "MaxVotingDurationUpdated",
      "type": "event"
    },
    {
      "anonymous": false,
      "inputs": [
        {
          "indexed": false,
          "internalType": "string",
          "name": "newMetadataURI",
          "type": "string"
        }
      ],
      "name": "MetadataURIUpdated",
      "type": "event"
    },
    {
      "anonymous": false,
      "inputs": [
        {
          "indexed": false,
          "internalType": "uint32",
          "name": "newMinVotingDuration",
          "type": "uint32"
        }
      ],
      "name": "MinVotingDurationUpdated",
      "type": "event"
    },
    {
      "anonymous": false,
      "inputs": [
        {
          "indexed": true,
          "internalType": "address",
          "name": "previousOwner",
          "type": "address"
        },
        {
          "indexed": true,
          "internalType": "address",
          "name": "newOwner",
          "type": "address"
        }
      ],
      "name": "OwnershipTransferred",
      "type": "event"
    },
    {
      "anonymous": false,
      "inputs": [
        {
          "indexed": false,
          "internalType": "uint256",
          "name": "proposalId",
          "type": "uint256"
        }
      ],
      "name": "ProposalCancelled",
      "type": "event"
    },
    {
      "anonymous": false,
      "inputs": [
        {
          "indexed": false,
          "internalType": "uint256",
          "name": "proposalId",
          "type": "uint256"
        },
        {
          "indexed": false,
          "internalType": "address",
          "name": "author",
          "type": "address"
        },
        {
          "components": [
            {
              "internalType": "address",
              "name": "author",
              "type": "address"
            },
            {
              "internalType": "uint32",
              "name": "startBlockNumber",
              "type": "uint32"
            },
            {
              "internalType": "contract IExecutionStrategy",
              "name": "executionStrategy",
              "type": "address"
            },
            {
              "internalType": "uint32",
              "name": "minEndBlockNumber",
              "type": "uint32"
            },
            {
              "internalType": "uint32",
              "name": "maxEndBlockNumber",
              "type": "uint32"
            },
            {
              "internalType": "enum FinalizationStatus",
              "name": "finalizationStatus",
              "type": "uint8"
            },
            {
              "internalType": "bytes32",
              "name": "executionPayloadHash",
              "type": "bytes32"
            },
            {
              "internalType": "uint256",
              "name": "activeVotingStrategies",
              "type": "uint256"
            }
          ],
          "indexed": false,
          "internalType": "struct Proposal",
          "name": "proposal",
          "type": "tuple"
        },
        {
          "indexed": false,
          "internalType": "string",
          "name": "metadataUri",
          "type": "string"
        },
        {
          "indexed": false,
          "internalType": "bytes",
          "name": "payload",
          "type": "bytes"
        }
      ],
      "name": "ProposalCreated",
      "type": "event"
    },
    {
      "anonymous": false,
      "inputs": [
        {
          "indexed": false,
          "internalType": "uint256",
          "name": "proposalId",
          "type": "uint256"
        }
      ],
      "name": "ProposalExecuted",
      "type": "event"
    },
    {
      "anonymous": false,
      "inputs": [
        {
          "indexed": false,
          "internalType": "uint256",
          "name": "proposalId",
          "type": "uint256"
        },
        {
          "components": [
            {
              "internalType": "address",
              "name": "addr",
              "type": "address"
            },
            {
              "internalType": "bytes",
              "name": "params",
              "type": "bytes"
            }
          ],
          "indexed": false,
          "internalType": "struct Strategy",
          "name": "newExecutionStrategy",
          "type": "tuple"
        },
        {
          "indexed": false,
          "internalType": "string",
          "name": "newMetadataURI",
          "type": "string"
        }
      ],
      "name": "ProposalUpdated",
      "type": "event"
    },
    {
      "anonymous": false,
      "inputs": [
        {
          "components": [
            {
              "internalType": "address",
              "name": "addr",
              "type": "address"
            },
            {
              "internalType": "bytes",
              "name": "params",
              "type": "bytes"
            }
          ],
          "indexed": false,
          "internalType": "struct Strategy",
          "name": "newProposalValidationStrategy",
          "type": "tuple"
        },
        {
          "indexed": false,
          "internalType": "string",
          "name": "newProposalValidationStrategyMetadataURI",
          "type": "string"
        }
      ],
      "name": "ProposalValidationStrategyUpdated",
      "type": "event"
    },
    {
      "anonymous": false,
      "inputs": [
        {
          "indexed": false,
          "internalType": "address",
          "name": "space",
          "type": "address"
        },
        {
          "components": [
            {
              "internalType": "address",
              "name": "owner",
              "type": "address"
            },
            {
              "internalType": "uint32",
              "name": "votingDelay",
              "type": "uint32"
            },
            {
              "internalType": "uint32",
              "name": "minVotingDuration",
              "type": "uint32"
            },
            {
              "internalType": "uint32",
              "name": "maxVotingDuration",
              "type": "uint32"
            },
            {
              "components": [
                {
                  "internalType": "address",
                  "name": "addr",
                  "type": "address"
                },
                {
                  "internalType": "bytes",
                  "name": "params",
                  "type": "bytes"
                }
              ],
              "internalType": "struct Strategy",
              "name": "proposalValidationStrategy",
              "type": "tuple"
            },
            {
              "internalType": "string",
              "name": "proposalValidationStrategyMetadataURI",
              "type": "string"
            },
            {
              "internalType": "string",
              "name": "daoURI",
              "type": "string"
            },
            {
              "internalType": "string",
              "name": "metadataURI",
              "type": "string"
            },
            {
              "components": [
                {
                  "internalType": "address",
                  "name": "addr",
                  "type": "address"
                },
                {
                  "internalType": "bytes",
                  "name": "params",
                  "type": "bytes"
                }
              ],
              "internalType": "struct Strategy[]",
              "name": "votingStrategies",
              "type": "tuple[]"
            },
            {
              "internalType": "string[]",
              "name": "votingStrategyMetadataURIs",
              "type": "string[]"
            },
            {
              "internalType": "address[]",
              "name": "authenticators",
              "type": "address[]"
            }
          ],
          "indexed": false,
          "internalType": "struct InitializeCalldata",
          "name": "input",
          "type": "tuple"
        }
      ],
      "name": "SpaceCreated",
      "type": "event"
    },
    {
      "anonymous": false,
      "inputs": [
        {
          "indexed": true,
          "internalType": "address",
          "name": "implementation",
          "type": "address"
        }
      ],
      "name": "Upgraded",
      "type": "event"
    },
    {
      "anonymous": false,
      "inputs": [
        {
          "indexed": false,
          "internalType": "uint256",
          "name": "proposalId",
          "type": "uint256"
        },
        {
          "indexed": false,
          "internalType": "address",
          "name": "voter",
          "type": "address"
        },
        {
          "indexed": false,
          "internalType": "enum Choice",
          "name": "choice",
          "type": "uint8"
        },
        {
          "indexed": false,
          "internalType": "uint256",
          "name": "votingPower",
          "type": "uint256"
        }
      ],
      "name": "VoteCast",
      "type": "event"
    },
    {
      "anonymous": false,
      "inputs": [
        {
          "indexed": false,
          "internalType": "uint256",
          "name": "proposalId",
          "type": "uint256"
        },
        {
          "indexed": false,
          "internalType": "address",
          "name": "voter",
          "type": "address"
        },
        {
          "indexed": false,
          "internalType": "enum Choice",
          "name": "choice",
          "type": "uint8"
        },
        {
          "indexed": false,
          "internalType": "uint256",
          "name": "votingPower",
          "type": "uint256"
        },
        {
          "indexed": false,
          "internalType": "string",
          "name": "metadataUri",
          "type": "string"
        }
      ],
      "name": "VoteCastWithMetadata",
      "type": "event"
    },
    {
      "anonymous": false,
      "inputs": [
        {
          "indexed": false,
          "internalType": "uint32",
          "name": "newVotingDelay",
          "type": "uint32"
        }
      ],
      "name": "VotingDelayUpdated",
      "type": "event"
    },
    {
      "anonymous": false,
      "inputs": [
        {
          "components": [
            {
              "internalType": "address",
              "name": "addr",
              "type": "address"
            },
            {
              "internalType": "bytes",
              "name": "params",
              "type": "bytes"
            }
          ],
          "indexed": false,
          "internalType": "struct Strategy[]",
          "name": "newVotingStrategies",
          "type": "tuple[]"
        },
        {
          "indexed": false,
          "internalType": "string[]",
          "name": "newVotingStrategyMetadataURIs",
          "type": "string[]"
        }
      ],
      "name": "VotingStrategiesAdded",
      "type": "event"
    },
    {
      "anonymous": false,
      "inputs": [
        {
          "indexed": false,
          "internalType": "uint8[]",
          "name": "votingStrategyIndices",
          "type": "uint8[]"
        }
      ],
      "name": "VotingStrategiesRemoved",
      "type": "event"
    },
    {
      "inputs": [],
      "name": "activeVotingStrategies",
      "outputs": [
        {
          "internalType": "uint256",
          "name": "",
          "type": "uint256"
        }
      ],
      "stateMutability": "view",
      "type": "function"
    },
    {
      "inputs": [
        {
          "internalType": "address",
          "name": "auth",
          "type": "address"
        }
      ],
      "name": "authenticators",
      "outputs": [
        {
          "internalType": "uint256",
          "name": "allowed",
          "type": "uint256"
        }
      ],
      "stateMutability": "view",
      "type": "function"
    },
    {
      "inputs": [
        {
          "internalType": "uint256",
          "name": "proposalId",
          "type": "uint256"
        }
      ],
      "name": "cancel",
      "outputs": [],
      "stateMutability": "nonpayable",
      "type": "function"
    },
    {
      "inputs": [],
      "name": "daoURI",
      "outputs": [
        {
          "internalType": "string",
          "name": "",
          "type": "string"
        }
      ],
      "stateMutability": "view",
      "type": "function"
    },
    {
      "inputs": [
        {
          "internalType": "uint256",
          "name": "proposalId",
          "type": "uint256"
        },
        {
          "internalType": "bytes",
          "name": "executionPayload",
          "type": "bytes"
        }
      ],
      "name": "execute",
      "outputs": [],
      "stateMutability": "nonpayable",
      "type": "function"
    },
    {
      "inputs": [
        {
          "internalType": "uint256",
          "name": "proposalId",
          "type": "uint256"
        }
      ],
      "name": "getProposalStatus",
      "outputs": [
        {
          "internalType": "enum ProposalStatus",
          "name": "",
          "type": "uint8"
        }
      ],
      "stateMutability": "view",
      "type": "function"
    },
    {
      "inputs": [
        {
          "components": [
            {
              "internalType": "address",
              "name": "owner",
              "type": "address"
            },
            {
              "internalType": "uint32",
              "name": "votingDelay",
              "type": "uint32"
            },
            {
              "internalType": "uint32",
              "name": "minVotingDuration",
              "type": "uint32"
            },
            {
              "internalType": "uint32",
              "name": "maxVotingDuration",
              "type": "uint32"
            },
            {
              "components": [
                {
                  "internalType": "address",
                  "name": "addr",
                  "type": "address"
                },
                {
                  "internalType": "bytes",
                  "name": "params",
                  "type": "bytes"
                }
              ],
              "internalType": "struct Strategy",
              "name": "proposalValidationStrategy",
              "type": "tuple"
            },
            {
              "internalType": "string",
              "name": "proposalValidationStrategyMetadataURI",
              "type": "string"
            },
            {
              "internalType": "string",
              "name": "daoURI",
              "type": "string"
            },
            {
              "internalType": "string",
              "name": "metadataURI",
              "type": "string"
            },
            {
              "components": [
                {
                  "internalType": "address",
                  "name": "addr",
                  "type": "address"
                },
                {
                  "internalType": "bytes",
                  "name": "params",
                  "type": "bytes"
                }
              ],
              "internalType": "struct Strategy[]",
              "name": "votingStrategies",
              "type": "tuple[]"
            },
            {
              "internalType": "string[]",
              "name": "votingStrategyMetadataURIs",
              "type": "string[]"
            },
            {
              "internalType": "address[]",
              "name": "authenticators",
              "type": "address[]"
            }
          ],
          "internalType": "struct InitializeCalldata",
          "name": "input",
          "type": "tuple"
        }
      ],
      "name": "initialize",
      "outputs": [],
      "stateMutability": "nonpayable",
      "type": "function"
    },
    {
      "inputs": [],
      "name": "maxVotingDuration",
      "outputs": [
        {
          "internalType": "uint32",
          "name": "",
          "type": "uint32"
        }
      ],
      "stateMutability": "view",
      "type": "function"
    },
    {
      "inputs": [],
      "name": "minVotingDuration",
      "outputs": [
        {
          "internalType": "uint32",
          "name": "",
          "type": "uint32"
        }
      ],
      "stateMutability": "view",
      "type": "function"
    },
    {
      "inputs": [],
      "name": "nextProposalId",
      "outputs": [
        {
          "internalType": "uint256",
          "name": "",
          "type": "uint256"
        }
      ],
      "stateMutability": "view",
      "type": "function"
    },
    {
      "inputs": [],
      "name": "nextVotingStrategyIndex",
      "outputs": [
        {
          "internalType": "uint8",
          "name": "",
          "type": "uint8"
        }
      ],
      "stateMutability": "view",
      "type": "function"
    },
    {
      "inputs": [],
      "name": "owner",
      "outputs": [
        {
          "internalType": "address",
          "name": "",
          "type": "address"
        }
      ],
      "stateMutability": "view",
      "type": "function"
    },
    {
      "inputs": [],
      "name": "proposalValidationStrategy",
      "outputs": [
        {
          "internalType": "address",
          "name": "addr",
          "type": "address"
        },
        {
          "internalType": "bytes",
          "name": "params",
          "type": "bytes"
        }
      ],
      "stateMutability": "view",
      "type": "function"
    },
    {
      "inputs": [
        {
          "internalType": "uint256",
          "name": "proposalId",
          "type": "uint256"
        }
      ],
      "name": "proposals",
      "outputs": [
        {
          "internalType": "address",
          "name": "author",
          "type": "address"
        },
        {
          "internalType": "uint32",
          "name": "startBlockNumber",
          "type": "uint32"
        },
        {
          "internalType": "contract IExecutionStrategy",
          "name": "executionStrategy",
          "type": "address"
        },
        {
          "internalType": "uint32",
          "name": "minEndBlockNumber",
          "type": "uint32"
        },
        {
          "internalType": "uint32",
          "name": "maxEndBlockNumber",
          "type": "uint32"
        },
        {
          "internalType": "enum FinalizationStatus",
          "name": "finalizationStatus",
          "type": "uint8"
        },
        {
          "internalType": "bytes32",
          "name": "executionPayloadHash",
          "type": "bytes32"
        },
        {
          "internalType": "uint256",
          "name": "activeVotingStrategies",
          "type": "uint256"
        }
      ],
      "stateMutability": "view",
      "type": "function"
    },
    {
      "inputs": [
        {
          "internalType": "address",
          "name": "author",
          "type": "address"
        },
        {
          "internalType": "string",
          "name": "metadataURI",
          "type": "string"
        },
        {
          "components": [
            {
              "internalType": "address",
              "name": "addr",
              "type": "address"
            },
            {
              "internalType": "bytes",
              "name": "params",
              "type": "bytes"
            }
          ],
          "internalType": "struct Strategy",
          "name": "executionStrategy",
          "type": "tuple"
        },
        {
          "internalType": "bytes",
          "name": "userProposalValidationParams",
          "type": "bytes"
        }
      ],
      "name": "propose",
      "outputs": [],
      "stateMutability": "nonpayable",
      "type": "function"
    },
    {
      "inputs": [],
      "name": "proxiableUUID",
      "outputs": [
        {
          "internalType": "bytes32",
          "name": "",
          "type": "bytes32"
        }
      ],
      "stateMutability": "view",
      "type": "function"
    },
    {
      "inputs": [],
      "name": "renounceOwnership",
      "outputs": [],
      "stateMutability": "nonpayable",
      "type": "function"
    },
    {
      "inputs": [
        {
          "internalType": "address",
          "name": "newOwner",
          "type": "address"
        }
      ],
      "name": "transferOwnership",
      "outputs": [],
      "stateMutability": "nonpayable",
      "type": "function"
    },
    {
      "inputs": [
        {
          "internalType": "address",
          "name": "author",
          "type": "address"
        },
        {
          "internalType": "uint256",
          "name": "proposalId",
          "type": "uint256"
        },
        {
          "components": [
            {
              "internalType": "address",
              "name": "addr",
              "type": "address"
            },
            {
              "internalType": "bytes",
              "name": "params",
              "type": "bytes"
            }
          ],
          "internalType": "struct Strategy",
          "name": "executionStrategy",
          "type": "tuple"
        },
        {
          "internalType": "string",
          "name": "metadataURI",
          "type": "string"
        }
      ],
      "name": "updateProposal",
      "outputs": [],
      "stateMutability": "nonpayable",
      "type": "function"
    },
    {
      "inputs": [
        {
          "components": [
            {
              "internalType": "uint32",
              "name": "minVotingDuration",
              "type": "uint32"
            },
            {
              "internalType": "uint32",
              "name": "maxVotingDuration",
              "type": "uint32"
            },
            {
              "internalType": "uint32",
              "name": "votingDelay",
              "type": "uint32"
            },
            {
              "internalType": "string",
              "name": "metadataURI",
              "type": "string"
            },
            {
              "internalType": "string",
              "name": "daoURI",
              "type": "string"
            },
            {
              "components": [
                {
                  "internalType": "address",
                  "name": "addr",
                  "type": "address"
                },
                {
                  "internalType": "bytes",
                  "name": "params",
                  "type": "bytes"
                }
              ],
              "internalType": "struct Strategy",
              "name": "proposalValidationStrategy",
              "type": "tuple"
            },
            {
              "internalType": "string",
              "name": "proposalValidationStrategyMetadataURI",
              "type": "string"
            },
            {
              "internalType": "address[]",
              "name": "authenticatorsToAdd",
              "type": "address[]"
            },
            {
              "internalType": "address[]",
              "name": "authenticatorsToRemove",
              "type": "address[]"
            },
            {
              "components": [
                {
                  "internalType": "address",
                  "name": "addr",
                  "type": "address"
                },
                {
                  "internalType": "bytes",
                  "name": "params",
                  "type": "bytes"
                }
              ],
              "internalType": "struct Strategy[]",
              "name": "votingStrategiesToAdd",
              "type": "tuple[]"
            },
            {
              "internalType": "string[]",
              "name": "votingStrategyMetadataURIsToAdd",
              "type": "string[]"
            },
            {
              "internalType": "uint8[]",
              "name": "votingStrategiesToRemove",
              "type": "uint8[]"
            }
          ],
          "internalType": "struct UpdateSettingsCalldata",
          "name": "input",
          "type": "tuple"
        }
      ],
      "name": "updateSettings",
      "outputs": [],
      "stateMutability": "nonpayable",
      "type": "function"
    },
    {
      "inputs": [
        {
          "internalType": "address",
          "name": "newImplementation",
          "type": "address"
        }
      ],
      "name": "upgradeTo",
      "outputs": [],
      "stateMutability": "nonpayable",
      "type": "function"
    },
    {
      "inputs": [
        {
          "internalType": "address",
          "name": "newImplementation",
          "type": "address"
        },
        {
          "internalType": "bytes",
          "name": "data",
          "type": "bytes"
        }
      ],
      "name": "upgradeToAndCall",
      "outputs": [],
      "stateMutability": "payable",
      "type": "function"
    },
    {
      "inputs": [
        {
          "internalType": "address",
          "name": "voter",
          "type": "address"
        },
        {
          "internalType": "uint256",
          "name": "proposalId",
          "type": "uint256"
        },
        {
          "internalType": "enum Choice",
          "name": "choice",
          "type": "uint8"
        },
        {
          "components": [
            {
              "internalType": "uint8",
              "name": "index",
              "type": "uint8"
            },
            {
              "internalType": "bytes",
              "name": "params",
              "type": "bytes"
            }
          ],
          "internalType": "struct IndexedStrategy[]",
          "name": "userVotingStrategies",
          "type": "tuple[]"
        },
        {
          "internalType": "string",
          "name": "metadataURI",
          "type": "string"
        }
      ],
      "name": "vote",
      "outputs": [],
      "stateMutability": "nonpayable",
      "type": "function"
    },
    {
      "inputs": [
        {
          "internalType": "uint256",
          "name": "proposalId",
          "type": "uint256"
        },
        {
          "internalType": "enum Choice",
          "name": "choice",
          "type": "uint8"
        }
      ],
      "name": "votePower",
      "outputs": [
        {
          "internalType": "uint256",
          "name": "votePower",
          "type": "uint256"
        }
      ],
      "stateMutability": "view",
      "type": "function"
    },
    {
      "inputs": [
        {
          "internalType": "uint256",
          "name": "proposalId",
          "type": "uint256"
        },
        {
          "internalType": "address",
          "name": "voter",
          "type": "address"
        }
      ],
      "name": "voteRegistry",
      "outputs": [
        {
          "internalType": "uint256",
          "name": "hasVoted",
          "type": "uint256"
        }
      ],
      "stateMutability": "view",
      "type": "function"
    },
    {
      "inputs": [],
      "name": "votingDelay",
      "outputs": [
        {
          "internalType": "uint32",
          "name": "",
          "type": "uint32"
        }
      ],
      "stateMutability": "view",
      "type": "function"
    },
    {
      "inputs": [
        {
          "internalType": "uint8",
          "name": "strategyIndex",
          "type": "uint8"
        }
      ],
      "name": "votingStrategies",
      "outputs": [
        {
          "internalType": "address",
          "name": "addr",
          "type": "address"
        },
        {
          "internalType": "bytes",
          "name": "params",
          "type": "bytes"
        }
      ],
      "stateMutability": "view",
      "type": "function"
    }
  ],
  "bytecode": {
    "object": "0x60a080604052346100365730608052600160c955614166908161003c823960805181818161227e01528181612398015261297a0152f35b600080fdfe608080604052600436101561001357600080fd5b600090813560e01c908163013cf08b14612e9e575080630533710414612e7d5780630b51557014612cb95780632ab09d1414612c9b5780633659cfe6146129465780633932abb114612922578063401853b7146127b257806340e58ee5146126f05780634f1ef2861461233857806352d1902d1461225657806359efcb1514611f8b57806361ae297814611f2b5780636df7bab314611f055780637034731b14611e23578063715018a614611da2578063791eb85414611d5d578063792cb5a314611d045780638da5cb5b14611cd05780639d49257c14611cac578063a44c31d514611c8e578063aad83f3b14611752578063ab1d89a714611659578063bc7e56f0146110b8578063d830616c146107d4578063de7c3c441461078c578063f2fde38b146107425763f8b669d61461014a57600080fd5b3461073f57600319602081360112610737576004359067ffffffffffffffff821161073b576101609082360301126107375781549060ff8260081c16159182809361072a575b8015610713575b156106a95782600160ff19831617855561067b575b5061010481016101bf81836004016134e3565b905015610651576101d76101448301836004016134e3565b905015610651576101eb81836004016134e3565b90506101fe6101248401846004016134e3565b919050036106275761021f60ff855460081c1661021a8161378c565b61378c565b61022833613282565b61023482600401613537565b9161023d61321d565b73ffffffffffffffffffffffffffffffffffffffff92838116156105bd5761026490613282565b60c481016102758160048401613558565b61027e91613c56565b6064820161028b816135a9565b610294906139dc565b604483016102a1816135a9565b6102aa90613a5f565b60848401916102bc83600487016135ba565b6102c590613ac3565b602485016102d2816135a9565b6103079063ffffffff167fffffffffffffffffffffffffffffffffffffffffffffffffffffffff0000000060cd54161760cd55565b61031487600488016134e3565b61031d91613dd9565b61032e6101448701600488016134e3565b61033791614042565b600160cc556040519730895260208901604090528660040161035890612f99565b16604089015263ffffffff928361036f81936135ed565b1660608a015261037e906135ed565b16608088015261038d906135ed565b1660a08601526103a090600484016135fe565b60c0850161016090526101a085016103b7916136a1565b6103c760a4840160048501613630565b603f198784030160e08801526103dd9291613680565b906103eb9060048401613630565b603f19868403016101008701526104029291613680565b61041260e4830160048401613630565b603f19868403016101208701526104299291613680565b9161043790600483016136e6565b848403603f190161014086015280845260208401938160051b8101602001948389925b848410610586575050505050506104786101248201826004016136e6565b603f1985850301610160860152808452602084019360208260051b820101948389925b84841061054e578a8a7f2bac6eaeab23b0b745bf82b395e2235102c0c43fa59a99e32f0d795aae9093608b806104f08d6104dd8e6101448101906004016136e6565b90603f1985840301610180860152613739565b0390a16104fa5780f35b7fffffffffffffffffffffffffffffffffffffffffffffffffffffffffffff00ff81541681557f7f26b83ff96e1f2b6a682f133852f6798a09c465da95921460cefb3847402498602060405160018152a180f35b90919293949660208061057683601f1986600196030188526105708c88613630565b90613680565b990194019401929493919061049b565b9091929394966020806105ad83601f1986600196030188526105a88c886135fe565b6136a1565b990194019401929493919061045a565b608460405162461bcd60e51b815260206004820152602660248201527f4f776e61626c653a206e6577206f776e657220697320746865207a65726f206160448201527f64647265737300000000000000000000000000000000000000000000000000006064820152fd5b60046040517fa24a13a6000000000000000000000000000000000000000000000000000000008152fd5b60046040517f521299a9000000000000000000000000000000000000000000000000000000008152fd5b7fffffffffffffffffffffffffffffffffffffffffffffffffffffffffffff000016610101178355386101ac565b608460405162461bcd60e51b815260206004820152602e60248201527f496e697469616c697a61626c653a20636f6e747261637420697320616c72656160448201527f647920696e697469616c697a65640000000000000000000000000000000000006064820152fd5b50303b1580156101975750600160ff821614610197565b50600160ff821610610190565b5080fd5b8280fd5b80fd5b503461073f57602060031936011261073f5761075c612f76565b61076461321d565b73ffffffffffffffffffffffffffffffffffffffff8116156105bd5761078990613282565b80f35b503461073f57604060031936011261073f57602435600381101561073757602091604091600435825260d58452828220906107c681612f3d565b825283522054604051908152f35b503461073f576020906003199180833601126107375760043567ffffffffffffffff811161073b576101808160040194823603011261073b5761081561321d565b61081e846135a9565b63ffffffff90818061082e6137fd565b169116141580611097575b15610fc057610847856135a9565b60248301908280610857846135a9565b16911611610f6b578361090a7f50b3808988e8880c34e4b58088d8eeeb40410dd2a2238a299db9187644259b059261088e896135a9565b60cb547fa596cfacd06610b4e094472b3f6712f263b9a8af5fbd18924780c678a4fc55e6856108bc8d6135a9565b8960405191168152a17fffffffffffffffffffffffffffffffffffffffffffffffff000000000000000067ffffffff00000000886108f9866135a9565b1693871b169116171760cb556135a9565b8360405191168152a15b826044830191610923836135a9565b818061092d6137fd565b16911603610ef4575b505050606481016109478186613558565b610969856040518381948383019687378101898382015203808452018261303d565b51902061097461383e565b03610eab575b50608481016109898186613558565b6109ab856040518381948383019687378101898382015203808452018261303d565b5190206109b661383e565b03610e4f575b5060a481016109d36109ce82876135ba565b613537565b90604051848101907f4e6f207570646174650000000000000000000000000000000000000000000000825260098152610a0b81613021565b5190209173ffffffffffffffffffffffffffffffffffffffff809360601c911603610dd5575b5060e48201610a4081876134e3565b9050610d7f575b50610104820190610a5882876134e3565b9050610cf1575b50506101248101610a7081866134e3565b9050610b99575b506101640190610a8782856134e3565b9050610a91578280f35b610a9b82856134e3565b929091845b60ff80821686811015610add5790610ad89291600160ce92610acd610ac88554948c8c614024565b614034565b161b19169055613dc8565b610aa0565b505050949250905060ce5415610b6f57610af6916134e3565b9092604051918082840183855252604083019491845b828110610b455750505050807f24c5d4b9c170a0ef0634046f1a7a184dd341c99da7242482e42cc2782076cea392930390a18038808280f35b9091929586359060ff8216809203610b6a579081528201958201929190600101610b0c565b600080fd5b60046040517fe1757fd5000000000000000000000000000000000000000000000000000000008152fd5b610ba381866134e3565b61014484019150610bb482886134e3565b9190500361062757610bdc82610bd6610bd0610be5958a6134e3565b90613dd9565b876134e3565b929091876134e3565b6040519380604086016040875252606085019060608160051b8701019480928a915b8a848410610ca0575050505050508383038685015280835285830192868260051b820101938389925b89858510610c7057505050505050508161016493927fb25fe8e833c47cb186483982b4f2f778aa2f38c644be53123589397650b703e9920390a190610a77565b80610c9089601f19856001969798999a9b9c030188526105708b88613630565b9801940194019294939190610c30565b80610cdf8a7fffffffffffffffffffffffffffffffffffffffffffffffffffffffffffffffa08d6001969798999a9b9c9d030187526105a88a876135fe565b99989701959491909101920190610c07565b610cfb82876134e3565b869291925b818110610d555750505050610d367f2befc5f117311dbd6cabfd7bc4cec09eeefc83a55c9140bbf298951571f5cb8691866134e3565b610d4b60405192839287845287840191613739565b0390a13880610a5f565b8083610d686109ce610d7a948689614024565b16895260d388528860408120556139c0565b610d00565b610db781610bd6610db17f0f1800fbca5c51a50ca47d2d359d89a9872ebc0d41b791582770add9d9d7e7bc948a6134e3565b90614042565b610dcc60405192839288845288840191613739565b0390a138610a47565b610e39610e1582610e0f610e0a7f94882eaeb9096621809ce0a70444da5f387f4763a9b4e0e5918d73997b428984958b6135ba565b613ac3565b886135ba565b610e46610e2560c487018a613558565b6040519485946040865260408601906136a1565b918483038a860152613680565b0390a138610a31565b610e8d81610e87610e817fa22a853196a129f951085238393763195d8916dc54e3234dc400d7489da4a53b9489613558565b90613c56565b86613558565b610ea260405192839287845287840191613680565b0390a1386109bc565b610ed67fefafb90526da1636e1335eac0151301742fb755d986954c613b90e891778ba399186613558565b610eeb60405192839287845287840191613680565b0390a13861097a565b610f5b83610f56610f257fbc6c72d7791c961f1d6512e4f3262d03f19dd0571eef8f5ec54a5acdf2977013966135a9565b63ffffffff167fffffffffffffffffffffffffffffffffffffffffffffffffffffffff0000000060cd54161760cd55565b6135a9565b60405191168152a1388281610936565b610f7d610f77876135a9565b916135a9565b6040517fc564bfaf00000000000000000000000000000000000000000000000000000000815263ffffffff928316600482015291166024820152604490fd5b0390fd5b610fc9856135a9565b8180610fd36137fd565b169116141560001461102957610ff0610feb866135a9565b613a5f565b7fa596cfacd06610b4e094472b3f6712f263b9a8af5fbd18924780c678a4fc55e68361101b876135a9565b8360405191168152a1610914565b6024820183611037826135a9565b83806110416137fd565b16911603611051575b5050610914565b61108782610f566110827f50b3808988e8880c34e4b58088d8eeeb40410dd2a2238a299db9187644259b05956135a9565b6139dc565b8360405191168152a1388361104a565b506110a4602483016135a9565b81806110ae6137fd565b1691161415610839565b503461073f5760a060031936011261073f576110d2612f76565b600360443510156107375767ffffffffffffffff60643511610737573660236064350112156107375767ffffffffffffffff6064356004013511610737573660246064356004013560051b6064350101116107375760843567ffffffffffffffff811161073b57611147903690600401612fba565b9033845260d360205260408420541561162f57602435845260d46020526111706040852061387c565b9161117a83614095565b63ffffffff6080840151164310156116055763ffffffff60208401511643106115db5760a08301516111ab81612f3d565b6111b481612f3d565b6115b157602435855260d66020526040852073ffffffffffffffffffffffffffffffffffffffff851660005260205260406000205461158757602435855260d66020526040852073ffffffffffffffffffffffffffffffffffffffff8516600052602052600160406000205560e063ffffffff60208501511693015192611246606435600401356024606435016140ca565b859386915b6064356004013583106113a657505050821561137c57602435855260d56020526040852061127a604435612f3d565b6044358652602052604085206112918482546139cf565b9055806112ff5750507fb83d25c6a5d258561330739951487acb4bd09ba5190b5d32c4f261817d9067929160809173ffffffffffffffffffffffffffffffffffffffff6040519260243584521660208301526112ee604435612f3d565b60443560408301526060820152a180f35b7f7b68c21d3d55ce8b9e79a27874bb03fa18c398a4bc9cb89b4a75fb6fbeb1419893916113769173ffffffffffffffffffffffffffffffffffffffff946040519586956024358752166020860152611358604435612f3d565b6044356040860152606085015260a0608085015260a0840191613680565b0390a180f35b60046040517fdf0cf4fb000000000000000000000000000000000000000000000000000000008152fd5b90919460ff6113c4610ac88860643560040135602460643501613d82565b166001811b84161561155657885260cf602052604088206040519081604081011067ffffffffffffffff6040840111176115275773ffffffffffffffffffffffffffffffffffffffff888a866114b761145961145086611435600160209a60408d01604052838154168d5201613106565b998a8a82015251169560643560040135602460643501613d82565b87810190613558565b6114a5604051998a98899788977f871d81b700000000000000000000000000000000000000000000000000000000895260048901521660248701526080604487015260848601906131ad565b91600319858403016064860152613680565b03915afa90811561151c5789916114e4575b506114d7906114dd926139cf565b956139c0565b919061124b565b90506020813d602011611514575b816114ff6020938361303d565b8101031261151057516114dd6114c9565b8880fd5b3d91506114f2565b6040513d8b823e3d90fd5b7f4e487b7100000000000000000000000000000000000000000000000000000000600052604160045260246000fd5b602490604051907ff3e4f1b40000000000000000000000000000000000000000000000000000000082526004820152fd5b60046040517f38ec5213000000000000000000000000000000000000000000000000000000008152fd5b60046040517fac18c457000000000000000000000000000000000000000000000000000000008152fd5b60046040517f688c575a000000000000000000000000000000000000000000000000000000008152fd5b60046040517f6613a282000000000000000000000000000000000000000000000000000000008152fd5b60046040517fb33ebb5e000000000000000000000000000000000000000000000000000000008152fd5b503461073f578060031936011261073f5773ffffffffffffffffffffffffffffffffffffffff60d154166040519060008260d25491611697836130b3565b8083529260019081811690811561173057506001146116d1575b506116be9250038361303d565b6116cd604051928392836131ed565b0390f35b60d2600090815291507ff2192e1030363415d7b4fb0406540a0060e8e2fc8982f3f32289379e11fa65465b84831061171557506116be9350508101602001856116b1565b81935090816020925483858a010152019101909185926116fc565b602093506116be95925060ff1991501682840152151560051b820101856116b1565b503461073f57608060031936011261073f5761176c612f76565b67ffffffffffffffff90602435828111611c8a5761178e903690600401612fba565b9190928060443511611bef57604060031960443536030112611bef57606435908111611bef576117c2903690600401612fba565b33865260d360205260408620541561162f5773ffffffffffffffffffffffffffffffffffffffff60d1541690866040519384927f0721609500000000000000000000000000000000000000000000000000000000845273ffffffffffffffffffffffffffffffffffffffff871660048501526060602485015260009160d25461184a816130b3565b90816064880152600181169081600014611c665750600114611c06575b5061188683602097959387959360031987809603016044860152613680565b03925af1908115611bfb578591611bbc575b5015611b925773ffffffffffffffffffffffffffffffffffffffff81611b8461196a611b63611b75611b8c987ff8da673e3fac9fbd1c74ccfca5e1de23da9b2d616a790f0aeb2ba3f575c04ff1976118fe63ffffffff60cd541663ffffffff4316613979565b63ffffffff60cb54816119228161191a818560201c1687613979565b931685613979565b9161194161193a602460443501604435600401613558565b369161307c565b6020815191012094828e611959604435600401613537565b16918f60ce54996040519e8f612fe8565b168d521660208c015260408b01521660608901521660808701528c60a087015260c086015260e085015260cc548b5260d460205260408b20878551167fffffffffffffffffffffffff00000000000000000000000000000000000000009081835416178255611a2763ffffffff60208801511683907fffffffffffffffff00000000ffffffffffffffffffffffffffffffffffffffff77ffffffff000000000000000000000000000000000000000083549260a01b169116179055565b60018201908960408801511690825416178155611a9263ffffffff60608801511682907fffffffffffffffff00000000ffffffffffffffffffffffffffffffffffffffff77ffffffff000000000000000000000000000000000000000083549260a01b169116179055565b608086015181547fffffff0000000000ffffffffffffffffffffffffffffffffffffffffffffffff7bffffffff0000000000000000000000000000000000000000000000007cff0000000000000000000000000000000000000000000000000000000060a08b0151611b0381612f3d565b611b0c81612f3d565b60e01b169360c01b1691161717905560c08501516002820155600360e086015191015560cc5498611b47602460443501604435600401613558565b949095604051998a998d8b521660208a01526040890190613902565b61018080610140890152870191613680565b91848303610160860152613680565b0390a16139c0565b60cc5580f35b60046040517f78b51a90000000000000000000000000000000000000000000000000000000008152fd5b90506020813d602011611bf3575b81611bd76020938361303d565b81010312611bef57518015158103611bef5738611898565b8480fd5b3d9150611bca565b6040513d87823e3d90fd5b60d260009081529193507ff2192e1030363415d7b4fb0406540a0060e8e2fc8982f3f32289379e11fa65465b818310611c49575050840160840191611886611867565b80546084848b0101528896508c9550602090920191600101611c32565b60ff191660848089019190915291151560051b870190910193506118869050611867565b8380fd5b503461073f578060031936011261073f57602060ce54604051908152f35b503461073f578060031936011261073f57602063ffffffff60cb5416604051908152f35b503461073f578060031936011261073f57602073ffffffffffffffffffffffffffffffffffffffff60975416604051908152f35b503461073f57604060031936011261073f576024359073ffffffffffffffffffffffffffffffffffffffff8216809203610b6a57604090600435815260d660205220906000526020526020604060002054604051908152f35b503461073f57602060031936011261073f57604060209173ffffffffffffffffffffffffffffffffffffffff611d91612f76565b16815260d383522054604051908152f35b503461073f578060031936011261073f57611dbb61321d565b600073ffffffffffffffffffffffffffffffffffffffff6097547fffffffffffffffffffffffff00000000000000000000000000000000000000008116609755167f8be0079c531659141344cd1fd0a4f28419497f9722a3daafe3b4186f6b6457e08280a380f35b503461073f578060031936011261073f57604051600060ca54611e45816130b3565b80845290600190818116908115611ede5750600114611e83575b6116cd84611e6f8186038261303d565b6040519182916020835260208301906131ad565b60ca600090815292507f42d72674974f694b5f5159593243114d38a5c39c89d6b62fee061ff523240ee15b828410611ec6575050508101602001611e6f82611e5f565b80546020858701810191909152909301928101611eae565b60ff191660208087019190915292151560051b85019092019250611e6f9150839050611e5f565b503461073f578060031936011261073f57602060cb5463ffffffff60405191831c168152f35b503461073f57602060031936011261073f576004359060ff8216809203610b6a57604091815260cf60205220611f7b600173ffffffffffffffffffffffffffffffffffffffff8354169201613106565b906116cd604051928392836131ed565b503461073f57604060031936011261073f5760043567ffffffffffffffff602435818111611c8a57611fc1903690600401612fba565b91600260c9541461221257600260c95583855260209260d484526040862090611ff1611fec8361387c565b614095565b611ffa8261387c565b9360c085015161200b36848461307c565b878151910120036121e85760a085015161202481612f3d565b61202d81612f3d565b6115b15773ffffffffffffffffffffffffffffffffffffffff60018994018054907c01000000000000000000000000000000000000000000000000000000007fffffff00ffffffffffffffffffffffffffffffffffffffffffffffffffffffff8316179055169087845260d587526040842060018552875260408420549288855260d5885260408520858052885260408520549689865260d58952604086206002875289526040862054843b156121e45761211f938793612145926040519b8c998a9889977f2b06df530000000000000000000000000000000000000000000000000000000089526004890190613902565b610104870152610124860152610144850152610180610164850152610184840191613680565b03925af18015611bfb57612187575b50507f712ae1383f79ac853f8d882153778e0260ef8f03b504e2866e0593e04d2b291f91604051908152a1600160c95580f35b81116121b7576040527f712ae1383f79ac853f8d882153778e0260ef8f03b504e2866e0593e04d2b291f38612154565b6024847f4e487b710000000000000000000000000000000000000000000000000000000081526041600452fd5b8680fd5b60046040517f7c6953f9000000000000000000000000000000000000000000000000000000008152fd5b606460405162461bcd60e51b815260206004820152601f60248201527f5265656e7472616e637947756172643a207265656e7472616e742063616c6c006044820152fd5b503461073f578060031936011261073f5773ffffffffffffffffffffffffffffffffffffffff7f00000000000000000000000000000000000000000000000000000000000000001630036122ce5760206040517f360894a13ba1a3210667c828492db98dca3e2076cc3735a920a3ca505d382bbc8152f35b608460405162461bcd60e51b815260206004820152603860248201527f555550535570677261646561626c653a206d757374206e6f742062652063616c60448201527f6c6564207468726f7567682064656c656761746563616c6c00000000000000006064820152fd5b50604060031936011261073f5761234d612f76565b9060243567ffffffffffffffff811161073757366023820112156107375761237f90369060248160040135910161307c565b9173ffffffffffffffffffffffffffffffffffffffff807f000000000000000000000000000000000000000000000000000000000000000016906123c5823014156132ef565b6123f47f360894a13ba1a3210667c828492db98dca3e2076cc3735a920a3ca505d382bbc928284541614613360565b6123fc61321d565b7f4910fdfa16fed3260ed0e7147f7cc6da11a60208b5b9406d12a635614ffd91435460ff16156124335750506107899192506133d1565b8291939216604051937f52d1902d0000000000000000000000000000000000000000000000000000000085526020948581600481865afa8591816126bd575b506124e1576084866040519062461bcd60e51b82526004820152602e60248201527f45524331393637557067726164653a206e657720696d706c656d656e7461746960448201527f6f6e206973206e6f7420555550530000000000000000000000000000000000006064820152fd5b94939403612653576124f2826133d1565b604051907fbc7cd75a20ee27fd9adebab32041f755214dbc6bffa90cc0225b39da2e5c2d3b8580a284511580159061264b575b612532575b505050905080f35b813b156125e457509180846125d294848397519201905af43d156125dc573d9061255b82613060565b91612569604051938461303d565b82523d858484013e5b7f416464726573733a206c6f772d6c6576656c2064656c65676174652063616c6c604051936125a085613005565b602785528401527f206661696c65640000000000000000000000000000000000000000000000000060408401526134a3565b508038808061252a565b606090612572565b808362461bcd60e51b608493526004820152602660248201527f416464726573733a2064656c65676174652063616c6c20746f206e6f6e2d636f60448201527f6e747261637400000000000000000000000000000000000000000000000000006064820152fd5b506001612525565b6084836040519062461bcd60e51b82526004820152602960248201527f45524331393637557067726164653a20756e737570706f727465642070726f7860448201527f6961626c655555494400000000000000000000000000000000000000000000006064820152fd5b9091508681813d83116126e9575b6126d5818361303d565b810103126126e557519038612472565b8580fd5b503d6126cb565b503461073f57602060031936011261073f5760043561270d61321d565b80825260d4602052600160408320612727611fec8261387c565b019081549060ff8260e01c1661273c81612f3d565b6115b1577f416e669c63d9a3a5e36ee7cc7e2104b8db28ccd286aa18966e98fa230c73b08c927c02000000000000000000000000000000000000000000000000000000007fffffff00ffffffffffffffffffffffffffffffffffffffffffffffffffffffff60209416179055604051908152a180f35b503461073f576020908160031936011261073f5760043580825260d483528261287f6101646127e36040862061387c565b6127ec81614095565b73ffffffffffffffffffffffffffffffffffffffff60408201511685875260d585526040872060018852855260408720549580885260d58652604088208880528652604088205490885260d586526040882060028952865260408820549060405197889687957fea8f8c4b0000000000000000000000000000000000000000000000000000000087526004870190613902565b6101048501526101248401526101448301525afa9081156129175782916128e1575b506040519160078210156128b457508152f35b807f4e487b7100000000000000000000000000000000000000000000000000000000602492526021600452fd5b90508281813d8311612910575b6128f8818361303d565b810103126107375751600781101561073757386128a1565b503d6128ee565b6040513d84823e3d90fd5b503461073f578060031936011261073f57602063ffffffff60cd5416604051908152f35b503461073f5760208060031936011261073757612961612f76565b9073ffffffffffffffffffffffffffffffffffffffff807f0000000000000000000000000000000000000000000000000000000000000000166129a6813014156132ef565b6129d57f360894a13ba1a3210667c828492db98dca3e2076cc3735a920a3ca505d382bbc918383541614613360565b6129dd61321d565b604051908382019282841067ffffffffffffffff851117612c6e578360405286835260ff7f4910fdfa16fed3260ed0e7147f7cc6da11a60208b5b9406d12a635614ffd91435416600014612a39575050505050610789906133d1565b8596949516906040517f52d1902d0000000000000000000000000000000000000000000000000000000081528681600481865afa869181612c3f575b50612ae4576084876040519062461bcd60e51b82526004820152602e60248201527f45524331393637557067726164653a206e657720696d706c656d656e7461746960448201527f6f6e206973206e6f7420555550530000000000000000000000000000000000006064820152fd5b95949503612bd557612af5866133d1565b604051907fbc7cd75a20ee27fd9adebab32041f755214dbc6bffa90cc0225b39da2e5c2d3b8680a2815115801590612bce575b612b36575b50505050905080f35b853b15612b6757509280948192612b5c9551915af43d156125dc573d9061255b82613060565b508038808080612b2d565b808462461bcd60e51b608493526004820152602660248201527f416464726573733a2064656c65676174652063616c6c20746f206e6f6e2d636f60448201527f6e747261637400000000000000000000000000000000000000000000000000006064820152fd5b5084612b28565b6084846040519062461bcd60e51b82526004820152602960248201527f45524331393637557067726164653a20756e737570706f727465642070726f7860448201527f6961626c655555494400000000000000000000000000000000000000000000006064820152fd5b9091508781813d8311612c67575b612c57818361303d565b810103126121e457519038612a75565b503d612c4d565b6024877f4e487b710000000000000000000000000000000000000000000000000000000081526041600452fd5b503461073f578060031936011261073f57602060cc54604051908152f35b503461073f5760031960808136011261073757612cd4612f76565b9060243560443567ffffffffffffffff8082116126e5576040826004019483360301126126e5576064359081116126e557612d13903690600401612fba565b33875260d360205260408720541561162f5783875260d46020526040872092612d3e611fec8561387c565b600184019081549060ff8260e01c16612d5681612f3d565b6115b157855473ffffffffffffffffffffffffffffffffffffffff998a808316911603612e535760a01c63ffffffff16431015612e29577f3ed3909a2444f4afb9f14bf6e61874cebc207fa08f5034e074afe13065c8125798611376966002612de661193a60247fffffffffffffffffffffffff000000000000000000000000000000000000000096018d613558565b60208151910120910155612df989613537565b169116179055612e1b60405195869586526060602087015260608601906136a1565b918483036040860152613680565b60046040517fb05d2fa9000000000000000000000000000000000000000000000000000000008152fd5b60046040517f48f5c3ed000000000000000000000000000000000000000000000000000000008152fd5b503461073f578060031936011261073f57602060ff60d05416604051908152f35b90503461073757602060031936011261073757604061010092600435815260d46020522080549060018101549160ff8360e01c1690600360028401549301549373ffffffffffffffffffffffffffffffffffffffff808316875263ffffffff809360a01c16602088015281166040870152818160a01c16606087015260c01c166080850152612f2c81612f3d565b60a084015260c083015260e0820152f35b60031115612f4757565b7f4e487b7100000000000000000000000000000000000000000000000000000000600052602160045260246000fd5b6004359073ffffffffffffffffffffffffffffffffffffffff82168203610b6a57565b359073ffffffffffffffffffffffffffffffffffffffff82168203610b6a57565b9181601f84011215610b6a5782359167ffffffffffffffff8311610b6a5760208381860195010111610b6a57565b610100810190811067ffffffffffffffff82111761152757604052565b6060810190811067ffffffffffffffff82111761152757604052565b6040810190811067ffffffffffffffff82111761152757604052565b90601f601f19910116810190811067ffffffffffffffff82111761152757604052565b67ffffffffffffffff811161152757601f01601f191660200190565b92919261308882613060565b91613096604051938461303d565b829481845281830111610b6a578281602093846000960137010152565b90600182811c921680156130fc575b60208310146130cd57565b7f4e487b7100000000000000000000000000000000000000000000000000000000600052602260045260246000fd5b91607f16916130c2565b906040519182600082549261311a846130b3565b9081845260019485811690816000146131895750600114613146575b50506131449250038361303d565b565b9093915060005260209081600020936000915b81831061317157505061314493508201013880613136565b85548884018501529485019487945091830191613159565b905061314495506020935060ff1991501682840152151560051b8201013880613136565b919082519283825260005b8481106131d9575050601f19601f8460006020809697860101520116010190565b6020818301810151848301820152016131b8565b60409073ffffffffffffffffffffffffffffffffffffffff61321a949316815281602082015201906131ad565b90565b73ffffffffffffffffffffffffffffffffffffffff60975416330361323e57565b606460405162461bcd60e51b815260206004820152602060248201527f4f776e61626c653a2063616c6c6572206973206e6f7420746865206f776e65726044820152fd5b6097549073ffffffffffffffffffffffffffffffffffffffff80911691827fffffffffffffffffffffffff0000000000000000000000000000000000000000821617609755167f8be0079c531659141344cd1fd0a4f28419497f9722a3daafe3b4186f6b6457e0600080a3565b156132f657565b608460405162461bcd60e51b815260206004820152602c60248201527f46756e6374696f6e206d7573742062652063616c6c6564207468726f7567682060448201527f64656c656761746563616c6c00000000000000000000000000000000000000006064820152fd5b1561336757565b608460405162461bcd60e51b815260206004820152602c60248201527f46756e6374696f6e206d7573742062652063616c6c6564207468726f7567682060448201527f6163746976652070726f787900000000000000000000000000000000000000006064820152fd5b803b156134395773ffffffffffffffffffffffffffffffffffffffff7f360894a13ba1a3210667c828492db98dca3e2076cc3735a920a3ca505d382bbc91167fffffffffffffffffffffffff0000000000000000000000000000000000000000825416179055565b608460405162461bcd60e51b815260206004820152602d60248201527f455243313936373a206e657720696d706c656d656e746174696f6e206973206e60448201527f6f74206120636f6e7472616374000000000000000000000000000000000000006064820152fd5b909190156134af575090565b8151156134bf5750805190602001fd5b610fbc9060405191829162461bcd60e51b83526020600484015260248301906131ad565b9035907fffffffffffffffffffffffffffffffffffffffffffffffffffffffffffffffe181360301821215610b6a570180359067ffffffffffffffff8211610b6a57602001918160051b36038313610b6a57565b3573ffffffffffffffffffffffffffffffffffffffff81168103610b6a5790565b9035907fffffffffffffffffffffffffffffffffffffffffffffffffffffffffffffffe181360301821215610b6a570180359067ffffffffffffffff8211610b6a57602001918136038313610b6a57565b3563ffffffff81168103610b6a5790565b9035907fffffffffffffffffffffffffffffffffffffffffffffffffffffffffffffffc181360301821215610b6a570190565b359063ffffffff82168203610b6a57565b90357fffffffffffffffffffffffffffffffffffffffffffffffffffffffffffffffc182360301811215610b6a570190565b90357fffffffffffffffffffffffffffffffffffffffffffffffffffffffffffffffe182360301811215610b6a57016020813591019167ffffffffffffffff8211610b6a578136038313610b6a57565b601f8260209493601f19938186528686013760008582860101520116010190565b9060406136d661321a9373ffffffffffffffffffffffffffffffffffffffff6136c982612f99565b1684526020810190613630565b9190928160208201520191613680565b90357fffffffffffffffffffffffffffffffffffffffffffffffffffffffffffffffe182360301811215610b6a57016020813591019167ffffffffffffffff8211610b6a578160051b36038313610b6a57565b91908082526020809201929160005b828110613756575050505090565b90919293828060019273ffffffffffffffffffffffffffffffffffffffff61377d89612f99565b16815201950193929101613748565b1561379357565b608460405162461bcd60e51b815260206004820152602b60248201527f496e697469616c697a61626c653a20636f6e7472616374206973206e6f74206960448201527f6e697469616c697a696e670000000000000000000000000000000000000000006064820152fd5b60405160208101907f4e6f20757064617465000000000000000000000000000000000000000000000082526009815261383581613021565b51902060e01c90565b60405160208101907f4e6f20757064617465000000000000000000000000000000000000000000000082526009815261387681613021565b51902090565b9060405161388981612fe8565b60e06003829460ff815473ffffffffffffffffffffffffffffffffffffffff90818116875263ffffffff809160a01c16602088015260018401549182166040880152808260a01c1660608801528160c01c166080870152841c166138ec81612f3d565b60a0850152600281015460c08501520154910152565b60e0809173ffffffffffffffffffffffffffffffffffffffff80825116855263ffffffff908160208401511660208701526040830151166040860152806060830151166060860152608082015116608085015260a081015161396381612f3d565b60a085015260c081015160c08501520151910152565b91909163ffffffff8080941691160191821161399157565b7f4e487b7100000000000000000000000000000000000000000000000000000000600052601160045260246000fd5b60001981146139915760010190565b9190820180921161399157565b60cb5463ffffffff91828260201c1692811692808410613a205750507fffffffffffffffffffffffffffffffffffffffffffffffffffffffff00000000161760cb55565b6040517fc564bfaf00000000000000000000000000000000000000000000000000000000815263ffffffff918216600482015291166024820152604490fd5b60cb549063ffffffff8083168091831611610f7d575067ffffffff000000007fffffffffffffffffffffffffffffffffffffffffffffffff00000000ffffffff9160201b1691161760cb55565b818110613ab7575050565b60008155600101613aac565b9073ffffffffffffffffffffffffffffffffffffffff613ae283613537565b167fffffffffffffffffffffffff000000000000000000000000000000000000000060d154161760d155613b1b60209283810190613558565b9067ffffffffffffffff821161152757613b3660d2546130b3565b601f8111613bfd575b50600093601f8311600114613b7c575092819293600092613b71575b50506000198260011b9260031b1c19161760d255565b013590503880613b5b565b90601f1983169460d281527ff2192e1030363415d7b4fb0406540a0060e8e2fc8982f3f32289379e11fa65469281905b878210613be5575050836001959610613bcb575b505050811b0160d255565b60001960f88560031b161c19910135169055388080613bc0565b80600184968294958701358155019501920190613bac565b613c469060d26000527ff2192e1030363415d7b4fb0406540a0060e8e2fc8982f3f32289379e11fa6546601f850160051c810191878610613c4c575b601f0160051c0190613aac565b38613b3f565b9091508190613c39565b919067ffffffffffffffff811161152757613c7260ca546130b3565b601f8111613d33575b506000601f8211600114613cb557819293600092613caa575b50506000198260011b9260031b1c19161760ca55565b013590503880613c94565b601f1982169360ca82527f42d72674974f694b5f5159593243114d38a5c39c89d6b62fee061ff523240ee191805b868110613d1b5750836001959610613d01575b505050811b0160ca55565b60001960f88560031b161c19910135169055388080613cf6565b90926020600181928686013581550194019101613ce3565b613d7c9060ca6000527f42d72674974f694b5f5159593243114d38a5c39c89d6b62fee061ff523240ee1601f840160051c81019160208510613c4c57601f0160051c0190613aac565b38613c7b565b90821015613d995761321a9160051b8101906135ba565b7f4e487b7100000000000000000000000000000000000000000000000000000000600052603260045260246000fd5b60ff1660ff81146139915760010190565b60ce5460ff928360d054169261010082810390811161399157841015613ffa57906000915b818310613e195750505060ce551660ff1960d054161760d055565b90919373ffffffffffffffffffffffffffffffffffffffff80613e406109ce888787613d82565b1615613fd0578682169060019586831b1795613e5d888787613d82565b92600052613eae8160209360cf8552604060002090613e7b87613537565b167fffffffffffffffffffffffff0000000000000000000000000000000000000000825416178155019383810190613558565b929067ffffffffffffffff841161152757613ec985546130b3565b91601f92838111613f98575b506000928511600114613f2a5750918380613f16979593613f109795600093613f1d575b505060001991921b9260031b1c1916179055613dc8565b946139c0565b9190613dfe565b0135915060001938613ef9565b91601f19859495168682528382209382905b828210613f8157505091613f169795939185613f1098969410613f67575b505050811b019055613dc8565b60001960f88560031b161c19910135169055388080613f5a565b808885978294968801358155019601930190613f3c565b613fc1908760005282600020600586808a01821c830193868b10613fc7575b01901c0190613aac565b38613ed5565b93508293613fb7565b60046040517fd92e233d000000000000000000000000000000000000000000000000000000008152fd5b60046040517fb0807411000000000000000000000000000000000000000000000000000000008152fd5b9190811015613d995760051b0190565b3560ff81168103610b6a5790565b90600090815b8181106140555750505050565b8073ffffffffffffffffffffffffffffffffffffffff61407c6109ce614090948689614024565b16845260d3602052600160408520556139c0565b614048565b60c00151156140a057565b60046040517fee032808000000000000000000000000000000000000000000000000000000008152fd5b906002811061415557600091825b8284106140e55750505050565b60ff906001826140f9610ac8888888613d82565b161b918282166141155750179261410f906139c0565b926140d8565b602490614126610ac8888888613d82565b6040517f1ed4de8300000000000000000000000000000000000000000000000000000000815291166004820152fd5b505056fea164736f6c6343000812000a",
    "linkReferences": {}
  },
  "methodIdentifiers": {
    "activeVotingStrategies()": "a44c31d5",
    "authenticators(address)": "791eb854",
    "cancel(uint256)": "40e58ee5",
    "daoURI()": "7034731b",
    "execute(uint256,bytes)": "59efcb15",
    "getProposalStatus(uint256)": "401853b7",
    "initialize((address,uint32,uint32,uint32,(address,bytes),string,string,string,(address,bytes)[],string[],address[]))": "f8b669d6",
    "maxVotingDuration()": "9d49257c",
    "minVotingDuration()": "6df7bab3",
    "nextProposalId()": "2ab09d14",
    "nextVotingStrategyIndex()": "05337104",
    "owner()": "8da5cb5b",
    "proposalValidationStrategy()": "ab1d89a7",
    "proposals(uint256)": "013cf08b",
    "propose(address,string,(address,bytes),bytes)": "aad83f3b",
    "proxiableUUID()": "52d1902d",
    "renounceOwnership()": "715018a6",
    "transferOwnership(address)": "f2fde38b",
    "updateProposal(address,uint256,(address,bytes),string)": "0b515570",
    "updateSettings((uint32,uint32,uint32,string,string,(address,bytes),string,address[],address[],(address,bytes)[],string[],uint8[]))": "d830616c",
    "upgradeTo(address)": "3659cfe6",
    "upgradeToAndCall(address,bytes)": "4f1ef286",
    "vote(address,uint256,uint8,(uint8,bytes)[],string)": "bc7e56f0",
    "votePower(uint256,uint8)": "de7c3c44",
    "voteRegistry(uint256,address)": "792cb5a3",
    "votingDelay()": "3932abb1",
    "votingStrategies(uint8)": "61ae2978"
  },
  "id": 69
}