{
  "abi": [
    {
      "inputs": [],
      "name": "SpaceCreationFailed",
      "type": "error"
    },
    {
      "anonymous": false,
      "inputs": [
        {
          "indexed": false,
          "internalType": "address",
          "name": "space",
          "type": "address"
        },
        {
          "indexed": false,
          "internalType": "address",
          "name": "owner",
          "type": "address"
        },
        {
          "indexed": false,
          "internalType": "uint32",
          "name": "votingDelay",
          "type": "uint32"
        },
        {
          "indexed": false,
          "internalType": "uint32",
          "name": "minVotingDuration",
          "type": "uint32"
        },
        {
          "indexed": false,
          "internalType": "uint32",
          "name": "maxVotingDuration",
          "type": "uint32"
        },
        {
          "indexed": false,
          "internalType": "uint256",
          "name": "proposalThreshold",
          "type": "uint256"
        },
        {
          "indexed": false,
          "internalType": "string",
          "name": "metadataUri",
          "type": "string"
        },
        {
          "components": [
            {
              "internalType": "address",
              "name": "addy",
              "type": "address"
            },
            {
              "internalType": "bytes",
              "name": "params",
              "type": "bytes"
            }
          ],
          "indexed": false,
          "internalType": "struct Strategy[]",
          "name": "votingStrategies",
          "type": "tuple[]"
        },
        {
          "indexed": false,
          "internalType": "bytes[]",
          "name": "votingStrategyMetadata",
          "type": "bytes[]"
        },
        {
          "indexed": false,
          "internalType": "address[]",
          "name": "authenticators",
          "type": "address[]"
        },
        {
          "components": [
            {
              "internalType": "address",
              "name": "addy",
              "type": "address"
            },
            {
              "internalType": "bytes",
              "name": "params",
              "type": "bytes"
            }
          ],
          "indexed": false,
          "internalType": "struct Strategy[]",
          "name": "executionStrategies",
          "type": "tuple[]"
        }
      ],
      "name": "SpaceCreated",
      "type": "event"
    },
    {
      "inputs": [
        {
          "internalType": "address",
          "name": "controller",
          "type": "address"
        },
        {
          "internalType": "uint32",
          "name": "votingDelay",
          "type": "uint32"
        },
        {
          "internalType": "uint32",
          "name": "minVotingDuration",
          "type": "uint32"
        },
        {
          "internalType": "uint32",
          "name": "maxVotingDuration",
          "type": "uint32"
        },
        {
          "internalType": "uint256",
          "name": "proposalThreshold",
          "type": "uint256"
        },
        {
          "internalType": "string",
          "name": "metadataUri",
          "type": "string"
        },
        {
          "components": [
            {
              "internalType": "address",
              "name": "addy",
              "type": "address"
            },
            {
              "internalType": "bytes",
              "name": "params",
              "type": "bytes"
            }
          ],
          "internalType": "struct Strategy[]",
          "name": "votingStrategies",
          "type": "tuple[]"
        },
        {
          "internalType": "bytes[]",
          "name": "votingStrategyMetadata",
          "type": "bytes[]"
        },
        {
          "internalType": "address[]",
          "name": "authenticators",
          "type": "address[]"
        },
        {
          "components": [
            {
              "internalType": "address",
              "name": "addy",
              "type": "address"
            },
            {
              "internalType": "bytes",
              "name": "params",
              "type": "bytes"
            }
          ],
          "internalType": "struct Strategy[]",
          "name": "executionStrategies",
          "type": "tuple[]"
        },
        {
          "internalType": "bytes32",
          "name": "salt",
          "type": "bytes32"
        }
      ],
      "name": "createSpace",
      "outputs": [],
      "stateMutability": "nonpayable",
      "type": "function"
    }
  ],
  "bytecode": {
    "object": "0x6080806040523461001657614478908161001c8239f35b600080fdfe60a060405260043610156200001357600080fd5b60003560e01c6308127789146200002957600080fd5b34620003b3576101607ffffffffffffffffffffffffffffffffffffffffffffffffffffffffffffffffc360112620003b35760043573ffffffffffffffffffffffffffffffffffffffff81168103620003b3576024359063ffffffff8083168303620003b357604435928184168403620003b357606435938285168503620003b35767ffffffffffffffff938460a43511620003b35736602360a435011215620003b3578460a4356004013511620003b35736602460a4356004013560a435010111620003b35760c435858111620003b3576200010b903690600401620003da565b93909160e435878111620003b35762000129903690600401620003da565b61010435898111620003b35762000145903690600401620003da565b949095610124358b8111620003b35762000164903690600401620003da565b99909b60a0613dfc60a0011090613dfc60a00111176200038457613dfc6200067060a03973ffffffffffffffffffffffffffffffffffffffff8616613dfc60a08101919091528b841660c0820152898c1660e08201528d8c166101008201526084356101208083019190915261014082015262000225906200020b90620001f1906101c0018486620004a0565b613dfc60a001810360c0613dfc60a0010152868862000591565b613dfc60a001810360e0613dfc60a0010152888a62000618565b613dfc60a0018103610100613dfc60a00101528c6200024c61014435928d60a093620004a0565b0360a06000f59a8b620002835760046040517f87a22725000000000000000000000000000000000000000000000000000000008152fd5b7f982a9e5064f4d2b73c64532ffc59aa1d7714c4e46d69e52e6266cde218e364c59d81620003669b816200037d9f9773ffffffffffffffffffffffffffffffffffffffff620003539c620003409a8260405191826080521690521660206080510152166040608051015216606060805101521660808051015260843560a0608051015261016060c060805101526200032e6101606080510160a43560040135602460a4350162000461565b9160805160e0818503910152620004a0565b9160805161010081850391015262000591565b9160805161012081850391015262000618565b9060805161014081840391015260805193620004a0565b03608051a1005b7f4e487b7100000000000000000000000000000000000000000000000000000000600052604160045260246000fd5b600080fd5b359073ffffffffffffffffffffffffffffffffffffffff82168203620003b357565b9181601f84011215620003b35782359167ffffffffffffffff8311620003b3576020808501948460051b010111620003b357565b90357fffffffffffffffffffffffffffffffffffffffffffffffffffffffffffffffe182360301811215620003b357016020813591019167ffffffffffffffff8211620003b3578136038313620003b357565b601f82602094937fffffffffffffffffffffffffffffffffffffffffffffffffffffffffffffffe0938186528686013760008582860101520116010190565b90918092808252602080920191808260051b8601019484600080925b858410620004cf57505050505050505090565b90919293949596977fffffffffffffffffffffffffffffffffffffffffffffffffffffffffffffffe082820301885288357fffffffffffffffffffffffffffffffffffffffffffffffffffffffffffffffc1853603018112156200058d57866200057c6001936200056a8884950173ffffffffffffffffffffffffffffffffffffffff6200055d82620003b8565b168352848101906200040e565b90916040908186820152019162000461565b9a01980196959401929190620004bc565b8380fd5b9082818152602080910193818360051b82010194846000925b858410620005bc575050505050505090565b90919293949596858062000606837fffffffffffffffffffffffffffffffffffffffffffffffffffffffffffffffe08660019603018852620005ff8c886200040e565b9062000461565b990194019401929594939190620005aa565b91908082526020809201929160005b82811062000636575050505090565b90919293828060019273ffffffffffffffffffffffffffffffffffffffff6200065f89620003b8565b168152019501939291016200062756fe60406080815234620007d35762003dfc803803806200001e8162000824565b92833981019161012082840312620007d3576200003b826200084a565b62000049602084016200085f565b620000568385016200085f565b9062000065606086016200085f565b608086015160a08701519091906001600160401b038111620007d357886200008f918901620008fb565b60c08801519097906001600160401b038111620007d357810189601f82011215620007d357805190602080620000cf620000c98562000871565b62000824565b848152019260051b820101918b8311620007d35760208201905b838210620007f3575050505060e08101516001600160401b038111620007d35781019880601f8b011215620007d3578951996200012a620000c98c62000871565b9a6020808d838152019160051b83010191838311620007d357602001905b828210620007d8575050506101008201516001600160401b038111620007d357620001749201620008fb565b946200018033620009d7565b60018055600054336001600160a01b039091160362000790576001600160a01b038116156200073d57620001b490620009d7565b6002549063ffffffff94858360201c169186811692808410620007185750508186821611620006f35767ffffffff000000009060201b169160018060401b03191617176002556004551663ffffffff196005541617600555825115620006d15760005b835181101562000458576001600160a01b0362000235828662000a44565b5151161562000447576200024a818562000a44565b5160068054680100000000000000008110156200041b576001810180835581101562000431576000918252602091829020835160019290921b0180546001600160a01b0319166001600160a01b03929092169190911781559101518051906001600160401b0382116200041b576001830154600181811c9116801562000410575b6020821014620003fa57601f8111620003aa575b50602090601f8311600114620003305791806001926200031e96959460009262000324575b5050600019600383901b1c191690821b1791015562000a1e565b62000217565b01519050388062000304565b906001840160005260206000209160005b601f19851681106200039157509260019283926200031e97969583601f1981161062000377575b505050811b0191015562000a1e565b015160001960f88460031b161c1916905538808062000368565b9192602060018192868501518155019401920162000341565b600184016000526020600020601f840160051c81019160208510620003ef575b601f0160051c01905b818110620003e25750620002df565b60008155600101620003d3565b9091508190620003ca565b634e487b7160e01b600052602260045260246000fd5b90607f1690620002cb565b634e487b7160e01b600052604160045260246000fd5b634e487b7160e01b600052603260045260246000fd5b8251633408148f60e01b8152600490fd5b5083805115620006e25760005b8151811015620004ad57620004a7906001600160a01b0362000488828562000a44565b5116600052600860205284600020600160ff1982541617905562000a1e565b62000465565b5050805115620006d157906000915b8051831015620006bd576001600160a01b03620004da848362000a44565b51511615620006ac57620004ef838262000a44565b519260078054680100000000000000008110156200041b576001810180835581101562000431576000918252602091829020865160019290921b0180546001600160a01b0319166001600160a01b0392909216919091178155940151805194906001600160401b0386116200041b576001820154600181811c91168015620006a1575b6020821014620003fa57601f811162000651575b50602090601f8711600114620005d8579580600192620005c4969798600092620005cc575050600019600383901b1c191690821b1791015562000a1e565b9190620004bc565b01519050888062000304565b906001830160005260206000209160005b601f1989168110620006385750966001928392620005c497989983601f198116106200061e57505050811b0191015562000a1e565b015160001960f88460031b161c1916905588808062000368565b91926020600181928685015181550194019201620005e9565b600183016000526020600020601f880160051c8101916020891062000696575b601f0160051c01905b81811062000689575062000586565b600081556001016200067a565b909150819062000671565b90607f169062000572565b8151633408148f60e01b8152600490fd5b506001600355516133a2908162000a5a8239f35b815163521299a960e01b8152600490fd5b825163521299a960e01b8152600490fd5b875163c564bfaf60e01b815263ffffffff918216600482015291166024820152604490fd5b895163c564bfaf60e01b815263ffffffff918216600482015291166024820152604490fd5b865162461bcd60e51b815260206004820152602660248201527f4f776e61626c653a206e6577206f776e657220697320746865207a65726f206160448201526564647265737360d01b6064820152608490fd5b6064875162461bcd60e51b815260206004820152602060248201527f4f776e61626c653a2063616c6c6572206973206e6f7420746865206f776e65726044820152fd5b600080fd5b60208091620007e7846200084a565b81520191019062000148565b81516001600160401b038111620007d357602091620008188f84809488010162000889565b815201910190620000e9565b6040519190601f01601f191682016001600160401b038111838210176200041b57604052565b51906001600160a01b0382168203620007d357565b519063ffffffff82168203620007d357565b6001600160401b0381116200041b5760051b60200190565b919080601f84011215620007d35782516001600160401b0381116200041b57602090620008bf601f8201601f1916830162000824565b92818452828287010111620007d35760005b818110620008e757508260009394955001015290565b8581018301518482018401528201620008d1565b81601f82011215620007d35780519162000919620000c98462000871565b9182938084526020808095019160051b83010192808411620007d357848301915b8483106200094b5750505050505090565b82516001600160401b0390818111620007d357850191604080601f198587030112620007d35780519080820182811085821117620009c2578152620009928a86016200084a565b8252840151928311620007d357620009b2858a8096958196010162000889565b838201528152019201916200093a565b60246000634e487b7160e01b81526041600452fd5b600080546001600160a01b039283166001600160a01b03198216811783559216907f8be0079c531659141344cd1fd0a4f28419497f9722a3daafe3b4186f6b6457e09080a3565b600019811462000a2e5760010190565b634e487b7160e01b600052601160045260246000fd5b8051821015620004315760209160051b01019056fe6080604052600436101561001257600080fd5b6000803560e01c80630fdca0a11461228a5780631130630c14612218578063127d0ff7146121955780632ab09d14146121775780633018205f146115f357806336bd45e514611f935780633932abb114611f6f578063401853b714611e1b57806340e58ee514611d615780634385963214611cf1578063539b083714611c0357806359efcb151461188f5780636df7bab314611869578063715018a6146117ea57806373c9e70b146117175780638a255e75146116265780638da5cb5b146115f357806392eefe9b146115745780639d49257c14611550578063b58131b014611532578063b845ca2614611423578063bc7e56f014610fbc578063c7f758a814610f12578063d352976d14610e33578063da73c0e014610c42578063ea4a3aba14610581578063ece40cc114610533578063ede02d441461031c578063f2fde38b1461024e5763f8ce560a1461016757600080fd5b3461024b576020908160031936011261024b576004358152600982526101f38261019360408420612e3b565b61019c81612f28565b73ffffffffffffffffffffffffffffffffffffffff60a0820151511660405180809581947f53a1394e00000000000000000000000000000000000000000000000000000000835286600484015260248301906124a0565b03915afa91821561023f579161020d575b50604051908152f35b90508181813d8311610238575b61022481836126ef565b81010312610233575138610204565b600080fd5b503d61021a565b604051903d90823e3d90fd5b80fd5b503461024b57602060031936011261024b576102686123c6565b61027061258d565b73ffffffffffffffffffffffffffffffffffffffff811615610298576102959061260c565b80f35b60846040517f08c379a000000000000000000000000000000000000000000000000000000000815260206004820152602660248201527f4f776e61626c653a206e6577206f776e657220697320746865207a65726f206160448201527f64647265737300000000000000000000000000000000000000000000000000006064820152fd5b503461024b5760031960808136011261052f576103376123c6565b906024356044359267ffffffffffffffff80851161052b5760408560040194863603011261052b5760643590811161052b57610377903690600401612367565b61037f612fda565b61039061038b86612f63565b613027565b8387526009602052604087209273ffffffffffffffffffffffffffffffffffffffff9081806004870154169116036105015763ffffffff845460201c164210156104d75761046e61048d9461047f9260247f067f26d6fd0d20a59268088c36e23872ca462aa414f86d58ad0f26ae21ef78a09a0191610419610412848c612f89565b369161272a565b6020815191012060018201556104366104318b612f63565b6129c9565b50916002820190838203610493575b5050505060405197889788526060602089015260ff61046382612bd1565b166060890152612831565b6040608088015260a0870191612679565b918483036040860152612679565b0390a180f35b835482547fffffffffffffffffffffffff00000000000000000000000000000000000000001691161790556104ce91600101906003016132b8565b38808080610445565b60046040517fb05d2fa9000000000000000000000000000000000000000000000000000000008152fd5b60046040517f48f5c3ed000000000000000000000000000000000000000000000000000000008152fd5b8580fd5b5080fd5b503461024b57602060031936011261024b577f75176781f69c55e26fee85d480452b0b9038b9428704bb7b232fc1c638bbf803602060043561057361258d565b80600455604051908152a180f35b503461024b576003199060808236011261024b5761059d6123c6565b67ffffffffffffffff90602435828111610c3a576105bf903690600401612367565b9290948160443511610c3e5760409060443536030112610c3a57606435908111610c3a576105f1903690600401612395565b6105f9612fda565b61060a61038b604435600401612f63565b61061d6106183683856130ba565b6131fa565b849185915b808310610acf575050506004548110610a9e575061064e63ffffffff6005541663ffffffff4216612f71565b6106da60025461067363ffffffff61066b818460201c1686612f71565b921684612f71565b63ffffffff61068f610412602460443501604435600401612f89565b6020815191012091816106a9610431604435600401612f63565b509481604051986106b98a6126b6565b8142168a521660208901521660408701521660608501526080840152612df0565b60a082015273ffffffffffffffffffffffffffffffffffffffff821660c08201528360e082015260065461070d81612712565b9061071b60405192836126ef565b8082526020820160066000527ff652222313e28459528d920b65115c16c04f3efc82aaedc97be59f3f377c0d3f6000915b838310610a80575050505061010082015260035484526009602052604084209463ffffffff82511686549067ffffffff00000000602085015160201b166bffffffff0000000000000000604086015160401b16917fffffffffffffffffffffffffffffffff000000000000000000000000000000006fffffffff000000000000000000000000606088015160601b169416171717178655608082015160018701556107fe60a083015160028801612a9b565b6004860173ffffffffffffffffffffffffffffffffffffffff60c0840151168154907fffffffffffffffffffffff00000000000000000000000000000000000000000074ff000000000000000000000000000000000000000060e087015161086581612480565b61086e81612480565b60a01b16921617179055610100820151805190680100000000000000008211610a6c5760058801548260058a0155808310610988575b5060206005910197018652602086209686905b82821061096a5787610964887f322e76b83b403c75aeef1e8a4026e596161318c7c6f9c2df3d64611fec48d24b73ffffffffffffffffffffffffffffffffffffffff8a61095c8b61094061094e8d6003549861091d602460443501604435600401612f89565b949095604051998a998d8b521660208a015260a060408a015260a08901906124a0565b918783036060890152612679565b918483036080860152612679565b0390a1612940565b60035580f35b600260208261097c600194518d612a9b565b019901910190976108b7565b7f7fffffffffffffffffffffffffffffffffffffffffffffffffffffffffffffff8082168203610a585783168303610a4457600589018852602088208360011b81015b8260011b820181106109de5750506108a4565b808a600292558a600182016109f38154612a03565b80610a02575b505050016109cb565b601f808211600114610a1e57505060009150555b8a38806109f9565b91610a3d6000929382865260208620940160051c840160018501612a3d565b5555610a16565b602488634e487b7160e01b81526011600452fd5b602489634e487b7160e01b81526011600452fd5b602487634e487b7160e01b81526041600452fd5b60026020600192610a9085612df0565b81520192019201919061074c565b602490604051907f3222f9a10000000000000000000000000000000000000000000000000000000082526004820152fd5b90919260ff610ae7610ae286858761315f565b612f63565b16600654811015610c0957610b04610afe8261298f565b50612df0565b9073ffffffffffffffffffffffffffffffffffffffff82511615610c09575060208073ffffffffffffffffffffffffffffffffffffffff835116920151610b58610b4f88878961315f565b83810190612f89565b9390918b8a610b9d604051978896879586947f871d81b700000000000000000000000000000000000000000000000000000000865263ffffffff42166004870161319f565b03925af1908115610bfe578891610bca575b50610bbd90610bc3926131ed565b93612940565b9190610622565b90506020813d602011610bf6575b81610be5602093836126ef565b810103126102335751610bc3610baf565b3d9150610bd8565b6040513d8a823e3d90fd5b602490604051907fbe04e1dc0000000000000000000000000000000000000000000000000000000082526004820152fd5b8380fd5b8480fd5b503461024b57604060031936011261024b5767ffffffffffffffff9060043582811161052f57610c76903690600401612395565b9091602493843590811161052f57610c92903690600401612395565b9290610c9c61258d565b610ca736838761278c565b93845115610e0957835b8551811015610d695773ffffffffffffffffffffffffffffffffffffffff610cd98288612965565b51511615610d3f57610ceb8187612965565b519060069182549068010000000000000000821015610d2a57610d1a82610d25956001610d209501905561298f565b90612bac565b612940565b610cb1565b8a634e487b7160e01b60005260416004526000fd5b60046040517f3408148f000000000000000000000000000000000000000000000000000000008152fd5b5090610d818660405194604086526040860191612881565b9160208484038186015281845280840193818360051b820101948488925b858410610dd057897f3e54ff5b4605bb136b197134daa7f949683319bb1ab5f8fac3070cd0698065968a8a038ba180f35b909192939495968580610df883601f198660019603018852610df28c88612831565b90612679565b990194019401929594939190610d9f565b60046040517f521299a9000000000000000000000000000000000000000000000000000000008152fd5b503461024b5760208060031936011261052f5760043567ffffffffffffffff8111610f0e57610e66903690600401612395565b610e6e61258d565b610e79368284612bdf565b805115610e0957845b815160ff80831691821015610edb57610ed69291610d1a610ed192610eca60405193610ead856126d3565b8c855260405194610ebd8661269a565b8d86528c86015288612965565b51166129c9565b612c7b565b610e82565b877ff80dbac2cbb0fad2042da0cf18764cbcb28659e4da56481f93ec8a156f17ca70868861048d60405192839283612c35565b8280fd5b503461024b576020908160031936011261024b576040610fa39160043560606101008451610f3f816126b6565b8481528488820152848682015284838201528460808201528551610f628161269a565b858152838982015260a08201528460c08201528460e0820152015280825260098552610f97610f92848420612e3b565b612f28565b81526009845220612e3b565b90610fb86040519282849384528301906124a0565b0390f35b503461024b5760a060031936011261024b57610fd66123c6565b6003604435101561052f5767ffffffffffffffff606435818111610c3a57611002903690600401612395565b929091608435908111610c3e5761101d903690600401612367565b929093611028612fda565b6024358652600960205261103e60408720612e3b565b9161104883612f28565b63ffffffff804216816060860151168110156113f95781602086015116116113cf5760e084015161107881612480565b61108181612480565b6113a5576024358852600a6020526040882073ffffffffffffffffffffffffffffffffffffffff8616600052602052600160ff6040600020541615151461137b5761010090849392945116920151926110de6106183684846130ba565b879388935b83851061124f5750505050508015611225577fd4a3ac65df0ef183ad5dab533076ec2e370f56b17cface3554ac7e5b2f3f70fc9373ffffffffffffffffffffffffffffffffffffffff9361048d926024358852600b6020526040882061114a604435612480565b60443589526020526111608160408a20546131ed565b6024358952600b60205260408920611179604435612480565b6044358a5260205260408920556024358852600a60205260408820868616600052602052604060002060017fffffffffffffffffffffffffffffffffffffffffffffffffffffffffffffff008254161790556040516111d78161269a565b6111e2604435612480565b60443581526020810191825260405196879660243588521660208701525161120981612480565b604086015251606085015260a0608085015260a0840191612679565b60046040517fdf0cf4fb000000000000000000000000000000000000000000000000000000008152fd5b909192939460ff611264610ae288888861315f565b168351811015610c09576112788185612965565b519073ffffffffffffffffffffffffffffffffffffffff82511615610c09575060208b8173ffffffffffffffffffffffffffffffffffffffff845116930151926112cf6112c68b8b8b61315f565b84810190612f89565b9490928c61130d604051978896879586947f871d81b70000000000000000000000000000000000000000000000000000000086528d6004870161319f565b03925af1908115611370578b9161133c575b5061132d90611333926131ed565b95612940565b939291906110e3565b90506020813d602011611368575b81611357602093836126ef565b81010312610233575161133361131f565b3d915061134a565b6040513d8d823e3d90fd5b60046040517f1f652102000000000000000000000000000000000000000000000000000000008152fd5b60046040517fac18c457000000000000000000000000000000000000000000000000000000008152fd5b60046040517f688c575a000000000000000000000000000000000000000000000000000000008152fd5b60046040517f6613a282000000000000000000000000000000000000000000000000000000008152fd5b503461024b57602060031936011261024b5760043567ffffffffffffffff811161052f57611455903690600401612395565b9161145e61258d565b61146936848461278c565b91825115610e0957815b83518110156114f75773ffffffffffffffffffffffffffffffffffffffff61149b8286612965565b51511615610d3f576114ad8185612965565b5190600791825490680100000000000000008210156114e157610d1a826114dc956001610d20950190556129c9565b611473565b634e487b7160e01b600052604160045260246000fd5b507f1a75ddcdf790f6765c182108d39d32212472a7ceeca3f4e1495a9566d39ebef5908461048d604051928392602084526020840191612881565b503461024b578060031936011261024b576020600454604051908152f35b503461024b578060031936011261024b57602063ffffffff60025416604051908152f35b503461024b57602060031936011261024b5761158e6123c6565b61159661258d565b61159e61258d565b73ffffffffffffffffffffffffffffffffffffffff8116908115610298577f1304018cfe79741dcf02ba6b61d39cc4757d59395d03224d9925c7aa83002146916115e960209261260c565b604051908152a180f35b503461024b578060031936011261024b5773ffffffffffffffffffffffffffffffffffffffff6020915416604051908152f35b503461024b5760208060031936011261052f5760043567ffffffffffffffff8111610f0e57611659903690600401612395565b61166492919261258d565b61166f368285612c8c565b90815115610e0957845b82518110156116e4578073ffffffffffffffffffffffffffffffffffffffff6116a56116df9386612965565b51168752600885526040872060017fffffffffffffffffffffffffffffffffffffffffffffffffffffffffffffff00825416179055612940565b611679565b857f0f1800fbca5c51a50ca47d2d359d89a9872ebc0d41b791582770add9d9d7e7bc838761048d60405192839283612ce2565b503461024b57602060031936011261024b5760043563ffffffff80821691828103610c3a5761174461258d565b600254918260201c168084106117ab57847f50b3808988e8880c34e4b58088d8eeeb40410dd2a2238a299db9187644259b05602086807fffffffffffffffffffffffffffffffffffffffffffffffffffffffff00000000881617600255604051908152a180f35b6040517fc564bfaf00000000000000000000000000000000000000000000000000000000815263ffffffff918216600482015291166024820152604490fd5b503461024b578060031936011261024b5761180361258d565b600073ffffffffffffffffffffffffffffffffffffffff81547fffffffffffffffffffffffff000000000000000000000000000000000000000081168355167f8be0079c531659141344cd1fd0a4f28419497f9722a3daafe3b4186f6b6457e08280a380f35b503461024b578060031936011261024b57602060025463ffffffff60405191831c168152f35b503461024b57604060031936011261024b5760243567ffffffffffffffff811161052f576118c1903690600401612367565b9190600260015414611ba55760026001556004358252600960205260408220926118ed610f9285612e3b565b73ffffffffffffffffffffffffffffffffffffffff600285015416906004358452600b60205260408420600185526020526040842054906004358552600b602052604085208580526020526040852054936004358652600b60205260408620600287526020526040862054843b15611ba1579160ff97918795936040519788967f8601320b00000000000000000000000000000000000000000000000000000000885260a06004890152855463ffffffff9081811660a48b0152818160201c1660c48b0152818160401c1660e48b015260601c16610104890152600186015461012489015261012061014489015260056119ee6101c48a0160028901613288565b96600481019d8e5473ffffffffffffffffffffffffffffffffffffffff81166101648d015260a01c16611a2081612480565b6101848b015201957fffffffffffffffffffffffffffffffffffffffffffffffffffffffffffffff5c898203016101a48a01528654808252602082019160208260051b820101988c5260208c20928c915b838310611b625750505050509387959193611aaa9387958b97602488015260448701526064860152600319858403016084860152612679565b03925af18015611b5757611b2b575b5090740100000000000000000000000000000000000000007fffffffffffffffffffffff00ffffffffffffffffffffffffffffffffffffffff8254161790557f712ae1383f79ac853f8d882153778e0260ef8f03b504e2866e0593e04d2b291f60206040516004358152a16001805580f35b67ffffffffffffffff8111611b435760405238611ab9565b602482634e487b7160e01b81526041600452fd5b6040513d84823e3d90fd5b929597996001929597999b9d50849c50611b8a8160209396601f198760029503018852613288565b9c01930193018d9b999795938d9b99979592611a71565b8680fd5b60646040517f08c379a000000000000000000000000000000000000000000000000000000000815260206004820152601f60248201527f5265656e7472616e637947756172643a207265656e7472616e742063616c6c006044820152fd5b503461024b5760208060031936011261052f5760043567ffffffffffffffff8111610f0e57611c36903690600401612395565b611c4192919261258d565b611c4c368285612c8c565b90815115610e0957845b8251811015611cbe578073ffffffffffffffffffffffffffffffffffffffff611c82611cb99386612965565b5116875260088552604087207fffffffffffffffffffffffffffffffffffffffffffffffffffffffffffffff008154169055612940565b611c56565b857f2befc5f117311dbd6cabfd7bc4cec09eeefc83a55c9140bbf298951571f5cb86838761048d60405192839283612ce2565b503461024b57604060031936011261024b576004356024359073ffffffffffffffffffffffffffffffffffffffff8216809203610f0e578260ff92826040936020965260098652611d46610f92858520612e3b565b8252600a855282822090825284522054166040519015158152f35b503461024b57602060031936011261024b57600435611d7e61258d565b8082526009602052600460408320611d98610f9282612e3b565b019081549060ff8260a01c16611dad81612480565b6113a5577f416e669c63d9a3a5e36ee7cc7e2104b8db28ccd286aa18966e98fa230c73b08c92740200000000000000000000000000000000000000007fffffffffffffffffffffff00ffffffffffffffffffffffffffffffffffffffff60209416179055604051908152a180f35b503461024b576020908160031936011261024b576004358082526009835282611e4660408420612e3b565b91611e5083612f28565b73ffffffffffffffffffffffffffffffffffffffff60a08401515116818552600b835260408520600186528352611ef0604086205494838752600b85526040872087805285526040872054938752600b855260408720600288528552604087205495604051968795869485947f0b26b0290000000000000000000000000000000000000000000000000000000086526080600487015260848601906124a0565b9260248501526044840152606483015203915afa908115611b57578291611f39575b50604051916007821015611f2557508152f35b80634e487b7160e01b602492526021600452fd5b90508281813d8311611f68575b611f5081836126ef565b8101031261052f5751600781101561052f5738611f12565b503d611f46565b503461024b578060031936011261024b57602063ffffffff60055416604051908152f35b503461024b5760208060031936011261052f5767ffffffffffffffff9160043583811161052f57611fc8903690600401612395565b92611fd161258d565b611fdc368584612bdf565b91825115610e0957949392919082955b82519660ff8082169889101561214457806120156120559261200e8c89612965565b511661298f565b507fffffffffffffffffffffffff0000000000000000000000000000000000000000815416905561200e6040519a61204c8c6126d3565b888c5287612965565b50885160019182019189821161213057612079826120738554612a03565b85612a54565b859a601f83116001146120c95782899a9b9c81926120b198999a9b936120bc575b505060001991921b9260031b1c1916179055612c7b565b959493929190611fec565b015191506000193861209a565b601f19839293169b848a52878a20918d8b905b811061211a5750836120b198999a9b9c9d9e10612101575b505050811b019055612c7b565b015160001960f88460031b161c191690553880806120f4565b818301518455928501929189019189018e6120dc565b602488634e487b7160e01b81526041600452fd5b857f24c5d4b9c170a0ef0634046f1a7a184dd341c99da7242482e42cc2782076cea3888561048d60405192839283612c35565b503461024b578060031936011261024b576020600354604051908152f35b503461024b57602060031936011261024b5760043563ffffffff811680910361052f5760207fba76433d63148cc0d7df02d39ab5cddf8737df279d4af4c7bce819a2ef719e95916121e461258d565b807fffffffffffffffffffffffffffffffffffffffffffffffffffffffff000000006005541617600555604051908152a180f35b503461024b57602060031936011261024b5760043567ffffffffffffffff811161052f5761226b7f48674fffb03fee00a113cc146f3aa94a9720a4cb3839fbb855c436859d39a977913690600401612367565b61227361258d565b61048d604051928392602084526020840191612679565b503461024b57602060031936011261024b5760043563ffffffff80821691828103610c3a576122b761258d565b6002549182168084116123285750916020917fffffffffffffffffffffffffffffffffffffffffffffffff00000000ffffffff67ffffffff000000007fa596cfacd06610b4e094472b3f6712f263b9a8af5fbd18924780c678a4fc55e695851b16911617600255604051908152a180f35b6040517fc564bfaf00000000000000000000000000000000000000000000000000000000815263ffffffff928316600482015291166024820152604490fd5b9181601f840112156102335782359167ffffffffffffffff8311610233576020838186019501011161023357565b9181601f840112156102335782359167ffffffffffffffff8311610233576020808501948460051b01011161023357565b6004359073ffffffffffffffffffffffffffffffffffffffff8216820361023357565b359073ffffffffffffffffffffffffffffffffffffffff8216820361023357565b919082519283825260005b848110612436575050601f19601f8460006020809697860101520116010190565b602081830181015184830182015201612415565b906040602061247d9373ffffffffffffffffffffffffffffffffffffffff8151168452015191816020820152019061240a565b90565b6003111561248a57565b634e487b7160e01b600052602160045260246000fd5b9063ffffffff808351168252602090808285015116828401528060408501511660408401526060840151166060830152608083015160808301526124f360a08401516101208060a086015284019061244a565b9173ffffffffffffffffffffffffffffffffffffffff60c08501511660c082015260e084015161252281612480565b60e082015261010080940151938184039101528251908183528083019281808460051b8301019501936000915b84831061255f5750505050505090565b909192939495848061257d83601f1986600196030187528a5161244a565b980193019301919493929061254f565b73ffffffffffffffffffffffffffffffffffffffff6000541633036125ae57565b60646040517f08c379a000000000000000000000000000000000000000000000000000000000815260206004820152602060248201527f4f776e61626c653a2063616c6c6572206973206e6f7420746865206f776e65726044820152fd5b6000549073ffffffffffffffffffffffffffffffffffffffff80911691827fffffffffffffffffffffffff0000000000000000000000000000000000000000821617600055167f8be0079c531659141344cd1fd0a4f28419497f9722a3daafe3b4186f6b6457e0600080a3565b601f8260209493601f19938186528686013760008582860101520116010190565b6040810190811067ffffffffffffffff8211176114e157604052565b610120810190811067ffffffffffffffff8211176114e157604052565b6020810190811067ffffffffffffffff8211176114e157604052565b90601f601f19910116810190811067ffffffffffffffff8211176114e157604052565b67ffffffffffffffff81116114e15760051b60200190565b92919267ffffffffffffffff82116114e157604051916127546020601f19601f84011601846126ef565b829481845281830111610233578281602093846000960137010152565b9080601f830112156102335781602061247d9335910161272a565b9092919261279981612712565b916040916127a9835194856126ef565b839581855260208095019160051b8301938185116102335783925b8584106127d45750505050505050565b67ffffffffffffffff9084358281116102335786019083828603126102335783516127fe8161269a565b612807836123e9565b81528983013593841161023357612822868b95869501612771565b838201528152019301926127c4565b90357fffffffffffffffffffffffffffffffffffffffffffffffffffffffffffffffe18236030181121561023357016020813591019167ffffffffffffffff821161023357813603831361023357565b9080835260208093019081938160051b83019484600080925b8584106128ac57505050505050505090565b9091929394959697818103885288357fffffffffffffffffffffffffffffffffffffffffffffffffffffffffffffffc185360301811215610c3a578661293060019361291f8884950173ffffffffffffffffffffffffffffffffffffffff612913826123e9565b16835284810190612831565b909160409081868201520191612679565b9a0198019695940192919061289a565b600019811461294f5760010190565b634e487b7160e01b600052601160045260246000fd5b80518210156129795760209160051b010190565b634e487b7160e01b600052603260045260246000fd5b60065481101561297957600660005260011b7ff652222313e28459528d920b65115c16c04f3efc82aaedc97be59f3f377c0d3f0190600090565b60075481101561297957600760005260011b7fa66cc928b5edb82af9bd49922954155ab7b0942694bea4ce44661d9a8736c6880190600090565b90600182811c92168015612a33575b6020831014612a1d57565b634e487b7160e01b600052602260045260246000fd5b91607f1691612a12565b818110612a48575050565b60008155600101612a3d565b9190601f8111612a6357505050565b612a8f926000526020600020906020601f840160051c83019310612a91575b601f0160051c0190612a3d565b565b9091508190612a82565b9073ffffffffffffffffffffffffffffffffffffffff8151167fffffffffffffffffffffffff00000000000000000000000000000000000000008354161782556001809201916020809201519182519267ffffffffffffffff84116114e157612b0e84612b088754612a03565b87612a54565b81601f8511600114612b475750600091849182612b3a575b505060001991921b9260031b1c1916179055565b0151915060001938612b26565b919084601f19819596168760005284600020946000905b88838310612b925750505010612b79575b505050811b019055565b015160001960f88460031b161c19169055388080612b6f565b858701518855909601959485019487935090810190612b5e565b9190612bbb57612a8f91612a9b565b634e487b7160e01b600052600060045260246000fd5b359060ff8216820361023357565b9291612bea82612712565b91612bf860405193846126ef565b829481845260208094019160051b810192831161023357905b828210612c1e5750505050565b838091612c2a84612bd1565b815201910190612c11565b90916040602092828482018583525201929160005b828110612c58575050505090565b90919293828060019260ff612c6c89612bd1565b16815201950193929101612c4a565b60ff1660ff811461294f5760010190565b9291612c9782612712565b91612ca560405193846126ef565b829481845260208094019160051b810192831161023357905b828210612ccb5750505050565b838091612cd7846123e9565b815201910190612cbe565b90916040602092828482018583525201929160005b828110612d05575050505090565b90919293828060019273ffffffffffffffffffffffffffffffffffffffff612d2c896123e9565b16815201950193929101612cf7565b9060009291805491612d4c83612a03565b918282526001938481169081600014612dae5750600114612d6e575b50505050565b90919394506000526020928360002092846000945b838610612d9a575050505001019038808080612d68565b805485870183015294019385908201612d83565b91505060209495507fffffffffffffffffffffffffffffffffffffffffffffffffffffffffffffff009193501683830152151560051b01019038808080612d68565b9060016020604051612e018161269a565b612e37819573ffffffffffffffffffffffffffffffffffffffff8154168352612e306040518096819301612d3b565b03846126ef565b0152565b9060405191612e49836126b6565b8281549163ffffffff80841683526020938181861c1685850152818160401c16604085015260601c1660608301526001908181015460808401526005600291612e93838201612df0565b60a086015260ff600482015473ffffffffffffffffffffffffffffffffffffffff811660c088015260a01c16612ec881612480565b60e08601520190815491612edb83612712565b95612ee960405197886126ef565b83875260009182528082208188015b858410612f0d57505050505050506101000152565b84838892612f1a85612df0565b815201920193019290612ef8565b6020015163ffffffff1615612f3957565b60046040517fee032808000000000000000000000000000000000000000000000000000000008152fd5b3560ff811681036102335790565b91909163ffffffff8080941691160191821161294f57565b9035907fffffffffffffffffffffffffffffffffffffffffffffffffffffffffffffffe181360301821215610233570180359067ffffffffffffffff82116102335760200191813603831361023357565b336000526008602052600160ff60406000205416151503612ff757565b60246040517f633854de000000000000000000000000000000000000000000000000000000008152336004820152fd5b60075460ff821690811015613089575061305573ffffffffffffffffffffffffffffffffffffffff916129c9565b5054161561305f57565b60046040517f22972845000000000000000000000000000000000000000000000000000000008152fd5b602490604051907f6b45b8f90000000000000000000000000000000000000000000000000000000082526004820152fd5b909291926130c781612712565b916040916130d7835194856126ef565b839581855260208095019160051b8301938185116102335783925b8584106131025750505050505050565b67ffffffffffffffff90843582811161023357860190838286031261023357835161312c8161269a565b61313583612bd1565b81528983013593841161023357613150868b95869501612771565b838201528152019301926130f2565b91908110156129795760051b810135907fffffffffffffffffffffffffffffffffffffffffffffffffffffffffffffffc181360301821215610233570190565b93919273ffffffffffffffffffffffffffffffffffffffff61247d969463ffffffff6131df9416875216602086015260806040860152608085019061240a565b926060818503910152612679565b9190820180921161294f57565b90600282511061328457600091825b815184101561327e5760ff906001826132228786612965565b5151161b918282166132405750179261323a90612940565b92613209565b60249061324d8786612965565b515116604051907f1ed4de830000000000000000000000000000000000000000000000000000000082526004820152fd5b50509050565b9050565b6001604061247d9373ffffffffffffffffffffffffffffffffffffffff8454168152816020820152019101612d3b565b90808214613391576132ca8154612a03565b9067ffffffffffffffff82116114e15781906132f0826132ea8654612a03565b86612a54565b600090601f83116001146133265760009261331b575b50506000198260011b9260031b1c1916179055565b015490503880613306565b91601f1916918152602091828220908583528383209383905b82821061337857505090846001959493921061335f57505050811b019055565b015460001960f88460031b161c19169055388080612b6f565b849581929585015481556001809101960194019061333f565b505056fea164736f6c6343000812000aa164736f6c6343000812000a",
    "linkReferences": {}
  },
  "methodIdentifiers": {
    "createSpace(address,uint32,uint32,uint32,uint256,string,(address,bytes)[],bytes[],address[],(address,bytes)[],bytes32)": "08127789"
  },
  "id": 44
}