{
  "abi": [
    {
      "inputs": [],
      "stateMutability": "nonpayable",
      "type": "constructor"
    },
    {
      "inputs": [],
      "name": "DuplicateExecutionPayloadHash",
      "type": "error"
    },
    {
      "inputs": [],
      "name": "ExecutionFailed",
      "type": "error"
    },
    {
      "inputs": [
        {
          "internalType": "enum ProposalStatus",
          "name": "status",
          "type": "uint8"
        }
      ],
      "name": "InvalidProposalStatus",
      "type": "error"
    },
    {
      "inputs": [],
      "name": "InvalidSpace",
      "type": "error"
    },
    {
      "inputs": [],
      "name": "OnlyVetoGuardian",
      "type": "error"
    },
    {
      "inputs": [],
      "name": "ProposalNotQueued",
      "type": "error"
    },
    {
      "inputs": [],
      "name": "TimelockDelayNotMet",
      "type": "error"
    },
    {
      "anonymous": false,
      "inputs": [
        {
          "indexed": false,
          "internalType": "uint8",
          "name": "version",
          "type": "uint8"
        }
      ],
      "name": "Initialized",
      "type": "event"
    },
    {
      "anonymous": false,
      "inputs": [
        {
          "indexed": true,
          "internalType": "address",
          "name": "previousOwner",
          "type": "address"
        },
        {
          "indexed": true,
          "internalType": "address",
          "name": "newOwner",
          "type": "address"
        }
      ],
      "name": "OwnershipTransferred",
      "type": "event"
    },
    {
      "anonymous": false,
      "inputs": [
        {
          "indexed": false,
          "internalType": "bytes32",
          "name": "executionPayloadHash",
          "type": "bytes32"
        }
      ],
      "name": "ProposalExecuted",
      "type": "event"
    },
    {
      "anonymous": false,
      "inputs": [
        {
          "indexed": false,
          "internalType": "bytes32",
          "name": "executionPayloadHash",
          "type": "bytes32"
        }
      ],
      "name": "ProposalQueued",
      "type": "event"
    },
    {
      "anonymous": false,
      "inputs": [
        {
          "indexed": false,
          "internalType": "bytes32",
          "name": "executionPayloadHash",
          "type": "bytes32"
        }
      ],
      "name": "ProposalVetoed",
      "type": "event"
    },
    {
      "anonymous": false,
      "inputs": [
        {
          "indexed": false,
          "internalType": "uint256",
          "name": "newQuorum",
          "type": "uint256"
        }
      ],
      "name": "QuorumUpdated",
      "type": "event"
    },
    {
      "anonymous": false,
      "inputs": [
        {
          "indexed": false,
          "internalType": "address",
          "name": "space",
          "type": "address"
        }
      ],
      "name": "SpaceDisabled",
      "type": "event"
    },
    {
      "anonymous": false,
      "inputs": [
        {
          "indexed": false,
          "internalType": "address",
          "name": "space",
          "type": "address"
        }
      ],
      "name": "SpaceEnabled",
      "type": "event"
    },
    {
      "anonymous": false,
      "inputs": [
        {
          "indexed": false,
          "internalType": "uint256",
          "name": "timelockDelay",
          "type": "uint256"
        },
        {
          "indexed": false,
          "internalType": "uint256",
          "name": "newTimelockDelay",
          "type": "uint256"
        }
      ],
      "name": "TimelockDelaySet",
      "type": "event"
    },
    {
      "anonymous": false,
      "inputs": [
        {
          "indexed": false,
          "internalType": "address",
          "name": "owner",
          "type": "address"
        },
        {
          "indexed": false,
          "internalType": "address",
          "name": "vetoGuardian",
          "type": "address"
        },
        {
          "indexed": false,
          "internalType": "address[]",
          "name": "spaces",
          "type": "address[]"
        },
        {
          "indexed": false,
          "internalType": "uint256",
          "name": "quorum",
          "type": "uint256"
        },
        {
          "indexed": false,
          "internalType": "uint256",
          "name": "timelockDelay",
          "type": "uint256"
        }
      ],
      "name": "TimelockExecutionStrategySetUp",
      "type": "event"
    },
    {
      "anonymous": false,
      "inputs": [
        {
          "components": [
            {
              "internalType": "address",
              "name": "to",
              "type": "address"
            },
            {
              "internalType": "uint256",
              "name": "value",
              "type": "uint256"
            },
            {
              "internalType": "bytes",
              "name": "data",
              "type": "bytes"
            },
            {
              "internalType": "enum Enum.Operation",
              "name": "operation",
              "type": "uint8"
            },
            {
              "internalType": "uint256",
              "name": "salt",
              "type": "uint256"
            }
          ],
          "indexed": false,
          "internalType": "struct MetaTransaction",
          "name": "transaction",
          "type": "tuple"
        }
      ],
      "name": "TransactionExecuted",
      "type": "event"
    },
    {
      "anonymous": false,
      "inputs": [
        {
          "components": [
            {
              "internalType": "address",
              "name": "to",
              "type": "address"
            },
            {
              "internalType": "uint256",
              "name": "value",
              "type": "uint256"
            },
            {
              "internalType": "bytes",
              "name": "data",
              "type": "bytes"
            },
            {
              "internalType": "enum Enum.Operation",
              "name": "operation",
              "type": "uint8"
            },
            {
              "internalType": "uint256",
              "name": "salt",
              "type": "uint256"
            }
          ],
          "indexed": false,
          "internalType": "struct MetaTransaction",
          "name": "transaction",
          "type": "tuple"
        },
        {
          "indexed": false,
          "internalType": "uint256",
          "name": "executionTime",
          "type": "uint256"
        }
      ],
      "name": "TransactionQueued",
      "type": "event"
    },
    {
      "anonymous": false,
      "inputs": [
        {
          "indexed": false,
          "internalType": "address",
          "name": "vetoGuardian",
          "type": "address"
        },
        {
          "indexed": false,
          "internalType": "address",
          "name": "newVetoGuardian",
          "type": "address"
        }
      ],
      "name": "VetoGuardianSet",
      "type": "event"
    },
    {
      "inputs": [
        {
          "internalType": "address",
          "name": "space",
          "type": "address"
        }
      ],
      "name": "disableSpace",
      "outputs": [],
      "stateMutability": "nonpayable",
      "type": "function"
    },
    {
      "inputs": [
        {
          "internalType": "address",
          "name": "space",
          "type": "address"
        }
      ],
      "name": "enableSpace",
      "outputs": [],
      "stateMutability": "nonpayable",
      "type": "function"
    },
    {
      "inputs": [
        {
          "components": [
            {
              "internalType": "address",
              "name": "author",
              "type": "address"
            },
            {
              "internalType": "uint32",
              "name": "startBlockNumber",
              "type": "uint32"
            },
            {
              "internalType": "contract IExecutionStrategy",
              "name": "executionStrategy",
              "type": "address"
            },
            {
              "internalType": "uint32",
              "name": "minEndBlockNumber",
              "type": "uint32"
            },
            {
              "internalType": "uint32",
              "name": "maxEndBlockNumber",
              "type": "uint32"
            },
            {
              "internalType": "enum FinalizationStatus",
              "name": "finalizationStatus",
              "type": "uint8"
            },
            {
              "internalType": "bytes32",
              "name": "executionPayloadHash",
              "type": "bytes32"
            },
            {
              "internalType": "uint256",
              "name": "activeVotingStrategies",
              "type": "uint256"
            }
          ],
          "internalType": "struct Proposal",
          "name": "proposal",
          "type": "tuple"
        },
        {
          "internalType": "uint256",
          "name": "votesFor",
          "type": "uint256"
        },
        {
          "internalType": "uint256",
          "name": "votesAgainst",
          "type": "uint256"
        },
        {
          "internalType": "uint256",
          "name": "votesAbstain",
          "type": "uint256"
        },
        {
          "internalType": "bytes",
          "name": "payload",
          "type": "bytes"
        }
      ],
      "name": "execute",
      "outputs": [],
      "stateMutability": "nonpayable",
      "type": "function"
    },
    {
      "inputs": [
        {
          "internalType": "bytes",
          "name": "payload",
          "type": "bytes"
        }
      ],
      "name": "executeQueuedProposal",
      "outputs": [],
      "stateMutability": "nonpayable",
      "type": "function"
    },
    {
      "inputs": [
        {
          "components": [
            {
              "internalType": "address",
              "name": "author",
              "type": "address"
            },
            {
              "internalType": "uint32",
              "name": "startBlockNumber",
              "type": "uint32"
            },
            {
              "internalType": "contract IExecutionStrategy",
              "name": "executionStrategy",
              "type": "address"
            },
            {
              "internalType": "uint32",
              "name": "minEndBlockNumber",
              "type": "uint32"
            },
            {
              "internalType": "uint32",
              "name": "maxEndBlockNumber",
              "type": "uint32"
            },
            {
              "internalType": "enum FinalizationStatus",
              "name": "finalizationStatus",
              "type": "uint8"
            },
            {
              "internalType": "bytes32",
              "name": "executionPayloadHash",
              "type": "bytes32"
            },
            {
              "internalType": "uint256",
              "name": "activeVotingStrategies",
              "type": "uint256"
            }
          ],
          "internalType": "struct Proposal",
          "name": "proposal",
          "type": "tuple"
        },
        {
          "internalType": "uint256",
          "name": "votesFor",
          "type": "uint256"
        },
        {
          "internalType": "uint256",
          "name": "votesAgainst",
          "type": "uint256"
        },
        {
          "internalType": "uint256",
          "name": "votesAbstain",
          "type": "uint256"
        }
      ],
      "name": "getProposalStatus",
      "outputs": [
        {
          "internalType": "enum ProposalStatus",
          "name": "",
          "type": "uint8"
        }
      ],
      "stateMutability": "view",
      "type": "function"
    },
    {
      "inputs": [],
      "name": "getStrategyType",
      "outputs": [
        {
          "internalType": "string",
          "name": "",
          "type": "string"
        }
      ],
      "stateMutability": "pure",
      "type": "function"
    },
    {
      "inputs": [
        {
          "internalType": "address",
          "name": "space",
          "type": "address"
        }
      ],
      "name": "isSpaceEnabled",
      "outputs": [
        {
          "internalType": "uint256",
          "name": "",
          "type": "uint256"
        }
      ],
      "stateMutability": "view",
      "type": "function"
    },
    {
      "inputs": [
        {
          "internalType": "address",
          "name": "",
          "type": "address"
        },
        {
          "internalType": "address",
          "name": "",
          "type": "address"
        },
        {
          "internalType": "uint256[]",
          "name": "",
          "type": "uint256[]"
        },
        {
          "internalType": "uint256[]",
          "name": "",
          "type": "uint256[]"
        },
        {
          "internalType": "bytes",
          "name": "",
          "type": "bytes"
        }
      ],
      "name": "onERC1155BatchReceived",
      "outputs": [
        {
          "internalType": "bytes4",
          "name": "",
          "type": "bytes4"
        }
      ],
      "stateMutability": "pure",
      "type": "function"
    },
    {
      "inputs": [
        {
          "internalType": "address",
          "name": "",
          "type": "address"
        },
        {
          "internalType": "address",
          "name": "",
          "type": "address"
        },
        {
          "internalType": "uint256",
          "name": "",
          "type": "uint256"
        },
        {
          "internalType": "uint256",
          "name": "",
          "type": "uint256"
        },
        {
          "internalType": "bytes",
          "name": "",
          "type": "bytes"
        }
      ],
      "name": "onERC1155Received",
      "outputs": [
        {
          "internalType": "bytes4",
          "name": "",
          "type": "bytes4"
        }
      ],
      "stateMutability": "pure",
      "type": "function"
    },
    {
      "inputs": [
        {
          "internalType": "address",
          "name": "",
          "type": "address"
        },
        {
          "internalType": "address",
          "name": "",
          "type": "address"
        },
        {
          "internalType": "uint256",
          "name": "",
          "type": "uint256"
        },
        {
          "internalType": "bytes",
          "name": "",
          "type": "bytes"
        }
      ],
      "name": "onERC721Received",
      "outputs": [
        {
          "internalType": "bytes4",
          "name": "",
          "type": "bytes4"
        }
      ],
      "stateMutability": "pure",
      "type": "function"
    },
    {
      "inputs": [],
      "name": "owner",
      "outputs": [
        {
          "internalType": "address",
          "name": "",
          "type": "address"
        }
      ],
      "stateMutability": "view",
      "type": "function"
    },
    {
      "inputs": [
        {
          "internalType": "bytes32",
          "name": "",
          "type": "bytes32"
        }
      ],
      "name": "proposalExecutionTime",
      "outputs": [
        {
          "internalType": "uint256",
          "name": "",
          "type": "uint256"
        }
      ],
      "stateMutability": "view",
      "type": "function"
    },
    {
      "inputs": [],
      "name": "quorum",
      "outputs": [
        {
          "internalType": "uint256",
          "name": "",
          "type": "uint256"
        }
      ],
      "stateMutability": "view",
      "type": "function"
    },
    {
      "inputs": [],
      "name": "renounceOwnership",
      "outputs": [],
      "stateMutability": "nonpayable",
      "type": "function"
    },
    {
      "inputs": [
        {
          "internalType": "uint256",
          "name": "_quorum",
          "type": "uint256"
        }
      ],
      "name": "setQuorum",
      "outputs": [],
      "stateMutability": "nonpayable",
      "type": "function"
    },
    {
      "inputs": [
        {
          "internalType": "uint256",
          "name": "newTimelockDelay",
          "type": "uint256"
        }
      ],
      "name": "setTimelockDelay",
      "outputs": [],
      "stateMutability": "nonpayable",
      "type": "function"
    },
    {
      "inputs": [
        {
          "internalType": "bytes",
          "name": "initParams",
          "type": "bytes"
        }
      ],
      "name": "setUp",
      "outputs": [],
      "stateMutability": "nonpayable",
      "type": "function"
    },
    {
      "inputs": [
        {
          "internalType": "address",
          "name": "newVetoGuardian",
          "type": "address"
        }
      ],
      "name": "setVetoGuardian",
      "outputs": [],
      "stateMutability": "nonpayable",
      "type": "function"
    },
    {
      "inputs": [
        {
          "internalType": "bytes4",
          "name": "interfaceId",
          "type": "bytes4"
        }
      ],
      "name": "supportsInterface",
      "outputs": [
        {
          "internalType": "bool",
          "name": "",
          "type": "bool"
        }
      ],
      "stateMutability": "pure",
      "type": "function"
    },
    {
      "inputs": [],
      "name": "timelockDelay",
      "outputs": [
        {
          "internalType": "uint256",
          "name": "",
          "type": "uint256"
        }
      ],
      "stateMutability": "view",
      "type": "function"
    },
    {
      "inputs": [
        {
          "internalType": "address",
          "name": "newOwner",
          "type": "address"
        }
      ],
      "name": "transferOwnership",
      "outputs": [],
      "stateMutability": "nonpayable",
      "type": "function"
    },
    {
      "inputs": [
        {
          "internalType": "bytes32",
          "name": "executionPayloadHash",
          "type": "bytes32"
        }
      ],
      "name": "veto",
      "outputs": [],
      "stateMutability": "nonpayable",
      "type": "function"
    },
    {
      "inputs": [],
      "name": "vetoGuardian",
      "outputs": [
        {
          "internalType": "address",
          "name": "",
          "type": "address"
        }
      ],
      "stateMutability": "view",
      "type": "function"
    },
    {
      "stateMutability": "payable",
      "type": "receive"
    }
  ],
  "bytecode": {
    "object": "0x60803462000456576020818101916001600160401b03919082841181851017620004405760409384526000808252845193838501926001938481528787019085825262000059606089019360a0855260c08a01906200047f565b9060808901908682526200007e8a60a081019489865203601f1981018c528b6200045b565b86549560ff9a8b8860081c16159788809962000434575b80156200041d575b15620003c25760ff1981168b178a5588620003b0575b50805181019260a0828d8601950312620003ac57620000d6620000dd91620004be565b96620004be565b965190828211620003ac570182603f82011215620003a8578a8101519182116200039457918c96959493918b93600598828a1b92620001218251978501886200045b565b86528d86019282010192831162000390578e01905b8282106200036b575050505191519260018060a01b03808092169516956200016f8c8a5460081c166200016981620004d3565b620004d3565b6200017a3362000534565b3382603354160362000329578515620002d65789808e620001be8f620001a08b62000534565b606980546001600160a01b0319168d1790558d5460081c16620004d3565b8b925b62000288575b5050505050906200022c7fc15fd8084157f309d865272ffc01c8742c26ee07705ca85106f5f79293352dad959493926200020889549c8d60081c16620004d3565b83606655826067558c5195869586528b86015260a08d86015260a08501906200047f565b91606084015260808301520390a16200024f575b8451611b1f90816200057e8239f35b7f7f26b83ff96e1f2b6a682f133852f6798a09c465da95921460cefb38474024989361ff00191690558351908152a13880808062000240565b8d8651841015620002cf5783851b870181015186168d52606590528b20556000198114620002bb578a018a8e81620001c1565b634e487b7160e01b8a52601160045260248afd5b50620001c7565b8c5162461bcd60e51b8152600481018c9052602660248201527f4f776e61626c653a206e6577206f776e657220697320746865207a65726f206160448201526564647265737360d01b6064820152608490fd5b60648b8e519062461bcd60e51b825280600483015260248201527f4f776e61626c653a2063616c6c6572206973206e6f7420746865206f776e65726044820152fd5b81516001600160a01b03811681036200038c578152908c01908c0162000136565b8b80fd5b8a80fd5b634e487b7160e01b89526041600452602489fd5b8880fd5b8980fd5b61ffff191661010117895538620000b3565b8d5162461bcd60e51b8152600481018d9052602e60248201527f496e697469616c697a61626c653a20636f6e747261637420697320616c72656160448201526d191e481a5b9a5d1a585b1a5e995960921b6064820152608490fd5b50303b1580156200009d57508a8d8216146200009d565b508a8d82161062000095565b634e487b7160e01b600052604160045260246000fd5b600080fd5b601f909101601f19168101906001600160401b038211908210176200044057604052565b90815180825260208080930193019160005b828110620004a0575050505090565b83516001600160a01b03168552938101939281019260010162000491565b51906001600160a01b03821682036200045657565b15620004db57565b60405162461bcd60e51b815260206004820152602b60248201527f496e697469616c697a61626c653a20636f6e7472616374206973206e6f74206960448201526a6e697469616c697a696e6760a81b6064820152608490fd5b603380546001600160a01b039283166001600160a01b0319821681179092559091167f8be0079c531659141344cd1fd0a4f28419497f9722a3daafe3b4186f6b6457e0600080a356fe6080604081815260049081361015610022575b505050361561002057600080fd5b005b600092833560e01c90816301ffc9a71461123f575080630eb9b15a146111a257806312513b451461116d578063150b7a02146110fd5780631703a018146110de578063220f5fd9146110455780632b06df5314610e375780634a1cead114610e0f5780636efd971c14610dcb578063715018a614610d4b5780638da5cb5b14610d165780639e33d81114610c92578063a4f9edbf1461080f578063ad32287f146105a6578063af267f8f14610552578063bc197c81146104af578063c1ba4e5914610461578063d92d4ea0146103a5578063ea8f8c4b1461035e578063eef09bad1461033b578063f23a6e61146102c8578063f2fde38b146101f85763fb6f93f90361001257346101f45760206003193601126101f45781359173ffffffffffffffffffffffffffffffffffffffff6069541633036101cd57828452606860205281842054156101a65750816020917f0c8bf601915d1f39ef591226bc69b3becc23fcb3616673c419062aa44beb42da93855260688352848181205551908152a180f35b90517f599fb1a3000000000000000000000000000000000000000000000000000000008152fd5b90517ffa5e8f94000000000000000000000000000000000000000000000000000000008152fd5b8280fd5b5090346101f45760206003193601126101f457610213611375565b9161021c611607565b73ffffffffffffffffffffffffffffffffffffffff831615610245578361024284611686565b80f35b90602060849251917f08c379a0000000000000000000000000000000000000000000000000000000008352820152602660248201527f4f776e61626c653a206e6577206f776e657220697320746865207a65726f206160448201527f64647265737300000000000000000000000000000000000000000000000000006064820152fd5b5082346103385760a0600319360112610338576102e3611375565b506102ec61139d565b506084359067ffffffffffffffff82116103385750602092610310913691016113c0565b5050517ff23a6e61000000000000000000000000000000000000000000000000000000008152f35b80fd5b83823461035a578160031936011261035a576020906067549051908152f35b5080fd5b83823461035a5761016060031936011261035a576103a19061039661038236611461565b6101443590610124359061010435906116f3565b9051918291826115c5565b0390f35b50346101f45760206003193601126101f45773ffffffffffffffffffffffffffffffffffffffff6103d4611375565b6103dc611607565b16918215801561044d575b6104265750816020917fc3dc08a46232e8d0a95510120799f1e68e0aa28c88730b8b0127d5ff4565b4b09385526065835260018186205551908152a180f35b90517fc3b48cf1000000000000000000000000000000000000000000000000000000008152fd5b5082845260656020528184205415156103e7565b5090346101f45760206003193601126101f4577ff18f88786aae85a652aadb99a82462616489a33370c9bcc7b245906812ef7cd19160209135906104a3611607565b8160665551908152a180f35b5082346103385760a0600319360112610338576104ca611375565b506104d361139d565b5067ffffffffffffffff9060443582811161035a576104f59036908601611594565b505060643582811161035a5761050e9036908601611594565b5050608435918211610338575060209261052a913691016113c0565b5050517fbc197c81000000000000000000000000000000000000000000000000000000008152f35b5090346101f45760206003193601126101f4577fe9a548e67315439ac624f727fe691585c5cce7759aa57bfbed0e8138cb90d41d903591610591611607565b6067548151908152836020820152a160675580f35b508234610338576020908160031936011261033857833567ffffffffffffffff811161035a576105d99036908601611557565b938451838601908120958684526068855285842054156107e757868452606885528584205442106107bf5790846106209288865260688252858881205580510101906118ac565b91805b83518110156107925760606106388286611a4b565b51015160028110156107665760010361070e57818073ffffffffffffffffffffffffffffffffffffffff61066c8488611a4b565b5151168861067a8589611a4b565b510151908882519201905af461068e611aec565b505b156106e657807f2968e6e48e1461dc6f6934a21a5ea27fad9b6786850ad93f47c2caa4f95fde136106d96106c76106e19488611a4b565b5189519182918a83528a830190611a8e565b0390a1611a1e565b610623565b8286517facfdb444000000000000000000000000000000000000000000000000000000008152fd5b818073ffffffffffffffffffffffffffffffffffffffff61072f8488611a4b565b5151168761073d8589611a4b565b510151908961074c868a611a4b565b510151918983519301915af1610760611aec565b50610690565b6024836021867f4e487b7100000000000000000000000000000000000000000000000000000000835252fd5b507f7b1bcf1ccf901a11589afff5504d59fd0a53780eed2a952adade0348985139e084878751908152a180f35b8286517f65aecf1d000000000000000000000000000000000000000000000000000000008152fd5b8286517f599fb1a3000000000000000000000000000000000000000000000000000000008152fd5b50346101f45760209081600319360112610c8e5767ffffffffffffffff908335828111610c8a576108439036908601611557565b9385549260ff95868560081c161592838094610c7e575b8015610c68575b15610be65760019584877fffffffffffffffffffffffffffffffffffffffffffffffffffffffffffffff008316178b55610bb8575b50815182019260a083898601950312610bb4576108b48884016117e8565b6108bf8785016117e8565b916060850151908111610bb057840185603f82011215610bb05789810151956108ef6108ea88611809565b6113ee565b918b8389815201908a829960051b820101928311610bac57908c8f99989796959493928c01915b838310610b84575050505060a060808601519501519361095f8d73ffffffffffffffffffffffffffffffffffffffff808096169616995460081c1661095a81611821565b611821565b61096833611686565b610970611607565b8315610b0257506109be8c8e61098a8695969a999a611686565b887fffffffffffffffffffffffff000000000000000000000000000000000000000060695416176069555460081c16611821565b898d80825b610ab7575b506109da9150549c8d60081c16611821565b836066558460675588519560a087019287528b87015260a0898701525180915260c0850195918c905b8a8c848410610a9f575050505050509282917fc15fd8084157f309d865272ffc01c8742c26ee07705ca85106f5f79293352dad94606084015260808301520390a1610a4c578480f35b7fffffffffffffffffffffffffffffffffffffffffffffffffffffffffffff00ff7f7f26b83ff96e1f2b6a682f133852f6798a09c465da95921460cefb38474024989416855551908152a1388080808480f35b855183168a5298890198909401939190910190610a03565b8d8c859b9a9b97969751831015610af557610ae7936065869389610adb878b611a4b565b51168352522055611a1e565b8e90829998999594956109c3565b50509897989493946109c8565b6084908c8b51917f08c379a0000000000000000000000000000000000000000000000000000000008352820152602660248201527f4f776e61626c653a206e6577206f776e657220697320746865207a65726f206160448201527f64647265737300000000000000000000000000000000000000000000000000006064820152fd5b82939495969798999a50610b9882936117e8565b81520191018c8f9998979695949392610916565b8e80fd5b8b80fd5b8980fd5b7fffffffffffffffffffffffffffffffffffffffffffffffffffffffffffff00001661010117895538610896565b608490878651917f08c379a0000000000000000000000000000000000000000000000000000000008352820152602e60248201527f496e697469616c697a61626c653a20636f6e747261637420697320616c72656160448201527f647920696e697469616c697a65640000000000000000000000000000000000006064820152fd5b50303b1580156108615750600188871614610861565b5060018887161061085a565b8580fd5b8380fd5b50346101f45760206003193601126101f45773ffffffffffffffffffffffffffffffffffffffff610cc1611375565b610cc9611607565b1691828452606560205281842054156104265750816020917f665604bfe8ee87044ba1f1fd2fb47fe92983c9e187acbb442debf97d3e58192193855260658352848181205551908152a180f35b83823461035a578160031936011261035a5760209073ffffffffffffffffffffffffffffffffffffffff603354169051908152f35b8334610338578060031936011261033857610d64611607565b8073ffffffffffffffffffffffffffffffffffffffff6033547fffffffffffffffffffffffff00000000000000000000000000000000000000008116603355167f8be0079c531659141344cd1fd0a4f28419497f9722a3daafe3b4186f6b6457e08280a380f35b83823461035a57602060031936011261035a578060209273ffffffffffffffffffffffffffffffffffffffff610dff611375565b1681526065845220549051908152f35b5090346101f45760206003193601126101f45760209282913581526068845220549051908152f35b5091346103385761018060031936011261033857610e5436611461565b926101643567ffffffffffffffff81116101f457610e759036908501611557565b9133815260209460658652828220541561101d57610e9e610144356101243561010435846116f3565b6007811015610ff157600381141580610fe6575b610faf575060c00193845182526068865282822054610f885750610ef7610edb606754426117ac565b93855183526068875284848420558680825183010191016118ac565b90805b8251811015610f5957807f43bc9641fb109444334c2b11fbab28e69b005b810a5449bbf63c36d64277ffe5610f47610f35610f549487611a4b565b51875191829189835289830190611a8e565b898c8301520390a1611a1e565b610efa565b507f4e8c9d52084f3373dec7c4e5c6bd10b8b97fe0a107841ed1de3fbc8f0cc9e984868487519051908152a180f35b82517fa65ca451000000000000000000000000000000000000000000000000000000008152fd5b85610fe285519283927fe6ace38e00000000000000000000000000000000000000000000000000000000845283016115c5565b0390fd5b506002811415610eb2565b6024836021887f4e487b7100000000000000000000000000000000000000000000000000000000835252fd5b8483517fc3b48cf1000000000000000000000000000000000000000000000000000000008152fd5b83823461035a57602060031936011261035a577fffffffffffffffffffffffff0000000000000000000000000000000000000000611081611375565b9161108a611607565b7fcf29bde14aae78ac738504abe3fd1a25675f3c52c42e5d2d7e85b549cd0c4b806069549180519473ffffffffffffffffffffffffffffffffffffffff9081851687521694856020820152a1161760695580f35b83823461035a578160031936011261035a576020906066549051908152f35b50823461033857608060031936011261033857611118611375565b5061112161139d565b506064359067ffffffffffffffff82116103385750602092611145913691016113c0565b5050517f150b7a02000000000000000000000000000000000000000000000000000000008152f35b83823461035a578160031936011261035a5760209073ffffffffffffffffffffffffffffffffffffffff606954169051908152f35b5082903461035a578160031936011261035a578051918183019083821067ffffffffffffffff83111761121357506103a193508152601482527f53696d706c6551756f72756d54696d656c6f636b000000000000000000000000602083015251918291602083526020830190611332565b806041867f4e487b71000000000000000000000000000000000000000000000000000000006024945252fd5b849084346101f45760206003193601126101f457357fffffffff0000000000000000000000000000000000000000000000000000000081168091036101f457602092507f150b7a020000000000000000000000000000000000000000000000000000000081149081156112e5575b81156112bb575b5015158152f35b7f01ffc9a700000000000000000000000000000000000000000000000000000000915014836112b4565b7f4e2312e000000000000000000000000000000000000000000000000000000000811491506112ad565b60005b8381106113225750506000910152565b8181015183820152602001611312565b907fffffffffffffffffffffffffffffffffffffffffffffffffffffffffffffffe0601f60209361136e8151809281875287808801910161130f565b0116010190565b6004359073ffffffffffffffffffffffffffffffffffffffff8216820361139857565b600080fd5b6024359073ffffffffffffffffffffffffffffffffffffffff8216820361139857565b9181601f840112156113985782359167ffffffffffffffff8311611398576020838186019501011161139857565b907fffffffffffffffffffffffffffffffffffffffffffffffffffffffffffffffe0601f604051930116820182811067ffffffffffffffff82111761143257604052565b7f4e487b7100000000000000000000000000000000000000000000000000000000600052604160045260246000fd5b61010091906003190182136113985760405191820182811067ffffffffffffffff821117611432576040528173ffffffffffffffffffffffffffffffffffffffff600435818116810361139857825263ffffffff90602435828116810361139857602084015260443590811681036113985760408301526064358181168103611398576060830152608435908116810361139857608082015260a43560038110156113985760a082015260c43560c082015260e060e435910152565b67ffffffffffffffff811161143257601f017fffffffffffffffffffffffffffffffffffffffffffffffffffffffffffffffe01660200190565b81601f82011215611398578035906115716108ea8361151d565b928284526020838301011161139857816000926020809301838601378301015290565b9181601f840112156113985782359167ffffffffffffffff8311611398576020808501948460051b01011161139857565b9190602083019260078210156115d85752565b7f4e487b7100000000000000000000000000000000000000000000000000000000600052602160045260246000fd5b73ffffffffffffffffffffffffffffffffffffffff60335416330361162857565b60646040517f08c379a000000000000000000000000000000000000000000000000000000000815260206004820152602060248201527f4f776e61626c653a2063616c6c6572206973206e6f7420746865206f776e65726044820152fd5b6033549073ffffffffffffffffffffffffffffffffffffffff80911691827fffffffffffffffffffffffff0000000000000000000000000000000000000000821617603355167f8be0079c531659141344cd1fd0a4f28419497f9722a3daafe3b4186f6b6457e0600080a3565b91909261170360665491856117ac565b101592836117a2575b505060a08101805160038110156115d85760020361172c57505050600690565b5160038110156115d857600103611744575050600490565b63ffffffff9081602082015116431060001461176257505050600090565b6060810151821643101561177857505050600190565b6080015116431015611793571561178e57600290565b600190565b1561179d57600390565b600590565b119150388061170c565b919082018092116117b957565b7f4e487b7100000000000000000000000000000000000000000000000000000000600052601160045260246000fd5b519073ffffffffffffffffffffffffffffffffffffffff8216820361139857565b67ffffffffffffffff81116114325760051b60200190565b1561182857565b60846040517f08c379a000000000000000000000000000000000000000000000000000000000815260206004820152602b60248201527f496e697469616c697a61626c653a20636f6e7472616374206973206e6f74206960448201527f6e697469616c697a696e670000000000000000000000000000000000000000006064820152fd5b602090818184031261139857805167ffffffffffffffff9182821161139857019083601f830112156113985781516118e66108ea82611809565b94848087848152019260051b8501019381851161139857858101925b858410611913575050505050505090565b83518581116113985782019060a090817fffffffffffffffffffffffffffffffffffffffffffffffffffffffffffffffe08487030112611398576040918251908082018281108a8211176119f057845261196e8b86016117e8565b8252838501518b830152606093848601518a81116113985786019088603f83011215611398578c820151916119a56108ea8461151d565b928084528a838284010111611398576119c4918f84908601910161130f565b83015260809081860151956002871015611398578c968796850152015190820152815201930192611902565b602460007f4e487b710000000000000000000000000000000000000000000000000000000081526041600452fd5b7fffffffffffffffffffffffffffffffffffffffffffffffffffffffffffffffff81146117b95760010190565b8051821015611a5f5760209160051b010190565b7f4e487b7100000000000000000000000000000000000000000000000000000000600052603260045260246000fd5b9073ffffffffffffffffffffffffffffffffffffffff825116815260208201516020820152611acc604083015160a0604084015260a0830190611332565b91606081015160028110156115d857606083015260809081015191015290565b3d15611b0d573d90611b006108ea8361151d565b9182523d6000602084013e565b60609056fea164736f6c6343000812000a",
    "linkReferences": {}
  },
  "methodIdentifiers": {
    "disableSpace(address)": "9e33d811",
    "enableSpace(address)": "d92d4ea0",
    "execute((address,uint32,address,uint32,uint32,uint8,bytes32,uint256),uint256,uint256,uint256,bytes)": "2b06df53",
    "executeQueuedProposal(bytes)": "ad32287f",
    "getProposalStatus((address,uint32,address,uint32,uint32,uint8,bytes32,uint256),uint256,uint256,uint256)": "ea8f8c4b",
    "getStrategyType()": "0eb9b15a",
    "isSpaceEnabled(address)": "6efd971c",
    "onERC1155BatchReceived(address,address,uint256[],uint256[],bytes)": "bc197c81",
    "onERC1155Received(address,address,uint256,uint256,bytes)": "f23a6e61",
    "onERC721Received(address,address,uint256,bytes)": "150b7a02",
    "owner()": "8da5cb5b",
    "proposalExecutionTime(bytes32)": "4a1cead1",
    "quorum()": "1703a018",
    "renounceOwnership()": "715018a6",
    "setQuorum(uint256)": "c1ba4e59",
    "setTimelockDelay(uint256)": "af267f8f",
    "setUp(bytes)": "a4f9edbf",
    "setVetoGuardian(address)": "220f5fd9",
    "supportsInterface(bytes4)": "01ffc9a7",
    "timelockDelay()": "eef09bad",
    "transferOwnership(address)": "f2fde38b",
    "veto(bytes32)": "fb6f93f9",
    "vetoGuardian()": "12513b45"
  },
  "id": 82
}