{
  "abi": [
    {
      "inputs": [],
      "stateMutability": "nonpayable",
      "type": "constructor"
    },
    {
      "inputs": [],
      "name": "DuplicateExecutionPayloadHash",
      "type": "error"
    },
    {
      "inputs": [],
      "name": "ExecutionFailed",
      "type": "error"
    },
    {
      "inputs": [
        {
          "internalType": "enum ProposalStatus",
          "name": "status",
          "type": "uint8"
        }
      ],
      "name": "InvalidProposalStatus",
      "type": "error"
    },
    {
      "inputs": [],
      "name": "InvalidSpace",
      "type": "error"
    },
    {
      "inputs": [],
      "name": "OnlyVetoGuardian",
      "type": "error"
    },
    {
      "inputs": [],
      "name": "ProposalNotQueued",
      "type": "error"
    },
    {
      "inputs": [],
      "name": "TimelockDelayNotMet",
      "type": "error"
    },
    {
      "anonymous": false,
      "inputs": [
        {
          "indexed": false,
          "internalType": "uint8",
          "name": "version",
          "type": "uint8"
        }
      ],
      "name": "Initialized",
      "type": "event"
    },
    {
      "anonymous": false,
      "inputs": [
        {
          "indexed": true,
          "internalType": "address",
          "name": "previousOwner",
          "type": "address"
        },
        {
          "indexed": true,
          "internalType": "address",
          "name": "newOwner",
          "type": "address"
        }
      ],
      "name": "OwnershipTransferred",
      "type": "event"
    },
    {
      "anonymous": false,
      "inputs": [
        {
          "indexed": false,
          "internalType": "bytes32",
          "name": "executionPayloadHash",
          "type": "bytes32"
        }
      ],
      "name": "ProposalExecuted",
      "type": "event"
    },
    {
      "anonymous": false,
      "inputs": [
        {
          "indexed": false,
          "internalType": "bytes32",
          "name": "executionPayloadHash",
          "type": "bytes32"
        }
      ],
      "name": "ProposalQueued",
      "type": "event"
    },
    {
      "anonymous": false,
      "inputs": [
        {
          "indexed": false,
          "internalType": "bytes32",
          "name": "executionPayloadHash",
          "type": "bytes32"
        }
      ],
      "name": "ProposalVetoed",
      "type": "event"
    },
    {
      "anonymous": false,
      "inputs": [
        {
          "indexed": false,
          "internalType": "uint256",
          "name": "newQuorum",
          "type": "uint256"
        }
      ],
      "name": "QuorumUpdated",
      "type": "event"
    },
    {
      "anonymous": false,
      "inputs": [
        {
          "indexed": false,
          "internalType": "address",
          "name": "space",
          "type": "address"
        }
      ],
      "name": "SpaceDisabled",
      "type": "event"
    },
    {
      "anonymous": false,
      "inputs": [
        {
          "indexed": false,
          "internalType": "address",
          "name": "space",
          "type": "address"
        }
      ],
      "name": "SpaceEnabled",
      "type": "event"
    },
    {
      "anonymous": false,
      "inputs": [
        {
          "indexed": false,
          "internalType": "uint256",
          "name": "timelockDelay",
          "type": "uint256"
        },
        {
          "indexed": false,
          "internalType": "uint256",
          "name": "newTimelockDelay",
          "type": "uint256"
        }
      ],
      "name": "TimelockDelaySet",
      "type": "event"
    },
    {
      "anonymous": false,
      "inputs": [
        {
          "indexed": false,
          "internalType": "address",
          "name": "owner",
          "type": "address"
        },
        {
          "indexed": false,
          "internalType": "address",
          "name": "vetoGuardian",
          "type": "address"
        },
        {
          "indexed": false,
          "internalType": "address[]",
          "name": "spaces",
          "type": "address[]"
        },
        {
          "indexed": false,
          "internalType": "uint256",
          "name": "quorum",
          "type": "uint256"
        },
        {
          "indexed": false,
          "internalType": "uint256",
          "name": "timelockDelay",
          "type": "uint256"
        }
      ],
      "name": "TimelockExecutionStrategySetUp",
      "type": "event"
    },
    {
      "anonymous": false,
      "inputs": [
        {
          "components": [
            {
              "internalType": "address",
              "name": "to",
              "type": "address"
            },
            {
              "internalType": "uint256",
              "name": "value",
              "type": "uint256"
            },
            {
              "internalType": "bytes",
              "name": "data",
              "type": "bytes"
            },
            {
              "internalType": "enum Enum.Operation",
              "name": "operation",
              "type": "uint8"
            },
            {
              "internalType": "uint256",
              "name": "salt",
              "type": "uint256"
            }
          ],
          "indexed": false,
          "internalType": "struct MetaTransaction",
          "name": "transaction",
          "type": "tuple"
        }
      ],
      "name": "TransactionExecuted",
      "type": "event"
    },
    {
      "anonymous": false,
      "inputs": [
        {
          "components": [
            {
              "internalType": "address",
              "name": "to",
              "type": "address"
            },
            {
              "internalType": "uint256",
              "name": "value",
              "type": "uint256"
            },
            {
              "internalType": "bytes",
              "name": "data",
              "type": "bytes"
            },
            {
              "internalType": "enum Enum.Operation",
              "name": "operation",
              "type": "uint8"
            },
            {
              "internalType": "uint256",
              "name": "salt",
              "type": "uint256"
            }
          ],
          "indexed": false,
          "internalType": "struct MetaTransaction",
          "name": "transaction",
          "type": "tuple"
        },
        {
          "indexed": false,
          "internalType": "uint256",
          "name": "executionTime",
          "type": "uint256"
        }
      ],
      "name": "TransactionQueued",
      "type": "event"
    },
    {
      "anonymous": false,
      "inputs": [
        {
          "indexed": false,
          "internalType": "address",
          "name": "vetoGuardian",
          "type": "address"
        },
        {
          "indexed": false,
          "internalType": "address",
          "name": "newVetoGuardian",
          "type": "address"
        }
      ],
      "name": "VetoGuardianSet",
      "type": "event"
    },
    {
      "inputs": [
        {
          "internalType": "address",
          "name": "space",
          "type": "address"
        }
      ],
      "name": "disableSpace",
      "outputs": [],
      "stateMutability": "nonpayable",
      "type": "function"
    },
    {
      "inputs": [
        {
          "internalType": "address",
          "name": "space",
          "type": "address"
        }
      ],
      "name": "enableSpace",
      "outputs": [],
      "stateMutability": "nonpayable",
      "type": "function"
    },
    {
      "inputs": [
        {
          "internalType": "uint256",
          "name": "",
          "type": "uint256"
        },
        {
          "components": [
            {
              "internalType": "address",
              "name": "author",
              "type": "address"
            },
            {
              "internalType": "uint32",
              "name": "startBlockNumber",
              "type": "uint32"
            },
            {
              "internalType": "contract IExecutionStrategy",
              "name": "executionStrategy",
              "type": "address"
            },
            {
              "internalType": "uint32",
              "name": "minEndBlockNumber",
              "type": "uint32"
            },
            {
              "internalType": "uint32",
              "name": "maxEndBlockNumber",
              "type": "uint32"
            },
            {
              "internalType": "enum FinalizationStatus",
              "name": "finalizationStatus",
              "type": "uint8"
            },
            {
              "internalType": "bytes32",
              "name": "executionPayloadHash",
              "type": "bytes32"
            },
            {
              "internalType": "uint256",
              "name": "activeVotingStrategies",
              "type": "uint256"
            }
          ],
          "internalType": "struct Proposal",
          "name": "proposal",
          "type": "tuple"
        },
        {
          "internalType": "uint256",
          "name": "votesFor",
          "type": "uint256"
        },
        {
          "internalType": "uint256",
          "name": "votesAgainst",
          "type": "uint256"
        },
        {
          "internalType": "uint256",
          "name": "votesAbstain",
          "type": "uint256"
        },
        {
          "internalType": "bytes",
          "name": "payload",
          "type": "bytes"
        }
      ],
      "name": "execute",
      "outputs": [],
      "stateMutability": "nonpayable",
      "type": "function"
    },
    {
      "inputs": [
        {
          "internalType": "bytes",
          "name": "payload",
          "type": "bytes"
        }
      ],
      "name": "executeQueuedProposal",
      "outputs": [],
      "stateMutability": "nonpayable",
      "type": "function"
    },
    {
      "inputs": [
        {
          "components": [
            {
              "internalType": "address",
              "name": "author",
              "type": "address"
            },
            {
              "internalType": "uint32",
              "name": "startBlockNumber",
              "type": "uint32"
            },
            {
              "internalType": "contract IExecutionStrategy",
              "name": "executionStrategy",
              "type": "address"
            },
            {
              "internalType": "uint32",
              "name": "minEndBlockNumber",
              "type": "uint32"
            },
            {
              "internalType": "uint32",
              "name": "maxEndBlockNumber",
              "type": "uint32"
            },
            {
              "internalType": "enum FinalizationStatus",
              "name": "finalizationStatus",
              "type": "uint8"
            },
            {
              "internalType": "bytes32",
              "name": "executionPayloadHash",
              "type": "bytes32"
            },
            {
              "internalType": "uint256",
              "name": "activeVotingStrategies",
              "type": "uint256"
            }
          ],
          "internalType": "struct Proposal",
          "name": "proposal",
          "type": "tuple"
        },
        {
          "internalType": "uint256",
          "name": "votesFor",
          "type": "uint256"
        },
        {
          "internalType": "uint256",
          "name": "votesAgainst",
          "type": "uint256"
        },
        {
          "internalType": "uint256",
          "name": "votesAbstain",
          "type": "uint256"
        }
      ],
      "name": "getProposalStatus",
      "outputs": [
        {
          "internalType": "enum ProposalStatus",
          "name": "",
          "type": "uint8"
        }
      ],
      "stateMutability": "view",
      "type": "function"
    },
    {
      "inputs": [],
      "name": "getStrategyType",
      "outputs": [
        {
          "internalType": "string",
          "name": "",
          "type": "string"
        }
      ],
      "stateMutability": "pure",
      "type": "function"
    },
    {
      "inputs": [
        {
          "internalType": "address",
          "name": "space",
          "type": "address"
        }
      ],
      "name": "isSpaceEnabled",
      "outputs": [
        {
          "internalType": "uint256",
          "name": "",
          "type": "uint256"
        }
      ],
      "stateMutability": "view",
      "type": "function"
    },
    {
      "inputs": [
        {
          "internalType": "address",
          "name": "",
          "type": "address"
        },
        {
          "internalType": "address",
          "name": "",
          "type": "address"
        },
        {
          "internalType": "uint256[]",
          "name": "",
          "type": "uint256[]"
        },
        {
          "internalType": "uint256[]",
          "name": "",
          "type": "uint256[]"
        },
        {
          "internalType": "bytes",
          "name": "",
          "type": "bytes"
        }
      ],
      "name": "onERC1155BatchReceived",
      "outputs": [
        {
          "internalType": "bytes4",
          "name": "",
          "type": "bytes4"
        }
      ],
      "stateMutability": "pure",
      "type": "function"
    },
    {
      "inputs": [
        {
          "internalType": "address",
          "name": "",
          "type": "address"
        },
        {
          "internalType": "address",
          "name": "",
          "type": "address"
        },
        {
          "internalType": "uint256",
          "name": "",
          "type": "uint256"
        },
        {
          "internalType": "uint256",
          "name": "",
          "type": "uint256"
        },
        {
          "internalType": "bytes",
          "name": "",
          "type": "bytes"
        }
      ],
      "name": "onERC1155Received",
      "outputs": [
        {
          "internalType": "bytes4",
          "name": "",
          "type": "bytes4"
        }
      ],
      "stateMutability": "pure",
      "type": "function"
    },
    {
      "inputs": [
        {
          "internalType": "address",
          "name": "",
          "type": "address"
        },
        {
          "internalType": "address",
          "name": "",
          "type": "address"
        },
        {
          "internalType": "uint256",
          "name": "",
          "type": "uint256"
        },
        {
          "internalType": "bytes",
          "name": "",
          "type": "bytes"
        }
      ],
      "name": "onERC721Received",
      "outputs": [
        {
          "internalType": "bytes4",
          "name": "",
          "type": "bytes4"
        }
      ],
      "stateMutability": "pure",
      "type": "function"
    },
    {
      "inputs": [],
      "name": "owner",
      "outputs": [
        {
          "internalType": "address",
          "name": "",
          "type": "address"
        }
      ],
      "stateMutability": "view",
      "type": "function"
    },
    {
      "inputs": [
        {
          "internalType": "bytes32",
          "name": "",
          "type": "bytes32"
        }
      ],
      "name": "proposalExecutionTime",
      "outputs": [
        {
          "internalType": "uint256",
          "name": "",
          "type": "uint256"
        }
      ],
      "stateMutability": "view",
      "type": "function"
    },
    {
      "inputs": [],
      "name": "quorum",
      "outputs": [
        {
          "internalType": "uint256",
          "name": "",
          "type": "uint256"
        }
      ],
      "stateMutability": "view",
      "type": "function"
    },
    {
      "inputs": [],
      "name": "renounceOwnership",
      "outputs": [],
      "stateMutability": "nonpayable",
      "type": "function"
    },
    {
      "inputs": [
        {
          "internalType": "uint256",
          "name": "_quorum",
          "type": "uint256"
        }
      ],
      "name": "setQuorum",
      "outputs": [],
      "stateMutability": "nonpayable",
      "type": "function"
    },
    {
      "inputs": [
        {
          "internalType": "uint256",
          "name": "newTimelockDelay",
          "type": "uint256"
        }
      ],
      "name": "setTimelockDelay",
      "outputs": [],
      "stateMutability": "nonpayable",
      "type": "function"
    },
    {
      "inputs": [
        {
          "internalType": "bytes",
          "name": "initParams",
          "type": "bytes"
        }
      ],
      "name": "setUp",
      "outputs": [],
      "stateMutability": "nonpayable",
      "type": "function"
    },
    {
      "inputs": [
        {
          "internalType": "address",
          "name": "newVetoGuardian",
          "type": "address"
        }
      ],
      "name": "setVetoGuardian",
      "outputs": [],
      "stateMutability": "nonpayable",
      "type": "function"
    },
    {
      "inputs": [
        {
          "internalType": "bytes4",
          "name": "interfaceId",
          "type": "bytes4"
        }
      ],
      "name": "supportsInterface",
      "outputs": [
        {
          "internalType": "bool",
          "name": "",
          "type": "bool"
        }
      ],
      "stateMutability": "pure",
      "type": "function"
    },
    {
      "inputs": [],
      "name": "timelockDelay",
      "outputs": [
        {
          "internalType": "uint256",
          "name": "",
          "type": "uint256"
        }
      ],
      "stateMutability": "view",
      "type": "function"
    },
    {
      "inputs": [
        {
          "internalType": "address",
          "name": "newOwner",
          "type": "address"
        }
      ],
      "name": "transferOwnership",
      "outputs": [],
      "stateMutability": "nonpayable",
      "type": "function"
    },
    {
      "inputs": [
        {
          "internalType": "bytes32",
          "name": "executionPayloadHash",
          "type": "bytes32"
        }
      ],
      "name": "veto",
      "outputs": [],
      "stateMutability": "nonpayable",
      "type": "function"
    },
    {
      "inputs": [],
      "name": "vetoGuardian",
      "outputs": [
        {
          "internalType": "address",
          "name": "",
          "type": "address"
        }
      ],
      "stateMutability": "view",
      "type": "function"
    },
    {
      "stateMutability": "payable",
      "type": "receive"
    }
  ],
  "bytecode": {
    "object": "0x60803462000456576020818101916001600160401b03919082841181851017620004405760409384526000808252845193838501926001938481528787019085825262000059606089019360a0855260c08a01906200047f565b9060808901908682526200007e8a60a081019489865203601f1981018c528b6200045b565b86549560ff9a8b8860081c16159788809962000434575b80156200041d575b15620003c25760ff1981168b178a5588620003b0575b50805181019260a0828d8601950312620003ac57620000d6620000dd91620004be565b96620004be565b965190828211620003ac570182603f82011215620003a8578a8101519182116200039457918c96959493918b93600598828a1b92620001218251978501886200045b565b86528d86019282010192831162000390578e01905b8282106200036b575050505191519260018060a01b03808092169516956200016f8c8a5460081c166200016981620004d3565b620004d3565b6200017a3362000534565b3382603354160362000329578515620002d65789808e620001be8f620001a08b62000534565b606980546001600160a01b0319168d1790558d5460081c16620004d3565b8b925b62000288575b5050505050906200022c7fc15fd8084157f309d865272ffc01c8742c26ee07705ca85106f5f79293352dad959493926200020889549c8d60081c16620004d3565b83606655826067558c5195869586528b86015260a08d86015260a08501906200047f565b91606084015260808301520390a16200024f575b8451611bd690816200057e8239f35b7f7f26b83ff96e1f2b6a682f133852f6798a09c465da95921460cefb38474024989361ff00191690558351908152a13880808062000240565b8d8651841015620002cf5783851b870181015186168d52606590528b20556000198114620002bb578a018a8e81620001c1565b634e487b7160e01b8a52601160045260248afd5b50620001c7565b8c5162461bcd60e51b8152600481018c9052602660248201527f4f776e61626c653a206e6577206f776e657220697320746865207a65726f206160448201526564647265737360d01b6064820152608490fd5b60648b8e519062461bcd60e51b825280600483015260248201527f4f776e61626c653a2063616c6c6572206973206e6f7420746865206f776e65726044820152fd5b81516001600160a01b03811681036200038c578152908c01908c0162000136565b8b80fd5b8a80fd5b634e487b7160e01b89526041600452602489fd5b8880fd5b8980fd5b61ffff191661010117895538620000b3565b8d5162461bcd60e51b8152600481018d9052602e60248201527f496e697469616c697a61626c653a20636f6e747261637420697320616c72656160448201526d191e481a5b9a5d1a585b1a5e995960921b6064820152608490fd5b50303b1580156200009d57508a8d8216146200009d565b508a8d82161062000095565b634e487b7160e01b600052604160045260246000fd5b600080fd5b601f909101601f19168101906001600160401b038211908210176200044057604052565b90815180825260208080930193019160005b828110620004a0575050505090565b83516001600160a01b03168552938101939281019260010162000491565b51906001600160a01b03821682036200045657565b15620004db57565b60405162461bcd60e51b815260206004820152602b60248201527f496e697469616c697a61626c653a20636f6e7472616374206973206e6f74206960448201526a6e697469616c697a696e6760a81b6064820152608490fd5b603380546001600160a01b039283166001600160a01b0319821681179092559091167f8be0079c531659141344cd1fd0a4f28419497f9722a3daafe3b4186f6b6457e0600080a356fe6080604081815260049081361015610022575b505050361561002057600080fd5b005b600092833560e01c90816301ffc9a714611391575080630eb9b15a146112f457806312513b45146112bf578063150b7a021461124f5780631703a01814611230578063220f5fd9146111975780634a1cead11461116f5780636efd971c1461112b578063715018a6146110ab5780638da5cb5b146110765780639e33d81114610ff2578063a1908c6a14610d2a578063a4f9edbf146108ab578063ad32287f14610642578063af267f8f146105ee578063bc197c811461054b578063c1ba4e59146104fd578063d92d4ea014610441578063ea8f8c4b1461035e578063eef09bad1461033b578063f23a6e61146102c8578063f2fde38b146101f85763fb6f93f90361001257346101f45760206003193601126101f45781359173ffffffffffffffffffffffffffffffffffffffff6069541633036101cd57828452606860205281842054156101a65750816020917f0c8bf601915d1f39ef591226bc69b3becc23fcb3616673c419062aa44beb42da93855260688352848181205551908152a180f35b90517f599fb1a3000000000000000000000000000000000000000000000000000000008152fd5b90517ffa5e8f94000000000000000000000000000000000000000000000000000000008152fd5b8280fd5b5090346101f45760206003193601126101f4576102136114c7565b9161021c6116be565b73ffffffffffffffffffffffffffffffffffffffff83161561024557836102428461173d565b80f35b90602060849251917f08c379a0000000000000000000000000000000000000000000000000000000008352820152602660248201527f4f776e61626c653a206e6577206f776e657220697320746865207a65726f206160448201527f64647265737300000000000000000000000000000000000000000000000000006064820152fd5b5082346103385760a0600319360112610338576102e36114c7565b506102ec6114ef565b506084359067ffffffffffffffff8211610338575060209261031091369101611512565b5050517ff23a6e61000000000000000000000000000000000000000000000000000000008152f35b80fd5b83823461035a578160031936011261035a576020906067549051908152f35b5080fd5b508234610338576003193601610160811261035a576101001361033857610383611540565b923573ffffffffffffffffffffffffffffffffffffffff9081811681036101f457845263ffffffff90602435828116810361043d57602086015260443590811681036101f4578385015260643581811681036101f4576060850152608435908116810361035a57608084015260a43590600382101561033857508261042e9160a061043995015260c43560c082015260e43560e08201526101443590610124359061010435906117aa565b90519182918261167c565b0390f35b8380fd5b50346101f45760206003193601126101f45773ffffffffffffffffffffffffffffffffffffffff6104706114c7565b6104786116be565b1691821580156104e9575b6104c25750816020917fc3dc08a46232e8d0a95510120799f1e68e0aa28c88730b8b0127d5ff4565b4b09385526065835260018186205551908152a180f35b90517fc3b48cf1000000000000000000000000000000000000000000000000000000008152fd5b508284526065602052818420541515610483565b5090346101f45760206003193601126101f4577ff18f88786aae85a652aadb99a82462616489a33370c9bcc7b245906812ef7cd191602091359061053f6116be565b8160665551908152a180f35b5082346103385760a0600319360112610338576105666114c7565b5061056f6114ef565b5067ffffffffffffffff9060443582811161035a57610591903690860161164b565b505060643582811161035a576105aa903690860161164b565b505060843591821161033857506020926105c691369101611512565b5050517fbc197c81000000000000000000000000000000000000000000000000000000008152f35b5090346101f45760206003193601126101f4577fe9a548e67315439ac624f727fe691585c5cce7759aa57bfbed0e8138cb90d41d90359161062d6116be565b6067548151908152836020820152a160675580f35b508234610338576020908160031936011261033857833567ffffffffffffffff811161035a57610675903690860161160e565b93845183860190812095868452606885528584205415610883578684526068855285842054421061085b5790846106bc928886526068825285888120558051010190611963565b91805b835181101561082e5760606106d48286611b02565b5101516002811015610802576001036107aa57818073ffffffffffffffffffffffffffffffffffffffff6107088488611b02565b515116886107168589611b02565b510151908882519201905af461072a611ba3565b505b1561078257807f2968e6e48e1461dc6f6934a21a5ea27fad9b6786850ad93f47c2caa4f95fde1361077561076361077d9488611b02565b5189519182918a83528a830190611b45565b0390a1611ad5565b6106bf565b8286517facfdb444000000000000000000000000000000000000000000000000000000008152fd5b818073ffffffffffffffffffffffffffffffffffffffff6107cb8488611b02565b515116876107d98589611b02565b51015190896107e8868a611b02565b510151918983519301915af16107fc611ba3565b5061072c565b6024836021867f4e487b7100000000000000000000000000000000000000000000000000000000835252fd5b507f7b1bcf1ccf901a11589afff5504d59fd0a53780eed2a952adade0348985139e084878751908152a180f35b8286517f65aecf1d000000000000000000000000000000000000000000000000000000008152fd5b8286517f599fb1a3000000000000000000000000000000000000000000000000000000008152fd5b50346101f4576020908160031936011261043d5767ffffffffffffffff908335828111610d26576108df903690860161160e565b9385549260ff95868560081c161592838094610d1a575b8015610d04575b15610c825760019584877fffffffffffffffffffffffffffffffffffffffffffffffffffffffffffffff008316178b55610c54575b50815182019260a083898601950312610c505761095088840161189f565b61095b87850161189f565b916060850151908111610c4c57840185603f82011215610c4c57898101519561098b610986886118c0565b611590565b918b8389815201908a829960051b820101928311610c4857908c8f99989796959493928c01915b838310610c20575050505060a06080860151950151936109fb8d73ffffffffffffffffffffffffffffffffffffffff808096169616995460081c166109f6816118d8565b6118d8565b610a043361173d565b610a0c6116be565b8315610b9e5750610a5a8c8e610a268695969a999a61173d565b887fffffffffffffffffffffffff000000000000000000000000000000000000000060695416176069555460081c166118d8565b898d80825b610b53575b50610a769150549c8d60081c166118d8565b836066558460675588519560a087019287528b87015260a0898701525180915260c0850195918c905b8a8c848410610b3b575050505050509282917fc15fd8084157f309d865272ffc01c8742c26ee07705ca85106f5f79293352dad94606084015260808301520390a1610ae8578480f35b7fffffffffffffffffffffffffffffffffffffffffffffffffffffffffffff00ff7f7f26b83ff96e1f2b6a682f133852f6798a09c465da95921460cefb38474024989416855551908152a1388080808480f35b855183168a5298890198909401939190910190610a9f565b8d8c859b9a9b97969751831015610b9157610b83936065869389610b77878b611b02565b51168352522055611ad5565b8e9082999899959495610a5f565b5050989798949394610a64565b6084908c8b51917f08c379a0000000000000000000000000000000000000000000000000000000008352820152602660248201527f4f776e61626c653a206e6577206f776e657220697320746865207a65726f206160448201527f64647265737300000000000000000000000000000000000000000000000000006064820152fd5b82939495969798999a50610c34829361189f565b81520191018c8f99989796959493926109b2565b8e80fd5b8b80fd5b8980fd5b7fffffffffffffffffffffffffffffffffffffffffffffffffffffffffffff00001661010117895538610932565b608490878651917f08c379a0000000000000000000000000000000000000000000000000000000008352820152602e60248201527f496e697469616c697a61626c653a20636f6e747261637420697320616c72656160448201527f647920696e697469616c697a65640000000000000000000000000000000000006064820152fd5b50303b1580156108fd57506001888716146108fd565b506001888716106108f6565b8580fd5b50346101f4576101a06003193601126101f4576101007fffffffffffffffffffffffffffffffffffffffffffffffffffffffffffffffdc3601126101f457610d70611540565b906024359373ffffffffffffffffffffffffffffffffffffffff94858116810361035a5783526044359463ffffffff9081871687036101f4576020968786015260643590811681036101f4578385015260843581811681036101f457606085015260a435908116810361035a57608084015260c435600381101561035a5760a084015260c083019360e43585526101043560e08501526101843567ffffffffffffffff81116101f457610e26903690830161160e565b93338352606587528383205415610fca57610e4f906101643590610144359061012435906117aa565b6007811015610f9e57600381141580610f93575b610f5c5750845182526068865282822054610f355750610ea4610e8860675442611863565b9385518352606887528484842055868082518301019101611963565b90805b8251811015610f0657807f43bc9641fb109444334c2b11fbab28e69b005b810a5449bbf63c36d64277ffe5610ef4610ee2610f019487611b02565b51875191829189835289830190611b45565b898c8301520390a1611ad5565b610ea7565b507f4e8c9d52084f3373dec7c4e5c6bd10b8b97fe0a107841ed1de3fbc8f0cc9e984868487519051908152a180f35b82517fa65ca451000000000000000000000000000000000000000000000000000000008152fd5b90610f8f84519283927fe6ace38e000000000000000000000000000000000000000000000000000000008452830161167c565b0390fd5b506002811415610e63565b6024836021847f4e487b7100000000000000000000000000000000000000000000000000000000835252fd5b5082517fc3b48cf1000000000000000000000000000000000000000000000000000000008152fd5b50346101f45760206003193601126101f45773ffffffffffffffffffffffffffffffffffffffff6110216114c7565b6110296116be565b1691828452606560205281842054156104c25750816020917f665604bfe8ee87044ba1f1fd2fb47fe92983c9e187acbb442debf97d3e58192193855260658352848181205551908152a180f35b83823461035a578160031936011261035a5760209073ffffffffffffffffffffffffffffffffffffffff603354169051908152f35b83346103385780600319360112610338576110c46116be565b8073ffffffffffffffffffffffffffffffffffffffff6033547fffffffffffffffffffffffff00000000000000000000000000000000000000008116603355167f8be0079c531659141344cd1fd0a4f28419497f9722a3daafe3b4186f6b6457e08280a380f35b83823461035a57602060031936011261035a578060209273ffffffffffffffffffffffffffffffffffffffff61115f6114c7565b1681526065845220549051908152f35b5090346101f45760206003193601126101f45760209282913581526068845220549051908152f35b83823461035a57602060031936011261035a577fffffffffffffffffffffffff00000000000000000000000000000000000000006111d36114c7565b916111dc6116be565b7fcf29bde14aae78ac738504abe3fd1a25675f3c52c42e5d2d7e85b549cd0c4b806069549180519473ffffffffffffffffffffffffffffffffffffffff9081851687521694856020820152a1161760695580f35b83823461035a578160031936011261035a576020906066549051908152f35b5082346103385760806003193601126103385761126a6114c7565b506112736114ef565b506064359067ffffffffffffffff8211610338575060209261129791369101611512565b5050517f150b7a02000000000000000000000000000000000000000000000000000000008152f35b83823461035a578160031936011261035a5760209073ffffffffffffffffffffffffffffffffffffffff606954169051908152f35b5082903461035a578160031936011261035a578051918183019083821067ffffffffffffffff831117611365575061043993508152601482527f53696d706c6551756f72756d54696d656c6f636b000000000000000000000000602083015251918291602083526020830190611484565b806041867f4e487b71000000000000000000000000000000000000000000000000000000006024945252fd5b849084346101f45760206003193601126101f457357fffffffff0000000000000000000000000000000000000000000000000000000081168091036101f457602092507f150b7a02000000000000000000000000000000000000000000000000000000008114908115611437575b811561140d575b5015158152f35b7f01ffc9a70000000000000000000000000000000000000000000000000000000091501483611406565b7f4e2312e000000000000000000000000000000000000000000000000000000000811491506113ff565b60005b8381106114745750506000910152565b8181015183820152602001611464565b907fffffffffffffffffffffffffffffffffffffffffffffffffffffffffffffffe0601f6020936114c081518092818752878088019101611461565b0116010190565b6004359073ffffffffffffffffffffffffffffffffffffffff821682036114ea57565b600080fd5b6024359073ffffffffffffffffffffffffffffffffffffffff821682036114ea57565b9181601f840112156114ea5782359167ffffffffffffffff83116114ea57602083818601950101116114ea57565b60405190610100820182811067ffffffffffffffff82111761156157604052565b7f4e487b7100000000000000000000000000000000000000000000000000000000600052604160045260246000fd5b907fffffffffffffffffffffffffffffffffffffffffffffffffffffffffffffffe0601f604051930116820182811067ffffffffffffffff82111761156157604052565b67ffffffffffffffff811161156157601f017fffffffffffffffffffffffffffffffffffffffffffffffffffffffffffffffe01660200190565b81601f820112156114ea57803590611628610986836115d4565b92828452602083830101116114ea57816000926020809301838601378301015290565b9181601f840112156114ea5782359167ffffffffffffffff83116114ea576020808501948460051b0101116114ea57565b91906020830192600782101561168f5752565b7f4e487b7100000000000000000000000000000000000000000000000000000000600052602160045260246000fd5b73ffffffffffffffffffffffffffffffffffffffff6033541633036116df57565b60646040517f08c379a000000000000000000000000000000000000000000000000000000000815260206004820152602060248201527f4f776e61626c653a2063616c6c6572206973206e6f7420746865206f776e65726044820152fd5b6033549073ffffffffffffffffffffffffffffffffffffffff80911691827fffffffffffffffffffffffff0000000000000000000000000000000000000000821617603355167f8be0079c531659141344cd1fd0a4f28419497f9722a3daafe3b4186f6b6457e0600080a3565b9190926117ba6066549185611863565b10159283611859575b505060a081018051600381101561168f576002036117e357505050600690565b51600381101561168f576001036117fb575050600490565b63ffffffff9081602082015116431060001461181957505050600090565b6060810151821643101561182f57505050600190565b608001511643101561184a571561184557600290565b600190565b1561185457600390565b600590565b11915038806117c3565b9190820180921161187057565b7f4e487b7100000000000000000000000000000000000000000000000000000000600052601160045260246000fd5b519073ffffffffffffffffffffffffffffffffffffffff821682036114ea57565b67ffffffffffffffff81116115615760051b60200190565b156118df57565b60846040517f08c379a000000000000000000000000000000000000000000000000000000000815260206004820152602b60248201527f496e697469616c697a61626c653a20636f6e7472616374206973206e6f74206960448201527f6e697469616c697a696e670000000000000000000000000000000000000000006064820152fd5b60209081818403126114ea57805167ffffffffffffffff918282116114ea57019083601f830112156114ea57815161199d610986826118c0565b94848087848152019260051b850101938185116114ea57858101925b8584106119ca575050505050505090565b83518581116114ea5782019060a090817fffffffffffffffffffffffffffffffffffffffffffffffffffffffffffffffe084870301126114ea576040918251908082018281108a821117611aa7578452611a258b860161189f565b8252838501518b830152606093848601518a81116114ea5786019088603f830112156114ea578c82015191611a5c610986846115d4565b928084528a8382840101116114ea57611a7b918f849086019101611461565b830152608090818601519560028710156114ea578c9687968501520151908201528152019301926119b9565b602460007f4e487b710000000000000000000000000000000000000000000000000000000081526041600452fd5b7fffffffffffffffffffffffffffffffffffffffffffffffffffffffffffffffff81146118705760010190565b8051821015611b165760209160051b010190565b7f4e487b7100000000000000000000000000000000000000000000000000000000600052603260045260246000fd5b9073ffffffffffffffffffffffffffffffffffffffff825116815260208201516020820152611b83604083015160a0604084015260a0830190611484565b916060810151600281101561168f57606083015260809081015191015290565b3d15611bc4573d90611bb7610986836115d4565b9182523d6000602084013e565b60609056fea164736f6c6343000812000a",
    "linkReferences": {}
  },
  "methodIdentifiers": {
    "disableSpace(address)": "9e33d811",
    "enableSpace(address)": "d92d4ea0",
    "execute(uint256,(address,uint32,address,uint32,uint32,uint8,bytes32,uint256),uint256,uint256,uint256,bytes)": "a1908c6a",
    "executeQueuedProposal(bytes)": "ad32287f",
    "getProposalStatus((address,uint32,address,uint32,uint32,uint8,bytes32,uint256),uint256,uint256,uint256)": "ea8f8c4b",
    "getStrategyType()": "0eb9b15a",
    "isSpaceEnabled(address)": "6efd971c",
    "onERC1155BatchReceived(address,address,uint256[],uint256[],bytes)": "bc197c81",
    "onERC1155Received(address,address,uint256,uint256,bytes)": "f23a6e61",
    "onERC721Received(address,address,uint256,bytes)": "150b7a02",
    "owner()": "8da5cb5b",
    "proposalExecutionTime(bytes32)": "4a1cead1",
    "quorum()": "1703a018",
    "renounceOwnership()": "715018a6",
    "setQuorum(uint256)": "c1ba4e59",
    "setTimelockDelay(uint256)": "af267f8f",
    "setUp(bytes)": "a4f9edbf",
    "setVetoGuardian(address)": "220f5fd9",
    "supportsInterface(bytes4)": "01ffc9a7",
    "timelockDelay()": "eef09bad",
    "transferOwnership(address)": "f2fde38b",
    "veto(bytes32)": "fb6f93f9",
    "vetoGuardian()": "12513b45"
  },
  "id": 83
}