{
  "abi": [
    {
      "inputs": [
        {
          "internalType": "address",
          "name": "_owner",
          "type": "address"
        },
        {
          "internalType": "address",
          "name": "_vetoGuardian",
          "type": "address"
        },
        {
          "internalType": "address[]",
          "name": "_spaces",
          "type": "address[]"
        },
        {
          "internalType": "uint256",
          "name": "_timelockDelay",
          "type": "uint256"
        },
        {
          "internalType": "uint256",
          "name": "_quorum",
          "type": "uint256"
        }
      ],
      "stateMutability": "nonpayable",
      "type": "constructor"
    },
    {
      "inputs": [],
      "name": "DuplicateExecutionPayloadHash",
      "type": "error"
    },
    {
      "inputs": [],
      "name": "ExecutionFailed",
      "type": "error"
    },
    {
      "inputs": [],
      "name": "InvalidPayload",
      "type": "error"
    },
    {
      "inputs": [
        {
          "internalType": "enum ProposalStatus",
          "name": "status",
          "type": "uint8"
        }
      ],
      "name": "InvalidProposalStatus",
      "type": "error"
    },
    {
      "inputs": [],
      "name": "InvalidSpace",
      "type": "error"
    },
    {
      "inputs": [],
      "name": "OnlyVetoGuardian",
      "type": "error"
    },
    {
      "inputs": [],
      "name": "ProposalNotQueued",
      "type": "error"
    },
    {
      "inputs": [],
      "name": "TimelockDelayNotMet",
      "type": "error"
    },
    {
      "anonymous": false,
      "inputs": [
        {
          "indexed": false,
          "internalType": "uint8",
          "name": "version",
          "type": "uint8"
        }
      ],
      "name": "Initialized",
      "type": "event"
    },
    {
      "anonymous": false,
      "inputs": [
        {
          "indexed": true,
          "internalType": "address",
          "name": "previousOwner",
          "type": "address"
        },
        {
          "indexed": true,
          "internalType": "address",
          "name": "newOwner",
          "type": "address"
        }
      ],
      "name": "OwnershipTransferred",
      "type": "event"
    },
    {
      "anonymous": false,
      "inputs": [
        {
          "indexed": false,
          "internalType": "bytes32",
          "name": "executionPayloadHash",
          "type": "bytes32"
        }
      ],
      "name": "ProposalExecuted",
      "type": "event"
    },
    {
      "anonymous": false,
      "inputs": [
        {
          "indexed": false,
          "internalType": "bytes32",
          "name": "executionPayloadHash",
          "type": "bytes32"
        }
      ],
      "name": "ProposalQueued",
      "type": "event"
    },
    {
      "anonymous": false,
      "inputs": [
        {
          "indexed": false,
          "internalType": "bytes32",
          "name": "executionPayloadHash",
          "type": "bytes32"
        }
      ],
      "name": "ProposalVetoed",
      "type": "event"
    },
    {
      "anonymous": false,
      "inputs": [
        {
          "indexed": false,
          "internalType": "address",
          "name": "space",
          "type": "address"
        }
      ],
      "name": "SpaceDisabled",
      "type": "event"
    },
    {
      "anonymous": false,
      "inputs": [
        {
          "indexed": false,
          "internalType": "address",
          "name": "space",
          "type": "address"
        }
      ],
      "name": "SpaceEnabled",
      "type": "event"
    },
    {
      "anonymous": false,
      "inputs": [
        {
          "indexed": false,
          "internalType": "address",
          "name": "owner",
          "type": "address"
        },
        {
          "indexed": false,
          "internalType": "address",
          "name": "vetoGuardian",
          "type": "address"
        },
        {
          "indexed": false,
          "internalType": "address[]",
          "name": "spaces",
          "type": "address[]"
        },
        {
          "indexed": false,
          "internalType": "uint256",
          "name": "quorum",
          "type": "uint256"
        },
        {
          "indexed": false,
          "internalType": "uint256",
          "name": "timelockDelay",
          "type": "uint256"
        }
      ],
      "name": "TimelockExecutionStrategySetUp",
      "type": "event"
    },
    {
      "anonymous": false,
      "inputs": [
        {
          "components": [
            {
              "internalType": "address",
              "name": "to",
              "type": "address"
            },
            {
              "internalType": "uint256",
              "name": "value",
              "type": "uint256"
            },
            {
              "internalType": "bytes",
              "name": "data",
              "type": "bytes"
            },
            {
              "internalType": "enum Enum.Operation",
              "name": "operation",
              "type": "uint8"
            },
            {
              "internalType": "uint256",
              "name": "salt",
              "type": "uint256"
            }
          ],
          "indexed": false,
          "internalType": "struct MetaTransaction",
          "name": "transaction",
          "type": "tuple"
        }
      ],
      "name": "TransactionExecuted",
      "type": "event"
    },
    {
      "anonymous": false,
      "inputs": [
        {
          "components": [
            {
              "internalType": "address",
              "name": "to",
              "type": "address"
            },
            {
              "internalType": "uint256",
              "name": "value",
              "type": "uint256"
            },
            {
              "internalType": "bytes",
              "name": "data",
              "type": "bytes"
            },
            {
              "internalType": "enum Enum.Operation",
              "name": "operation",
              "type": "uint8"
            },
            {
              "internalType": "uint256",
              "name": "salt",
              "type": "uint256"
            }
          ],
          "indexed": false,
          "internalType": "struct MetaTransaction",
          "name": "transaction",
          "type": "tuple"
        },
        {
          "indexed": false,
          "internalType": "uint256",
          "name": "executionTime",
          "type": "uint256"
        }
      ],
      "name": "TransactionQueued",
      "type": "event"
    },
    {
      "anonymous": false,
      "inputs": [
        {
          "indexed": false,
          "internalType": "address",
          "name": "vetoGuardian",
          "type": "address"
        },
        {
          "indexed": false,
          "internalType": "address",
          "name": "newVetoGuardian",
          "type": "address"
        }
      ],
      "name": "VetoGuardianSet",
      "type": "event"
    },
    {
      "inputs": [
        {
          "internalType": "address",
          "name": "space",
          "type": "address"
        }
      ],
      "name": "disableSpace",
      "outputs": [],
      "stateMutability": "nonpayable",
      "type": "function"
    },
    {
      "inputs": [
        {
          "internalType": "address",
          "name": "space",
          "type": "address"
        }
      ],
      "name": "enableSpace",
      "outputs": [],
      "stateMutability": "nonpayable",
      "type": "function"
    },
    {
      "inputs": [
        {
          "components": [
            {
              "internalType": "uint32",
              "name": "snapshotTimestamp",
              "type": "uint32"
            },
            {
              "internalType": "uint32",
              "name": "startTimestamp",
              "type": "uint32"
            },
            {
              "internalType": "uint32",
              "name": "minEndTimestamp",
              "type": "uint32"
            },
            {
              "internalType": "uint32",
              "name": "maxEndTimestamp",
              "type": "uint32"
            },
            {
              "internalType": "bytes32",
              "name": "executionPayloadHash",
              "type": "bytes32"
            },
            {
              "internalType": "contract IExecutionStrategy",
              "name": "executionStrategy",
              "type": "address"
            },
            {
              "internalType": "address",
              "name": "author",
              "type": "address"
            },
            {
              "internalType": "enum FinalizationStatus",
              "name": "finalizationStatus",
              "type": "uint8"
            },
            {
              "internalType": "uint256",
              "name": "activeVotingStrategies",
              "type": "uint256"
            }
          ],
          "internalType": "struct Proposal",
          "name": "proposal",
          "type": "tuple"
        },
        {
          "internalType": "uint256",
          "name": "votesFor",
          "type": "uint256"
        },
        {
          "internalType": "uint256",
          "name": "votesAgainst",
          "type": "uint256"
        },
        {
          "internalType": "uint256",
          "name": "votesAbstain",
          "type": "uint256"
        },
        {
          "internalType": "bytes",
          "name": "payload",
          "type": "bytes"
        }
      ],
      "name": "execute",
      "outputs": [],
      "stateMutability": "nonpayable",
      "type": "function"
    },
    {
      "inputs": [
        {
          "internalType": "bytes",
          "name": "payload",
          "type": "bytes"
        }
      ],
      "name": "executeQueuedProposal",
      "outputs": [],
      "stateMutability": "nonpayable",
      "type": "function"
    },
    {
      "inputs": [
        {
          "components": [
            {
              "internalType": "uint32",
              "name": "snapshotTimestamp",
              "type": "uint32"
            },
            {
              "internalType": "uint32",
              "name": "startTimestamp",
              "type": "uint32"
            },
            {
              "internalType": "uint32",
              "name": "minEndTimestamp",
              "type": "uint32"
            },
            {
              "internalType": "uint32",
              "name": "maxEndTimestamp",
              "type": "uint32"
            },
            {
              "internalType": "bytes32",
              "name": "executionPayloadHash",
              "type": "bytes32"
            },
            {
              "internalType": "contract IExecutionStrategy",
              "name": "executionStrategy",
              "type": "address"
            },
            {
              "internalType": "address",
              "name": "author",
              "type": "address"
            },
            {
              "internalType": "enum FinalizationStatus",
              "name": "finalizationStatus",
              "type": "uint8"
            },
            {
              "internalType": "uint256",
              "name": "activeVotingStrategies",
              "type": "uint256"
            }
          ],
          "internalType": "struct Proposal",
          "name": "proposal",
          "type": "tuple"
        },
        {
          "internalType": "uint256",
          "name": "votesFor",
          "type": "uint256"
        },
        {
          "internalType": "uint256",
          "name": "votesAgainst",
          "type": "uint256"
        },
        {
          "internalType": "uint256",
          "name": "votesAbstain",
          "type": "uint256"
        }
      ],
      "name": "getProposalStatus",
      "outputs": [
        {
          "internalType": "enum ProposalStatus",
          "name": "",
          "type": "uint8"
        }
      ],
      "stateMutability": "view",
      "type": "function"
    },
    {
      "inputs": [],
      "name": "getStrategyType",
      "outputs": [
        {
          "internalType": "string",
          "name": "",
          "type": "string"
        }
      ],
      "stateMutability": "pure",
      "type": "function"
    },
    {
      "inputs": [
        {
          "internalType": "address",
          "name": "space",
          "type": "address"
        }
      ],
      "name": "isSpaceEnabled",
      "outputs": [
        {
          "internalType": "bool",
          "name": "",
          "type": "bool"
        }
      ],
      "stateMutability": "view",
      "type": "function"
    },
    {
      "inputs": [
        {
          "internalType": "address",
          "name": "",
          "type": "address"
        },
        {
          "internalType": "address",
          "name": "",
          "type": "address"
        },
        {
          "internalType": "uint256[]",
          "name": "",
          "type": "uint256[]"
        },
        {
          "internalType": "uint256[]",
          "name": "",
          "type": "uint256[]"
        },
        {
          "internalType": "bytes",
          "name": "",
          "type": "bytes"
        }
      ],
      "name": "onERC1155BatchReceived",
      "outputs": [
        {
          "internalType": "bytes4",
          "name": "",
          "type": "bytes4"
        }
      ],
      "stateMutability": "pure",
      "type": "function"
    },
    {
      "inputs": [
        {
          "internalType": "address",
          "name": "",
          "type": "address"
        },
        {
          "internalType": "address",
          "name": "",
          "type": "address"
        },
        {
          "internalType": "uint256",
          "name": "",
          "type": "uint256"
        },
        {
          "internalType": "uint256",
          "name": "",
          "type": "uint256"
        },
        {
          "internalType": "bytes",
          "name": "",
          "type": "bytes"
        }
      ],
      "name": "onERC1155Received",
      "outputs": [
        {
          "internalType": "bytes4",
          "name": "",
          "type": "bytes4"
        }
      ],
      "stateMutability": "pure",
      "type": "function"
    },
    {
      "inputs": [
        {
          "internalType": "address",
          "name": "",
          "type": "address"
        },
        {
          "internalType": "address",
          "name": "",
          "type": "address"
        },
        {
          "internalType": "uint256",
          "name": "",
          "type": "uint256"
        },
        {
          "internalType": "bytes",
          "name": "",
          "type": "bytes"
        }
      ],
      "name": "onERC721Received",
      "outputs": [
        {
          "internalType": "bytes4",
          "name": "",
          "type": "bytes4"
        }
      ],
      "stateMutability": "pure",
      "type": "function"
    },
    {
      "inputs": [],
      "name": "owner",
      "outputs": [
        {
          "internalType": "address",
          "name": "",
          "type": "address"
        }
      ],
      "stateMutability": "view",
      "type": "function"
    },
    {
      "inputs": [
        {
          "internalType": "bytes32",
          "name": "",
          "type": "bytes32"
        }
      ],
      "name": "proposalExecutionTime",
      "outputs": [
        {
          "internalType": "uint256",
          "name": "",
          "type": "uint256"
        }
      ],
      "stateMutability": "view",
      "type": "function"
    },
    {
      "inputs": [],
      "name": "quorum",
      "outputs": [
        {
          "internalType": "uint256",
          "name": "",
          "type": "uint256"
        }
      ],
      "stateMutability": "view",
      "type": "function"
    },
    {
      "inputs": [],
      "name": "renounceOwnership",
      "outputs": [],
      "stateMutability": "nonpayable",
      "type": "function"
    },
    {
      "inputs": [
        {
          "internalType": "bytes",
          "name": "initParams",
          "type": "bytes"
        }
      ],
      "name": "setUp",
      "outputs": [],
      "stateMutability": "nonpayable",
      "type": "function"
    },
    {
      "inputs": [
        {
          "internalType": "address",
          "name": "newVetoGuardian",
          "type": "address"
        }
      ],
      "name": "setVetoGuardian",
      "outputs": [],
      "stateMutability": "nonpayable",
      "type": "function"
    },
    {
      "inputs": [
        {
          "internalType": "bytes4",
          "name": "interfaceId",
          "type": "bytes4"
        }
      ],
      "name": "supportsInterface",
      "outputs": [
        {
          "internalType": "bool",
          "name": "",
          "type": "bool"
        }
      ],
      "stateMutability": "pure",
      "type": "function"
    },
    {
      "inputs": [],
      "name": "timelockDelay",
      "outputs": [
        {
          "internalType": "uint256",
          "name": "",
          "type": "uint256"
        }
      ],
      "stateMutability": "view",
      "type": "function"
    },
    {
      "inputs": [
        {
          "internalType": "address",
          "name": "newOwner",
          "type": "address"
        }
      ],
      "name": "transferOwnership",
      "outputs": [],
      "stateMutability": "nonpayable",
      "type": "function"
    },
    {
      "inputs": [
        {
          "internalType": "bytes32",
          "name": "executionPayloadHash",
          "type": "bytes32"
        }
      ],
      "name": "veto",
      "outputs": [],
      "stateMutability": "nonpayable",
      "type": "function"
    },
    {
      "inputs": [],
      "name": "vetoGuardian",
      "outputs": [
        {
          "internalType": "address",
          "name": "",
          "type": "address"
        }
      ],
      "stateMutability": "view",
      "type": "function"
    },
    {
      "stateMutability": "payable",
      "type": "receive"
    }
  ],
  "bytecode": {
    "object": "0x608060409080825234620003e057620020c68038038091620000228285620003e5565b833981019060a081830312620003e0576200003d816200041f565b916020916200004e8382016200041f565b818601516001600160401b0393909190848311620003e0576200007c6200009891620000a794860162000434565b93608060608201519101519089519586948986019a8b620004ab565b03601f198101835282620003e5565b60009081549260ff95868560081c161592838094620003d3575b8015620003bb575b15620003605760ff198087166001908117875596856200034e575b50815182019260a0838503126200034a5762000100906200041f565b936200010e8b84016200041f565b93606084015191821162000346579089806200012f93019185010162000434565b60a060808401519301519160018060a01b0380809716951695620001648c8a5460081c166200015e8162000518565b62000518565b6200016f3362000579565b3381603354160362000304578515620002b1576200018d8662000579565b606980546001600160a01b031916881790558854620001b19060081c8d1662000518565b888a5b6200025e575b505050916200020d917fc15fd8084157f309d865272ffc01c8742c26ee07705ca85106f5f79293352dad959493620001f989549c8d60081c1662000518565b81606655826067558c5195869586620004ab565b0390a162000225575b8451611b039081620005c38239f35b7f7f26b83ff96e1f2b6a682f133852f6798a09c465da95921460cefb38474024989361ff00191690558351908152a13880808062000216565b8351811015620002ab57818c8260051b86010151168a5260658c528d8a208b84825416179055600019811462000297578a018a620001b4565b634e487b7160e01b8a52601160045260248afd5b620001ba565b8c5162461bcd60e51b8152600481018c9052602660248201527f4f776e61626c653a206e6577206f776e657220697320746865207a65726f206160448201526564647265737360d01b6064820152608490fd5b60648b8e519062461bcd60e51b825280600483015260248201527f4f776e61626c653a2063616c6c6572206973206e6f7420746865206f776e65726044820152fd5b8780fd5b8680fd5b61ffff191661010117865538620000e4565b885162461bcd60e51b815260048101889052602e60248201527f496e697469616c697a61626c653a20636f6e747261637420697320616c72656160448201526d191e481a5b9a5d1a585b1a5e995960921b6064820152608490fd5b50303b158015620000c95750600188871614620000c9565b50600188871610620000c1565b600080fd5b601f909101601f19168101906001600160401b038211908210176200040957604052565b634e487b7160e01b600052604160045260246000fd5b51906001600160a01b0382168203620003e057565b9080601f83011215620003e0578151906001600160401b03821162000409578160051b604051936020936200046c85840187620003e5565b85528380860192820101928311620003e0578301905b82821062000491575050505090565b8380916200049f846200041f565b81520191019062000482565b92919594939560a084019060018060a01b03809316855282602091168186015260a0604086015283518092528060c086019401926000905b838210620004fe575050505050906080919460608201520152565b8451811686529482019493820193600190910190620004e3565b156200052057565b60405162461bcd60e51b815260206004820152602b60248201527f496e697469616c697a61626c653a20636f6e7472616374206973206e6f74206960448201526a6e697469616c697a696e6760a81b6064820152608490fd5b603380546001600160a01b039283166001600160a01b0319821681179092559091167f8be0079c531659141344cd1fd0a4f28419497f9722a3daafe3b4186f6b6457e0600080a356fe60406080815260048036101561001f575b5050361561001d57600080fd5b005b600091823560e01c806301fe22121461108c57806301ffc9a714610feb5780630eb9b15a14610f4e57806312513b4514610f19578063150b7a0214610ea95780631703a01814610e8a578063220f5fd914610df15780634a1cead114610dc95780636efd971c14610d80578063715018a614610d005780638da5cb5b14610ccb5780639e33d81114610c20578063a4f9edbf1461077f578063ad32287f14610516578063b3d8ecdf146104cf578063bc197c811461042c578063d92d4ea014610349578063eef09bad14610326578063f23a6e61146102b3578063f2fde38b146101e35763fb6f93f9146101135750610010565b346101df5760206003193601126101df5781359173ffffffffffffffffffffffffffffffffffffffff6069541633036101b857828452606860205281842054156101915750816020917f0c8bf601915d1f39ef591226bc69b3becc23fcb3616673c419062aa44beb42da93855260688352848181205551908152a180f35b90517f599fb1a3000000000000000000000000000000000000000000000000000000008152fd5b90517ffa5e8f94000000000000000000000000000000000000000000000000000000008152fd5b8280fd5b5090346101df5760206003193601126101df576101fe61134b565b916102076115e2565b73ffffffffffffffffffffffffffffffffffffffff831615610230578361022d84611661565b80f35b90602060849251917f08c379a0000000000000000000000000000000000000000000000000000000008352820152602660248201527f4f776e61626c653a206e6577206f776e657220697320746865207a65726f206160448201527f64647265737300000000000000000000000000000000000000000000000000006064820152fd5b5082346103235760a0600319360112610323576102ce61134b565b506102d7611373565b506084359067ffffffffffffffff821161032357506020926102fb91369101611541565b5050517ff23a6e61000000000000000000000000000000000000000000000000000000008152f35b80fd5b8382346103455781600319360112610345576020906067549051908152f35b5080fd5b50346101df5760206003193601126101df5773ffffffffffffffffffffffffffffffffffffffff61037861134b565b6103806115e2565b169182158015610417575b6103f05750816020917fc3dc08a46232e8d0a95510120799f1e68e0aa28c88730b8b0127d5ff4565b4b09385526065835280852060017fffffffffffffffffffffffffffffffffffffffffffffffffffffffffffffff0082541617905551908152a180f35b90517fc3b48cf1000000000000000000000000000000000000000000000000000000008152fd5b50828452606560205260ff828520541661038b565b5082346103235760a06003193601126103235761044761134b565b50610450611373565b5067ffffffffffffffff906044358281116103455761047290369086016115b1565b50506064358281116103455761048b90369086016115b1565b505060843591821161032357506020926104a791369101611541565b5050517fbc197c81000000000000000000000000000000000000000000000000000000008152f35b8382346103455761018060031936011261034557610512906105076104f336611396565b6101643590610144359061012435906116ce565b90519182918261156f565b0390f35b508234610323576020908160031936011261032357833567ffffffffffffffff811161034557610549903690860161149e565b93845183860190812095868452606885528584205415610757578684526068855285842054421061072f579084610590928886526068825285888120558051010190611890565b91805b83518110156107025760606105a88286611a2f565b51015160028110156106d65760010361067e57818073ffffffffffffffffffffffffffffffffffffffff6105dc8488611a2f565b515116886105ea8589611a2f565b510151908882519201905af46105fe611ad0565b505b1561065657807f2968e6e48e1461dc6f6934a21a5ea27fad9b6786850ad93f47c2caa4f95fde136106496106376106519488611a2f565b5189519182918a83528a830190611a72565b0390a1611a02565b610593565b8286517facfdb444000000000000000000000000000000000000000000000000000000008152fd5b818073ffffffffffffffffffffffffffffffffffffffff61069f8488611a2f565b515116876106ad8589611a2f565b51015190896106bc868a611a2f565b510151918983519301915af16106d0611ad0565b50610600565b6024836021867f4e487b7100000000000000000000000000000000000000000000000000000000835252fd5b507f7b1bcf1ccf901a11589afff5504d59fd0a53780eed2a952adade0348985139e084878751908152a180f35b8286517f65aecf1d000000000000000000000000000000000000000000000000000000008152fd5b8286517f599fb1a3000000000000000000000000000000000000000000000000000000008152fd5b5090346101df5760209081600319360112610c1c5767ffffffffffffffff928135848111610c18576107b4903690840161149e565b9385549260ff95868560081c161592838094610c0c575b8015610bf6575b15610b74576001957fffffffffffffffffffffffffffffffffffffffffffffffffffffffffffffff00908588838316178c55610b46575b50825183019360a0848a8701960312610b42576108278985016117cc565b916108338886016117cc565b936060860151908111610b3e5785019186603f84011215610b3e578a8301519661086461085f896117ed565b6112d8565b938c858a815201908b829a60051b820101928311610b3a57918f9998979593918f9795938f908e01915b838310610b0957505050506108d660a060808901519801519673ffffffffffffffffffffffffffffffffffffffff8080971697169a5460081c166108d181611805565b611805565b6108df33611661565b6108e76115e2565b8415610a8757508a908c8f8f849161093d8f926109089d9e9d8b9a9b611661565b8d7fffffffffffffffffffffffff00000000000000000000000000000000000000006069541617606955825460081c16611805565b80925b610a38575b935050505061095b9150549c8d60081c16611805565b836066558460675588519560a087019287528b87015260a0898701525180915260c0850195918c905b8a8c848410610a20575050505050509282917fc15fd8084157f309d865272ffc01c8742c26ee07705ca85106f5f79293352dad94606084015260808301520390a16109cd578480f35b7fffffffffffffffffffffffffffffffffffffffffffffffffffffffffffff00ff7f7f26b83ff96e1f2b6a682f133852f6798a09c465da95921460cefb38474024989416855551908152a1388080808480f35b855183168a5298890198909401939190910190610984565b869c9b9c98979851831015610a7c576065610a6b9489610a58868b611a2f565b5116835252208484825416179055611a02565b8f908c8f92859c9b9c989798610940565b9b9a9b979697610945565b6084908d8c51917f08c379a0000000000000000000000000000000000000000000000000000000008352820152602660248201527f4f776e61626c653a206e6577206f776e657220697320746865207a65726f206160448201527f64647265737300000000000000000000000000000000000000000000000000006064820152fd5b90929496985081939597999a9b50610b2183926117cc565b8152019101918f999897959391928f9795938f9061088e565b8f80fd5b8c80fd5b8a80fd5b7fffffffffffffffffffffffffffffffffffffffffffffffffffffffffffff000016610101178a5538610809565b608483888751917f08c379a0000000000000000000000000000000000000000000000000000000008352820152602e60248201527f496e697469616c697a61626c653a20636f6e747261637420697320616c72656160448201527f647920696e697469616c697a65640000000000000000000000000000000000006064820152fd5b50303b1580156107d257506001888716146107d2565b506001888716106107cb565b8580fd5b8380fd5b50346101df5760206003193601126101df5773ffffffffffffffffffffffffffffffffffffffff610c4f61134b565b610c576115e2565b1691828452606560205260ff8285205416156103f05750816020917f665604bfe8ee87044ba1f1fd2fb47fe92983c9e187acbb442debf97d3e581921938552606583528085207fffffffffffffffffffffffffffffffffffffffffffffffffffffffffffffff00815416905551908152a180f35b83823461034557816003193601126103455760209073ffffffffffffffffffffffffffffffffffffffff603354169051908152f35b8334610323578060031936011261032357610d196115e2565b8073ffffffffffffffffffffffffffffffffffffffff6033547fffffffffffffffffffffffff00000000000000000000000000000000000000008116603355167f8be0079c531659141344cd1fd0a4f28419497f9722a3daafe3b4186f6b6457e08280a380f35b8382346103455760206003193601126103455760ff8160209373ffffffffffffffffffffffffffffffffffffffff610db661134b565b1681526065855220541690519015158152f35b5090346101df5760206003193601126101df5760209282913581526068845220549051908152f35b838234610345576020600319360112610345577fffffffffffffffffffffffff0000000000000000000000000000000000000000610e2d61134b565b91610e366115e2565b7fcf29bde14aae78ac738504abe3fd1a25675f3c52c42e5d2d7e85b549cd0c4b806069549180519473ffffffffffffffffffffffffffffffffffffffff9081851687521694856020820152a1161760695580f35b8382346103455781600319360112610345576020906066549051908152f35b50823461032357608060031936011261032357610ec461134b565b50610ecd611373565b506064359067ffffffffffffffff82116103235750602092610ef191369101611541565b5050517f150b7a02000000000000000000000000000000000000000000000000000000008152f35b83823461034557816003193601126103455760209073ffffffffffffffffffffffffffffffffffffffff606954169051908152f35b508290346103455781600319360112610345578051918183019083821067ffffffffffffffff831117610fbf575061051293508152601482527f53696d706c6551756f72756d54696d656c6f636b0000000000000000000000006020830152519182916020835260208301906114fe565b806041867f4e487b71000000000000000000000000000000000000000000000000000000006024945252fd5b5090346101df5760206003193601126101df5735907fffffffff0000000000000000000000000000000000000000000000000000000082168092036101df57602092507f150b7a02000000000000000000000000000000000000000000000000000000008214918215611062575b50519015158152f35b7f4e2312e00000000000000000000000000000000000000000000000000000000014915038611059565b509134610323576101a0600319360112610323576110a936611396565b926101843567ffffffffffffffff81116101df576110ca903690850161149e565b913381526020946065865260ff8383205416156112b0576080810194855191855192888701938420036112885761110f906101643590610144359061012435906116ce565b600781101561125c57600381141580611251575b61121a57508551835260688752838320546111f35750611162908661114a60675442611790565b95875185526068825286868620558051010190611890565b90805b82518110156111c457807f43bc9641fb109444334c2b11fbab28e69b005b810a5449bbf63c36d64277ffe56111b26111a06111bf9487611a2f565b51875191829189835289830190611a72565b898c8301520390a1611a02565b611165565b507f4e8c9d52084f3373dec7c4e5c6bd10b8b97fe0a107841ed1de3fbc8f0cc9e984868487519051908152a180f35b83517fa65ca451000000000000000000000000000000000000000000000000000000008152fd5b9061124d85519283927fe6ace38e000000000000000000000000000000000000000000000000000000008452830161156f565b0390fd5b506002811415611123565b6024846021847f4e487b7100000000000000000000000000000000000000000000000000000000835252fd5b5083517f7c6953f9000000000000000000000000000000000000000000000000000000008152fd5b8483517fc3b48cf1000000000000000000000000000000000000000000000000000000008152fd5b907fffffffffffffffffffffffffffffffffffffffffffffffffffffffffffffffe0601f604051930116820182811067ffffffffffffffff82111761131c57604052565b7f4e487b7100000000000000000000000000000000000000000000000000000000600052604160045260246000fd5b6004359073ffffffffffffffffffffffffffffffffffffffff8216820361136e57565b600080fd5b6024359073ffffffffffffffffffffffffffffffffffffffff8216820361136e57565b610120919060031901821361136e5760405191820182811067ffffffffffffffff82111761131c576040528163ffffffff600435818116810361136e578252602435818116810361136e576020830152604435818116810361136e576040830152606435908116810361136e576060820152608435608082015273ffffffffffffffffffffffffffffffffffffffff60a435818116810361136e5760a083015260c435908116810361136e5760c082015260e435600381101561136e5760e082015261010061010435910152565b67ffffffffffffffff811161131c57601f017fffffffffffffffffffffffffffffffffffffffffffffffffffffffffffffffe01660200190565b81601f8201121561136e578035906114b861085f83611464565b928284526020838301011161136e57816000926020809301838601378301015290565b60005b8381106114ee5750506000910152565b81810151838201526020016114de565b907fffffffffffffffffffffffffffffffffffffffffffffffffffffffffffffffe0601f60209361153a815180928187528780880191016114db565b0116010190565b9181601f8401121561136e5782359167ffffffffffffffff831161136e576020838186019501011161136e57565b9190602083019260078210156115825752565b7f4e487b7100000000000000000000000000000000000000000000000000000000600052602160045260246000fd5b9181601f8401121561136e5782359167ffffffffffffffff831161136e576020808501948460051b01011161136e57565b73ffffffffffffffffffffffffffffffffffffffff60335416330361160357565b60646040517f08c379a000000000000000000000000000000000000000000000000000000000815260206004820152602060248201527f4f776e61626c653a2063616c6c6572206973206e6f7420746865206f776e65726044820152fd5b6033549073ffffffffffffffffffffffffffffffffffffffff80911691827fffffffffffffffffffffffff0000000000000000000000000000000000000000821617603355167f8be0079c531659141344cd1fd0a4f28419497f9722a3daafe3b4186f6b6457e0600080a3565b9190926116e7606654916116e28487611790565b611790565b10159283611786575b505060e08101805160038110156115825760020361171057505050600690565b51600381101561158257600103611728575050600490565b63ffffffff9081602082015116421060001461174657505050600090565b6040810151821642101561175c57505050600190565b6060015116421015611777571561177257600290565b600190565b1561178157600390565b600590565b11915038806116f0565b9190820180921161179d57565b7f4e487b7100000000000000000000000000000000000000000000000000000000600052601160045260246000fd5b519073ffffffffffffffffffffffffffffffffffffffff8216820361136e57565b67ffffffffffffffff811161131c5760051b60200190565b1561180c57565b60846040517f08c379a000000000000000000000000000000000000000000000000000000000815260206004820152602b60248201527f496e697469616c697a61626c653a20636f6e7472616374206973206e6f74206960448201527f6e697469616c697a696e670000000000000000000000000000000000000000006064820152fd5b602090818184031261136e57805167ffffffffffffffff9182821161136e57019083601f8301121561136e5781516118ca61085f826117ed565b94848087848152019260051b8501019381851161136e57858101925b8584106118f7575050505050505090565b835185811161136e5782019060a090817fffffffffffffffffffffffffffffffffffffffffffffffffffffffffffffffe0848703011261136e576040918251908082018281108a8211176119d45784526119528b86016117cc565b8252838501518b830152606093848601518a811161136e5786019088603f8301121561136e578c8201519161198961085f84611464565b928084528a83828401011161136e576119a8918f8490860191016114db565b8301526080908186015195600287101561136e578c9687968501520151908201528152019301926118e6565b602460007f4e487b710000000000000000000000000000000000000000000000000000000081526041600452fd5b7fffffffffffffffffffffffffffffffffffffffffffffffffffffffffffffffff811461179d5760010190565b8051821015611a435760209160051b010190565b7f4e487b7100000000000000000000000000000000000000000000000000000000600052603260045260246000fd5b9073ffffffffffffffffffffffffffffffffffffffff825116815260208201516020820152611ab0604083015160a0604084015260a08301906114fe565b916060810151600281101561158257606083015260809081015191015290565b3d15611af1573d90611ae461085f83611464565b9182523d6000602084013e565b60609056fea164736f6c6343000812000a",
    "linkReferences": {}
  },
  "methodIdentifiers": {
    "disableSpace(address)": "9e33d811",
    "enableSpace(address)": "d92d4ea0",
    "execute((uint32,uint32,uint32,uint32,bytes32,address,address,uint8,uint256),uint256,uint256,uint256,bytes)": "01fe2212",
    "executeQueuedProposal(bytes)": "ad32287f",
    "getProposalStatus((uint32,uint32,uint32,uint32,bytes32,address,address,uint8,uint256),uint256,uint256,uint256)": "b3d8ecdf",
    "getStrategyType()": "0eb9b15a",
    "isSpaceEnabled(address)": "6efd971c",
    "onERC1155BatchReceived(address,address,uint256[],uint256[],bytes)": "bc197c81",
    "onERC1155Received(address,address,uint256,uint256,bytes)": "f23a6e61",
    "onERC721Received(address,address,uint256,bytes)": "150b7a02",
    "owner()": "8da5cb5b",
    "proposalExecutionTime(bytes32)": "4a1cead1",
    "quorum()": "1703a018",
    "renounceOwnership()": "715018a6",
    "setUp(bytes)": "a4f9edbf",
    "setVetoGuardian(address)": "220f5fd9",
    "supportsInterface(bytes4)": "01ffc9a7",
    "timelockDelay()": "eef09bad",
    "transferOwnership(address)": "f2fde38b",
    "veto(bytes32)": "fb6f93f9",
    "vetoGuardian()": "12513b45"
  },
  "id": 77
}