{
  "abi": [
    {
      "inputs": [
        {
          "internalType": "address",
          "name": "_owner",
          "type": "address"
        },
        {
          "internalType": "address[]",
          "name": "_spaces",
          "type": "address[]"
        },
        {
          "internalType": "uint256",
          "name": "_timelockDelay",
          "type": "uint256"
        },
        {
          "internalType": "uint256",
          "name": "_quorum",
          "type": "uint256"
        }
      ],
      "stateMutability": "nonpayable",
      "type": "constructor"
    },
    {
      "inputs": [],
      "name": "DuplicateExecutionPayloadHash",
      "type": "error"
    },
    {
      "inputs": [],
      "name": "ExecutionFailed",
      "type": "error"
    },
    {
      "inputs": [],
      "name": "InvalidPayload",
      "type": "error"
    },
    {
      "inputs": [
        {
          "internalType": "enum ProposalStatus",
          "name": "status",
          "type": "uint8"
        }
      ],
      "name": "InvalidProposalStatus",
      "type": "error"
    },
    {
      "inputs": [],
      "name": "InvalidSpace",
      "type": "error"
    },
    {
      "inputs": [],
      "name": "OnlyVetoGuardian",
      "type": "error"
    },
    {
      "inputs": [],
      "name": "ProposalNotQueued",
      "type": "error"
    },
    {
      "inputs": [],
      "name": "TimelockDelayNotMet",
      "type": "error"
    },
    {
      "anonymous": false,
      "inputs": [
        {
          "indexed": false,
          "internalType": "uint8",
          "name": "version",
          "type": "uint8"
        }
      ],
      "name": "Initialized",
      "type": "event"
    },
    {
      "anonymous": false,
      "inputs": [
        {
          "indexed": true,
          "internalType": "address",
          "name": "previousOwner",
          "type": "address"
        },
        {
          "indexed": true,
          "internalType": "address",
          "name": "newOwner",
          "type": "address"
        }
      ],
      "name": "OwnershipTransferred",
      "type": "event"
    },
    {
      "anonymous": false,
      "inputs": [
        {
          "indexed": false,
          "internalType": "bytes32",
          "name": "executionPayloadHash",
          "type": "bytes32"
        }
      ],
      "name": "ProposalExecuted",
      "type": "event"
    },
    {
      "anonymous": false,
      "inputs": [
        {
          "indexed": false,
          "internalType": "bytes32",
          "name": "executionPayloadHash",
          "type": "bytes32"
        }
      ],
      "name": "ProposalQueued",
      "type": "event"
    },
    {
      "anonymous": false,
      "inputs": [
        {
          "indexed": false,
          "internalType": "bytes32",
          "name": "executionPayloadHash",
          "type": "bytes32"
        }
      ],
      "name": "ProposalVetoed",
      "type": "event"
    },
    {
      "anonymous": false,
      "inputs": [
        {
          "indexed": false,
          "internalType": "address",
          "name": "space",
          "type": "address"
        }
      ],
      "name": "SpaceDisabled",
      "type": "event"
    },
    {
      "anonymous": false,
      "inputs": [
        {
          "indexed": false,
          "internalType": "address",
          "name": "space",
          "type": "address"
        }
      ],
      "name": "SpaceEnabled",
      "type": "event"
    },
    {
      "anonymous": false,
      "inputs": [
        {
          "components": [
            {
              "internalType": "address",
              "name": "to",
              "type": "address"
            },
            {
              "internalType": "uint256",
              "name": "value",
              "type": "uint256"
            },
            {
              "internalType": "bytes",
              "name": "data",
              "type": "bytes"
            },
            {
              "internalType": "enum Enum.Operation",
              "name": "operation",
              "type": "uint8"
            },
            {
              "internalType": "uint256",
              "name": "salt",
              "type": "uint256"
            }
          ],
          "indexed": false,
          "internalType": "struct MetaTransaction",
          "name": "transaction",
          "type": "tuple"
        }
      ],
      "name": "TransactionExecuted",
      "type": "event"
    },
    {
      "anonymous": false,
      "inputs": [
        {
          "components": [
            {
              "internalType": "address",
              "name": "to",
              "type": "address"
            },
            {
              "internalType": "uint256",
              "name": "value",
              "type": "uint256"
            },
            {
              "internalType": "bytes",
              "name": "data",
              "type": "bytes"
            },
            {
              "internalType": "enum Enum.Operation",
              "name": "operation",
              "type": "uint8"
            },
            {
              "internalType": "uint256",
              "name": "salt",
              "type": "uint256"
            }
          ],
          "indexed": false,
          "internalType": "struct MetaTransaction",
          "name": "transaction",
          "type": "tuple"
        },
        {
          "indexed": false,
          "internalType": "uint256",
          "name": "executionTime",
          "type": "uint256"
        }
      ],
      "name": "TransactionQueued",
      "type": "event"
    },
    {
      "anonymous": false,
      "inputs": [
        {
          "indexed": false,
          "internalType": "address",
          "name": "vetoGuardian",
          "type": "address"
        },
        {
          "indexed": false,
          "internalType": "address",
          "name": "newVetoGuardian",
          "type": "address"
        }
      ],
      "name": "VetoGuardianSet",
      "type": "event"
    },
    {
      "inputs": [
        {
          "internalType": "address",
          "name": "space",
          "type": "address"
        }
      ],
      "name": "disableSpace",
      "outputs": [],
      "stateMutability": "nonpayable",
      "type": "function"
    },
    {
      "inputs": [
        {
          "internalType": "address",
          "name": "space",
          "type": "address"
        }
      ],
      "name": "enableSpace",
      "outputs": [],
      "stateMutability": "nonpayable",
      "type": "function"
    },
    {
      "inputs": [
        {
          "components": [
            {
              "internalType": "uint32",
              "name": "snapshotTimestamp",
              "type": "uint32"
            },
            {
              "internalType": "uint32",
              "name": "startTimestamp",
              "type": "uint32"
            },
            {
              "internalType": "uint32",
              "name": "minEndTimestamp",
              "type": "uint32"
            },
            {
              "internalType": "uint32",
              "name": "maxEndTimestamp",
              "type": "uint32"
            },
            {
              "internalType": "bytes32",
              "name": "executionPayloadHash",
              "type": "bytes32"
            },
            {
              "internalType": "contract IExecutionStrategy",
              "name": "executionStrategy",
              "type": "address"
            },
            {
              "internalType": "address",
              "name": "author",
              "type": "address"
            },
            {
              "internalType": "enum FinalizationStatus",
              "name": "finalizationStatus",
              "type": "uint8"
            },
            {
              "components": [
                {
                  "internalType": "address",
                  "name": "addr",
                  "type": "address"
                },
                {
                  "internalType": "bytes",
                  "name": "params",
                  "type": "bytes"
                }
              ],
              "internalType": "struct Strategy[]",
              "name": "votingStrategies",
              "type": "tuple[]"
            }
          ],
          "internalType": "struct Proposal",
          "name": "proposal",
          "type": "tuple"
        },
        {
          "internalType": "uint256",
          "name": "votesFor",
          "type": "uint256"
        },
        {
          "internalType": "uint256",
          "name": "votesAgainst",
          "type": "uint256"
        },
        {
          "internalType": "uint256",
          "name": "votesAbstain",
          "type": "uint256"
        },
        {
          "internalType": "bytes",
          "name": "payload",
          "type": "bytes"
        }
      ],
      "name": "execute",
      "outputs": [],
      "stateMutability": "nonpayable",
      "type": "function"
    },
    {
      "inputs": [
        {
          "internalType": "bytes",
          "name": "payload",
          "type": "bytes"
        }
      ],
      "name": "executeQueuedProposal",
      "outputs": [],
      "stateMutability": "payable",
      "type": "function"
    },
    {
      "inputs": [
        {
          "components": [
            {
              "internalType": "uint32",
              "name": "snapshotTimestamp",
              "type": "uint32"
            },
            {
              "internalType": "uint32",
              "name": "startTimestamp",
              "type": "uint32"
            },
            {
              "internalType": "uint32",
              "name": "minEndTimestamp",
              "type": "uint32"
            },
            {
              "internalType": "uint32",
              "name": "maxEndTimestamp",
              "type": "uint32"
            },
            {
              "internalType": "bytes32",
              "name": "executionPayloadHash",
              "type": "bytes32"
            },
            {
              "internalType": "contract IExecutionStrategy",
              "name": "executionStrategy",
              "type": "address"
            },
            {
              "internalType": "address",
              "name": "author",
              "type": "address"
            },
            {
              "internalType": "enum FinalizationStatus",
              "name": "finalizationStatus",
              "type": "uint8"
            },
            {
              "components": [
                {
                  "internalType": "address",
                  "name": "addr",
                  "type": "address"
                },
                {
                  "internalType": "bytes",
                  "name": "params",
                  "type": "bytes"
                }
              ],
              "internalType": "struct Strategy[]",
              "name": "votingStrategies",
              "type": "tuple[]"
            }
          ],
          "internalType": "struct Proposal",
          "name": "proposal",
          "type": "tuple"
        },
        {
          "internalType": "uint256",
          "name": "votesFor",
          "type": "uint256"
        },
        {
          "internalType": "uint256",
          "name": "votesAgainst",
          "type": "uint256"
        },
        {
          "internalType": "uint256",
          "name": "votesAbstain",
          "type": "uint256"
        }
      ],
      "name": "getProposalStatus",
      "outputs": [
        {
          "internalType": "enum ProposalStatus",
          "name": "",
          "type": "uint8"
        }
      ],
      "stateMutability": "view",
      "type": "function"
    },
    {
      "inputs": [],
      "name": "getStrategyType",
      "outputs": [
        {
          "internalType": "string",
          "name": "",
          "type": "string"
        }
      ],
      "stateMutability": "pure",
      "type": "function"
    },
    {
      "inputs": [
        {
          "internalType": "address",
          "name": "space",
          "type": "address"
        }
      ],
      "name": "isSpaceEnabled",
      "outputs": [
        {
          "internalType": "bool",
          "name": "",
          "type": "bool"
        }
      ],
      "stateMutability": "view",
      "type": "function"
    },
    {
      "inputs": [],
      "name": "owner",
      "outputs": [
        {
          "internalType": "address",
          "name": "",
          "type": "address"
        }
      ],
      "stateMutability": "view",
      "type": "function"
    },
    {
      "inputs": [
        {
          "internalType": "bytes32",
          "name": "",
          "type": "bytes32"
        }
      ],
      "name": "proposalExecutionTime",
      "outputs": [
        {
          "internalType": "uint256",
          "name": "",
          "type": "uint256"
        }
      ],
      "stateMutability": "view",
      "type": "function"
    },
    {
      "inputs": [],
      "name": "quorum",
      "outputs": [
        {
          "internalType": "uint256",
          "name": "",
          "type": "uint256"
        }
      ],
      "stateMutability": "view",
      "type": "function"
    },
    {
      "inputs": [],
      "name": "renounceOwnership",
      "outputs": [],
      "stateMutability": "nonpayable",
      "type": "function"
    },
    {
      "inputs": [
        {
          "internalType": "bytes",
          "name": "initializeParams",
          "type": "bytes"
        }
      ],
      "name": "setUp",
      "outputs": [],
      "stateMutability": "nonpayable",
      "type": "function"
    },
    {
      "inputs": [
        {
          "internalType": "address",
          "name": "newVetoGuardian",
          "type": "address"
        }
      ],
      "name": "setVetoGuardian",
      "outputs": [],
      "stateMutability": "nonpayable",
      "type": "function"
    },
    {
      "inputs": [],
      "name": "timelockDelay",
      "outputs": [
        {
          "internalType": "uint256",
          "name": "",
          "type": "uint256"
        }
      ],
      "stateMutability": "view",
      "type": "function"
    },
    {
      "inputs": [
        {
          "internalType": "address",
          "name": "newOwner",
          "type": "address"
        }
      ],
      "name": "transferOwnership",
      "outputs": [],
      "stateMutability": "nonpayable",
      "type": "function"
    },
    {
      "inputs": [
        {
          "internalType": "bytes32",
          "name": "executionPayloadHash",
          "type": "bytes32"
        }
      ],
      "name": "veto",
      "outputs": [],
      "stateMutability": "nonpayable",
      "type": "function"
    },
    {
      "inputs": [],
      "name": "vetoGuardian",
      "outputs": [
        {
          "internalType": "address",
          "name": "",
          "type": "address"
        }
      ],
      "stateMutability": "view",
      "type": "function"
    },
    {
      "stateMutability": "payable",
      "type": "receive"
    }
  ],
  "bytecode": {
    "object": "0x608060409080825234620003065762001d968038038091620000228285620003b8565b833981019060808183031262000306576200003d81620003f2565b6020828101516001600160401b039491939185821162000306576200006491830162000407565b606086830151920151908651928584019460a0850160018060a01b038092168752858a8101946080865280518093528960c0830191019260005b8b8282106200039e57505050606082019485526080820196875203601f1981018752620000cd915086620003b8565b6000549160ff98898460081c16159687809862000391575b801562000379575b156200031e5760019860ff1995898b888316176000556200030b575b50815182019060808383031262000306575196858816809803620003065751928311620003065762000142928b80920192010162000407565b9051945193620001648a60005460081c166200015e816200047e565b6200047e565b6200016f33620004df565b33836033541603620002c45780156200027157906200019188949392620004df565b620001a38a60005460081c166200047e565b6000935b62000218575b50505050620001c4600054968760081c166200047e565b606655606755620001df575b835161186d9081620005298239f35b7f7f26b83ff96e1f2b6a682f133852f6798a09c465da95921460cefb38474024989261ff0019166000558351908152a1388080620001d0565b80518410156200026b5781898560051b8301015116600052606589528a6000208884825416179055600019841462000255578780940193620001a7565b634e487b7160e01b600052601160045260246000fd5b620001ad565b8a5162461bcd60e51b8152600481018a9052602660248201527f4f776e61626c653a206e6577206f776e657220697320746865207a65726f206160448201526564647265737360d01b6064820152608490fd5b6064898c519062461bcd60e51b825280600483015260248201527f4f776e61626c653a2063616c6c6572206973206e6f7420746865206f776e65726044820152fd5b600080fd5b61ffff1916610101176000553862000109565b8b5162461bcd60e51b8152600481018b9052602e60248201527f496e697469616c697a61626c653a20636f6e747261637420697320616c72656160448201526d191e481a5b9a5d1a585b1a5e995960921b6064820152608490fd5b50303b158015620000ed575060018b861614620000ed565b5060018b861610620000e5565b855187168452948501948a9450909201916001016200009e565b601f909101601f19168101906001600160401b03821190821017620003dc57604052565b634e487b7160e01b600052604160045260246000fd5b51906001600160a01b03821682036200030657565b9080601f8301121562000306578151906001600160401b038211620003dc578160051b604051936020936200043f85840187620003b8565b8552838086019282010192831162000306578301905b82821062000464575050505090565b8380916200047284620003f2565b81520191019062000455565b156200048657565b60405162461bcd60e51b815260206004820152602b60248201527f496e697469616c697a61626c653a20636f6e7472616374206973206e6f74206960448201526a6e697469616c697a696e6760a81b6064820152608490fd5b603380546001600160a01b039283166001600160a01b0319821681179092559091167f8be0079c531659141344cd1fd0a4f28419497f9722a3daafe3b4186f6b6457e0600080a356fe6080604081815260049081361015610022575b505050361561002057600080fd5b005b600092833560e01c9081630eb9b15a14610f245750806312513b4514610eef57806312eadade14610e965780631703a01814610e77578063220f5fd914610dde5780634a1cead114610db65780636b12e4c414610b605780636efd971c14610b17578063715018a614610a975780638da5cb5b14610a625780639e33d811146109b7578063a4f9edbf146105f3578063ad32287f1461038c578063d92d4ea0146102a9578063eef09bad14610286578063f2fde38b146101b65763fb6f93f90361001257346101b25760206003193601126101b25781359173ffffffffffffffffffffffffffffffffffffffff60695416330361018b57828452606860205281842054156101645750816020917f0c8bf601915d1f39ef591226bc69b3becc23fcb3616673c419062aa44beb42da93855260688352848181205551908152a180f35b90517f599fb1a3000000000000000000000000000000000000000000000000000000008152fd5b90517ffa5e8f94000000000000000000000000000000000000000000000000000000008152fd5b8280fd5b5090346101b25760206003193601126101b2576101d16110ae565b916101da611392565b73ffffffffffffffffffffffffffffffffffffffff831615610203578361020084611411565b80f35b90602060849251917f08c379a0000000000000000000000000000000000000000000000000000000008352820152602660248201527f4f776e61626c653a206e6577206f776e657220697320746865207a65726f206160448201527f64647265737300000000000000000000000000000000000000000000000000006064820152fd5b8382346102a557816003193601126102a5576020906067549051908152f35b5080fd5b50346101b25760206003193601126101b25773ffffffffffffffffffffffffffffffffffffffff6102d86110ae565b6102e0611392565b169182158015610377575b6103505750816020917fc3dc08a46232e8d0a95510120799f1e68e0aa28c88730b8b0127d5ff4565b4b09385526065835280852060017fffffffffffffffffffffffffffffffffffffffffffffffffffffffffffffff0082541617905551908152a180f35b90517fc3b48cf1000000000000000000000000000000000000000000000000000000008152fd5b50828452606560205260ff82852054166102eb565b5082602090816003193601126105f057833567ffffffffffffffff81116102a5576103ba9036908601611144565b938451838601908120958684526068855285842054156105c857868452606885528584205442106105a0579084610401928886526068825285888120558051010190611628565b91805b83518110156105735760606104198286611799565b5101516002811015610547576001036104ef57818073ffffffffffffffffffffffffffffffffffffffff61044d8488611799565b5151168861045b8589611799565b510151908882519201905af461046f61183a565b505b156104c757807f2968e6e48e1461dc6f6934a21a5ea27fad9b6786850ad93f47c2caa4f95fde136104ba6104a86104c29488611799565b5189519182918a83528a8301906117dc565b0390a161176c565b610404565b8286517facfdb444000000000000000000000000000000000000000000000000000000008152fd5b818073ffffffffffffffffffffffffffffffffffffffff6105108488611799565b5151168761051e8589611799565b510151908961052d868a611799565b510151918983519301915af161054161183a565b50610471565b6024836021867f4e487b7100000000000000000000000000000000000000000000000000000000835252fd5b507f7b1bcf1ccf901a11589afff5504d59fd0a53780eed2a952adade0348985139e084878751908152a180f35b8286517f65aecf1d000000000000000000000000000000000000000000000000000000008152fd5b8286517f599fb1a3000000000000000000000000000000000000000000000000000000008152fd5b80fd5b5090346101b257602090816003193601126109b35767ffffffffffffffff9281358481116109af576106289036908401611144565b9385549460ff95868160081c1615928380946109a3575b801561098d575b1561090b576001957fffffffffffffffffffffffffffffffffffffffffffffffffffffffffffffff00928588858316178c556108dd575b5083518401906080858a84019303126108d957888501519073ffffffffffffffffffffffffffffffffffffffff938483168093036108d557888701519081116108d55786019280603f850112156108d5578a8401516106e36106de826110f2565b611025565b948a8d87848152019260051b8201019283116108d157908c8f989796959493928c01915b8383106108ab57505050506107348c608060608a0151990151975460081c1661072f8161159d565b61159d565b61073d33611411565b610745611392565b81156108295750908989898e61076c8f610761859a9998611411565b825460081c1661159d565b80925b6107ed575b9550505050505061078c915054978860081c1661159d565b60665560675561079a578480f35b7fffffffffffffffffffffffffffffffffffffffffffffffffffffffffffff00ff7f7f26b83ff96e1f2b6a682f133852f6798a09c465da95921460cefb38474024989416855551908152a1388080808480f35b845183101561082457606561081a94876108078689611799565b511683525220868682541617905561176c565b8a90898e8761076f565b610774565b6084908b8a51917f08c379a0000000000000000000000000000000000000000000000000000000008352820152602660248201527f4f776e61626c653a206e6577206f776e657220697320746865207a65726f206160448201527f64647265737300000000000000000000000000000000000000000000000000006064820152fd5b8293949596979899506108be829361157c565b81520191018c8f98979695949392610707565b8e80fd5b8c80fd5b8a80fd5b7fffffffffffffffffffffffffffffffffffffffffffffffffffffffffffff000016610101178a553861067d565b608486888751917f08c379a0000000000000000000000000000000000000000000000000000000008352820152602e60248201527f496e697469616c697a61626c653a20636f6e747261637420697320616c72656160448201527f647920696e697469616c697a65640000000000000000000000000000000000006064820152fd5b50303b1580156106465750600188831614610646565b5060018883161061063f565b8580fd5b8380fd5b50346101b25760206003193601126101b25773ffffffffffffffffffffffffffffffffffffffff6109e66110ae565b6109ee611392565b1691828452606560205260ff8285205416156103505750816020917f665604bfe8ee87044ba1f1fd2fb47fe92983c9e187acbb442debf97d3e581921938552606583528085207fffffffffffffffffffffffffffffffffffffffffffffffffffffffffffffff00815416905551908152a180f35b8382346102a557816003193601126102a55760209073ffffffffffffffffffffffffffffffffffffffff603354169051908152f35b83346105f057806003193601126105f057610ab0611392565b8073ffffffffffffffffffffffffffffffffffffffff6033547fffffffffffffffffffffffff00000000000000000000000000000000000000008116603355167f8be0079c531659141344cd1fd0a4f28419497f9722a3daafe3b4186f6b6457e08280a380f35b8382346102a55760206003193601126102a55760ff8160209373ffffffffffffffffffffffffffffffffffffffff610b4d6110ae565b1681526065855220541690519015158152f35b5091346105f05760a06003193601126105f05767ffffffffffffffff9282358481116101b257610b939036908501611181565b936084359081116101b257610bab9036908501611144565b913381526020946065865260ff838320541615610d8e57608081019485519185519288870193842003610d6657610bed9060643590604435906024359061147e565b6007811015610d3a57600381141580610d2f575b610cf85750855183526068875283832054610cd15750610c409086610c2860675442611540565b95875185526068825286868620558051010190611628565b90805b8251811015610ca257807f43bc9641fb109444334c2b11fbab28e69b005b810a5449bbf63c36d64277ffe5610c90610c7e610c9d9487611799565b518751918291898352898301906117dc565b898c8301520390a161176c565b610c43565b507f4e8c9d52084f3373dec7c4e5c6bd10b8b97fe0a107841ed1de3fbc8f0cc9e984868487519051908152a180f35b83517fa65ca451000000000000000000000000000000000000000000000000000000008152fd5b90610d2b85519283927fe6ace38e0000000000000000000000000000000000000000000000000000000084528301611350565b0390fd5b506002811415610c01565b6024846021847f4e487b7100000000000000000000000000000000000000000000000000000000835252fd5b5083517f7c6953f9000000000000000000000000000000000000000000000000000000008152fd5b8483517fc3b48cf1000000000000000000000000000000000000000000000000000000008152fd5b5090346101b25760206003193601126101b25760209282913581526068845220549051908152f35b8382346102a55760206003193601126102a5577fffffffffffffffffffffffff0000000000000000000000000000000000000000610e1a6110ae565b91610e23611392565b7fcf29bde14aae78ac738504abe3fd1a25675f3c52c42e5d2d7e85b549cd0c4b806069549180519473ffffffffffffffffffffffffffffffffffffffff9081851687521694856020820152a1161760695580f35b8382346102a557816003193601126102a5576020906066549051908152f35b5082346105f05760806003193601126105f05782359067ffffffffffffffff82116105f05750610ecf610eeb93610ee092369101611181565b60643590604435906024359061147e565b905191829182611350565b0390f35b8382346102a557816003193601126102a55760209073ffffffffffffffffffffffffffffffffffffffff606954169051908152f35b92939050346105f057806003193601126105f0578183019083821067ffffffffffffffff831117610f935750610eeb93508152601482527f53696d706c6551756f72756d54696d656c6f636b000000000000000000000000602083015251918291602083526020830190610fe2565b806041867f4e487b71000000000000000000000000000000000000000000000000000000006024945252fd5b60005b838110610fd25750506000910152565b8181015183820152602001610fc2565b907fffffffffffffffffffffffffffffffffffffffffffffffffffffffffffffffe0601f60209361101e81518092818752878088019101610fbf565b0116010190565b907fffffffffffffffffffffffffffffffffffffffffffffffffffffffffffffffe0601f604051930116820182811067ffffffffffffffff82111761106957604052565b7f4e487b7100000000000000000000000000000000000000000000000000000000600052604160045260246000fd5b359063ffffffff821682036110a957565b600080fd5b6004359073ffffffffffffffffffffffffffffffffffffffff821682036110a957565b359073ffffffffffffffffffffffffffffffffffffffff821682036110a957565b67ffffffffffffffff81116110695760051b60200190565b67ffffffffffffffff811161106957601f017fffffffffffffffffffffffffffffffffffffffffffffffffffffffffffffffe01660200190565b81601f820112156110a95780359061115e6106de8361110a565b92828452602083830101116110a957816000926020809301838601378301015290565b91906101209283818303126110a95760409384519081019267ffffffffffffffff938281108582111761106957865281956111bb84611098565b83526020916111cb838601611098565b838501526111da828601611098565b828501526111ea60608601611098565b60608501526080850135608085015260a085013573ffffffffffffffffffffffffffffffffffffffff811681036110a95760a085015261122c60c086016110d1565b60c085015260e085013560038110156110a95760e08501526101009485810135908782116110a957019181601f840112156110a9578235906112706106de836110f2565b9785808a858152019360051b860101948486116110a957868101935b86851061129f5750505050505050500152565b84358381116110a957820190847fffffffffffffffffffffffffffffffffffffffffffffffffffffffffffffffe083890301126110a957845190858201828110868211176113225786526112f48a84016110d1565b825285830135918583116110a957611313898c80969581960101611144565b8382015281520194019361128c565b602460007f4e487b710000000000000000000000000000000000000000000000000000000081526041600452fd5b9190602083019260078210156113635752565b7f4e487b7100000000000000000000000000000000000000000000000000000000600052602160045260246000fd5b73ffffffffffffffffffffffffffffffffffffffff6033541633036113b357565b60646040517f08c379a000000000000000000000000000000000000000000000000000000000815260206004820152602060248201527f4f776e61626c653a2063616c6c6572206973206e6f7420746865206f776e65726044820152fd5b6033549073ffffffffffffffffffffffffffffffffffffffff80911691827fffffffffffffffffffffffff0000000000000000000000000000000000000000821617603355167f8be0079c531659141344cd1fd0a4f28419497f9722a3daafe3b4186f6b6457e0600080a3565b919092611497606654916114928487611540565b611540565b10159283611536575b505060e0810180516003811015611363576002036114c057505050600690565b516003811015611363576001036114d8575050600490565b63ffffffff908160208201511642106000146114f657505050600090565b6040810151821642101561150c57505050600190565b6060015116421015611527571561152257600290565b600190565b1561153157600390565b600590565b11915038806114a0565b9190820180921161154d57565b7f4e487b7100000000000000000000000000000000000000000000000000000000600052601160045260246000fd5b519073ffffffffffffffffffffffffffffffffffffffff821682036110a957565b156115a457565b60846040517f08c379a000000000000000000000000000000000000000000000000000000000815260206004820152602b60248201527f496e697469616c697a61626c653a20636f6e7472616374206973206e6f74206960448201527f6e697469616c697a696e670000000000000000000000000000000000000000006064820152fd5b60209081818403126110a957805167ffffffffffffffff918282116110a957019083601f830112156110a95781516116626106de826110f2565b94848087848152019260051b850101938185116110a957858101925b85841061168f575050505050505090565b83518581116110a95782019060a090817fffffffffffffffffffffffffffffffffffffffffffffffffffffffffffffffe084870301126110a9576040918251908082018281108a8211176113225784526116ea8b860161157c565b8252838501518b830152606093848601518a81116110a95786019088603f830112156110a9578c820151916117216106de8461110a565b928084528a8382840101116110a957611740918f849086019101610fbf565b830152608090818601519560028710156110a9578c96879685015201519082015281520193019261167e565b7fffffffffffffffffffffffffffffffffffffffffffffffffffffffffffffffff811461154d5760010190565b80518210156117ad5760209160051b010190565b7f4e487b7100000000000000000000000000000000000000000000000000000000600052603260045260246000fd5b9073ffffffffffffffffffffffffffffffffffffffff82511681526020820151602082015261181a604083015160a0604084015260a0830190610fe2565b916060810151600281101561136357606083015260809081015191015290565b3d1561185b573d9061184e6106de8361110a565b9182523d6000602084013e565b60609056fea164736f6c6343000812000a",
    "linkReferences": {}
  },
  "methodIdentifiers": {
    "disableSpace(address)": "9e33d811",
    "enableSpace(address)": "d92d4ea0",
    "execute((uint32,uint32,uint32,uint32,bytes32,address,address,uint8,(address,bytes)[]),uint256,uint256,uint256,bytes)": "6b12e4c4",
    "executeQueuedProposal(bytes)": "ad32287f",
    "getProposalStatus((uint32,uint32,uint32,uint32,bytes32,address,address,uint8,(address,bytes)[]),uint256,uint256,uint256)": "12eadade",
    "getStrategyType()": "0eb9b15a",
    "isSpaceEnabled(address)": "6efd971c",
    "owner()": "8da5cb5b",
    "proposalExecutionTime(bytes32)": "4a1cead1",
    "quorum()": "1703a018",
    "renounceOwnership()": "715018a6",
    "setUp(bytes)": "a4f9edbf",
    "setVetoGuardian(address)": "220f5fd9",
    "timelockDelay()": "eef09bad",
    "transferOwnership(address)": "f2fde38b",
    "veto(bytes32)": "fb6f93f9",
    "vetoGuardian()": "12513b45"
  },
  "id": 63
}