{
  "abi": [
    {
      "inputs": [
        {
          "internalType": "enum ProposalOutcome",
          "name": "proposalOutcome",
          "type": "uint8"
        },
        {
          "internalType": "bytes",
          "name": "executionParams",
          "type": "bytes"
        }
      ],
      "name": "execute",
      "outputs": [],
      "stateMutability": "nonpayable",
      "type": "function"
    }
  ],
  "bytecode": {
    "object": "0x6080806040523461001657610186908161001c8239f35b600080fdfe608060048036101561001057600080fd5b600090813560e01c63fb4d364c1461002757600080fd5b346101755760407ffffffffffffffffffffffffffffffffffffffffffffffffffffffffffffffffc360112610175576003813510156101755760249267ffffffffffffffff908435828111610146573660238201121561014657808401359280841161014a577fffffffffffffffffffffffffffffffffffffffffffffffffffffffffffffffe0603f81601f87011601168301908382109082111761014a576040528282523686848301011161014657916020918187879501848301370101528154907fffffffffffffffffffffffffffffffffffffffffffffffffffffffffffffffff821461011c57506001018155604051f35b601191507f4e487b7100000000000000000000000000000000000000000000000000000000835252fd5b8480fd5b86866041877f4e487b7100000000000000000000000000000000000000000000000000000000835252fd5b5080fdfea164736f6c634300080f000a",
    "linkReferences": {}
  },
  "methodIdentifiers": {
    "execute(uint8,bytes)": "fb4d364c"
  },
  "id": 50
}