{
  "abi": [
    {
      "inputs": [
        {
          "internalType": "address",
          "name": "_owner",
          "type": "address"
        },
        {
          "internalType": "uint256",
          "name": "_quorum",
          "type": "uint256"
        }
      ],
      "stateMutability": "nonpayable",
      "type": "constructor"
    },
    {
      "inputs": [],
      "name": "ExecutionFailed",
      "type": "error"
    },
    {
      "inputs": [
        {
          "internalType": "enum ProposalStatus",
          "name": "status",
          "type": "uint8"
        }
      ],
      "name": "InvalidProposalStatus",
      "type": "error"
    },
    {
      "inputs": [],
      "name": "InvalidSpace",
      "type": "error"
    },
    {
      "anonymous": false,
      "inputs": [
        {
          "indexed": false,
          "internalType": "uint8",
          "name": "version",
          "type": "uint8"
        }
      ],
      "name": "Initialized",
      "type": "event"
    },
    {
      "anonymous": false,
      "inputs": [
        {
          "indexed": true,
          "internalType": "address",
          "name": "previousOwner",
          "type": "address"
        },
        {
          "indexed": true,
          "internalType": "address",
          "name": "newOwner",
          "type": "address"
        }
      ],
      "name": "OwnershipTransferred",
      "type": "event"
    },
    {
      "anonymous": false,
      "inputs": [
        {
          "indexed": false,
          "internalType": "uint256",
          "name": "newQuorum",
          "type": "uint256"
        }
      ],
      "name": "QuorumUpdated",
      "type": "event"
    },
    {
      "anonymous": false,
      "inputs": [
        {
          "indexed": false,
          "internalType": "address",
          "name": "space",
          "type": "address"
        }
      ],
      "name": "SpaceDisabled",
      "type": "event"
    },
    {
      "anonymous": false,
      "inputs": [
        {
          "indexed": false,
          "internalType": "address",
          "name": "space",
          "type": "address"
        }
      ],
      "name": "SpaceEnabled",
      "type": "event"
    },
    {
      "inputs": [
        {
          "internalType": "address",
          "name": "space",
          "type": "address"
        }
      ],
      "name": "disableSpace",
      "outputs": [],
      "stateMutability": "nonpayable",
      "type": "function"
    },
    {
      "inputs": [
        {
          "internalType": "address",
          "name": "space",
          "type": "address"
        }
      ],
      "name": "enableSpace",
      "outputs": [],
      "stateMutability": "nonpayable",
      "type": "function"
    },
    {
      "inputs": [
        {
          "components": [
            {
              "internalType": "address",
              "name": "author",
              "type": "address"
            },
            {
              "internalType": "uint32",
              "name": "startBlockNumber",
              "type": "uint32"
            },
            {
              "internalType": "contract IExecutionStrategy",
              "name": "executionStrategy",
              "type": "address"
            },
            {
              "internalType": "uint32",
              "name": "minEndBlockNumber",
              "type": "uint32"
            },
            {
              "internalType": "uint32",
              "name": "maxEndBlockNumber",
              "type": "uint32"
            },
            {
              "internalType": "enum FinalizationStatus",
              "name": "finalizationStatus",
              "type": "uint8"
            },
            {
              "internalType": "bytes32",
              "name": "executionPayloadHash",
              "type": "bytes32"
            },
            {
              "internalType": "uint256",
              "name": "activeVotingStrategies",
              "type": "uint256"
            }
          ],
          "internalType": "struct Proposal",
          "name": "proposal",
          "type": "tuple"
        },
        {
          "internalType": "uint256",
          "name": "votesFor",
          "type": "uint256"
        },
        {
          "internalType": "uint256",
          "name": "votesAgainst",
          "type": "uint256"
        },
        {
          "internalType": "uint256",
          "name": "votesAbstain",
          "type": "uint256"
        },
        {
          "internalType": "bytes",
          "name": "payload",
          "type": "bytes"
        }
      ],
      "name": "execute",
      "outputs": [],
      "stateMutability": "nonpayable",
      "type": "function"
    },
    {
      "inputs": [
        {
          "components": [
            {
              "internalType": "address",
              "name": "author",
              "type": "address"
            },
            {
              "internalType": "uint32",
              "name": "startBlockNumber",
              "type": "uint32"
            },
            {
              "internalType": "contract IExecutionStrategy",
              "name": "executionStrategy",
              "type": "address"
            },
            {
              "internalType": "uint32",
              "name": "minEndBlockNumber",
              "type": "uint32"
            },
            {
              "internalType": "uint32",
              "name": "maxEndBlockNumber",
              "type": "uint32"
            },
            {
              "internalType": "enum FinalizationStatus",
              "name": "finalizationStatus",
              "type": "uint8"
            },
            {
              "internalType": "bytes32",
              "name": "executionPayloadHash",
              "type": "bytes32"
            },
            {
              "internalType": "uint256",
              "name": "activeVotingStrategies",
              "type": "uint256"
            }
          ],
          "internalType": "struct Proposal",
          "name": "proposal",
          "type": "tuple"
        },
        {
          "internalType": "uint256",
          "name": "votesFor",
          "type": "uint256"
        },
        {
          "internalType": "uint256",
          "name": "votesAgainst",
          "type": "uint256"
        },
        {
          "internalType": "uint256",
          "name": "votesAbstain",
          "type": "uint256"
        }
      ],
      "name": "getProposalStatus",
      "outputs": [
        {
          "internalType": "enum ProposalStatus",
          "name": "",
          "type": "uint8"
        }
      ],
      "stateMutability": "view",
      "type": "function"
    },
    {
      "inputs": [],
      "name": "getStrategyType",
      "outputs": [
        {
          "internalType": "string",
          "name": "",
          "type": "string"
        }
      ],
      "stateMutability": "pure",
      "type": "function"
    },
    {
      "inputs": [
        {
          "internalType": "address",
          "name": "space",
          "type": "address"
        }
      ],
      "name": "isSpaceEnabled",
      "outputs": [
        {
          "internalType": "uint256",
          "name": "",
          "type": "uint256"
        }
      ],
      "stateMutability": "view",
      "type": "function"
    },
    {
      "inputs": [],
      "name": "owner",
      "outputs": [
        {
          "internalType": "address",
          "name": "",
          "type": "address"
        }
      ],
      "stateMutability": "view",
      "type": "function"
    },
    {
      "inputs": [],
      "name": "quorum",
      "outputs": [
        {
          "internalType": "uint256",
          "name": "",
          "type": "uint256"
        }
      ],
      "stateMutability": "view",
      "type": "function"
    },
    {
      "inputs": [],
      "name": "renounceOwnership",
      "outputs": [],
      "stateMutability": "nonpayable",
      "type": "function"
    },
    {
      "inputs": [
        {
          "internalType": "uint256",
          "name": "_quorum",
          "type": "uint256"
        }
      ],
      "name": "setQuorum",
      "outputs": [],
      "stateMutability": "nonpayable",
      "type": "function"
    },
    {
      "inputs": [
        {
          "internalType": "bytes",
          "name": "initParams",
          "type": "bytes"
        }
      ],
      "name": "setUp",
      "outputs": [],
      "stateMutability": "nonpayable",
      "type": "function"
    },
    {
      "inputs": [
        {
          "internalType": "address",
          "name": "newOwner",
          "type": "address"
        }
      ],
      "name": "transferOwnership",
      "outputs": [],
      "stateMutability": "nonpayable",
      "type": "function"
    }
  ],
  "bytecode": {
    "object": "0x608034620002c75762001112906001600160401b0390601f38849003908101601f191682019083821183831017620002b15780839160409687948552833981010312620002c75780516001600160a01b039283821691829003620002c7576020928301518551808501938452808701918252868152926060840192831184841017620002b157828752600093845460ff8160081c161594858096620002a3575b80156200028a575b1562000233575060ff19811660011786558891908562000221575b508051810103126200021d5751908582168092036200021d575194620000fa60ff855460081c16620000f481620002cc565b620002cc565b62000105336200032d565b33906033541603620001db578015620001885762000123906200032d565b8154936200013760ff8660081c16620002cc565b6066556200014f575b8351610d9b9081620003778239f35b7f7f26b83ff96e1f2b6a682f133852f6798a09c465da95921460cefb38474024989261ff0019169055825160018152a138808062000140565b855162461bcd60e51b815260048101859052602660248201527f4f776e61626c653a206e6577206f776e657220697320746865207a65726f206160448201526564647265737360d01b6064820152608490fd5b60648487519062461bcd60e51b825280600483015260248201527f4f776e61626c653a2063616c6c6572206973206e6f7420746865206f776e65726044820152fd5b8380fd5b61ffff191661010117865538620000c2565b6084906d191e481a5b9a5d1a585b1a5e995960921b60c4858b62461bcd60e51b85526064820152602e858201527f496e697469616c697a61626c653a20636f6e747261637420697320616c72656160a48201520152fd5b50303b158015620000a75750600160ff831614620000a7565b50600160ff8316106200009f565b634e487b7160e01b600052604160045260246000fd5b600080fd5b15620002d457565b60405162461bcd60e51b815260206004820152602b60248201527f496e697469616c697a61626c653a20636f6e7472616374206973206e6f74206960448201526a6e697469616c697a696e6760a81b6064820152608490fd5b603380546001600160a01b039283166001600160a01b0319821681179092559091167f8be0079c531659141344cd1fd0a4f28419497f9722a3daafe3b4186f6b6457e0600080a356fe6080604081815260048036101561001557600080fd5b600092833560e01c9081630eb9b15a14610870575080631703a018146108515780632b06df53146107125780636efd971c146106ce578063715018a61461064b5780638da5cb5b146106165780639e33d81114610591578063a4f9edbf146102ce578063c1ba4e5914610281578063d92d4ea0146101c4578063ea8f8c4b146101795763f2fde38b146100a757600080fd5b34610175576020600319360112610175576100c0610959565b916100c9610b2f565b73ffffffffffffffffffffffffffffffffffffffff8316156100f257836100ef84610bae565b80f35b90602060849251917f08c379a0000000000000000000000000000000000000000000000000000000008352820152602660248201527f4f776e61626c653a206e6577206f776e657220697320746865207a65726f206160448201527f64647265737300000000000000000000000000000000000000000000000000006064820152fd5b8280fd5b5050346101c0576101606003193601126101c0576101bc906101b161019d36610981565b610144359061012435906101043590610c1b565b905191829182610aed565b0390f35b5080fd5b5090346101755760206003193601126101755773ffffffffffffffffffffffffffffffffffffffff6101f4610959565b6101fc610b2f565b16918215801561026d575b6102465750816020917fc3dc08a46232e8d0a95510120799f1e68e0aa28c88730b8b0127d5ff4565b4b09385526065835260018186205551908152a180f35b90517fc3b48cf1000000000000000000000000000000000000000000000000000000008152fd5b508284526065602052818420541515610207565b5034610175576020600319360112610175577ff18f88786aae85a652aadb99a82462616489a33370c9bcc7b245906812ef7cd19160209135906102c2610b2f565b8160665551908152a180f35b503461017557602060031936011261017557803567ffffffffffffffff811161058d576102fe9036908301610a6c565b83549060ff8260081c161591828093610580575b8015610569575b156104e6578260017fffffffffffffffffffffffffffffffffffffffffffffffffffffffffffffff0083161787556104b8575b5083818051810103126104b45760208101519073ffffffffffffffffffffffffffffffffffffffff82168092036104b0578401519261039a60ff875460081c1661039581610d03565b610d03565b6103a333610bae565b6103ab610b2f565b811561042d57506103bb90610bae565b8354916103cd60ff8460081c16610d03565b6066556103d8578280f35b7f7f26b83ff96e1f2b6a682f133852f6798a09c465da95921460cefb3847402498917fffffffffffffffffffffffffffffffffffffffffffffffffffffffffffff00ff6020921684555160018152a138808280f35b60849060208651917f08c379a0000000000000000000000000000000000000000000000000000000008352820152602660248201527f4f776e61626c653a206e6577206f776e657220697320746865207a65726f206160448201527f64647265737300000000000000000000000000000000000000000000000000006064820152fd5b8580fd5b8480fd5b7fffffffffffffffffffffffffffffffffffffffffffffffffffffffffffff0000166101011785553861034c565b60848460208751917f08c379a0000000000000000000000000000000000000000000000000000000008352820152602e60248201527f496e697469616c697a61626c653a20636f6e747261637420697320616c72656160448201527f647920696e697469616c697a65640000000000000000000000000000000000006064820152fd5b50303b1580156103195750600160ff821614610319565b50600160ff821610610312565b8380fd5b5090346101755760206003193601126101755773ffffffffffffffffffffffffffffffffffffffff6105c1610959565b6105c9610b2f565b1691828452606560205281842054156102465750816020917f665604bfe8ee87044ba1f1fd2fb47fe92983c9e187acbb442debf97d3e58192193855260658352848181205551908152a180f35b5050346101c057816003193601126101c05760209073ffffffffffffffffffffffffffffffffffffffff603354169051908152f35b83346106cb57806003193601126106cb57610664610b2f565b8073ffffffffffffffffffffffffffffffffffffffff6033547fffffffffffffffffffffffff00000000000000000000000000000000000000008116603355167f8be0079c531659141344cd1fd0a4f28419497f9722a3daafe3b4186f6b6457e08280a380f35b80fd5b5050346101c05760206003193601126101c0578060209273ffffffffffffffffffffffffffffffffffffffff610702610959565b1681526065845220549051908152f35b509190346101c0576101806003193601126101c05761073036610981565b6101643567ffffffffffffffff811161058d57906107546107699236908701610a6c565b50610144359061012435906101043590610c1b565b9060078210156108255760038214158061081a575b6107e35750506067547fffffffffffffffffffffffffffffffffffffffffffffffffffffffffffffffff81146107b75760010160675580f35b5060116024927f4e487b7100000000000000000000000000000000000000000000000000000000835252fd5b6108168491519283927fe6ace38e0000000000000000000000000000000000000000000000000000000084528301610aed565b0390fd5b50600282141561077e565b6024836021867f4e487b7100000000000000000000000000000000000000000000000000000000835252fd5b5050346101c057816003193601126101c0576020906066549051908152f35b9190503461058d578360031936011261058d578282019082821067ffffffffffffffff83111761092d57508252601381526020907f53696d706c6551756f72756d56616e696c6c61000000000000000000000000008282015282519382859384528251928382860152825b84811061091757505050828201840152601f017fffffffffffffffffffffffffffffffffffffffffffffffffffffffffffffffe0168101030190f35b81810183015188820188015287955082016108db565b8460416024927f4e487b7100000000000000000000000000000000000000000000000000000000835252fd5b6004359073ffffffffffffffffffffffffffffffffffffffff8216820361097c57565b600080fd5b610100919060031901821361097c5760405191820182811067ffffffffffffffff821117610a3d576040528173ffffffffffffffffffffffffffffffffffffffff600435818116810361097c57825263ffffffff90602435828116810361097c576020840152604435908116810361097c576040830152606435818116810361097c576060830152608435908116810361097c57608082015260a435600381101561097c5760a082015260c43560c082015260e060e435910152565b7f4e487b7100000000000000000000000000000000000000000000000000000000600052604160045260246000fd5b81601f8201121561097c5780359067ffffffffffffffff92838311610a3d57604051937fffffffffffffffffffffffffffffffffffffffffffffffffffffffffffffffe0603f81601f870116011685019085821090821117610a3d576040528284526020838301011161097c57816000926020809301838601378301015290565b919060208301926007821015610b005752565b7f4e487b7100000000000000000000000000000000000000000000000000000000600052602160045260246000fd5b73ffffffffffffffffffffffffffffffffffffffff603354163303610b5057565b60646040517f08c379a000000000000000000000000000000000000000000000000000000000815260206004820152602060248201527f4f776e61626c653a2063616c6c6572206973206e6f7420746865206f776e65726044820152fd5b6033549073ffffffffffffffffffffffffffffffffffffffff80911691827fffffffffffffffffffffffff0000000000000000000000000000000000000000821617603355167f8be0079c531659141344cd1fd0a4f28419497f9722a3daafe3b4186f6b6457e0600080a3565b919092606654908401808511610cd45710159283610cca575b505060a0810180516003811015610b0057600203610c5457505050600690565b516003811015610b0057600103610c6c575050600490565b63ffffffff90816020820151164310600014610c8a57505050600090565b60608101518216431015610ca057505050600190565b6080015116431015610cbb5715610cb657600290565b600190565b15610cc557600390565b600590565b1191503880610c34565b7f4e487b7100000000000000000000000000000000000000000000000000000000600052601160045260246000fd5b15610d0a57565b60846040517f08c379a000000000000000000000000000000000000000000000000000000000815260206004820152602b60248201527f496e697469616c697a61626c653a20636f6e7472616374206973206e6f74206960448201527f6e697469616c697a696e670000000000000000000000000000000000000000006064820152fdfea164736f6c6343000812000a",
    "linkReferences": {}
  },
  "methodIdentifiers": {
    "disableSpace(address)": "9e33d811",
    "enableSpace(address)": "d92d4ea0",
    "execute((address,uint32,address,uint32,uint32,uint8,bytes32,uint256),uint256,uint256,uint256,bytes)": "2b06df53",
    "getProposalStatus((address,uint32,address,uint32,uint32,uint8,bytes32,uint256),uint256,uint256,uint256)": "ea8f8c4b",
    "getStrategyType()": "0eb9b15a",
    "isSpaceEnabled(address)": "6efd971c",
    "owner()": "8da5cb5b",
    "quorum()": "1703a018",
    "renounceOwnership()": "715018a6",
    "setQuorum(uint256)": "c1ba4e59",
    "setUp(bytes)": "a4f9edbf",
    "transferOwnership(address)": "f2fde38b"
  },
  "id": 78
}