{
  "abi": [
    {
      "inputs": [],
      "name": "ExecutionFailed",
      "type": "error"
    },
    {
      "inputs": [],
      "name": "InvalidPayload",
      "type": "error"
    },
    {
      "inputs": [
        {
          "internalType": "enum ProposalStatus",
          "name": "status",
          "type": "uint8"
        }
      ],
      "name": "InvalidProposalStatus",
      "type": "error"
    },
    {
      "inputs": [
        {
          "components": [
            {
              "internalType": "uint32",
              "name": "snapshotTimestamp",
              "type": "uint32"
            },
            {
              "internalType": "uint32",
              "name": "startTimestamp",
              "type": "uint32"
            },
            {
              "internalType": "uint32",
              "name": "minEndTimestamp",
              "type": "uint32"
            },
            {
              "internalType": "uint32",
              "name": "maxEndTimestamp",
              "type": "uint32"
            },
            {
              "internalType": "bytes32",
              "name": "executionPayloadHash",
              "type": "bytes32"
            },
            {
              "components": [
                {
                  "internalType": "address",
                  "name": "addy",
                  "type": "address"
                },
                {
                  "internalType": "bytes",
                  "name": "params",
                  "type": "bytes"
                }
              ],
              "internalType": "struct Strategy",
              "name": "executionStrategy",
              "type": "tuple"
            },
            {
              "internalType": "enum FinalizationStatus",
              "name": "finalizationStatus",
              "type": "uint8"
            },
            {
              "components": [
                {
                  "internalType": "address",
                  "name": "addy",
                  "type": "address"
                },
                {
                  "internalType": "bytes",
                  "name": "params",
                  "type": "bytes"
                }
              ],
              "internalType": "struct Strategy[]",
              "name": "votingStrategies",
              "type": "tuple[]"
            }
          ],
          "internalType": "struct Proposal",
          "name": "proposal",
          "type": "tuple"
        },
        {
          "internalType": "uint256",
          "name": "votesFor",
          "type": "uint256"
        },
        {
          "internalType": "uint256",
          "name": "votesAgainst",
          "type": "uint256"
        },
        {
          "internalType": "uint256",
          "name": "votesAbstain",
          "type": "uint256"
        },
        {
          "internalType": "bytes",
          "name": "payload",
          "type": "bytes"
        }
      ],
      "name": "execute",
      "outputs": [],
      "stateMutability": "nonpayable",
      "type": "function"
    },
    {
      "inputs": [
        {
          "components": [
            {
              "internalType": "uint32",
              "name": "snapshotTimestamp",
              "type": "uint32"
            },
            {
              "internalType": "uint32",
              "name": "startTimestamp",
              "type": "uint32"
            },
            {
              "internalType": "uint32",
              "name": "minEndTimestamp",
              "type": "uint32"
            },
            {
              "internalType": "uint32",
              "name": "maxEndTimestamp",
              "type": "uint32"
            },
            {
              "internalType": "bytes32",
              "name": "executionPayloadHash",
              "type": "bytes32"
            },
            {
              "components": [
                {
                  "internalType": "address",
                  "name": "addy",
                  "type": "address"
                },
                {
                  "internalType": "bytes",
                  "name": "params",
                  "type": "bytes"
                }
              ],
              "internalType": "struct Strategy",
              "name": "executionStrategy",
              "type": "tuple"
            },
            {
              "internalType": "enum FinalizationStatus",
              "name": "finalizationStatus",
              "type": "uint8"
            },
            {
              "components": [
                {
                  "internalType": "address",
                  "name": "addy",
                  "type": "address"
                },
                {
                  "internalType": "bytes",
                  "name": "params",
                  "type": "bytes"
                }
              ],
              "internalType": "struct Strategy[]",
              "name": "votingStrategies",
              "type": "tuple[]"
            }
          ],
          "internalType": "struct Proposal",
          "name": "proposal",
          "type": "tuple"
        },
        {
          "internalType": "uint256",
          "name": "votesFor",
          "type": "uint256"
        },
        {
          "internalType": "uint256",
          "name": "votesAgainst",
          "type": "uint256"
        },
        {
          "internalType": "uint256",
          "name": "votesAbstain",
          "type": "uint256"
        }
      ],
      "name": "getProposalStatus",
      "outputs": [
        {
          "internalType": "enum ProposalStatus",
          "name": "",
          "type": "uint8"
        }
      ],
      "stateMutability": "view",
      "type": "function"
    },
    {
      "inputs": [
        {
          "components": [
            {
              "internalType": "uint32",
              "name": "snapshotTimestamp",
              "type": "uint32"
            },
            {
              "internalType": "uint32",
              "name": "startTimestamp",
              "type": "uint32"
            },
            {
              "internalType": "uint32",
              "name": "minEndTimestamp",
              "type": "uint32"
            },
            {
              "internalType": "uint32",
              "name": "maxEndTimestamp",
              "type": "uint32"
            },
            {
              "internalType": "bytes32",
              "name": "executionPayloadHash",
              "type": "bytes32"
            },
            {
              "components": [
                {
                  "internalType": "address",
                  "name": "addy",
                  "type": "address"
                },
                {
                  "internalType": "bytes",
                  "name": "params",
                  "type": "bytes"
                }
              ],
              "internalType": "struct Strategy",
              "name": "executionStrategy",
              "type": "tuple"
            },
            {
              "internalType": "enum FinalizationStatus",
              "name": "finalizationStatus",
              "type": "uint8"
            },
            {
              "components": [
                {
                  "internalType": "address",
                  "name": "addy",
                  "type": "address"
                },
                {
                  "internalType": "bytes",
                  "name": "params",
                  "type": "bytes"
                }
              ],
              "internalType": "struct Strategy[]",
              "name": "votingStrategies",
              "type": "tuple[]"
            }
          ],
          "internalType": "struct Proposal",
          "name": "proposal",
          "type": "tuple"
        }
      ],
      "name": "getQuorum",
      "outputs": [
        {
          "internalType": "uint256",
          "name": "",
          "type": "uint256"
        }
      ],
      "stateMutability": "pure",
      "type": "function"
    }
  ],
  "bytecode": {
    "object": "0x60808060405234610016576106ca908161001c8239f35b600080fdfe6040608081526004908136101561001557600080fd5b600091823560e01c80633f6253c214610136578063414ac1cc146100bf5763aa92548c1461004257600080fd5b346100bb5760207ffffffffffffffffffffffffffffffffffffffffffffffffffffffffffffffffc3601126100bb5780359067ffffffffffffffff82116100b75761009460a091602093369101610439565b01510151916020838051810103126100b457506020809201519051908152f35b80fd5b8380fd5b8280fd5b5091346100b45760807ffffffffffffffffffffffffffffffffffffffffffffffffffffffffffffffffc3601126100b45782359067ffffffffffffffff82116100b457506101166101329361012792369101610439565b6064359060443590602435906105a8565b905191829182610566565b0390f35b50346100bb5760a07ffffffffffffffffffffffffffffffffffffffffffffffffffffffffffffffffc3601126100bb5767ffffffffffffffff81358181116102ce576101859036908401610439565b906084359081116102ce5761019d903690840161035b565b906101b0606435604435602435846105a8565b60078110156102a257600381141580610297575b610260575060800151906020815191012003610239578254907fffffffffffffffffffffffffffffffffffffffffffffffffffffffffffffffff821461020d5750600101825551f35b8360116024927f4e487b7100000000000000000000000000000000000000000000000000000000835252fd5b90517f7c6953f9000000000000000000000000000000000000000000000000000000008152fd5b8361029386519283927fe6ace38e0000000000000000000000000000000000000000000000000000000084528301610566565b0390fd5b5060028114156101c4565b6024866021867f4e487b7100000000000000000000000000000000000000000000000000000000835252fd5b8480fd5b907fffffffffffffffffffffffffffffffffffffffffffffffffffffffffffffffe0601f604051930116820182811067ffffffffffffffff82111761031657604052565b7f4e487b7100000000000000000000000000000000000000000000000000000000600052604160045260246000fd5b359063ffffffff8216820361035657565b600080fd5b81601f820112156103565780359067ffffffffffffffff8211610316576103a960207fffffffffffffffffffffffffffffffffffffffffffffffffffffffffffffffe0601f850116016102d2565b928284526020838301011161035657816000926020809301838601378301015290565b91909160408184031261035657604080519167ffffffffffffffff91830182811184821017610316576040528294813573ffffffffffffffffffffffffffffffffffffffff81168103610356578452602082013592831161035657602092610434920161035b565b910152565b9190916101008082850312610356576040519081019167ffffffffffffffff928281108482111761031657604052819461047282610345565b8352602091610482838201610345565b8385015261049260408201610345565b60408501526104a360608201610345565b60608501526080810135608085015260a081013585811161035657826104ca9183016103cc565b60a085015260c081013560038110156103565760c085015260e081013590858211610356570181601f8201121561035657803594808611610316578560051b9084806105178185016102d2565b8099815201928401019380851161035657858401925b858410610541575050505050505060e00152565b833583811161035657879161055b848480948a01016103cc565b81520193019261052d565b9190602083019260078210156105795752565b7f4e487b7100000000000000000000000000000000000000000000000000000000600052602160045260246000fd5b919092602060a084015101516020818051810103126103565760206105d9910151916105d48487610682565b610682565b10159283610678575b505060c08101805160038110156105795760020361060257505050600690565b5160038110156105795760010361061a575050600490565b63ffffffff9081602082015116421060001461063857505050600090565b6040810151821642101561064e57505050600190565b6060015116421015610669571561066457600290565b600190565b1561067357600390565b600590565b11915038806105e2565b8119811161068e570190565b7f4e487b7100000000000000000000000000000000000000000000000000000000600052601160045260246000fdfea164736f6c634300080f000a",
    "linkReferences": {}
  },
  "methodIdentifiers": {
    "execute((uint32,uint32,uint32,uint32,bytes32,(address,bytes),uint8,(address,bytes)[]),uint256,uint256,uint256,bytes)": "3f6253c2",
    "getProposalStatus((uint32,uint32,uint32,uint32,bytes32,(address,bytes),uint8,(address,bytes)[]),uint256,uint256,uint256)": "414ac1cc",
    "getQuorum((uint32,uint32,uint32,uint32,bytes32,(address,bytes),uint8,(address,bytes)[]))": "aa92548c"
  },
  "id": 51
}