{
  "abi": [
    {
      "inputs": [
        {
          "internalType": "uint256",
          "name": "_quorum",
          "type": "uint256"
        }
      ],
      "stateMutability": "nonpayable",
      "type": "constructor"
    },
    {
      "inputs": [],
      "name": "ExecutionFailed",
      "type": "error"
    },
    {
      "inputs": [],
      "name": "InvalidPayload",
      "type": "error"
    },
    {
      "inputs": [
        {
          "internalType": "enum ProposalStatus",
          "name": "status",
          "type": "uint8"
        }
      ],
      "name": "InvalidProposalStatus",
      "type": "error"
    },
    {
      "inputs": [],
      "name": "InvalidSpace",
      "type": "error"
    },
    {
      "anonymous": false,
      "inputs": [
        {
          "indexed": false,
          "internalType": "uint8",
          "name": "version",
          "type": "uint8"
        }
      ],
      "name": "Initialized",
      "type": "event"
    },
    {
      "anonymous": false,
      "inputs": [
        {
          "indexed": true,
          "internalType": "address",
          "name": "previousOwner",
          "type": "address"
        },
        {
          "indexed": true,
          "internalType": "address",
          "name": "newOwner",
          "type": "address"
        }
      ],
      "name": "OwnershipTransferred",
      "type": "event"
    },
    {
      "anonymous": false,
      "inputs": [
        {
          "indexed": false,
          "internalType": "address",
          "name": "space",
          "type": "address"
        }
      ],
      "name": "SpaceDisabled",
      "type": "event"
    },
    {
      "anonymous": false,
      "inputs": [
        {
          "indexed": false,
          "internalType": "address",
          "name": "space",
          "type": "address"
        }
      ],
      "name": "SpaceEnabled",
      "type": "event"
    },
    {
      "inputs": [
        {
          "internalType": "address",
          "name": "space",
          "type": "address"
        }
      ],
      "name": "disableSpace",
      "outputs": [],
      "stateMutability": "nonpayable",
      "type": "function"
    },
    {
      "inputs": [
        {
          "internalType": "address",
          "name": "space",
          "type": "address"
        }
      ],
      "name": "enableSpace",
      "outputs": [],
      "stateMutability": "nonpayable",
      "type": "function"
    },
    {
      "inputs": [
        {
          "components": [
            {
              "internalType": "uint32",
              "name": "snapshotTimestamp",
              "type": "uint32"
            },
            {
              "internalType": "uint32",
              "name": "startTimestamp",
              "type": "uint32"
            },
            {
              "internalType": "uint32",
              "name": "minEndTimestamp",
              "type": "uint32"
            },
            {
              "internalType": "uint32",
              "name": "maxEndTimestamp",
              "type": "uint32"
            },
            {
              "internalType": "bytes32",
              "name": "executionPayloadHash",
              "type": "bytes32"
            },
            {
              "internalType": "contract IExecutionStrategy",
              "name": "executionStrategy",
              "type": "address"
            },
            {
              "internalType": "address",
              "name": "author",
              "type": "address"
            },
            {
              "internalType": "enum FinalizationStatus",
              "name": "finalizationStatus",
              "type": "uint8"
            },
            {
              "components": [
                {
                  "internalType": "address",
                  "name": "addy",
                  "type": "address"
                },
                {
                  "internalType": "bytes",
                  "name": "params",
                  "type": "bytes"
                }
              ],
              "internalType": "struct Strategy[]",
              "name": "votingStrategies",
              "type": "tuple[]"
            }
          ],
          "internalType": "struct Proposal",
          "name": "proposal",
          "type": "tuple"
        },
        {
          "internalType": "uint256",
          "name": "votesFor",
          "type": "uint256"
        },
        {
          "internalType": "uint256",
          "name": "votesAgainst",
          "type": "uint256"
        },
        {
          "internalType": "uint256",
          "name": "votesAbstain",
          "type": "uint256"
        },
        {
          "internalType": "bytes",
          "name": "payload",
          "type": "bytes"
        }
      ],
      "name": "execute",
      "outputs": [],
      "stateMutability": "nonpayable",
      "type": "function"
    },
    {
      "inputs": [
        {
          "components": [
            {
              "internalType": "uint32",
              "name": "snapshotTimestamp",
              "type": "uint32"
            },
            {
              "internalType": "uint32",
              "name": "startTimestamp",
              "type": "uint32"
            },
            {
              "internalType": "uint32",
              "name": "minEndTimestamp",
              "type": "uint32"
            },
            {
              "internalType": "uint32",
              "name": "maxEndTimestamp",
              "type": "uint32"
            },
            {
              "internalType": "bytes32",
              "name": "executionPayloadHash",
              "type": "bytes32"
            },
            {
              "internalType": "contract IExecutionStrategy",
              "name": "executionStrategy",
              "type": "address"
            },
            {
              "internalType": "address",
              "name": "author",
              "type": "address"
            },
            {
              "internalType": "enum FinalizationStatus",
              "name": "finalizationStatus",
              "type": "uint8"
            },
            {
              "components": [
                {
                  "internalType": "address",
                  "name": "addy",
                  "type": "address"
                },
                {
                  "internalType": "bytes",
                  "name": "params",
                  "type": "bytes"
                }
              ],
              "internalType": "struct Strategy[]",
              "name": "votingStrategies",
              "type": "tuple[]"
            }
          ],
          "internalType": "struct Proposal",
          "name": "proposal",
          "type": "tuple"
        },
        {
          "internalType": "uint256",
          "name": "votesFor",
          "type": "uint256"
        },
        {
          "internalType": "uint256",
          "name": "votesAgainst",
          "type": "uint256"
        },
        {
          "internalType": "uint256",
          "name": "votesAbstain",
          "type": "uint256"
        }
      ],
      "name": "getProposalStatus",
      "outputs": [
        {
          "internalType": "enum ProposalStatus",
          "name": "",
          "type": "uint8"
        }
      ],
      "stateMutability": "view",
      "type": "function"
    },
    {
      "inputs": [],
      "name": "getStrategyType",
      "outputs": [
        {
          "internalType": "string",
          "name": "",
          "type": "string"
        }
      ],
      "stateMutability": "pure",
      "type": "function"
    },
    {
      "inputs": [
        {
          "internalType": "address",
          "name": "space",
          "type": "address"
        }
      ],
      "name": "isSpaceEnabled",
      "outputs": [
        {
          "internalType": "bool",
          "name": "",
          "type": "bool"
        }
      ],
      "stateMutability": "view",
      "type": "function"
    },
    {
      "inputs": [],
      "name": "owner",
      "outputs": [
        {
          "internalType": "address",
          "name": "",
          "type": "address"
        }
      ],
      "stateMutability": "view",
      "type": "function"
    },
    {
      "inputs": [],
      "name": "quorum",
      "outputs": [
        {
          "internalType": "uint256",
          "name": "",
          "type": "uint256"
        }
      ],
      "stateMutability": "view",
      "type": "function"
    },
    {
      "inputs": [],
      "name": "renounceOwnership",
      "outputs": [],
      "stateMutability": "nonpayable",
      "type": "function"
    },
    {
      "inputs": [
        {
          "internalType": "address",
          "name": "newOwner",
          "type": "address"
        }
      ],
      "name": "transferOwnership",
      "outputs": [],
      "stateMutability": "nonpayable",
      "type": "function"
    }
  ],
  "bytecode": {
    "object": "0x60803461005157601f610c7438819003918201601f19168301916001600160401b03831184841017610056578084926020946040528339810103126100515751606655604051610c07908161006d8239f35b600080fd5b634e487b7160e01b600052604160045260246000fdfe6080604081815260048036101561001557600080fd5b600092833560e01c9081630eb9b15a1461063d5750806312eadade146105e45780631703a018146105c55780636b12e4c4146104435780636efd971c146103fa578063715018a6146103775780638da5cb5b1461033e5780639e33d81114610292578063d92d4ea0146101ae5763f2fde38b1461009157600080fd5b346101aa5760206003193601126101aa576100aa6107af565b906100b3610a7d565b73ffffffffffffffffffffffffffffffffffffffff809216928315610127575050603354827fffffffffffffffffffffffff0000000000000000000000000000000000000000821617603355167f8be0079c531659141344cd1fd0a4f28419497f9722a3daafe3b4186f6b6457e08380a380f35b90602060849251917f08c379a0000000000000000000000000000000000000000000000000000000008352820152602660248201527f4f776e61626c653a206e6577206f776e657220697320746865207a65726f206160448201527f64647265737300000000000000000000000000000000000000000000000000006064820152fd5b8280fd5b5090346101aa5760206003193601126101aa5773ffffffffffffffffffffffffffffffffffffffff6101de6107af565b6101e6610a7d565b16918215801561027d575b6102565750816020917fc3dc08a46232e8d0a95510120799f1e68e0aa28c88730b8b0127d5ff4565b4b09385526065835280852060017fffffffffffffffffffffffffffffffffffffffffffffffffffffffffffffff0082541617905551908152a180f35b90517fc3b48cf1000000000000000000000000000000000000000000000000000000008152fd5b50828452606560205260ff82852054166101f1565b5090346101aa5760206003193601126101aa5773ffffffffffffffffffffffffffffffffffffffff6102c26107af565b6102ca610a7d565b1691828452606560205260ff8285205416156102565750816020917f665604bfe8ee87044ba1f1fd2fb47fe92983c9e187acbb442debf97d3e581921938552606583528085207fffffffffffffffffffffffffffffffffffffffffffffffffffffffffffffff00815416905551908152a180f35b50503461037357816003193601126103735760209073ffffffffffffffffffffffffffffffffffffffff603354169051908152f35b5080fd5b83346103f757806003193601126103f757610390610a7d565b8073ffffffffffffffffffffffffffffffffffffffff6033547fffffffffffffffffffffffff00000000000000000000000000000000000000008116603355167f8be0079c531659141344cd1fd0a4f28419497f9722a3daafe3b4186f6b6457e08280a380f35b80fd5b5050346103735760206003193601126103735760ff8160209373ffffffffffffffffffffffffffffffffffffffff6104306107af565b1681526065855220541690519015158152f35b509190346103735760a06003193601126103735767ffffffffffffffff83358181116105c1576104769036908601610864565b906084359081116105c15761048e90369086016107f3565b906104a160643560443560243584610afc565b60078110156105955760038114158061058a575b61055357506080015190602081519101200361052b57506067547fffffffffffffffffffffffffffffffffffffffffffffffffffffffffffffffff81146104ff5760010160675580f35b5060116024927f4e487b7100000000000000000000000000000000000000000000000000000000835252fd5b9050517f7c6953f9000000000000000000000000000000000000000000000000000000008152fd5b8561058685519283927fe6ace38e0000000000000000000000000000000000000000000000000000000084528301610a3b565b0390fd5b5060028114156104b5565b6024856021887f4e487b7100000000000000000000000000000000000000000000000000000000835252fd5b8380fd5b5050346103735781600319360112610373576020906066549051908152f35b5091346103f75760806003193601126103f75782359067ffffffffffffffff82116103f7575061061d6106399361062e92369101610864565b606435906044359060243590610afc565b905191829182610a3b565b0390f35b919050346105c157836003193601126105c1578282019082821067ffffffffffffffff8311176106fa57508252601381526020907f53696d706c6551756f72756d56616e696c6c61000000000000000000000000008282015282519382859384528251928382860152825b8481106106e457505050828201840152601f017fffffffffffffffffffffffffffffffffffffffffffffffffffffffffffffffe0168101030190f35b81810183015188820188015287955082016106a8565b8460416024927f4e487b7100000000000000000000000000000000000000000000000000000000835252fd5b907fffffffffffffffffffffffffffffffffffffffffffffffffffffffffffffffe0601f604051930116820182811067ffffffffffffffff82111761076a57604052565b7f4e487b7100000000000000000000000000000000000000000000000000000000600052604160045260246000fd5b359063ffffffff821682036107aa57565b600080fd5b6004359073ffffffffffffffffffffffffffffffffffffffff821682036107aa57565b359073ffffffffffffffffffffffffffffffffffffffff821682036107aa57565b81601f820112156107aa5780359067ffffffffffffffff821161076a5761084160207fffffffffffffffffffffffffffffffffffffffffffffffffffffffffffffffe0601f85011601610726565b92828452602083830101116107aa57816000926020809301838601378301015290565b9190916101209081818503126107aa5760409182519081019467ffffffffffffffff958281108782111761076a578452819561089f84610799565b83526020916108af838601610799565b838501526108be868601610799565b868501526108ce60608601610799565b60608501526080850135608085015260a085013573ffffffffffffffffffffffffffffffffffffffff811681036107aa5760a085015261091060c086016107d2565b60c085015260e085013560038110156107aa5760e08501526101009485810135908382116107aa57019181601f840112156107aa5782359681881161076a578760051b918580610961818601610726565b809b81520193860101948486116107aa57868101935b86851061098a5750505050505050500152565b84358381116107aa57820190847fffffffffffffffffffffffffffffffffffffffffffffffffffffffffffffffe083890301126107aa5784519085820182811086821117610a0d5786526109df8a84016107d2565b825285830135918583116107aa576109fe898c809695819601016107f3565b83820152815201940193610977565b602460007f4e487b710000000000000000000000000000000000000000000000000000000081526041600452fd5b919060208301926007821015610a4e5752565b7f4e487b7100000000000000000000000000000000000000000000000000000000600052602160045260246000fd5b73ffffffffffffffffffffffffffffffffffffffff603354163303610a9e57565b60646040517f08c379a000000000000000000000000000000000000000000000000000000000815260206004820152602060248201527f4f776e61626c653a2063616c6c6572206973206e6f7420746865206f776e65726044820152fd5b919092610b1560665491610b108487610bbe565b610bbe565b10159283610bb4575b505060e0810180516003811015610a4e57600203610b3e57505050600690565b516003811015610a4e57600103610b56575050600490565b63ffffffff90816020820151164210600014610b7457505050600090565b60408101518216421015610b8a57505050600190565b6060015116421015610ba55715610ba057600290565b600190565b15610baf57600390565b600590565b1191503880610b1e565b91908201809211610bcb57565b7f4e487b7100000000000000000000000000000000000000000000000000000000600052601160045260246000fdfea164736f6c6343000812000a",
    "linkReferences": {}
  },
  "methodIdentifiers": {
    "disableSpace(address)": "9e33d811",
    "enableSpace(address)": "d92d4ea0",
    "execute((uint32,uint32,uint32,uint32,bytes32,address,address,uint8,(address,bytes)[]),uint256,uint256,uint256,bytes)": "6b12e4c4",
    "getProposalStatus((uint32,uint32,uint32,uint32,bytes32,address,address,uint8,(address,bytes)[]),uint256,uint256,uint256)": "12eadade",
    "getStrategyType()": "0eb9b15a",
    "isSpaceEnabled(address)": "6efd971c",
    "owner()": "8da5cb5b",
    "quorum()": "1703a018",
    "renounceOwnership()": "715018a6",
    "transferOwnership(address)": "f2fde38b"
  },
  "id": 64
}