{
  "abi": [
    {
      "inputs": [],
      "name": "ExecutionFailed",
      "type": "error"
    },
    {
      "inputs": [],
      "name": "InvalidPayload",
      "type": "error"
    },
    {
      "inputs": [
        {
          "internalType": "enum ProposalStatus",
          "name": "status",
          "type": "uint8"
        }
      ],
      "name": "InvalidProposalStatus",
      "type": "error"
    },
    {
      "inputs": [
        {
          "components": [
            {
              "internalType": "uint32",
              "name": "snapshotTimestamp",
              "type": "uint32"
            },
            {
              "internalType": "uint32",
              "name": "startTimestamp",
              "type": "uint32"
            },
            {
              "internalType": "uint32",
              "name": "minEndTimestamp",
              "type": "uint32"
            },
            {
              "internalType": "uint32",
              "name": "maxEndTimestamp",
              "type": "uint32"
            },
            {
              "internalType": "bytes32",
              "name": "executionPayloadHash",
              "type": "bytes32"
            },
            {
              "components": [
                {
                  "internalType": "address",
                  "name": "addy",
                  "type": "address"
                },
                {
                  "internalType": "bytes",
                  "name": "params",
                  "type": "bytes"
                }
              ],
              "internalType": "struct Strategy",
              "name": "executionStrategy",
              "type": "tuple"
            },
            {
              "internalType": "address",
              "name": "author",
              "type": "address"
            },
            {
              "internalType": "enum FinalizationStatus",
              "name": "finalizationStatus",
              "type": "uint8"
            },
            {
              "components": [
                {
                  "internalType": "address",
                  "name": "addy",
                  "type": "address"
                },
                {
                  "internalType": "bytes",
                  "name": "params",
                  "type": "bytes"
                }
              ],
              "internalType": "struct Strategy[]",
              "name": "votingStrategies",
              "type": "tuple[]"
            }
          ],
          "internalType": "struct Proposal",
          "name": "proposal",
          "type": "tuple"
        },
        {
          "internalType": "uint256",
          "name": "votesFor",
          "type": "uint256"
        },
        {
          "internalType": "uint256",
          "name": "votesAgainst",
          "type": "uint256"
        },
        {
          "internalType": "uint256",
          "name": "votesAbstain",
          "type": "uint256"
        },
        {
          "internalType": "bytes",
          "name": "payload",
          "type": "bytes"
        }
      ],
      "name": "execute",
      "outputs": [],
      "stateMutability": "nonpayable",
      "type": "function"
    },
    {
      "inputs": [
        {
          "components": [
            {
              "internalType": "uint32",
              "name": "snapshotTimestamp",
              "type": "uint32"
            },
            {
              "internalType": "uint32",
              "name": "startTimestamp",
              "type": "uint32"
            },
            {
              "internalType": "uint32",
              "name": "minEndTimestamp",
              "type": "uint32"
            },
            {
              "internalType": "uint32",
              "name": "maxEndTimestamp",
              "type": "uint32"
            },
            {
              "internalType": "bytes32",
              "name": "executionPayloadHash",
              "type": "bytes32"
            },
            {
              "components": [
                {
                  "internalType": "address",
                  "name": "addy",
                  "type": "address"
                },
                {
                  "internalType": "bytes",
                  "name": "params",
                  "type": "bytes"
                }
              ],
              "internalType": "struct Strategy",
              "name": "executionStrategy",
              "type": "tuple"
            },
            {
              "internalType": "address",
              "name": "author",
              "type": "address"
            },
            {
              "internalType": "enum FinalizationStatus",
              "name": "finalizationStatus",
              "type": "uint8"
            },
            {
              "components": [
                {
                  "internalType": "address",
                  "name": "addy",
                  "type": "address"
                },
                {
                  "internalType": "bytes",
                  "name": "params",
                  "type": "bytes"
                }
              ],
              "internalType": "struct Strategy[]",
              "name": "votingStrategies",
              "type": "tuple[]"
            }
          ],
          "internalType": "struct Proposal",
          "name": "proposal",
          "type": "tuple"
        },
        {
          "internalType": "uint256",
          "name": "votesFor",
          "type": "uint256"
        },
        {
          "internalType": "uint256",
          "name": "votesAgainst",
          "type": "uint256"
        },
        {
          "internalType": "uint256",
          "name": "votesAbstain",
          "type": "uint256"
        }
      ],
      "name": "getProposalStatus",
      "outputs": [
        {
          "internalType": "enum ProposalStatus",
          "name": "",
          "type": "uint8"
        }
      ],
      "stateMutability": "view",
      "type": "function"
    },
    {
      "inputs": [
        {
          "components": [
            {
              "internalType": "uint32",
              "name": "snapshotTimestamp",
              "type": "uint32"
            },
            {
              "internalType": "uint32",
              "name": "startTimestamp",
              "type": "uint32"
            },
            {
              "internalType": "uint32",
              "name": "minEndTimestamp",
              "type": "uint32"
            },
            {
              "internalType": "uint32",
              "name": "maxEndTimestamp",
              "type": "uint32"
            },
            {
              "internalType": "bytes32",
              "name": "executionPayloadHash",
              "type": "bytes32"
            },
            {
              "components": [
                {
                  "internalType": "address",
                  "name": "addy",
                  "type": "address"
                },
                {
                  "internalType": "bytes",
                  "name": "params",
                  "type": "bytes"
                }
              ],
              "internalType": "struct Strategy",
              "name": "executionStrategy",
              "type": "tuple"
            },
            {
              "internalType": "address",
              "name": "author",
              "type": "address"
            },
            {
              "internalType": "enum FinalizationStatus",
              "name": "finalizationStatus",
              "type": "uint8"
            },
            {
              "components": [
                {
                  "internalType": "address",
                  "name": "addy",
                  "type": "address"
                },
                {
                  "internalType": "bytes",
                  "name": "params",
                  "type": "bytes"
                }
              ],
              "internalType": "struct Strategy[]",
              "name": "votingStrategies",
              "type": "tuple[]"
            }
          ],
          "internalType": "struct Proposal",
          "name": "proposal",
          "type": "tuple"
        }
      ],
      "name": "getQuorum",
      "outputs": [
        {
          "internalType": "uint256",
          "name": "",
          "type": "uint256"
        }
      ],
      "stateMutability": "pure",
      "type": "function"
    },
    {
      "inputs": [],
      "name": "getStrategyType",
      "outputs": [
        {
          "internalType": "string",
          "name": "",
          "type": "string"
        }
      ],
      "stateMutability": "pure",
      "type": "function"
    }
  ],
  "bytecode": {
    "object": "0x60808060405234610016576107fc908161001c8239f35b600080fdfe6040608081526004908136101561001557600080fd5b600090813560e01c80630b26b029146103705780630eb9b15a1461026757806353a1394e146101ec57638601320b1461004d57600080fd5b346101e85760a07ffffffffffffffffffffffffffffffffffffffffffffffffffffffffffffffffc3601126101e85767ffffffffffffffff83358181116101e45761009b9036908601610559565b906084359081116101e4576100b39036908601610491565b906100c6606435604435602435846106d9565b60078110156101b8576003811415806101ad575b61017657506080015190602081519101200361014e575080547fffffffffffffffffffffffffffffffffffffffffffffffffffffffffffffffff811461012257600101815580f35b5060116024927f4e487b7100000000000000000000000000000000000000000000000000000000835252fd5b9050517f7c6953f9000000000000000000000000000000000000000000000000000000008152fd5b856101a985519283927fe6ace38e0000000000000000000000000000000000000000000000000000000084528301610697565b0390fd5b5060028114156100da565b6024856021887f4e487b7100000000000000000000000000000000000000000000000000000000835252fd5b8380fd5b5080fd5b5082346102635760207ffffffffffffffffffffffffffffffffffffffffffffffffffffffffffffffffc3601126102635780359067ffffffffffffffff82116101e45761024060a091602093369101610559565b015101519160208380518101031261026057506020809201519051908152f35b80fd5b8280fd5b50823461026357827ffffffffffffffffffffffffffffffffffffffffffffffffffffffffffffffffc360112610263578151908282019082821067ffffffffffffffff83111761034457508252601381526020907f53696d706c6551756f72756d56616e696c6c61000000000000000000000000008282015282519382859384528251928382860152825b84811061032e57505050828201840152601f017fffffffffffffffffffffffffffffffffffffffffffffffffffffffffffffffe0168101030190f35b81810183015188820188015287955082016102f2565b8460416024927f4e487b7100000000000000000000000000000000000000000000000000000000835252fd5b5090346102605760807ffffffffffffffffffffffffffffffffffffffffffffffffffffffffffffffffc3601126102605782359067ffffffffffffffff821161026057506103c76103e3936103d892369101610559565b6064359060443590602435906106d9565b905191829182610697565b0390f35b907fffffffffffffffffffffffffffffffffffffffffffffffffffffffffffffffe0601f604051930116820182811067ffffffffffffffff82111761042b57604052565b7f4e487b7100000000000000000000000000000000000000000000000000000000600052604160045260246000fd5b359063ffffffff8216820361046b57565b600080fd5b359073ffffffffffffffffffffffffffffffffffffffff8216820361046b57565b81601f8201121561046b5780359067ffffffffffffffff821161042b576104df60207fffffffffffffffffffffffffffffffffffffffffffffffffffffffffffffffe0601f850116016103e7565b928284526020838301011161046b57816000926020809301838601378301015290565b91909160408184031261046b57604080519167ffffffffffffffff9183018281118482101761042b57604052829461053982610470565b8452602082013592831161046b576020926105549201610491565b910152565b91909161012090818185031261046b5760405167ffffffffffffffff9281018381118282101761042b5760405280946105918361045a565b82526020906105a182850161045a565b828401526105b16040850161045a565b60408401526105c26060850161045a565b60608401526080840135608084015260a084013585811161046b57816105e9918601610502565b60a08401526105fa60c08501610470565b60c084015260e0840135600381101561046b5760e084015261010093848101359086821161046b570181601f8201121561046b5780359580871161042b578660051b90848061064a8185016103e7565b809a815201928401019380851161046b57858401925b85841061067257505050505050500152565b833583811161046b57879161068c848480948a0101610502565b815201930192610660565b9190602083019260078210156106aa5752565b7f4e487b7100000000000000000000000000000000000000000000000000000000600052602160045260246000fd5b919092602060a0840151015160208180518101031261046b57602061070a9101519161070584876107b3565b6107b3565b101592836107a9575b505060e08101805160038110156106aa5760020361073357505050600690565b5160038110156106aa5760010361074b575050600490565b63ffffffff9081602082015116421060001461076957505050600090565b6040810151821642101561077f57505050600190565b606001511642101561079a571561079557600290565b600190565b156107a457600390565b600590565b1191503880610713565b919082018092116107c057565b7f4e487b7100000000000000000000000000000000000000000000000000000000600052601160045260246000fdfea164736f6c6343000812000a",
    "linkReferences": {}
  },
  "methodIdentifiers": {
    "execute((uint32,uint32,uint32,uint32,bytes32,(address,bytes),address,uint8,(address,bytes)[]),uint256,uint256,uint256,bytes)": "8601320b",
    "getProposalStatus((uint32,uint32,uint32,uint32,bytes32,(address,bytes),address,uint8,(address,bytes)[]),uint256,uint256,uint256)": "0b26b029",
    "getQuorum((uint32,uint32,uint32,uint32,bytes32,(address,bytes),address,uint8,(address,bytes)[]))": "53a1394e",
    "getStrategyType()": "0eb9b15a"
  },
  "id": 51
}