{
  "abi": [
    {
      "inputs": [
        {
          "internalType": "uint256",
          "name": "_quorum",
          "type": "uint256"
        }
      ],
      "stateMutability": "nonpayable",
      "type": "constructor"
    },
    {
      "inputs": [],
      "name": "ExecutionFailed",
      "type": "error"
    },
    {
      "inputs": [],
      "name": "InvalidPayload",
      "type": "error"
    },
    {
      "inputs": [
        {
          "internalType": "enum ProposalStatus",
          "name": "status",
          "type": "uint8"
        }
      ],
      "name": "InvalidProposalStatus",
      "type": "error"
    },
    {
      "inputs": [],
      "name": "InvalidSpace",
      "type": "error"
    },
    {
      "anonymous": false,
      "inputs": [
        {
          "indexed": false,
          "internalType": "uint8",
          "name": "version",
          "type": "uint8"
        }
      ],
      "name": "Initialized",
      "type": "event"
    },
    {
      "anonymous": false,
      "inputs": [
        {
          "indexed": true,
          "internalType": "address",
          "name": "previousOwner",
          "type": "address"
        },
        {
          "indexed": true,
          "internalType": "address",
          "name": "newOwner",
          "type": "address"
        }
      ],
      "name": "OwnershipTransferred",
      "type": "event"
    },
    {
      "anonymous": false,
      "inputs": [
        {
          "indexed": false,
          "internalType": "address",
          "name": "space",
          "type": "address"
        }
      ],
      "name": "SpaceDisabled",
      "type": "event"
    },
    {
      "anonymous": false,
      "inputs": [
        {
          "indexed": false,
          "internalType": "address",
          "name": "space",
          "type": "address"
        }
      ],
      "name": "SpaceEnabled",
      "type": "event"
    },
    {
      "inputs": [
        {
          "internalType": "address",
          "name": "space",
          "type": "address"
        }
      ],
      "name": "disableSpace",
      "outputs": [],
      "stateMutability": "nonpayable",
      "type": "function"
    },
    {
      "inputs": [
        {
          "internalType": "address",
          "name": "space",
          "type": "address"
        }
      ],
      "name": "enableSpace",
      "outputs": [],
      "stateMutability": "nonpayable",
      "type": "function"
    },
    {
      "inputs": [
        {
          "components": [
            {
              "internalType": "uint32",
              "name": "snapshotTimestamp",
              "type": "uint32"
            },
            {
              "internalType": "uint32",
              "name": "startTimestamp",
              "type": "uint32"
            },
            {
              "internalType": "uint32",
              "name": "minEndTimestamp",
              "type": "uint32"
            },
            {
              "internalType": "uint32",
              "name": "maxEndTimestamp",
              "type": "uint32"
            },
            {
              "internalType": "bytes32",
              "name": "executionPayloadHash",
              "type": "bytes32"
            },
            {
              "internalType": "contract IExecutionStrategy",
              "name": "executionStrategy",
              "type": "address"
            },
            {
              "internalType": "address",
              "name": "author",
              "type": "address"
            },
            {
              "internalType": "enum FinalizationStatus",
              "name": "finalizationStatus",
              "type": "uint8"
            },
            {
              "internalType": "uint256",
              "name": "activeVotingStrategies",
              "type": "uint256"
            }
          ],
          "internalType": "struct Proposal",
          "name": "proposal",
          "type": "tuple"
        },
        {
          "internalType": "uint256",
          "name": "votesFor",
          "type": "uint256"
        },
        {
          "internalType": "uint256",
          "name": "votesAgainst",
          "type": "uint256"
        },
        {
          "internalType": "uint256",
          "name": "votesAbstain",
          "type": "uint256"
        },
        {
          "internalType": "bytes",
          "name": "payload",
          "type": "bytes"
        }
      ],
      "name": "execute",
      "outputs": [],
      "stateMutability": "nonpayable",
      "type": "function"
    },
    {
      "inputs": [
        {
          "components": [
            {
              "internalType": "uint32",
              "name": "snapshotTimestamp",
              "type": "uint32"
            },
            {
              "internalType": "uint32",
              "name": "startTimestamp",
              "type": "uint32"
            },
            {
              "internalType": "uint32",
              "name": "minEndTimestamp",
              "type": "uint32"
            },
            {
              "internalType": "uint32",
              "name": "maxEndTimestamp",
              "type": "uint32"
            },
            {
              "internalType": "bytes32",
              "name": "executionPayloadHash",
              "type": "bytes32"
            },
            {
              "internalType": "contract IExecutionStrategy",
              "name": "executionStrategy",
              "type": "address"
            },
            {
              "internalType": "address",
              "name": "author",
              "type": "address"
            },
            {
              "internalType": "enum FinalizationStatus",
              "name": "finalizationStatus",
              "type": "uint8"
            },
            {
              "internalType": "uint256",
              "name": "activeVotingStrategies",
              "type": "uint256"
            }
          ],
          "internalType": "struct Proposal",
          "name": "proposal",
          "type": "tuple"
        },
        {
          "internalType": "uint256",
          "name": "votesFor",
          "type": "uint256"
        },
        {
          "internalType": "uint256",
          "name": "votesAgainst",
          "type": "uint256"
        },
        {
          "internalType": "uint256",
          "name": "votesAbstain",
          "type": "uint256"
        }
      ],
      "name": "getProposalStatus",
      "outputs": [
        {
          "internalType": "enum ProposalStatus",
          "name": "",
          "type": "uint8"
        }
      ],
      "stateMutability": "view",
      "type": "function"
    },
    {
      "inputs": [],
      "name": "getStrategyType",
      "outputs": [
        {
          "internalType": "string",
          "name": "",
          "type": "string"
        }
      ],
      "stateMutability": "pure",
      "type": "function"
    },
    {
      "inputs": [
        {
          "internalType": "address",
          "name": "space",
          "type": "address"
        }
      ],
      "name": "isSpaceEnabled",
      "outputs": [
        {
          "internalType": "bool",
          "name": "",
          "type": "bool"
        }
      ],
      "stateMutability": "view",
      "type": "function"
    },
    {
      "inputs": [],
      "name": "owner",
      "outputs": [
        {
          "internalType": "address",
          "name": "",
          "type": "address"
        }
      ],
      "stateMutability": "view",
      "type": "function"
    },
    {
      "inputs": [],
      "name": "quorum",
      "outputs": [
        {
          "internalType": "uint256",
          "name": "",
          "type": "uint256"
        }
      ],
      "stateMutability": "view",
      "type": "function"
    },
    {
      "inputs": [],
      "name": "renounceOwnership",
      "outputs": [],
      "stateMutability": "nonpayable",
      "type": "function"
    },
    {
      "inputs": [
        {
          "internalType": "address",
          "name": "newOwner",
          "type": "address"
        }
      ],
      "name": "transferOwnership",
      "outputs": [],
      "stateMutability": "nonpayable",
      "type": "function"
    }
  ],
  "bytecode": {
    "object": "0x60803461005157601f610b2a38819003918201601f19168301916001600160401b03831184841017610056578084926020946040528339810103126100515751606655604051610abd908161006d8239f35b600080fd5b634e487b7160e01b600052604160045260246000fdfe6040608081526004908136101561001557600080fd5b600091823560e01c806301fe2212146105915780630eb9b15a146104a75780631703a018146104885780636efd971c1461043f578063715018a6146103bc5780638da5cb5b146103875780639e33d811146102db578063b3d8ecdf14610290578063d92d4ea0146101ac5763f2fde38b1461008f57600080fd5b346101a85760206003193601126101a8576100a86107cc565b906100b1610933565b73ffffffffffffffffffffffffffffffffffffffff809216928315610125575050603354827fffffffffffffffffffffffff0000000000000000000000000000000000000000821617603355167f8be0079c531659141344cd1fd0a4f28419497f9722a3daafe3b4186f6b6457e08380a380f35b90602060849251917f08c379a0000000000000000000000000000000000000000000000000000000008352820152602660248201527f4f776e61626c653a206e6577206f776e657220697320746865207a65726f206160448201527f64647265737300000000000000000000000000000000000000000000000000006064820152fd5b8280fd5b5090346101a85760206003193601126101a85773ffffffffffffffffffffffffffffffffffffffff6101dc6107cc565b6101e4610933565b16918215801561027b575b6102545750816020917fc3dc08a46232e8d0a95510120799f1e68e0aa28c88730b8b0127d5ff4565b4b09385526065835280852060017fffffffffffffffffffffffffffffffffffffffffffffffffffffffffffffff0082541617905551908152a180f35b90517fc3b48cf1000000000000000000000000000000000000000000000000000000008152fd5b50828452606560205260ff82852054166101ef565b5050346102d7576101806003193601126102d7576102d3906102c86102b4366107f4565b6101643590610144359061012435906109b2565b9051918291826108f1565b0390f35b5080fd5b5090346101a85760206003193601126101a85773ffffffffffffffffffffffffffffffffffffffff61030b6107cc565b610313610933565b1691828452606560205260ff8285205416156102545750816020917f665604bfe8ee87044ba1f1fd2fb47fe92983c9e187acbb442debf97d3e581921938552606583528085207fffffffffffffffffffffffffffffffffffffffffffffffffffffffffffffff00815416905551908152a180f35b5050346102d757816003193601126102d75760209073ffffffffffffffffffffffffffffffffffffffff603354169051908152f35b833461043c578060031936011261043c576103d5610933565b8073ffffffffffffffffffffffffffffffffffffffff6033547fffffffffffffffffffffffff00000000000000000000000000000000000000008116603355167f8be0079c531659141344cd1fd0a4f28419497f9722a3daafe3b4186f6b6457e08280a380f35b80fd5b5050346102d75760206003193601126102d75760ff8160209373ffffffffffffffffffffffffffffffffffffffff6104756107cc565b1681526065855220541690519015158152f35b5050346102d757816003193601126102d7576020906066549051908152f35b50346101a857826003193601126101a8578151908282019082821067ffffffffffffffff83111761056557508252601381526020907f53696d706c6551756f72756d56616e696c6c61000000000000000000000000008282015282519382859384528251928382860152825b84811061054f57505050828201840152601f017fffffffffffffffffffffffffffffffffffffffffffffffffffffffffffffffe0168101030190f35b8181018301518882018801528795508201610513565b8460416024927f4e487b7100000000000000000000000000000000000000000000000000000000835252fd5b509190346102d7576101a06003193601126102d7576105af366107f4565b6101843567ffffffffffffffff918282116107c857366023830112156107c8578186013583811161079c578451937fffffffffffffffffffffffffffffffffffffffffffffffffffffffffffffffe0603f81601f8501160116850190858210908211176107705785528084526020840192366024838301011161076c57818792602460209301863785010152610650610164356101443561012435846109b2565b600781101561074057600381141580610735575b6106fe57506080015191519020036106d657506067547fffffffffffffffffffffffffffffffffffffffffffffffffffffffffffffffff81146106aa5760010160675580f35b5060116024927f4e487b7100000000000000000000000000000000000000000000000000000000835252fd5b9050517f7c6953f9000000000000000000000000000000000000000000000000000000008152fd5b8661073186519283927fe6ace38e00000000000000000000000000000000000000000000000000000000845283016108f1565b0390fd5b506002811415610664565b6024866021897f4e487b7100000000000000000000000000000000000000000000000000000000835252fd5b8680fd5b60248760418a7f4e487b7100000000000000000000000000000000000000000000000000000000835252fd5b6024866041897f4e487b7100000000000000000000000000000000000000000000000000000000835252fd5b8480fd5b6004359073ffffffffffffffffffffffffffffffffffffffff821682036107ef57565b600080fd5b61012091906003190182136107ef5760405191820182811067ffffffffffffffff8211176108c2576040528163ffffffff60043581811681036107ef57825260243581811681036107ef57602083015260443581811681036107ef57604083015260643590811681036107ef576060820152608435608082015273ffffffffffffffffffffffffffffffffffffffff60a43581811681036107ef5760a083015260c43590811681036107ef5760c082015260e43560038110156107ef5760e082015261010061010435910152565b7f4e487b7100000000000000000000000000000000000000000000000000000000600052604160045260246000fd5b9190602083019260078210156109045752565b7f4e487b7100000000000000000000000000000000000000000000000000000000600052602160045260246000fd5b73ffffffffffffffffffffffffffffffffffffffff60335416330361095457565b60646040517f08c379a000000000000000000000000000000000000000000000000000000000815260206004820152602060248201527f4f776e61626c653a2063616c6c6572206973206e6f7420746865206f776e65726044820152fd5b9190926109cb606654916109c68487610a74565b610a74565b10159283610a6a575b505060e0810180516003811015610904576002036109f457505050600690565b51600381101561090457600103610a0c575050600490565b63ffffffff90816020820151164210600014610a2a57505050600090565b60408101518216421015610a4057505050600190565b6060015116421015610a5b5715610a5657600290565b600190565b15610a6557600390565b600590565b11915038806109d4565b91908201809211610a8157565b7f4e487b7100000000000000000000000000000000000000000000000000000000600052601160045260246000fdfea164736f6c6343000812000a",
    "linkReferences": {}
  },
  "methodIdentifiers": {
    "disableSpace(address)": "9e33d811",
    "enableSpace(address)": "d92d4ea0",
    "execute((uint32,uint32,uint32,uint32,bytes32,address,address,uint8,uint256),uint256,uint256,uint256,bytes)": "01fe2212",
    "getProposalStatus((uint32,uint32,uint32,uint32,bytes32,address,address,uint8,uint256),uint256,uint256,uint256)": "b3d8ecdf",
    "getStrategyType()": "0eb9b15a",
    "isSpaceEnabled(address)": "6efd971c",
    "owner()": "8da5cb5b",
    "quorum()": "1703a018",
    "renounceOwnership()": "715018a6",
    "transferOwnership(address)": "f2fde38b"
  },
  "id": 78
}