{
  "abi": [
    {
      "inputs": [
        {
          "internalType": "uint8",
          "name": "index",
          "type": "uint8"
        }
      ],
      "name": "DuplicateFound",
      "type": "error"
    },
    {
      "inputs": [
        {
          "internalType": "uint256",
          "name": "index",
          "type": "uint256"
        }
      ],
      "name": "InvalidStrategyIndex",
      "type": "error"
    },
    {
      "inputs": [
        {
          "internalType": "address",
          "name": "author",
          "type": "address"
        },
        {
          "internalType": "bytes",
          "name": "params",
          "type": "bytes"
        },
        {
          "internalType": "bytes",
          "name": "userParams",
          "type": "bytes"
        }
      ],
      "name": "validate",
      "outputs": [
        {
          "internalType": "bool",
          "name": "",
          "type": "bool"
        }
      ],
      "stateMutability": "nonpayable",
      "type": "function"
    }
  ],
  "bytecode": {
    "object": "0x6080806040523461001657610805908161001c8239f35b600080fdfe6080604052600436101561001257600080fd5b60003560e01c63072160951461002757600080fd5b3461034a5760607ffffffffffffffffffffffffffffffffffffffffffffffffffffffffffffffffc36011261034a5760043573ffffffffffffffffffffffffffffffffffffffff8116810361034a57602490813567ffffffffffffffff811161034a57610098903690600401610526565b60449291923567ffffffffffffffff811161034a576100bb903690600401610526565b604085848196949601031261034a5760208501359267ffffffffffffffff841161034a57808601601f85880101121561034a57838601356100fb816105e0565b94610109604051968761059f565b8186526020860183890160208460051b848c0101011161034a576020828a0101905b60208460051b848c010101821061046457505050505083019260208185031261034a5780359067ffffffffffffffff821161034a57019280601f8501121561034a57833593610179856105e0565b94610187604051968761059f565b80865260208087019160051b8301019183831161034a5760208101915b8383106103d057505050505063ffffffff42166101c08461076a565b600093845b81518610156103c1578760ff6101db88856106c9565b5151168651811015610393576101f181886106c9565b519073ffffffffffffffffffffffffffffffffffffffff82511615610363575073ffffffffffffffffffffffffffffffffffffffff81876000886102c5896102958f61024960209a918b8b819451169a0151946106c9565b510151916040519a8b998a9889977f871d81b70000000000000000000000000000000000000000000000000000000089526004890152169086015260806044860152608485019061070c565b907ffffffffffffffffffffffffffffffffffffffffffffffffffffffffffffffffc84830301606485015261070c565b03925af190811561035757600091610320575b5081018091116102f2576102ec909561066d565b946101c5565b877f4e487b710000000000000000000000000000000000000000000000000000000060005260116004526000fd5b90506020813d60201161034f575b8161033b6020938361059f565b8101031261034a5751386102d8565b600080fd5b3d915061032e565b6040513d6000823e3d90fd5b9050604051907ff3e4f1b40000000000000000000000000000000000000000000000000000000082526004820152fd5b604051907ff3e4f1b40000000000000000000000000000000000000000000000000000000082526004820152fd5b86602091604051913511158152f35b823567ffffffffffffffff811161034a5782019060407fffffffffffffffffffffffffffffffffffffffffffffffffffffffffffffffe0838803011261034a576040519061041d82610554565b602083013560ff8116810361034a57825260408301359167ffffffffffffffff831161034a57610455886020809695819601016105f8565b838201528152019201916101a4565b813567ffffffffffffffff811161034a576040848c018201878d01037fffffffffffffffffffffffffffffffffffffffffffffffffffffffffffffffe0011261034a57604051916104b483610554565b848c0182016020013573ffffffffffffffffffffffffffffffffffffffff8116900361034a578b8501820160208101358452604001359067ffffffffffffffff821161034a576020936105158e8680969581968b8e850194010101016105f8565b83820152815201920191905061012b565b9181601f8401121561034a5782359167ffffffffffffffff831161034a576020838186019501011161034a57565b6040810190811067ffffffffffffffff82111761057057604052565b7f4e487b7100000000000000000000000000000000000000000000000000000000600052604160045260246000fd5b90601f7fffffffffffffffffffffffffffffffffffffffffffffffffffffffffffffffe0910116810190811067ffffffffffffffff82111761057057604052565b67ffffffffffffffff81116105705760051b60200190565b81601f8201121561034a5780359067ffffffffffffffff8211610570576040519261064b60207fffffffffffffffffffffffffffffffffffffffffffffffffffffffffffffffe0601f860116018561059f565b8284526020838301011161034a57816000926020809301838601378301015290565b7fffffffffffffffffffffffffffffffffffffffffffffffffffffffffffffffff811461069a5760010190565b7f4e487b7100000000000000000000000000000000000000000000000000000000600052601160045260246000fd5b80518210156106dd5760209160051b010190565b7f4e487b7100000000000000000000000000000000000000000000000000000000600052603260045260246000fd5b919082519283825260005b8481106107565750507fffffffffffffffffffffffffffffffffffffffffffffffffffffffffffffffe0601f8460006020809697860101520116010190565b602081830181015184830182015201610717565b9060028251106107f457600091825b81518410156107ee5760ff9060018261079287866106c9565b5151161b918282166107b0575017926107aa9061066d565b92610779565b6024906107bd87866106c9565b515116604051907f1ed4de830000000000000000000000000000000000000000000000000000000082526004820152fd5b50509050565b905056fea164736f6c6343000812000a",
    "linkReferences": {}
  },
  "methodIdentifiers": {
    "validate(address,bytes,bytes)": "07216095"
  },
  "id": 80
}