{
  "_format": "hh-sol-artifact-1",
  "contractName": "ModuleProxyFactory",
  "sourceName": "contracts/factory/ModuleProxyFactory.sol",
  "abi": [
    {
      "inputs": [],
      "name": "FailedInitialization",
      "type": "error"
    },
    {
      "inputs": [
        {
          "internalType": "address",
          "name": "address_",
          "type": "address"
        }
      ],
      "name": "TakenAddress",
      "type": "error"
    },
    {
      "inputs": [
        {
          "internalType": "address",
          "name": "target",
          "type": "address"
        }
      ],
      "name": "TargetHasNoCode",
      "type": "error"
    },
    {
      "inputs": [
        {
          "internalType": "address",
          "name": "target",
          "type": "address"
        }
      ],
      "name": "ZeroAddress",
      "type": "error"
    },
    {
      "anonymous": false,
      "inputs": [
        {
          "indexed": true,
          "internalType": "address",
          "name": "proxy",
          "type": "address"
        },
        {
          "indexed": true,
          "internalType": "address",
          "name": "masterCopy",
          "type": "address"
        }
      ],
      "name": "ModuleProxyCreation",
      "type": "event"
    },
    {
      "inputs": [
        {
          "internalType": "address",
          "name": "masterCopy",
          "type": "address"
        },
        {
          "internalType": "bytes",
          "name": "initializer",
          "type": "bytes"
        },
        {
          "internalType": "uint256",
          "name": "saltNonce",
          "type": "uint256"
        }
      ],
      "name": "deployModule",
      "outputs": [
        {
          "internalType": "address",
          "name": "proxy",
          "type": "address"
        }
      ],
      "stateMutability": "nonpayable",
      "type": "function"
    }
  ],
  "bytecode": "0x608060405234801561001057600080fd5b50610478806100206000396000f3fe608060405234801561001057600080fd5b506004361061002b5760003560e01c8063f1ab873c14610030575b600080fd5b61004361003e3660046102ff565b61005f565b6040516001600160a01b03909116815260200160405180910390f35b60006100a384848051906020012084604051602001610088929190918252602082015260400190565b60405160208183030381529060405280519060200120610184565b90506000816001600160a01b0316846040516100bf91906103d8565b6000604051808303816000865af19150503d80600081146100fc576040519150601f19603f3d011682016040523d82523d6000602084013e610101565b606091505b505090508061013c576040517f7dabd39900000000000000000000000000000000000000000000000000000000815260040160405180910390fd5b846001600160a01b0316826001600160a01b03167f2150ada912bf189ed721c44211199e270903fc88008c2a1e1e889ef30fe67c5f60405160405180910390a3509392505050565b60006001600160a01b0383166101d6576040517fc80b88340000000000000000000000000000000000000000000000000000000081526001600160a01b03841660048201526024015b60405180910390fd5b6001600160a01b0383163b610222576040517ffff233610000000000000000000000000000000000000000000000000000000081526001600160a01b03841660048201526024016101cd565b6040517f602d8060093d393df3363d3d373d3d3d363d730000000000000000000000000060208201526bffffffffffffffffffffffff19606085901b1660338201527f5af43d82803e903d91602b57fd5bf3000000000000000000000000000000000060478201526000906056016040516020818303038152906040529050828151602083016000f591506001600160a01b0382166102f8576040517fdc7a7a240000000000000000000000000000000000000000000000000000000081526001600160a01b03831660048201526024016101cd565b5092915050565b60008060006060848603121561031457600080fd5b83356001600160a01b038116811461032b57600080fd5b9250602084013567ffffffffffffffff8082111561034857600080fd5b818601915086601f83011261035c57600080fd5b81358181111561036e5761036e610413565b604051601f8201601f19908116603f0116810190838211818310171561039657610396610413565b816040528281528960208487010111156103af57600080fd5b826020860160208301376000602084830101528096505050505050604084013590509250925092565b6000825160005b818110156103f957602081860181015185830152016103df565b81811115610408576000828501525b509190910192915050565b7f4e487b7100000000000000000000000000000000000000000000000000000000600052604160045260246000fdfea2646970667358221220eb4192a47e13b5caa04f2d8f6f3a9b873b41b62f996287a3bb02de410c0e739a64736f6c63430008060033",
  "linkReferences": {},
  "deployedLinkReferences": {}
}